:1000000000000220DD5A0100055B0100075B0100D2
:10001000095B01000B5B01000D5B010000000000AB
:100020000000000000000000000000000F5B010065
:10003000115B010000000000135B0100155B010073
:10004000175B0100175B01007D5901004159010058
:1000500055590100175B0100BD470100175B010006
:10006000D5550100DD550100E5550100175B010084
:10007000175B0100175B0100175B0100175B0100B4
:10008000175B0100175B0100175B0100175B0100A4
:10009000175B0100175B0100175B0100175B010094
:1000A000175B0100175B0100ED550100F5550100DC
:1000B000175B0100175B010000000000000000005A
:1000C000175B0100175B0100175B01006959010014
:1000D000175B0100175B0100175B0100175B010054
:1000E000A559010000000000000000000000000011
:1000F00000000000175B01000000000091590100A2
:1001000000000000000000000000000000000000EF
:1001100000000000000000000000000000000000DF
:1001200000000000000000000000000000000000CF
:1001300000000000000000000000000000000000BF
:1001400000000000000000000000000000000000AF
:10015000000000000000000000000000000000009F
:10016000000000000000000000000000000000008F
:10017000000000000000000000000000000000007F
:10018000000000000000000000000000000000006F
:10019000000000000000000000000000000000005F
:1001A000000000000000000000000000000000004F
:1001B000000000000000000000000000000000003F
:1001C000000000000000000000000000000000002F
:1001D000000000000000000000000000000000001F
:1001E000000000000000000000000000000000000F
:1001F00000000000000000000000000000000000FF
:100200007CB0EE877CB0EE87FF00FF00FF00FF00B0
:10021000FF00FF00FF00FF00FF00FF00FF00FF00E6
:10022000FF00FF00FF00FF00FF00FF00FF00FF00D6
:10023000FF00FF00FF00FF002DE9F04F85B00391A4
:100240000778A7F10903042B044607F07F0200F1A9
:100250000100F5D9202AF3D02B2F04BF677804467C
:100260002D2F72D09FED427B8DED007B4FF000086B
:100270004FF000098FB34FF0000E4FF0000ADFF887
:1002800000B1754619E018F01FF9804689463046DE
:1002900018F0B4F842464B4617F064FF52468046C9
:1002A00089465B46DDE9000135B318F037FACDE940
:1002B0000001AE4614F8017F7FB1A7F13006092E88
:1002C00052465B4640464946DDD9C5B92E2F16D168
:1002D00014F8017F0125002FEFD142464B46DDE99E
:1002E000000118F0F1F880468946039B40464946D4
:1002F0001C6005B0BDE8F08F4FF0010EDAE7BEF1EB
:10030000000F29D042464B46DDE9000118F0DCF829
:1003100007F0DF07452F80468946E6D10399601C28
:100320000A2217F003FF16490246002018F02CFCA1
:1003300002460B464046494618F0C6F880468946B4
:100340004046494605B0BDE8F08F9FED0B7B6778CE
:100350008DED007B013489E7DFF828904FF000082D
:100360004046494605B0BDE8F08F00BFAFF30080BE
:10037000000000000000F03F000000000000F0BF9F
:10038000000024400000F87F2DE9F84F16460023B6
:10039000002204460D4618F009FB002840F09D801D
:1003A000002200232046294618F0F6FA28B1302210
:1003B000002332707370BDE8F88F2046294616F08E
:1003C00085FB18F031FB7BA3D3E900238146294646
:1003D000204618F0EBFA002800F08680B9F1000FF3
:1003E000C0F2BE804A4600206F4918F0CDFB02469D
:1003F0000B462046294618F091F904460D4666A1A1
:10040000D1E9000101274FF0000822462B4618F0E1
:100410005BF80022654B17F0A5FE18F0F1FB002FEA
:10042000CC464FF0FF3AC1464FF0000840F38580BC
:10043000DFF888E15E4C0122AEF1700945F6F32544
:100440004FF02E0BA94208BFA0424FF0300309D352
:10045000001B61EB0501A94208BFA04203F10103A3
:10046000F6D2DBB2337050EA010306F1010409D180
:10047000BA4210DACE4502F101020CD026467EE8DF
:100480000245DFE7BA4204BF86F801B0B41CCE458E
:1004900002F10102F2D1B8F1000F0DD02246302155
:1004A00002F8011BC2F1010353442344002BF7DC83
:1004B0002AEAEA7301331C44BCF1010F4CD06523D6
:1004C000BCF1000F2370C5BF2B236370611CA11CFE
:1004D0006046BDE8F84F0FF0C3BA05F100431D4672
:1004E0002D23337001365BE72DA3D3E9002320468B
:1004F000294618F079FA00287FF470AFB9F10E0F91
:1005000009F101073DDDA9F10E0842460020264908
:1005100018F03AFB02460B462046294618F0FEF832
:100520000022224B17F01EFE18F06AFB002FA9F1E3
:100530000F0A4FF0010C3FF77BAF334630222E24D9
:1005400003F8022B74707FEA090618D01E4403F8E2
:10055000012BB342FBD16BE700232370BDE8F88F7A
:10056000C9F100020020104918F00EFB02460B46AC
:100570002046294617F0A8FF04460D463FE71E46D1
:1005800056E7C9F10E0200200749C84618F0FCFAE8
:100590004FF0010939E700BF0000901EC4BCD642ED
:1005A00050EFE2D6E41A4B44000024400000E03F44
:1005B00000407A108DEDB5A0F7C6B03E0897010057
:1005C00070B54FF0FF3006F0B5F904466FF07F408C
:1005D00006F0B0F90646204617F000FF00220C4B4B
:1005E00017F072FF044630460D4617F0F7FE06A3DB
:1005F000D3E9002318F092F802460B46204629461C
:1006000017F0B0FD70BD00BF0000E0DFFFFF6F43DB
:100610000000F03D0000000008B510F0CDFCDFED5B
:100620000C7A07EE100A67EE277A17EE900A17F099
:10063000F7FE05A3D3E9002318F070F818F0F4F9D9
:1006400008BD00BFAFF30080EA2E4454FB211940DF
:100650000000B4430000000008B510F0C1FCDFED5D
:100660000C7A07EE100A67EE277A17EE900A17F059
:10067000D7FE05A3D3E9002318F050F818F0D4F9F9
:1006800008BD00BFAFF30080EA2E4454FB2119409F
:100690000000B44300000000494A21F000439342A7
:1006A0002DE9704304460D464BDC464A93420E4604
:1006B0000EDC3FA3D3E9002317F054FD0022424B88
:1006C00018F092F900284CD020462946BDE87083E6
:1006D0003E4A93423BDCB3F1804F42DD15F0F0FD22
:1006E0002246804689462B462046294617F0ECFED6
:1006F0000022354B17F036FD16F0A6FC02460B46DD
:100700004046494617F02EFD02460B4600202E4972
:1007100018F004F8424604460D464B46404649460A
:1007200017F020FD02460B462046294617F01AFD19
:1007300002F06AF8002EC9DC01F100431946BDE859
:10074000708302460B4617F00DFDBDE8708315F06F
:10075000B7FD02F059F818A3D3E9002317F002FD02
:10076000E8E722462B462046294617F0ADFE804694
:1007700089462046294615F0A3FD002204460D4671
:10078000114B4046494617F0EDFC16F05DFC002287
:100790000D4B17F0E7FC02460B464046494617F062
:1007A000BDFF22462B4617F0DDFC00F0C5FAC1E77D
:1007B0009C7500883CE4377EEF39FAFE422EE63F16
:1007C000FFFFEF7FFFFF2F3E0000F03F0000B04132
:1007D0002DE9F84FC44B21F000469E4204460D46D9
:1007E0008A460EDDC14B9E4200F3AC8000F0A7802C
:1007F000BAF1000F40F3EA809FA1D1E90001BDE802
:10080000F88FBB4B9E4200F3B580A3F1DE739E428E
:1008100040F3A0804FF0FF3B22462B46204629465E
:1008200017F052FE02460B468046894617F04CFEF2
:1008300093A3D3E9002306460F4617F045FE92A383
:10084000D3E9002317F08EFC32463B4617F03CFEFE
:100850008FA3D3E9002317F085FC32463B4617F0FF
:1008600033FE8DA3D3E9002317F07CFC32463B46D0
:1008700017F02AFE8AA3D3E9002317F073FC32464F
:100880003B4617F021FE88A3D3E9002317F06AFC4A
:1008900042464B4617F018FE85A3D3E90023804655
:1008A00089463046394617F00FFE83A3D3E900236B
:1008B00017F056FC32463B4617F006FE80A3D3E9FC
:1008C000002317F04DFC32463B4617F0FDFD7EA39A
:1008D000D3E9002317F044FC32463B4617F0F4FD01
:1008E0007BA3D3E9002317F03BFC32463B4617F0CD
:1008F000EBFDBBF1FF3F02460B466CD0404649463C
:1009000017F030FC22462B4617F0DEFD794E7A4B6D
:100910004FEACB0B5E449B44DBE9002317F020FC3D
:1009200022462B4617F01CFC02460B46D6E9000176
:1009300017F016FCBAF1000F43DBBDE8F88F002872
:100940003FF456AF22462B462046294617F00AFCB4
:10095000BDE8F88F60A3D3E9002317F003FC002261
:10096000664B18F041F800283FF454AF2046294662
:10097000BDE8F88F15F0A4FC614B9E4204460D467D
:1009800039DCA3F550239E425EDC02460B4617F08D
:10099000E9FB0022594B17F0E3FB002206460F4605
:1009A0004FF080432046294617F0DCFB02460B46F9
:1009B0003046394617F0B2FE4FF0000B04460D46A4
:1009C0002AE701F100431946BDE8F88F44A1D1E9B7
:1009D0000001BDE8F88F4046494617F0C3FB2246A8
:1009E0002B4617F071FD02460B462046294617F0AC
:1009F000B7FBBDE8F88F434B9E421ADC0022424B06
:100A000017F0AEFB002206460F463F4B2046294614
:100A100017F05AFD0022394B17F0A4FB02460B4693
:100A20003046394617F07AFE4FF0020B04460D4669
:100A3000F2E602460B460020344917F06FFE4FF0F5
:100A4000030B04460D46E7E600222C4B17F088FB0B
:100A5000002206460F46294B2046294617F082FB06
:100A600002460B463046394617F058FE4FF0010B50
:100A700004460D46D0E600BF182D4454FB21F93F33
:100A800011DA22E33AAD903FEB0D76244B7BA93F80
:100A9000513DD0A0660DB13F6E204CC5CD45B73F4E
:100AA000FF8300922449C23F0D5555555555D53FFA
:100AB0002F6C6A2C44B4A2BF9AFDDE522DDEAD3FEE
:100AC0006D9A74AFF2B0B33F711623FEC671BC3F8E
:100AD000C4EB98999999C93F9C7500883CE4377E8E
:100AE000182D4454FB21F9BFFFFF0F440000F07F95
:100AF000FFFFDB3F18970100389701000000F03F2F
:100B0000FFFFF23FFF7F03400000F83F0000F0BF0F
:100B10002DE9F843C1F30A59A9F2FF35132D024616
:100B20000B460C4606468846074622DC002D50DB65
:100B3000DFF8F09049FA05F901EA090E5EEA0606C7
:100B40001CD036A3D3E9002317F00CFB00220023AE
:100B500017F04AFF48B1002C04DD4FF4801343FA2C
:100B600005F5A84428EA0904002721463846BDE8CF
:100B7000F883332D06DDB5F5806F3DD0104619465C
:100B8000BDE8F883A9F213494FF0FF3E2EFA09F9A8
:100B900010EA090FF2D021A3D3E9002317F0E2FAFB
:100BA0000022002317F020FF0028DED0002C09DDF2
:100BB000142D2BD00127C5F1340507FA05F5AE1920
:100BC00028BFB844444626EA090721463846BDE80E
:100BD000F88312A3D3E9002317F0C4FA00220023FC
:100BE00017F002FF0028C0D0002C0BDB54EA0607E8
:100BF00006D00027084CB8E717F0B4FABDE8F88330
:100C00003C46B2E700274FF00044AEE704F101088C
:100C1000D8E700BFAFF300800000F03F9C7500886C
:100C20003CE4377EFFFF0F002DE9F041C1F30A5786
:100C3000A7F2FF35132D02460B460C4688460646A2
:100C40001CDC002D3FDB3A4F2F41864601EA070CA2
:100C50005CEA0E0E17D034A3D3E9002317F082FA12
:100C60000022002317F0C0FE20B1002C3FDB28EA51
:100C70000704002621463046BDE8F081332D06DD0D
:100C8000B5F5806F2FD010461946BDE8F081A7F268
:100C900013474FF0FF3E2EFA07F73842F3D022A356
:100CA000D3E9002317F05EFA0022002317F09CFE20
:100CB0000028DFD0002C20DB444626EA0706214628
:100CC0003046BDE8F08118A3D3E9002317F04AFAB3
:100CD0000022002317F088FE0028CBD0002C17DB61
:100CE00000263446C6E717F03DFABDE8F0814FF420
:100CF000801343FA05F5A844B9E7142D10D0012359
:100D0000C5F1340503FA05F5AE1928BF9844D3E7B9
:100D100024F00042074B324318BF1C460026A9E7C7
:100D200004F10108C8E700BF9C7500883CE4377EE9
:100D3000FFFF0F000000F0BF2DE9F04FD84B9942A4
:100D400087B0804689460E4613DCD64B21F000441E
:100D50009C4218DD0022D44B17F01EFE002879D0EB
:100D6000002200230020D14917F0D8FC07B0BDE8CD
:100D7000F08FCF4B99422FDD42464B4617F0F2F9E8
:100D800007B0BDE8F08FCB4B9C4270DDCA4B1E44D0
:100D90009E427ED80022C94B4046494617F0E2F9F0
:100DA0004FEA215AAAF2FF3ABAF1000F04460D4663
:100DB0000E4640F3DE8142464B4617F0D1F902461B
:100DC0000B460020BD4917F0CBF922462B4617F001
:100DD000A5FCCDE902010BE0B94B9E42DADD9FEDA7
:100DE0009A7B8DED027B4FEA265A4446AAF2FF3ADF
:100DF000B44BC6F313069E4246F07F5500F3E780DE
:100E000045F44015204629460022AC4B17F0A8F9BE
:100E1000002204460D46AC4B17F056FB22462B46EB
:100E200017F052FBA046CDE90401A946CDE9000127
:100E3000002E3AD1002200232046294617F0ACFDAF
:100E4000002800F0CE80BAF1000F40F0748100203D
:100E5000002195E742464B464046314617F080F95F
:100E600002460B4617F05AFC07B0BDE8F08F00228F
:100E7000964B17F077F90022002317F0B5FD0028F4
:100E800000F0CC80924B9C4200F3C880404649461B
:100E900076E700228C4B17F017FB42464B4617F0C3
:100EA00013FBCDE900014FF0000A00224FF0804310
:100EB0004046494617F056F902460B464046494619
:100EC00017F02CFC02460B4606460F4617F0FCFABC
:100ED0005FA3D3E9002304460D4617F0F5FA5EA39D
:100EE000D3E9002317F03EF922462B4617F0ECFA1F
:100EF0005BA3D3E9002317F035F922462B4617F000
:100F0000E3FA59A3D3E9002317F02CF922462B4624
:100F100017F0DAFA56A3D3E9002317F023F9224693
:100F20002B4617F0D1FA54A3D3E9002317F01AF98E
:100F300022462B4617F0C8FA51A3D3E9002317F035
:100F400011F922462B4617F0BFFA04460D46BAF1B6
:100F5000000F00F0BF80504617F050FA4AA3D3E9C3
:100F6000002382468B4617F0AFFADDE90023CDE976
:100F700004012046294617F0F5F832463B4617F0A3
:100F8000A3FA43A3D3E9002304460D46504659462D
:100F900017F09AFADDE9022317F0E4F802460B464F
:100FA0002046294617F0DEF802460B46DDE900012F
:100FB00017F0D6F842464B4617F0D2F802460B46D9
:100FC000DDE9040117F0CCF807B0BDE8F08F45F477
:100FD0000015C6F5801620462946B6100AF1010A0A
:100FE00012E72DA3D3E900232046294617F06CFA17
:100FF00002460B460020314917F0B2F8DDE9042320
:1010000017F062FA06460F46BAF1000F73D1024696
:101010000B462046294617F0A3F8B1E642464B4658
:101020004046494617F050FA0022274B17F04CFA79
:1010300002460B464046494617F092F807B0BDE815
:10104000F08F00BFAFF30080000000000000000040
:1010500044523EDF12F1C23F9FC678D0099AC33F87
:10106000DE03CB966446C73FAF788E1DC571CC3F7B
:10107000599322942449D23F04FA97999999D93FD8
:10108000935555555555E53F0000E0FE422EE63F8D
:10109000763C7935EF39EA3D555555555555E53F7F
:1010A0007982DA3FFFFFEF3F0000F0BF000050C33E
:1010B000FFFFEF7FFFFF1F3E3C412D400000F03F50
:1010C000FFFF3F439DA006000000E03F00005043AB
:1010D000FFFF8F3CDDE9004522462B4617F042F822
:1010E00032463B4617F0F0F902460B4620462946A9
:1010F00017F036F89CE7504617F080F923A3D3E9A0
:10110000002382468B4617F0DFF922A3D3E90023A0
:10111000804689465046594617F0D6F9DDE9022344
:1011200017F020F802460B463046394617F018F8FB
:1011300022462B46DCE7504617F060F915A3D3E9A9
:10114000002306460F4617F0BFF9DDE9022317F02A
:1011500009F80EA3D3E9002304460D46304639466C
:1011600017F0B2F902460B462046294616F0FAFF60
:1011700006E60022044B16F0F3FF02460B464046FB
:10118000494616F0EDFF20E60000F03F0000E0FECB
:10119000422EE63F763C7935EF39EA3D000000000B
:1011A00008B515F013FC04A3D3E9002317F0B6FA31
:1011B00008BD00BFAFF30080EF39FAFE422EE63FD4
:1011C0002DE9F043DFF8B4808BB004460D4601F002
:1011D000F3F898F90030013306460F462BD022462B
:1011E0002B462046294617F009FC814618BB2046AD
:1011F000294615F065F81FA3D3E9002317F0F4FB87
:10120000C8B1194A98F90030CDF820900321CDE9F2
:101210000445CDE902458DE806008BB9134B4FF02C
:101220006042CDE90623684616F09CFD70B1089B2C
:101230009BB9DDE90667304639460BB0BDE8F0835F
:101240000B490020022BCDE90601ECD116F016FF68
:1012500022230360089B002BEBD016F00FFF089BA6
:101260000360E6E7AFF3008028A90100FFFFEF4726
:101270000000F07F7DF8B98FCE338640FF0100205B
:101280002DE9F043DFF8E4808BB004460D4601F011
:1012900043F998F90030013306460F4633D0204613
:1012A000294616F059FD70B32CA3D3E9002320463C
:1012B000294617F099FB814650BB2AA3D3E90023A6
:1012C0002046294617F072FBE8B198F90030204A11
:1012D000CDF82090002600270421022BCDE90445FB
:1012E000CDE90245CDE906678DE8060029D06846BC
:1012F00016F038FD28B3089B1BB116F0BFFE089B03
:101300000360DDE90667304639460BB0BDE8F0837F
:101310000F4A98F90030019203210022CDE90445DB
:10132000CDE90245009108922BB90A4B4FF060427B
:10133000CDE90623DBE708490020022BCDE90601B1
:10134000D5D116F09BFE22230360D4E7AFF30080D3
:1013500030A90100FFFFEF470000F07FEF39FAFEF0
:10136000422E864051302DD5104987C0FF01002004
:101370002DE9F04FDFF80C938DB006460F4614466A
:101380001D4601F0C5FC99F90080B8F1FF3FCDE999
:10139000000136D022462B462046294617F02EFB68
:1013A000834670BB32463B463046394617F026FB33
:1013B0008246002840F0A2803046394600220023B1
:1013C00017F0EAFA10B3002200232046294617F04E
:1013D000E3FA834600286AD09FEDA17B0122A44B4B
:1013E000CDF828A00292CDE90467CDE906458DED40
:1013F000087B0393B8F1000F45D09FED9B7B8DEDEB
:10140000007BDDE900010DB0BDE8F08FDDE90001F2
:1014100016F0A2FC8046002800F08D804FF0000AF4
:101420004FF0000BDDE9000152465B4617F0B4FABD
:101430000028E6D03046394616F08EFC0028E0D071
:101440002046294616F088FC0028DAD099F90030A9
:10145000874A039204210022022BCDE90467CDE9DB
:101460000645CDE908AB02910A9203D002A816F016
:1014700079FC68B916F002FE2223036008E09FEDB4
:10148000787B8DED087B02A816F06CFC002830D02C
:101490000A9B1BB116F0F2FD0A9B03609DED087BD1
:1014A0008DED007BDDE900010DB0BDE8F08F204639
:1014B000294616F051FC0028A3D000220023204624
:1014C000294617F073FA00289BD099F90030684A32
:1014D000CDF828B00121CDE90467CDE90645029198
:1014E0000392002BCBD063490020022BCDE90801E9
:1014F000C9D116F0C3FD21230360C9E700220023F0
:101500002046294617F048FA00283FF47AAF5A4B94
:101510005749CDF828B000220120B8F1020FCDE9DB
:1015200004670290CDE90645CDE908230391AAD1CD
:10153000CDE9002365E73046394616F00DFC00285A
:101540003FF46CAF2046294616F006FC00283FF415
:1015500065AFDDE900231046194617F04FFA002861
:101560005FD1032399F900800293414B0A90CDE9A2
:101570000467CDE906450393B8F1000F2BD1DFF8DE
:1015800008B14FF0604A0022002330463946CDE9C9
:1015900008AB17F00BFA00283FF468AF0022374B76
:1015A0002046294616F090FF04460D4616F0E2FB51
:1015B00002460B462046294617F0EEF970BB304B29
:1015C00099F900804FF06042CDE90823B8F1020F8D
:1015D0007FF44CAF4EE7DFF8B4B04FF0000A0022C2
:1015E000002330463946CDE908AB17F0DFF9002873
:1015F000ECD00022214B2046294616F065FF044618
:101600000D4616F0B7FB02460B462046294617F05A
:10161000C3F918B9174B0022CDE9082399F90080C6
:10162000D4E799F90090124BCDF828800122CDE93A
:101630000467CDE9064502920393B9F1000F3FF428
:101640001EAF002200231046194617F067F8B9F1C3
:10165000020FCDE908013FF44CAF14E7AFF300806F
:101660000000000000000000000000000000F03F4B
:1016700048A901000000F0FF0000F03F0000E03F3B
:10168000FFFFEFC7FF010020FFFFEF470000F07FE3
:101690002DE9F84FC44E21F00043B34204460D46F5
:1016A0000DDD03F1404303F58013034340F0B9809F
:1016B000002940F3408100200021BDE8F88FBB4E97
:1016C000B34240F3A6800029C0F2788102460B465F
:1016D0000020B74916F044FD0022B64B16F0F4FE88
:1016E00004460D4615F0B0FC95A3D3E900238946C6
:1016F00080462946204616F0E7FE93A3D3E900234F
:1017000016F030FD22462B4616F0DEFE90A3D3E9FC
:10171000002316F025FD22462B4616F0D5FE8EA39B
:10172000D3E9002316F01EFD22462B4616F0CCFE10
:101730008BA3D3E9002316F013FD22462B4616F0A7
:10174000C3FE89A3D3E9002316F00CFD22462B46E5
:1017500016F0BAFE86A3D3E9002382468B462046C4
:10176000294616F0B1FE84A3D3E9002316F0F8FC55
:1017700022462B4616F0A8FE81A3D3E9002316F0DB
:10178000F1FC22462B4616F09FFE7FA3D3E90023EF
:1017900016F0E6FC22462B4616F096FE0022844BFD
:1017A00016F0E0FC02460B465046594616F0B6FFCE
:1017B00042464B4616F088FE002682468B4632464D
:1017C0004B463046494616F07FFE02460B46204601
:1017D000294616F0C5FC324604460D464B464046A7
:1017E000494616F0BFFC02460B462046294616F035
:1017F00095FF02460B465046594616F0B3FC32465A
:101800004B4616F0AFFC02460B4616F0ABFCBDE8AB
:10181000F88F694A93420EDC5DA1D1E90001BDE871
:10182000F88F02460B4616F09BFC02460B4616F05C
:1018300075FFBDE8F88F02460B4616F045FE40A343
:10184000D3E9002306460F4616F03EFE3EA3D3E939
:10185000002316F087FC32463B4616F035FE3CA3CB
:10186000D3E9002316F07CFC32463B4616F02CFEF2
:1018700039A3D3E9002316F075FC32463B4616F037
:1018800023FE37A3D3E9002316F06AFC32463B4619
:1018900016F01AFE34A3D3E9002316F063FC324697
:1018A0003B4616F011FE32A3D3E900238046894659
:1018B0003046394616F008FE2FA3D3E9002316F070
:1018C0004FFC32463B4616F0FFFD2DA3D3E9002323
:1018D00016F048FC32463B4616F0F6FD2AA3D3E943
:1018E000002316F03DFC32463B4616F0EDFD00228B
:1018F0002F4B16F037FC02460B464046494616F081
:101900000DFF22462B4616F0DFFD02460B4622A1B4
:10191000D1E9000116F024FC02460B462046294678
:1019200016F01EFC02460B4619A1D1E9000116F083
:1019300017FCBDE8F88F1AA1D1E90001BDE8F88FC6
:1019400009F7FD0DE13D023F88B20175E0EF493F27
:101950003B8F68B52882A43F5544880E55C1C93FC6
:101960007D6FEB0312D6D43F555555555555C53FA0
:1019700082922EB1C5B8B33F59018D1B6C06E63F6C
:10198000C88A599CE52A00404B2D8A1C273A0340FF
:10199000182D4454FB21F93F075C143326A6913CD3
:1019A000182D4454FB210940FFFFEF3FFFFFDF3FAD
:1019B0000000F03F0000E03F0000603C00225C4B74
:1019C00016F0D0FB00225B4B16F07EFD40A3D3E95E
:1019D000002304460D4616F077FD3FA3D3E900230C
:1019E00016F0C0FB22462B4616F06EFD3CA3D3E951
:1019F000002316F0B5FB22462B4616F065FD3AA3F0
:101A0000D3E9002316F0AEFB22462B4616F05CFD10
:101A100037A3D3E9002316F0A3FB22462B4616F08A
:101A200053FD35A3D3E9002316F09CFB22462B4639
:101A300016F04AFD804689462046294615F004FBEB
:101A40002FA3D3E9002306460F462046294616F069
:101A50003BFD2DA3D3E9002316F082FB22462B4643
:101A600016F032FD2AA3D3E9002316F07BFB2246B1
:101A70002B4616F029FD28A3D3E9002316F070FBAE
:101A800022462B4616F020FD0022294B16F06AFB59
:101A900002460B464046494616F040FE32463B465B
:101AA00016F012FD1EA3D3E9002316F059FB3246AF
:101AB0003B4616F057FB02460B4616F053FB024618
:101AC0000B4619A1D1E9000116F04AFBBDE8F88FD9
:101AD00009F7FD0DE13D023F88B20175E0EF493F96
:101AE0003B8F68B52882A43F5544880E55C1C93F35
:101AF0007D6FEB0312D6D43F555555555555C53F0F
:101B000082922EB1C5B8B33F59018D1B6C06E63FDA
:101B1000C88A599CE52A00404B2D8A1C273A03406D
:101B2000075C143326A6913C182D4454FB21094030
:101B30000000F03F0000E03F434A91422DE9F843A6
:101B400004460D4639DD414A914209DD02F17952E0
:101B5000914240DD02460B4616F004FBBDE8F883D7
:101B600001F1404202F58012024330D0B1F1804FC2
:101B70003ADC0022364B16F0F3FA02460B460446D6
:101B80000D4616F0EFFA224606460F462B46204633
:101B9000294616F099FC02460B463046394616F0A7
:101BA000E1FA15F051FA0B4602462946204616F096
:101BB000D9FABDE8F843FFF7BFB802460B4616F066
:101BC000CFFA02460B4616F0A9FDBDE8F8830020C7
:101BD0000021BDE8F88300F017FE19A3D3E9002324
:101BE00016F0C0FABDE8F88302460B4616F06CFC0E
:101BF0000022174B16F0B4FA15F026FA224680465A
:101C000089462B462046294616F0ACFA424606463F
:101C10000F464B462046294616F0A4FA02460B46CC
:101C200000200B4916F07AFD0B4602463946304635
:101C300016F096FABDE8F84300F0E6BDAFF3008079
:101C4000EF39FAFE422EE63FFFFFEF3FFFFFAF41C5
:101C50000000F03F000000002DE9F047BE4B21F0EE
:101C60000048984584B004460D4612DD08F140480E
:101C700008F58018034658EA030321D002460B46B4
:101C800016F06EFA02460B4616F048FD04B0BDE8A9
:101C9000F087B24B98458A4629DCB8F1795F80F22B
:101CA000658191A3D3E9002316F05CFA0022AC4BC6
:101CB00016F09AFED8B12046294604B0BDE8F08758
:101CC0008BA3D3E9002316F0FFFB8BA3D3E90023FA
:101CD00006460F462046294616F0F6FB02460B46FE
:101CE0003046394616F03EFA04B0BDE8F08720468B
:101CF000294614F0E5FA02460B460020984916F0F2
:101D00002FFA0022974B16F0DFFB7DA3D3E90023C7
:101D100004460D4616F0D8FB7BA3D3E9002316F04A
:101D200021FA22462B4616F0CFFB79A3D3E90023F4
:101D300016F016FA22462B4616F0C6FB76A3D3E918
:101D4000002316F00FFA22462B4616F0BDFB74A3B3
:101D5000D3E9002316F004FA22462B4616F0B4FB12
:101D600071A3D3E9002316F0FDF922462B4616F0A5
:101D7000ABFB6FA3D3E90023CDE900012046294640
:101D800016F0A2FB6CA3D3E9002316F0E9F9224672
:101D90002B4616F099FB6AA3D3E9002316F0E2F96B
:101DA00022462B4616F090FB67A3D3E9002316F0DA
:101DB000D7F922462B4616F087FB694B002216F016
:101DC000D1F9CDE902012046294615F03DF9664BCF
:101DD000984506460F4666DCDDE90223DDE9000191
:101DE00016F09CFC3246CDE900013B4630463946B0
:101DF00016F0B8F902460B46DDE9000116F064FB67
:101E00004FF00008CDE9000142463B4640463946C6
:101E100016F05AFB02460B462046294616F0A0F95A
:101E2000424604460D463B463046394616F09AF97E
:101E300002460B462046294616F070FC02460B4629
:101E400016F090F902460B462BA1D1E9000116F0DD
:101E500087F902460B46DDE9000116F081F942469A
:101E600004460D463B464046394616F07BF902468D
:101E70000B4637A1D1E9000116F072F902460B4674
:101E80002046294616F06CF902460B4630A1D1E9EE
:101E9000000116F065F9BAF1000F3FF7F7AE01F156
:101EA00000431946F2E6DDE90223DDE9000116F000
:101EB00035FC32463B4616F007FB32463B4616F0F1
:101EC00051F902460B4616F04DF90BA3D3E9002356
:101ED00016F046F902460B4605A1D1E9000116F0BD
:101EE0003FF9D8E7AFF300809C7500883CE4377E6B
:101EF000182D4454FB21F93F075C143326A6913C6E
:101F000009F7FD0DE13D023F88B20175E0EF493F61
:101F10003B8F68B52882A43F5544880E55C1C93F00
:101F20007D6FEB0312D6D43F555555555555C53FDA
:101F300082922EB1C5B8B33F59018D1B6C06E63FA6
:101F4000C88A599CE52A00404B2D8A1C273A034039
:101F5000182D4454FB21E93FFFFFEF3FFFFFDF3F18
:101F60000000F03F0000E03F3233EF3F02460B46F7
:101F700016F0AAFA37A3D3E9002306460F4616F057
:101F8000A3FA36A3D3E9002316F0ECF832463B4619
:101F900016F09AFA33A3D3E9002316F0E1F832469B
:101FA0003B4616F091FA31A3D3E9002316F0DAF894
:101FB00032463B4616F088FA2EA3D3E9002316F0EA
:101FC000CFF832463B4616F07FFA2CA3D3E9002324
:101FD00016F0C8F832463B4616F076FA29A3D3E944
:101FE0000023804689463046394616F06DFA27A30D
:101FF000D3E9002316F0B4F832463B4616F064FAF3
:1020000024A3D3E9002316F0ADF832463B4616F080
:102010005BFA22A3D3E9002316F0A2F832463B462E
:1020200016F052FA00220A4B16F09CF802460B46B4
:102030004046494616F072FB22462B4616F044FAFB
:1020400022462B4616F08EF804B0BDE8F08700BF9C
:102050000000F03F09F7FD0DE13D023F88B2017538
:10206000E0EF493F3B8F68B52882A43F5544880E76
:1020700055C1C93F7D6FEB0312D6D43F5555555519
:102080005555C53F82922EB1C5B8B33F59018D1B3E
:102090006C06E63FC88A599CE52A00404B2D8A1CF5
:1020A000273A0340000000002DE9F84F1D46534237
:1020B000134325F0004ADFF8E0E14AEAD3737345A1
:1020C000144606460F4647D8C0F1000848EA000803
:1020D00021F0004343EAD878F0458B463CD805F11F
:1020E000404808F5801858EA020850D04FEAA57811
:1020F00008F0020848EAD17850EA030134D052EAE5
:102100000A023CD0F24557D0734538D0A3EB0A03FE
:102110001B153C2B42DC002D70DB22462B46304643
:10212000394616F0FBFA14F0CBF8FEF751FBB8F184
:10213000010F5FD0B8F1020F4ED0B8F1000F62D09E
:1021400043A3D3E9002316F00BF843A3D3E90023FC
:1021500016F006F8BDE8F88F32463B462046294681
:1021600016F000F8BDE8F88FB8F1020F1AD0B8F1F8
:10217000030F10D13AA1D1E90001BDE8F88FBBF1FE
:10218000000F14DB38A1D1E90001BDE8F88FBDE8EC
:10219000F84FFEF71DBB3946BDE8F88F32A1D1E9F3
:1021A0000001C4E72CA1D1E90001BDE8F88F30A1FE
:1021B000D1E90001BDE8F88F534526D0B8F1020FF0
:1021C000F0D0B8F1030FD5D0B8F1010F4FF00000F7
:1021D00029D00021BDE8F88F1DA3D3E9002315F015
:1021E000BFFF02460B461CA1D1E9000115F0B8FF64
:1021F000BDE8F88F01F10041BDE8F88F3C338CDA7F
:102200000020002193E7BDE8F88FB8F1020F18D045
:10221000B8F1030F10D0B8F1010F08D016A1D1E921
:102220000001BDE8F88F4FF00041BDE8F88F14A120
:10223000D1E90001BDE8F88F13A1D1E90001BDE8A3
:10224000F88F13A1D1E90001BDE8F88FAFF300804A
:10225000075C143326A6A13C182D4454FB210940E9
:10226000182D4454FB2109C0182D4454FB21F93F7B
:10227000182D4454FB21F9BF182D4454FB21E93F8C
:10228000182D4454FB21E9BFD221337F7CD902C0F1
:10229000D221337F7CD902400000F07F0000000093
:1022A00043422DE9F047034321F000463E4A46EA07
:1022B000D373934204460D4613D896423DD03B4B10
:1022C0009E428A4617DC36A3D3E9002315F04AFF65
:1022D0000022002316F088FBA8B320462946BDE85B
:1022E000F08702460B4615F03BFF02460B4616F000
:1022F00015FABDE8F0872E4B9E42354624DD334665
:102300000246314615F02EFF224606460F462B4662
:102310000020254915F024FF02460B463046394679
:1023200016F0FCF9FEF708FD0022224B16F0CCF85F
:10233000BAF1000F2FDBBDE8F0870022002316F072
:10234000EDF9BDE8F087354622462B462046294662
:1023500015F008FF22462B4606460F4616F0B4F845
:102360002246804689462B4600200F4915F0F8FE8C
:1023700002460B464046494616F0D0F932463B46E7
:1023800015F0F0FEFEF7D8FC00220A4B16F09CF880
:10239000BAF1000FCFDA01F100431946BDE8F0872A
:1023A0009C7500883CE4377E0000F03FFFFF2F3E25
:1023B000FFFFDF3F0000E03F2DE9F8434E4B21F0E7
:1023C00000449C4206460F461BDC4C4B9C4222DDDF
:1023D0004B4B9C4263DD4B4B9C427BDD4A4B9C420A
:1023E00046DD01339C4240D041A3D3E9002310468F
:1023F000194616F069F806460F4630463946BDE8DC
:10240000F88302460B4616F05FF806460F46304644
:102410003946BDE8F88313F053FF02F0B1FC002207
:102420003A4B8046894615F09DFEB4F1725F064630
:102430000F46ECDB42464B464046494616F044F810
:1024400032463B4604460D463046394615F08AFE74
:1024500002460B462046294616F060F900222B4B17
:1024600015F080FE06460F46D1E7294B9842BBD8AF
:102470003046394613F024FF0022264B16F024F88C
:1024800000F04AF8002204460D46224B16F01CF8D4
:1024900022462B4616F018F806460F46B7E713F00B
:1024A0000FFF00F039F800221A4B06460F4616F0CF
:1024B0000BF832463B4604460D460020154916F0FF
:1024C0002DF902460B462046294615F04BFE0646DE
:1024D0000F469CE713F0F4FE00F01EF800220D4BAF
:1024E00015F0F2FF06460F4691E700BFAFF30080FC
:1024F0009C7500883CE4377EFFFFEF7F422ED63F7D
:10250000FFFF3540412E8640CD3386400000F03F2E
:102510007DF8B98F0000E03F2DE9F04FB04E21F07B
:102520000042B24283B004460D464FEAD1770DD93E
:10253000AC4EB24225D9C1F31303034340F0EC8003
:102540000FB10020002103B0BDE8F08FA64B9A42E6
:1025500000F2CB80A54B9A4200F2DC808AA3D3E93B
:10256000002315F0FFFD0022A14B16F03DFA0028D4
:1025700000F006812046294600229D4B15F0F2FD11
:10258000E1E783A3D3E9002316F02EFA002840F0F8
:10259000C88081A3D3E900232046294616F006FA15
:1025A0000028CED1934E7EA3D3E9002306EBC706C5
:1025B0002046294615F088FFD6E9002315F0D2FD04
:1025C00016F032FA064615F019FF77A3D3E9002377
:1025D0008046894615F078FF02460B46204629467C
:1025E00015F0BEFD72A3D3E90023CDE900014046FA
:1025F000494615F069FF82468B4652465B46DDE947
:10260000000115F0ADFD04460D4622462B4620463E
:10261000294615F059FF68A3D3E90023804689466F
:1026200015F052FF66A3D3E9002315F099FD424649
:102630004B4615F049FF64A3D3E9002315F092FD42
:1026400042464B4615F040FF61A3D3E9002315F045
:1026500087FD42464B4615F037FF5FA3D3E90023C1
:1026600015F080FD42464B4615F02EFF02460B4604
:102670002046294615F074FD80468946002E58D024
:102680002046294642464B4615F01EFF4246044668
:102690000D464B4600204FF0804115F061FD02468B
:1026A0000B462046294616F039F802460B4650469E
:1026B000594615F055FDDDE9002315F051FD0B4697
:1026C00002464B49002015F04BFD6FF47F739E428C
:1026D00051DA06F57A7601EB065100224FF0B87315
:1026E00015F0F2FE03B0BDE8F08F434B9A423FF67F
:1026F00059AF424BFC002344D3E9002315F030FDD1
:102700003F4BC7F101062344CDE90001D3E900ABFB
:10271000F61B72E7002678E702460B4615F022FD0D
:1027200011E719A3D3E900231046194615F0CCFE92
:1027300009E702460B462046294615F0C5FE002251
:1027400006460F464FF080434046494615F008FDC7
:1027500002460B463046394615F0E0FF22462B462E
:1027600015F0FEFC02460B460020214915F0F8FC4E
:1027700003B0BDE8F08F01EB065103B0BDE8F08F68
:10278000064642E7AFF300809C7500883CE4377E44
:10279000EF39FAFE422E864051302DD5104987C0C0
:1027A000FE822B654715F73F0000E0FE422EE63F14
:1027B000763C7935EF39EA3DD0A4BE726937663E82
:1027C000F16BD2C541BDBB3E2CDE25AF6A56113F31
:1027D00093BDBE166CC1663F3E5555555555C53F18
:1027E000412E8640FFFFEF7F422ED63FFFFF2F3E58
:1027F0000000F03F58970100B1A2F03F6897010038
:1028000078970100000000002DE9F04FB1F5801F1E
:1028100085B006460F460B465ADA024621F00044C0
:10282000224300F0F8800029C0F27A810022D64BC2
:1028300015F04AFED54A0B46934206460F466FF006
:10284000350C4ADCC3F3130505F5152E0EF6647E30
:102850000EF4801E8EF07F5282F440121C1542EA64
:102860000507A4F2FF3464440022C94B30463946C0
:1028700004EB1E5415F074FCAB1CC3F31303022BC2
:1028800082468B464FF0000230DC002316F084F8BD
:10289000002800F0C980002C00F04B81204615F084
:1028A000ADFDA5A3D3E9002306460F4615F00CFEA7
:1028B000A3A3D3E9002304460D463046394615F05C
:1028C00003FE02460B462046294615F04BFC0AE063
:1028D000AE4A93424FF0000CB4DD32463B463046E0
:1028E000394615F03FFC05B0BDE8F08F4FF080434E
:1028F00015F038FC02460B465046594615F00EFFBF
:10290000064620460F4615F079FD3246CDE9000116
:102910003B4630463946CDE9026715F0D5FD024603
:102920000B468046894615F0CFFD87A3D3E90023E7
:1029300006460F4615F0C8FD85A3D3E9002315F020
:1029400011FC32463B4615F0BFFD83A3D3E90023BB
:1029500015F008FC32463B4615F0B6FD80A3D3E9DE
:10296000002315F0FFFB42464B4615F0ADFD7EA35C
:10297000D3E90023804689463046394615F0A4FD48
:102980007BA3D3E9002315F0EDFB32463B4615F05F
:102990009BFD79A3D3E9002315F0E4FB32463B46C7
:1029A00015F092FD0B4602464946404615F0DAFB0B
:1029B000A5F5C223C5F5D725A3F27A4351351D43AA
:1029C000002D8046894656DD0022724B50465946FE
:1029D00015F07AFD52465B4615F076FD06460F4629
:1029E000002C68D132463B464046494615F0BAFBBA
:1029F000DDE9022315F068FD02460B4630463946F4
:102A000015F0AEFB02460B465046594615F0A8FBA2
:102A100005B0BDE8F08F0022002300205E4915F0CC
:102A20007DFE05B0BDE8F08F55A3D3E900235046E5
:102A3000594615F049FD02460B460020554915F050
:102A40008FFB524606460F465B465046594615F0E8
:102A50003BFD02460B463046394615F035FD06462D
:102A60000F46002C40F09A8002460B4650465946CD
:102A700015F076FB37E7002C00F0A4802EA3D3E9F5
:102A80000023DDE9000115F01FFD42464B460446D8
:102A90000D465046594615F063FBDDE9022315F05B
:102AA00013FD27A3D3E9002306460F46DDE9000105
:102AB00015F00AFD21E020A3D3E90023DDE90001A0
:102AC00015F002FD32463B4604460D464046494657
:102AD00015F048FBDDE9022315F0F6FC18A3D3E955
:102AE000002380468946DDE9000115F0EDFC024631
:102AF0000B464046494615F035FB02460B4630462C
:102B0000394615F02DFB52465B4615F029FB02466F
:102B10000B462046294615F023FB05B0BDE8F08F93
:102B200002460B4615F01CFB0022002315F0F6FDB3
:102B3000D9E600200021D6E60000E0FE422EE63F66
:102B4000763C7935EF39EA3D44523EDF12F1C23F1F
:102B5000DE03CB966446C73F599322942449D23F63
:102B6000935555555555E53F9FC678D0099AC33FB3
:102B7000AF788E1DC571CC3F04FA97999999D93FCA
:102B8000555555555555D53F00005043FFFFEF7F34
:102B90000000F03F0000E03F000050C3204615F069
:102BA0002DFC0FA3D3E900238046894615F08CFC49
:102BB0000DA3D3E9002304460D464046494615F0CF
:102BC00083FC9AE702460B465046594615F0C8FA70
:102BD000DDE9022315F078FC14E700BFAFF30080B5
:102BE0000000E0FE422EE63F763C7935EF39EA3DC3
:102BF000B1F5801F2DE9F84304460D460B461ADA5D
:102C0000024621F00046324359D000295FDB002202
:102C10003B4B15F059FC3B4A0D462B46934204466C
:102C20006FF035010CDD22462B462046294615F073
:102C300099FABDE8F883334A93424FF00001F2DC81
:102C40001815A0F2FF3008444FEAD0794844C3F386
:102C5000130815F0D3FBC9F57F73033348EA035516
:102C600006460F4620462946FFF7CEFD1EA3D3E9B0
:102C70000023804689463046394615F025FC1CA3C2
:102C8000D3E9002304460D464046494615F01CFC96
:102C900002460B462046294615F064FA16A3D3E9EE
:102CA000002304460D463046394615F00DFC024619
:102CB0000B462046294615F055FABDE8F883002258
:102CC00000230020104915F029FDBDE8F8830246D5
:102CD0000B4615F045FA0022002315F01FFDBDE854
:102CE000F88300BFAFF30080362BF111F3FE593D9E
:102CF0000EE526157BCBDB3F00609F501344D33F8E
:102D000000005043FFFFEF7F000050C300000000B1
:102D10002DE9F04F23F0004757EA020493B037D073
:102D2000674C21F00046A64283460D4629DC9A46B0
:102D3000964625D0A74224DC614CA74279D0002DCD
:102D400080468946CDE9002377DB0024BEF1000FE1
:102D50002CD15B4B9F4200F08B805A4B9F4261D03D
:102D6000BAF1804F00F0C383574B9A451ED1002D16
:102D70001CDB4046494613B0BDE8F04F14F064B97F
:102D800058B106F1404606F5801656EA0B0306D107
:102D90004C49002013B0BDE8F08FB742CCDD4B4862
:102DA00013B0BDE8F04F14F0DFBF002440464946A1
:102DB00013F086FABBF1000F19D126B1414B25F073
:102DC00040429A4213D1BAF1000FC0F2CA83002DDB
:102DD000E0DA06F1404606F5801656EA040300F0F4
:102DE000A584012CD6D101F100431946D2E7ED0F9D
:102DF000013D54EA05034ED0354B9F426EDD03F191
:102E000004739F4240F3FE83324B9E424EDDBAF183
:102E1000000F4EDD28A3D3E900231046194615F014
:102E200053FBB7E7BAF1000FC0F25284404649465F
:102E3000B0E7BEF1000F82D0A3E7274B9F4228DC0A
:102E4000A3F154739F4280DD3B15A3F2FF33142B93
:102E500040F35484C3F134032EFA03F202FA03F36D
:102E60009E457FF472AF02F00102C2F102046DE7E9
:102E700006F1404303F5801353EA0B0388D0154B4A
:102E80009E4240F33B83BAF1000F12DBDDE9000103
:102E900080E702245AE742464B461046194615F091
:102EA0005FF902460B4615F039FC73E7BAF1000FE3
:102EB000B0DB002000216DE79C7500883CE4377E84
:102EC0000000F07F0000F03F0000E03F9C9F010009
:102ED0000000E041FFFFEF3FFFFF3F43B6F5801FDB
:102EE0004FF0000205DAD84B15F0EEFA6FF034021D
:102EF0000E463315D54FC6F31306A3F2FF33134422
:102F000046F07F5ABE421A460D934AF4401A40F3E7
:102F10002F83CF4B9E4240F30D849FEDB57B8DED0B
:102F2000087B8DED0E7B9FEDB47B13468DED067B0C
:102F300001330D93AAF5801A0027DDE906235146D7
:102F4000CDE90A0115F00CF9DDE906238046894632
:102F5000DDE90A0115F006F902460B460020BD49DD
:102F600015F0DCFB0A460146CDE91012134649462E
:102F70000246404615F0A8FA4FEA6A0343F00053B0
:102F80008C46834603F50023CDE904BCDA468B4624
:102F9000D9190023CDE902AB0293DDE902AB002091
:102FA00006460F4602460B465046594615F08CFA27
:102FB00002460B464046494615F0D2F8DDE90623A5
:102FC000804689463046394615F0CAF802460B4617
:102FD000DDE90A0115F0C4F852465B4615F074FAB3
:102FE00002460B464046494615F0BAF8DDE9102383
:102FF00015F06AFADDE90467CDE9060132463B4681
:103000003046394615F060FA7DA3D3E90023064621
:103010000F4615F059FA7CA3D3E9002315F0A2F866
:1030200032463B4615F050FA79A3D3E9002315F058
:1030300099F832463B4615F047FA77A3D3E90023C7
:1030400015F090F832463B4615F03EFA74A3D3E9EA
:10305000002315F087F832463B4615F035FA72A387
:10306000D3E9002315F07EF83246804689463B4678
:103070003046394615F028FA02460B464046494686
:1030800015F022FA524606460F465B46DDE904017A
:1030900015F068F8DDE9062315F016FA32463B46CE
:1030A00015F060F85246804689465B4650465946C0
:1030B00015F00AFA0022684BCDE90A0115F052F822
:1030C00042464B4615F04EF802980F4606463246E9
:1030D0003B465046594615F0F7F9002282468B468A
:1030E0005D4B3046394615F03BF8DDE90A2315F013
:1030F00037F802460B464046494615F031F8DDE9FF
:10310000042315F0E1F93246804689463B46DDE965
:10311000060115F0D9F902460B464046494615F01E
:1031200021F88046894602460B4650465946CDE96D
:1031300004AB15F017F8DDE902AB3DA3D3E900239A
:1031400050460F4615F0C0F9DDE90423CDE9020130
:103150003946504615F004F802460B4640464946AB
:1031600014F0FEFF34A3D3E9002315F0ADF934A326
:10317000D3E90023804689465046394615F0A4F924
:1031800002460B464046494614F0ECFFDDE90E23AB
:1031900014F0E8FF80460D98894615F02FF9424655
:1031A00006460F464B46DDE9020114F0DBFFDDE980
:1031B000082314F0D7FF32463B4614F0D3FF3246C3
:1031C0003B4650468B4614F0CBFFDDE9082314F054
:1031D000C7FFDDE9022314F0C3FF02460B46404659
:1031E000494614F0BDFF8046894637E0AFF30080C2
:1031F0000000000000000000000000000000F03FA0
:10320000EF4E454A287ECA3F65DBC9934A86CD3FCB
:1032100001411DA96074D13F4D268F515555D53FB1
:10322000FFAB6FDBB66DDB3F033333333333E33F49
:10323000000000E009C7EE3FFD033ADC09C7EE3F9E
:10324000F5015B14E02F3EBE000040438E98030062
:1032500079B60B000000F03F00000840013C54EA42
:10326000050300F079819FEDC87B8DED047BDDE9DE
:1032700000120B461446CDE9023400230293DDE927
:10328000024508462B461146224614F069FF524675
:103290005B4615F019F9DDE9002306460F46404666
:1032A000494615F011F902460B463046394614F0EE
:1032B00059FF2246804689462B4650465946CDE95D
:1032C000008915F001F90B46024606460F464046B6
:1032D000494614F047FFC64B994204460D468A46BC
:1032E00040F3168101F13F4303F5E003034340F04F
:1032F000F781A7A3D3E90023DDE9000114F032FF31
:103300003246804689463B462046294614F028FF2F
:1033100002460B464046494615F066FB002840F041
:10332000DF81A8464FEA28534FF48012A3F2FE3300
:1033300042FA03F35344C3F30A52AE4DA2F2FF32F2
:103340001541C3F3130423EA05010020C2F1140B55
:1033500044F48014BAF1000F02460B4644FA0BFB0A
:1033600030463946B8BFCBF1000B14F0F9FE0246E7
:103370000B4606460F46DDE9000114F0F3FE4FEA66
:103380000B5A0D46002484A3D3E900232046294686
:1033900015F09AF83246804689463B462046294633
:1033A00014F0DEFE02460B46DDE9000114F0D8FE03
:1033B0007BA3D3E9002315F087F87BA3D3E900238F
:1033C00006460F462046294615F07EF802460B4673
:1033D0003046394614F0C6FE06460F4602460B46F6
:1033E0004046494614F0BEFE42464B4604460D4652
:1033F00014F0B6FE02460B463046394614F0B0FED5
:103400002246804689462B462046294615F05CF820
:1034100067A3D3E9002306460F4615F055F866A3C7
:10342000D3E9002314F09CFE32463B4615F04CF8DD
:1034300063A3D3E9002314F095FE32463B4615F012
:1034400043F861A3D3E9002314F08AFE32463B46D9
:1034500015F03AF85EA3D3E9002314F083FE324658
:103460003B4615F031F802460B462046294614F03B
:1034700077FE06460F4602460B462046294615F0C3
:1034800023F80022CDE900014FF080433046394651
:1034900014F066FE02460B46DDE9000115F03EF928
:1034A000424606460F464B462046294615F00CF884
:1034B00042464B4614F056FE02460B46304639460D
:1034C00014F04EFE22462B4614F04AFE02460B46EE
:1034D0000020494914F044FE8A44BAF5801FC0F226
:1034E00039815146DDE9042314F0EEFF52E44246EF
:1034F0004B464046494614F0E7FF4BE4BAF1000F53
:10350000BFF6D7ACDDE90034184604F1004141E4D0
:103510003A4B21F00048984540F3FF80384B0B446C
:1035200003430CD132463B4614F01AFE02460B46CA
:10353000DDE9000115F044FA00283FF4F3AEDDE9BF
:10354000040125A3D3E9002314F0BEFF22A3D3E98D
:10355000002314F0B9FF1DE49FED217B8DED047B6A
:1035600085E602460B460020234915F0D7F82EE4E5
:103570009FED1D7B8DED087B8DED0E7B9FED027B1E
:1035800000278DED067BD8E4000000000000F03F2E
:10359000FE822B654715973C00000000432EE63F56
:1035A000EF39FAFE422EE63F396CA80C615C20BE72
:1035B000D0A4BE726937663EF16BD2C541BDBB3E39
:1035C0002CDE25AF6A56113F93BDBE166CC1663F17
:1035D0003E5555555555C53F59F3F8C21F6EA501C7
:1035E000000000000000F0BF00000000000000002C
:1035F000FFFF8F40FFFF0F000000F03FFFCB904028
:1036000000346F3F684B9E427FF750AC674B9E4241
:103610003FF7FDAB0022654B14F0A2FD52A3D3E9A6
:10362000002306460F4614F04FFF51A3D3E90023B1
:10363000804689463046394614F046FF00228246CD
:103640008B465B4B3046394614F03EFF02460B4634
:1036500049A1D1E9000114F083FD32463B4614F044
:1036600033FF02460B460020524914F079FD3246E2
:10367000CDE902013B463046394614F025FF0246AB
:103680000B46DDE9020114F01FFF3DA3D3E900233F
:1036900014F01AFF02460B465046594614F060FDDE
:1036A00002460B4606460F464046494614F05AFD70
:1036B00042464B46002082468B4614F051FD02469E
:1036C0000B463046394614F04BFD80468946C5E529
:1036D00042464B460020354915F020F8FFF75ABB0B
:1036E000DDE9040128A3D3E9002314F0EDFE26A3AD
:1036F000D3E9002314F0E8FEFFF74CBBBEF1000F46
:103700007FF453ABC3F1140347FA03F202FA03F355
:103710009F4223D07446FFF720BB264B98453FF7C6
:1037200001AEDDE90223924693462BE602460B46A4
:10373000FFF7B3BB9FED167B8DED087B9FED167BEE
:103740008DED0E7B9FED167B4FF480278DED067B74
:10375000FFF7F3BB5A4601F04FFDC3E602F001024A
:10376000C2F10204FFF7F9BA000000604715F73F05
:1037700044DF5DF80BAE543E555555555555D53F74
:10378000FE822B654715F73F9C7500883CE4377E29
:103790000000004003B8E23F06D0CF43EBFD4C3EB3
:1037A000000000000000F83FFEFFEF3F0000F03F88
:1037B0000000D03F0000E03F2DE9F0479C4B21F096
:1037C00000479F4290B08046894640F38E80994BD7
:1037D0009F420C46924626DC00298BA3D3E90023A6
:1037E00040F3B08114F0BCFC934B9F4204460D465D
:1037F00000F0908086A3D3E9002314F0B1FC0246C8
:103800000B46CAE900232046294614F0A9FC80A3F0
:10381000D3E9002314F0A4FC0125CAE902012846DB
:1038200010B0BDE8F087854B9F4240F39080844BF9
:103830009F4265DC3D15A5F21645A7EB05531946D9
:103840001F46064615F0F0F814F0D8FD804689466C
:1038500042464B4630463946CDE90A8914F080FC91
:103860000022784B14F030FE8946804615F0DCF8D3
:1038700014F0C4FD06460F4632463B4640464946D4
:10388000CDE90C6714F06CFC00226E4B14F01CFEAA
:1038900000220023CDE90E0115F07EF8002800F08B
:1038A0006F81002330463946002215F075F8002854
:1038B00014BF01230223644A019202212A46009187
:1038C0000AA8514600F08CFB002C054614DADAF801
:1038D0000420DAF80C3002F1004203F100434542C3
:1038E000CAF80420CAF80C3006E000200021C2E922
:1038F0000089C2E902010025284610B0BDE8F08722
:1039000002460B4614F02CFC0025CAE90201CAE964
:103910000001F1E740A3D3E9002314F021FC40A308
:10392000D3E900230D46044614F01AFC02460B4668
:10393000CAE900232946204614F012FC38A3D3E933
:10394000002314F00DFC0125CAE90201D4E712F0AE
:10395000B7FC35A3D3E900238046894614F0B4FDB3
:1039600000223A4B14F0FEFB15F05EF8054614F009
:1039700045FD25A3D3E90023CDE9060114F0A4FDFC
:1039800002460B464046494614F0EAFB20A3D3E921
:103990000023CDE90201DDE9060114F095FD1F2D9C
:1039A00080468946CDE9048954DC294B6A1E53F8C8
:1039B00022309F424ED002460B46DDE9020114F050
:1039C000CFFB80468946CAE9008942464B46DDE97D
:1039D000020114F0C5FBDDE9042314F0C1FB002C47
:1039E000CAE9020188DA09F1004401F100436D429D
:1039F000CAF80080CAF80440CAF80800CAF80C30B7
:103A00007AE700BFAFF3008000004054FB21F93F8C
:103A10003163621A61B4D03D0000601A61B4D03DD8
:103A20007370032E8A19A33B83C8C96D305FE43FCE
:103A3000FB21E93F7BD90240FB21F93FFB213941C2
:103A4000FFFFEF7F00007041E4A901000000E03FAC
:103A500064A90100DDE90423DDE9020114F080FB23
:103A60003F15C1F30A53FB1A80468946102BCAE959
:103A70000089AADD58A3D3E90023DDE9060114F08B
:103A800023FD8046894602460B46DDE9020114F01B
:103A900067FB02460B46DDE90201CDE9082314F07D
:103AA0005FFB42464B4614F05BFB4DA3D3E900237A
:103AB00080468946DDE9060114F006FD42464B4684
:103AC00014F04EFB0B46CDE904010246DDE9080186
:103AD00014F046FBC1F30A53FF1A80468946312F82
:103AE000CAE900896CDD41A3D3E90023DDE90601C1
:103AF00014F0EAFCDDE9088906460F4602460B464B
:103B00004046494614F02CFB02460B4640464946C7
:103B1000CDE9022314F024FB32463B4614F020FB8F
:103B200034A3D3E9002306460F46DDE9060114F06D
:103B3000CBFC32463B4614F013FB02460B46CDE964
:103B400004233AE714F00EFB274B9F4204460D4630
:103B500018D01FA3D3E9002314F004FB02460B4640
:103B6000CAE900232946204614F0FAFA18A3D3E93B
:103B7000002314F0F7FA4FF0FF35CAE90201BBE663
:103B8000032398E614A3D3E9002314F0EBFA14A35B
:103B9000D3E900230D46044614F0E4FA02460B462E
:103BA000CAE900232946204614F0DAFA0CA3D3E927
:103BB000002314F0D7FA4FF0FF35CAE902019BE663
:103BC0009DED087B8DED027BFFE600BFAFF300802B
:103BD0003163621A61B4D03D0000601A61B4D03D17
:103BE0007370032E8A19A33BFB21F93F0000002EBE
:103BF0008A19A33BC14920259A837B390000000024
:103C0000594A2DE9F84F21F00048904506460F46E5
:103C10002BDC564B0029B4BF554D564D98454FF0FF
:103C2000000410DC544B984570DC4DA3D3E900230D
:103C300014F098FA0022514B14F0D6FED8B1304659
:103C40003946BDE8F88F4E4B98457CDD4D4B984585
:103C500044DD013398453ED03046394640A3D3E990
:103C6000002314F031FCBDE8F88F02460B4614F037
:103C700079FABDE8F88F3046394612F021FB01F0A1
:103C80007FF806460F4632463B463046394614F02A
:103C900069FA324682468B463B463046394614F036
:103CA00013FC002280468946344B3046394614F0D6
:103CB00059FA02460B464046494614F02FFD02468B
:103CC0000B465046594614F04BFA22462B4614F048
:103CD000FBFBBDE8F88F2C4B9842BDD830463946E7
:103CE00012F0EEFA0022234B14F0EEFBFEF714FC68
:103CF00006460F4602460B462046294614F0E4FBD2
:103D000032463B4614F0E0FBBDE8F88F12F0D8FADB
:103D100001F036F81D4B984506460F46B3DD0022EC
:103D2000164B14F01FFA02460B463046394614F083
:103D3000F5FC32463B4614F015FA22462B4614F0A9
:103D4000C3FBBDE8F88F12F0BBFAFEF7E5FB0246B5
:103D50000B462046294614F0B7FBBDE8F88F00BF9C
:103D60003374AC3C1F7BAC7FFFFFEF7FFFFF354020
:103D70000000E0BF0000E03FFFFF2F3E0000F03FEB
:103D8000412E8640CD3386407DF8B98FFFFFEF3F4F
:103D90002DE9F04F21F00048B8F1795F85B0064673
:103DA0000F4692469B466BDA14F03EFE002800F068
:103DB000EA8032463B463046394614F085FB74A310
:103DC000D3E9002304460D4614F07EFB72A3D3E929
:103DD000002314F0C7F922462B4614F075FB70A39C
:103DE000D3E9002314F0BCF922462B4614F06CFBF7
:103DF0006DA3D3E9002314F0B5F922462B4614F045
:103E000063FB6BA3D3E9002314F0AAF922462B46E7
:103E100014F05AFB68A3D3E9002314F0A3F9224657
:103E20002B4614F051FBCDE900010022664B2046E1
:103E3000294614F049FBDDE90023804689462046E7
:103E4000294614F041FB524604460D465B46304677
:103E5000394614F039FB02460B462046294614F039
:103E60007FF902460B464046494614F079F902466E
:103E70000B460020554914F073F905B0BDE8F08FEA
:103E800002460B4614F020FB41A3D3E9002304466D
:103E90000D4614F019FB40A3D3E9002314F062F996
:103EA00022462B4614F010FB3DA3D3E9002314F067
:103EB00057F922462B4614F007FB3BA3D3E9002316
:103EC00014F050F922462B4614F0FEFA38A3D3E939
:103ED000002314F045F922462B4614F0F5FA36A3D8
:103EE000D3E9002314F03EF92B46224614F0ECFAF5
:103EF000374B9845CDE9000197DD364B984539DCC5
:103F0000A8F500130022002030499046994614F08D
:103F100027F9CDE9020100222B4B2046294614F057
:103F2000D3FA42464B4614F01BF9DDE900238046E4
:103F300089462046294614F0C7FA524604460D46E3
:103F40005B463046394614F0BFFA02460B4620461F
:103F5000294614F005F902460B464046494614F03E
:103F6000FFF802460B46DDE9020114F0F9F805B04E
:103F7000BDE8F08F9FED127B4FF000088DED027BC6
:103F8000DFF85490C7E71149002005B0BDE8F08F75
:103F9000D43888BEE9FAA8BDC4B1B4BD9EEE213EB6
:103FA000AD529C804F7E923E9015CB19A001FA3EF7
:103FB0007751C1166CC1563F4C5555555555A53FC7
:103FC000000000000000E73F0000E03F0000F03F7D
:103FD0003233D33F0000E93F0000D23F0000000031
:103FE0002DE9F04FADF51B7D9F4CA49E9F4D54F8DD
:103FF000264007942646D41E85FB0475E417C4EBBF
:10400000A50424EAE4741D460A93631CA3EB83030E
:10401000013D02EBC30306932B460B940395651BEE
:10402000F418049008911AD42C4400260027013477
:104030000DF18808DDF8949208E059F8250014F095
:10404000DDF90135A542E8E8020108D0002DF4DAD7
:10405000013530463946A542E8E80201F6D1079B12
:10406000002BC0F2DF83079B03F1010B0A9B22A9FF
:10407000DB001A4601EB03090093049B0DF5E47A7B
:1040800019460AEBCB0B01EB0208039B002BC0F295
:10409000F582049C4D460026002775E90223F4E8CA
:1040A000020114F011FA02460B463046394614F06C
:1040B00059F8444506460F46EFD1EAE80267DA456B
:1040C00009F10809E1D107990098049C009101F1D8
:1040D0008043013B9B0020441A1F83460EA80244E4
:1040E00003440C920D93009A9AA901EBC203002A93
:1040F00053E9284529DD0DF5E47A0AEBC2080DF1F4
:10410000340900225A4B2046294614F0DDF914F0F8
:104110008BFC14F073F90022564B06460F4614F040
:10412000D3F902460B462046294614F019F814F03C
:104130007BFC78E9022349F8040F3946304614F035
:1041400011F8D04504460D46DBD1DDF81890204625
:1041500029464A4601F050F800224FF07F530446AA
:104160000D4614F0B1F9FCF75FFD0022424B14F04C
:10417000ABF902460B462046294613F0F1FF0D46E7
:10418000044614F051FC804614F038F90B46024600
:104190002946204613F0E4FF4B46002B06460F4607
:1041A00040F3F980009A0EA9013AC9F1180351F8B9
:1041B000225045FA03F101FA03F30EA8EB1A40F876
:1041C0002230C9F11705884443FA05F5002D6DDD4D
:1041D000009B002B08F1010840F36F820E9C002C1D
:1041E00040F01683009B012B40F38F820EAA01231F
:1041F00052F8044F002C00F08382581C0EAAC4F120
:10420000807442F82340009A824219DD0EAA0EAC57
:1042100052F820106FF07F42511A44F82010009994
:10422000023399420CDD1046009A0EA901EB83037C
:1042300001EB82011A68821A43F8042B8B42F9D1F0
:10424000069B002B1ADD069B012B4FF0010440F06A
:104250003C82009B5A1E0EAB0EA953F82230C3F3CA
:10426000160341F822303CE284AE0100ABAAAA2A30
:104270000000703E0000704100002040022D15D16A
:1042800032463B460020924913F06AFF06460F462D
:10429000069A8F49002000F0AFFF02460B463046D9
:1042A000394613F05DFF022506460F460022002323
:1042B0003046394614F070FB002800F03782009A2F
:1042C000079B501E83420FDC02F18043013B0EAA84
:1042D0000D9C02EB8303002253F80419A34242EA27
:1042E0000102F9D1002A67D1079B0EAA013B52F8BF
:1042F0002330002B40F018820C9A012352F8041945
:1043000001330029FAD0009AD31802F1010A9A4524
:1043100009933DDC009B0A990B9A0B4409990AEB1F
:104320000208994622AB08F1804803EBC9098B18B3
:10433000A59A08F1FF3802EB880872AA02EBCA0AB4
:10434000A59A02EB8303009358F8040F14F056F873
:10435000039B002BE9E802014FF000064FF0000735
:1043600011DB049C4D4675E90223F4E8020114F0C8
:10437000ABF802460B463046394613F0F3FE5C4577
:1043800006460F46EFD1009B9845EAE80267DBD16D
:10439000099B0093A7E606D1009B0EAA013B52F8A9
:1043A0002350ED1512E700224A4B14F013FB0028AE
:1043B00040F06E81054679E70EA9039551F820304B
:1043C0000699CDF8248018390246009006916BB901
:1043D00000F18043013B0EA800EB830353F804096E
:1043E000013A18390028F9D000920691069A384906
:1043F000002000F001FF009B002B04460D46C0F298
:10440000F781DA0072A901EB020B06920EAA02EB09
:104410008306DFF8C4904FF000080BF1080704365C
:1044200056F8040D13F0EAFF22462B4614F04CF820
:104430004B4667E9020142462046294614F044F8FB
:104440000EAB9E4204460D46EAD14AACDDF81C9004
:1044500004944FF0000AB9F1000FC0F22B81DFF88D
:104460007C805D4618A1D1E90001002600270024C8
:1044700003E0544510DCF8E80201F5E8022314F0EB
:1044800023F802460B463046394613F06BFE0134E2
:10449000A14506460F46ECDA049B03EBCA03ABF1D9
:1044A000080BC3E9006770AB9B450AF1010AD2D142
:1044B000A49B049C032B00F28980DFE803F0C58EE7
:1044C0008E1100BFAFF3008000000040FB21F93FD8
:1044D0000000F03F0000E03F0000703EA0970100A8
:1044E000009B002B40F38181069A04EB020ADAE973
:1044F000008902F1080525440DF5987B1AED027B31
:1045000042464B4651EC170B8DED047B13F02AFE0F
:1045100006460F4602460B46DDE9040113F020FE75
:1045200042464B4613F01EFE65E902015D45B0466A
:10453000B9466AE90267E1D1009B012B40F355813E
:10454000069BE518D5E9008903F1080B04EB0B0A7B
:1045500015ED027B42464B4651EC170B8DED007B6F
:1045600013F000FE06460F4602460B46DDE9000149
:1045700013F0F6FD4B46424613F0F4FD6AE90201E2
:104580004EAB5345B046B94665E90267E0D100201D
:10459000002104EB0B0575E9022313F0E3FDAA45A6
:1045A000F9D1039B002B00F00A816268E368089F41
:1045B0002568A4683D6002F1004203F1004301F167
:1045C00000417A60FB60BC6038617961099B03F04F
:1045D00007000DF51B7DBDE8F08F069D08352544CD
:1045E0000020002175E9022313F0BCFDA542F9D19A
:1045F000039B002B00F0D280089E024601F100438D
:1046000086E80C000B460246D4E9000113F0A8FD31
:10461000009B002B0BDD4CAD0124F5E8022313F0C9
:10462000A1FD009B0134A342F7DA039B13B101F112
:1046300000431946089BC3E90201099B03F00700E8
:104640000DF51B7DBDE8F08F069D0835002000218B
:10465000254475E9022313F085FDAC42F9D1039B93
:1046600013B101F100431946089BC3E90001099BFE
:1046700003F007000DF51B7DBDE8F08F0026002735
:10468000EAE80267DA4509F108097FF4FEAC1AE5A9
:10469000009B002B08F10108C8BF02253FF79EAD23
:1046A00032463B460020614913F05AFD022506467A
:1046B0000F46FBE500260027EEE6069B002B27DDD4
:1046C0000024069B012B3FF4C4AD022B09D1009BB3
:1046D0005A1E0EAB0EA953F82230C3F3150341F84E
:1046E0002230022D7FF4E2AD32463B4600204F4996
:1046F00013F036FD06460F46002C3FF4D7ADC7E554
:104700000099013399427FF473AD069B002BD8DCEE
:10471000022D7FF4CBAD32463B460020434913F0D7
:104720001FFD06460F46C1E50123ECE53946069F0D
:1047300003957A423046CDF8248000F05DFD0022DA
:104740003B4B04460D4614F045F9002843D00022A7
:10475000384B2046294613F0B7FE14F065F906469B
:1047600013F04CFE0022324B13F0AEFE02460B4615
:104770002046294613F0F4FC14F056F900990B4634
:1047800001331A4600933B46183306930B460EA995
:1047900041F82300134641F8236027E6089B0246B0
:1047A000C3E900010B46D4E9000113F0D9FC009BDA
:1047B000002B3FF730AF089BC3E902013DE7D4E986
:1047C0000067D4E90223089DC5E90401C5E9006733
:1047D000C5E90223FAE62946204614F025F9009A95
:1047E0000EA941F8220001E64AAC00200021D8E6DB
:1047F000A49B032B3FF6EAAE01A252F823F000BFC0
:104800001F4800001748000017480000E947000053
:1048100001200023F2E4002000214AACE8E6002059
:1048200000211CE70A9BDB0000934CE40000F03FF2
:10483000000070410000703E2DE9F04F21F000466D
:10484000B6F1795F85B004460D469046994604DA84
:1048500014F0EAF8002800F0858022462B46204616
:10486000294613F031FE06460F4602460B46204607
:10487000294613F029FE41A3D3E9002382468B4643
:104880003046394613F020FE3EA3D3E9002313F04F
:1048900067FC32463B4613F017FE3CA3D3E90023E6
:1048A00013F060FC32463B4613F00EFE39A3D3E909
:1048B000002313F055FC32463B4613F005FE37A3A8
:1048C000D3E9002313F04EFC0E9BCDE900019BB30E
:1048D0000022294B4046494613F0F6FDDDE900234E
:1048E000CDE902015046594613F0EEFD02460B4653
:1048F000DDE9020113F034FC32463B4613F0E4FDDF
:1049000042464B4613F02CFC19A3D3E9002306467C
:104910000F465046594613F0D7FD02460B46304627
:10492000394613F01FFC02460B462046294613F079
:1049300017FC05B0BDE8F08F02460B4630463946FD
:1049400013F0C2FD0AA3D3E9002313F009FC524679
:104950005B4613F0B9FD22462B4613F003FC05B06D
:10496000BDE8F08F2046294605B0BDE8F08F00BFB6
:10497000495555555555C53F0000E03F7CD5CF5AA8
:104980003AD9E53DEB9C2B8AE6E55A3E7DFEB157D0
:10499000E31DC73ED561C119A0012A3FA6F8101139
:1049A0001111813F000000002DE9F04FBE4C21F0B5
:1049B000004687B0A64282468B460F46CDE90023CB
:1049C0001BDC14F031F8002837D153461E43109BEE
:1049D0000133334300F0B381109B012B00F0C881F9
:1049E00052465B460020B14913F098FE04460D463E
:1049F0002046294607B0BDE8F08FAD4B9E421CDD36
:104A00000029C0F2A98152465B4687A1D1E9000185
:104A100013F0A6FBDDE9002304460D4684A1D1E98D
:104A2000000113F09DFB9FED847B22462B468DED0C
:104A3000007B13F097FB82468B4652465B465046FE
:104A4000594613F041FD02460B468046894613F055
:104A50003BFD424604460D464B465046594613F030
:104A600033FD77A3D3E90023CDE90201204629468F
:104A700013F02AFD74A3D3E9002313F073FB22463D
:104A80002B4613F021FD72A3D3E9002313F06AFB38
:104A900022462B4613F018FD6FA3D3E9002313F031
:104AA00061FB22462B4613F00FFD6DA3D3E90023D3
:104AB00013F058FB22462B4613F006FD6AA3D3E9F8
:104AC000002313F04FFB42464B4613F0FDFC68A356
:104AD000D3E90023CDE904012046294613F0F4FC74
:104AE00065A3D3E9002313F03DFB22462B4613F0C8
:104AF000EBFC63A3D3E9002313F034FB22462B46DF
:104B000013F0E2FC60A3D3E9002313F02BFB224651
:104B10002B4613F0D9FC5EA3D3E9002313F022FB4C
:104B200022462B4613F0D0FC5BA3D3E9002313F0FD
:104B300019FB02460B46DDE9040113F013FBDDE926
:104B4000022313F0C1FCDDE9004522462B4613F099
:104B500009FB42464B4613F0B7FC02460B46204683
:104B6000294613F0FFFA4EA3D3E9002304460D466D
:104B7000DDE9020113F0A8FC22462B4613F0F2FAFD
:104B80000B460246804689465046594613F0EAFADB
:104B9000474B9E4204460D4600F38E80109B012B2E
:104BA0003BD002460B460020404913F0B7FD0024DD
:104BB00006460F462046294652465B46CDE9006729
:104BC000CDE90201009413F0CBFADDE900AB024617
:104BD0000B464046494613F0C3FA52465B4613F073
:104BE00073FC524604460D465B46DDE9020113F0B4
:104BF0006BFC00222F4B13F0B5FA02460B46204601
:104C0000294613F0AFFA32463B4613F05DFC52469C
:104C10005B4613F0A7FA04460D462046294607B026
:104C2000BDE8F08FAFF30080182D4454FB21E93F1D
:104C3000075C143326A6813C000000000000000041
:104C4000D47ABF74702AFB3EE9A7F0320FB8123F46
:104C500068108D1AF726303F1583E0FEC8DB573FFA
:104C600093846EE9E326823FFE41B31BBAA1AB3FBA
:104C7000735360DBCB75F3BEA69237A0887E143FDA
:104C80000165F2F2D844433F280356C9226D6D3FB7
:104C900037D60684F464963F7AFE10111111C13F95
:104CA000635555555555D53FFFFF2F3E0000F0BFCA
:104CB0002794E53F0000F03F109813F09FFB224639
:104CC000CDE900012B462046294613F0FDFBDDE926
:104CD0000023CDE902012046294613F043FA02469B
:104CE0000B46DDE9020113F019FD42464B4613F075
:104CF00037FA02460B465046594613F031FA02463F
:104D00000B4613F02FFA02460B46DDE9000113F0C3
:104D100027FA0446B81700F00200C0F101000D4662
:104D200013F06CFB02460B462046294613F0CCFBE1
:104D300004460D462046294607B0BDE8F08F504690
:104D4000594611F0BDFA02460B4600200A4913F0FD
:104D5000E5FC04460D4660E7DDE9004501F1004150
:104D6000224605F1004382468B46CDE900234AE600
:104D700054465D4651E700BF0000F03F00000000D0
:104D80002DE9F04FD24A21F00043934285B082468C
:104D90008B460C462DD9CF4A93421AD8002C80F26C
:104DA0001681B5A3D3E900235046594613F0DAF92A
:104DB0000022002313F0FAFDC0B9B1A3D3E9002308
:104DC0005046594613F080FB02460B460020C2496C
:104DD00008E1C24A934240F2D0800346C1F3130275
:104DE000134340F0F481002980F2C4800020BC49C4
:104DF000C0E0BC4A934200F22981BB4A934240F290
:104E0000DE80002301930022B84B5046594613F030
:104E10005BFB06460F4602460B465046594613F0CA
:104E200053FB99A3D3E9002304460D4613F04CFB32
:104E300097A3D3E9002313F095F922462B4613F0EC
:104E400043FB95A3D3E9002313F08AF922462B46AE
:104E500013F03AFB92A3D3E9002313F083F922461F
:104E60002B4613F031FB90A3D3E9002313F078F91C
:104E700022462B4613F028FB00229D4B13F072F9BB
:104E80008046894602460B463046394613F01CFBE5
:104E900002460B460020974913F062F90646024687
:104EA0000B460F464046494613F05AF932468046B3
:104EB00089463B465046594613F006FB02460B46D0
:104EC00000208D4913F04CF902460B4640464946F6
:104ED00013F024FC22462B4613F0F6FA019E0246FC
:104EE0000B46002E38D0DDE9026732463B4613F010
:104EF00037F952465B4613F0E7FA32463B4613F069
:104F00002FF92B46224613F02BF9019B013306465D
:104F10000F4600F00F81019B012B00F0F180019BF7
:104F20000133392B39D8019B132B40F31281019C9B
:104F3000C4F57F75033500222B0513F013F90246E3
:104F40000B465046594613F00BF90022684B13F0FC
:104F500009F901EB04510DE05046594613F0B4FA3B
:104F600022462B4613F0FCF802460B4650465946A3
:104F700013F0F6F805B0BDE8F08F4DA3D3E9002398
:104F800013F032FD00283FF409AF4BA3D3E900230F
:104F90001046194613F098FAECE752465B4613F0B8
:104FA000DFF802460B460020514913F0D9F8019A68
:104FB0004F4B01EB0251002213F0D2F8DAE73EA387
:104FC000D3E9002313F0CEF802460B46CAE72CA320
:104FD000D3E900235046594613F076FA0B4643496D
:104FE0000246002013F0BEF813F01EFD019013F0EE
:104FF00005FA33A3D3E9002306460F4613F064FAFB
:1050000002460B465046594613F0AAF82EA3D3E9A0
:105010000023804689463046394613F055FA064645
:105020000F4632463B464046494613F099F8024641
:105030000B4682468B464046494613F091F832466D
:105040003B4613F08DF8CDE90201DCE62B4A934292
:1050500000F2958000291AA3D3E90023C0F2AC80A6
:1050600013F07EF8012380468946019316A7D7E9FD
:105070000067D6E7AFF3008059F3F8C21F6EA501B1
:10508000FE822B654715F73F2DC3096EB7FD8ABE1B
:105090003952E686CACFD03EB7DBAA9E19CE143F5E
:1050A0008555FE19A0015A3FF41011111111A13FAD
:1050B000EF39FAFE422E86409C7500883CE4377E2C
:1050C0000000E0FE422EE63F763C7935EF39EA3DBE
:1050D00079684340412E86400000E0BFFFFFEF7F2C
:1050E0000000F0BF422ED63FFFFF8F3C0000E03FA4
:1050F0000000F03F0000084000001840B1A2F03F5F
:105100000022394B5046594613F050FC002844D039
:10511000504659460022354B13F024F802460B4600
:105120003046394613F01CF800224FF0404313F08C
:10513000CBF91FE702460B465046594613F010F8CC
:1051400000222A4B13F0C0F90022284B13F008F874
:1051500010E7019C4FF400132341C3F17F575246DF
:105160005B4612F0FDFF002607F5401702460B468E
:105170003046394612F0F4FF01EB0451FAE616A36B
:10518000D3E9002313F0A0F9002C02460B464FF0A0
:105190000000FFF61CAE154924E732463B46504658
:1051A000594612F0DDFF02460B4612F0DBFF0022EB
:1051B0000F4B12F0D7FFDDE612F0D4FF4FF0FF33B4
:1051C00080468946019306A7D7E9006729E702468A
:1051D0000B4612F0C7FFCDE6FE822B654715F73F61
:1051E000763C7935EF39EABD0000D0BF0000E03FE2
:1051F0000000F03F00000000F8B5C1F30A56044675
:105200000D460B4617460EBB21F00043034386466E
:1052100025D00022344B13F057F9344A9742044604
:105220000D460B462ADBC1F30A56363E3E4440F299
:10523000FE72964228DC002E12DD23F0FF4323F499
:10524000E00343EA065520462946F8BD40F2FF72C6
:105250009642EBD102460B4612F084FFF8BDF8BD32
:1052600016F1350F1DDA4CF250339F4222462B4681
:1052700025DC19A1D1E9000112F0E4FE16A3D3E95F
:10528000002313F021F9F8BD22462B4614A1D1E9E1
:10529000000112F0D7FE12A3D3E9002313F014F992
:1052A000F8BD23F0FF4323F4E003363643EA065506
:1052B0002046294600220E4B13F006F9F8BD08A13E
:1052C000D1E9000112F0BEFE05A3D3E9002313F0DB
:1052D000FBF8F8BDAFF3008059F3F8C21F6EA501CB
:1052E0009C7500883CE4377E00005043B03CFFFFD3
:1052F0000000903C10B5054C237833B9044B13B132
:105300000448AFF300800123237010BD1005002076
:1053100000000000DCAF01000C4B43B10C480D490C
:1053200010B5AFF300800C48036823B910BD0A48DC
:10533000036833B97047094B002BF7D0BDE8104024
:105340001847064B002BF5D0184700BF000000009F
:10535000DCAF01001405002018020020000000004E
:10536000154B002B08BF134B9D46A3F5803A002137
:105370008B460F461348144A121A08F05FF90F4B78
:10538000002B00D098470E4B002B00D098470020F0
:10539000002104000D000D48002802D00C48AFF396
:1053A000008012F085FE2000290005F087F912F038
:1053B0006BFE00BF0000080000000220000000009B
:1053C0000000000000040020880C00200000000005
:1053D0000000000070B504460E4600F0D1F888B118
:1053E0000368DB6A05469847082C0CD0A4F1090332
:1053F000012B14D93246214610230D20BDE8704000
:1054000004F0A8B870BD2B6828465B6A984702284C
:10541000F0DC2B6828461B6A04219847EAE72B68D2
:1054200028465B6A98470528E4DC2B6828461B6AF7
:1054300008219847DEE700BF30B52DED028B83B021
:10544000054600F09DF8044640B10368DB6A9847C2
:10545000032D50D8DFE805F0373F47080190019849
:1054600003B0BDEC028B30BD20460BF01DFD07EEF6
:10547000900A2046F8EEE78A0BF026FD07EE900A28
:105480002046B8EEE78A0BF02FFD68EE087A07EEAB
:10549000100AE8EEA87AB8EEC77AE7EE077AF5EEDA
:1054A000407AF1EE10FAB1EEE78A03D517EE900AD2
:1054B00011F052FCFDEEC87ACDED017A019803B0EF
:1054C000BDEC028B30BD204603B0BDEC028BBDE8C5
:1054D00030400BF0E9BC204603B0BDEC028BBDE8C8
:1054E00030400BF0F1BC204603B0BDEC028BBDE8B0
:1054F00030400BF0F9BC00230193B0E738B5054606
:1055000000F03EF858B10368DB6A0446984745B19D
:10551000012D04D12046BDE83840FBF79DB800209E
:1055200038BD2046BDE83840FBF776B810B50446D4
:1055300000F026F828B1036821461B6ABDE8104038
:10554000184710BD0048704716FCFFFF704700BFAA
:1055500010B5034B036004460BF086FA204610BDDD
:1055600010A5010010B5054B036004460BF07CFA52
:10557000204613F0EBFC204610BD00BF10A5010033
:105580002DE9F043C04C236885B01BB1986805B085
:10559000BDE8F0834FF0FF31012001F0FFFCC0B205
:1055A00004F028FB002800F0ED800C2013F0D0FC64
:1055B00003210646512001F0F1FCDFF8FCE2B34B79
:1055C000054605F00F07C5F3031815F4807518BFDD
:1055D0007346AF48394642460AF044FC2A1C18BFBD
:1055E00001223946434630460DF0E2FF0023A94828
:1055F000B3600AF037FC4FF0FF31032001F0CEFC1E
:10560000C0B204F0F7FA4FF0FF310546022001F076
:10561000C5FCC0B204F0EEFA002D00F09A8000281C
:1056200000F097800146284604F076F807460028E7
:1056300000F0A4804FF0FF31462001F0AFFC32288B
:1056400080462BD028DD382869D068283FD14FF01C
:10565000FF31012001F0A2FCC0B204F0CBFA814678
:105660004C2013F075FC0523054601934A46CDF8FE
:105670000080394633460CF06BFF2846B060036863
:105680009B6A9847B0680368DB6A984782480AF0CB
:10569000E9FB2660B0687AE7302818D14FF0FF3177
:1056A000012001F07BFCC0B204F0A4FA81464C203A
:1056B00013F04EFC1FFA88F1054605234A46009177
:1056C0000193394633460CF025FD2846D6E73A6863
:1056D0000125002301950095D2F82080B3600F22A8
:1056E0000DF10F0332213846C047002856D14FF044
:1056F0003208414669480AF0B5FB4FF0FF310120FE
:1057000001F04CFCC0B204F075FA81464C2013F055
:105710001FFC052305464A46CDF80080D0E74FF030
:10572000FF31012001F03AFCC0B204F063FA814677
:10573000442013F00DFC052305464A46CDF80080B1
:105740003946019333460CF05BFE554B2B602846DF
:1057500094E754480AF086FB4FF0FF31192001F01E
:105760001DFCC0B204F046FA4FF0FF310546182088
:1057700001F014FCC0B204F03DFA53E74A480AF0C5
:1057800071FB86E74FF0FF31032001F007FCC0B248
:1057900004F030FA00287FF408AFF8E63B68019582
:1057A0000095D3F820800F220DF10F0330213846E9
:1057B000C04718B94FF0300841469BE73B68019558
:1057C0000095D3F820800D220DF10F0338213846C3
:1057D000C047C0B9382131480AF044FB4FF0FF31CF
:1057E000284601F0DBFBC0B204F004FA80464420F6
:1057F00013F0AEFB4FF0050E3823054642463946FE
:105800008DE808409EE73A6801950095D2F820801F
:105810000DF10F03752268213846C047E0B96821B1
:105820001E480AF01FFB4FF0FF31284601F0B6FB7F
:10583000C0B204F0DFF980464C2013F089FB4FF032
:10584000050E682305468DE8084042463946334632
:105850000CF07EFE284611E714480AF003FBB068FE
:1058600000287FF40CAF4FF0FF31032001F096FBCE
:10587000C0B204F0BFF918B10D480AF0F3FA08E716
:105880000C480AF0EFFA04E72C0500202C980100E0
:105890003498010054980100EC980100109901001F
:1058A000F09701006498010078980100FC980100CD
:1058B00090980100CC9801002498010008B501F0EF
:1058C00095FCFBF76DFCBDE8084001F0FDB900BF99
:1058D00008B501F08BFCFBF7D3FCBDE8084001F0F4
:1058E000F3B900BF08B501F081FC10F05FFDBDE821
:1058F000084001F0E9B900BF08B501F077FC11F0EC
:1059000067F9BDE8084001F0DFB900BF08B501F054
:105910006DFCFBF755FCBDE8084001F0D5B900BFB0
:1059200008B501F063FC10F07FFFBDE8084001F00E
:10593000CBB900BF08B501F059FCFAF7ADFEBDE8E0
:10594000084001F0C1B900BF08B501F04FFC10F0EC
:10595000BFFEBDE8084001F0B7B900BF70B5049EB6
:1059600096420C4628DB15466BB1002A00EB02017B
:1059700007DD2046A21811F8013D00F8013B9042D6
:10598000F9D1002070BD042A0FD0022A02D110F0F4
:10599000010306D001462A46204606F05FFC00209F
:1059A00070BD02880A80184670BD10F00303F1D163
:1059B00002680A60184670BD0846002107F03EFEE6
:1059C0004FF0FF3070BD00BF0830704740B1002974
:1059D00005DB4368994202DA0844007A70470020E8
:1059E000704700BF30B1002904DB43689942BCBF57
:1059F00040180272704700BF40B1002905DB4368C0
:105A0000994202DA0844007A70470020704700BFCC
:105A1000830705D120B1030F0CBF01200020704780
:105A20000120704730B1002904DB43689942BCBFB4
:105A300040180272704700BF002B23DB002921DBD6
:105A400070B54668B1421ADC5568761A1446EA1AEF
:105A5000B242A8BF3246002A11DB84420D4607D06D
:105A6000083408300844E11806F0F8FB002070BD47
:105A70000834E118601913F0A5FA002070BD4FF04A
:105A8000FF3070BD4FF0FF30704700BF4068704777
:105A900010B4141E10DB426894420DDC33EA230379
:105AA00028BF1346121B08309A422044A8BF1A464A
:105AB0005DF8044B07F0C2BD5DF8044B704700BFB2
:105AC00043688B4210B400F108041846A8BF08468A
:105AD00032EA220128BF19461B1A99422044A8BF66
