:1040000000000320214101001D4101006DDB000083
:104010001D4101001D4101001D4101000000000083
:104020000000000000000000000000001D41010031
:104030001D410100000000001D4101001D41010063
:104040001D4101001D4101001D4101001D410100F4
:104050001D4101001D4101001D4101001D410100E4
:104060001D4101001D4101001D4101001D410100D4
:1040700015C801001DC8010025C801002DC8010098
:1040800035C801003DC8010045C801004DC8010008
:1040900055C801005DC8010065C801006DC8010078
:1040A00075C801007DC8010085C801008DC80100E8
:1040B0001D4101001D4101001D410100C1C201005F
:1040C000C5C20100C9C20100CDC20100D1C20100B8
:1040D0001D4101001D4101001D4101001D41010064
:1040E0001D4101001D4101001D4101001D41010054
:1040F000000000001D41010005BE010001BE0100DD
:10410000FDBD0100F1BD01001DBE010019BE010091
:1041100015BE010009BE010035BE010031BE01001F
:104120002DBE010021BE01004DBE010049BE0100AF
:1041300045BE010039BE010065BE010061BE01003F
:104140005DBE010051BE01007DBE010079BE0100CF
:1041500075BE010069BE0100000000000000000003
:10416000000000000000000000000000000000004F
:10417000000000000000000000000000000000003F
:1041800071940100759401006D940100699401001F
:10419000000000001D4101001D4101001D41010002
:1041A0001D4101001D4101001D4101001D41010093
:1041B0001D4101001D4101001D4101001D41010083
:1041C0001D4101001D4101001D4101001D41010073
:1041D0001D4101001D4101001D4101001D41010063
:1041E0001D4101001D4101001D410100C9B4010034
:1041F000D1B40100D9B40100E1B40100E9B4010077
:10420000F1B4010000000000000000001D410100A9
:104210001D4101001D4101001D4101001D41010022
:104220001D4101001D4101001D4101001D41010012
:104230001D4101001D4101001D4101001D41010002
:104240001D4101001D4101001D4101001D410100F2
:104250001D4101001D4101001D4101001D410100E2
:10426000000000007CB0EE877CB0EE87FF00FF000E
:10427000FF00FF00FF00FF00FF00FF00FF00FF0046
:10428000FF00FF00FF00FF00FF00FF00FF00FF0036
:10429000FF00FF00FF00FF00FF00FF000000000024
:1042A0002DE9F04F85B003910778A7F10903042B9E
:1042B000044607F07F0200F10100F5D9202AF3D06F
:1042C0002B2F04BF677804462D2F72D09FED427BC1
:1042D0008DED007B4FF000084FF000098FB34FF0D9
:1042E000000E4FF0000ADFF800B1754619E018F033
:1042F00093FD80468946304618F028FD42464B46DD
:1043000018F0D8FB5246804689465B46DDE900013D
:1043100035B318F0ABFECDE90001AE4614F8017FCD
:104320007FB1A7F13006092E52465B46404649460A
:10433000DDD9C5B92E2F16D114F8017F0125002F24
:10434000EFD142464B46DDE9000118F065FD80469D
:104350008946039B404649461C6005B0BDE8F08F86
:104360004FF0010EDAE7BEF1000F29D042464B466E
:10437000DDE9000118F050FD07F0DF07452F80460A
:104380008946E6D10399601C0A221BF0B5FB164949
:104390000246002019F0A0F802460B464046494666
:1043A00018F03AFD804689464046494605B0BDE8CA
:1043B000F08F9FED0B7B67788DED007B013489E7F3
:1043C000DFF828904FF000084046494605B0BDE8A8
:1043D000F08F00BFAFF30080000000000000F03F4E
:1043E000000000000000F0BF000024400000F87F43
:1043F0002DE9F84F16460023002204460D4618F01A
:104400007DFF002840F09D800022002320462946A1
:1044100018F06AFF28B13022002332707370BDE8B3
:10442000F88F2046294619F067FE18F0A5FF7BA3F8
:10443000D3E9002381462946204618F05FFF002873
:1044400000F08680B9F1000FC0F2BE804A4600201D
:104450006F4919F041F802460B462046294618F0EC
:1044600005FE04460D4666A1D1E9000101274FF083
:10447000000822462B4618F0CFFC0022654B18F0AE
:1044800019FB19F065F8002FCC464FF0FF3AC146F2
:104490004FF0000840F38580DFF888E15E4C012290
:1044A000AEF1700945F6F3254FF02E0BA94208BF77
:1044B000A0424FF0300309D3001B61EB0501A94274
:1044C00008BFA04203F10103F6D2DBB2337050EA19
:1044D000010306F1010409D1BA4210DACE4502F116
:1044E00001020CD026467EE80245DFE7BA4204BF4F
:1044F00086F801B0B41CCE4502F10102F2D1B8F148
:10450000000F0DD02246302102F8011BC2F1010339
:1045100053442344002BF7DC2AEAEA7301331C449A
:10452000BCF1010F4CD06523BCF1000F2370C5BF57
:104530002B236370611CA11C6046BDE8F84F0FF08F
:104540005DBE05F100431D462D23337001365BE748
:104550002DA3D3E900232046294618F0EDFE0028BC
:104560007FF470AFB9F10E0F09F101073DDDA9F13C
:104570000E0842460020264918F0AEFF02460B46C0
:104580002046294618F072FD0022224B18F092FABC
:1045900018F0DEFF002FA9F10F0A4FF0010C3FF7D2
:1045A0007BAF334630222E2403F8022B74707FEA4F
:1045B000090618D01E4403F8012BB342FBD16BE768
:1045C00000232370BDE8F88FC9F1000200201049D4
:1045D00018F082FF02460B462046294618F01CFCC4
:1045E00004460D463FE71E4656E7C9F10E0200207D
:1045F0000749C84618F070FF4FF0010939E700BFBE
:104600000000901EC4BCD64250EFE2D6E41A4B44E0
:10461000000024400000E03F00407A108DEDB5A07E
:10462000F7C6B03E500B020070B54FF0FF3006F0F9
:10463000CBF804466FF07F4006F0C6F806462046E9
:1046400018F074FB00220C4B18F0E6FB04463046D1
:104650000D4618F06BFB06A3D3E9002318F006FD06
:1046600002460B462046294618F024FA70BD00BFCA
:104670000000E0DFFFFF6F430000F03D000000009E
:1046800008B511F06FF8DFED0C7A07EE100A67EE4F
:10469000277A17EE900A18F06BFB05A3D3E90023E5
:1046A00018F0E4FC18F068FE08BD00BFAFF300800E
:1046B000EA2E4454FB2119400000B44300000000DE
:1046C00008B511F063F8DFED0C7A07EE100A67EE1B
:1046D000277A17EE900A18F04BFB05A3D3E90023C5
:1046E00018F0C4FC18F048FE08BD00BFAFF300800E
:1046F000EA2E4454FB2119400000B443000000009E
:104700002DE9F04F046985B0E3699B07FCD123686C
:10471000C3F3400BBBF1000F40F0AF80B0F80CA02A
:1047200015468046BAF1000F23D0BAF1010F62D0CE
:10473000BAF1020F40F0A4805500E1685448C5F575
:104740003B438033B3FBF5F31A0421F47F0102F4F9
:104750007F020A43E260E2685B00A0FB03135B0890
:1047600022F07F4242EA03635846E36005B0BDE8A9
:10477000F08FE2684BF6803B05EB850022F0FF03EB
:10478000ABEB4000019318F0D1FA0646B8F80E00E2
:104790000F4618F0DBFA3CA3D3E9002318F03CFBEA
:1047A00080460BFB05F0894618F0C0FA02460B461E
:1047B0004046494618F030FB02460B463046394623
:1047C00018F076F9064668000F4618F0AFFA024670
:1047D0000B463046394618F049FC18F0F5FD019BB0
:1047E000C0B21843E060E368504623F47F43E360BF
:1047F00005B0BDE8F08FE2684BF6803A05EB850026
:1048000022F0FF03AAEB4000019318F08FFACDE9E4
:104810000201B8F80E0018F099FA1BA3D3E900239F
:1048200018F0FAFA06460AFB05F00F4618F07EFA71
:1048300002460B463046394618F0EEFA02460B4661
:10484000DDE9020118F034F9064668000F4618F059
:104850006DFA02460B463046394618F007FC18F050
:10486000B3FD019AC3B21343E360E368584623F4EF
:104870007F43E36005B0BDE8F08F6FF0100075E78F
:104880006FF00C0072E700BF95D626E80B2E113EA4
:10489000ABAAAAAA000000004F4A21F000439342AD
:1048A0002DE970430D4604464FDC4C4A93420E46B8
:1048B0000FDC45A3D3E9002318F0FCF80022484B95
:1048C00018F03AFD002856D02B4620461946BDE880
:1048D0007083444A934242DCB3F1804F4BDD19F0C0
:1048E00015F82246804689462B462046294618F070
:1048F00093FA00223A4B18F0DDF81AF025F8024638
:104900000B464046494618F0D5F802460B460020B3
:10491000334918F0ABFB424604460D464B46404631
:10492000494618F0C7F80B4602462946204618F0BB
:10493000C1F801F0FDFE04460B46002E0BDC03F12E
:10494000004320461946BDE870830B46024618F026
:10495000B1F804460B4620461946BDE8708318F0AE
:10496000D5FF01F0E5FE1AA3D3E9002318F0A2F861
:1049700004460B46E1E722462B462046294618F01E
:104980004BFA804689462046294618F0BFFF002290
:104990000446134B0D464046494618F08BF819F073
:1049A000D3FF00220E4B18F085F802460B46404616
:1049B000494618F05BFB22462B4618F07BF800F0C6
:1049C000D3FA04460B46B8E79C7500883CE4377E72
:1049D000EF39FAFE422EE63FFFFFEF7FFFFF2F3E4B
:1049E0000000F03F0000B0412DE9F84FC24B21F02C
:1049F00000469E420D468A46044610DDBF4B9E424D
:104A000000F3B58000F0B080BD4BBE49BE4CBAF19A
:104A1000000FD8BF0B4620461946BDE8F88FBB4BA8
:104A20009E4200F3C180A3F1DE739E4240F3AB804F
:104A30004FF0FF3B22462B462046294618F0ECF962
:104A400002460B468046894618F0E6F992A3D3E960
:104A5000002306460F4618F0DFF991A3D3E900239F
:104A600018F028F832463B4618F0D6F98EA3D3E961
:104A7000002318F01FF832463B4618F0CDF98CA3FE
:104A8000D3E9002318F016F832463B4618F0C4F973
:104A900089A3D3E9002318F00DF832463B4618F0FD
:104AA000BBF987A3D3E9002318F004F842464B462C
:104AB00018F0B2F984A3D3E9002380468946304632
:104AC000394618F0A9F982A3D3E9002317F0F0FFC3
:104AD00032463B4618F0A0F97FA3D3E9002317F034
:104AE000E7FF32463B4618F097F97DA3D3E9002350
:104AF00017F0DEFF32463B4618F08EF97AA3D3E971
:104B0000002317F0D5FF32463B4618F085F9BBF17C
:104B1000FF3F02460B466ED04046494617F0CAFF9B
:104B200022462B4618F078F9794E7A4B4FEACB0B98
:104B30005E449B44DBE9002317F0BAFF22462B4674
:104B400017F0B6FF0B460246D6E9000117F0B0FF9A
:104B5000BAF1000F04460B46BFF65DAF01F100430A
:104B600020461946BDE8F88F00283FF44DAF224695
:104B70002B462046294617F09DFF04460B4620464B
:104B80001946BDE8F88F5AA3D3E9002317F092FF26
:104B90000022614B18F0D0FB00283FF449AF2B46B0
:104BA00020461946BDE8F88F18F0B0FE5B4B9E42D8
:104BB00004460D4630DCA3F550239E4255DC0246E8
:104BC0000B4617F077FF0022534B17F071FF0022BE
:104BD00006460F464FF080432046294617F06AFFED
:104BE00002460B463046394618F040FA4FF0000BAB
:104BF00004460D461EE74046494617F05BFF224635
:104C00002B4618F009F90B4602462946204617F0B4
:104C10004FFF04460B46FEE6414B9E421ADC002243
:104C2000404B17F045FF002206460F463D4B2046FD
:104C3000294618F0F1F80022374B17F03BFF0246E7
:104C40000B463046394618F011FA4FF0020B044675
:104C50000D46EFE602460B460020334918F006FAEF
:104C60004FF0030B04460D46E4E600222A4B17F0F2
:104C70001FFF002206460F46274B2046294617F005
:104C800019FF02460B463046394618F0EFF94FF04F
:104C9000010B04460D46CDE611DA22E33AAD903F12
:104CA000EB0D76244B7BA93F513DD0A0660DB13F63
:104CB0006E204CC5CD45B73FFF8300922449C23FCB
:104CC0000D5555555555D53F2F6C6A2C44B4A2BF90
:104CD0009AFDDE522DDEAD3F6D9A74AFF2B0B33F58
:104CE000711623FEC671BC3FC4EB98999999C93FD0
:104CF0009C7500883CE4377EFFFF0F440000F07F86
:104D0000FB21F93FFB21F9BF182D4454FFFFDB3F86
:104D1000600B0200800B02000000F03FFFFFF23F3B
:104D2000FF7F03400000F83F0000F0BF00000000DC
:104D30002DE9F047C1F30A59A9F2FF36132E0B46AD
:104D40000D46044607468846824622DC002E4FDB8D
:104D50003D4A42FA06F901EA090202431ED038A38D
:104D6000D3E9002317F0A6FE0022002318F0E4FA8E
:104D700050B1002D04DD4FF4801343FA06F6B04421
:104D800028EA09054FF0000A544629462046BDE8A6
:104D9000F087332E06DDB6F5806F3DD019462046EC
:104DA000BDE8F087A9F213494FF0FF3222FA09F962
:104DB00010EA090FF2D022A3D3E9002317F07AFEFC
:104DC0000022002318F0B8FA0028DDD0002D09DDFC
:104DD000142E2FD00123C6F1340603FA06F6371934
:104DE00028BF9844454627EA090A54462946CDE794
:104DF00013A3D3E9002317F05DFE0022002318F06F
:104E00009BFA0028C0D0002D0FDB55EA040709D01B
:104E10004FF0000A0D4DB7E702460B4617F04AFE69
:104E20000446BCE7BA463D46AEE74FF0000A4FF0F5
:104E30000045A9E705F10108D4E700BFAFF3008002
:104E40009C7500883CE4377EFFFF0F000000F03FB8
:104E5000C1F30A522DE9F843A2F2FF36132E0B4696
:104E60000D460446884607461DDC002E40DB3C4AC2
:104E700042FA06F901EA09020243864618D036A32F
:104E8000D3E9002317F016FE0022002318F054FA8D
:104E900020B1002D42DB28EA090500273C462946BF
:104EA0002046BDE8F883332E06DDB6F5806F2FD09F
:104EB00019462046BDE8F883A2F213424FF0FF39AD
:104EC00029FA02F910EA090FF2D023A3D3E900234B
:104ED00017F0F0FD0022002318F02EFA0028DDD094
:104EE000002D21DB454627EA09073C462946D7E73E
:104EF00019A3D3E9002317F0DDFD0022002318F0E9
:104F00001BFA0028CAD0002D19DB00273D46C5E753
:104F100002460B4617F0CEFD0446CAE74FF4801355
:104F200043FA06F6B044B6E7142E10D00123C6F1BA
:104F3000340603FA06F6371928BF9844D2E725F05D
:104F40000042084B224318BF1D460027A6E705F183
:104F50000108C7E7AFF300809C7500883CE4377E0A
:104F6000FFFF0F000000F0BF2DE9F04FD64B994234
:104F700089B00E460F46824613DCD44B21F0004424
:104F80009C4218DD0022D24B18F0AEF9002879D0EF
:104F9000002200230020CF4918F068F809B0BDE8CE
:104FA000F08FCD4B99422FDD5246334617F082FDEC
:104FB00009B0BDE8F08FC94B9C4270DDC84B1F445F
:104FC0009F427ED8504631460022C64B17F072FDF4
:104FD0004FEA215BABF2FF3BBBF1000F04460D46ED
:104FE0000F4640F3E0815246334617F061FD02461A
:104FF0000B460020BB4917F05BFD22462B4618F0FC
:1050000035F8CDE900010BE0B74B9F42DADD002215
:105010000023CDE900234FEA275B5446ABF2FF3B68
:10502000B24BC7F313079F4247F07F5500F3E78069
:1050300045F44015204629460022AA4B17F038FDBA
:10504000002204460D46AA4B17F0E6FE22462B46E8
:1050500017F0E2FEA246CDE902012E4680468946BF
:10506000002F3AD1002200232046294618F03CF9AF
:10507000002800F0CE80BBF1000F40F076810020C8
:10508000014695E7524633465046314617F010FD2B
:1050900002460B4617F0EAFF09B0BDE8F08F002288
:1050A000944B17F007FD0022002318F045F9002863
:1050B00000F0CC80904B9C4200F3C88050463146B3
:1050C00076E700228A4B17F0A7FE5246334617F0C8
:1050D000A3FE4FF0000B8046894600224FF080432C
:1050E0005046314617F0E6FC02460B465046314624
:1050F00017F0BCFF02460B46CDE9022317F08CFEE9
:105100005DA3D3E9002304460D4617F085FE5CA39A
:10511000D3E9002317F0CEFC22462B4617F07CFE85
:1051200059A3D3E9002317F0C5FC22462B4617F0FC
:1051300073FE57A3D3E9002317F0BCFC22462B468D
:1051400017F06AFE54A3D3E9002317F0B3FC2246FC
:105150002B4617F061FE52A3D3E9002317F0AAFCF7
:1051600022462B4617F058FE4FA3D3E9002317F031
:10517000A1FC22462B4617F04FFE04460D46BBF11C
:10518000000F00F0BB80584617F0E0FD48A3D3E9BC
:105190000023CDE9040117F03FFE4246CDE90601A8
:1051A0004B462046294617F085FCDDE9022317F01F
:1051B00033FE41A3D3E9002304460D46DDE9040193
:1051C00017F02AFEDDE9002317F074FC02460B46B7
:1051D0002046294617F06EFC02460B4640464946DB
:1051E00017F066FC5246334617F062FC02460B4647
:1051F000DDE9060117F05CFC09B0BDE8F08F45F46D
:105200000015C7F5801720462946BF100BF1010B8A
:1052100012E72BA3D3E900232046294617F0FCFD13
:1052200002460B4600202F4917F042FCDDE902231D
:1052300017F0F2FD06460F46BBF1000F6DD1024696
:105240000B462046294617F033FCB1E6524633465A
:105250005046314617F0E0FD0022254B17F0DCFDEB
:1052600002460B465046314617F022FC09B0BDE815
:10527000F08F00BFAFF3008044523EDF12F1C23F17
:105280009FC678D0099AC33FDE03CB966446C73FDA
:10529000AF788E1DC571CC3F599322942449D23FDB
:1052A00004FA97999999D93F935555555555E53F26
:1052B0000000E0FE422EE63F763C7935EF39EA3DCC
:1052C000555555555555E53F7982DA3FFFFFEF3F7C
:1052D0000000F0BF000050C3FFFFEF7FFFFF1F3E45
:1052E0003C412D400000F03FFFFF3F439DA00600E2
:1052F0000000E03F00005043FFFF8F3C42464B461A
:1053000017F0D8FBDDE9022317F086FD02460B46B5
:105310004046494617F0CCFBA2E7584617F016FD69
:1053200027A3D3E9002382468B4617F075FD26A3F9
:10533000D3E90023804689465046594617F06CFD54
:10534000DDE9002317F0B6FB02460B46304639462E
:1053500017F0AEFB22462B4617F0AAFB02460B467F
:105360004046494617F0A4FB22E6584617F0EEFCEB
:1053700015A3D3E9002306460F4617F04DFDDDE9DE
:10538000002317F097FB0EA3D3E9002304460D4634
:105390003046394617F040FD02460B462046294666
:1053A00017F088FB04E60022094B17F081FB024648
:1053B0000B465046314617F07BFB1EE6AFF30080EC
:1053C0000000E0FE422EE63F763C7935EF39EA3DBB
:1053D0000000F03F0000000008B518F011FE04A323
:1053E000D3E9002317F042FE08BD00BFAFF30080F1
:1053F000EF39FAFE422EE63F2DE9F043DFF8B480A4
:105400008BB004460D4600F06BFF98F90030013375
:1054100006460F462BD022462B462046294617F03B
:1054200095FF814618BB2046294618F06FFA1CA349
:10543000D3E9002317F080FFC8B11B4A98F9003068
:10544000CDF820900321CDE90445CDE902458DE852
:1054500006008BB9154B4FF06042CDE90623684634
:105460001AF0B6F970B1089B9BB9DDE906673046C2
:1054700039460BB0BDE8F0830D490020022BCDE981
:105480000601ECD11AF0F4FA22230360089B002BEA
:10549000EBD01AF0EDFA089B0360E6E7AFF300806B
:1054A0007DF8B98FCE33864064220200FFFFEF47BC
:1054B0000000F07F1E0200202DE9F043DFF8E480B9
:1054C0008BB004460D4600F0BBFF98F90030013365
:1054D00006460F4633D0204629461AF073F970B3BA
:1054E00029A3D3E900232046294617F025FF81464A
:1054F00050BB27A3D3E900232046294617F0FEFE20
:10550000E8B198F90030244ACDF820900426002014
:105510000021022BCDE90445CDE902450096019218
:10552000CDE9060129D068461AF052F928B3089B44
:105530001BB11AF09DFA089B0360DDE9066730464F
:1055400039460BB0BDE8F083134A98F90030019258
:1055500003210022CDE90445CDE9024500910892DE
:105560002BB90E4B4FF06042CDE90623DBE70C4927
:105570000020022BCDE90601D5D11AF079FA2223B9
:105580000360D4E7AFF30080EF39FAFE422E864085
:1055900051302DD5104987C06C220200FFFFEF4724
:1055A0000000F07F1E0200202DE9F84FC44E21F0CC
:1055B0000043B3420C4605460DDD03F1404303F5BD
:1055C0008013034340F0B980002940F3408100205C
:1055D0000021BDE8F88FBB4EB34240F3A6800029FE
:1055E000C0F2788102460B460020B74917F060FAF6
:1055F0000022B64B17F010FC04460D4619F0A4F932
:1056000095A3D3E90023894680462946204617F012
:1056100003FC93A3D3E9002317F04CFA22462B4650
:1056200017F0FAFB90A3D3E9002317F041FA2246C2
:105630002B4617F0F1FB8EA3D3E9002317F03AFABB
:1056400022462B4617F0E8FB8BA3D3E9002317F083
:105650002FFA22462B4617F0DFFB89A3D3E900235C
:1056600017F028FA22462B4617F0D6FB86A3D3E97B
:10567000002382468B462046294617F0CDFB84A3A3
:10568000D3E9002317F014FA22462B4617F0C4FB87
:1056900081A3D3E9002317F00DFA22462B4617F019
:1056A000BBFB7FA3D3E9002317F002FA22462B4667
:1056B00017F0B2FB0022844B17F0FCF902460B46B0
:1056C0005046594617F0D2FC42464B4617F0A4FB11
:1056D000002682468B4632464B463046494617F0F6
:1056E0009BFB02460B462046294617F0E1F932465D
:1056F00004460D464B464046494617F0DBF9024644
:105700000B462046294617F0B1FC02460B46504690
:10571000594617F0CFF932464B4617F0CBF90246FF
:105720000B4617F0C7F9BDE8F88F694A93420EDCC3
:105730005DA1D1E90001BDE8F88F02460B4617F0E4
:10574000B7F902460B4617F091FCBDE8F88F024608
:105750000B4617F061FB40A3D3E9002306460F4632
:1057600017F05AFB3EA3D3E9002317F0A3F9324602
:105770003B4617F051FB3CA3D3E9002317F098F9FF
:1057800032463B4617F048FB39A3D3E9002317F014
:1057900091F932463B4617F03FFB37A3D3E900238C
:1057A00017F086F932463B4617F036FB34A3D3E9AF
:1057B000002317F07FF932463B4617F02DFB32A34A
:1057C000D3E90023804689463046394617F024FB4A
:1057D0002FA3D3E9002317F06BF932463B4617F0AD
:1057E0001BFB2DA3D3E9002317F064F932463B4697
:1057F00017F012FB2AA3D3E9002317F059F9324618
:105800003B4617F009FB00222F4B17F053F90246D5
:105810000B464046494617F029FC2A46234617F016
:10582000FBFA02460B4622A1D1E9000117F040F92C
:1058300002460B462846214617F03AF902460B4627
:1058400019A1D1E9000117F033F9BDE8F88F1AA1C9
:10585000D1E90001BDE8F88F09F7FD0DE13D023FF8
:1058600088B20175E0EF493F3B8F68B52882A43FBD
:105870005544880E55C1C93F7D6FEB0312D6D43F06
:10588000555555555555C53F82922EB1C5B8B33FB4
:1058900059018D1B6C06E63FC88A599CE52A0040D9
:1058A0004B2D8A1C273A0340182D4454FB21F93F05
:1058B000075C143326A6913C182D4454FB21094063
:1058C000FFFFEF3FFFFFDF3F0000F03F0000E03F42
:1058D0000000603C00225C4B17F0ECF800225B4BB0
:1058E00017F09AFA40A3D3E9002304460D4617F0B7
:1058F00093FA3FA3D3E9002317F0DCF822462B46A6
:1059000017F08AFA3CA3D3E9002317F0D1F8224616
:105910002B4617F081FA3AA3D3E9002317F0CAF80F
:1059200022462B4617F078FA37A3D3E9002317F065
:10593000BFF822462B4617F06FFA35A3D3E90023B0
:1059400017F0B8F822462B4617F066FA80468946CB
:105950002046294618F0F8FF2FA3D3E90023064676
:105960000F462046294617F057FA2DA3D3E9002306
:1059700017F09EF822462B4617F04EFA2AA3D3E9D9
:10598000002317F097F822462B4617F045FA28A374
:10599000D3E9002317F08CF822462B4617F03CFA87
:1059A0000022294B17F086F802460B46404649462E
:1059B00017F05CFB32463B4617F02EFA1EA3D3E9E4
:1059C000002317F075F832463B4617F073F802468D
:1059D0000B4617F06FF802460B4619A1D1E90001FA
:1059E00017F066F8BDE8F88F09F7FD0DE13D023FBD
:1059F00088B20175E0EF493F3B8F68B52882A43F2C
:105A00005544880E55C1C93F7D6FEB0312D6D43F74
:105A1000555555555555C53F82922EB1C5B8B33F22
:105A200059018D1B6C06E63FC88A599CE52A004047
:105A30004B2D8A1C273A0340075C143326A6913C61
:105A4000182D4454FB2109400000F03F0000E03FC6
:105A5000434A91422DE9F8430C46054639DD414A57
:105A6000914209DD02F17952914240DD02460B4636
:105A700017F020F8BDE8F88301F1404202F58012EA
:105A8000024330D0B1F1804F3ADC0022364B17F0A0
:105A90000FF802460B4604460D4617F00BF8224657
:105AA00006460F462B462046294617F0B5F9024612
:105AB0000B463046394616F0FDFF18F045FF0B4601
:105AC00002462946204616F0F5FFBDE8F843FFF7E9
:105AD0004BBA02460B4616F0EBFF02460B4617F098
:105AE000C5FABDE8F88300200021BDE8F88300F086
:105AF0001FFE19A3D3E9002316F0DCFFBDE8F883ED
:105B000002460B4617F088F90022174B16F0D0FF1B
:105B100018F01AFF2A468046894623462846214621
:105B200016F0C8FF424606460F464B462846214619
:105B300016F0C0FF02460B4600200B4917F096FAFC
:105B40000B4602463946304616F0B2FFBDE8F84330
:105B500000F0EEBDAFF30080EF39FAFE422EE63FD3
:105B6000FFFFEF3FFFFFAF410000F03F00000000EC
:105B70002DE9F047C44B21F00048984584B00D460C
:105B8000044616DD08F1404808F58018034658EA37
:105B9000030326D002460B4616F08AFF0B46024648
:105BA00017F064FA04460B462046194604B0BDE8D7
:105BB000F087B64B98458A462EDCB8F1795F80F2C3
:105BC0006D8195A3D3E9002316F074FF0022B04B3A
:105BD00017F0B2FB00B32B462046194604B0BDE8CF
:105BE000F0878FA3D3E9002317F016F98EA3D3E92A
:105BF000002306460F462046294617F00DF90246B7
:105C00000B463046394616F055FF04460B462046F3
:105C1000194604B0BDE8F0872046294617F076FE05
:105C200002460B4600209A4916F042FF0022994B8B
:105C300017F0F2F87EA3D3E9002304460D4617F0CF
:105C4000EBF87DA3D3E9002316F034FF22462B4660
:105C500017F0E2F87AA3D3E9002316F029FF2246D1
:105C60002B4617F0D9F878A3D3E9002316F022FFCA
:105C700022462B4617F0D0F875A3D3E9002316F07F
:105C800017FF22462B4617F0C7F873A3D3E900236A
:105C900016F010FF22462B4617F0BEF870A3D3E98A
:105CA0000023CDE900012046294617F0B5F86EA380
:105CB000D3E9002316F0FCFE22462B4617F0ACF881
:105CC0006BA3D3E9002316F0F5FE22462B4617F00E
:105CD000A3F869A3D3E9002316F0EAFE22462B4677
:105CE00017F09AF86A4B002216F0E4FECDE90201A3
:105CF0002046294618F028FE674B984506460F4671
:105D000067DCDDE90223DDE9000117F0AFF9324677
:105D1000CDE900013B463046394616F0CBFE02463F
:105D20000B46DDE9000117F077F84FF00008CDE9E8
:105D3000000142463B464046394617F06DF80246A0
:105D40000B462046294616F0B3FE424604460D4651
:105D50003B463046394616F0ADFE02460B4620461D
:105D6000294617F083F902460B4616F0A3FE0246B9
:105D70000B462DA1D1E9000116F09AFE02460B4612
:105D8000DDE9000116F094FE424604460D463B460E
:105D90004046394616F08EFE02460B4638A1D1E940
:105DA000000116F085FE02460B462046294616F0F5
:105DB0007FFE0B46024632A1D1E9000116F078FEC3
:105DC00004460B46BAF1000F3FF7EEAE03F1004375
:105DD000EAE6DDE90223DDE9000117F047F9324682
:105DE0003B4617F019F832463B4616F063FE024672
:105DF0000B4616F05FFE0CA3D3E9002316F058FE05
:105E00000B46024606A1D1E9000116F051FE0446F8
:105E10000B46D7E7AFF300809C7500883CE4377EE3
:105E2000182D4454FB21F93F075C143326A6913CFE
:105E300009F7FD0DE13D023F88B20175E0EF493FF2
:105E40003B8F68B52882A43F5544880E55C1C93F91
:105E50007D6FEB0312D6D43F555555555555C53F6B
:105E600082922EB1C5B8B33F59018D1B6C06E63F37
:105E7000C88A599CE52A00404B2D8A1C273A0340CA
:105E8000182D4454FB21E93FFFFFEF3FFFFFDF3FA9
:105E90000000F03F0000E03F3233EF3F02460B4688
:105EA00016F0BAFF38A3D3E9002306460F4616F0D2
:105EB000B3FF37A3D3E9002316F0FCFD32463B467F
:105EC00016F0AAFF34A3D3E9002316F0F1FD324601
:105ED0003B4616F0A1FF32A3D3E9002316F0EAFDFA
:105EE00032463B4616F098FF2FA3D3E9002316F065
:105EF000DFFD32463B4616F08FFF2DA3D3E900238A
:105F000016F0D8FD32463B4616F086FF2AA3D3E9A9
:105F10000023804689463046394616F07DFF28A387
:105F2000D3E9002316F0C4FD32463B4616F074FF59
:105F300025A3D3E9002316F0BDFD32463B4616F0FB
:105F40006BFF23A3D3E9002316F0B2FD32463B4694
:105F500016F062FF0022204B16F0ACFD02460B4605
:105F60004046494617F082F822462B4616F054FF69
:105F700022462B4616F09EFD04460B462046194647
:105F800004B0BDE8F08700BF09F7FD0DE13D023F19
:105F900088B20175E0EF493F3B8F68B52882A43F86
:105FA0005544880E55C1C93F7D6FEB0312D6D43FCF
:105FB000555555555555C53F82922EB1C5B8B33F7D
:105FC00059018D1B6C06E63FC88A599CE52A0040A2
:105FD0004B2D8A1C273A03400000F03F00000000D0
:105FE0002DE9F84F5442144323F00049704E49EA1A
:105FF000D474B44286460F4640D84442044321F04C
:10600000004B4BEAD474B4428A4637D803F140447B
:1060100004F5801414434AD09C1704F0020444EAA7
:10602000D17450EA0B0131D052EA090137D0B145A1
:1060300052D0B34533D0ABEB09094FEA2959B9F136
:106040003C0F3BDC002B66DB7046394617F00EF840
:1060500017F05CFCFEF7C8FC012C58D0022C48D08D
:10606000002C5ED040A3D3E9002316F021FD40A30D
:10607000D3E9002316F01CFDBDE8F88F1046194641
:1060800072463B4616F016FDBDE8F88F022C19D07B
:10609000032C10D138A1D1E90001BDE8F88FBAF185
:1060A000000F14DB36A1D1E90001BDE8F88FBDE88F
:1060B000F84FFEF799BC3946BDE8F88F30A1D1E919
:1060C0000001C9E72AA1D1E90001BDE8F88F2EA19E
:1060D000D1E90001BDE8F88FCB4524D0022CF1D0E6
:1060E000032CD7D0012C4FF0000027D00021BDE8B1
:1060F000F88F1DA3D3E9002316F0DAFC02460B4605
:106100001BA1D1E9000116F0D3FCBDE8F88F01F125
:106110000041BDE8F88F19F13C0F95DA002000210D
:106120009AE7BDE8F88F022C16D0032C0FD0012C73
:1061300008D017A1D1E90001BDE8F88F4FF0004168
:10614000BDE8F88F14A1D1E90001BDE8F88F14A1D2
:10615000D1E90001BDE8F88F13A1D1E90001BDE844
:10616000F88F00BFAFF30080075C143326A6A13C74
:10617000182D4454FB210940182D4454FB2109C01B
:10618000182D4454FB21F93F182D4454FB21F9BF2D
:10619000182D4454FB21E93F182D4454FB21E9BF3D
:1061A000D221337F7CD902C0D221337F7CD90240F7
:1061B0000000F07F0000000043422DE9F047034358
:1061C00021F00048424A48EAD373934206460F46FC
:1061D00016D890454BD03F4B98458A461EDC3AA3D3
:1061E000D3E90023044616F065FC0022002317F0D3
:1061F000A3F8002845D03B4620461946BDE8F08765
:1062000002460B4616F054FC0B46024616F02EFFD3
:1062100004460B4620461946BDE8F0872E4B9845AC
:10622000044645462FDD02464346414616F042FCF1
:10623000224606460F4643460020254916F038FC04
:1062400002460B463046394616F010FFFEF78CFE2C
:10625000224B002216F0E0FDBAF1000F04460B4677
:10626000D8DA01F1004320461946BDE8F087002244
:10627000002316F0FBFE04460B4620461946BDE8F7
:10628000F0873446454622462B462046294616F0DE
:1062900011FC22462B4606460F4616F0BDFD22464F
:1062A000804689462B460020094916F001FC02462B
:1062B0000B464046494616F0D9FE32463B4616F09C
:1062C000F9FBC3E7AFF300809C7500883CE4377EA0
:1062D0000000F03FFFFF2F3EFFFFDF3F0000E03FE9
:1062E0004F4A2DE9F84321F0004494420B460546FD
:1062F0001BDC4C4A944222DD4B4A944263DD4B4AFC
:1063000094427BDD4A4A944246DD0132944240D0B9
:1063100041A3D3E900231046194616F07DFD064639
:106320000F4630463946BDE8F88302460B4616F064
:1063300073FD06460F4630463946BDE8F88317F030
:10634000E5FA02F0A9FC00223A4B8046894616F095
:10635000B1FBB4F1725F06460F46ECDB42464B469A
:106360004046494616F058FD32463B4604460D4627
:106370003046394616F09EFB02460B46204629461B
:1063800016F074FE00222B4B16F094FB06460F46C7
:10639000D1E7294A9042BBD82846194617F0B6FAE9
:1063A0000022264B16F038FD00F04AF80022044681
:1063B0000D46224B16F030FD22462B4616F02CFDE2
:1063C00006460F46B7E717F0A1FA00F039F80022A9
:1063D0001A4B06460F4616F01FFD32463B46044652
:1063E0000D460020154916F041FE02460B46204698
:1063F000294616F05FFB06460F469CE717F086FA23
:1064000000F01EF800220D4B16F006FD06460F4662
:1064100091E700BFAFF300809C7500883CE4377EB5
:10642000FFFFEF7F422ED63FFFFF3540412E8640D3
:10643000CD3386400000F03F7DF8B98F0000E03F8B
:106440002DE9F04FB04F21F00042BA4283B00C4624
:106450004FEAD17605460DD9AC4FBA4225D9C1F3E2
:106460001303034340F0EF800EB10020014603B058
:10647000BDE8F08FA64B9A4200F2CC80A54B9A4221
:1064800000F2DE808AA3D3E9002316F013FB00227A
:10649000A14B16F051FF002800F005812846214647
:1064A00000229D4B16F006FBE1E783A3D3E900230E
:1064B00016F042FF002840F0CB802846214680A3FA
:1064C000D3E9002316F01AFF0028CED1934B2846BB
:1064D00003EBC60621467CA3D3E9002316F09CFCFF
:1064E000D6E9002316F0E6FA16F046FF804616F0CD
:1064F0002DFC77A3D3E9002306460F4616F08CFC4B
:1065000002460B462846214616F0D2FA72A3D3E97A
:106510000023CDE900013046394616F07DFC824665
:106520008B4652465B46DDE9000116F0C1FA05468E
:106530000C462A4623462846214616F06DFC68A3E1
:10654000D3E9002306460F4616F066FC66A3D3E99E
:10655000002316F0ADFA32463B4616F05DFC64A30C
:10656000D3E9002316F0A6FA32463B4616F054FC57
:1065700061A3D3E9002316F09BFA32463B4616F09E
:106580004BFC5FA3D3E9002316F094FA32463B4656
:1065900016F042FC02460B462846214616F088FAC1
:1065A00006460F462846214632463B46B8F1000FC4
:1065B00056D016F031FC324604460D463B460020CC
:1065C0004FF0804116F074FA02460B4620462946E9
:1065D00016F04CFD02460B465046594616F068FA36
:1065E000DDE9002316F064FA0B4602464A49002012
:1065F00016F05EFA6FF47F7398454FDA08F57A78F3
:1066000001EB085100224FF0B87316F005FC03B0FF
:10661000BDE8F08F424B9A423FF658AF414BF40031
:106620002344D3E9002316F043FA3F4BC6F1010897
:106630002344CDE90001D3E900ABA8EB060870E7DD
:106640004FF0000875E702460B4616F033FA0EE7E6
:1066500017A3D3E900231046194616F0DDFB06E721
:1066600016F0DAFB0022804689464FF08043304620
:10667000394616F01DFA02460B464046494616F0CA
:10668000F5FC2A46234616F013FA02460B46002074
:10669000214916F00DFA03B0BDE8F08F01EB085167
:1066A00003B0BDE8F08F804643E700BFAFF3008042
:1066B0009C7500883CE4377EEF39FAFE422E864016
:1066C00051302DD5104987C0FE822B654715F73F05
:1066D0000000E0FE422EE63F763C7935EF39EA3D98
:1066E000D0A4BE726937663EF16BD2C541BDBB3ED8
:1066F0002CDE25AF6A56113F93BDBE166CC1663FB6
:106700003E5555555555C53F412E8640FFFFEF7FFD
:10671000422ED63FFFFF2F3E0000F03FA00B0200AD
:10672000B1A2F03FB00B0200C00B0200000000005D
:106730002DE9F04FB1F5801F85B006460F460B4698
:106740005ADA024621F00044224300F0F880002982
:10675000C0F27A810022D64B16F05EFBD54A0B467A
:10676000934206460F466FF0350C4ADCC3F313051F
:1067700005F5152E0EF6647E0EF4801E8EF07F5207
:1067800082F440121C1542EA0507A4F2FF34644467
:106790000022C94B3046394604EB1E5416F088F9E6
:1067A000AB1CC3F31303022B82468B464FF000024F
:1067B00030DC002316F098FD002800F0C980002C82
:1067C00000F04B81204616F0C1FAA5A3D3E90023BF
:1067D00006460F4616F020FBA3A3D3E90023044688
:1067E0000D463046394616F017FB02460B4620464A
:1067F000294616F05FF90AE0AE4A93424FF0000CCA
:10680000B4DD32463B463046394616F053F905B002
:10681000BDE8F08F4FF0804316F04CF902460B466E
:106820005046594616F022FC064620460F4616F002
:106830008DFA3246CDE900013B4630463946CDE976
:10684000026716F0E9FA02460B468046894616F0C2
:10685000E3FA87A3D3E9002306460F4616F0DCFAD5
:1068600085A3D3E9002316F025F932463B4616F0FE
:10687000D3FA83A3D3E9002316F01CF932463B4632
:1068800016F0CAFA80A3D3E9002316F013F94246A2
:106890004B4616F0C1FA7EA3D3E900238046894611
:1068A0003046394616F0B8FA7BA3D3E9002316F038
:1068B00001F932463B4616F0AFFA79A3D3E900233B
:1068C00016F0F8F832463B4616F0A6FA0B4602469A
:1068D0004946404616F0EEF8A5F5C223C5F5D72582
:1068E000A3F27A4351351D43002D8046894656DD7B
:1068F0000022724B5046594616F08EFA52465B46BD
:1069000016F08AFA06460F46002C68D132463B46FE
:106910004046494616F0CEF8DDE9022316F07CFA2F
:1069200002460B463046394616F0C2F802460B4680
:106930005046594616F0BCF805B0BDE8F08F00226D
:10694000002300205E4916F091FB05B0BDE8F08FF2
:1069500055A3D3E900235046594616F05DFA024686
:106960000B460020554916F0A3F8524606460F463E
:106970005B465046594616F04FFA02460B463046E3
:10698000394616F049FA06460F46002C40F09A8028
:1069900002460B465046594616F08AF837E7002C57
:1069A00000F0A4802EA3D3E90023DDE9000116F056
:1069B00033FA42464B4604460D465046594616F0B9
:1069C00077F8DDE9022316F027FA27A3D3E900239D
:1069D00006460F46DDE9000116F01EFA21E020A36D
:1069E000D3E90023DDE9000116F016FA32463B46F2
:1069F00004460D464046494616F05CF8DDE90223A0
:106A000016F00AFA18A3D3E9002380468946DDE987
:106A1000000116F001FA02460B464046494616F0C0
:106A200049F802460B463046394616F041F85246C0
:106A30005B4616F03DF802460B462046294616F006
:106A400037F805B0BDE8F08F02460B4616F030F877
:106A50000022002316F00AFBD9E600200021D6E62A
:106A60000000E0FE422EE63F763C7935EF39EA3D04
:106A700044523EDF12F1C23FDE03CB966446C73F6D
:106A8000599322942449D23F935555555555E53F86
:106A90009FC678D0099AC33FAF788E1DC571CC3F91
:106AA00004FA97999999D93F555555555555D53F5C
:106AB00000005043FFFFEF7F0000F03F0000E03F89
:106AC000000050C3204616F041F90FA3D3E900237C
:106AD0008046894616F0A0F90DA3D3E900230446A9
:106AE0000D464046494616F097F99AE702460B468E
:106AF0005046594615F0DCFFDDE9022316F08CF90B
:106B000014E700BFAFF300800000E0FE422EE63F36
:106B1000763C7935EF39EA3DB1F5801F2DE9F84330
:106B200004460D460B461ADA024621F0004632436F
:106B300059D000295FDB00223B4B16F06DF93B4A30
:106B40000B4693420D4604466FF035010CDD22469C
:106B50002B462046294615F0ADFFBDE8F883334AA1
:106B600093424FF00001F2DC1815A0F2FF30084408
:106B70004FEAD0794844C3F3130816F0E7F8C9F593
:106B80007F73033348EA035506460F4620462946DD
:106B9000FFF7CEFD1EA3D3E9002380468946304689
:106BA000394616F039F91CA3D3E9002304460D46F3
:106BB0004046494616F030F902460B462046294623
:106BC00015F078FF16A3D3E9002304460D4630469E
:106BD000394616F021F902460B462046294615F0A3
:106BE00069FFBDE8F883002200230020104916F059
:106BF0003DFABDE8F88302460B4615F059FF002226
:106C0000002316F033FABDE8F88300BFAFF300802D
:106C1000362BF111F3FE593D0EE526157BCBDB3FFC
:106C200000609F501344D33F00005043FFFFEF7FAD
:106C3000000050C3000000002DE9F04F23F0004792
:106C400057EA020493B037D0674C21F00046A642C1
:106C500083460D4629DC9A46964625D0A74224DC79
:106C6000614CA74279D0002D89468046CDE90023AA
:106C700077DB0024BEF1000F2CD15B4B9F4200F06C
:106C80008B805A4B9F4261D0BAF1804F00F0BA839B
:106C9000574B9A451ED1002D1CDB4046494613B088
:106CA000BDE8F04F17F050BE58B106F1404606F56A
:106CB000801656EA0B0306D14C49002013B0BDE8FC
:106CC000F08FB742CCDD4B4813B0BDE8F04F18F061
:106CD00081BD00244046494616F018FEBBF1000F66
:106CE00019D126B1414B25F040429A4213D1BAF155
:106CF000000FC0F2BC83002DE0DA06F1404606F535
:106D0000801656EA040300F08F84012CD6D101F1DD
:106D100000431946D2E7ED0F013D54EA05034ED07A
:106D2000354B9F426EDD03F104739F4240F3E883CD
:106D3000324B9E424EDDBAF1000F4EDD28A3D3E95F
:106D400000231046194616F067F8B7E7BAF1000FAE
:106D5000C0F23C8440464946B0E7BEF1000F82D005
:106D6000A3E7274B9F4228DCA3F154739F4280DDA9
:106D70003B15A3F2FF33142B40F33E84C3F13403DD
:106D80002EFA03F202FA03F39E457FF472AF02F08B
:106D90000102C2F102046DE706F1404303F58013DE
:106DA00053EA0B0388D0154B9E4240F33283BAF16D
:106DB000000F12DBDDE9000180E702245AE74246BA
:106DC0004B464046494615F073FE02460B4616F008
:106DD0004DF973E7BAF1000FB0DB002000216DE739
:106DE0009C7500883CE4377E0000F07F0000F03F97
:106DF0000000E03FB01402000000E041FFFFEF3F61
:106E0000FFFF3F43B6F5801F4FF0000205DAD44B79
:106E100016F002F86FF034020E463315D14FC6F368
:106E20001306A3F2FF33134446F07F5ABE421A46BC
:106E30000D934AF4401A40F32183CB4B9E4240F31A
:106E4000FD83134601330D93C84B0022CDE9062381
:106E500000270026CDE90867CDE90E67AAF5801A5C
:106E60000027024653465146CDE90A23DDE90623B1
:106E700015F01EFEDDE9062380468946DDE90A019C
:106E800015F018FE02460B460020B84916F0EEF841
:106E90000A460146CDE910121346494602464046CD
:106EA00015F0BAFF4FEA6A0343F000538C4683465D
:106EB00003F50023CDE904BCDA468B46D91900233B
:106EC000CDE902AB0293DDE902AB002006460F4696
:106ED00002460B465046594615F09EFF02460B46A9
:106EE0004046494615F0E4FDDDE906238046894623
:106EF0003046394615F0DCFD02460B46DDE90A0155
:106F000015F0D6FD52465B4615F086FF02460B464D
:106F10004046494615F0CCFDDDE9102315F07CFF15
:106F2000DDE90467CDE9060132463B463046394685
:106F300015F072FF78A3D3E9002306460F4615F03B
:106F40006BFF77A3D3E9002315F0B4FD32463B462F
:106F500015F062FF74A3D3E9002315F0ABFD3246B0
:106F60003B4615F059FF72A3D3E9002315F0A2FDAB
:106F700032463B4615F050FF6FA3D3E9002315F0CE
:106F800099FD32463B4615F047FF6DA3D3E9002338
:106F900015F090FD3246804689463B4630463946DC
:106FA00015F03AFF02460B464046494615F034FFBD
:106FB000524606460F465B46DDE9040115F07AFDB0
:106FC000DDE9062315F028FF32463B4615F072FD39
:106FD0005246804689465B465046594615F01CFF8E
:106FE0000022634BCDE90A0115F064FD42464B4691
:106FF00015F060FD02980F46064632463B46504665
:10700000594615F009FF002282468B46584B304600
:10701000394615F04DFDDDE90A2315F049FD02461C
:107020000B464046494615F043FDDDE9042315F0C3
:10703000F3FE3246804689463B46DDE9060115F0FF
:10704000EBFE02460B464046494615F033FD8046AE
:10705000894602460B4650465946CDE904AB15F029
:1070600029FDDDE902AB38A3D3E9002350460F46E2
:1070700015F0D2FEDDE90423CDE902013946504680
:1070800015F016FD02460B464046494615F010FD28
:107090002FA3D3E9002315F0BFFE2FA3D3E90023CC
:1070A000804689465046394615F0B6FE02460B46E4
:1070B0004046494615F0FEFCDDE90E2315F0FAFCCA
:1070C00080460D98894615F041FE424606460F4619
:1070D0004B46DDE9020115F0EDFCDDE9082315F072
:1070E000E9FC32463B4615F0E5FC32463B4650464D
:1070F0008B4615F0DDFCDDE9082315F0D9FCDDE950
:10710000022315F0D5FC02460B464046494615F0D1
:10711000CFFC80462EE000BFEF4E454A287ECA3F96
:1071200065DBC9934A86CD3F01411DA96074D13FFB
:107130004D268F515555D53FFFAB6FDBB66DDB3F0D
:10714000033333333333E33F000000E009C7EE3F3E
:10715000FD033ADC09C7EE3FF5015B14E02F3EBEAC
:10716000000040438E98030079B60B000000F03F0A
:10717000000008408946013C54EA0503DDE90001AE
:1071800014BFD94CD94C0023CDE9043403460C4636
:10719000CDE9023400230293DDE9024522462B4665
:1071A00015F086FC52465B4615F036FEDDE90023FD
:1071B00006460F464046494615F02EFE02460B464F
:1071C0003046394615F076FC2246804689462B46E5
:1071D00050465946CDE9008915F01EFE0B46024681
:1071E00006460F464046494615F064FCC04B99429E
:1071F00004460D468A4640F3168101F13F4303F5EC
:10720000E003034340F0EA81A3A3D3E90023DDE9CF
:10721000000115F04FFC3246804689463B46204629
:10722000294615F045FC02460B464046494616F0F5
:1072300083F8002840F0D281A8464FEA28534FF443
:107240008012A3F2FE3342FA03F35344C3F30A520B
:10725000A84DA2F2FF321541C3F3130423EA05013E
:107260000020C2F1140B44F48014BAF1000F02465E
:107270000B4644FA0BFB30463946B8BFCBF1000B46
:1072800015F016FC02460B4606460F46DDE90001E6
:1072900015F010FC4FEA0B5A0D46002480A3D3E9E9
:1072A00000232046294615F0B7FD32468046894620
:1072B0003B462046294615F0FBFB02460B46DDE91E
:1072C000000115F0F5FB78A3D3E9002315F0A4FD28
:1072D00077A3D3E9002306460F462046294615F03A
:1072E0009BFD02460B463046394615F0E3FB064649
:1072F0000F4602460B464046494615F0DBFB424628
:107300004B4604460D4615F0D3FB02460B4630466D
:10731000394615F0CDFB2246804689462B4620464D
:10732000294615F079FD64A3D3E9002306460F46EC
:1073300015F072FD62A3D3E9002315F0B9FB3246C4
:107340003B4615F069FD60A3D3E9002315F0B2FBBD
:1073500032463B4615F060FD5DA3D3E9002315F0EE
:10736000A7FB32463B4615F057FD5BA3D3E900234C
:1073700015F0A0FB32463B4615F04EFD02460B468B
:107380002046294615F094FB06460F4602460B465A
:107390002046294615F040FD0022CDE900014FF0BE
:1073A00080433046394615F083FB02460B46DDE943
:1073B000000115F05BFE424606460F464B4620464E
:1073C000294615F029FD42464B4615F073FB02464F
:1073D0000B463046394615F06BFB22462B4615F01E
:1073E00067FB02460B4600203F4915F061FB8A44CB
:1073F000BAF5801FC0F233815146DDE9042315F050
:107400000BFD5BE4424640464B46494615F004FD01
:1074100054E4BAF1000FBFF6E0ACDDE900341846E1
:1074200004F100414AE4344B21F00048984540F310
:10743000F280324B0B4403430CD132463B4615F0ED
:1074400037FB02460B46DDE9000115F061FF00281D
:107450003FF4F3AEDDE9040121A3D3E9002315F0E5
:10746000DBFC1FA3D3E9002315F0D6FC26E402467B
:107470000B4600201C4915F0F9FD3CE400220023D6
:10748000CDE90823CDE90E23174B00220027CDE9D3
:107490000623E6E4AFF30080FE822B654715973C98
:1074A00000000000432EE63FEF39FAFE422EE63F91
:1074B000396CA80C615C20BED0A4BE726937663EF0
:1074C000F16BD2C541BDBB3E2CDE25AF6A56113FE4
:1074D00093BDBE166CC1663F3E5555555555C53FCB
:1074E00059F3F8C21F6EA5010000F03F0000F0BF85
:1074F000FFFF8F40FFFF0F00FFCB904000346F3F36
:107500006B4B9E427FF766AC6A4B9E423FF713ACD3
:107510000022684B15F0CCFA57A3D3E900230646A6
:107520000F4615F079FC56A3D3E90023804689461F
:107530003046394615F070FC002282468B465E4B81
:107540003046394615F068FC02460B464EA1D1E99B
:10755000000115F0ADFA32463B4615F05DFC0246DF
:107560000B460020554915F0A3FA3246CDE9020139
:107570003B463046394615F04FFC02460B46DDE9E6
:10758000020115F049FC42A3D3E9002315F044FCA5
:1075900002460B465046594615F08AFA02460B46FB
:1075A00006460F464046494615F084FA42464B4689
:1075B000002082468B4615F07BFA02460B46304689
:1075C000394615F075FA80468946D4E542464B4661
:1075D0000020384915F04AFDFFF770BBDDE90401D2
:1075E0002DA3D3E9002315F017FC2BA3D3E9002327
:1075F00015F012FCFFF762BBBEF1000F7FF469AB20
:10760000C3F1140347FA03F202FA03F39F422AD0AC
:107610007446FFF736BB294B98453FF70EAEDDE9C0
:1076200002239246934638E602460B4615F040FA8E
:1076300002460B4615F01AFDFFF740BB18A3D3E92D
:107640000023CDE9082318A3D3E90023CDE90E23B5
:107650001B4B00224FF48027CDE9062301E45A4654
:1076600001F05AFDC9E602F00102C2F10204FFF77F
:1076700008BB00BFAFF30080000000604715F73F74
:1076800044DF5DF80BAE543E555555555555D53F25
:10769000FE822B654715F73F9C7500883CE4377EDA
:1076A0000000004003B8E23F06D0CF43EBFD4C3E64
:1076B000FEFFEF3F0000F03F0000D03F0000E03F42
:1076C0000000F83F000000002DE9F04F9A4E21F035
:1076D0000047B74291B040F38E809246974A974256
:1076E0000C4626DC00298AA3D3E9002340F3B481A9
:1076F00015F0DEF9924B9F4204460D4600F0908053
:1077000085A3D3E9002315F0D3F902460B46CAE955
:1077100000232046294615F0CBF97FA3D3E90023A7
:1077200015F0C6F90125CAE90201284611B0BDE8E5
:10773000F08F844A974240F39080834A974265DCF9
:107740003D15A5F21645A7EB055319461F460646FB
:1077500015F012FE15F0FAFA8046894602460B46ED
:1077600030463946CDE90A8915F0A2F90022774B57
:1077700015F052FB8946804615F0FEFD15F0E6FA3D
:1077800002460B4606460F4640464946CDE90C6781
:1077900015F08EF900226D4B15F03EFB0022002300
:1077A000CDE90E0115F0A0FD002800F07381002343
:1077B00030463946002215F097FD002814BF0123FA
:1077C0000223634A019202212A4600910AA85146E7
:1077D00000F086FB002C054614DADAF80420DAF80B
:1077E0000C3002F1004203F100434542CAF8042084
:1077F000CAF80C3006E0C2E9000100250024C2E905
:1078000002450025284611B0BDE8F08F02460B4620
:1078100015F04EF90025CAE90201CAE90001F1E7B5
:107820003FA3D3E9002315F043F93FA3D3E9002395
:107830000D46044615F03CF902460B46CAE9002302
:107840002946204615F034F937A3D3E9002315F073
:107850002FF90125CAE90201D4E716F057F834A33D
:10786000D3E900238046894615F0D6FA0022394B29
:1078700015F020F915F080FD054615F067FA24A3F0
:10788000D3E90023CDE9040115F0C6FA02460B4600
:107890004046494615F00CF91FA3D3E90023804662
:1078A0008946DDE9040115F0B7FA1F2DCDE9020183
:1078B00054DC294B6A1E53F822309F424ED00246B8
:1078C0000B464046494615F0F3F802460B46CAE916
:1078D000002383460E465A4633464046494615F035
:1078E000E7F8DDE9022315F0E3F8002C02460B4629
:1078F000CAE9022386DA5B4606F1004601F100413F
:107900008AE84800CAF80C10CAF808006D4279E706
:1079100000004054FB21F93F3163621A61B4D03D4D
:107920000000601A61B4D03D7370032E8A19A33B26
:1079300083C8C96D305FE43FFB21E93F7BD902403A
:10794000FB21F93FFB213941FFFFEF7F0000704130
:10795000202302000000E03FA0220200DDE9022314
:107960004046494615F0A4F83A15C1F30A53D31A14
:10797000102B83460E460992CAE90001ABDD58A3DD
:10798000D3E90023DDE9040115F046FA06460F4667
:1079900002460B464046494615F08AF8CDE90601F5
:1079A00002460B464046494615F082F832463B46B1
:1079B00015F07EF84CA3D3E9002306460F46DDE917
:1079C000040115F029FA32463B4615F071F8DDE95D
:1079D0000689CDE9020102460B464046494615F0AC
:1079E00067F80B46C1F30A570E460999CF1B0246AA
:1079F000312F8346CAE900236CDD3DA3D3E9002380
:107A0000DDE9040115F008FA06460F4602460B466A
:107A100040464946CDE9068915F04AF802460B462C
:107A200080468946DDE9060115F042F832463B46BC
:107A300015F03EF830A3D3E9002306460F46DDE9F2
:107A4000040115F0E9F932463B4615F031F80246DB
:107A50000B46CDE9022334E715F02CF82A4B9F4260
:107A600004460D4618D026A3D3E9002315F022F8CA
:107A700002460B46CAE900232946204615F018F8AD
:107A80001FA3D3E9002315F015F84FF0FF35CAE91D
:107A90000201B7E6032394E611A3D3E9002315F00E
:107AA00009F811A3D3E900230D46044615F002F8A6
:107AB00002460B46CAE900232946204614F0F8FF87
:107AC00009A3D3E9002314F0F5FF4FF0FF35CAE90D
:107AD000020197E6DDE90689FDE600BFAFF300800D
:107AE0000000601A61B4D03D7370032E8A19A33B65
:107AF0000000002E8A19A33BC14920259A837B39B7
:107B00003163621A61B4D03DFB21F93F00000000EF
:107B1000574A2DE9F84F21F0004890450E46074698
:107B20002BDC544B0029B4BF534D544D98454FF0B6
:107B3000000410DC524B98456EDC4BA3D3E90023C4
:107B400014F0B8FF00224F4B15F0F6FBD8B13846C1
:107B50003146BDE8F88F4C4B984579DD4B4B984545
:107B600043DD013398453DD0384631463EA3D3E945
:107B7000002315F051F9BDE8F88F02460B4614F0CA
:107B800099FFBDE8F88F3846314615F0BFFE01F089
:107B900083F806460F4632463B463046394614F0D7
:107BA00089FF324682468B463B463046394615F0C1
:107BB00033F9002280468946324B3046394614F06C
:107BC00079FF02460B464046494615F04FFA0246F9
:107BD0000B465046594614F06BFF22462B4615F0D3
:107BE0001BF9CEE72A4B9842BED83846314615F0ED
:107BF0008DFE0022214B15F00FF9FEF721FC064601
:107C00000F4602460B462046294615F005F9324636
:107C10003B4615F001F9B4E715F078FE01F03CF8A9
:107C20001C4B984506460F46B5DD0022154B14F057
:107C300041FF02460B463046394615F017FA3246E8
:107C40003B4614F037FF22462B4615F0E5F898E73F
:107C500015F05CFEFEF7F4FB02460B462046294673
:107C600015F0DAF88DE700BF3374AC3C1F7BAC7FB6
:107C7000FFFFEF7FFFFF35400000E0BF0000E03F67
:107C8000FFFF2F3E0000F03F412E8640CD3386405F
:107C90007DF8B98FFFFFEF3F2DE9F04F21F000464F
:107CA000B6F1795F85B00C4692469B4605466BDA85
:107CB00015F062FB002800F0E8802A46234628469B
:107CC000214615F0A9F874A3D3E90023804689461C
:107CD00015F0A2F872A3D3E9002314F0EBFE42469C
:107CE0004B4615F099F870A3D3E9002314F0E0FE99
:107CF00042464B4615F090F86DA3D3E9002314F0EB
:107D0000D9FE42464B4615F087F86BA3D3E9002312
:107D100014F0CEFE42464B4615F07EF868A3D3E938
:107D2000002314F0C7FE42464B4615F075F8CDE926
:107D300000010022644B4046494615F06DF8DDE92C
:107D4000002306460F464046494615F065F8524660
:107D5000804689465B462846214615F05DF8024676
:107D60000B464046494614F0A3FE02460B463046F9
:107D7000394614F09DFE02460B460020534914F08C
:107D800097FE05B0BDE8F08F02460B4615F044F8AB
:107D900041A3D3E900238046894615F03DF840A36E
:107DA000D3E9002314F086FE42464B4615F034F822
:107DB0003DA3D3E9002314F07BFE42464B4615F069
:107DC0002BF83BA3D3E9002314F074FE42464B4644
:107DD00015F022F838A3D3E9002314F069FE4246D7
:107DE0004B4615F019F836A3D3E9002314F062FED0
:107DF0004B46424615F010F8354B9E42CDE9000146
:107E000097DD344B9E424FF0000238DCA6F500139C
:107E100000202E4916461F4614F04AFECDE9020105
:107E20000022294B4046494614F0F6FF32463B46B5
:107E300014F03EFEDDE9002306460F464046494663
:107E400014F0EAFF5246804689465B4628462146A2
:107E500014F0E2FF02460B464046494614F028FE65
:107E600002460B463046394614F022FE02460B46C7
:107E7000DDE9020114F01CFE05B0BDE8F08F164BE1
:107E8000164FCDE902230026CAE71049002005B0AD
:107E9000BDE8F08FAFF30080D43888BEE9FAA8BD02
:107EA000C4B1B4BD9EEE213EAD529C804F7E923E49
:107EB0009015CB19A001FA3E7751C1166CC1563FFF
:107EC0004C5555555555A53F0000E03F0000F03F8B
:107ED0003233D33F0000E93F0000E73F0000D23FCC
:107EE0002DE9F04FADF5197D9C4CA29E9C4D54F8A8
:107EF000264005942646D41E85FB0475E417C4EB82
:107F0000A50424EAE4741D460893631CA3EB8303D1
:107F1000013D02EBC30304932B4609940295651BB4
:107F2000F418039006911AD42C4401340DF178080A
:107F300000260027DDF88C9208E059F8250014F09F
:107F400005FF0135A542E8E9020108D0002DF4DA69
:107F5000013530463946A542E8E90201F6D1059BD4
:107F6000002B2EDB089B4FEAC309039BA9F10808ED
:107F7000984420AB9944059B70AA02EBC30B0DF506
:107F8000DC7A029B002BC0F20F83039B4D46A3F1CA
:107F900008040026002775E90223F4E9020114F021
:107FA0003BFF02460B463046394614F083FD4445FC
:107FB00006460F46EFD1EAE90267DA4509F10809FA
:107FC000DFD10598089A009000F18043013B9B00A7
:107FD0000CAC191F234402F100520B93039B013A8E
:107FE00021440A9103EBC20B009A98A901EBC2034A
:107FF000002A53E9284513462BDD01EBC308A8F1FD
:10800000A8080DF12C090DF5DC7A0022554B20460D
:10801000294614F001FF15F0AFF914F097FE002285
:10802000514B06460F4614F0F7FE02460B4620461B
:10803000294614F03DFD15F09FF978E8022349F830
:10804000040F3946304614F035FDD04504460D4640
:10805000DBD1DDF81090204629464A4601F05CF855
:1080600000224FF07F5304460D4614F0D5FEFCF776
:10807000EFFE00223D4B14F0CFFE02460B46204699
:10808000294614F015FD0D46044615F075F9804695
:1080900014F05CFE0B4602462946204614F008FD0B
:1080A0004B46002B06460F4640F3F780009A0CA97A
:1080B000013AC9F1180351F8225045FA03F101FAC7
:1080C00003F30CA8EB1A40F82230C9F117058844D5
:1080D00043FA05F5002D63DD009B002B08F1010834
:1080E00040F381820C9C002C00F0188301200023B7
:1080F0000CAAC4F1807442F82340009A824219DD30
:108100000CAA0CAC52F820106FF07F42511A44F8C0
:1081100020100099023399420CDD1046009A0CA9F8
:1081200001EB830301EB82011A68821A43F8042BE6
:108130008B42F9D1049B002B1ADD049B012B4FF0DD
:10814000010440F05882009B5A1E0CAB0CA953F856
:108150002230C3F3160341F8223058E2C027020050
:10816000ABAAAA2A0000703E000070410000204027
:10817000022D15D132463B460020974914F098FC59
:1081800006460F46049A9449002000F0C5FF0246B7
:108190000B463046394614F08BFC022506460F4646
:1081A000002200233046394615F09EF8002800F0E2
:1081B0005282009A059B501E83420FDC02F18043DD
:1081C000013B0CAA0B9C02EB8303002253F8041919
:1081D000A34242EA0102F9D1002A6FD1059B0CAA01
:1081E000013B52F82330002B40F033820A9A0123DE
:1081F00052F8041901330029FAD0009AD31802F179
:10820000010A9A4507933DDC009B0899099A0B44A3
:1082100007990AEB0208994620AB08F1804803EB66
:10822000C9098B18A39A08F1FF3802EB880870AAD5
:1082300002EBCA0AA39A02EB8303009358F8040FD7
:1082400014F084FD029B002BE9E802011DDB039B77
:108250004D46A3F108040026002775E90223F4E93E
:10826000020114F0D9FD02460B463046394614F09F
:1082700021FC5C4506460F46EFD1009B9845EAE895
:108280000267DBD1079B0093AEE6009B0026002728
:108290009845EAE80267D1D1F4E706D1009B0CAA21
:1082A000013B52F82350ED1514E700224B4B15F01B
:1082B00039F8002840F08281054671E70CA9029543
:1082C00051F820300499CDF81C80183902460090EE
:1082D00004916BB900F18043013B0CA800EB8303D0
:1082E00053F80409013A18390028F9D00092049192
:1082F000049A3949002000F00FFF009B002B044630
:108300000D46C0F20382DA0070A901EB020B049261
:108310000CAA02EB8306DFF8C8900BF108070436BD
:108320004FF0000856F8040D14F010FD22462B46BD
:1083300014F072FD4B4667E9020142462046294689
:1083400014F06AFD0CAB9E4204460D46EAD10DF5D1
:10835000907ACDF80CA0DDF814A04FF00009BAF126
:10836000000FC0F23D81DFF87C805D4618A1D1E9A5
:10837000000100260027002403E04C4510DCF8E84B
:108380000201F5E8022314F047FD02460B46304691
:10839000394614F08FFB0134A24506460F46ECDA4D
:1083A000039B03EBC903ABF1080BC3E900676EAB9A
:1083B0005B4509F10109D2D1A29BDDF80CA0032B8A
:1083C00000F28B80DFE813F0D100900090001000E5
:1083D00000000040FB21F93F0000F03F0000E03FBB
:1083E0000000703EE80B0200009B002B40F3A481CC
:1083F000049B0AEB0308D8E90067D34658E9029AC0
:1084000032463B464846514614F054FB04460D465E
:1084100002460B464846514614F04AFB32463B465C
:1084200014F048FBC8E9000168E90245C345264647
:108430002F46E3D1009B012BDA4640F37D81049B5C
:108440005B44D3E90067984699460DF5947B59E95A
:1084500002343246184621463B46CDE9000114F06D
:1084600029FB04460D4602460B46DDE9000114F0E7
:108470001FFB32463B4614F01DFBC9E9000169E9C8
:108480000245CB4526462F46E1D1002308F10808D6
:108490001D464CAC1846294678E9022314F00AFB25
:1084A000444503460D46F5D1029A002A00F020818A
:1084B000DAF80440DAF80C20069FDAF80010DAF84F
:1084C00008003B6105F1004504F1004402F100425F
:1084D0007D617C60FA603960B860079B03F007003B
:1084E0000DF5197DBDE8F08F049C00260834544436
:1084F00033463046194674E9022314F0DBFA54453A
:1085000006460B46F5D1029A30461946002A00F07D
:10851000DA80069803F10044324644600660DAE9E6
:10852000000114F0C5FA0B460099002902460EDD41
:10853000012410461946FAE9022314F0BBFA0B464F
:1085400000990134A1420246F3DA029909B103F11C
:1085500000431946069B1046C3E90201079B03F03E
:1085600007000DF5197DBDE8F08F049C002208344A
:10857000544413461046194674E9022314F09AFA3B
:10858000A24502460B46F5D1029909B103F1004319
:108590001946069B1046C3E90001079B03F007003C
:1085A0000DF5197DBDE8F08F00260027EAE9026786
:1085B000DA4509F108097FF4E4AC02E5009B002BE1
:1085C00008F10108C8BF02253FF78CAD32463B4693
:1085D0000020634914F06CFA022506460F46DFE5D9
:1085E00000260027DCE6049B002B26DD0024049BEC
:1085F000012B3FF4A8AD022B09D1009B5A1E0CABF6
:108600000CA953F82230C3F3150341F82230022D90
:108610007FF4C6AD32463B460020514914F048FA7B
:1086200006460F46002C3FF4BBADABE50099013385
:10863000994278D1049B002BD9DC022D7FF4B0AD98
:1086400032463B460020464914F032FA06460F46B1
:10865000A6E50123D1E53946049F02957A423046CA
:10866000CDF81C8000F058FD00223E4B04460D461C
:1086700014F058FE002862D000223B4B20462946C9
:1086800014F0CAFB14F078FE064614F05FFB0022DB
:10869000344B14F0C1FB02460B462046294614F029
:1086A00007FA14F069FE00990B4601331A4600934D
:1086B0003B46183304930B460CA941F8230013469C
:1086C00041F8236014E6069B3246C3E900010B46DD
:1086D000DAE9000114F0ECF90B4600990029024692
:1086E0003FF726AF1946069B1046C3E9020135E75E
:1086F00018462946DAE90023DAE90245069FC7E968
:108700000401C7E90023C7E90245E6E6A29B032B63
:108710003FF6E3AEDFE803F0211C1C0E009B012BAB
:1087200088DD0CAA012352F8044F002C3FF47EAFE1
:10873000581CDDE40DF5907A00231D46B4E6294669
:10874000204614F019FE009A0CA941F82200CFE54A
:10875000002633460DF5907AD5E60022134613E73E
:108760000000F03F000070410000703E000000007B
:108770002DE9F04F21F00046B6F1795F85B00C4647
:1087800090469946054604DA14F0F6FD002800F0FC
:1087900085802A4623462846214614F03DFB06469E
:1087A0000F4602460B462846214614F035FB3EA3F1
:1087B000D3E9002382468B463046394614F02CFB21
:1087C0003BA3D3E9002314F073F932463B4614F07F
:1087D00023FB39A3D3E9002314F06CF932463B465E
:1087E00014F01AFB36A3D3E9002314F061F93246E2
:1087F0003B4614F011FB34A3D3E9002314F05AF9DB
:108800000E9BCDE900019BB30022334B4046494605
:1088100014F002FBDDE90023CDE902015046594680
:1088200014F0FAFA02460B46DDE9020114F040F9B1
:1088300032463B4614F0F0FA42464B4614F038F903
:1088400023A3D3E9002306460F465046594614F0A9
:10885000E3FA02460B463046394614F02BF902463D
:108860000B462846214614F023F905B0BDE8F08FE9
:1088700002460B463046394614F0CEFA14A3D3E92B
:10888000002314F015F952465B4614F0C5FA2A4647
:10889000234614F00FF905B0BDE8F08F28462146B5
:1088A00005B0BDE8F08F00BF7CD5CF5A3AD9E53D81
:1088B000EB9C2B8AE6E55A3E7DFEB157E31DC73E91
:1088C000D561C119A0012A3FA6F810111111813FED
:1088D000495555555555C53F0000E03F0000000083
:1088E0002DE9F04FDA4C21F00046A64287B08A46C7
:1088F00089461746984683461ADC14F03DFDA8BB0E
:108900005B461E43109B0133334300F0A981109B4B
:10891000012B00F0B9815A4653460020CD4914F08E
:10892000A5FB04460D462046294607B0BDE8F08F5A
:10893000C94B9E421ADD0029C0F29F815A46534618
:10894000A5A1D1E9000114F0B3F83A464346044624
:108950000D46A3A1D1E9000114F0AAF822462B4646
:1089600014F0A8F8002783468A46B8465A4653466C
:108970005846514614F050FA03460C46CDE90034EF
:1089800002460B4614F048FADDE9002304460D4682
:108990005846514614F040FA93A3D3E90023CDE999
:1089A00002012046294614F037FA91A3D3E90023A7
:1089B00014F080F822462B4614F02EFA8EA3D3E949
:1089C000002314F077F822462B4614F025FA8CA3E6
:1089D000D3E9002314F06EF822462B4614F01CFA5B
:1089E00089A3D3E9002314F065F822462B4614F03E
:1089F00013FA87A3D3E9002314F05CF8DDE9002320
:108A000014F00AFA84A3D3E90023CDE90401204637
:108A1000294614F001FA82A3D3E9002314F04AF89E
:108A200022462B4614F0F8F97FA3D3E9002314F073
:108A300041F822462B4614F0EFF97DA3D3E9002339
:108A400014F038F822462B4614F0E6F97AA3D3E95D
:108A5000002314F02FF822462B4614F0DDF978A3FA
:108A6000D3E9002314F026F802460B46DDE90401A1
:108A700014F020F8DDE9022314F0CEF93A4643461B
:108A800014F018F8DDE9002314F0C6F902460B468D
:108A90003846414614F00EF86BA3D3E90023044690
:108AA0000D46DDE9020114F0B7F922462B4614F019
:108AB00001F80B46024651465846CDE9002313F013
:108AC000F9FF654B9E4204460D463EDC109B012B90
:108AD00036D002460B4600205E4914F0C7FA002447
:108AE0000F4606465A4653462046294613F0E0FFF5
:108AF000A04602460B46DDE9000113F0D9FF4246CD
:108B00003B4614F089F9A94604460D4642463B46C9
:108B10004046494614F080F90022504B13F0CAFF3A
:108B200002460B462046294613F0C4FF32463B4618
:108B300014F072F942463B4613F0BCFF04460D4662
:108B40002046294607B0BDE8F08F109814F0FEF8D3
:108B5000224606460F462B462046294614F05CF96D
:108B60003246CDE902013B462046294613F0A2FFDA
:108B700002460B46DDE9020114F078FADDE9002334
:108B800013F096FF02460B465846514613F090FFED
:108B900002460B4613F08EFF02460B46304639461E
:108BA00013F086FF04464FEAA97000F00200C0F1FE
:108BB00001000D4614F0CAF802460B46204629462D
:108BC00014F02AF904460D462046294607B0BDE8B0
:108BD000F08F00BFAFF30080182D4454FB21E93F14
:108BE000075C143326A6813CD47ABF74702AFB3EFE
:108BF000E9A7F0320FB8123F68108D1AF726303F00
:108C00001583E0FEC8DB573F93846EE9E326823F7D
:108C1000FE41B31BBAA1AB3F735360DBCB75F3BE10
:108C2000A69237A0887E143F0165F2F2D844433FF4
:108C3000280356C9226D6D3F37D60684F464963FEB
:108C40007AFE10111111C13F635555555555D53F49
:108C5000FFFF2F3E0000F0BF2794E53F0000F03FEC
:108C60005846514614F052FE02460B460020084971
:108C700014F0FCF904460D4662E701F1004308F1E7
:108C8000004883469A4659E65C46554658E700BF79
:108C90000000F03F000000002DE9F04FD24A21F023
:108CA0000043934285B00C460E4605462DD9CF4A67
:108CB00093421AD8002E80F21681B5A3D3E900237F
:108CC0002846214613F0F6FE0022002314F016FB7E
:108CD000C0B9B1A3D3E900232846214614F09CF87B
:108CE00002460B460020C24908E1C24A934240F2C4
:108CF000D0800346C1F31302134340F0F6810029EC
:108D000080F2C4800020BC49C0E0BC4A934200F21B
:108D10002981BB4A934240F2DE8000230193002266
:108D2000B84B2846214614F077F806460F4602460F
:108D30000B462846214614F06FF899A3D3E9002387
:108D400082468B4614F068F897A3D3E9002313F00A
:108D5000B1FE52465B4614F05FF895A3D3E90023B9
:108D600013F0A6FE52465B4614F056F892A3D3E9E0
:108D7000002313F09FFE52465B4614F04DF890A37B
:108D8000D3E9002313F094FE52465B4614F044F8F6
:108D900000229D4B13F08EFE8046894602460B460C
:108DA0003046394614F038F802460B460020974901
:108DB00013F07EFE064602460B460F4640464946E5
:108DC00013F076FE3246804689463B4628462146C9
:108DD00014F022F802460B4600208D4913F068FE7D
:108DE00002460B464046494614F040F952465B465F
:108DF00014F012F8019E02460B46002E38D0DDE931
:108E0000026732463B4613F053FE2A46234614F0CF
:108E100003F832463B4613F04BFE5B46524613F0D6
:108E200047FE019B013306460F4600F00F81019B70
:108E3000012B00F0F180019B0133392B39D8019BC4
:108E4000132B40F31281019FC7F57F760336002272
:108E5000330513F02FFE02460B462846214613F039
:108E600027FE0022684B13F025FE01EB07510DE0B1
:108E70002846214613F0D0FF52465B4613F018FEF9
:108E800002460B462846214613F012FE05B0BDE807
:108E9000F08F4DA3D3E9002314F04EFA00283FF4DD
:108EA00009AF4BA3D3E900231046194613F0B4FFD2
:108EB000ECE72A46234613F0FBFD02460B46002052
:108EC000514913F0F5FD019A4F4B01EB025100227D
:108ED00013F0EEFDDAE73EA3D3E9002313F0EAFD39
:108EE00002460B46CAE72CA3D3E9002328462146B5
:108EF00013F092FF0B4643490246002013F0DAFDBF
:108F000014F03AFA019013F021FF33A3D3E90023C0
:108F100006460F4613F080FF02460B4628462146C0
:108F200013F0C6FD2EA3D3E90023804689463046C0
:108F3000394613F071FF06460F4632463B4640461F
:108F4000494613F0B5FD02460B4605460C46404621
:108F5000494613F0ADFD32463B4613F0A9FDCDE97D
:108F60000201DCE62B4A934200F2978000291AA303
:108F7000D3E90023C0F2AE8013F09AFD01238046AE
:108F80008946019316A7D7E90067D6E7AFF30080BB
:108F900059F3F8C21F6EA501FE822B654715F73FF6
:108FA0002DC3096EB7FD8ABE3952E686CACFD03EC0
:108FB000B7DBAA9E19CE143F8555FE19A0015A3F72
:108FC000F41011111111A13FEF39FAFE422E864023
:108FD0009C7500883CE4377E0000E0FE422EE63FB0
:108FE000763C7935EF39EA3D79684340412E864039
:108FF0000000E0BFFFFFEF7F0000F0BF422ED63F32
:10900000FFFF8F3C0000E03F0000F03F0000084001
:1090100000001840B1A2F03F2846214600223A4BFA
:1090200014F06CF9002846D0284621460022374B20
:1090300013F040FD02460B463046394613F038FD2A
:1090400000224FF0404313F0E7FE1FE732463B4655
:109050002846214613F02CFD00222C4B13F0DCFE99
:1090600000222A4B13F024FD10E7019E4FF4001E4E
:109070004EFA06FE2A462346CEF17F5713F018FD1E
:10908000002607F5401702460B463046394613F0D6
:109090000FFD019E01EB0651F8E617A3D3E900236B
:1090A00013F0BAFE002C02460B464FF00000FFF60C
:1090B0001AAE164922E732463B462846214613F0AF
:1090C000F7FC02460B4613F0F5FC0022104B13F0A0
:1090D000F1FCDBE613F0EEFC4FF0FF3380468946EF
:1090E000019307A7D7E9006727E702460B4613F06D
:1090F000E1FCCBE6AFF30080FE822B654715F73F1E
:10910000763C7935EF39EABD0000D0BF0000E03F82
:109110000000F03F00000000F8B5C1F30A56044615
:109120000D460B4617460EBB21F00043034386460F
:1091300025D00022344B13F06FFE344A9742044688
:109140000D460B462ADBC1F30A56363E3E4440F23A
:10915000FE72964228DC002E12DD23F0FF4323F43A
:10916000E00343EA065520462946F8BD40F2FF7267
:109170009642EBD102460B4613F09CFCF8BDF8BDBD
:1091800016F1350F1DDA4CF250339F4222462B4622
:1091900025DC19A1D1E9000116F04EFC16A3D3E994
:1091A000002313F039FEF8BD22462B4614A1D1E965
:1091B000000116F041FC12A3D3E9002313F02CFEAA
:1091C000F8BD23F0FF4323F4E003363643EA0655A7
:1091D0002046294600220E4B13F01EFEF8BD08A1C2
:1091E000D1E9000116F028FC05A3D3E9002313F010
:1091F00013FEF8BDAFF3008059F3F8C21F6EA5014E
:109200009C7500883CE4377E00005043B03CFFFF73
:109210000000903C10B5054C237833B9044B13B1D2
:109220000448AFF300800123237010BD30020020FA
:1092300000000000482902000C4B43B10C480D49C6
:1092400010B5AFF300800C48036823B910BD0A487D
:10925000036833B97047094B002BF7D0BDE81040C5
:109260001847064B002BF5D0184700BF0000000040
:1092700048290200340200204829020000000000B2
:1092800070B504460E4600F0D1F888B10368DB6A79
:1092900005469847082C0CD0A4F10903012B14D9DA
:1092A0003246214610230D20BDE8704004F09EB8E0
:1092B00070BD2B6828465B6A98470228F0DC2B6853
:1092C00028461B6A04219847EAE72B6828465B6A10
:1092D00098470528E4DC2B6828461B6A0821984734
:1092E000DEE700BF30B52DED028B83B0054600F000
:1092F0009DF8044640B10368DB6A9847032D50D8B7
:10930000DFE805F0373F47080190019803B0BDEC56
:10931000028B30BD20460CF09DF907EE900A2046E6
:10932000F8EEE78A0CF0A6F907EE900A2046B8EEB0
:10933000E78A0CF0AFF968EE087A07EE100AE8EE5B
:10934000A87AB8EEC77AE7EE077AF5EE407AF1EE42
:1093500010FAB1EEE78A03D517EE900A15F08CF9F2
:10936000FDEEC87ACDED017A019803B0BDEC028B19
:1093700030BD204603B0BDEC028BBDE830400CF0A0
:1093800069B9204603B0BDEC028BBDE830400CF05B
:1093900071B9204603B0BDEC028BBDE830400CF043
:1093A00079B900230193B0E738B5054600F03EF8DF
:1093B00058B10368DB6A0446984745B1012D04D1D2
:1093C0002046BDE83840FBF77BB9002038BD204679
:1093D000BDE83840FBF754B910B5044600F026F854
:1093E00028B1036821461B6ABDE81040184710BD2C
:1093F0000048704716FCFFFF704700BF10B5034BD5
:10940000036004460BF006FF204610BDC81B020097
:1094100010B5054B036004460BF0FCFE204616F029
:10942000A7FF204610BD00BFC81B02002DE9F04376
:10943000BA4C236885B01BB1986805B0BDE8F083CD
:109440004FF0FF31012001F0F5FC04F0C9FD0028C8
:1094500000F0E5800C2016F08DFF03210646512018
:1094600001F0E8FCDFF8E4E2AD4B054605F00F073C
:10947000C5F3031815F4807518BF7346A94839461B
:1094800042460BF0BDF82A1C18BF0122394643465C
:1094900030460EF043FE0023A348B3600BF0B0F853
:1094A0004FF0FF31032001F0C5FC04F099FD4FF0AF
:1094B000FF310546022001F0BDFC04F091FD002DB6
:1094C00000F09680002800F093800146284604F0C2
:1094D00099FB0746002800F09E804FF0FF314620A0
:1094E00001F0A8FC322880462AD027DD382866D033
:1094F00068283DD14FF0FF31012001F09BFC04F0C2
:109500006FFD81464C2016F035FF0523054601937B
:109510004A46CDF80080394633460DF0CFFD284647
:10952000B06003689B6A9847B0680368DB6A984735
:109530007E480BF065F82660B0687EE7302817D1CA
:109540004FF0FF31012001F075FC04F049FD814628
:109550004C2016F00FFF1FFA88F1054605234A46F6
:1095600000910193394633460DF08AFB2846D7E730
:109570003A680125002301950095D2F82080B36058
:109580000F220DF10F0332213846C047002851D178
:109590004FF03208414666480BF032F84FF0FF3189
:1095A000012001F047FC04F01BFD81464C2016F021
:1095B000E1FE052305464A46CDF80080D1E74FF08D
:1095C000FF31012001F036FC04F00AFD8146442001
:1095D00016F0D0FE052305464A46CDF800803946F0
:1095E000019333460DF0C2FC524B2B60284697E79F
:1095F00051480BF005F84FF0FF31192001F01AFC2B
:1096000004F0EEFC4FF0FF310546182001F012FC8B
:1096100004F0E6FC59E749480AF0F2FF8BE74FF007
:10962000FF31032001F006FC04F0DAFC00287FF48F
:1096300011AF02E73B6801950095D3F820800F2217
:109640000DF10F0330213846C04718B94FF03008EC
:109650004146A0E73B6801950095D3F820800D2294
:109660000DF10F0338213846C047B8B938213048CA
:109670000AF0C6FF4FF0FF31284601F0DBFB04F093
:10968000AFFC8046442016F075FE4FF0050E3823DF
:109690000546424639468DE80840A2E73A680195FA
:1096A0000095D2F820800DF10F037522682138460D
:1096B000C047D8B968211E480AF0A2FF4FF0FF3119
:1096C000284601F0B7FB04F08BFC80464C2016F0D6
:1096D00051FE4FF0050E682305468DE808404246CE
:1096E000394633460DF0EAFC284619E714480AF0DB
:1096F00087FFB06800287FF414AF4FF0FF310320DC
:1097000001F098FB04F06CFC18B10E480AF078FFE9
:1097100011E70D480AF074FF0DE700BF4C0200206E
:10972000740C02007C0C02009C0C0200340D020040
:10973000580D0200380C0200AC0C0200C00C0200F4
:10974000440D0200D80C0200140D02006C0C020043
:1097500008B501F097FCFBF73FFEBDE8084001F0BB
:10976000FDB900BF08B501F08DFCFBF7A5FEBDE813
:10977000084001F0F3B900BF08B501F083FC14F014
:109780003BF9BDE8084001F0E9B900BF08B501F0B8
:1097900079FC14F0ADFEBDE8084001F0DFB900BF70
:1097A00008B501F06FFCFBF727FEBDE8084001F0AB
:1097B000D5B900BF08B501F065FC14F04FFBBDE85A
:1097C000084001F0CBB900BF08B501F05BFCFBF726
:1097D00063F8BDE8084001F0C1B900BF08B501F069
:1097E00051FC14F08FFABDE8084001F0B7B900BF92
:1097F00070B5049E96420C4628DB15466BB1002AD4
:1098000000EB020107DD2046A21811F8013D00F827
:10981000013B9042F9D1002070BD042A0FD0022AEA
:1098200002D110F0010306D001462A46204607F077
:10983000A5F8002070BD02880A80184670BD10F09F
:109840000303F1D102680A60184670BD0846002182
:1098500008F084FA4FF0FF3070BD00BF0830704749
:1098600040B1002905DB4368994202DA0844007AD6
:1098700070470020704700BF30B1002904DB436807
:109880009942BCBF40180272704700BF40B1002926
:1098900005DB4368994202DA0844007A70470020E9
:1098A000704700BF830705D120B1030F0CBF012013
:1098B000002070470120704730B1002904DB436865
:1098C0009942BCBF40180272704700BF002B23DBD7
:1098D000002921DB70B54668B1421ADC5568761A5A
:1098E0001446EA1AB242A8BF3246002A11DB84426B
:1098F0000D4607D0083408300844E11807F03EF858
:10990000002070BD0834E118601916F06DFD0020CC
:1099100070BD4FF0FF3070BD4FF0FF30704700BF9B
:109920004068704710B4141E10DB426894420DDC8E
:1099300033EA230328BF1346121B08309A422044FF
:10994000A8BF1A465DF8044B08F008BA5DF8044B4E
:10995000704700BF43688B4210B400F108041846FA
:10996000A8BF084632EA220128BF19461B1A9942AD
:109970002044A8BF19465DF8044B00F0F3BE00BFB9
:10998000002BBCBF43689B1A002A70B50E4620DB33
:1099900044689918A1421CDC8A421ADCCBB136F02B
:1099A000004116D059428E4214DDB34212DD083018
:1099B000002E00EB020515DB9C1B2246A919284648
:1099C00016F012FD324628190021BDE8704008F05B
:1099D000C5B970BD002211464FF0FF33BDE870409D
:1099E000FFF7A0BF74429A192946281916F0FCFC0B
:1099F000224628460021BDE8704008F0AFB900BFFC
:109A000003460830596800F02DBE00BF70B504460B
:109A100000206168490000F0A7FD6668002E11DD96
:109A2000094D04F1080100EB4606034611F8012B2D
:109A3000141102F00F022C5DAA5C9C71DA710233E2
:109A40009E42F3D170BD00BF6C0D0200002BBCBF65
:109A500043689B1A002A2FDB70B445689C18AC42FF
:109A600029DCA24227DC33B331F0004423D00029A3
:109A7000B8BF01EB032191FBF3F603FB1616002E92
:109A800000F10800B8BFF61802441644B24213446D
:109A900011D0304604E0B24208460ED090420AD0BF
:109AA0000146147811F8015B02F8015B8B420470E7
:109AB000F1D13046F2E770BC70470E46EEE700BFCA
:109AC00000B583B04FF0FF3300930023FFF7FEFE95
:109AD00003B05DF804FB00BF10B50C1E0EDD41683D
