:1000000000000220F1510100195201001B520100B1
:100010001D5201001F52010021520100000000008A
:10002000000000000000000000000000235201005A
:100030002552010000000000275201002952010052
:100040002B520100C943010091500100555001009D
:10005000695001002B520100C53E01002B520100E6
:10006000354D01003D4D0100454D01002B52010071
:100070002B5201002B5201002B5201002B52010088
:100080002B5201002B5201002B5201002B52010078
:100090002B5201002B5201002B5201002B52010068
:1000A0002B5201002B5201004D4D0100554D010016
:1000B0002B5201002B520100000000000000000044
:1000C0002B5201002B5201002B5201007D500100E8
:1000D0002B5201002B5201002B5201002B52010028
:1000E000B950010000000000000000000000000006
:1000F000000000002B52010000000000A55001008C
:1001000000000000000000000000000000000000EF
:1001100000000000000000000000000000000000DF
:1001200000000000000000000000000000000000CF
:1001300000000000000000000000000000000000BF
:1001400000000000000000000000000000000000AF
:10015000000000000000000000000000000000009F
:10016000000000000000000000000000000000008F
:10017000000000000000000000000000000000007F
:10018000000000000000000000000000000000006F
:10019000000000000000000000000000000000005F
:1001A000000000000000000000000000000000004F
:1001B000000000000000000000000000000000003F
:1001C000000000000000000000000000000000002F
:1001D000000000000000000000000000000000001F
:1001E000000000000000000000000000000000000F
:1001F00000000000000000000000000000000000FF
:100200007CB0EE877CB0EE87FF00FF00FF00FF00B0
:10021000FF00FF00FF00FF00FF00FF00FF00FF00E6
:10022000FF00FF00FF00FF00FF00FF00FF00FF00D6
:10023000FF00FF00FF00FF002DE9F04F85B00391A4
:100240000778A7F10903042B044607F07F0200F1A9
:100250000100F5D9202AF3D02B2F04BF677804467C
:100260002D2F72D09FED427B8DED007B4FF000086B
:100270004FF000098FB34FF0000E4FF0000ADFF887
:1002800000B1754619E017F0A1FC8046894630465A
:1002900017F036FC42464B4617F0E6FA52468046C7
:1002A00089465B46DDE9000135B317F0B9FDCDE9BC
:1002B0000001AE4614F8017F7FB1A7F13006092E88
:1002C00052465B4640464946DDD9C5B92E2F16D168
:1002D00014F8017F0125002FEFD142464B46DDE99E
:1002E000000117F073FC80468946039B404649464F
:1002F0001C6005B0BDE8F08F4FF0010EDAE7BEF1EB
:10030000000F29D042464B46DDE9000117F05EFCA4
:1003100007F0DF07452F80468946E6D10399601C28
:100320000A2217F085FA16490246002017F0AEFFA0
:1003300002460B464046494617F048FC804689462F
:100340004046494605B0BDE8F08F9FED0B7B6778CE
:100350008DED007B013489E7DFF828904FF000082D
:100360004046494605B0BDE8F08F00BFAFF30080BE
:10037000000000000000F03F000000000000F0BF9F
:10038000000024400000F87F2DE9F84F16460023B6
:10039000002204460D4617F08BFE002840F09D8099
:1003A000002200232046294617F078FE28B130228B
:1003B000002332707370BDE8F88F2046294615F08F
:1003C00007FF17F0B3FE7BA3D3E90023814629463C
:1003D000204617F06DFE002800F08680B9F1000F6E
:1003E000C0F2BE804A4600206F4917F04FFF024618
:1003F0000B462046294617F013FD04460D4666A11C
:10040000D1E9000101274FF0000822462B4617F0E2
:10041000DDFB0022654B17F027FA17F073FF002F62
:10042000CC464FF0FF3AC1464FF0000840F38580BC
:10043000DFF888E15E4C0122AEF1700945F6F32544
:100440004FF02E0BA94208BFA0424FF0300309D352
:10045000001B61EB0501A94208BFA04203F10103A3
:10046000F6D2DBB2337050EA010306F1010409D180
:10047000BA4210DACE4502F101020CD026467EE8DF
:100480000245DFE7BA4204BF86F801B0B41CCE458E
:1004900002F10102F2D1B8F1000F0DD02246302155
:1004A00002F8011BC2F1010353442344002BF7DC83
:1004B0002AEAEA7301331C44BCF1010F4CD06523D6
:1004C000BCF1000F2370C5BF2B236370611CA11CFE
:1004D0006046BDE8F84F0FF0F3BA05F100431D4642
:1004E0002D23337001365BE72DA3D3E9002320468B
:1004F000294617F0FBFD00287FF470AFB9F10E0F0D
:1005000009F101073DDDA9F10E0842460020264908
:1005100017F0BCFE02460B462046294617F080FC29
:100520000022224B17F0A0F917F0ECFE002FA9F1E2
:100530000F0A4FF0010C3FF77BAF334630222E24D9
:1005400003F8022B74707FEA090618D01E4403F8E2
:10055000012BB342FBD16BE700232370BDE8F88F7A
:10056000C9F100020020104917F090FE02460B4628
:100570002046294617F02AFB04460D463FE71E4653
:1005800056E7C9F10E0200200749C84617F07EFE63
:100590004FF0010939E700BF0000901EC4BCD642ED
:1005A00050EFE2D6E41A4B44000024400000E03F44
:1005B00000407A108DEDB5A0F7C6B03E088E010060
:1005C00070B54FF0FF3006F0B5F904466FF07F408C
:1005D00006F0B0F90646204617F082FA00220C4BCE
:1005E00017F0F4FA044630460D4617F079FA06A3E0
:1005F000D3E9002317F014FC02460B462046294697
:1006000017F032F970BD00BF0000E0DFFFFF6F435D
:100610000000F03D0000000008B510F0FDFCDFED2B
:100620000C7A07EE100A67EE277A17EE900A17F099
:1006300079FA05A3D3E9002317F0F2FB17F076FD52
:1006400008BD00BFAFF30080EA2E4454FB211940DF
:100650000000B4430000000008B510F0F1FCDFED2D
:100660000C7A07EE100A67EE277A17EE900A17F059
:1006700059FA05A3D3E9002317F0D2FB17F056FD72
:1006800008BD00BFAFF30080EA2E4454FB2119409F
:100690000000B44300000000494A21F000439342A7
:1006A0002DE9704304460D464BDC464A93420E4604
:1006B0000EDC3FA3D3E9002317F0D6F80022424B0B
:1006C00017F014FD00284CD020462946BDE8708361
:1006D0003E4A93423BDCB3F1804F42DD15F072F9A4
:1006E0002246804689462B462046294617F06EFA58
:1006F0000022354B17F0B8F816F028F802460B46E2
:100700004046494617F0B0F802460B4600202E49F5
:1007100017F086FB424604460D464B464046494686
:1007200017F0A2F802460B462046294617F09CF81F
:1007300002F06AF8002EC9DC01F100431946BDE859
:10074000708302460B4617F08FF8BDE8708315F0F2
:1007500039F902F059F818A3D3E9002317F084F807
:10076000E8E722462B462046294617F02FFA804616
:1007700089462046294615F025F9002204460D46F3
:10078000114B4046494617F06FF815F0DFFF002285
:100790000D4B17F069F802460B464046494617F0E4
:1007A0003FFB22462B4617F05FF800F0C5FAC1E781
:1007B0009C7500883CE4377EEF39FAFE422EE63F16
:1007C000FFFFEF7FFFFF2F3E0000F03F0000B04132
:1007D0002DE9F84FC44B21F000469E4204460D46D9
:1007E0008A460EDDC14B9E4200F3AC8000F0A7802C
:1007F000BAF1000F40F3EA809FA1D1E90001BDE802
:10080000F88FBB4B9E4200F3B580A3F1DE739E428E
:1008100040F3A0804FF0FF3B22462B46204629465E
:1008200017F0D4F902460B468046894617F0CEF9F8
:1008300093A3D3E9002306460F4617F0C7F992A306
:10084000D3E9002317F010F832463B4617F0BEF903
:100850008FA3D3E9002317F007F832463B4617F081
:10086000B5F98DA3D3E9002316F0FEFF32463B46CF
:1008700017F0ACF98AA3D3E9002316F0F5FF32464E
:100880003B4617F0A3F988A3D3E9002316F0ECFF49
:1008900042464B4617F09AF985A3D3E900238046D8
:1008A00089463046394617F091F983A3D3E90023EE
:1008B00016F0D8FF32463B4617F088F980A3D3E9FB
:1008C000002316F0CFFF32463B4617F07FF97EA398
:1008D000D3E9002316F0C6FF32463B4617F076F9FF
:1008E0007BA3D3E9002316F0BDFF32463B4617F049
:1008F0006DF9BBF1FF3F02460B466CD040464946BE
:1009000016F0B2FF22462B4617F060F9794E7A4B6B
:100910004FEACB0B5E449B44DBE9002316F0A2FFB9
:1009200022462B4616F09EFF02460B46D6E90001F2
:1009300016F098FFBAF1000F43DBBDE8F88F0028EE
:100940003FF456AF22462B462046294616F08CFF30
:10095000BDE8F88F60A3D3E9002316F085FF0022DD
:10096000664B17F0C3FB00283FF454AF20462946DE
:10097000BDE8F88F15F026F8614B9E4204460D46FF
:1009800039DCA3F550239E425EDC02460B4616F08E
:100990006BFF0022594B16F065FF002206460F46FA
:1009A0004FF080432046294616F05EFF02460B4674
:1009B0003046394617F034FA4FF0000B04460D4626
:1009C0002AE701F100431946BDE8F88F44A1D1E9B7
:1009D0000001BDE8F88F4046494616F045FF224623
:1009E0002B4617F0F3F802460B462046294616F030
:1009F00039FFBDE8F88F434B9E421ADC0022424B80
:100A000016F030FF002206460F463F4B204629468F
:100A100017F0DCF80022394B16F026FF02460B4691
:100A20003046394617F0FCF94FF0020B04460D46EC
:100A3000F2E602460B460020344917F0F1F94FF078
:100A4000030B04460D46E7E600222C4B16F00AFF86
:100A5000002206460F46294B2046294616F004FF81
:100A600002460B463046394617F0DAF94FF0010BD3
:100A700004460D46D0E600BF182D4454FB21F93F33
:100A800011DA22E33AAD903FEB0D76244B7BA93F80
:100A9000513DD0A0660DB13F6E204CC5CD45B73F4E
:100AA000FF8300922449C23F0D5555555555D53FFA
:100AB0002F6C6A2C44B4A2BF9AFDDE522DDEAD3FEE
:100AC0006D9A74AFF2B0B33F711623FEC671BC3F8E
:100AD000C4EB98999999C93F9C7500883CE4377E8E
:100AE000182D4454FB21F9BFFFFF0F440000F07F95
:100AF000FFFFDB3F188E0100388E01000000F03F41
:100B0000FFFFF23FFF7F03400000F83F0000F0BF0F
:100B10002DE9F843C1F30A59A9F2FF35132D024616
:100B20000B460C4606468846074622DC002D50DB65
:100B3000DFF8F09049FA05F901EA090E5EEA0606C7
:100B40001CD036A3D3E9002316F08EFE002200232A
:100B500017F0CCFA48B1002C04DD4FF4801343FAAF
:100B600005F5A84428EA0904002721463846BDE8CF
:100B7000F883332D06DDB5F5806F3DD0104619465C
:100B8000BDE8F883A9F213494FF0FF3E2EFA09F9A8
:100B900010EA090FF2D021A3D3E9002316F064FE76
:100BA0000022002317F0A2FA0028DED0002C09DD75
:100BB000142D2BD00127C5F1340507FA05F5AE1920
:100BC00028BFB844444626EA090721463846BDE80E
:100BD000F88312A3D3E9002316F046FE0022002377
:100BE00017F084FA0028C0D0002C0BDB54EA06076B
:100BF00006D00027084CB8E716F036FEBDE8F883AB
:100C00003C46B2E700274FF00044AEE704F101088C
:100C1000D8E700BFAFF300800000F03F9C7500886C
:100C20003CE4377EFFFF0F002DE9F041C1F30A5786
:100C3000A7F2FF35132D02460B460C4688460646A2
:100C40001CDC002D3FDB3A4F2F41864601EA070CA2
:100C50005CEA0E0E17D034A3D3E9002316F004FE8D
:100C60000022002317F042FA20B1002C3FDB28EAD3
:100C70000704002621463046BDE8F081332D06DD0D
:100C8000B5F5806F2FD010461946BDE8F081A7F268
:100C900013474FF0FF3E2EFA07F73842F3D022A356
:100CA000D3E9002316F0E0FD0022002317F01EFA1E
:100CB0000028DFD0002C20DB444626EA0706214628
:100CC0003046BDE8F08118A3D3E9002316F0CCFD2F
:100CD0000022002317F00AFA0028CBD0002C17DBE3
:100CE00000263446C6E716F0BFFDBDE8F0814FF49C
:100CF000801343FA05F5A844B9E7142D10D0012359
:100D0000C5F1340503FA05F5AE1928BF9844D3E7B9
:100D100024F00042074B324318BF1C460026A9E7C7
:100D200004F10108C8E700BF9C7500883CE4377EE9
:100D3000FFFF0F000000F0BF2DE9F04FD84B9942A4
:100D400087B0804689460E4613DCD64B21F000441E
:100D50009C4218DD0022D44B17F0A0F9002879D06E
:100D6000002200230020D14917F05AF807B0BDE84F
:100D7000F08FCF4B99422FDD42464B4616F074FD63
:100D800007B0BDE8F08FCB4B9C4270DDCA4B1E44D0
:100D90009E427ED80022C94B4046494616F064FD6B
:100DA0004FEA215AAAF2FF3ABAF1000F04460D4663
:100DB0000E4640F3DE8142464B4616F053FD024696
:100DC0000B460020BD4916F04DFD22462B4617F07C
:100DD00027F8CDE902010BE0B94B9E42DADD9FED29
:100DE0009A7B8DED027B4FEA265A4446AAF2FF3ADF
:100DF000B44BC6F313069E4246F07F5500F3E780DE
:100E000045F44015204629460022AC4B16F02AFD39
:100E1000002204460D46AC4B16F0D8FE22462B4667
:100E200016F0D4FEA046CDE90401A946CDE90001A3
:100E3000002E3AD1002200232046294617F02EF931
:100E4000002800F0CE80BAF1000F40F0748100203D
:100E5000002195E742464B464046314616F002FDDA
:100E600002460B4616F0DCFF07B0BDE8F08F00220B
:100E7000964B16F0F9FC0022002317F037F90028F2
:100E800000F0CC80924B9C4200F3C880404649461B
:100E900076E700228C4B16F099FE42464B4616F040
:100EA00095FECDE900014FF0000A00224FF080438B
:100EB0004046494616F0D8FC02460B464046494695
:100EC00016F0AEFF02460B4606460F4616F07EFEB3
:100ED0005FA3D3E9002304460D4616F077FE5EA318
:100EE000D3E9002316F0C0FC22462B4616F06EFE16
:100EF0005BA3D3E9002316F0B7FC22462B4616F07D
:100F000065FE59A3D3E9002316F0AEFC22462B461A
:100F100016F05CFE56A3D3E9002316F0A5FC22468A
:100F20002B4616F053FE54A3D3E9002316F09CFC85
:100F300022462B4616F04AFE51A3D3E9002316F0B1
:100F400093FC22462B4616F041FE04460D46BAF1AC
:100F5000000F00F0BF80504616F0D2FD4AA3D3E93F
:100F6000002382468B4616F031FEDDE90023CDE9F1
:100F700004012046294616F077FC32463B4616F01F
:100F800025FE43A3D3E9002304460D4650465946A7
:100F900016F01CFEDDE9022316F066FC02460B4645
:100FA0002046294616F060FC02460B46DDE90001AA
:100FB00016F058FC42464B4616F054FC02460B46CF
:100FC000DDE9040116F04EFC07B0BDE8F08F45F4F2
:100FD0000015C6F5801620462946B6100AF1010A0A
:100FE00012E72DA3D3E900232046294616F0EEFD93
:100FF00002460B460020314916F034FCDDE904239B
:1010000016F0E4FD06460F46BAF1000F73D1024612
:101010000B462046294616F025FCB1E642464B46D3
:101020004046494616F0D2FD0022274B16F0CEFD71
:1010300002460B464046494616F014FC07B0BDE890
:10104000F08F00BFAFF30080000000000000000040
:1010500044523EDF12F1C23F9FC678D0099AC33F87
:10106000DE03CB966446C73FAF788E1DC571CC3F7B
:10107000599322942449D23F04FA97999999D93FD8
:10108000935555555555E53F0000E0FE422EE63F8D
:10109000763C7935EF39EA3D555555555555E53F7F
:1010A0007982DA3FFFFFEF3F0000F0BF000050C33E
:1010B000FFFFEF7FFFFF1F3E3C412D400000F03F50
:1010C000FFFF3F439DA006000000E03F00005043AB
:1010D000FFFF8F3CDDE9004522462B4616F0C4FB9E
:1010E00032463B4616F072FD02460B462046294624
:1010F00016F0B8FB9CE7504616F002FD23A3D3E997
:10110000002382468B4616F061FD22A3D3E900231B
:10111000804689465046594616F058FDDDE90223BF
:1011200016F0A2FB02460B463046394616F09AFBF3
:1011300022462B46DCE7504616F0E2FC15A3D3E925
:10114000002306460F4616F041FDDDE9022316F0A6
:101150008BFB0EA3D3E9002304460D4630463946E7
:1011600016F034FD02460B462046294616F07CFB5D
:1011700006E60022044B16F075FB02460B4640467D
:10118000494616F06FFB20E60000F03F0000E0FE4D
:10119000422EE63F763C7935EF39EA3D000000000B
:1011A00008B514F095FF04A3D3E9002316F038FE28
:1011B00008BD00BFAFF30080EF39FAFE422EE63FD4
:1011C0002DE9F043DFF8B4808BB004460D4601F002
:1011D000F3F898F90030013306460F462BD022462B
:1011E0002B462046294616F08BFF814618BB204629
:1011F000294614F0E7FB1FA3D3E9002316F076FF7E
:10120000C8B1194A98F90030CDF820900321CDE9F2
:101210000445CDE902458DE806008BB9134B4FF02C
:101220006042CDE90623684616F01EF970B1089BAE
:101230009BB9DDE90667304639460BB0BDE8F0835F
:101240000B490020022BCDE90601ECD116F098FAEB
:1012500022230360089B002BEBD016F091FA089B29
:101260000360E6E7AFF3008020A00100FFFFEF4737
:101270000000F07F7DF8B98FCE338640FB0100205F
:101280002DE9F043DFF8E4808BB004460D4601F011
:1012900043F998F90030013306460F4633D0204613
:1012A000294616F0DBF870B32CA3D3E900232046BF
:1012B000294616F01BFF814650BB2AA3D3E9002321
:1012C0002046294616F0F4FEE8B198F90030204A8D
:1012D000CDF82090002600270421022BCDE90445FB
:1012E000CDE90245CDE906678DE8060029D06846BC
:1012F00016F0BAF828B3089B1BB116F041FA089B08
:101300000360DDE90667304639460BB0BDE8F0837F
:101310000F4A98F90030019203210022CDE90445DB
:10132000CDE90245009108922BB90A4B4FF060427B
:10133000CDE90623DBE708490020022BCDE90601B1
:10134000D5D116F01DFA22230360D4E7AFF3008055
:1013500028A00100FFFFEF470000F07FEF39FAFE01
:10136000422E864051302DD5104987C0FB01002008
:101370002DE9F04FDFF80C938DB006460F4614466A
:101380001D4601F0C5FC99F90080B8F1FF3FCDE999
:10139000000136D022462B462046294616F0B0FEE4
:1013A000834670BB32463B463046394616F0A8FEAF
:1013B0008246002840F0A2803046394600220023B1
:1013C00016F06CFE10B3002200232046294616F0CA
:1013D00065FE834600286AD09FEDA17B0122A44BC5
:1013E000CDF828A00292CDE90467CDE906458DED40
:1013F000087B0393B8F1000F45D09FED9B7B8DEDEB
:10140000007BDDE900010DB0BDE8F08FDDE90001F2
:1014100016F024F88046002800F08D804FF0000A76
:101420004FF0000BDDE9000152465B4616F036FE38
:101430000028E6D03046394616F010F80028E0D0F3
:101440002046294616F00AF80028DAD099F900302B
:10145000874A039204210022022BCDE90467CDE9DB
:101460000645CDE908AB02910A9203D002A815F017
:10147000FBFF68B916F084F92223036008E09FEDB2
:10148000787B8DED087B02A815F0EEFF002830D0A8
:101490000A9B1BB116F074F90A9B03609DED087B53
:1014A0008DED007BDDE900010DB0BDE8F08F204639
:1014B000294615F0D3FF0028A3D0002200232046A0
:1014C000294616F0F5FD00289BD099F90030684AAE
:1014D000CDF828B00121CDE90467CDE90645029198
:1014E0000392002BCBD063490020022BCDE90801E9
:1014F000C9D116F045F921230360C9E70022002372
:101500002046294616F0CAFD00283FF47AAF5A4B10
:101510005749CDF828B000220120B8F1020FCDE9DB
:1015200004670290CDE90645CDE908230391AAD1CD
:10153000CDE9002365E73046394615F08FFF0028D6
:101540003FF46CAF2046294615F088FF00283FF491
:1015500065AFDDE900231046194616F0D1FD0028DD
:101560005FD1032399F900800293414B0A90CDE9A2
:101570000467CDE906450393B8F1000F2BD1DFF8DE
:1015800008B14FF0604A0022002330463946CDE9C9
:1015900008AB16F08DFD00283FF468AF0022374BF2
:1015A0002046294616F012FB04460D4615F064FF4E
:1015B00002460B462046294616F070FD70BB304BA4
:1015C00099F900804FF06042CDE90823B8F1020F8D
:1015D0007FF44CAF4EE7DFF8B4B04FF0000A0022C2
:1015E000002330463946CDE908AB16F061FD0028EE
:1015F000ECD00022214B2046294616F0E7FA04469B
:101600000D4615F039FF02460B462046294616F0D6
:1016100045FD18B9174B0022CDE9082399F9008040
:10162000D4E799F90090124BCDF828800122CDE93A
:101630000467CDE9064502920393B9F1000F3FF428
:101640001EAF002200231046194616F0E9FBB9F13F
:10165000020FCDE908013FF44CAF14E7AFF300806F
:101660000000000000000000000000000000F03F4B
:1016700040A001000000F0FF0000F03F0000E03F4C
:10168000FFFFEFC7FB010020FFFFEF470000F07FE7
:101690002DE9F84FC44E21F00043B34204460D46F5
:1016A0000DDD03F1404303F58013034340F0B9809F
:1016B000002940F3408100200021BDE8F88FBB4E97
:1016C000B34240F3A6800029C0F2788102460B465F
:1016D0000020B74916F0C6F80022B64B16F076FA8D
:1016E00004460D4615F032F895A3D3E90023894648
:1016F00080462946204616F069FA93A3D3E90023D1
:1017000016F0B2F822462B4616F060FA90A3D3E901
:10171000002316F0A7F822462B4616F057FA8EA3A0
:10172000D3E9002316F0A0F822462B4616F04EFA15
:101730008BA3D3E9002316F095F822462B4616F02A
:1017400045FA89A3D3E9002316F08EF822462B46EA
:1017500016F03CFA86A3D3E9002382468B46204646
:10176000294616F033FA84A3D3E9002316F07AF859
:1017700022462B4616F02AFA81A3D3E9002316F05D
:1017800073F822462B4616F021FA7FA3D3E90023F3
:1017900016F068F822462B4616F018FA0022844B01
:1017A00016F062F802460B465046594616F038FBD2
:1017B00042464B4616F00AFA002682468B463246CF
:1017C0004B463046494616F001FA02460B46204683
:1017D000294616F047F8324604460D464B46404629
:1017E000494616F041F802460B462046294616F0B7
:1017F00017FB02460B465046594616F035F832465E
:101800004B4616F031F802460B4616F02DF8BDE8AF
:10181000F88F694A93420EDC5DA1D1E90001BDE871
:10182000F88F02460B4616F01DF802460B4616F0DE
:10183000F7FABDE8F88F02460B4616F0C7F940A349
:10184000D3E9002306460F4616F0C0F93EA3D3E9BC
:10185000002316F009F832463B4616F0B7F93CA3D0
:10186000D3E9002315F0FEFF32463B4616F0AEF9F1
:1018700039A3D3E9002315F0F7FF32463B4616F0B3
:10188000A5F937A3D3E9002315F0ECFF32463B4618
:1018900016F09CF934A3D3E9002315F0E5FF324696
:1018A0003B4616F093F932A3D3E9002380468946DC
:1018B0003046394616F08AF92FA3D3E9002315F0F4
:1018C000D1FF32463B4616F081F92DA3D3E9002320
:1018D00015F0CAFF32463B4616F078F92AA3D3E941
:1018E000002315F0BFFF32463B4616F06FF9002289
:1018F0002F4B15F0B9FF02460B464046494616F0FD
:101900008FFA22462B4616F061F902460B4622A1B9
:10191000D1E9000115F0A6FF02460B4620462946F4
:1019200015F0A0FF02460B4619A1D1E9000115F000
:1019300099FFBDE8F88F1AA1D1E90001BDE8F88F41
:1019400009F7FD0DE13D023F88B20175E0EF493F27
:101950003B8F68B52882A43F5544880E55C1C93FC6
:101960007D6FEB0312D6D43F555555555555C53FA0
:1019700082922EB1C5B8B33F59018D1B6C06E63F6C
:10198000C88A599CE52A00404B2D8A1C273A0340FF
:10199000182D4454FB21F93F075C143326A6913CD3
:1019A000182D4454FB210940FFFFEF3FFFFFDF3FAD
:1019B0000000F03F0000E03F0000603C00225C4B74
:1019C00015F052FF00225B4B16F000F940A3D3E95B
:1019D000002304460D4616F0F9F83FA3D3E900238F
:1019E00015F042FF22462B4616F0F0F83CA3D3E94F
:1019F000002315F037FF22462B4616F0E7F83AA3EE
:101A0000D3E9002315F030FF22462B4616F0DEF80E
:101A100037A3D3E9002315F025FF22462B4616F005
:101A2000D5F835A3D3E9002315F01EFF22462B4637
:101A300016F0CCF8804689462046294614F086FEEA
:101A40002FA3D3E9002306460F462046294616F069
:101A5000BDF82DA3D3E9002315F004FF22462B4641
:101A600016F0B4F82AA3D3E9002315F0FDFE2246B0
:101A70002B4616F0ABF828A3D3E9002315F0F2FEAD
:101A800022462B4616F0A2F80022294B15F0ECFE58
:101A900002460B464046494616F0C2F932463B46DE
:101AA00016F094F81EA3D3E9002315F0DBFE3246AE
:101AB0003B4615F0D9FE02460B4615F0D5FE024610
:101AC0000B4619A1D1E9000115F0CCFEBDE8F88F55
:101AD00009F7FD0DE13D023F88B20175E0EF493F96
:101AE0003B8F68B52882A43F5544880E55C1C93F35
:101AF0007D6FEB0312D6D43F555555555555C53F0F
:101B000082922EB1C5B8B33F59018D1B6C06E63FDA
:101B1000C88A599CE52A00404B2D8A1C273A03406D
:101B2000075C143326A6913C182D4454FB21094030
:101B30000000F03F0000E03F434A91422DE9F843A6
:101B400004460D4639DD414A914209DD02F17952E0
:101B5000914240DD02460B4615F086FEBDE8F88353
:101B600001F1404202F58012024330D0B1F1804FC2
:101B70003ADC0022364B15F075FE02460B46044651
:101B80000D4615F071FE224606460F462B462046AE
:101B9000294616F01BF802460B463046394615F02A
:101BA00063FE14F0D3FD0B4602462946204615F08D
:101BB0005BFEBDE8F843FFF7BFB802460B4615F0E1
:101BC00051FE02460B4616F02BF9BDE8F8830020C3
:101BD0000021BDE8F88300F017FE19A3D3E9002324
:101BE00015F042FEBDE8F88302460B4615F0EEFF05
:101BF0000022174B15F036FE14F0A8FD2246804651
:101C000089462B462046294615F02EFE42460646BA
:101C10000F464B462046294615F026FE02460B4647
:101C200000200B4916F0FCF80B46024639463046B8
:101C300015F018FEBDE8F84300F0E6BDAFF30080F4
:101C4000EF39FAFE422EE63FFFFFEF3FFFFFAF41C5
:101C50000000F03F000000002DE9F047BE4B21F0EE
:101C60000048984584B004460D4612DD08F140480E
:101C700008F58018034658EA030321D002460B46B4
:101C800015F0F0FD02460B4616F0CAF804B0BDE8A8
:101C9000F087B24B98458A4629DCB8F1795F80F22B
:101CA000658191A3D3E9002315F0DEFD0022AC4B42
:101CB00016F01CFAD8B12046294604B0BDE8F087DA
:101CC0008BA3D3E9002315F081FF8BA3D3E9002375
:101CD00006460F462046294615F078FF02460B4679
:101CE0003046394615F0C0FD04B0BDE8F087204607
:101CF000294613F067FE02460B460020984915F06E
:101D0000B1FD0022974B15F061FF7DA3D3E90023BD
:101D100004460D4615F05AFF7BA3D3E9002315F0C6
:101D2000A3FD22462B4615F051FF79A3D3E90023EA
:101D300015F098FD22462B4615F048FF76A3D3E90F
:101D4000002315F091FD22462B4615F03FFF74A3AA
:101D5000D3E9002315F086FD22462B4615F036FF09
:101D600071A3D3E9002315F07FFD22462B4615F021
:101D70002DFF6FA3D3E90023CDE9000120462946BA
:101D800015F024FF6CA3D3E9002315F06BFD224668
:101D90002B4615F01BFF6AA3D3E9002315F064FD61
:101DA00022462B4615F012FF67A3D3E9002315F056
:101DB00059FD22462B4615F009FF694B002215F00C
:101DC00053FDCDE902012046294614F0BFFC664BC5
:101DD000984506460F4666DCDDE90223DDE9000191
:101DE00016F01EF83246CDE900013B463046394632
:101DF00015F03AFD02460B46DDE9000115F0E6FE5E
:101E00004FF00008CDE9000142463B4640463946C6
:101E100015F0DCFE02460B462046294615F022FD51
:101E2000424604460D463B463046394615F01CFDF9
:101E300002460B462046294615F0F2FF02460B46A5
:101E400015F012FD02460B462BA1D1E9000115F059
:101E500009FD02460B46DDE9000115F003FD42468F
:101E600004460D463B464046394615F0FDFC024609
:101E70000B4637A1D1E9000115F0F4FC02460B46F0
:101E80002046294615F0EEFC02460B4630A1D1E96A
:101E9000000115F0E7FCBAF1000F3FF7F7AE01F1D2
:101EA00000431946F2E6DDE90223DDE9000115F001
:101EB000B7FF32463B4615F089FE32463B4615F0E9
:101EC000D3FC02460B4615F0CFFC0BA3D3E900234D
:101ED00015F0C8FC02460B4605A1D1E9000115F03A
:101EE000C1FCD8E7AFF300809C7500883CE4377EE6
:101EF000182D4454FB21F93F075C143326A6913C6E
:101F000009F7FD0DE13D023F88B20175E0EF493F61
:101F10003B8F68B52882A43F5544880E55C1C93F00
:101F20007D6FEB0312D6D43F555555555555C53FDA
:101F300082922EB1C5B8B33F59018D1B6C06E63FA6
:101F4000C88A599CE52A00404B2D8A1C273A034039
:101F5000182D4454FB21E93FFFFFEF3FFFFFDF3F18
:101F60000000F03F0000E03F3233EF3F02460B46F7
:101F700015F02CFE37A3D3E9002306460F4615F0D3
:101F800025FE36A3D3E9002315F06EFC32463B460E
:101F900015F01CFE33A3D3E9002315F063FC324691
:101FA0003B4615F013FE31A3D3E9002315F05CFC8A
:101FB00032463B4615F00AFE2EA3D3E9002315F066
:101FC00051FC32463B4615F001FE2CA3D3E9002319
:101FD00015F04AFC32463B4615F0F8FD29A3D3E93B
:101FE0000023804689463046394615F0EFFD27A389
:101FF000D3E9002315F036FC32463B4615F0E6FDEA
:1020000024A3D3E9002315F02FFC32463B4615F0FC
:10201000DDFD22A3D3E9002315F024FC32463B4624
:1020200015F0D4FD00220A4B15F01EFC02460B46AB
:102030004046494615F0F4FE22462B4615F0C6FDF3
:1020400022462B4615F010FC04B0BDE8F08700BF17
:102050000000F03F09F7FD0DE13D023F88B2017538
:10206000E0EF493F3B8F68B52882A43F5544880E76
:1020700055C1C93F7D6FEB0312D6D43F5555555519
:102080005555C53F82922EB1C5B8B33F59018D1B3E
:102090006C06E63FC88A599CE52A00404B2D8A1CF5
:1020A000273A0340000000002DE9F84F1D46534237
:1020B000134325F0004ADFF8E0E14AEAD3737345A1
:1020C000144606460F4647D8C0F1000848EA000803
:1020D00021F0004343EAD878F0458B463CD805F11F
:1020E000404808F5801858EA020850D04FEAA57811
:1020F00008F0020848EAD17850EA030134D052EAE5
:102100000A023CD0F24557D0734538D0A3EB0A03FE
:102110001B153C2B42DC002D70DB22462B46304643
:10212000394615F07DFE13F04DFCFEF751FBB8F17A
:10213000010F5FD0B8F1020F4ED0B8F1000F62D09E
:1021400043A3D3E9002315F08DFB43A3D3E9002378
:1021500015F088FBBDE8F88F32463B4620462946FD
:1021600015F082FBBDE8F88FB8F1020F1AD0B8F174
:10217000030F10D13AA1D1E90001BDE8F88FBBF1FE
:10218000000F14DB38A1D1E90001BDE8F88FBDE8EC
:10219000F84FFEF71DBB3946BDE8F88F32A1D1E9F3
:1021A0000001C4E72CA1D1E90001BDE8F88F30A1FE
:1021B000D1E90001BDE8F88F534526D0B8F1020FF0
:1021C000F0D0B8F1030FD5D0B8F1010F4FF00000F7
:1021D00029D00021BDE8F88F1DA3D3E9002315F015
:1021E00041FB02460B461CA1D1E9000115F03AFB68
:1021F000BDE8F88F01F10041BDE8F88F3C338CDA7F
:102200000020002193E7BDE8F88FB8F1020F18D045
:10221000B8F1030F10D0B8F1010F08D016A1D1E921
:102220000001BDE8F88F4FF00041BDE8F88F14A120
:10223000D1E90001BDE8F88F13A1D1E90001BDE8A3
:10224000F88F13A1D1E90001BDE8F88FAFF300804A
:10225000075C143326A6A13C182D4454FB210940E9
:10226000182D4454FB2109C0182D4454FB21F93F7B
:10227000182D4454FB21F9BF182D4454FB21E93F8C
:10228000182D4454FB21E9BFD221337F7CD902C0F1
:10229000D221337F7CD902400000F07F0000000093
:1022A00043422DE9F047034321F000463E4A46EA07
:1022B000D373934204460D4613D896423DD03B4B10
:1022C0009E428A4617DC36A3D3E9002315F0CCFAE8
:1022D0000022002315F00AFFA8B320462946BDE8D6
:1022E000F08702460B4615F0BDFA02460B4615F084
:1022F00097FDBDE8F0872E4B9E42354624DD3346E0
:102300000246314615F0B0FA224606460F462B46E5
:102310000020254915F0A6FA02460B4630463946FC
:1023200015F07EFDFEF708FD0022224B15F04EFC55
:10233000BAF1000F2FDBBDE8F0870022002315F073
:102340006FFDBDE8F087354622462B4620462946DC
:1023500015F08AFA22462B4606460F4615F036FC43
:102360002246804689462B4600200F4915F07AFA0E
:1023700002460B464046494615F052FD32463B4662
:1023800015F072FAFEF7D8FC00220A4B15F01EFC7D
:10239000BAF1000FCFDA01F100431946BDE8F0872A
:1023A0009C7500883CE4377E0000F03FFFFF2F3E25
:1023B000FFFFDF3F0000E03F2DE9F8434E4B21F0E7
:1023C00000449C4206460F461BDC4C4B9C4222DDDF
:1023D0004B4B9C4263DD4B4B9C427BDD4A4B9C420A
:1023E00046DD01339C4240D041A3D3E9002310468F
:1023F000194615F0EBFB06460F4630463946BDE858
:10240000F88302460B4615F0E1FB06460F463046C0
:102410003946BDE8F88313F0D5FA02F0B1FC00228A
:102420003A4B8046894615F01FFAB4F1725F0646B2
:102430000F46ECDB42464B464046494615F0C6FB8C
:1024400032463B4604460D463046394615F00CFAF6
:1024500002460B462046294615F0E2FC00222B4B93
:1024600015F002FA06460F46D1E7294B9842BBD831
:102470003046394613F0A6FA0022264B15F0A6FB8B
:1024800000F04AF8002204460D46224B15F09EFB50
:1024900022462B4615F09AFB06460F46B7E713F087
:1024A00091FA00F039F800221A4B06460F4615F053
:1024B0008DFB32463B4604460D460020154915F07B
:1024C000AFFC02460B462046294615F0CDF90646DC
:1024D0000F469CE713F076FA00F01EF800220D4B31
:1024E00015F074FB06460F4691E700BFAFF300807E
:1024F0009C7500883CE4377EFFFFEF7F422ED63F7D
:10250000FFFF3540412E8640CD3386400000F03F2E
:102510007DF8B98F0000E03F2DE9F04FB04E21F07B
:102520000042B24283B004460D464FEAD1770DD93E
:10253000AC4EB24225D9C1F31303034340F0EC8003
:102540000FB10020002103B0BDE8F08FA64B9A42E6
:1025500000F2CB80A54B9A4200F2DC808AA3D3E93B
:10256000002315F081F90022A14B15F0BFFD0028D2
:1025700000F006812046294600229D4B15F074F993
:10258000E1E783A3D3E9002315F0B0FD002840F074
:10259000C88081A3D3E900232046294615F088FD91
:1025A0000028CED1934E7EA3D3E9002306EBC706C5
:1025B0002046294615F00AFBD6E9002315F054F908
:1025C00015F0B4FD064615F09BFA77A3D3E9002376
:1025D0008046894615F0FAFA02460B4620462946FF
:1025E00015F040F972A3D3E90023CDE9000140467C
:1025F000494615F0EBFA82468B4652465B46DDE9CA
:10260000000115F02FF904460D4622462B462046C0
:10261000294615F0DBFA68A3D3E9002380468946F2
:1026200015F0D4FA66A3D3E9002315F01BF942464E
:102630004B4615F0CBFA64A3D3E9002315F014F947
:1026400042464B4615F0C2FA61A3D3E9002315F0C8
:1026500009F942464B4615F0B9FA5FA3D3E90023C6
:1026600015F002F942464B4615F0B0FA02460B4609
:102670002046294615F0F6F880468946002E58D0A7
:102680002046294642464B4615F0A0FA42460446EB
:102690000D464B4600204FF0804115F0E3F802460E
:1026A0000B462046294615F0BBFB02460B4650461A
:1026B000594615F0D7F8DDE9002315F0D3F80B469D
:1026C00002464B49002015F0CDF86FF47F739E420F
:1026D00051DA06F57A7601EB065100224FF0B87315
:1026E00015F074FA03B0BDE8F08F434B9A423FF601
:1026F00059AF424BFC002344D3E9002315F0B2F854
:102700003F4BC7F101062344CDE90001D3E900ABFB
:10271000F61B72E7002678E702460B4615F0A4F890
:1027200011E719A3D3E900231046194615F04EFA14
:1027300009E702460B462046294615F047FA0022D3
:1027400006460F464FF080434046494615F08AF84A
:1027500002460B463046394615F062FB22462B46B0
:1027600015F080F802460B460020214915F07AF852
:1027700003B0BDE8F08F01EB065103B0BDE8F08F68
:10278000064642E7AFF300809C7500883CE4377E44
:10279000EF39FAFE422E864051302DD5104987C0C0
:1027A000FE822B654715F73F0000E0FE422EE63F14
:1027B000763C7935EF39EA3DD0A4BE726937663E82
:1027C000F16BD2C541BDBB3E2CDE25AF6A56113F31
:1027D00093BDBE166CC1663F3E5555555555C53F18
:1027E000412E8640FFFFEF7F422ED63FFFFF2F3E58
:1027F0000000F03F588E0100B1A2F03F688E01004A
:10280000788E0100000000002DE9F04FB1F5801F27
:1028100085B006460F460B465ADA024621F00044C0
:10282000224300F0F8800029C0F27A810022D64BC2
:1028300015F0CCF9D54A0B46934206460F466FF089
:10284000350C4ADCC3F3130505F5152E0EF6647E30
:102850000EF4801E8EF07F5282F440121C1542EA64
:102860000507A4F2FF3464440022C94B30463946C0
:1028700004EB1E5414F0F6FFAB1CC3F31303022B3E
:1028800082468B464FF0000230DC002315F006FC38
:10289000002800F0C980002C00F04B81204615F084
:1028A0002FF9A5A3D3E9002306460F4615F08EF9AC
:1028B000A3A3D3E9002304460D463046394615F05C
:1028C00085F902460B462046294614F0CDFF0AE062
:1028D000AE4A93424FF0000CB4DD32463B463046E0
:1028E000394614F0C1FF05B0BDE8F08F4FF08043CA
:1028F00014F0BAFF02460B465046594615F090FABE
:10290000064620460F4615F0FBF83246CDE9000199
:102910003B4630463946CDE9026715F057F9024685
:102920000B468046894615F051F987A3D3E9002369
:1029300006460F4615F04AF985A3D3E9002314F0A3
:1029400093FF32463B4615F041F983A3D3E90023B8
:1029500014F08AFF32463B4615F038F980A3D3E9DC
:10296000002314F081FF42464B4615F02FF97EA359
:10297000D3E90023804689463046394615F026F9CA
:102980007BA3D3E9002314F06FFF32463B4615F0DA
:102990001DF979A3D3E9002314F066FF32463B46C4
:1029A00015F014F90B4602464946404614F05CFF08
:1029B000A5F5C223C5F5D725A3F27A4351351D43AA
:1029C000002D8046894656DD0022724B50465946FE
:1029D00015F0FCF852465B4615F0F8F806460F462F
:1029E000002C68D132463B464046494614F03CFF35
:1029F000DDE9022315F0EAF802460B463046394677
:102A000014F030FF02460B465046594614F02AFF98
:102A100005B0BDE8F08F0022002300205E4915F0CC
:102A2000FFF905B0BDE8F08F55A3D3E90023504668
:102A3000594615F0CBF802460B460020554914F0D4
:102A400011FF524606460F465B465046594615F062
:102A5000BDF802460B463046394615F0B7F8064633
:102A60000F46002C40F09A8002460B4650465946CD
:102A700014F0F8FE37E7002C00F0A4802EA3D3E971
:102A80000023DDE9000115F0A1F842464B4604465B
:102A90000D465046594614F0E5FEDDE9022315F0D7
:102AA00095F827A3D3E9002306460F46DDE9000188
:102AB00015F08CF821E020A3D3E90023DDE9000123
:102AC00015F084F832463B4604460D4640464946DA
:102AD00014F0CAFEDDE9022315F078F818A3D3E953
:102AE000002380468946DDE9000115F06FF80246B3
:102AF0000B464046494614F0B7FE02460B463046A8
:102B0000394614F0AFFE52465B4614F0ABFE024667
:102B10000B462046294614F0A5FE05B0BDE8F08F0F
:102B200002460B4614F09EFE0022002315F078F9B1
:102B3000D9E600200021D6E60000E0FE422EE63F66
:102B4000763C7935EF39EA3D44523EDF12F1C23F1F
:102B5000DE03CB966446C73F599322942449D23F63
:102B6000935555555555E53F9FC678D0099AC33FB3
:102B7000AF788E1DC571CC3F04FA97999999D93FCA
:102B8000555555555555D53F00005043FFFFEF7F34
:102B90000000F03F0000E03F000050C3204614F06A
:102BA000AFFF0FA3D3E900238046894615F00EF846
:102BB0000DA3D3E9002304460D464046494615F0CF
:102BC00005F89AE702460B465046594614F04AFE6D
:102BD000DDE9022314F0FAFF14E700BFAFF3008031
:102BE0000000E0FE422EE63F763C7935EF39EA3DC3
:102BF000B1F5801F2DE9F84304460D460B461ADA5D
:102C0000024621F00046324359D000295FDB002202
:102C10003B4B14F0DBFF3B4A0D462B4693420446E8
:102C20006FF035010CDD22462B462046294614F074
:102C30001BFEBDE8F883334A93424FF00001F2DCFB
:102C40001815A0F2FF3008444FEAD0794844C3F386
:102C5000130814F055FFC9F57F73033348EA035591
:102C600006460F4620462946FFF7CEFD1EA3D3E9B0
:102C70000023804689463046394614F0A7FF1CA33E
:102C8000D3E9002304460D464046494614F09EFF12
:102C900002460B462046294614F0E6FD16A3D3E96A
:102CA000002304460D463046394614F08FFF024695
:102CB0000B462046294614F0D7FDBDE8F8830022D4
:102CC00000230020104915F0ABF8BDE8F883024658
:102CD0000B4614F0C7FD0022002315F0A1F8BDE853
:102CE000F88300BFAFF30080362BF111F3FE593D9E
:102CF0000EE526157BCBDB3F00609F501344D33F8E
:102D000000005043FFFFEF7F000050C300000000B1
:102D10002DE9F04F23F0004757EA020493B037D073
:102D2000674C21F00046A64283460D4629DC9A46B0
:102D3000964625D0A74224DC614CA74279D0002DCD
:102D400080468946CDE9002377DB0024BEF1000FE1
:102D50002CD15B4B9F4200F08B805A4B9F4261D03D
:102D6000BAF1804F00F0C383574B9A451ED1002D16
:102D70001CDB4046494613B0BDE8F04F13F0E6BCFB
:102D800058B106F1404606F5801656EA0B0306D107
:102D90004C49002013B0BDE8F08FB742CCDD4B4862
:102DA00013B0BDE8F04F14F061BB00244046494623
:102DB00012F008FEBBF1000F19D126B1414B25F0EE
:102DC00040429A4213D1BAF1000FC0F2CA83002DDB
:102DD000E0DA06F1404606F5801656EA040300F0F4
:102DE000A584012CD6D101F100431946D2E7ED0F9D
:102DF000013D54EA05034ED0354B9F426EDD03F191
:102E000004739F4240F3FE83324B9E424EDDBAF183
:102E1000000F4EDD28A3D3E900231046194614F015
:102E2000D5FEB7E7BAF1000FC0F2528440464946DA
:102E3000B0E7BEF1000F82D0A3E7274B9F4228DC0A
:102E4000A3F154739F4280DD3B15A3F2FF33142B93
:102E500040F35484C3F134032EFA03F202FA03F36D
:102E60009E457FF472AF02F00102C2F102046DE7E9
:102E700006F1404303F5801353EA0B0388D0154B4A
:102E80009E4240F33B83BAF1000F12DBDDE9000103
:102E900080E702245AE742464B461046194614F092
:102EA000E1FC02460B4614F0BBFF73E7BAF1000FDA
:102EB000B0DB002000216DE79C7500883CE4377E84
:102EC0000000F07F0000F03F0000E03F9C96010012
:102ED0000000E041FFFFEF3FFFFF3F43B6F5801FDB
:102EE0004FF0000205DAD84B14F070FE6FF0340298
:102EF0000E463315D54FC6F31306A3F2FF33134422
:102F000046F07F5ABE421A460D934AF4401A40F3E7
:102F10002F83CF4B9E4240F30D849FEDB57B8DED0B
:102F2000087B8DED0E7B9FEDB47B13468DED067B0C
:102F300001330D93AAF5801A0027DDE906235146D7
:102F4000CDE90A0114F08EFCDDE9062380468946AE
:102F5000DDE90A0114F088FC02460B460020BD4959
:102F600014F05EFF0A460146CDE9101213464946A9
:102F70000246404614F02AFE4FEA6A0343F000532B
:102F80008C46834603F50023CDE904BCDA468B4624
:102F9000D9190023CDE902AB0293DDE902AB002091
:102FA00006460F4602460B465046594614F00EFEA2
:102FB00002460B464046494614F054FCDDE9062320
:102FC000804689463046394614F04CFC02460B4692
:102FD000DDE90A0114F046FC52465B4614F0F6FDAA
:102FE00002460B464046494614F03CFCDDE91023FE
:102FF00014F0ECFDDDE90467CDE9060132463B46FD
:103000003046394614F0E2FD7DA3D3E9002306469D
:103010000F4614F0DBFD7CA3D3E9002314F024FC5D
:1030200032463B4614F0D2FD79A3D3E9002314F0D5
:103030001BFC32463B4614F0C9FD77A3D3E90023BD
:1030400014F012FC32463B4614F0C0FD74A3D3E9E1
:10305000002314F009FC32463B4614F0B7FD72A37E
:10306000D3E9002314F000FC3246804689463B46F3
:103070003046394614F0AAFD02460B464046494602
:1030800014F0A4FD524606460F465B46DDE90401F6
:1030900014F0EAFBDDE9062314F098FD32463B46C6
:1030A00014F0E2FB5246804689465B46504659463C
:1030B00014F08CFD0022684BCDE90A0114F0D4FB1A
:1030C00042464B4614F0D0FB02980F460646324665
:1030D0003B465046594614F079FD002282468B4605
:1030E0005D4B3046394614F0BDFBDDE90A2314F090
:1030F000B9FB02460B464046494614F0B3FBDDE9F6
:10310000042314F063FD3246804689463B46DDE9E0
:10311000060114F05BFD02460B464046494614F09A
:10312000A3FB8046894602460B4650465946CDE9E8
:1031300004AB14F099FBDDE902AB3DA3D3E9002316
:1031400050460F4614F042FDDDE90423CDE90201AB
:103150003946504614F086FB02460B464046494627
:1031600014F080FB34A3D3E9002314F02FFD34A323
:10317000D3E90023804689465046394614F026FD9F
:1031800002460B464046494614F06EFBDDE90E232D
:1031900014F06AFB80460D98894614F0B1FC424653
:1031A00006460F464B46DDE9020114F05DFBDDE902
:1031B000082314F059FB32463B4614F055FB3246C7
:1031C0003B4650468B4614F04DFBDDE9082314F0D6
:1031D00049FBDDE9022314F045FB02460B4640465D
:1031E000494614F03FFB8046894637E0AFF3008044
:1031F0000000000000000000000000000000F03FA0
:10320000EF4E454A287ECA3F65DBC9934A86CD3FCB
:1032100001411DA96074D13F4D268F515555D53FB1
:10322000FFAB6FDBB66DDB3F033333333333E33F49
:10323000000000E009C7EE3FFD033ADC09C7EE3F9E
:10324000F5015B14E02F3EBE000040438E98030062
:1032500079B60B000000F03F00000840013C54EA42
:10326000050300F079819FEDC87B8DED047BDDE9DE
:1032700000120B461446CDE9023400230293DDE927
:10328000024508462B461146224614F0EBFA5246F8
:103290005B4614F09BFCDDE9002306460F464046E2
:1032A000494614F093FC02460B463046394614F06A
:1032B000DBFA2246804689462B4650465946CDE9E0
:1032C000008914F083FC0B46024606460F46404632
:1032D000494614F0C9FAC64B994204460D468A463F
:1032E00040F3168101F13F4303F5E003034340F04F
:1032F000F781A7A3D3E90023DDE9000114F0B4FAB4
:103300003246804689463B462046294614F0AAFAB2
:1033100002460B464046494614F0E8FE002840F0BD
:10332000DF81A8464FEA28534FF48012A3F2FE3300
:1033300042FA03F35344C3F30A52AE4DA2F2FF32F2
:103340001541C3F3130423EA05010020C2F1140B55
:1033500044F48014BAF1000F02460B4644FA0BFB0A
:1033600030463946B8BFCBF1000B14F07BFA024669
:103370000B4606460F46DDE9000114F075FA4FEAE8
:103380000B5A0D46002484A3D3E900232046294686
:1033900014F01CFC3246804689463B4620462946AE
:1033A00014F060FA02460B46DDE9000114F05AFA07
:1033B0007BA3D3E9002314F009FC7BA3D3E900230A
:1033C00006460F462046294614F000FC02460B46EE
:1033D0003046394614F048FA06460F4602460B4678
:1033E0004046494614F040FA42464B4604460D46D4
:1033F00014F038FA02460B463046394614F032FAD9
:103400002246804689462B462046294614F0DEFB9C
:1034100067A3D3E9002306460F4614F0D7FB66A343
:10342000D3E9002314F01EFA32463B4614F0CEFBDB
:1034300063A3D3E9002314F017FA32463B4614F095
:10344000C5FB61A3D3E9002314F00CFA32463B46D6
:1034500014F0BCFB5EA3D3E9002314F005FA324656
:103460003B4614F0B3FB02460B462046294614F0B7
:10347000F9F906460F4602460B462046294614F047
:10348000A5FB0022CDE900014FF0804330463946CC
:1034900014F0E8F902460B46DDE9000114F0C0FC27
:1034A000424606460F464B462046294614F08EFB00
:1034B00042464B4614F0D8F902460B463046394690
:1034C00014F0D0F922462B4614F0CCF902460B46F4
:1034D0000020494914F0C6F98A44BAF5801FC0F2A9
:1034E00039815146DDE9042314F070FB52E4424671
:1034F0004B464046494614F069FB4BE4BAF1000FD5
:10350000BFF6D7ACDDE90034184604F1004141E4D0
:103510003A4B21F00048984540F3FF80384B0B446C
:1035200003430CD132463B4614F09CF902460B464D
:10353000DDE9000114F0C6FD00283FF4F3AEDDE93B
:10354000040125A3D3E9002314F040FB22A3D3E90F
:10355000002314F03BFB1DE49FED217B8DED047BEC
:1035600085E602460B460020234914F059FC2EE460
:103570009FED1D7B8DED087B8DED0E7B9FED027B1E
:1035800000278DED067BD8E4000000000000F03F2E
:10359000FE822B654715973C00000000432EE63F56
:1035A000EF39FAFE422EE63F396CA80C615C20BE72
:1035B000D0A4BE726937663EF16BD2C541BDBB3E39
:1035C0002CDE25AF6A56113F93BDBE166CC1663F17
:1035D0003E5555555555C53F59F3F8C21F6EA501C7
:1035E000000000000000F0BF00000000000000002C
:1035F000FFFF8F40FFFF0F000000F03FFFCB904028
:1036000000346F3F684B9E427FF750AC674B9E4241
:103610003FF7FDAB0022654B14F024F952A3D3E928
:10362000002306460F4614F0D1FA51A3D3E9002334
:10363000804689463046394614F0C8FA0022824650
:103640008B465B4B3046394614F0C0FA02460B46B7
:1036500049A1D1E9000114F005F932463B4614F0C6
:10366000B5FA02460B460020524914F0FBF83246E8
:10367000CDE902013B463046394614F0A7FA02462E
:103680000B46DDE9020114F0A1FA3DA3D3E90023C2
:1036900014F09CFA02460B465046594614F0E2F8E4
:1036A00002460B4606460F464046494614F0DCF8F3
:1036B00042464B46002082468B4614F0D3F8024621
:1036C0000B463046394614F0CDF880468946C5E5AC
:1036D00042464B460020354914F0A2FBFFF75ABB87
:1036E000DDE9040128A3D3E9002314F06FFA26A32F
:1036F000D3E9002314F06AFAFFF74CBBBEF1000FC8
:103700007FF453ABC3F1140347FA03F202FA03F355
:103710009F4223D07446FFF720BB264B98453FF7C6
:1037200001AEDDE90223924693462BE602460B46A4
:10373000FFF7B3BB9FED167B8DED087B9FED167BEE
:103740008DED0E7B9FED167B4FF480278DED067B74
:10375000FFF7F3BB5A4601F04FFDC3E602F001024A
:10376000C2F10204FFF7F9BA000000604715F73F05
:1037700044DF5DF80BAE543E555555555555D53F74
:10378000FE822B654715F73F9C7500883CE4377E29
:103790000000004003B8E23F06D0CF43EBFD4C3EB3
:1037A000000000000000F83FFEFFEF3F0000F03F88
:1037B0000000D03F0000E03F2DE9F0479C4B21F096
:1037C00000479F4290B08046894640F38E80994BD7
:1037D0009F420C46924626DC00298BA3D3E90023A6
:1037E00040F3B08114F03EF8934B9F4204460D46DF
:1037F00000F0908086A3D3E9002314F033F802464A
:103800000B46CAE900232046294614F02BF880A372
:10381000D3E9002314F026F80125CAE9020128465D
:1038200010B0BDE8F087854B9F4240F39080844BF9
:103830009F4265DC3D15A5F21645A7EB05531946D9
:103840001F46064614F072FC14F05AF98046894669
:1038500042464B4630463946CDE90A8914F002F813
:103860000022784B14F0B2F98946804614F05EFCD1
:1038700014F046F906460F4632463B464046494656
:10388000CDE90C6713F0EEFF00226E4B14F09EF9A9
:1038900000220023CDE90E0114F000FC002800F006
:1038A0006F81002330463946002214F0F7FB0028D0
:1038B00014BF01230223644A019202212A46009187
:1038C0000AA8514600F08CFB002C054614DADAF801
:1038D0000420DAF80C3002F1004203F100434542C3
:1038E000CAF80420CAF80C3006E000200021C2E922
:1038F0000089C2E902010025284610B0BDE8F08722
:1039000002460B4613F0AEFF0025CAE90201CAE9E0
:103910000001F1E740A3D3E9002313F0A3FF40A384
:10392000D3E900230D46044613F09CFF02460B46E4
:10393000CAE900232946204613F094FF38A3D3E9AF
:10394000002313F08FFF0125CAE90201D4E712F02A
:1039500039F835A3D3E900238046894614F036F9B7
:1039600000223A4B13F080FF14F0E0FB054614F000
:10397000C7F825A3D3E90023CDE9060114F026F901
:1039800002460B464046494613F06CFF20A3D3E99C
:103990000023CDE90201DDE9060114F017F91F2D1E
:1039A00080468946CDE9048954DC294B6A1E53F8C8
:1039B00022309F424ED002460B46DDE9020113F051
:1039C00051FF80468946CAE9008942464B46DDE9F7
:1039D000020113F047FFDDE9042313F043FF002C3D
:1039E000CAE9020188DA09F1004401F100436D429D
:1039F000CAF80080CAF80440CAF80800CAF80C30B7
:103A00007AE700BFAFF3008000004054FB21F93F8C
:103A10003163621A61B4D03D0000601A61B4D03DD8
:103A20007370032E8A19A33B83C8C96D305FE43FCE
:103A3000FB21E93F7BD90240FB21F93FFB213941C2
:103A4000FFFFEF7F00007041DCA001000000E03FBD
:103A50005CA00100DDE90423DDE9020113F002FFAF
:103A60003F15C1F30A53FB1A80468946102BCAE959
:103A70000089AADD58A3D3E90023DDE9060114F08B
:103A8000A5F88046894602460B46DDE9020113F09F
:103A9000E9FE02460B46DDE90201CDE9082313F0F9
:103AA000E1FE42464B4613F0DDFE4DA3D3E9002371
:103AB00080468946DDE9060114F088F842464B4607
:103AC00013F0D0FE0B46CDE904010246DDE9080102
:103AD00013F0C8FEC1F30A53FF1A80468946312FFE
:103AE000CAE900896CDD41A3D3E90023DDE90601C1
:103AF00014F06CF8DDE9088906460F4602460B46CD
:103B00004046494613F0AEFE02460B464046494643
:103B1000CDE9022313F0A6FE32463B4613F0A2FE87
:103B200034A3D3E9002306460F46DDE9060114F06D
:103B30004DF832463B4613F095FE02460B46CDE962
:103B400004233AE713F090FE274B9F4204460D46AC
:103B500018D01FA3D3E9002313F086FE02460B46BC
:103B6000CAE900232946204613F07CFE18A3D3E9B6
:103B7000002313F079FE4FF0FF35CAE90201BBE6DE
:103B8000032398E614A3D3E9002313F06DFE14A3D6
:103B9000D3E900230D46044613F066FE02460B46A9
:103BA000CAE900232946204613F05CFE0CA3D3E9A2
:103BB000002313F059FE4FF0FF35CAE902019BE6DE
:103BC0009DED087B8DED027BFFE600BFAFF300802B
:103BD0003163621A61B4D03D0000601A61B4D03D17
:103BE0007370032E8A19A33BFB21F93F0000002EBE
:103BF0008A19A33BC14920259A837B390000000024
:103C0000594A2DE9F84F21F00048904506460F46E5
:103C10002BDC564B0029B4BF554D564D98454FF0FF
:103C2000000410DC544B984570DC4DA3D3E900230D
:103C300013F01AFE0022514B14F058FAD8B1304656
:103C40003946BDE8F88F4E4B98457CDD4D4B984585
:103C500044DD013398453ED03046394640A3D3E990
:103C6000002313F0B3FFBDE8F88F02460B4613F0B4
:103C7000FBFDBDE8F88F3046394611F0A3FE01F098
:103C80007FF806460F4632463B463046394613F02B
:103C9000EBFD324682468B463B463046394613F0B2
:103CA00095FF002280468946344B3046394613F052
:103CB000DBFD02460B464046494614F0B1F8024689
:103CC0000B465046594613F0CDFD22462B4613F0C5
:103CD0007DFFBDE8F88F2C4B9842BDD83046394661
:103CE00011F070FE0022234B13F070FFFEF714FC5E
:103CF00006460F4602460B462046294613F066FF4D
:103D000032463B4613F062FFBDE8F88F11F05AFED1
:103D100001F036F81D4B984506460F46B3DD0022EC
:103D2000164B13F0A1FD02460B463046394614F0FF
:103D300077F832463B4613F097FD22462B4613F0A8
:103D400045FFBDE8F88F11F03DFEFEF7E5FB0246AA
:103D50000B462046294613F039FFBDE8F88F00BF17
:103D60003374AC3C1F7BAC7FFFFFEF7FFFFF354020
:103D70000000E0BF0000E03FFFFF2F3E0000F03FEB
:103D8000412E8640CD3386407DF8B98FFFFFEF3F4F
:103D90002DE9F04F21F00048B8F1795F85B0064673
:103DA0000F4692469B466BDA14F0C0F9002800F0EB
:103DB000EA8032463B463046394613F007FF74A38B
:103DC000D3E9002304460D4613F000FF72A3D3E9A4
:103DD000002313F049FD22462B4613F0F7FE70A393
:103DE000D3E9002313F03EFD22462B4613F0EEFEEE
:103DF0006DA3D3E9002313F037FD22462B4613F0C1
:103E0000E5FE6BA3D3E9002313F02CFD22462B46DD
:103E100013F0DCFE68A3D3E9002313F025FD22464E
:103E20002B4613F0D3FECDE900010022664B20465D
:103E3000294613F0CBFEDDE9002380468946204663
:103E4000294613F0C3FE524604460D465B463046F3
:103E5000394613F0BBFE02460B462046294613F0B6
:103E600001FD02460B464046494613F0FBFC024664
:103E70000B460020554913F0F5FC05B0BDE8F08F66
:103E800002460B4613F0A2FE41A3D3E900230446E9
:103E90000D4613F09BFE40A3D3E9002313F0E4FC8E
:103EA00022462B4613F092FE3DA3D3E9002313F0E4
:103EB000D9FC22462B4613F089FE3BA3D3E900230D
:103EC00013F0D2FC22462B4613F080FE38A3D3E930
:103ED000002313F0C7FC22462B4613F077FE36A3CF
:103EE000D3E9002313F0C0FC2B46224613F06EFEEC
:103EF000374B9845CDE9000197DD364B984539DCC5
:103F0000A8F500130022002030499046994613F08E
:103F1000A9FCCDE9020100222B4B2046294613F0D3
:103F200055FE42464B4613F09DFCDDE900238046DA
:103F300089462046294613F049FE524604460D465E
:103F40005B463046394613F041FE02460B4620469A
:103F5000294613F087FC02460B464046494613F0BB
:103F600081FC02460B46DDE9020113F07BFC05B043
:103F7000BDE8F08F9FED127B4FF000088DED027BC6
:103F8000DFF85490C7E71149002005B0BDE8F08F75
:103F9000D43888BEE9FAA8BDC4B1B4BD9EEE213EB6
:103FA000AD529C804F7E923E9015CB19A001FA3EF7
:103FB0007751C1166CC1563F4C5555555555A53FC7
:103FC000000000000000E73F0000E03F0000F03F7D
:103FD0003233D33F0000E93F0000D23F0000000031
:103FE0002DE9F04FADF51B7D9F4CA49E9F4D54F8DD
:103FF000264007942646D41E85FB0475E417C4EBBF
:10400000A50424EAE4741D460A93631CA3EB83030E
:10401000013D02EBC30306932B460B940395651BEE
:10402000F418049008911AD42C4400260027013477
:104030000DF18808DDF8949208E059F8250013F096
:104040005FFD0135A542E8E8020108D0002DF4DA51
:10405000013530463946A542E8E80201F6D1079B12
:10406000002BC0F2DF83079B03F1010B0A9B22A9FF
:10407000DB001A4601EB03090093049B0DF5E47A7B
:1040800019460AEBCB0B01EB0208039B002BC0F295
:10409000F582049C4D460026002775E90223F4E8CA
:1040A000020113F093FD02460B463046394613F0E9
:1040B000DBFB444506460F46EFD1EAE80267DA45E6
:1040C00009F10809E1D107990098049C009101F1D8
:1040D0008043013B9B0020441A1F83460EA80244E4
:1040E00003440C920D93009A9AA901EBC203002A93
:1040F00053E9284529DD0DF5E47A0AEBC2080DF1F4
:10410000340900225A4B2046294613F05FFD14F073
:104110000DF813F0F5FC0022564B06460F4613F03F
:1041200055FD02460B462046294613F09BFB13F033
:10413000FDFF78E9022349F8040F3946304613F0B1
:1041400093FBD04504460D46DBD1DDF818902046A0
:1041500029464A4601F050F800224FF07F530446AA
:104160000D4613F033FDFCF75FFD0022424B13F0C8
:104170002DFD02460B462046294613F073FB0D46E3
:10418000044613F0D3FF804613F0BAFC0B460246F8
:104190002946204613F066FB4B46002B06460F4689
:1041A00040F3F980009A0EA9013AC9F1180351F8B9
:1041B000225045FA03F101FA03F30EA8EB1A40F876
:1041C0002230C9F11705884443FA05F5002D6DDD4D
:1041D000009B002B08F1010840F36F820E9C002C1D
:1041E00040F01683009B012B40F38F820EAA01231F
:1041F00052F8044F002C00F08382581C0EAAC4F120
:10420000807442F82340009A824219DD0EAA0EAC57
:1042100052F820106FF07F42511A44F82010009994
:10422000023399420CDD1046009A0EA901EB83037C
:1042300001EB82011A68821A43F8042B8B42F9D1F0
:10424000069B002B1ADD069B012B4FF0010440F06A
:104250003C82009B5A1E0EAB0EA953F82230C3F3CA
:10426000160341F822303CE27CA50100ABAAAA2A41
:104270000000703E0000704100002040022D15D16A
:1042800032463B460020924913F0ECFA06460F46B0
:10429000069A8F49002000F0AFFF02460B463046D9
:1042A000394613F0DFFA022506460F4600220023A6
:1042B0003046394613F0F2FE002800F03782009AAB
:1042C000079B501E83420FDC02F18043013B0EAA84
:1042D0000D9C02EB8303002253F80419A34242EA27
:1042E0000102F9D1002A67D1079B0EAA013B52F8BF
:1042F0002330002B40F018820C9A012352F8041945
:1043000001330029FAD0009AD31802F1010A9A4524
:1043100009933DDC009B0A990B9A0B4409990AEB1F
:104320000208994622AB08F1804803EBC9098B18B3
:10433000A59A08F1FF3802EB880872AA02EBCA0AB4
:10434000A59A02EB8303009358F8040F13F0D8FBEF
:10435000039B002BE9E802014FF000064FF0000735
:1043600011DB049C4D4675E90223F4E8020113F0C9
:104370002DFC02460B463046394613F075FA5C4573
:1043800006460F46EFD1009B9845EAE80267DBD16D
:10439000099B0093A7E606D1009B0EAA013B52F8A9
:1043A0002350ED1512E700224A4B13F095FE00282A
:1043B00040F06E81054679E70EA9039551F820304B
:1043C0000699CDF8248018390246009006916BB901
:1043D00000F18043013B0EA800EB830353F804096E
:1043E000013A18390028F9D000920691069A384906
:1043F000002000F001FF009B002B04460D46C0F298
:10440000F781DA0072A901EB020B06920EAA02EB09
:104410008306DFF8C4904FF000080BF1080704365C
:1044200056F8040D13F06CFB22462B4613F0CEFB1E
:104430004B4667E9020142462046294613F0C6FB77
:104440000EAB9E4204460D46EAD14AACDDF81C9004
:1044500004944FF0000AB9F1000FC0F22B81DFF88D
:104460007C805D4618A1D1E90001002600270024C8
:1044700003E0544510DCF8E80201F5E8022313F0EC
:10448000A5FB02460B463046394613F0EDF90134E0
:10449000A14506460F46ECDA049B03EBCA03ABF1D9
:1044A000080BC3E9006770AB9B450AF1010AD2D142
:1044B000A49B049C032B00F28980DFE803F0C58EE7
:1044C0008E1100BFAFF3008000000040FB21F93FD8
:1044D0000000F03F0000E03F0000703EA08E0100B1
:1044E000009B002B40F38181069A04EB020ADAE973
:1044F000008902F1080525440DF5987B1AED027B31
:1045000042464B4651EC170B8DED047B13F0ACF992
:1045100006460F4602460B46DDE9040113F0A2F9F8
:1045200042464B4613F0A0F965E902015D45B046ED
:10453000B9466AE90267E1D1009B012B40F355813E
:10454000069BE518D5E9008903F1080B04EB0B0A7B
:1045500015ED027B42464B4651EC170B8DED007B6F
:1045600013F082F906460F4602460B46DDE90001CC
:1045700013F078F94B46424613F076F96AE90201E6
:104580004EAB5345B046B94665E90267E0D100201D
:10459000002104EB0B0575E9022313F065F9AA4528
:1045A000F9D1039B002B00F00A816268E368089F41
:1045B0002568A4683D6002F1004203F1004301F167
:1045C00000417A60FB60BC6038617961099B03F04F
:1045D00007000DF51B7DBDE8F08F069D08352544CD
:1045E0000020002175E9022313F03EF9A542F9D11C
:1045F000039B002B00F0D280089E024601F100438D
:1046000086E80C000B460246D4E9000113F02AF9B3
:10461000009B002B0BDD4CAD0124F5E8022313F0C9
:1046200023F9009B0134A342F7DA039B13B101F194
:1046300000431946089BC3E90201099B03F00700E8
:104640000DF51B7DBDE8F08F069D0835002000218B
:10465000254475E9022313F007F9AC42F9D1039B15
:1046600013B101F100431946089BC3E90001099BFE
:1046700003F007000DF51B7DBDE8F08F0026002735
:10468000EAE80267DA4509F108097FF4FEAC1AE5A9
:10469000009B002B08F10108C8BF02253FF79EAD23
:1046A00032463B460020614913F0DCF802250646FD
:1046B0000F46FBE500260027EEE6069B002B27DDD4
:1046C0000024069B012B3FF4C4AD022B09D1009BB3
:1046D0005A1E0EAB0EA953F82230C3F3150341F84E
:1046E0002230022D7FF4E2AD32463B4600204F4996
:1046F00013F0B8F806460F46002C3FF4D7ADC7E5D7
:104700000099013399427FF473AD069B002BD8DCEE
:10471000022D7FF4CBAD32463B460020434913F0D7
:10472000A1F806460F46C1E50123ECE53946069F90
:1047300003957A423046CDF8248000F05DFD0022DA
:104740003B4B04460D4613F0C7FC002843D0002223
:10475000384B2046294613F039FA13F0E7FC064699
:1047600013F0CEF90022324B13F030FA02460B461A
:104770002046294613F076F813F0D8FC00990B4632
:1047800001331A4600933B46183306930B460EA995
:1047900041F82300134641F8236027E6089B0246B0
:1047A000C3E900010B46D4E9000113F05BF8009B5C
:1047B000002B3FF730AF089BC3E902013DE7D4E986
:1047C0000067D4E90223089DC5E90401C5E9006733
:1047D000C5E90223FAE62946204613F0A7FC009A11
:1047E0000EA941F8220001E64AAC00200021D8E6DB
:1047F000A49B032B3FF6EAAE01A252F823F000BFC0
:104800001F4800001748000017480000E947000053
:1048100001200023F2E4002000214AACE8E6002059
:1048200000211CE70A9BDB0000934CE40000F03FF2
:10483000000070410000703E2DE9F04F21F000466D
:10484000B6F1795F85B004460D469046994604DA84
:1048500013F06CFC002800F0858022462B46204691
:10486000294613F0B3F906460F4602460B4620468A
:10487000294613F0ABF941A3D3E9002382468B46C6
:104880003046394613F0A2F93EA3D3E9002312F0D3
:10489000E9FF32463B4613F099F93CA3D3E90023E4
:1048A00012F0E2FF32463B4613F090F939A3D3E908
:1048B000002312F0D7FF32463B4613F087F937A3A7
:1048C000D3E9002312F0D0FF0E9BCDE900019BB38A
:1048D0000022294B4046494613F078F9DDE90023D0
:1048E000CDE902015046594613F070F902460B46D5
:1048F000DDE9020112F0B6FF32463B4613F066F9DD
:1049000042464B4612F0AEFF19A3D3E900230646F8
:104910000F465046594613F059F902460B463046A9
:10492000394612F0A1FF02460B462046294612F0F6
:1049300099FF05B0BDE8F08F02460B463046394678
:1049400013F044F90AA3D3E9002312F08BFF524677
:104950005B4613F03BF922462B4612F085FF05B06B
:10496000BDE8F08F2046294605B0BDE8F08F00BFB6
:10497000495555555555C53F0000E03F7CD5CF5AA8
:104980003AD9E53DEB9C2B8AE6E55A3E7DFEB157D0
:10499000E31DC73ED561C119A0012A3FA6F8101139
:1049A0001111813F000000002DE9F04FBE4C21F0B5
:1049B000004687B0A64282468B460F46CDE90023CB
:1049C0001BDC13F0B3FB002837D153461E43109B6A
:1049D0000133334300F0B381109B012B00F0C881F9
:1049E00052465B460020B14913F01AFA04460D46C0
:1049F0002046294607B0BDE8F08FAD4B9E421CDD36
:104A00000029C0F2A98152465B4687A1D1E9000185
:104A100012F028FFDDE9002304460D4684A1D1E908
:104A2000000112F01FFF9FED847B22462B468DED87
:104A3000007B12F019FF82468B4652465B46504679
:104A4000594613F0C3F802460B468046894613F0D8
:104A5000BDF8424604460D464B465046594613F0B3
:104A6000B5F877A3D3E90023CDE902012046294612
:104A700013F0ACF874A3D3E9002312F0F5FE22463C
:104A80002B4613F0A3F872A3D3E9002312F0ECFE37
:104A900022462B4613F09AF86FA3D3E9002312F0B5
:104AA000E3FE22462B4613F091F86DA3D3E90023D1
:104AB00012F0DAFE22462B4613F088F86AA3D3E9F7
:104AC000002312F0D1FE42464B4613F07FF868A354
:104AD000D3E90023CDE904012046294613F076F8F6
:104AE00065A3D3E9002312F0BFFE22462B4613F044
:104AF0006DF863A3D3E9002312F0B6FE22462B46DD
:104B000013F064F860A3D3E9002312F0ADFE22464F
:104B10002B4613F05BF85EA3D3E9002312F0A4FE4A
:104B200022462B4613F052F85BA3D3E9002312F080
:104B30009BFE02460B46DDE9040112F095FEDDE91D
:104B4000022313F043F8DDE9004522462B4612F01C
:104B50008BFE42464B4613F039F802460B46204680
:104B6000294612F081FE4EA3D3E9002304460D46E8
:104B7000DDE9020113F02AF822462B4612F074FEFA
:104B80000B460246804689465046594612F06CFE56
:104B9000474B9E4204460D4600F38E80109B012B2E
:104BA0003BD002460B460020404913F039F900245F
:104BB00006460F462046294652465B46CDE9006729
:104BC000CDE90201009412F04DFEDDE900AB024692
:104BD0000B464046494612F045FE52465B4612F0EF
:104BE000F5FF524604460D465B46DDE9020112F030
:104BF000EDFF00222F4B12F037FE02460B462046F7
:104C0000294612F031FE32463B4612F0DFFF524693
:104C10005B4612F029FE04460D462046294607B0A1
:104C2000BDE8F08FAFF30080182D4454FB21E93F1D
:104C3000075C143326A6813C000000000000000041
:104C4000D47ABF74702AFB3EE9A7F0320FB8123F46
:104C500068108D1AF726303F1583E0FEC8DB573FFA
:104C600093846EE9E326823FFE41B31BBAA1AB3FBA
:104C7000735360DBCB75F3BEA69237A0887E143FDA
:104C80000165F2F2D844433F280356C9226D6D3FB7
:104C900037D60684F464963F7AFE10111111C13F95
:104CA000635555555555D53FFFFF2F3E0000F0BFCA
:104CB0002794E53F0000F03F109812F021FF2246B4
:104CC000CDE900012B462046294612F07FFFDDE9A1
:104CD0000023CDE902012046294612F0C5FD024617
:104CE0000B46DDE9020113F09BF842464B4612F0F9
:104CF000B9FD02460B465046594612F0B3FD024636
:104D00000B4612F0B1FD02460B46DDE9000112F040
:104D1000A9FD0446B81700F00200C0F101000D46DD
:104D200012F0EEFE02460B462046294612F04EFFD8
:104D300004460D462046294607B0BDE8F08F504690
:104D4000594610F03FFE02460B4600200A4913F078
:104D500067F804460D4660E7DDE9004501F10041D2
:104D6000224605F1004382468B46CDE900234AE600
:104D700054465D4651E700BF0000F03F00000000D0
:104D80002DE9F04FD24A21F00043934285B082468C
:104D90008B460C462DD9CF4A93421AD8002C80F26C
:104DA0001681B5A3D3E900235046594612F05CFDA5
:104DB0000022002313F07CF9C0B9B1A3D3E900238A
:104DC0005046594612F002FF02460B460020C249E7
:104DD00008E1C24A934240F2D0800346C1F3130275
:104DE000134340F0F481002980F2C4800020BC49C4
:104DF000C0E0BC4A934200F22981BB4A934240F290
:104E0000DE80002301930022B84B5046594612F031
:104E1000DDFE06460F4602460B465046594612F046
:104E2000D5FE99A3D3E9002304460D4612F0CEFE29
:104E300097A3D3E9002312F017FD22462B4612F068
:104E4000C5FE95A3D3E9002312F00CFD22462B46A4
:104E500012F0BCFE92A3D3E9002312F005FD224616
:104E60002B4612F0B3FE90A3D3E9002312F0FAFC14
:104E700022462B4612F0AAFE00229D4B12F0F4FCB3
:104E80008046894602460B463046394612F09EFE61
:104E900002460B460020974912F0E4FC0646024603
:104EA0000B460F464046494612F0DCFC324680462F
:104EB00089463B465046594612F088FE02460B464C
:104EC00000208D4912F0CEFC02460B464046494672
:104ED00012F0A6FF22462B4612F078FE019E0246F3
:104EE0000B46002E38D0DDE9026732463B4612F011
:104EF000B9FC52465B4612F069FE32463B4612F060
:104F0000B1FC2B46224612F0ADFC019B0133064654
:104F10000F4600F00F81019B012B00F0F180019BF7
:104F20000133392B39D8019B132B40F31281019C9B
:104F3000C4F57F75033500222B0512F095FC02465F
:104F40000B465046594612F08DFC0022684B12F079
:104F50008BFC01EB04510DE05046594612F036FE31
:104F600022462B4612F07EFC02460B46504659461E
:104F700012F078FC05B0BDE8F08F4DA3D3E9002313
:104F800013F0B4F800283FF409AF4BA3D3E9002392
:104F90001046194612F01AFEECE752465B4612F034
:104FA00061FC02460B460020514912F05BFC019A5D
:104FB0004F4B01EB0251002212F054FCDAE73EA302
:104FC000D3E9002312F050FC02460B46CAE72CA39B
:104FD000D3E900235046594612F0F8FD0B464349E9
:104FE0000246002012F040FC13F0A0F8019012F0ED
:104FF00087FD33A3D3E9002306460F4612F0E6FDF2
:1050000002460B465046594612F02CFC2EA3D3E91B
:105010000023804689463046394612F0D7FD0646C1
:105020000F4632463B464046494612F01BFC0246BC
:105030000B4682468B464046494612F013FC3246E8
:105040003B4612F00FFCCDE90201DCE62B4A93420D
:1050500000F2958000291AA3D3E90023C0F2AC80A6
:1050600012F000FC012380468946019316A7D7E978
:105070000067D6E7AFF3008059F3F8C21F6EA501B1
:10508000FE822B654715F73F2DC3096EB7FD8ABE1B
:105090003952E686CACFD03EB7DBAA9E19CE143F5E
:1050A0008555FE19A0015A3FF41011111111A13FAD
:1050B000EF39FAFE422E86409C7500883CE4377E2C
:1050C0000000E0FE422EE63F763C7935EF39EA3DBE
:1050D00079684340412E86400000E0BFFFFFEF7F2C
:1050E0000000F0BF422ED63FFFFF8F3C0000E03FA4
:1050F0000000F03F0000084000001840B1A2F03F5F
:105100000022394B5046594612F0D2FF002844D0B5
:10511000504659460022354B12F0A6FB02460B467C
:105120003046394612F09EFB00224FF0404312F009
:105130004DFD1FE702460B465046594612F092FBC2
:1051400000222A4B12F042FD0022284B12F08AFB6B
:1051500010E7019C4FF400132341C3F17F575246DF
:105160005B4612F07FFB002607F5401702460B4610
:105170003046394612F076FB01EB0451FAE616A3ED
:10518000D3E9002312F022FD002C02460B464FF01B
:105190000000FFF61CAE154924E732463B46504658
:1051A000594612F05FFB02460B4612F05DFB0022EF
:1051B0000F4B12F059FBDDE612F056FB4FF0FF33B8
:1051C00080468946019306A7D7E9006729E702468A
:1051D0000B4612F049FBCDE6FE822B654715F73FE3
:1051E000763C7935EF39EABD0000D0BF0000E03FE2
:1051F0000000F03F00000000F8B5C1F30A56044675
:105200000D460B4617460EBB21F00043034386466E
:1052100025D00022344B12F0D9FC344A9742044680
:105220000D460B462ADBC1F30A56363E3E4440F299
:10523000FE72964228DC002E12DD23F0FF4323F499
:10524000E00343EA065520462946F8BD40F2FF72C6
:105250009642EBD102460B4612F006FBF8BDF8BDB4
:1052600016F1350F1DDA4CF250339F4222462B4681
:1052700025DC19A1D1E9000112F066FA16A3D3E9E1
:10528000002312F0A3FCF8BD22462B4614A1D1E95D
:10529000000112F059FA12A3D3E9002312F096FC90
:1052A000F8BD23F0FF4323F4E003363643EA065506
:1052B0002046294600220E4B12F088FCF8BD08A1BA
:1052C000D1E9000112F040FA05A3D3E9002312F05E
:1052D0007DFCF8BDAFF3008059F3F8C21F6EA50145
:1052E0009C7500883CE4377E00005043B03CFFFFD3
:1052F0000000903C10B5054C237833B9044B13B132
:105300000448AFF300800123237010BD1005002076
:1053100000000000D4A601000C4B43B10C480D491D
:1053200010B5AFF300800C48036823B910BD0A48DC
:10533000036833B97047094B002BF7D0BDE8104024
:105340001847064B002BF5D0184700BF000000009F
:10535000D4A6010014050020100200200000000067
:10536000154B002B08BF134B9D46A3F5803A002137
:105370008B460F461348144A121A08F071FA0F4B65
:10538000002B00D098470E4B002B00D098470020F0
:10539000002104000D000D48002802D00C48AFF396
:1053A000008012F007FA2000290005F087F912F0BA
:1053B000EDF900BF0000080000000220000000001E
:1053C00000000000000400208C0C00200000000001
:1053D0000000000070B504460E4600F0D1F888B118
:1053E0000368DB6A05469847082C0CD0A4F1090332
:1053F000012B14D93246214610230D20BDE8704000
:1054000004F0A8B870BD2B6828465B6A984702284C
:10541000F0DC2B6828461B6A04219847EAE72B68D2
:1054200028465B6A98470528E4DC2B6828461B6AF7
:1054300008219847DEE700BF30B52DED028B83B021
:10544000054600F09DF8044640B10368DB6A9847C2
:10545000032D50D8DFE805F0373F47080190019849
:1054600003B0BDEC028B30BD20460BF04DFD07EEC6
:10547000900A2046F8EEE78A0BF056FD07EE900AF8
:105480002046B8EEE78A0BF05FFD68EE087A07EE7B
:10549000100AE8EEA87AB8EEC77AE7EE077AF5EEDA
:1054A000407AF1EE10FAB1EEE78A03D517EE900AD2
:1054B00010F0D4FFFDEEC87ACDED017A019803B06B
:1054C000BDEC028B30BD204603B0BDEC028BBDE8C5
:1054D00030400BF019BD204603B0BDEC028BBDE897
:1054E00030400BF021BD204603B0BDEC028BBDE87F
:1054F00030400BF029BD00230193B0E738B50546D5
:1055000000F03EF858B10368DB6A0446984745B19D
:10551000012D04D12046BDE83840FBF79DB800209E
:1055200038BD2046BDE83840FBF776B810B50446D4
:1055300000F026F828B1036821461B6ABDE8104038
:10554000184710BD0048704716FCFFFF704700BFAA
:1055500010B5034B036004460BF0B6FA204610BDAD
:10556000D49B010010B5054B036004460BF0ACFA68
:10557000204613F06DF8204610BD00BFD49B0100FB
:105580002DE9F043C04C236885B01BB1986805B085
:10559000BDE8F0834FF0FF31012001F0FFFCC0B205
:1055A00004F028FB002800F0ED800C2013F052F8E6
:1055B00003210646512001F0F1FCDFF8FCE2B34B79
:1055C000054605F00F07C5F3031815F4807518BFDD
:1055D0007346AF48394642460AF074FC2A1C18BF8D
:1055E00001223946434630460DF0F4FB0023A9481A
:1055F000B3600AF067FC4FF0FF31032001F0CEFCEE
:10560000C0B204F0F7FA4FF0FF310546022001F076
:10561000C5FCC0B204F0EEFA002D00F09A8000281C
:1056200000F097800146284604F076F807460028E7
:1056300000F0A4804FF0FF31462001F0AFFC32288B
:1056400080462BD028DD382869D068283FD14FF01C
:10565000FF31012001F0A2FCC0B204F0CBFA814678
:105660004C2012F0F7FF0523054601934A46CDF87A
:105670000080394633460CF07DFB2846B060036855
:105680009B6A9847B0680368DB6A984782480AF0CB
:1056900019FC2660B0687AE7302818D14FF0FF3146
:1056A000012001F07BFCC0B204F0A4FA81464C203A
:1056B00012F0D0FF1FFA88F1054605234A460091F3
:1056C0000193394633460CF037F92846D6E73A6855
:1056D0000125002301950095D2F82080B3600F22A8
:1056E0000DF10F0332213846C047002856D14FF044
:1056F0003208414669480AF0E5FB4FF0FF310120CE
:1057000001F04CFCC0B204F075FA81464C2012F056
:10571000A1FF052305464A46CDF80080D0E74FF0AB
:10572000FF31012001F03AFCC0B204F063FA814677
:10573000442012F08FFF052305464A46CDF800802D
:105740003946019333460CF06DFA554B2B602846D1
:1057500094E754480AF0B6FB4FF0FF31192001F0EE
:105760001DFCC0B204F046FA4FF0FF310546182088
:1057700001F014FCC0B204F03DFA53E74A480AF0C5
:10578000A1FB86E74FF0FF31032001F007FCC0B218
:1057900004F030FA00287FF408AFF8E63B68019582
:1057A0000095D3F820800F220DF10F0330213846E9
:1057B000C04718B94FF0300841469BE73B68019558
:1057C0000095D3F820800D220DF10F0338213846C3
:1057D000C047C0B9382131480AF074FB4FF0FF319F
:1057E000284601F0DBFBC0B204F004FA80464420F6
:1057F00012F030FF4FF0050E382305464246394679
:105800008DE808409EE73A6801950095D2F820801F
:105810000DF10F03752268213846C047E0B96821B1
:105820001E480AF04FFB4FF0FF31284601F0B6FB4F
:10583000C0B204F0DFF980464C2012F00BFF4FF0AD
:10584000050E682305468DE8084042463946334632
:105850000CF090FA284611E714480AF033FBB068C0
:1058600000287FF40CAF4FF0FF31032001F096FBCE
:10587000C0B204F0BFF918B10D480AF023FB08E7E5
:105880000C480AF01FFB04E72C0500202C8F0100B8
:10589000348F0100548F0100EC8F01001090010043
:1058A000F08E0100648F0100788F0100FC8F0100F1
:1058B000908F0100CC8F0100248F010008B501F00A
:1058C00095FCFBF76DFCBDE8084001F0FDB900BF99
:1058D00008B501F08BFCFBF7D3FCBDE8084001F0F4
:1058E000F3B900BF08B501F081FC10F0E1F8BDE8A4
:1058F000084001F0E9B900BF08B501F077FC10F0ED
:10590000E9FCBDE8084001F0DFB900BF08B501F0CF
:105910006DFCFBF755FCBDE8084001F0D5B900BFB0
:1059200008B501F063FC10F001FBBDE8084001F090
:10593000CBB900BF08B501F059FCFAF7ADFEBDE8E0
:10594000084001F0C1B900BF08B501F04FFC10F0EC
:1059500041FABDE8084001F0B7B900BF70B5049E38
:1059600096420C4628DB15466BB1002A00EB02017B
:1059700007DD2046A21811F8013D00F8013B9042D6
:10598000F9D1002070BD042A0FD0022A02D110F0F4
:10599000010306D001462A46204606F071FD00208C
:1059A00070BD02880A80184670BD10F00303F1D163
:1059B00002680A60184670BD0846002107F050FFD3
:1059C0004FF0FF3070BD00BF0830704740B1002974
:1059D00005DB4368994202DA0844007A70470020E8
:1059E000704700BF30B1002904DB43689942BCBF57
:1059F00040180272704700BF40B1002905DB4368C0
:105A0000994202DA0844007A70470020704700BFCC
:105A1000830705D120B1030F0CBF01200020704780
:105A20000120704730B1002904DB43689942BCBFB4
:105A300040180272704700BF002B23DB002921DBD6
:105A400070B54668B1421ADC5568761A1446EA1AEF
:105A5000B242A8BF3246002A11DB84420D4607D06D
:105A6000083408300844E11806F00AFD002070BD33
:105A70000834E118601912F01BFE002070BD4FF0D1
:105A8000FF3070BD4FF0FF30704700BF4068704777
:105A900010B4141E10DB426894420DDC33EA230379
:105AA00028BF1346121B08309A422044A8BF1A464A
:105AB0005DF8044B07F0D4BE5DF8044B704700BF9F
:105AC00043688B4210B400F108041846A8BF08468A
:105AD00032EA220128BF19461B1A99422044A8BF66
