:020000040801F1
:1000000000800120A14E0208C9740208459A010827
:100010002DF902082DF902082DF902080000000050
:10002000000000000000000000000000CD74020885
:10003000D174020800000000D5740208D9740208C7
:100040002DF902082DF902082DF902082DF90208F0
:100050002DF902082DF902080D6B0208116B020838
:10006000156B0208196B02081D6B0208ED7102087E
:10007000FD7102080D7202081D7202082D7202083D
:100080003D7202084D7202082DF902082DF902088E
:100090002DF902082DF902082DF90208216B02083A
:1000A0002DF902082DF902082DF902082DF9020890
:1000B000D9550208E1550208E95502082DF9020850
:1000C0002DF902082DF902082DF90208097002081D
:1000D000157002082DF902082DF902082DF9020801
:1000E000256B02082DF902082DF902082DF90208E6
:1000F0002DF902082DF902082DF902085D72020897
:100100002DF902082DF90208F155020821700208A4
:100110002DF902082DF902082DF902082DF902081F
:100120006D7202087D7202088D7202089D720208CB
:10013000AD7202082DF902082DF902082DF9020806
:100140002DF902082DF902082DF902081D580208A0
:10015000BD720208CD720208DD7202082DF9020894
:100160002DF902082DF902082DF902082DF90208CF
:100170002DF902082DF902082DF9020800000000EF
:100180002DF902082DF902082DF902082DF90208AF
:100190002D7002082DF902082DF902082DF9020828
:1001A0002DF902082DF902082DF902082DF902088F
:1001B0002DF90208000000002DE9F04F85B00391F1
:1001C0000778A7F10903042B044607F07F0200F12A
:1001D0000100F5D9202AF3D02B2F04BF67780446FD
:1001E0002D2F72D09FED427B8DED007B4FF00008EC
:1001F0004FF000098FB34FF0000E4FF0000ADFF808
:1002000000B1754619E01CF051F980468946304628
:100210001CF0E6F842464B461BF096FF52468046DD
:1002200089465B46DDE9000135B31CF069FACDE98A
:100230000001AE4614F8017F7FB1A7F13006092E08
:1002400052465B4640464946DDD9C5B92E2F16D1E8
:1002500014F8017F0125002FEFD142464B46DDE91E
:1002600000011CF023F980468946039B404649461D
:100270001C6005B0BDE8F08F4FF0010EDAE7BEF16B
:10028000000F29D042464B46DDE900011CF00EF973
:1002900007F0DF07452F80468946E6D10399601CA9
:1002A0000A221EF073FF1649024600201CF05EFC75
:1002B00002460B46404649461CF0F8F880468946FF
:1002C0004046494605B0BDE8F08F9FED0B7B67784F
:1002D0008DED007B013489E7DFF828904FF00008AE
:1002E0004046494605B0BDE8F08F00BFAFF300803F
:1002F000000000000000F03F000000000000F0BF20
:10030000000024400000F87F2DE9F84F1646002336
:10031000002204460D461CF03BFB002840F09D8067
:1003200000220023204629461CF028FB28B1302259
:10033000002332707370BDE8F88F204629461DF007
:1003400025FA1CF063FB7BA3D3E9002381462946F1
:1003500020461CF01DFB002800F08680B9F1000F3C
:10036000C0F2BE804A4600206F491CF0FFFB0246E7
:100370000B46204629461CF0C3F904460D4666A1EB
:10038000D1E9000101274FF0000822462B461CF05E
:100390008DF80022654B1BF0D7FE1CF023FC002FCC
:1003A000CC464FF0FF3AC1464FF0000840F385803D
:1003B000DFF888E15E4C0122AEF1700945F6F325C5
:1003C0004FF02E0BA94208BFA0424FF0300309D3D3
:1003D000001B61EB0501A94208BFA04203F1010324
:1003E000F6D2DBB2337050EA010306F1010409D101
:1003F000BA4210DACE4502F101020CD026467EE860
:100400000245DFE7BA4204BF86F801B0B41CCE450E
:1004100002F10102F2D1B8F1000F0DD022463021D5
:1004200002F8011BC2F1010353442344002BF7DC03
:100430002AEAEA7301331C44BCF1010F4CD0652356
:10044000BCF1000F2370C5BF2B236370611CA11C7E
:100450006046BDE8F84F10F02BB805F100431D468B
:100460002D23337001365BE72DA3D3E9002320460B
:1004700029461CF0ABFA00287FF470AFB9F10E0FDB
:1004800009F101073DDDA9F10E0842460020264989
:100490001CF06CFB02460B46204629461CF030F946
:1004A0000022224B1BF050FE1CF09CFB002FA9F1F8
:1004B0000F0A4FF0010C3FF77BAF334630222E245A
:1004C00003F8022B74707FEA090618D01E4403F863
:1004D000012BB342FBD16BE700232370BDE8F88FFB
:1004E000C9F10002002010491CF040FB02460B46F7
:1004F000204629461BF0DAFF04460D463FE71E461C
:1005000056E7C9F10E0200200749C8461CF02EFB31
:100510004FF0010939E700BF0000901EC4BCD6426D
:1005200050EFE2D6E41A4B44000024400000E03FC4
:1005300000407A108DEDB5A0F7C6B03E100103085B
:1005400070B54FF0FF3006F085F804466FF07F403D
:1005500006F080F8064620461BF032FF00220C4BC6
:100560001BF0A4FF044630460D461BF029FF06A3EE
:10057000D3E900231CF0C4F802460B462046294666
:100580001BF0E2FD70BD00BF0000E0DFFFFF6F4326
:100590000000F03D000000002DE9F04F2DED028B32
:1005A000044683B0C0681BF01BFF80462069894663
:1005B0001BF016FF824660698B461BF011FF024656
:1005C00001F1004306460F46404649461CF08EFFA7
:1005D0001CF064FAE06205461CF04CFE01902846CF
:1005E0001CF00CFE019B054618461BF00BFF424613
:1005F0004B461BF05BFF8046284689461BF002FFF6
:1006000032463B461BF052FF02460B4640464946E7
:100610001BF098FD02460B46504659461CF066FFFB
:100620001CF03CFA002208EE100A0023304639463E
:100630001CF0CCF928B3B5EEC08AF1EE10FA1CDD3F
:1006400011A7D7E9006718EE100A1BF0DBFE02467F
:100650000B46304639461BF075FD32463B461BF0D3
:1006600073FD1CF01BFAA062E38843F00203E380F1
:1006700003B0BDEC028BBDE8F08F05A7D7E900679A
:10068000E1E784ED0A8AEFE7EA2E4454FB21F93FC3
:10069000EA2E4454FB21F9BF08B511F067F9DFEDEC
:1006A0000C7A07EE100A67EE277A17EE900A1BF015
:1006B000A9FE05A3D3E900231CF022F81CF0A6F93B
:1006C00008BD00BFAFF30080EA2E4454FB2119405F
:1006D0000000B4430000000008B511F05BF9DFED45
:1006E0000C7A07EE100A67EE277A17EE900A1BF0D5
:1006F00089FE05A3D3E900231CF002F81CF086F95B
:1007000008BD00BFAFF30080EA2E4454FB2119401E
:100710000000B443000000004F4A21F00043934220
:100720002DE970430D4604464FDC4C4A93420E4679
:100730000FDC45A3D3E900231BF006FD0022484B44
:100740001CF044F9002856D02B4620461946BDE837
:100750007083444A934242DCB3F1804F4BDD1CF07E
:100760001FFC2246804689462B46204629461BF020
:100770009DFE00223A4B1BF0E7FC1DF02FFC0246C9
:100780000B46404649461BF0DFFC02460B46002064
:1007900033491BF0B5FF424604460D464B464046E2
:1007A00049461BF0D1FC0B460246294620461BF069
:1007B000CBFC01F0FDFE04460B46002E0BDC03F1E2
:1007C000004320461946BDE870830B4602461BF0E5
:1007D000BBFC04460B4620461946BDE870831CF05E
:1007E000DFFB01F0E5FE1AA3D3E900231BF0ACFC0C
:1007F00004460B46E1E722462B46204629461BF0DD
:1008000055FE80468946204629461CF0C9FB002239
:100810000446134B0D46404649461BF095FC1DF01F
:10082000DDFB00220E4B1BF08FFC02460B464046C0
:1008300049461BF065FF22462B461BF085FC00F065
:10084000D3FA04460B46B8E79C7500883CE4377E33
:10085000EF39FAFE422EE63FFFFFEF7FFFFF2F3E0C
:100860000000F03F0000B0412DE9F84FC24B21F0ED
:1008700000469E420D468A46044610DDBF4B9E420E
:1008800000F3B58000F0B080BD4BBE49BE4CBAF15C
:10089000000FD8BF0B4620461946BDE8F88FBB4B6A
:1008A0009E4200F3C180A3F1DE739E4240F3AB8011
:1008B0004FF0FF3B22462B46204629461BF0F6FD13
:1008C00002460B46804689461BF0F0FD92A3D3E911
:1008D000002306460F461BF0E9FD91A3D3E9002350
:1008E0001BF032FC32463B461BF0E0FD8EA3D3E901
:1008F00000231BF029FC32463B461BF0D7FD8CA39E
:10090000D3E900231BF020FC32463B461BF0CEFD12
:1009100089A3D3E900231BF017FC32463B461BF0AA
:10092000C5FD87A3D3E900231BF00EFC42464B46CE
:100930001BF0BCFD84A3D3E90023804689463046E2
:1009400039461BF0B3FD82A3D3E900231BF0FAFB69
:1009500032463B461BF0AAFD7FA3D3E900231BF0E0
:10096000F1FB32463B461BF0A1FD7DA3D3E90023FA
:100970001BF0E8FB32463B461BF098FD7AA3D3E917
:1009800000231BF0DFFB32463B461BF08FFDBBF123
:10099000FF3F02460B466ED0404649461BF0D4FB53
:1009A00022462B461BF082FD794E7A4B4FEACB0B49
:1009B0005E449B44DBE900231BF0C4FB22462B462C
:1009C0001BF0C0FB0B460246D6E900011BF0BAFB48
:1009D000BAF1000F04460B46BFF65DAF01F10043CC
:1009E00020461946BDE8F88F00283FF44DAF224657
:1009F0002B46204629461BF0A7FB04460B46204603
:100A00001946BDE8F88F5AA3D3E900231BF09CFBDD
:100A10000022614B1BF0DAFF00283FF449AF2B4660
:100A200020461946BDE8F88F1CF0BAFA5B4B9E428F
:100A300004460D4630DCA3F550239E4255DC0246A9
:100A40000B461BF081FB0022534B1BF07BFB00226B
:100A500006460F464FF08043204629461BF074FBA4
:100A600002460B46304639461BF04AFE4FF0000B5B
:100A700004460D461EE7404649461BF065FB2246EC
:100A80002B461BF013FD0B460246294620461BF061
:100A900059FB04460B46FEE6414B9E421ADC0022FF
:100AA000404B1BF04FFB002206460F463D4B2046B5
:100AB00029461BF0FBFC0022374B1BF045FB02468E
:100AC0000B46304639461BF01BFE4FF0020B044626
:100AD0000D46EFE602460B46002033491BF010FEA0
:100AE0004FF0030B04460D46E4E600222A4B1BF0B0
:100AF00029FB002206460F46274B204629461BF0BD
:100B000023FB02460B46304639461BF0F9FD4FF0F9
:100B1000010B04460D46CDE611DA22E33AAD903FD3
:100B2000EB0D76244B7BA93F513DD0A0660DB13F24
:100B30006E204CC5CD45B73FFF8300922449C23F8C
:100B40000D5555555555D53F2F6C6A2C44B4A2BF51
:100B50009AFDDE522DDEAD3F6D9A74AFF2B0B33F19
:100B6000711623FEC671BC3FC4EB98999999C93F91
:100B70009C7500883CE4377EFFFF0F440000F07F47
:100B8000FB21F93FFB21F9BF182D4454FFFFDB3F48
:100B900020010308400103080000F03FFFFFF23F7F
:100BA000FF7F03400000F83F0000F0BF000000009E
:100BB0002DE9F047C1F30A59A9F2FF36132E0B466F
:100BC0000D46044607468846824622DC002E4FDB4F
:100BD0003D4A42FA06F901EA090202431ED038A34F
:100BE000D3E900231BF0B0FA002200231BF0EEFE35
:100BF00050B1002D04DD4FF4801343FA06F6B044E3
:100C000028EA09054FF0000A544629462046BDE867
:100C1000F087332E06DDB6F5806F3DD019462046AD
:100C2000BDE8F087A9F213494FF0FF3222FA09F923
:100C300010EA090FF2D022A3D3E900231BF084FAB3
:100C4000002200231BF0C2FE0028DDD0002D09DDAC
:100C5000142E2FD00123C6F1340603FA06F63719F5
:100C600028BF9844454627EA090A54462946CDE755
:100C700013A3D3E900231BF067FA002200231BF023
:100C8000A5FE0028C0D0002D0FDB55EA040709D0CF
:100C90004FF0000A0D4DB7E702460B461BF054FA21
:100CA0000446BCE7BA463D46AEE74FF0000A4FF0B7
:100CB0000045A9E705F10108D4E700BFAFF30080C4
:100CC0009C7500883CE4377EFFFF0F000000F03F7A
:100CD000C1F30A522DE9F843A2F2FF36132E0B4658
:100CE0000D460446884607461DDC002E40DB3C4A84
:100CF00042FA06F901EA09020243864618D036A3F1
:100D0000D3E900231BF020FA002200231BF05EFE33
:100D100020B1002D42DB28EA090500273C46294680
:100D20002046BDE8F883332E06DDB6F5806F2FD060
:100D300019462046BDE8F883A2F213424FF0FF396E
:100D400029FA02F910EA090FF2D023A3D3E900230C
:100D50001BF0FAF9002200231BF038FE0028DDD03A
:100D6000002D21DB454627EA09073C462946D7E7FF
:100D700019A3D3E900231BF0E7F9002200231BF09D
:100D800025FE0028CAD0002D19DB00273D46C5E707
:100D900002460B461BF0D8F90446CAE74FF480130D
:100DA00043FA06F6B044B6E7142E10D00123C6F17C
:100DB000340603FA06F6371928BF9844D2E725F01F
:100DC0000042084B224318BF1D460027A6E705F145
:100DD0000108C7E7AFF300809C7500883CE4377ECC
:100DE000FFFF0F000000F0BF2DE9F04FD64B9942F6
:100DF00089B00E460F46824613DCD44B21F00044E6
:100E00009C4218DD0022D24B1BF0B8FD002879D09F
:100E1000002200230020CF491BF072FC09B0BDE87E
:100E2000F08FCD4B99422FDD524633461BF08CF9A3
:100E300009B0BDE8F08FC94B9C4270DDC84B1F4420
:100E40009F427ED8504631460022C64B1BF07CF9AB
:100E50004FEA215BABF2FF3BBBF1000F04460D46AE
:100E60000F4640F3E081524633461BF06BF90246D1
:100E70000B460020BB491BF065F922462B461BF0B0
:100E80003FFCCDE900010BE0B74B9F42DADD0022C9
:100E90000023CDE900234FEA275B5446ABF2FF3B2A
:100EA000B24BC7F313079F4247F07F5500F3E7802B
:100EB00045F44015204629460022AA4B1BF042F972
:100EC000002204460D46AA4B1BF0F0FA22462B46A0
:100ED0001BF0ECFAA246CDE902012E468046894677
:100EE000002F3AD100220023204629461BF046FD60
:100EF000002800F0CE80BBF1000F40F0768100208A
:100F0000014695E752463346504631461BF01AF9E2
:100F100002460B461BF0F4FB09B0BDE8F08F00223F
:100F2000944B1BF011F9002200231BF04FFD002809
:100F300000F0CC80904B9C4200F3C8805046314674
:100F400076E700228A4B1BF0B1FA524633461BF07B
:100F5000ADFA4FF0000B8046894600224FF08043E7
:100F6000504631461BF0F0F802460B4650463146DB
:100F70001BF0C6FB02460B46CDE902231BF096FA96
:100F80005DA3D3E9002304460D461BF08FFA5CA352
:100F9000D3E900231BF0D8F822462B461BF086FA33
:100FA00059A3D3E900231BF0CFF822462B461BF0B0
:100FB0007DFA57A3D3E900231BF0C6F822462B463F
:100FC0001BF074FA54A3D3E900231BF0BDF82246AA
:100FD0002B461BF06BFA52A3D3E900231BF0B4F8A5
:100FE00022462B461BF062FA4FA3D3E900231BF0E5
:100FF000ABF822462B461BF059FA04460D46BBF1CE
:10100000000F00F0BB8058461BF0EAF948A3D3E973
:101010000023CDE904011BF049FA4246CDE906015F
:101020004B46204629461BF08FF8DDE902231BF0D2
:101030003DFA41A3D3E9002304460D46DDE904014E
:101040001BF034FADDE900231BF07EF802460B4664
:10105000204629461BF078F802460B464046494692
:101060001BF070F8524633461BF06CF802460B46F4
:10107000DDE906011BF066F809B0BDE8F08F45F424
:101080000015C7F5801720462946BF100BF1010B4C
:1010900012E72BA3D3E90023204629461BF006FACA
:1010A00002460B4600202F491BF04CF8DDE90223D5
:1010B0001BF0FCF906460F46BBF1000F6DD102464E
:1010C0000B46204629461BF03DF8B1E65246334612
:1010D000504631461BF0EAF90022254B1BF0E6F999
:1010E00002460B46504631461BF02CF809B0BDE8CD
:1010F000F08F00BFAFF3008044523EDF12F1C23FD9
:101100009FC678D0099AC33FDE03CB966446C73F9B
:10111000AF788E1DC571CC3F599322942449D23F9C
:1011200004FA97999999D93F935555555555E53FE7
:101130000000E0FE422EE63F763C7935EF39EA3D8D
:10114000555555555555E53F7982DA3FFFFFEF3F3D
:101150000000F0BF000050C3FFFFEF7FFFFF1F3E06
:101160003C412D400000F03FFFFF3F439DA00600A3
:101170000000E03F00005043FFFF8F3C42464B46DB
:101180001AF0E2FFDDE902231BF090F902460B465C
:10119000404649461AF0D6FFA2E758461BF020F910
:1011A00027A3D3E9002382468B461BF07FF926A3B1
:1011B000D3E9002380468946504659461BF076F90C
:1011C000DDE900231AF0C0FF02460B4630463946DF
:1011D0001AF0B8FF22462B461AF0B4FF02460B461F
:1011E000404649461AF0AEFF22E658461BF0F8F892
:1011F00015A3D3E9002306460F461BF057F9DDE996
:1012000000231AF0A1FF0EA3D3E9002304460D46E4
:10121000304639461BF04AF902460B46204629461D
:101220001AF092FF04E60022094B1AF08BFF0246E7
:101230000B46504631461AF085FF1EE6AFF300809C
:101240000000E0FE422EE63F763C7935EF39EA3D7C
:101250000000F03F0000000008B51CF01BFA04A3DA
:10126000D3E900231BF04CFA08BD00BFAFF30080A8
:10127000EF39FAFE422EE63F2DE9F043DFF8B48065
:101280008BB004460D4600F06BFF98F90030013337
:1012900006460F462BD022462B46204629461BF0F9
:1012A0009FFB814618BB204629461BF079FE1CA3F4
:1012B000D3E900231BF08AFBC8B11B4A98F9003020
:1012C000CDF820900321CDE90445CDE902458DE814
:1012D00006008BB9154B4FF06042CDE906236846F6
:1012E0001DF0C0FD70B1089B9BB9DDE90667304673
:1012F00039460BB0BDE8F0830D490020022BCDE943
:101300000601ECD11DF0FEFE22230360089B002B9A
:10131000EBD01DF0F7FE089B0360E6E7AFF300801B
:101320007DF8B98FCE338640F01C0308FFFFEF47EE
:101330000000F07F9A0300202DE9F043DFF8E480FD
:101340008BB004460D4600F0BBFF98F90030013326
:1013500006460F4633D0204629461DF07DFD70B36A
:1013600029A3D3E90023204629461BF02FFB814601
:1013700050BB27A3D3E90023204629461BF008FBD6
:10138000E8B198F90030244ACDF8209004260020D6
:101390000021022BCDE90445CDE9024500960192DA
:1013A000CDE9060129D068461DF05CFD28B3089BF5
:1013B0001BB11DF0A7FE089B0360DDE90667304600
:1013C00039460BB0BDE8F083134A98F9003001921A
:1013D00003210022CDE90445CDE9024500910892A0
:1013E0002BB90E4B4FF06042CDE90623DBE70C49E9
:1013F0000020022BCDE90601D5D11DF083FE22236A
:101400000360D4E7AFF30080EF39FAFE422E864046
:1014100051302DD5104987C0F81C0308FFFFEF4756
:101420000000F07F9A0300202DE9F84FC44E21F010
:101430000043B3420C4605460DDD03F1404303F57E
:101440008013034340F0B980002940F3408100201D
:101450000021BDE8F88FBB4EB34240F3A6800029BF
:10146000C0F2788102460B460020B7491AF06AFEA6
:101470000022B64B1BF01AF804460D461CF0AEFDD8
:1014800095A3D3E9002389468046294620461BF0D0
:101490000DF893A3D3E900231AF056FE22462B46FB
:1014A0001BF004F890A3D3E900231AF04BFE224668
:1014B0002B461AF0FBFF8EA3D3E900231AF044FE5B
:1014C00022462B461AF0F2FF8BA3D3E900231AF031
:1014D00039FE22462B461AF0E9FF89A3D3E90023FF
:1014E0001AF032FE22462B461AF0E0FF86A3D3E91B
:1014F000002382468B46204629461AF0D7FF84A354
:10150000D3E900231AF01EFE22462B461AF0CEFF26
:1015100081A3D3E900231AF017FE22462B461AF0C6
:10152000C5FF7FA3D3E900231AF00CFE22462B4609
:101530001AF0BCFF0022844B1AF006FE02460B464E
:10154000504659461BF0DCF842464B461AF0AEFFB7
:10155000002682468B4632464B46304649461AF0B4
:10156000A5FF02460B46204629461AF0EBFD3246FF
:1015700004460D464B46404649461AF0E5FD0246F4
:101580000B46204629461BF0BBF802460B46504648
:1015900059461AF0D9FD32464B461AF0D5FD02469F
:1015A0000B461AF0D1FDBDE8F88F694A93420EDC74
:1015B0005DA1D1E90001BDE8F88F02460B461AF0A3
:1015C000C1FD02460B461BF09BF8BDE8F88F0246B2
:1015D0000B461AF06BFF40A3D3E9002306460F46E3
:1015E0001AF064FF3EA3D3E900231AF0ADFD3246A2
:1015F0003B461AF05BFF3CA3D3E900231AF0A2FD9F
:1016000032463B461AF052FF39A3D3E900231AF0C1
:101610009BFD32463B461AF049FF37A3D3E900232E
:101620001AF090FD32463B461AF040FF34A3D3E94E
:1016300000231AF089FD32463B461AF037FF32A3E9
:10164000D3E9002380468946304639461AF02EFFFA
:101650002FA3D3E900231AF075FD32463B461AF05A
:1016600025FF2DA3D3E900231AF06EFD32463B4639
:101670001AF01CFF2AA3D3E900231AF063FD3246B7
:101680003B461AF013FF00222F4B1AF05DFD024675
:101690000B46404649461BF033F82A4623461AF0CB
:1016A00005FF02460B4622A1D1E900011AF04AFDCE
:1016B00002460B46284621461AF044FD02460B46D8
:1016C00019A1D1E900011AF03DFDBDE8F88F1AA17A
:1016D000D1E90001BDE8F88F09F7FD0DE13D023FBA
:1016E00088B20175E0EF493F3B8F68B52882A43F7F
:1016F0005544880E55C1C93F7D6FEB0312D6D43FC8
:10170000555555555555C53F82922EB1C5B8B33F75
:1017100059018D1B6C06E63FC88A599CE52A00409A
:101720004B2D8A1C273A0340182D4454FB21F93FC6
:10173000075C143326A6913C182D4454FB21094024
:10174000FFFFEF3FFFFFDF3F0000F03F0000E03F03
:101750000000603C00225C4B1AF0F6FC00225B4B60
:101760001AF0A4FE40A3D3E9002304460D461AF064
:101770009DFE3FA3D3E900231AF0E6FC22462B4648
:101780001AF094FE3CA3D3E900231AF0DBFC2246B6
:101790002B461AF08BFE3AA3D3E900231AF0D4FCAF
:1017A00022462B461AF082FE37A3D3E900231AF013
:1017B000C9FC22462B461AF079FE35A3D3E9002353
:1017C0001AF0C2FC22462B461AF070FE804689466B
:1017D000204629461CF002FC2FA3D3E9002306462D
:1017E0000F46204629461AF061FE2DA3D3E90023B7
:1017F0001AF0A8FC22462B461AF058FE2AA3D3E979
:1018000000231AF0A1FC22462B461AF04FFE28A313
:10181000D3E900231AF096FC22462B461AF046FE26
:101820000022294B1AF090FC02460B4640464946DE
:101830001AF066FF32463B461AF038FE1EA3D3E983
:1018400000231AF07FFC32463B461AF07DFC02462C
:101850000B461AF079FC02460B4619A1D1E90001AA
:101860001AF070FCBDE8F88F09F7FD0DE13D023F6D
:1018700088B20175E0EF493F3B8F68B52882A43FED
:101880005544880E55C1C93F7D6FEB0312D6D43F36
:10189000555555555555C53F82922EB1C5B8B33FE4
:1018A00059018D1B6C06E63FC88A599CE52A004009
:1018B0004B2D8A1C273A0340075C143326A6913C23
:1018C000182D4454FB2109400000F03F0000E03F88
:1018D000434A91422DE9F8430C46054639DD414A19
:1018E000914209DD02F17952914240DD02460B46F8
:1018F0001AF02AFCBDE8F88301F1404202F580129B
:10190000024330D0B1F1804F3ADC0022364B1AF05E
:1019100019FC02460B4604460D461AF015FC2246F9
:1019200006460F462B46204629461AF0BFFD0246C2
:101930000B46304639461AF007FC1CF04FFB0B46AD
:101940000246294620461AF0FFFBBDE8F843FFF7A0
:101950004BBA02460B461AF0F5FB02460B461AF04C
:10196000CFFEBDE8F88300200021BDE8F88300F039
:101970001FFE19A3D3E900231AF0E6FBBDE8F883A4
:1019800002460B461AF092FD0022174B1AF0DAFBC2
:101990001CF024FB2A4680468946234628462146D9
:1019A0001AF0D2FB424606460F464B4628462146D1
:1019B0001AF0CAFB02460B4600200B491AF0A0FEA3
:1019C0000B460246394630461AF0BCFBBDE8F843E8
:1019D00000F0EEBDAFF30080EF39FAFE422EE63F95
:1019E000FFFFEF3FFFFFAF410000F03F00000000AE
:1019F0002DE9F047C44B21F00048984584B00D46CE
:101A0000044616DD08F1404808F58018034658EAF8
:101A1000030326D002460B461AF094FB0B460246FF
:101A20001AF06EFE04460B462046194604B0BDE887
:101A3000F087B64B98458A462EDCB8F1795F80F284
:101A40006D8195A3D3E900231AF07EFB0022B04BF1
:101A50001AF0BCFF00B32B462046194604B0BDE87F
:101A6000F0878FA3D3E900231AF020FD8EA3D3E9DA
:101A7000002306460F46204629461AF017FD024667
:101A80000B46304639461AF05FFB04460B462046AB
:101A9000194604B0BDE8F087204629461BF080FABD
:101AA00002460B4600209A491AF04CFB0022994B43
:101AB0001AF0FCFC7EA3D3E9002304460D461AF07D
:101AC000F5FC7DA3D3E900231AF03EFB22462B460A
:101AD0001AF0ECFC7AA3D3E900231AF033FB224678
:101AE0002B461AF0E3FC78A3D3E900231AF02CFB71
:101AF00022462B461AF0DAFC75A3D3E900231AF02C
:101B000021FB22462B461AF0D1FC73A3D3E9002314
:101B10001AF01AFB22462B461AF0C8FC70A3D3E930
:101B20000023CDE90001204629461AF0BFFC6EA330
:101B3000D3E900231AF006FB22462B461AF0B6FC26
:101B40006BA3D3E900231AF0FFFA22462B461AF0C2
:101B5000ADFC69A3D3E900231AF0F4FA22462B4620
:101B60001AF0A4FC6A4B00221AF0EEFACDE9020149
:101B7000204629461CF032FA674B984506460F4628
:101B800067DCDDE90223DDE900011AF0B9FD324628
:101B9000CDE900013B46304639461AF0D5FA0246F7
:101BA0000B46DDE900011AF081FC4FF00008CDE999
:101BB000000142463B46404639461AF077FC024651
:101BC0000B46204629461AF0BDFA424604460D4609
:101BD0003B46304639461AF0B7FA02460B462046D5
:101BE00029461AF08DFD02460B461AF0ADFA024660
:101BF0000B462DA1D1E900011AF0A4FA02460B46CA
:101C0000DDE900011AF09EFA424604460D463B46C5
:101C1000404639461AF098FA02460B4638A1D1E9F7
:101C200000011AF08FFA02460B46204629461AF0A8
:101C300089FA0B46024632A1D1E900011AF082FA74
:101C400004460B46BAF1000F3FF7EEAE03F1004336
:101C5000EAE6DDE90223DDE900011AF051FD324632
:101C60003B461AF023FC32463B461AF06DFA024618
:101C70000B461AF069FA0CA3D3E900231AF062FAB2
:101C80000B46024606A1D1E900011AF05BFA0446B0
:101C90000B46D7E7AFF300809C7500883CE4377EA5
:101CA000182D4454FB21F93F075C143326A6913CC0
:101CB00009F7FD0DE13D023F88B20175E0EF493FB4
:101CC0003B8F68B52882A43F5544880E55C1C93F53
:101CD0007D6FEB0312D6D43F555555555555C53F2D
:101CE00082922EB1C5B8B33F59018D1B6C06E63FF9
:101CF000C88A599CE52A00404B2D8A1C273A03408C
:101D0000182D4454FB21E93FFFFFEF3FFFFFDF3F6A
:101D10000000F03F0000E03F3233EF3F02460B4649
:101D20001AF0C4FB38A3D3E9002306460F461AF085
:101D3000BDFB37A3D3E900231AF006FA32463B462F
:101D40001AF0B4FB34A3D3E900231AF0FBF93246AE
:101D50003B461AF0ABFB32A3D3E900231AF0F4F9A7
:101D600032463B461AF0A2FB2FA3D3E900231AF018
:101D7000E9F932463B461AF099FB2DA3D3E900233B
:101D80001AF0E2F932463B461AF090FB2AA3D3E957
:101D9000002380468946304639461AF087FB28A33F
:101DA000D3E900231AF0CEF932463B461AF07EFB07
:101DB00025A3D3E900231AF0C7F932463B461AF0AF
:101DC00075FB23A3D3E900231AF0BCF932463B4646
:101DD0001AF06CFB0022204B1AF0B6F902460B46B3
:101DE000404649461AF08CFC22462B461AF05EFB10
:101DF00022462B461AF0A8F904460B4620461946FF
:101E000004B0BDE8F08700BF09F7FD0DE13D023FDA
:101E100088B20175E0EF493F3B8F68B52882A43F47
:101E20005544880E55C1C93F7D6FEB0312D6D43F90
:101E3000555555555555C53F82922EB1C5B8B33F3E
:101E400059018D1B6C06E63FC88A599CE52A004063
:101E50004B2D8A1C273A03400000F03F0000000091
:101E60002DE9F84F5442144323F00049704E49EADB
:101E7000D474B44286460F4640D84442044321F00D
:101E8000004B4BEAD474B4428A4637D803F140443D
:101E900004F5801414434AD09C1704F0020444EA69
:101EA000D17450EA0B0131D052EA090137D0B14563
:101EB00052D0B34533D0ABEB09094FEA2959B9F1F8
:101EC0003C0F3BDC002B66DB704639461AF018FCF1
:101ED0001BF066F8FEF7C8FC012C58D0022C48D045
:101EE000002C5ED040A3D3E900231AF02BF940A3C5
:101EF000D3E900231AF026F9BDE8F88F10461946F9
:101F000072463B461AF020F9BDE8F88F022C19D032
:101F1000032C10D138A1D1E90001BDE8F88FBAF146
:101F2000000F14DB36A1D1E90001BDE8F88FBDE850
:101F3000F84FFEF799BC3946BDE8F88F30A1D1E9DA
:101F40000001C9E72AA1D1E90001BDE8F88F2EA15F
:101F5000D1E90001BDE8F88FCB4524D0022CF1D0A7
:101F6000032CD7D0012C4FF0000027D00021BDE872
:101F7000F88F1DA3D3E900231AF0E4F802460B46BC
:101F80001BA1D1E900011AF0DDF8BDE8F88F01F1DD
:101F90000041BDE8F88F19F13C0F95DA00200021CF
:101FA0009AE7BDE8F88F022C16D0032C0FD0012C35
:101FB00008D017A1D1E90001BDE8F88F4FF000412A
:101FC000BDE8F88F14A1D1E90001BDE8F88F14A194
:101FD000D1E90001BDE8F88F13A1D1E90001BDE806
:101FE000F88F00BFAFF30080075C143326A6A13C36
:101FF000182D4454FB210940182D4454FB2109C0DD
:10200000182D4454FB21F93F182D4454FB21F9BFEE
:10201000182D4454FB21E93F182D4454FB21E9BFFE
:10202000D221337F7CD902C0D221337F7CD90240B8
:102030000000F07F0000000043422DE9F047034319
:1020400021F00048424A48EAD373934206460F46BD
:1020500016D890454BD03F4B98458A461EDC3AA394
:10206000D3E9002304461AF06FF8002200231AF087
:10207000ADFC002845D03B4620461946BDE8F08718
:1020800002460B461AF05EF80B4602461AF038FB81
:1020900004460B4620461946BDE8F0872E4B98456E
:1020A000044645462FDD0246434641461AF04CF8A9
:1020B000224606460F464346002025491AF042F8BC
:1020C00002460B46304639461AF01AFBFEF78CFEE4
:1020D000224B00221AF0EAF9BAF1000F04460B462F
:1020E000D8DA01F1004320461946BDE8F087002206
:1020F00000231AF005FB04460B4620461946BDE8AE
:10210000F0873446454622462B46204629461AF09B
:102110001BF822462B4606460F461AF0C7F9224600
:10212000804689462B46002009491AF00BF80246E2
:102130000B46404649461AF0E3FA32463B461AF04F
:1021400003F8C3E7AFF300809C7500883CE4377E5A
:102150000000F03FFFFF2F3EFFFFDF3F0000E03FAA
:102160004F4A2DE9F84321F0004494420B460546BE
:102170001BDC4C4A944222DD4B4A944263DD4B4ABD
:1021800094427BDD4A4A944246DD0132944240D07B
:1021900041A3D3E90023104619461AF087F90646F1
:1021A0000F4630463946BDE8F88302460B461AF022
:1021B0007DF906460F4630463946BDE8F8831AF0E9
:1021C000EFFE02F0A9FC00223A4B8046894619F046
:1021D000BBFFB4F1725F06460F46ECDB42464B464E
:1021E000404649461AF062F932463B4604460D46DF
:1021F0003046394619F0A8FF02460B4620462946CC
:102200001AF07EFA00222B4B19F09EFF06460F466D
:10221000D1E7294A9042BBD8284619461AF0C0FE99
:102220000022264B1AF042F900F04AF80022044638
:102230000D46224B1AF03AF922462B461AF036F98F
:1022400006460F46B7E71AF0ABFE00F039F8002259
:102250001A4B06460F461AF029F932463B46044609
:102260000D46002015491AF04BFA02460B4620464F
:10227000294619F069FF06460F469CE71AF090FEC2
:1022800000F01EF800220D4B1AF010F906460F461A
:1022900091E700BFAFF300809C7500883CE4377E77
:1022A000FFFFEF7F422ED63FFFFF3540412E864095
:1022B000CD3386400000F03F7DF8B98F0000E03F4D
:1022C0002DE9F04FB04F21F00042BA4283B00C46E6
:1022D0004FEAD17605460DD9AC4FBA4225D9C1F3A4
:1022E0001303034340F0EF800EB10020014603B01A
:1022F000BDE8F08FA64B9A4200F2CC80A54B9A42E3
:1023000000F2DE808AA3D3E9002319F01DFF00222A
:10231000A14B1AF05BFB002800F0058128462146FE
:1023200000229D4B19F010FFE1E783A3D3E90023BE
:102330001AF04CFB002840F0CB802846214680A3B1
:10234000D3E900231AF024FB0028CED1934B284672
:1023500003EBC60621467CA3D3E900231AF0A6F8B6
:10236000D6E9002319F0F0FE1AF050FB80461AF06F
:1023700037F877A3D3E9002306460F461AF096F8FC
:1023800002460B462846214619F0DCFE72A3D3E92B
:102390000023CDE90001304639461AF087F882461D
:1023A0008B4652465B46DDE9000119F0CBFE05463F
:1023B0000C462A462346284621461AF077F868A399
:1023C000D3E9002306460F461AF070F866A3D3E956
:1023D000002319F0B7FE32463B461AF067F864A3B3
:1023E000D3E9002319F0B0FE32463B461AF05EF8FE
:1023F00061A3D3E9002319F0A5FE32463B461AF04B
:1024000055F85FA3D3E9002319F09EFE32463B4600
:102410001AF04CF802460B462846214619F092FE67
:1024200006460F462846214632463B46B8F1000F85
:1024300056D01AF03BF8324604460D463B46002083
:102440004FF0804119F07EFE02460B462046294699
:102450001AF056F902460B465046594619F072FEDC
:10246000DDE9002319F06EFE0B4602464A490020C2
:1024700019F068FE6FF47F7398454FDA08F57A78A3
:1024800001EB085100224FF0B8731AF00FF803B0B7
:10249000BDE8F08F424B9A423FF658AF414BF400F3
:1024A0002344D3E9002319F04DFE3F4BC6F1010848
:1024B0002344CDE90001D3E900ABA8EB060870E79F
:1024C0004FF0000875E702460B4619F03DFE0EE797
:1024D00017A3D3E900231046194619F0E7FF06E7D2
:1024E00019F0E4FF0022804689464FF080433046D1
:1024F000394619F027FE02460B46404649461AF077
:10250000FFF82A46234619F01DFE02460B4600201E
:10251000214919F017FE03B0BDE8F08F01EB085117
:1025200003B0BDE8F08F804643E700BFAFF3008003
:102530009C7500883CE4377EEF39FAFE422E8640D7
:1025400051302DD5104987C0FE822B654715F73FC6
:102550000000E0FE422EE63F763C7935EF39EA3D59
:10256000D0A4BE726937663EF16BD2C541BDBB3E99
:102570002CDE25AF6A56113F93BDBE166CC1663F77
:102580003E5555555555C53F412E8640FFFFEF7FBF
:10259000422ED63FFFFF2F3E0000F03F60010308B0
:1025A000B1A2F03F700103088001030800000000A1
:1025B0002DE9F04FB1F5801F85B006460F460B465A
:1025C0005ADA024621F00044224300F0F880002944
:1025D000C0F27A810022D64B19F068FFD54A0B462B
:1025E000934206460F466FF0350C4ADCC3F31305E1
:1025F00005F5152E0EF6647E0EF4801E8EF07F52C9
:1026000082F440121C1542EA0507A4F2FF34644428
:102610000022C94B3046394604EB1E5419F092FD96
:10262000AB1CC3F31303022B82468B464FF0000210
:1026300030DC00231AF0A2F9002800F0C980002C39
:1026400000F04B81204619F0CBFEA5A3D3E900236F
:1026500006460F4619F02AFFA3A3D3E90023044638
:102660000D463046394619F021FF02460B462046FA
:10267000294619F069FD0AE0AE4A93424FF0000C7A
:10268000B4DD32463B463046394619F05DFD05B0B3
:10269000BDE8F08F4FF0804319F056FD02460B461F
:1026A000504659461AF02CF8064620460F4619F0B7
:1026B00097FE3246CDE900013B4630463946CDE92A
:1026C000026719F0F3FE02460B468046894619F070
:1026D000EDFE87A3D3E9002306460F4619F0E6FE78
:1026E00085A3D3E9002319F02FFD32463B4619F0AC
:1026F000DDFE83A3D3E9002319F026FD32463B46D5
:1027000019F0D4FE80A3D3E9002319F01DFD424641
:102710004B4619F0CBFE7EA3D3E9002380468946C1
:102720003046394619F0C2FE7BA3D3E9002319F0E5
:102730000BFD32463B4619F0B9FE79A3D3E90023DD
:1027400019F002FD32463B4619F0B0FE0B46024638
:102750004946404619F0F8FCA5F5C223C5F5D72532
:10276000A3F27A4351351D43002D8046894656DD3C
:102770000022724B5046594619F098FE52465B466D
:1027800019F094FE06460F46002C68D132463B46AF
:102790004046494619F0D8FCDDE9022319F086FECF
:1027A00002460B463046394619F0CCFC02460B4631
:1027B0005046594619F0C6FC05B0BDE8F08F00221E
:1027C000002300205E4919F09BFF05B0BDE8F08FA3
:1027D00055A3D3E900235046594619F067FE024637
:1027E0000B460020554919F0ADFC524606460F46EF
:1027F0005B465046594619F059FE02460B46304694
:10280000394619F053FE06460F46002C40F09A80D8
:1028100002460B465046594619F094FC37E7002C07
:1028200000F0A4802EA3D3E90023DDE9000119F014
:102830003DFE42464B4604460D465046594619F069
:1028400081FCDDE9022319F031FE27A3D3E900233F
:1028500006460F46DDE9000119F028FE21E020A31D
:10286000D3E90023DDE9000119F020FE32463B46A2
:1028700004460D464046494619F066FCDDE9022350
:1028800019F014FE18A3D3E9002380468946DDE938
:10289000000119F00BFE02460B464046494619F06E
:1028A00053FC02460B463046394619F04BFC524663
:1028B0005B4619F047FC02460B462046294619F0B4
:1028C00041FC05B0BDE8F08F02460B4619F03AFC1A
:1028D0000022002319F014FFD9E600200021D6E6DB
:1028E0000000E0FE422EE63F763C7935EF39EA3DC6
:1028F00044523EDF12F1C23FDE03CB966446C73F2F
:10290000599322942449D23F935555555555E53F47
:102910009FC678D0099AC33FAF788E1DC571CC3F52
:1029200004FA97999999D93F555555555555D53F1D
:1029300000005043FFFFEF7F0000F03F0000E03F4A
:10294000000050C3204619F04BFD0FA3D3E900232C
:102950008046894619F0AAFD0DA3D3E90023044659
:102960000D464046494619F0A1FD9AE702460B463E
:102970005046594619F0E6FBDDE9022319F096FDB1
:1029800014E700BFAFF300800000E0FE422EE63FF8
:10299000763C7935EF39EA3DB1F5801F2DE9F843F2
:1029A00004460D460B461ADA024621F00046324331
:1029B00059D000295FDB00223B4B19F077FD3B4AE1
:1029C0000B4693420D4604466FF035010CDD22465E
:1029D0002B462046294619F0B7FBBDE8F883334A59
:1029E00093424FF00001F2DC1815A0F2FF300844CA
:1029F0004FEAD0794844C3F3130819F0F1FCC9F544
:102A00007F73033348EA035506460F46204629469E
:102A1000FFF7CEFD1EA3D3E900238046894630464A
:102A2000394619F043FD1CA3D3E9002304460D46A3
:102A30004046494619F03AFD02460B4620462946D3
:102A400019F082FB16A3D3E9002304460D46304655
:102A5000394619F02BFD02460B462046294619F04F
:102A600073FBBDE8F883002200230020104919F011
:102A700047FEBDE8F88302460B4619F063FB0022CF
:102A8000002319F03DFEBDE8F88300BFAFF30080DE
:102A9000362BF111F3FE593D0EE526157BCBDB3FBE
:102AA00000609F501344D33F00005043FFFFEF7F6F
:102AB000000050C3000000002DE9F04F23F0004754
:102AC00057EA020493B037D0674C21F00046A64283
:102AD00083460D4629DC9A46964625D0A74224DC3B
:102AE000614CA74279D0002D89468046CDE900236C
:102AF00077DB0024BEF1000F2CD15B4B9F4200F02E
:102B00008B805A4B9F4261D0BAF1804F00F0BA835C
:102B1000574B9A451ED1002D1CDB4046494613B049
:102B2000BDE8F04F1BF05ABA58B106F1404606F521
:102B3000801656EA0B0306D14C49002013B0BDE8BD
:102B4000F08FB742CCDD4B4813B0BDE8F04F1CF01E
:102B50008BB90024404649461AF022FABBF1000F17
:102B600019D126B1414B25F040429A4213D1BAF116
:102B7000000FC0F2BC83002DE0DA06F1404606F5F6
:102B8000801656EA040300F08F84012CD6D101F19F
:102B900000431946D2E7ED0F013D54EA05034ED03C
:102BA000354B9F426EDD03F104739F4240F3E8838F
:102BB000324B9E424EDDBAF1000F4EDD28A3D3E921
:102BC00000231046194619F071FCB7E7BAF1000F5F
:102BD000C0F23C8440464946B0E7BEF1000F82D0C7
:102BE000A3E7274B9F4228DCA3F154739F4280DD6B
:102BF0003B15A3F2FF33142B40F33E84C3F134039F
:102C00002EFA03F202FA03F39E457FF472AF02F04C
:102C10000102C2F102046DE706F1404303F580139F
:102C200053EA0B0388D0154B9E4240F33283BAF12E
:102C3000000F12DBDDE9000180E702245AE742467B
:102C40004B464046494619F07DFA02460B4619F0BC
:102C500057FD73E7BAF1000FB0DB002000216DE7EC
:102C60009C7500883CE4377E0000F07F0000F03F58
:102C70000000E03F840A03080000E041FFFFEF3F4F
:102C8000FFFF3F43B6F5801F4FF0000205DAD44B3B
:102C900019F00CFC6FF034020E463315D14FC6F319
:102CA0001306A3F2FF33134446F07F5ABE421A467E
:102CB0000D934AF4401A40F32183CB4B9E4240F3DC
:102CC000FD83134601330D93C84B0022CDE9062343
:102CD00000270026CDE90867CDE90E67AAF5801A1E
:102CE0000027024653465146CDE90A23DDE9062373
:102CF00019F028FADDE9062380468946DDE90A0154
:102D000019F022FA02460B460020B84919F0F8FCE7
:102D10000A460146CDE9101213464946024640468E
:102D200019F0C4FB4FEA6A0343F000538C46834614
:102D300003F50023CDE904BCDA468B46D9190023FC
:102D4000CDE902AB0293DDE902AB002006460F4657
:102D500002460B465046594619F0A8FB02460B4660
:102D60004046494619F0EEF9DDE9062380468946DA
:102D70003046394619F0E6F902460B46DDE90A010C
:102D800019F0E0F952465B4619F090FB02460B46FB
:102D90004046494619F0D6F9DDE9102319F086FBC3
:102DA000DDE90467CDE9060132463B463046394647
:102DB00019F07CFB78A3D3E9002306460F4619F0EF
:102DC00075FB77A3D3E9002319F0BEF932463B46E1
:102DD00019F06CFB74A3D3E9002319F0B5F932465E
:102DE0003B4619F063FB72A3D3E9002319F0ACF959
:102DF00032463B4619F05AFB6FA3D3E9002319F082
:102E0000A3F932463B4619F051FB6DA3D3E90023E9
:102E100019F09AF93246804689463B463046394693
:102E200019F044FB02460B464046494619F03EFB6A
:102E3000524606460F465B46DDE9040119F084F967
:102E4000DDE9062319F032FB32463B4619F07CF9E6
:102E50005246804689465B465046594619F026FB45
:102E60000022634BCDE90A0119F06EF942464B4648
:102E700019F06AF902980F46064632463B4650461C
:102E8000594619F013FB002282468B46584B3046B8
:102E9000394619F057F9DDE90A2319F053F90246CA
:102EA0000B464046494619F04DF9DDE9042319F077
:102EB000FDFA3246804689463B46DDE9060119F0B7
:102EC000F5FA02460B464046494619F03DF9804660
:102ED000894602460B4650465946CDE904AB19F0E7
:102EE00033F9DDE902AB38A3D3E9002350460F469E
:102EF00019F0DCFADDE90423CDE902013946504638
:102F000019F020F902460B464046494619F01AF9D5
:102F10002FA3D3E9002319F0C9FA2FA3D3E9002383
:102F2000804689465046394619F0C0FA02460B469B
:102F30004046494619F008F9DDE90E2319F004F975
:102F400080460D98894619F04BFA424606460F46D0
:102F50004B46DDE9020119F0F7F8DDE9082319F025
:102F6000F3F832463B4619F0EFF832463B465046FE
:102F70008B4619F0E7F8DDE9082319F0E3F8DDE9FD
:102F8000022319F0DFF802460B464046494619F085
:102F9000D9F880462EE000BFEF4E454A287ECA3F52
:102FA00065DBC9934A86CD3F01411DA96074D13FBD
:102FB0004D268F515555D53FFFAB6FDBB66DDB3FCF
:102FC000033333333333E33F000000E009C7EE3F00
:102FD000FD033ADC09C7EE3FF5015B14E02F3EBE6E
:102FE000000040438E98030079B60B000000F03FCC
:102FF000000008408946013C54EA0503DDE9000170
:1030000014BFD94CD94C0023CDE9043403460C46F7
:10301000CDE9023400230293DDE9024522462B4626
:1030200019F090F852465B4619F040FADDE90023AA
:1030300006460F464046494619F038FA02460B4606
:103040003046394619F080F82246804689462B469C
:1030500050465946CDE9008919F028FA0B46024638
:1030600006460F464046494619F06EF8C04B994255
:1030700004460D468A4640F3168101F13F4303F5AD
:10308000E003034340F0EA81A3A3D3E90023DDE991
:10309000000119F059F83246804689463B462046E1
:1030A000294619F04FF802460B464046494619F0AA
:1030B0008DFC002840F0D281A8464FEA28534FF4F7
:1030C0008012A3F2FE3342FA03F35344C3F30A52CD
:1030D000A84DA2F2FF321541C3F3130423EA050100
:1030E0000020C2F1140B44F48014BAF1000F024620
:1030F0000B4644FA0BFB30463946B8BFCBF1000B08
:1031000019F020F802460B4606460F46DDE900019D
:1031100019F01AF84FEA0B5A0D46002480A3D3E9A0
:1031200000232046294619F0C1F9324680468946D7
:103130003B462046294619F005F802460B46DDE9D4
:10314000000118F0FFFF78A3D3E9002319F0AEF9CE
:1031500077A3D3E9002306460F462046294619F0F7
:10316000A5F902460B463046394618F0EDFF0646F3
:103170000F4602460B464046494618F0E5FF4246D8
:103180004B4604460D4618F0DDFF02460B4630461E
:10319000394618F0D7FF2246804689462B462046FE
:1031A000294619F083F964A3D3E9002306460F46A4
:1031B00019F07CF962A3D3E9002318F0C3FF32466B
:1031C0003B4619F073F960A3D3E9002318F0BCFF64
:1031D00032463B4619F06AF95DA3D3E9002318F0A3
:1031E000B1FF32463B4619F061F95BA3D3E90023F6
:1031F00018F0AAFF32463B4619F058F902460B4632
:103200002046294618F09EFF06460F4602460B460A
:103210002046294619F04AF90022CDE900014FF075
:1032200080433046394618F08DFF02460B46DDE9F3
:10323000000119F065FA424606460F464B46204605
:10324000294619F033F942464B4618F07DFF0246F5
:103250000B463046394618F075FF22462B4618F0CB
:1032600071FF02460B4600203F4918F06BFF8A446D
:10327000BAF5801FC0F233815146DDE9042319F00D
:1032800015F95BE4424640464B46494619F00EF9B3
:1032900054E4BAF1000FBFF6E0ACDDE900341846A3
:1032A00004F100414AE4344B21F00048984540F3D2
:1032B000F280324B0B4403430CD132463B4618F0AC
:1032C00041FF02460B46DDE9000119F06BFB0028C7
:1032D0003FF4F3AEDDE9040121A3D3E9002319F0A3
:1032E000E5F81FA3D3E9002319F0E0F826E402462D
:1032F0000B4600201C4919F003FA3CE4002200238D
:10330000CDE90823CDE90E23174B00220027CDE994
:103310000623E6E4AFF30080FE822B654715973C59
:1033200000000000432EE63FEF39FAFE422EE63F52
:10333000396CA80C615C20BED0A4BE726937663EB1
:10334000F16BD2C541BDBB3E2CDE25AF6A56113FA5
:1033500093BDBE166CC1663F3E5555555555C53F8C
:1033600059F3F8C21F6EA5010000F03F0000F0BF46
:10337000FFFF8F40FFFF0F00FFCB904000346F3FF7
:103380006B4B9E427FF766AC6A4B9E423FF713AC95
:103390000022684B18F0D6FE57A3D3E90023064657
:1033A0000F4619F083F856A3D3E9002380468946D7
:1033B0003046394619F07AF8002282468B465E4B39
:1033C0003046394619F072F802460B464EA1D1E953
:1033D000000118F0B7FE32463B4619F067F8024686
:1033E0000B460020554918F0ADFE3246CDE90201EA
:1033F0003B463046394619F059F802460B46DDE99E
:10340000020119F053F842A3D3E9002319F04EF852
:1034100002460B465046594618F094FE02460B46AB
:1034200006460F464046494618F08EFE42464B4639
:10343000002082468B4618F085FE02460B46304639
:10344000394618F07FFE80468946D4E542464B4611
:103450000020384919F054F9FFF770BBDDE9040189
:103460002DA3D3E9002319F021F82BA3D3E90023DE
:1034700019F01CF8FFF762BBBEF1000F7FF469ABD7
:10348000C3F1140347FA03F202FA03F39F422AD06E
:103490007446FFF736BB294B98453FF70EAEDDE982
:1034A00002239246934638E602460B4618F04AFE3F
:1034B00002460B4619F024F9FFF740BB18A3D3E9E5
:1034C0000023CDE9082318A3D3E90023CDE90E2377
:1034D0001B4B00224FF48027CDE9062301E45A4616
:1034E00001F05AFDC9E602F00102C2F10204FFF741
:1034F00008BB00BFAFF30080000000604715F73F36
:1035000044DF5DF80BAE543E555555555555D53FE6
:10351000FE822B654715F73F9C7500883CE4377E9B
:103520000000004003B8E23F06D0CF43EBFD4C3E25
:10353000FEFFEF3F0000F03F0000D03F0000E03F03
:103540000000F83F000000002DE9F04F9A4E21F0F6
:103550000047B74291B040F38E809246974A974217
:103560000C4626DC00298AA3D3E9002340F3B4816A
:1035700018F0E8FD924B9F4204460D4600F0908003
:1035800085A3D3E9002318F0DDFD02460B46CAE906
:1035900000232046294618F0D5FD7FA3D3E9002358
:1035A00018F0D0FD0125CAE90201284611B0BDE896
:1035B000F08F844A974240F39080834A974265DCBB
:1035C0003D15A5F21645A7EB055319461F460646BD
:1035D00019F01CFA18F004FF8046894602460B4693
:1035E00030463946CDE90A8918F0ACFD0022774B08
:1035F00018F05CFF8946804619F008FA18F0F0FED2
:1036000002460B4606460F4640464946CDE90C6742
:1036100018F098FD00226D4B18F048FF002200239F
:10362000CDE90E0119F0AAF9002800F073810023FA
:1036300030463946002219F0A1F9002814BF0123B1
:103640000223634A019202212A4600910AA85146A8
:1036500000F086FB002C054614DADAF80420DAF8CC
:103660000C3002F1004203F100434542CAF8042045
:10367000CAF80C3006E0C2E9000100250024C2E9C6
:1036800002450025284611B0BDE8F08F02460B46E2
:1036900018F058FD0025CAE90201CAE90001F1E766
:1036A0003FA3D3E9002318F04DFD3FA3D3E9002346
:1036B0000D46044618F046FD02460B46CAE90023B3
:1036C0002946204618F03EFD37A3D3E9002318F021
:1036D00039FD0125CAE90201D4E719F061FC34A3E0
:1036E000D3E900238046894618F0E0FE0022394BDA
:1036F00018F02AFD19F08AF9054618F071FE24A386
:10370000D3E90023CDE9040118F0D0FE02460B46B0
:103710004046494618F016FD1FA3D3E90023804612
:103720008946DDE9040118F0C1FE1F2DCDE9020133
:1037300054DC294B6A1E53F822309F424ED0024679
:103740000B464046494618F0FDFC02460B46CAE9C6
:10375000002383460E465A4633464046494618F0F3
:10376000F1FCDDE9022318F0EDFC002C02460B46CB
:10377000CAE9022386DA5B4606F1004601F1004100
:103780008AE84800CAF80C10CAF808006D4279E7C8
:1037900000004054FB21F93F3163621A61B4D03D0F
:1037A0000000601A61B4D03D7370032E8A19A33BE8
:1037B00083C8C96D305FE43FFB21E93F7BD90240FC
:1037C000FB21F93FFB213941FFFFEF7F00007041F2
:1037D000AC1D03080000E03F2C1D0308DDE90223B7
:1037E0004046494618F0AEFC3A15C1F30A53D31AC5
:1037F000102B83460E460992CAE90001ABDD58A39F
:10380000D3E90023DDE9040118F050FE06460F4617
:1038100002460B464046494618F094FCCDE90601A5
:1038200002460B464046494618F08CFC32463B4661
:1038300018F088FC4CA3D3E9002306460F46DDE9C7
:10384000040118F033FE32463B4618F07BFCDDE9FC
:103850000689CDE9020102460B464046494618F06A
:1038600071FC0B46C1F30A570E460999CF1B02465D
:10387000312F8346CAE900236CDD3DA3D3E9002341
:10388000DDE9040118F012FE06460F4602460B461B
:1038900040464946CDE9068918F054FC02460B46DD
:1038A00080468946DDE9060118F04CFC32463B466D
:1038B00018F048FC30A3D3E9002306460F46DDE9A3
:1038C000040118F0F3FD32463B4618F03BFC02467B
:1038D0000B46CDE9022334E718F036FC2A4B9F4211
:1038E00004460D4618D026A3D3E9002318F02CFC7B
:1038F00002460B46CAE900232946204618F022FC5E
:103900001FA3D3E9002318F01FFC4FF0FF35CAE9CD
:103910000201B7E6032394E611A3D3E9002318F0CC
:1039200013FC11A3D3E900230D46044618F00CFC48
:1039300002460B46CAE900232946204618F002FC3D
:1039400009A3D3E9002318F0FFFB4FF0FF35CAE9C4
:10395000020197E6DDE90689FDE600BFAFF30080CE
:103960000000601A61B4D03D7370032E8A19A33B26
:103970000000002E8A19A33BC14920259A837B3978
:103980003163621A61B4D03DFB21F93F00000000B1
:10399000574A2DE9F84F21F0004890450E4607465A
:1039A0002BDC544B0029B4BF534D544D98454FF078
:1039B000000410DC524B98456EDC4BA3D3E9002386
:1039C00018F0C2FB00224F4B19F000F8D8B138466E
:1039D0003146BDE8F88F4C4B984579DD4B4B984507
:1039E00043DD013398453DD0384631463EA3D3E907
:1039F000002318F05BFDBDE8F88F02460B4618F077
:103A0000A3FBBDE8F88F3846314619F0C9FA01F03A
:103A100083F806460F4632463B463046394618F094
:103A200093FB324682468B463B463046394618F079
:103A30003DFD002280468946324B3046394618F01B
:103A400083FB02460B464046494618F059FE0246A3
:103A50000B465046594618F075FB22462B4618F087
:103A600025FDCEE72A4B9842BED83846314619F09C
:103A700097FA0022214B18F019FDFEF721FC0646AB
:103A80000F4602460B462046294618F00FFD3246E7
:103A90003B4618F00BFDB4E719F082FA01F03CF850
:103AA0001C4B984506460F46B5DD0022154B18F015
:103AB0004BFB02460B463046394618F021FE324693
:103AC0003B4618F041FB22462B4618F0EFFC98E7E6
:103AD00019F066FAFEF7F4FB02460B46204629462B
:103AE00018F0E4FC8DE700BF3374AC3C1F7BAC7F67
:103AF000FFFFEF7FFFFF35400000E0BF0000E03F29
:103B0000FFFF2F3E0000F03F412E8640CD33864020
:103B10007DF8B98FFFFFEF3F2DE9F04F21F0004610
:103B2000B6F1795F85B00C4692469B4605466BDA46
:103B300018F06CFF002800F0E8802A46234628464B
:103B4000214618F0B3FC74A3D3E9002380468946CC
:103B500018F0ACFC72A3D3E9002318F0F5FA424642
:103B60004B4618F0A3FC70A3D3E9002318F0EAFA3F
:103B700042464B4618F09AFC6DA3D3E9002318F097
:103B8000E3FA42464B4618F091FC6BA3D3E90023BD
:103B900018F0D8FA42464B4618F088FC68A3D3E9DF
:103BA000002318F0D1FA42464B4618F07FFCCDE9CD
:103BB00000010022644B4046494618F077FCDDE9DD
:103BC000002306460F464046494618F06FFC524611
:103BD000804689465B462846214618F067FC024627
:103BE0000B464046494618F0ADFA02460B463046B1
:103BF000394618F0A7FA02460B460020534918F040
:103C0000A1FA05B0BDE8F08F02460B4618F04EFC55
:103C100041A3D3E900238046894618F047FC40A31E
:103C2000D3E9002318F090FA42464B4618F03EFCC8
:103C30003DA3D3E9002318F085FA42464B4618F01D
:103C400035FC3BA3D3E9002318F07EFA42464B46ED
:103C500018F02CFC38A3D3E9002318F073FA42467D
:103C60004B4618F023FC36A3D3E9002318F06CFA76
:103C70004B46424618F01AFC354B9E42CDE90001F6
:103C800097DD344B9E424FF0000238DCA6F500135E
:103C900000202E4916461F4618F054FACDE90201BD
:103CA0000022294B4046494618F000FC32463B466C
:103CB00018F048FADDE9002306460F46404649461B
:103CC00018F0F4FB5246804689465B46284621465A
:103CD00018F0ECFB02460B464046494618F032FA13
:103CE00002460B463046394618F02CFA02460B467F
:103CF000DDE9020118F026FA05B0BDE8F08F164B99
:103D0000164FCDE902230026CAE71049002005B06E
:103D1000BDE8F08FAFF30080D43888BEE9FAA8BDC3
:103D2000C4B1B4BD9EEE213EAD529C804F7E923E0A
:103D30009015CB19A001FA3E7751C1166CC1563FC0
:103D40004C5555555555A53F0000E03F0000F03F4C
:103D50003233D33F0000E93F0000E73F0000D23F8D
:103D60002DE9F04FADF5197D9C4CA29E9C4D54F869
:103D7000264005942646D41E85FB0475E417C4EB43
:103D8000A50424EAE4741D460893631CA3EB830393
:103D9000013D02EBC30304932B4609940295651B76
:103DA000F418039006911AD42C4401340DF17808CC
:103DB00000260027DDF88C9208E059F8250018F05D
:103DC0000FFB0135A542E8E9020108D0002DF4DA25
:103DD000013530463946A542E8E90201F6D1059B96
:103DE000002B2EDB089B4FEAC309039BA9F10808AF
:103DF000984420AB9944059B70AA02EBC30B0DF5C8
:103E0000DC7A029B002BC0F20F83039B4D46A3F18B
:103E100008040026002775E90223F4E9020118F0DE
:103E200045FB02460B463046394618F08DF94445AD
:103E300006460F46EFD1EAE90267DA4509F10809BB
:103E4000DFD10598089A009000F18043013B9B0068
:103E50000CAC191F234402F100520B93039B013A4F
:103E600021440A9103EBC20B009A98A901EBC2030B
:103E7000002A53E9284513462BDD01EBC308A8F1BE
:103E8000A8080DF12C090DF5DC7A0022554B2046CF
:103E9000294618F00BFB18F0B9FD18F0A1FA002222
:103EA000514B06460F4618F001FB02460B462046D2
:103EB000294618F047F918F0A9FD78E8022349F8D7
:103EC000040F3946304618F03FF9D04504460D46F8
:103ED000DBD1DDF81090204629464A4601F05CF817
:103EE00000224FF07F5304460D4618F0DFFAFCF72E
:103EF000EFFE00223D4B18F0D9FA02460B46204651
:103F0000294618F01FF90D46044618F07FFD80463B
:103F100018F066FA0B4602462946204618F012F9B8
:103F20004B46002B06460F4640F3F780009A0CA93B
:103F3000013AC9F1180351F8225045FA03F101FA88
:103F400003F30CA8EB1A40F82230C9F11705884496
:103F500043FA05F5002D63DD009B002B08F10108F5
:103F600040F381820C9C002C00F018830120002378
:103F70000CAAC4F1807442F82340009A824219DDF1
:103F80000CAA0CAC52F820106FF07F42511A44F882
:103F900020100099023399420CDD1046009A0CA9BA
:103FA00001EB830301EB82011A68821A43F8042BA8
:103FB0008B42F9D1049B002B1ADD049B012B4FF09F
:103FC000010440F05882009B5A1E0CAB0CA953F818
:103FD0002230C3F3160341F8223058E24C22030882
:103FE000ABAAAA2A0000703E0000704100002040E9
:103FF000022D15D132463B460020974918F0A2F811
:1040000006460F46049A9449002000F0C5FF024678
:104010000B463046394618F095F8022506460F46FD
:10402000002200233046394618F0A8FC002800F092
:104030005282009A059B501E83420FDC02F180439E
:10404000013B0CAA0B9C02EB8303002253F80419DA
:10405000A34242EA0102F9D1002A6FD1059B0CAAC2
:10406000013B52F82330002B40F033820A9A01239F
:1040700052F8041901330029FAD0009AD31802F13A
:10408000010A9A4507933DDC009B0899099A0B4465
:1040900007990AEB0208994620AB08F1804803EB28
:1040A000C9098B18A39A08F1FF3802EB880870AA97
:1040B00002EBCA0AA39A02EB8303009358F8040F99
:1040C00018F08EF9029B002BE9E802011DDB039B2F
:1040D0004D46A3F108040026002775E90223F4E900
:1040E000020118F0E3F902460B463046394618F053
:1040F0002BF85C4506460F46EFD1009B9845EAE851
:104100000267DBD1079B0093AEE6009B00260027E9
:104110009845EAE80267D1D1F4E706D1009B0CAAE2
:10412000013B52F82350ED1514E700224B4B18F0D9
:1041300043FC002840F08281054671E70CA90295F6
:1041400051F820300499CDF81C80183902460090AF
:1041500004916BB900F18043013B0CA800EB830391
:1041600053F80409013A18390028F9D00092049153
:10417000049A3949002000F00FFF009B002B0446F1
:104180000D46C0F20382DA0070A901EB020B049223
:104190000CAA02EB8306DFF8C8900BF1080704367F
:1041A0004FF0000856F8040D18F01AF922462B4675
:1041B00018F07CF94B4667E9020142462046294641
:1041C00018F074F90CAB9E4204460D46EAD10DF589
:1041D000907ACDF80CA0DDF814A04FF00009BAF1E8
:1041E000000FC0F23D81DFF87C805D4618A1D1E967
:1041F000000100260027002403E04C4510DCF8E80D
:104200000201F5E8022318F051F902460B46304648
:10421000394617F099FF0134A24506460F46ECDAFD
:10422000039B03EBC903ABF1080BC3E900676EAB5B
:104230005B4509F10109D2D1A29BDDF80CA0032B4B
:1042400000F28B80DFE813F0D100900090001000A6
:1042500000000040FB21F93F0000F03F0000E03F7C
:104260000000703EA8010308009B002B40F3A481CE
:10427000049B0AEB0308D8E90067D34658E9029A81
:1042800032463B464846514617F05EFF04460D460F
:1042900002460B464846514617F054FF32463B460D
:1042A00017F052FFC8E9000168E90245C3452646F8
:1042B0002F46E3D1009B012BDA4640F37D81049B1E
:1042C0005B44D3E90067984699460DF5947B59E91C
:1042D00002343246184621463B46CDE9000117F02C
:1042E00033FF04460D4602460B46DDE9000117F098
:1042F00029FF32463B4617F027FFC9E9000169E96B
:104300000245CB4526462F46E1D1002308F1080897
:104310001D464CAC1846294678E9022317F014FFD5
:10432000444503460D46F5D1029A002A00F020814B
:10433000DAF80440DAF80C20069FDAF80010DAF810
:1043400008003B6105F1004504F1004402F1004220
:104350007D617C60FA603960B860079B03F00700FC
:104360000DF5197DBDE8F08F049C002608345444F7
:1043700033463046194674E9022317F0E5FE5445EA
:1043800006460B46F5D1029A30461946002A00F03F
:10439000DA80069803F10044324644600660DAE9A8
:1043A000000117F0CFFE0B460099002902460EDDF2
:1043B000012410461946FAE9022317F0C5FE0B4600
:1043C00000990134A1420246F3DA029909B103F1DE
:1043D00000431946069B1046C3E90201079B03F000
:1043E00007000DF5197DBDE8F08F049C002208340C
:1043F000544413461046194674E9022317F0A4FEEC
:10440000A24502460B46F5D1029909B103F10043DA
:104410001946069B1046C3E90001079B03F00700FD
:104420000DF5197DBDE8F08F00260027EAE9026747
:10443000DA4509F108097FF4E4AC02E5009B002BA2
:1044400008F10108C8BF02253FF78CAD32463B4654
:104450000020634917F076FE022506460F46DFE589
:1044600000260027DCE6049B002B26DD0024049BAD
:10447000012B3FF4A8AD022B09D1009B5A1E0CABB7
:104480000CA953F82230C3F3150341F82230022D52
:104490007FF4C6AD32463B460020514917F052FE2C
:1044A00006460F46002C3FF4BBADABE50099013347
:1044B000994278D1049B002BD9DC022D7FF4B0AD5A
:1044C00032463B460020464917F03CFE06460F4662
:1044D000A6E50123D1E53946049F02957A4230468C
:1044E000CDF81C8000F058FD00223E4B04460D46DE
:1044F00018F062FA002862D000223B4B2046294681
:1045000017F0D4FF18F082FA064617F069FF002270
:10451000344B17F0CBFF02460B462046294617F0D6
:1045200011FE18F073FA00990B4601331A460093F6
:104530003B46183304930B460CA941F8230013465D
:1045400041F8236014E6069B3246C3E900010B469E
:10455000DAE9000117F0F6FD0B4600990029024642
:104560003FF726AF1946069B1046C3E9020135E71F
:1045700018462946DAE90023DAE90245069FC7E929
:104580000401C7E90023C7E90245E6E6A29B032B25
:104590003FF6E3AEDFE803F0211C1C0E009B012B6D
:1045A00088DD0CAA012352F8044F002C3FF47EAFA3
:1045B000581CDDE40DF5907A00231D46B4E629462B
:1045C000204618F023FA009A0CA941F82200CFE502
:1045D000002633460DF5907AD5E60022134613E700
:1045E0000000F03F000070410000703E000000003D
:1045F0002DE9F04F21F00046B6F1795F85B00C4609
:1046000090469946054604DA18F000FA002800F0B2
:1046100085802A4623462846214617F047FF06464E
:104620000F4602460B462846214617F03FFF3EA3A1
:10463000D3E9002382468B463046394617F036FFD1
:104640003BA3D3E9002317F07DFD32463B4617F02C
:104650002DFF39A3D3E9002317F076FD32463B4600
:1046600017F024FF36A3D3E9002317F06BFD324681
:104670003B4617F01BFF34A3D3E9002317F064FD7A
:104680000E9BCDE900019BB30022334B40464946C7
:1046900017F00CFFDDE90023CDE902015046594631
:1046A00017F004FF02460B46DDE9020117F04AFD50
:1046B00032463B4617F0FAFE42464B4617F042FDA3
:1046C00023A3D3E9002306460F465046594617F068
:1046D000EDFE02460B463046394617F035FD0246E0
:1046E0000B462846214617F02DFD05B0BDE8F08F9A
:1046F00002460B463046394617F0D8FE14A3D3E9DC
:10470000002317F01FFD52465B4617F0CFFE2A46E6
:10471000234617F019FD05B0BDE8F08F2846214665
:1047200005B0BDE8F08F00BF7CD5CF5A3AD9E53D42
:10473000EB9C2B8AE6E55A3E7DFEB157E31DC73E52
:10474000D561C119A0012A3FA6F810111111813FAE
:10475000495555555555C53F0000E03F0000000044
:104760002DE9F04FDA4C21F00046A64287B08A4688
:1047700089461746984683461ADC18F047F9A8BBC5
:104780005B461E43109B0133334300F0A981109B0D
:10479000012B00F0B9815A4653460020CD4917F04D
:1047A000AFFF04460D462046294607B0BDE8F08F0E
:1047B000C94B9E421ADD0029C0F29F815A465346DA
:1047C000A5A1D1E9000117F0BDFC3A4643460446D5
:1047D0000D46A3A1D1E9000117F0B4FC22462B46F7
:1047E00017F0B2FC002783468A46B8465A4653461D
:1047F0005846514617F05AFE03460C46CDE90034A0
:1048000002460B4617F052FEDDE9002304460D4632
:104810005846514617F04AFE93A3D3E90023CDE949
:1048200002012046294617F041FE91A3D3E9002357
:1048300017F08AFC22462B4617F038FE8EA3D3E9E8
:10484000002317F081FC22462B4617F02FFE8CA385
:10485000D3E9002317F078FC22462B4617F026FEFA
:1048600089A3D3E9002317F06FFC22462B4617F0EB
:104870001DFE87A3D3E9002317F066FCDDE90023C2
:1048800017F014FE84A3D3E90023CDE904012046E8
:10489000294617F00BFE82A3D3E9002317F054FC3E
:1048A00022462B4617F002FE7FA3D3E9002317F020
:1048B0004BFC22462B4617F0F9FD7DA3D3E90023DC
:1048C00017F042FC22462B4617F0F0FD7AA3D3E9FD
:1048D000002317F039FC22462B4617F0E7FD78A39A
:1048E000D3E9002317F030FC02460B46DDE9040152
:1048F00017F02AFCDDE9022317F0D8FD3A464346BB
:1049000017F022FCDDE9002317F0D0FD02460B462C
:104910003846414617F018FC6BA3D3E90023044640
:104920000D46DDE9020117F0C1FD22462B4617F0C6
:104930000BFC0B46024651465846CDE9002317F0C2
:1049400003FC654B9E4204460D463EDC109B012B4A
:1049500036D002460B4600205E4917F0D1FE0024F7
:104960000F4606465A4653462046294617F0EAFBAC
:10497000A04602460B46DDE9000117F0E3FB424684
:104980003B4617F093FDA94604460D4642463B467A
:104990004046494617F08AFD0022504B17F0D4FBE1
:1049A00002460B462046294617F0CEFB32463B46D0
:1049B00017F07CFD42463B4617F0C6FB04460D4609
:1049C0002046294607B0BDE8F08F109817F008FD83
:1049D000224606460F462B462046294617F066FD1E
:1049E0003246CDE902013B462046294617F0ACFB92
:1049F00002460B46DDE9020117F082FEDDE90023E5
:104A000017F0A0FB02460B465846514617F09AFB9A
:104A100002460B4617F098FB02460B4630463946D5
:104A200017F090FB04464FEAA97000F00200C0F1B5
:104A300001000D4617F0D4FC02460B4620462946DD
:104A400017F034FD04460D462046294607B0BDE860
:104A5000F08F00BFAFF30080182D4454FB21E93FD5
:104A6000075C143326A6813CD47ABF74702AFB3EBF
:104A7000E9A7F0320FB8123F68108D1AF726303FC1
:104A80001583E0FEC8DB573F93846EE9E326823F3F
:104A9000FE41B31BBAA1AB3F735360DBCB75F3BED2
:104AA000A69237A0887E143F0165F2F2D844433FB6
:104AB000280356C9226D6D3F37D60684F464963FAD
:104AC0007AFE10111111C13F635555555555D53F0B
:104AD000FFFF2F3E0000F0BF2794E53F0000F03FAE
:104AE0005846514618F05CFA02460B460020084929
:104AF00017F006FE04460D4662E701F1004308F197
:104B0000004883469A4659E65C46554658E700BF3A
:104B10000000F03F000000002DE9F04FD24A21F0E4
:104B20000043934285B00C460E4605462DD9CF4A28
:104B300093421AD8002E80F21681B5A3D3E9002340
:104B40002846214617F000FB0022002317F020FF23
:104B5000C0B9B1A3D3E900232846214617F0A6FC2B
:104B600002460B460020C24908E1C24A934240F285
:104B7000D0800346C1F31302134340F0F6810029AD
:104B800080F2C4800020BC49C0E0BC4A934200F2DD
:104B90002981BB4A934240F2DE8000230193002228
:104BA000B84B2846214617F081FC06460F460246C0
:104BB0000B462846214617F079FC99A3D3E9002338
:104BC00082468B4617F072FC97A3D3E9002317F0B7
:104BD000BBFA52465B4617F069FC95A3D3E9002364
:104BE00017F0B0FA52465B4617F060FC92A3D3E987
:104BF000002317F0A9FA52465B4617F057FC90A322
:104C0000D3E9002317F09EFA52465B4617F04EFC9C
:104C100000229D4B17F098FA8046894602460B46C3
:104C20003046394617F042FC02460B4600209749B1
:104C300017F088FA064602460B460F46404649469C
:104C400017F080FA3246804689463B462846214680
:104C500017F02CFC02460B4600208D4917F072FA23
:104C600002460B464046494617F04AFD52465B460F
:104C700017F01CFC019E02460B46002E38D0DDE9E1
:104C8000026732463B4617F05DFA2A46234617F084
:104C90000DFC32463B4617F055FA5B46524617F07C
:104CA00051FA019B013306460F4600F00F81019B2C
:104CB000012B00F0F180019B0133392B39D8019B86
:104CC000132B40F31281019FC7F57F760336002234
:104CD000330517F039FA02460B462846214617F0ED
:104CE00031FA0022684B17F02FFA01EB07510DE063
:104CF0002846214617F0DAFB52465B4617F022FAA7
:104D000002460B462846214617F01CFA05B0BDE8BE
:104D1000F08F4DA3D3E9002317F058FE00283FF48D
:104D200009AF4BA3D3E900231046194617F0BEFB89
:104D3000ECE72A46234617F005FA02460B46002008
:104D4000514917F0FFF9019A4F4B01EB0251002234
:104D500017F0F8F9DAE73EA3D3E9002317F0F4F9E6
:104D600002460B46CAE72CA3D3E900232846214676
:104D700017F09CFB0B4643490246002017F0E4F96C
:104D800017F044FE019017F02BFB33A3D3E9002367
:104D900006460F4617F08AFB02460B462846214678
:104DA00017F0D0F92EA3D3E9002380468946304678
:104DB000394617F07BFB06460F4632463B464046D7
:104DC000494617F0BFF902460B4605460C464046D9
:104DD000494617F0B7F932463B4617F0B3F9CDE92B
:104DE0000201DCE62B4A934200F2978000291AA3C5
:104DF000D3E90023C0F2AE8017F0A4F90123804666
:104E00008946019316A7D7E90067D6E7AFF300807C
:104E100059F3F8C21F6EA501FE822B654715F73FB7
:104E20002DC3096EB7FD8ABE3952E686CACFD03E81
:104E3000B7DBAA9E19CE143F8555FE19A0015A3F33
:104E4000F41011111111A13FEF39FAFE422E8640E4
:104E50009C7500883CE4377E0000E0FE422EE63F71
:104E6000763C7935EF39EA3D79684340412E8640FA
:104E70000000E0BFFFFFEF7F0000F0BF422ED63FF3
:104E8000FFFF8F3C0000E03F0000F03F00000840C3
:104E900000001840B1A2F03F2846214600223A4BBC
:104EA00017F076FD002846D0284621460022374BD1
:104EB00017F04AF902460B463046394617F042F9D8
:104EC00000224FF0404317F0F1FA1FE732463B460D
:104ED0002846214617F036F900222C4B17F0E6FA47
:104EE00000222A4B17F02EF910E7019E4FF4001E06
:104EF0004EFA06FE2A462346CEF17F5717F022F9D6
:104F0000002607F5401702460B463046394617F093
:104F100019F9019E01EB0651F8E617A3D3E9002326
:104F200017F0C4FA002C02460B464FF00000FFF6C3
:104F30001AAE164922E732463B462846214617F06C
:104F400001F902460B4617F0FFF80022104B17F04C
:104F5000FBF8DBE617F0F8F84FF0FF3380468946A0
:104F6000019307A7D7E9006727E702460B4617F02A
:104F7000EBF8CBE6AFF30080FE822B654715F73FD9
:104F8000763C7935EF39EABD0000D0BF0000E03F44
:104F90000000F03F00000000F8B5C1F30A560446D7
:104FA0000D460B4617460EBB21F0004303438646D1
:104FB00025D00022344B17F079FA344A9742044640
:104FC0000D460B462ADBC1F30A56363E3E4440F2FC
:104FD000FE72964228DC002E12DD23F0FF4323F4FC
:104FE000E00343EA065520462946F8BD40F2FF7229
:104FF0009642EBD102460B4617F0A6F8F8BDF8BD75
:1050000016F1350F1DDA4CF250339F4222462B46E3
:1050100025DC19A1D1E900011AF058F816A3D3E94B
:10502000002317F043FAF8BD22462B4614A1D1E91C
:1050300000011AF04BF812A3D3E9002317F036FA57
:10504000F8BD23F0FF4323F4E003363643EA065568
:105050002046294600220E4B17F028FAF8BD08A179
:10506000D1E900011AF032F805A3D3E9002317F0C3
:105070001DFAF8BDAFF3008059F3F8C21F6EA50109
:105080009C7500883CE4377E00005043B03CFFFF35
:105090000000903C10B5054C237833B9044B13B194
:1050A0000448AFF300800123237010BDC803002023
:1050B00000000000CC2703080C4B43B10C480D49FD
:1050C00010B5AFF300800C48036823B910BD0A483F
:1050D000036833B97047094B002BF7D0BDE8104087
:1050E0001847064B002BF5D0184700BF0000000002
:1050F000CC270308CC030020B003002000000000F0
:1051000070B504460E4600F0D1F888B10368DB6A3A
:1051100005469847082C0CD0A4F10903012B14D99B
:105120003246214610230D20BDE8704004F0C6B879
:1051300070BD2B6828465B6A98470228F0DC2B6814
:1051400028461B6A04219847EAE72B6828465B6AD1
:1051500098470528E4DC2B6828461B6A08219847F5
:10516000DEE700BF30B52DED028B83B0054600F0C1
:105170009DF8044640B10368DB6A9847032D50D878
:10518000DFE805F0373F47080190019803B0BDEC18
:10519000028B30BD20460CF0BFFB07EE900A204684
:1051A000F8EEE78A0CF0C6FB07EE900A2046B8EE50
:1051B000E78A0CF0CDFB68EE087A07EE100AE8EEFD
:1051C000A87AB8EEC77AE7EE077AF5EE407AF1EE04
:1051D00010FAB1EEE78A03D517EE900A18F096FDA3
:1051E000FDEEC87ACDED017A019803B0BDEC028BDB
:1051F00030BD204603B0BDEC028BBDE830400CF062
:105200008BBB204603B0BDEC028BBDE830400CF0F8
:1052100091BB204603B0BDEC028BBDE830400CF0E2
:1052200097BB00230193B0E738B5054600F03EF880
:1052300058B10368DB6A0446984745B1012D04D193
:105240002046BDE83840FBF747BA002038BD20466D
:10525000BDE83840FBF720BA10B5044600F026F848
:1052600028B1036821461B6ABDE81040184710BDED
:105270000048704716FCFFFF704700BF10B5034B96
:10528000036004460CF044F9204610BDA811030841
:1052900010B5054B036004460CF03AF920461AF0AD
:1052A00046FB204610BD00BFA81103082DE9F043BE
:1052B000BD4C236885B01BB1986805B0BDE8F0838C
:1052C0004FF0FF31012001F0F9FC04F0EBFF002862
:1052D00000F0EC800C201AF02CFB4FF0FF3106465A
:1052E000462001F0EBFC68280CBF3321032151203C
:1052F00001F0E4FCDFF8E0E2AC4B054605F00F07F7
:10530000C5F3031815F4807508BF7346A8483946DD
:1053100042460BF005FB2A1C18BF012239464346C2
:1053200030460FF01BF80023A248B3600BF0F8FAE8
:105330004FF0FF31032001F0C1FC04F0B3FF4FF048
:10534000FF310546022001F0B9FC04F0ABFF002D4F
:1053500000F09580002800F092800146284604F075
:10536000BDFB0746002800F09D803821462001F053
:10537000A5FC322880462AD027DD382866D0682848
:105380003DD14FF0FF31012001F098FC04F08AFF7D
:1053900081465C201AF0CDFA0523054601934A4662
:1053A000CDF80080394633460EF028F82846B06024
:1053B00003689B6A9847B0680368DB6A98477E4831
:1053C0000BF0AEFA2660B06877E7302817D14FF0BF
:1053D000FF31012001F072FC04F064FF814650208F
:1053E0001AF0A7FA1FFA88F1054605234A460091EC
:1053F0000193394633460DF0D3FD2846D7E73A6886
:105400000125002301950095D2F82480B3600F2276
:105410000DF10F0332213846C047002851D14FF01B
:105420003208414665480BF07BFA4FF0FF3101200E
:1054300001F044FC04F036FF814650201AF079FA5E
:10544000052305464A46CDF80080D1E74FF0FF31ED
:10545000012001F033FC04F025FF814650201AF0B2
:1054600068FA052305464A46CDF80080394601937F
:1054700033460DF09FFE524B2B60284697E751486C
:105480000BF04EFA4FF0FF31192001F017FC04F039
:1054900009FF4FF0FF310546182001F00FFC04F022
:1054A00001FF5AE748480BF03BFA8BE74FF0FF311A
:1054B000032001F003FC04F0F5FE00287FF40AAF9E
:1054C000FBE63B6801950095D3F824800F220DF18F
:1054D0000F0330213846C04718B94FF03008414615
:1054E000A0E73B6801950095D3F824800D220DF1CB
:1054F0000F0338213846C047B8B938212F480BF080
:105500000FFA4FF0FF31284601F0D8FB04F0CAFE35
:10551000804650201AF00DFA4FF0050E382305464C
:10552000424639468DE80840A2E73A680195009561
:10553000D2F824800DF10F03752268213846C04748
:10554000D8B968211D480BF0EBF94FF0FF31284620
:1055500001F0B4FB04F0A6FE80465C201AF0E9F9E5
:105560004FF0050E682305468DE80840424639464F
:1055700033460DF043FF284619E714480BF0D0F9E5
:10558000B06800287FF414AF4FF0FF31032001F022
:1055900095FB04F087FE18B10D480BF0C1F911E737
:1055A0000C480BF0BDF90DE7E40300202C020308C2
:1055B0003C0203085C020308F40203081803030812
:1055C000F80103086C0203088002030804030308BF
:1055D00098020308D40203083402030808B501F056
:1055E00095FCFBF739FEBDE8084001F0FDB900BFAE
:1055F00008B501F08BFCFBF79FFEBDE8084001F009
:10560000F3B900BF08B501F081FC17F03FFDBDE81C
:10561000084001F0E9B900BF08B501F077FC18F0C7
:10562000B1FABDE8084001F0DFB900BF08B501F0EC
:105630006DFCFBF721FEBDE8084001F0D5B900BFC5
:1056400008B501F063FC17F053FFBDE8084001F016
:10565000CBB900BF08B501F059FCFBF75DF8BDE818
:10566000084001F0C1B900BF08B501F04FFC17F0C8
:1056700093FEBDE8084001F0B7B900BF70B5049EC5
:1056800096420C4628DB15466BB1002A00EB02015E
:1056900007DD2046A21811F8013D00F8013B9042B9
:1056A000F9D1002070BD042A0FD0022A02D110F0D7
:1056B000010306D001462A46204607F0B9FB002028
:1056C00070BD02880A80184670BD10F00303F1D146
:1056D00002680A60184670BD0846002108F098FD6F
:1056E0004FF0FF3070BD00BF0830704740B1002957
:1056F00005DB4368994202DA0844007A70470020CB
:10570000704700BF30B1002904DB43689942BCBF39
:1057100040180272704700BF40B1002905DB4368A2
:10572000994202DA0844007A70470020704700BFAF
:10573000830705D120B1030F0CBF01200020704763
:105740000120704730B1002904DB43689942BCBF97
:1057500040180272704700BF002B23DB002921DBB9
:1057600070B54668B1421ADC5568761A1446EA1AD2
:10577000B242A8BF3246002A11DB84420D4607D050
:10578000083408300844E11807F052FB002070BDCF
:105790000834E11860191AF006F9002070BD4FF0C6
:1057A000FF3070BD4FF0FF30704700BF406870475A
:1057B00010B4141E10DB426894420DDC33EA23035C
:1057C00028BF1346121B08309A422044A8BF1A462D
:1057D0005DF8044B08F01CBD5DF8044B704700BF3A
:1057E00043688B4210B400F108041846A8BF08466D
:1057F00032EA220128BF19461B1A99422044A8BF49
:1058000019465DF8044B00F0F3BE00BF002BBCBF8F
:1058100043689B1A002A70B50E4620DB446899182D
:10582000A1421CDC8A421ADCCBB136F0004116D012
:1058300059428E4214DDB34212DD0830002E00EBD7
:10584000020515DB9C1B2246A91928461AF0ABF865
:10585000324628190021BDE8704008F0D9BC70BD5F
:10586000002211464FF0FF33BDE87040FFF7A0BFA4
:1058700074429A19294628191AF095F822462846A2
:105880000021BDE8704008F0C3BC00BF03460830EB
:10589000596800F02DBE00BF70B504460020616855
:1058A000490000F0A7FD6668002E11DD094D04F1E6
:1058B000080100EB4606034611F8012B141102F013
:1058C0000F022C5DAA5C9C71DA7102339E42F3D107
:1058D00070BD00BF2C030308002BBCBF43689B1A9C
:1058E000002A2FDB70B445689C18AC4229DCA24228
:1058F00027DC33B331F0004423D00029B8BF01EBDB
:10590000032191FBF3F603FB1616002E00F10800AD
:10591000B8BFF61802441644B242134411D03046C0
:1059200004E0B24208460ED090420AD001461478F4
:1059300011F8015B02F8015B8B420470F1D1304633
:10594000F2E770BC70470E46EEE700BF00B583B0CB
:105950004FF0FF3300930023FFF7FEFE03B05DF826
:1059600004FB00BF10B50C1E0EDD4168083002F0CC
:10597000F5F81F2C09DC0123A34020FA04F4013BB5
:10598000444004EA030010BD002010BD0146002081
:1059900000F02EBE38B50021054600F0D7FD0146C7
:1059A000002000F025FE044600F10801284600F022
:1059B000CDFD204638BD00BF30B5013A83B0044666
:1059C0000D460F2A16D8DFE802F01717838D9417BB
:1059D0002E08081F424D5C367462184601F02AFBFF
:1059E000012DADF8000005DD9DF800209DF8013087
:1059F0002370627003B030BD184601F01BFB002D10
:105A0000F8DD207003B030BD184601F013FB032D04
:105A10000090EFDD6A46231D12F8011B03F8011DFB
:105A20009C42F9D1E6E7184601F004FB002DC0B214
:105A3000E0DD2070E6E7184601F068FA072DCDE9B1
:105A40000001D7DD6B4603CB20606160D2E71846CA
:105A500001F084FA032DCDDDA3070CBF2060206088
:105A600003B030BD184601F079FA032D0090C1DD76
:105A70006A46231D12F8011B03F8011D9C42F9D14F
:105A8000B8E7184601F06EFB032DE5DCB2E71846D7
:105A900001F03CFA072DCDE90001ABDD0DF1FF323D
:105AA00004F1080312F8011F03F8011DA342F9D104
:105AB000A0E7184601F056FB032D00909ADD6A46D8
:105AC000231D12F8011B03F8011DA342F9D191E730
:105AD000184601F0AFFA012D8CDDE20754BF20809B
