:1000000000000220A1490100C9490100CB490100BB
:10001000CD490100CF490100D14901000000000095
:10002000000000000000000000000000D3490100B3
:10003000D549010000000000D7490100D94901005D
:10004000DB490100DB49010041480100054801008E
:1000500019480100DB490100853C0100DB49010032
:10006000E5440100ED440100F5440100DB490100D5
:10007000DB490100DB490100DB490100DB490100EC
:10008000DB490100DB490100DB490100DB490100DC
:10009000DB490100DB490100DB490100DB490100CC
:1000A000DB490100DB490100FD4401000545010079
:1000B000DB490100DB4901000000000000000000F6
:1000C000DB490100DB490100DB4901002D4801004B
:1000D000DB490100DB490100DB490100DB4901008C
:1000E000694801000000000000000000000000005E
:1000F00000000000DB49010000000000554801003D
:1001000000000000000000000000000000000000EF
:1001100000000000000000000000000000000000DF
:1001200000000000000000000000000000000000CF
:1001300000000000000000000000000000000000BF
:1001400000000000000000000000000000000000AF
:10015000000000000000000000000000000000009F
:10016000000000000000000000000000000000008F
:10017000000000000000000000000000000000007F
:10018000000000000000000000000000000000006F
:10019000000000000000000000000000000000005F
:1001A000000000000000000000000000000000004F
:1001B000000000000000000000000000000000003F
:1001C000000000000000000000000000000000002F
:1001D000000000000000000000000000000000001F
:1001E000000000000000000000000000000000000F
:1001F00000000000000000000000000000000000FF
:100200007CB0EE877CB0EE87FF00FF00FF00FF00B0
:10021000FF00FF00FF00FF00FF00FF00FF00FF00E6
:10022000FF00FF00FF00FF00FF00FF00FF00FF00D6
:10023000FF00FF00FF00FF002DE9F04F85B00391A4
:100240000778A7F10903042B044607F07F0200F1A9
:100250000100F5D9202AF3D02B2F04BF677804467C
:100260002D2F72D09FED427B8DED007B4FF000086B
:100270004FF000098FB34FF0000E4FF0000ADFF887
:1002800000B1754619E017F079F880468946304686
:1002900017F00EF842464B4616F0BEFE5246804618
:1002A00089465B46DDE9000135B317F091F9CDE9E8
:1002B0000001AE4614F8017F7FB1A7F13006092E88
:1002C00052465B4640464946DDD9C5B92E2F16D168
:1002D00014F8017F0125002FEFD142464B46DDE99E
:1002E000000117F04BF880468946039B404649467B
:1002F0001C6005B0BDE8F08F4FF0010EDAE7BEF1EB
:10030000000F29D042464B46DDE9000117F036F8D0
:1003100007F0DF07452F80468946E6D10399601C28
:100320000A2216F05DFE16490246002017F086FBF1
:1003300002460B464046494617F020F8804689465B
:100340004046494605B0BDE8F08F9FED0B7B6778CE
:100350008DED007B013489E7DFF828904FF000082D
:100360004046494605B0BDE8F08F00BFAFF30080BE
:10037000000000000000F03F000000000000F0BF9F
:10038000000024400000F87F2DE9F84F16460023B6
:10039000002204460D4617F063FA002840F09D80C5
:1003A000002200232046294617F050FA28B13022B7
:1003B000002332707370BDE8F88F2046294615F08F
:1003C000DFFA17F08BFA7BA3D3E900238146294695
:1003D000204617F045FA002800F08680B9F1000F9A
:1003E000C0F2BE804A4600206F4917F027FB024644
:1003F0000B462046294617F0EBF804460D4666A149
:10040000D1E9000101274FF0000822462B4616F0E3
:10041000B5FF0022654B16F0FFFD17F04BFB002FD8
:10042000CC464FF0FF3AC1464FF0000840F38580BC
:10043000DFF888E15E4C0122AEF1700945F6F32544
:100440004FF02E0BA94208BFA0424FF0300309D352
:10045000001B61EB0501A94208BFA04203F10103A3
:10046000F6D2DBB2337050EA010306F1010409D180
:10047000BA4210DACE4502F101020CD026467EE8DF
:100480000245DFE7BA4204BF86F801B0B41CCE458E
:1004900002F10102F2D1B8F1000F0DD02246302155
:1004A00002F8011BC2F1010353442344002BF7DC83
:1004B0002AEAEA7301331C44BCF1010F4CD06523D6
:1004C000BCF1000F2370C5BF2B236370611CA11CFE
:1004D0006046BDE8F84F0FF0E1B905F100431D4655
:1004E0002D23337001365BE72DA3D3E9002320468B
:1004F000294617F0D3F900287FF470AFB9F10E0F39
:1005000009F101073DDDA9F10E0842460020264908
:1005100017F094FA02460B462046294617F058F881
:100520000022224B16F078FD17F0C4FA002FA9F133
:100530000F0A4FF0010C3FF77BAF334630222E24D9
:1005400003F8022B74707FEA090618D01E4403F8E2
:10055000012BB342FBD16BE700232370BDE8F88F7A
:10056000C9F100020020104917F068FA02460B4654
:100570002046294616F002FF04460D463FE71E4678
:1005800056E7C9F10E0200200749C84617F056FA8F
:100590004FF0010939E700BF0000901EC4BCD642ED
:1005A00050EFE2D6E41A4B44000024400000E03F44
:1005B00000407A108DEDB5A0F7C6B03E80850100F1
:1005C00070B54FF0FF3006F0B5F904466FF07F408C
:1005D00006F0B0F90646204616F05AFE00220C4BF3
:1005E00016F0CCFE044630460D4616F051FE06A32A
:1005F000D3E9002316F0ECFF02460B4620462946BD
:1006000016F00AFD70BD00BF0000E0DFFFFF6F4382
:100610000000F03D0000000008B510F0EBFBDFED3E
:100620000C7A07EE100A67EE277A17EE900A16F09A
:1006300051FE05A3D3E9002316F0CAFF17F04EF9C7
:1006400008BD00BFAFF30080EA2E4454FB211940DF
:100650000000B4430000000008B510F0DFFBDFED40
:100660000C7A07EE100A67EE277A17EE900A16F05A
:1006700031FE05A3D3E9002316F0AAFF17F02EF9E7
:1006800008BD00BFAFF30080EA2E4454FB2119409F
:100690000000B44300000000494A21F000439342A7
:1006A0002DE9704304460D464BDC464A93420E4604
:1006B0000EDC3FA3D3E9002316F0AEFC0022424B30
:1006C00017F0ECF800284CD020462946BDE870838E
:1006D0003E4A93423BDCB3F1804F42DD14F04AFDC9
:1006E0002246804689462B462046294616F046FE7D
:1006F0000022354B16F090FC15F000FC02460B462C
:100700004046494616F088FC02460B4600202E491A
:1007100016F05EFF424604460D464B4640464946AB
:1007200016F07AFC02460B462046294616F074FC69
:1007300002F06AF8002EC9DC01F100431946BDE859
:10074000708302460B4616F067FCBDE8708314F018
:1007500011FD02F059F818A3D3E9002316F05CFC50
:10076000E8E722462B462046294616F007FE80463B
:1007700089462046294614F0FDFC002204460D4619
:10078000114B4046494616F047FC15F0B7FB0022D6
:100790000D4B16F041FC02460B464046494616F00A
:1007A00017FF22462B4616F037FC00F0C5FAC1E7CA
:1007B0009C7500883CE4377EEF39FAFE422EE63F16
:1007C000FFFFEF7FFFFF2F3E0000F03F0000B04132
:1007D0002DE9F84FC44B21F000469E4204460D46D9
:1007E0008A460EDDC14B9E4200F3AC8000F0A7802C
:1007F000BAF1000F40F3EA809FA1D1E90001BDE802
:10080000F88FBB4B9E4200F3B580A3F1DE739E428E
:1008100040F3A0804FF0FF3B22462B46204629465E
:1008200016F0ACFD02460B468046894616F0A6FD42
:1008300093A3D3E9002306460F4616F09FFD92A32B
:10084000D3E9002316F0E8FB32463B4616F096FD4E
:100850008FA3D3E9002316F0DFFB32463B4616F0A8
:100860008DFD8DA3D3E9002316F0D6FB32463B461F
:1008700016F084FD8AA3D3E9002316F0CDFB32469F
:100880003B4616F07BFD88A3D3E9002316F0C4FB9A
:1008900042464B4616F072FD85A3D3E900238046FD
:1008A00089463046394616F069FD83A3D3E9002313
:1008B00016F0B0FB32463B4616F060FD80A3D3E94C
:1008C000002316F0A7FB32463B4616F057FD7EA3E9
:1008D000D3E9002316F09EFB32463B4616F04EFD50
:1008E0007BA3D3E9002316F095FB32463B4616F076
:1008F00045FDBBF1FF3F02460B466CD040464946E2
:1009000016F08AFB22462B4616F038FD794E7A4BBC
:100910004FEACB0B5E449B44DBE9002316F07AFBE5
:1009200022462B4616F076FB02460B46D6E900011E
:1009300016F070FBBAF1000F43DBBDE8F88F00281A
:100940003FF456AF22462B462046294616F064FB5C
:10095000BDE8F88F60A3D3E9002316F05DFB002209
:10096000664B16F09BFF00283FF454AF2046294603
:10097000BDE8F88F14F0FEFB614B9E4204460D4625
:1009800039DCA3F550239E425EDC02460B4616F08E
:1009900043FB0022594B16F03DFB002206460F4652
:1009A0004FF080432046294616F036FB02460B46A0
:1009B0003046394616F00CFE4FF0000B04460D464B
:1009C0002AE701F100431946BDE8F88F44A1D1E9B7
:1009D0000001BDE8F88F4046494616F01DFB22464F
:1009E0002B4616F0CBFC02460B462046294616F055
:1009F00011FBBDE8F88F434B9E421ADC0022424BAC
:100A000016F008FB002206460F463F4B20462946BB
:100A100016F0B4FC0022394B16F0FEFA02460B46E3
:100A20003046394616F0D4FD4FF0020B04460D4611
:100A3000F2E602460B460020344916F0C9FD4FF09D
:100A4000030B04460D46E7E600222C4B16F0E2FAB3
:100A5000002206460F46294B2046294616F0DCFAAE
:100A600002460B463046394616F0B2FD4FF0010BF8
:100A700004460D46D0E600BF182D4454FB21F93F33
:100A800011DA22E33AAD903FEB0D76244B7BA93F80
:100A9000513DD0A0660DB13F6E204CC5CD45B73F4E
:100AA000FF8300922449C23F0D5555555555D53FFA
:100AB0002F6C6A2C44B4A2BF9AFDDE522DDEAD3FEE
:100AC0006D9A74AFF2B0B33F711623FEC671BC3F8E
:100AD000C4EB98999999C93F9C7500883CE4377E8E
:100AE000182D4454FB21F9BFFFFF0F440000F07F95
:100AF000FFFFDB3F90850100B08501000000F03F63
:100B0000FFFFF23FFF7F03400000F83F0000F0BF0F
:100B10002DE9F843C1F30A59A9F2FF35132D024616
:100B20000B460C4606468846074622DC002D50DB65
:100B3000DFF8F09049FA05F901EA090E5EEA0606C7
:100B40001CD036A3D3E9002316F066FA0022002356
:100B500016F0A4FE48B1002C04DD4FF4801343FAD4
:100B600005F5A84428EA0904002721463846BDE8CF
:100B7000F883332D06DDB5F5806F3DD0104619465C
:100B8000BDE8F883A9F213494FF0FF3E2EFA09F9A8
:100B900010EA090FF2D021A3D3E9002316F03CFAA2
:100BA0000022002316F07AFE0028DED0002C09DD9A
:100BB000142D2BD00127C5F1340507FA05F5AE1920
:100BC00028BFB844444626EA090721463846BDE80E
:100BD000F88312A3D3E9002316F01EFA00220023A3
:100BE00016F05CFE0028C0D0002C0BDB54EA060790
:100BF00006D00027084CB8E716F00EFABDE8F883D7
:100C00003C46B2E700274FF00044AEE704F101088C
:100C1000D8E700BFAFF300800000F03F9C7500886C
:100C20003CE4377EFFFF0F002DE9F041C1F30A5786
:100C3000A7F2FF35132D02460B460C4688460646A2
:100C40001CDC002D3FDB3A4F2F41864601EA070CA2
:100C50005CEA0E0E17D034A3D3E9002316F0DCF9BA
:100C60000022002316F01AFE20B1002C3FDB28EAF8
:100C70000704002621463046BDE8F081332D06DD0D
:100C8000B5F5806F2FD010461946BDE8F081A7F268
:100C900013474FF0FF3E2EFA07F73842F3D022A356
:100CA000D3E9002316F0B8F90022002316F0F6FD70
:100CB0000028DFD0002C20DB444626EA0706214628
:100CC0003046BDE8F08118A3D3E9002316F0A4F95B
:100CD0000022002316F0E2FD0028CBD0002C17DB09
:100CE00000263446C6E716F097F9BDE8F0814FF4C8
:100CF000801343FA05F5A844B9E7142D10D0012359
:100D0000C5F1340503FA05F5AE1928BF9844D3E7B9
:100D100024F00042074B324318BF1C460026A9E7C7
:100D200004F10108C8E700BF9C7500883CE4377EE9
:100D3000FFFF0F000000F0BF2DE9F04FD84B9942A4
:100D400087B0804689460E4613DCD64B21F000441E
:100D50009C4218DD0022D44B16F078FD002879D093
:100D6000002200230020D14916F032FC07B0BDE874
:100D7000F08FCF4B99422FDD42464B4616F04CF98F
:100D800007B0BDE8F08FCB4B9C4270DDCA4B1E44D0
:100D90009E427ED80022C94B4046494616F03CF997
:100DA0004FEA215AAAF2FF3ABAF1000F04460D4663
:100DB0000E4640F3DE8142464B4616F02BF90246C2
:100DC0000B460020BD4916F025F922462B4616F0A9
:100DD000FFFBCDE902010BE0B94B9E42DADD9FED4E
:100DE0009A7B8DED027B4FEA265A4446AAF2FF3ADF
:100DF000B44BC6F313069E4246F07F5500F3E780DE
:100E000045F44015204629460022AC4B16F002F965
:100E1000002204460D46AC4B16F0B0FA22462B4693
:100E200016F0ACFAA046CDE90401A946CDE90001CF
:100E3000002E3AD1002200232046294616F006FD56
:100E4000002800F0CE80BAF1000F40F0748100203D
:100E5000002195E742464B464046314616F0DAF807
:100E600002460B4616F0B4FB07B0BDE8F08F002237
:100E7000964B16F0D1F80022002316F00FFD002843
:100E800000F0CC80924B9C4200F3C880404649461B
:100E900076E700228C4B16F071FA42464B4616F06C
:100EA0006DFACDE900014FF0000A00224FF08043B7
:100EB0004046494616F0B0F802460B4640464946C1
:100EC00016F086FB02460B4606460F4616F056FA0B
:100ED0005FA3D3E9002304460D4616F04FFA5EA344
:100EE000D3E9002316F098F822462B4616F046FA6E
:100EF0005BA3D3E9002316F08FF822462B4616F0A9
:100F00003DFA59A3D3E9002316F086F822462B4672
:100F100016F034FA56A3D3E9002316F07DF82246E2
:100F20002B4616F02BFA54A3D3E9002316F074F8DD
:100F300022462B4616F022FA51A3D3E9002316F0DD
:100F40006BF822462B4616F019FA04460D46BAF104
:100F5000000F00F0BF80504616F0AAF94AA3D3E96B
:100F6000002382468B4616F009FADDE90023CDE91D
:100F700004012046294616F04FF832463B4616F04B
:100F8000FDF943A3D3E9002304460D4650465946D4
:100F900016F0F4F9DDE9022316F03EF802460B469E
:100FA0002046294616F038F802460B46DDE90001D6
:100FB00016F030F842464B4616F02CF802460B4627
:100FC000DDE9040116F026F807B0BDE8F08F45F41E
:100FD0000015C6F5801620462946B6100AF1010A0A
:100FE00012E72DA3D3E900232046294616F0C6F9BF
:100FF00002460B460020314916F00CF8DDE90423C7
:1010000016F0BCF906460F46BAF1000F73D102463E
:101010000B462046294615F0FDFFB1E642464B46F9
:101020004046494616F0AAF90022274B16F0A6F9C9
:1010300002460B464046494615F0ECFF07B0BDE8B6
:10104000F08F00BFAFF30080000000000000000040
:1010500044523EDF12F1C23F9FC678D0099AC33F87
:10106000DE03CB966446C73FAF788E1DC571CC3F7B
:10107000599322942449D23F04FA97999999D93FD8
:10108000935555555555E53F0000E0FE422EE63F8D
:10109000763C7935EF39EA3D555555555555E53F7F
:1010A0007982DA3FFFFFEF3F0000F0BF000050C33E
:1010B000FFFFEF7FFFFF1F3E3C412D400000F03F50
:1010C000FFFF3F439DA006000000E03F00005043AB
:1010D000FFFF8F3CDDE9004522462B4615F09CFFC3
:1010E00032463B4616F04AF902460B462046294650
:1010F00015F090FF9CE7504616F0DAF823A3D3E9E9
:10110000002382468B4616F039F922A3D3E9002347
:10111000804689465046594616F030F9DDE90223EB
:1011200015F07AFF02460B463046394615F072FF3D
:1011300022462B46DCE7504616F0BAF815A3D3E951
:10114000002306460F4616F019F9DDE9022315F0D3
:1011500063FF0EA3D3E9002304460D46304639460B
:1011600016F00CF902460B462046294615F054FFAE
:1011700006E60022044B15F04DFF02460B464046A2
:10118000494615F047FF20E60000F03F0000E0FE72
:10119000422EE63F763C7935EF39EA3D000000000B
:1011A00008B514F06DFB04A3D3E9002316F010FA80
:1011B00008BD00BFAFF30080EF39FAFE422EE63FD4
:1011C0002DE9F043DFF8B4808BB004460D4601F002
:1011D000F3F898F90030013306460F462BD022462B
:1011E0002B462046294616F063FB814618BB204655
:1011F000294613F0BFFF1FA3D3E9002316F04EFBCF
:10120000C8B1194A98F90030CDF820900321CDE9F2
:101210000445CDE902458DE806008BB9134B4FF02C
:101220006042CDE90623684615F0F6FC70B1089BD4
:101230009BB9DDE90667304639460BB0BDE8F0835F
:101240000B490020022BCDE90601ECD115F070FE10
:1012500022230360089B002BEBD015F069FE089B4E
:101260000360E6E7AFF3008024970100FFFFEF473C
:101270000000F07F7DF8B98FCE338640FB0100205F
:101280002DE9F043DFF8E4808BB004460D4601F011
:1012900043F998F90030013306460F4633D0204613
:1012A000294615F0B3FC70B32CA3D3E900232046E4
:1012B000294616F0F3FA814650BB2AA3D3E900234E
:1012C0002046294616F0CCFAE8B198F90030204AB9
:1012D000CDF82090002600270421022BCDE90445FB
:1012E000CDE90245CDE906678DE8060029D06846BC
:1012F00015F092FC28B3089B1BB115F019FE089B52
:101300000360DDE90667304639460BB0BDE8F0837F
:101310000F4A98F90030019203210022CDE90445DB
:10132000CDE90245009108922BB90A4B4FF060427B
:10133000CDE90623DBE708490020022BCDE90601B1
:10134000D5D115F0F5FD22230360D4E7AFF300807B
:101350002C970100FFFFEF470000F07FEF39FAFE06
:10136000422E864051302DD5104987C0FB01002008
:101370002DE9F04FDFF80C938DB006460F4614466A
:101380001D4601F0C5FC99F90080B8F1FF3FCDE999
:10139000000136D022462B462046294616F088FA10
:1013A000834670BB32463B463046394616F080FADB
:1013B0008246002840F0A2803046394600220023B1
:1013C00016F044FA10B3002200232046294616F0F6
:1013D0003DFA834600286AD09FEDA17B0122A44BF1
:1013E000CDF828A00292CDE90467CDE906458DED40
:1013F000087B0393B8F1000F45D09FED9B7B8DEDEB
:10140000007BDDE900010DB0BDE8F08FDDE90001F2
:1014100015F0FCFB8046002800F08D804FF0000A9C
:101420004FF0000BDDE9000152465B4616F00EFA64
:101430000028E6D03046394615F0E8FB0028E0D019
:101440002046294615F0E2FB0028DAD099F9003051
:10145000874A039204210022022BCDE90467CDE9DB
:101460000645CDE908AB02910A9203D002A815F017
:10147000D3FB68B915F05CFD2223036008E09FED03
:10148000787B8DED087B02A815F0C6FB002830D0D4
:101490000A9B1BB115F04CFD0A9B03609DED087B78
:1014A0008DED007BDDE900010DB0BDE8F08F204639
:1014B000294615F0ABFB0028A3D0002200232046CC
:1014C000294616F0CDF900289BD099F90030684ADA
:1014D000CDF828B00121CDE90467CDE90645029198
:1014E0000392002BCBD063490020022BCDE90801E9
:1014F000C9D115F01DFD21230360C9E70022002397
:101500002046294616F0A2F900283FF47AAF5A4B3C
:101510005749CDF828B000220120B8F1020FCDE9DB
:1015200004670290CDE90645CDE908230391AAD1CD
:10153000CDE9002365E73046394615F067FB002802
:101540003FF46CAF2046294615F060FB00283FF4BD
:1015500065AFDDE900231046194616F0A9F9002809
:101560005FD1032399F900800293414B0A90CDE9A2
:101570000467CDE906450393B8F1000F2BD1DFF8DE
:1015800008B14FF0604A0022002330463946CDE9C9
:1015900008AB16F065F900283FF468AF0022374B1E
:1015A0002046294615F0EAFE04460D4615F03CFBA0
:1015B00002460B462046294616F048F970BB304BD0
:1015C00099F900804FF06042CDE90823B8F1020F8D
:1015D0007FF44CAF4EE7DFF8B4B04FF0000A0022C2
:1015E000002330463946CDE908AB16F039F900281A
:1015F000ECD00022214B2046294615F0BFFE0446C0
:101600000D4615F011FB02460B462046294616F002
:101610001DF918B9174B0022CDE9082399F900806C
:10162000D4E799F90090124BCDF828800122CDE93A
:101630000467CDE9064502920393B9F1000F3FF428
:101640001EAF002200231046194615F0C1FFB9F164
:10165000020FCDE908013FF44CAF14E7AFF300806F
:101660000000000000000000000000000000F03F4B
:10167000449701000000F0FF0000F03F0000E03F51
:10168000FFFFEFC7FB010020FFFFEF470000F07FE7
:101690002DE9F84FC44E21F00043B34204460D46F5
:1016A0000DDD03F1404303F58013034340F0B9809F
:1016B000002940F3408100200021BDE8F88FBB4E97
:1016C000B34240F3A6800029C0F2788102460B465F
:1016D0000020B74915F09EFC0022B64B15F04EFED7
:1016E00004460D4614F00AFC95A3D3E9002389466D
:1016F00080462946204615F041FE93A3D3E90023F6
:1017000015F08AFC22462B4615F038FE90A3D3E94B
:10171000002315F07FFC22462B4615F02FFE8EA3EA
:10172000D3E9002315F078FC22462B4615F026FE5F
:101730008BA3D3E9002315F06DFC22462B4615F050
:101740001DFE89A3D3E9002315F066FC22462B4633
:1017500015F014FE86A3D3E9002382468B4620466B
:10176000294615F00BFE84A3D3E9002315F052FCA3
:1017700022462B4615F002FE81A3D3E9002315F083
:101780004BFC22462B4615F0F9FD7FA3D3E900233D
:1017900015F040FC22462B4615F0F0FD0022844B4C
:1017A00015F03AFC02460B465046594615F010FF1C
:1017B00042464B4615F0E2FD002682468B463246F5
:1017C0004B463046494615F0D9FD02460B462046A9
:1017D000294615F01FFC324604460D464B4640464E
:1017E000494615F019FC02460B462046294615F0DD
:1017F000EFFE02460B465046594615F00DFC3246A8
:101800004B4615F009FC02460B4615F005FCBDE8F9
:10181000F88F694A93420EDC5DA1D1E90001BDE871
:10182000F88F02460B4615F0F5FB02460B4615F005
:10183000CFFEBDE8F88F02460B4615F09FFD40A392
:10184000D3E9002306460F4615F098FD3EA3D3E9E1
:10185000002315F0E1FB32463B4615F08FFD3CA31B
:10186000D3E9002315F0D6FB32463B4615F086FD42
:1018700039A3D3E9002315F0CFFB32463B4615F0E0
:101880007DFD37A3D3E9002315F0C4FB32463B4668
:1018900015F074FD34A3D3E9002315F0BDFB3246E7
:1018A0003B4615F06BFD32A3D3E900238046894601
:1018B0003046394615F062FD2FA3D3E9002315F019
:1018C000A9FB32463B4615F059FD2DA3D3E9002371
:1018D00015F0A2FB32463B4615F050FD2AA3D3E992
:1018E000002315F097FB32463B4615F047FD0022DA
:1018F0002F4B15F091FB02460B464046494615F02A
:1019000067FE22462B4615F039FD02460B4622A102
:10191000D1E9000115F07EFB02460B462046294620
:1019200015F078FB02460B4619A1D1E9000115F02C
:1019300071FBBDE8F88F1AA1D1E90001BDE8F88F6D
:1019400009F7FD0DE13D023F88B20175E0EF493F27
:101950003B8F68B52882A43F5544880E55C1C93FC6
:101960007D6FEB0312D6D43F555555555555C53FA0
:1019700082922EB1C5B8B33F59018D1B6C06E63F6C
:10198000C88A599CE52A00404B2D8A1C273A0340FF
:10199000182D4454FB21F93F075C143326A6913CD3
:1019A000182D4454FB210940FFFFEF3FFFFFDF3FAD
:1019B0000000F03F0000E03F0000603C00225C4B74
:1019C00015F02AFB00225B4B15F0D8FC40A3D3E9AD
:1019D000002304460D4615F0D1FC3FA3D3E90023B4
:1019E00015F01AFB22462B4615F0C8FC3CA3D3E9A0
:1019F000002315F00FFB22462B4615F0BFFC3AA33F
:101A0000D3E9002315F008FB22462B4615F0B6FC5F
:101A100037A3D3E9002315F0FDFA22462B4615F033
:101A2000ADFC35A3D3E9002315F0F6FA22462B4688
:101A300015F0A4FC804689462046294614F05EFA3B
:101A40002FA3D3E9002306460F462046294615F06A
:101A500095FC2DA3D3E9002315F0DCFA22462B4692
:101A600015F08CFC2AA3D3E9002315F0D5FA224601
:101A70002B4615F083FC28A3D3E9002315F0CAFAFE
:101A800022462B4615F07AFC0022294B15F0C4FAA9
:101A900002460B464046494615F09AFD32463B4603
:101AA00015F06CFC1EA3D3E9002315F0B3FA3246FF
:101AB0003B4615F0B1FA02460B4615F0ADFA024668
:101AC0000B4619A1D1E9000115F0A4FABDE8F88F81
:101AD00009F7FD0DE13D023F88B20175E0EF493F96
:101AE0003B8F68B52882A43F5544880E55C1C93F35
:101AF0007D6FEB0312D6D43F555555555555C53F0F
:101B000082922EB1C5B8B33F59018D1B6C06E63FDA
:101B1000C88A599CE52A00404B2D8A1C273A03406D
:101B2000075C143326A6913C182D4454FB21094030
:101B30000000F03F0000E03F434A91422DE9F843A6
:101B400004460D4639DD414A914209DD02F17952E0
:101B5000914240DD02460B4615F05EFABDE8F8837F
:101B600001F1404202F58012024330D0B1F1804FC2
:101B70003ADC0022364B15F04DFA02460B4604467D
:101B80000D4615F049FA224606460F462B462046DA
:101B9000294615F0F3FB02460B463046394615F050
:101BA0003BFA14F0ABF90B4602462946204615F0E5
:101BB00033FABDE8F843FFF7BFB802460B4615F00D
:101BC00029FA02460B4615F003FDBDE8F883002014
:101BD0000021BDE8F88300F017FE19A3D3E9002324
:101BE00015F01AFABDE8F88302460B4615F0C6FB5D
:101BF0000022174B15F00EFA14F080F922468046A9
:101C000089462B462046294615F006FA42460646E6
:101C10000F464B462046294615F0FEF902460B4674
:101C200000200B4915F0D4FC0B46024639463046DD
:101C300015F0F0F9BDE8F84300F0E6BDAFF3008021
:101C4000EF39FAFE422EE63FFFFFEF3FFFFFAF41C5
:101C50000000F03F000000002DE9F047BE4B21F0EE
:101C60000048984584B004460D4612DD08F140480E
:101C700008F58018034658EA030321D002460B46B4
:101C800015F0C8F902460B4615F0A2FC04B0BDE8F9
:101C9000F087B24B98458A4629DCB8F1795F80F22B
:101CA000658191A3D3E9002315F0B6F90022AC4B6E
:101CB00015F0F4FDD8B12046294604B0BDE8F08700
:101CC0008BA3D3E9002315F059FB8BA3D3E90023A1
:101CD00006460F462046294615F050FB02460B46A5
:101CE0003046394615F098F904B0BDE8F087204633
:101CF000294613F03FFA02460B460020984915F09A
:101D000089F90022974B15F039FB7DA3D3E9002315
:101D100004460D4615F032FB7BA3D3E9002315F0F2
:101D20007BF922462B4615F029FB79A3D3E9002342
:101D300015F070F922462B4615F020FB76A3D3E967
:101D4000002315F069F922462B4615F017FB74A302
:101D5000D3E9002315F05EF922462B4615F00EFB61
:101D600071A3D3E9002315F057F922462B4615F04D
:101D700005FB6FA3D3E90023CDE9000120462946E6
:101D800015F0FCFA6CA3D3E9002315F043F92246C1
:101D90002B4615F0F3FA6AA3D3E9002315F03CF9BA
:101DA00022462B4615F0EAFA67A3D3E9002315F083
:101DB00031F922462B4615F0E1FA694B002215F065
:101DC0002BF9CDE902012046294614F097F8664B1D
:101DD000984506460F4666DCDDE90223DDE9000191
:101DE00015F0F6FB3246CDE900013B463046394658
:101DF00015F012F902460B46DDE9000115F0BEFAB6
:101E00004FF00008CDE9000142463B4640463946C6
:101E100015F0B4FA02460B462046294615F0FAF8AA
:101E2000424604460D463B463046394615F0F4F826
:101E300002460B462046294615F0CAFB02460B46D1
:101E400015F0EAF802460B462BA1D1E9000115F086
:101E5000E1F802460B46DDE9000115F0DBF84246E9
:101E600004460D463B464046394615F0D5F8024635
:101E70000B4637A1D1E9000115F0CCF802460B461C
:101E80002046294615F0C6F802460B4630A1D1E996
:101E9000000115F0BFF8BAF1000F3FF7F7AE01F1FE
:101EA00000431946F2E6DDE90223DDE9000115F001
:101EB0008FFB32463B4615F061FA32463B4615F041
:101EC000ABF802460B4615F0A7F80BA3D3E90023A5
:101ED00015F0A0F802460B4605A1D1E9000115F066
:101EE00099F8D8E7AFF300809C7500883CE4377E12
:101EF000182D4454FB21F93F075C143326A6913C6E
:101F000009F7FD0DE13D023F88B20175E0EF493F61
:101F10003B8F68B52882A43F5544880E55C1C93F00
:101F20007D6FEB0312D6D43F555555555555C53FDA
:101F300082922EB1C5B8B33F59018D1B6C06E63FA6
:101F4000C88A599CE52A00404B2D8A1C273A034039
:101F5000182D4454FB21E93FFFFFEF3FFFFFDF3F18
:101F60000000F03F0000E03F3233EF3F02460B46F7
:101F700015F004FA37A3D3E9002306460F4615F0FF
:101F8000FDF936A3D3E9002315F046F832463B4667
:101F900015F0F4F933A3D3E9002315F03BF83246EA
:101FA0003B4615F0EBF931A3D3E9002315F034F8E3
:101FB00032463B4615F0E2F92EA3D3E9002315F093
:101FC00029F832463B4615F0D9F92CA3D3E9002372
:101FD00015F022F832463B4615F0D0F929A3D3E993
:101FE0000023804689463046394615F0C7F927A3B5
:101FF000D3E9002315F00EF832463B4615F0BEF942
:1020000024A3D3E9002315F007F832463B4615F028
:10201000B5F922A3D3E9002314F0FCFF32463B4676
:1020200015F0ACF900220A4B14F0F6FF02460B46FD
:102030004046494615F0CCFA22462B4615F09EF94B
:1020400022462B4614F0E8FF04B0BDE8F08700BF3D
:102050000000F03F09F7FD0DE13D023F88B2017538
:10206000E0EF493F3B8F68B52882A43F5544880E76
:1020700055C1C93F7D6FEB0312D6D43F5555555519
:102080005555C53F82922EB1C5B8B33F59018D1B3E
:102090006C06E63FC88A599CE52A00404B2D8A1CF5
:1020A000273A0340000000002DE9F84F1D46534237
:1020B000134325F0004ADFF8E0E14AEAD3737345A1
:1020C000144606460F4647D8C0F1000848EA000803
:1020D00021F0004343EAD878F0458B463CD805F11F
:1020E000404808F5801858EA020850D04FEAA57811
:1020F00008F0020848EAD17850EA030134D052EAE5
:102100000A023CD0F24557D0734538D0A3EB0A03FE
:102110001B153C2B42DC002D70DB22462B46304643
:10212000394615F055FA13F025F8FEF751FBB8F1D2
:10213000010F5FD0B8F1020F4ED0B8F1000F62D09E
:1021400043A3D3E9002314F065FF43A3D3E900239D
:1021500014F060FFBDE8F88F32463B462046294622
:1021600014F05AFFBDE8F88FB8F1020F1AD0B8F199
:10217000030F10D13AA1D1E90001BDE8F88FBBF1FE
:10218000000F14DB38A1D1E90001BDE8F88FBDE8EC
:10219000F84FFEF71DBB3946BDE8F88F32A1D1E9F3
:1021A0000001C4E72CA1D1E90001BDE8F88F30A1FE
:1021B000D1E90001BDE8F88F534526D0B8F1020FF0
:1021C000F0D0B8F1030FD5D0B8F1010F4FF00000F7
:1021D00029D00021BDE8F88F1DA3D3E9002314F016
:1021E00019FF02460B461CA1D1E9000114F012FFB1
:1021F000BDE8F88F01F10041BDE8F88F3C338CDA7F
:102200000020002193E7BDE8F88FB8F1020F18D045
:10221000B8F1030F10D0B8F1010F08D016A1D1E921
:102220000001BDE8F88F4FF00041BDE8F88F14A120
:10223000D1E90001BDE8F88F13A1D1E90001BDE8A3
:10224000F88F13A1D1E90001BDE8F88FAFF300804A
:10225000075C143326A6A13C182D4454FB210940E9
:10226000182D4454FB2109C0182D4454FB21F93F7B
:10227000182D4454FB21F9BF182D4454FB21E93F8C
:10228000182D4454FB21E9BFD221337F7CD902C0F1
:10229000D221337F7CD902400000F07F0000000093
:1022A00043422DE9F047034321F000463E4A46EA07
:1022B000D373934204460D4613D896423DD03B4B10
:1022C0009E428A4617DC36A3D3E9002314F0A4FE0D
:1022D0000022002315F0E2FAA8B320462946BDE803
:1022E000F08702460B4614F095FE02460B4615F0A9
:1022F0006FF9BDE8F0872E4B9E42354624DD33460C
:102300000246314614F088FE224606460F462B460A
:102310000020254914F07EFE02460B463046394621
:1023200015F056F9FEF708FD0022224B15F026F8AD
:10233000BAF1000F2FDBBDE8F0870022002315F073
:1023400047F9BDE8F087354622462B462046294608
:1023500014F062FE22462B4606460F4615F00EF894
:102360002246804689462B4600200F4914F052FE33
:1023700002460B464046494615F02AF932463B468E
:1023800014F04AFEFEF7D8FC00220A4B14F0F6FFC8
:10239000BAF1000FCFDA01F100431946BDE8F0872A
:1023A0009C7500883CE4377E0000F03FFFFF2F3E25
:1023B000FFFFDF3F0000E03F2DE9F8434E4B21F0E7
:1023C00000449C4206460F461BDC4C4B9C4222DDDF
:1023D0004B4B9C4263DD4B4B9C427BDD4A4B9C420A
:1023E00046DD01339C4240D041A3D3E9002310468F
:1023F000194614F0C3FF06460F4630463946BDE87D
:10240000F88302460B4614F0B9FF06460F463046E5
:102410003946BDE8F88312F0ADFE02F0B1FC0022AF
:102420003A4B8046894614F0F7FDB4F1725F0646D8
:102430000F46ECDB42464B464046494614F09EFFB1
:1024400032463B4604460D463046394614F0E4FD1C
:1024500002460B462046294615F0BAF800222B4BBF
:1024600014F0DAFD06460F46D1E7294B9842BBD857
:102470003046394612F07EFE0022264B14F07EFFD5
:1024800000F04AF8002204460D46224B14F076FF75
:1024900022462B4614F072FF06460F46B7E712F0AD
:1024A00069FE00F039F800221A4B06460F4614F078
:1024B00065FF32463B4604460D460020154915F09F
:1024C00087F802460B462046294614F0A5FD06462D
:1024D0000F469CE712F04EFE00F01EF800220D4B56
:1024E00014F04CFF06460F4691E700BFAFF30080A3
:1024F0009C7500883CE4377EFFFFEF7F422ED63F7D
:10250000FFFF3540412E8640CD3386400000F03F2E
:102510007DF8B98F0000E03F2DE9F04FB04E21F07B
:102520000042B24283B004460D464FEAD1770DD93E
:10253000AC4EB24225D9C1F31303034340F0EC8003
:102540000FB10020002103B0BDE8F08FA64B9A42E6
:1025500000F2CB80A54B9A4200F2DC808AA3D3E93B
:10256000002314F059FD0022A14B15F097F9002823
:1025700000F006812046294600229D4B14F04CFDB8
:10258000E1E783A3D3E9002315F088F9002840F0A0
:10259000C88081A3D3E900232046294615F060F9BD
:1025A0000028CED1934E7EA3D3E9002306EBC706C5
:1025B0002046294614F0E2FED6E9002314F02CFD53
:1025C00015F08CF9064614F073FE77A3D3E90023C7
:1025D0008046894614F0D2FE02460B462046294624
:1025E00014F018FD72A3D3E90023CDE900014046A1
:1025F000494614F0C3FE82468B4652465B46DDE9EF
:10260000000114F007FD04460D4622462B462046E5
:10261000294614F0B3FE68A3D3E900238046894617
:1026200014F0ACFE66A3D3E9002314F0F3FC424699
:102630004B4614F0A3FE64A3D3E9002314F0ECFC92
:1026400042464B4614F09AFE61A3D3E9002314F0EE
:10265000E1FC42464B4614F091FE5FA3D3E9002310
:1026600014F0DAFC42464B4614F088FE02460B4654
:102670002046294614F0CEFC80468946002E58D0CC
:102680002046294642464B4614F078FE4246044610
:102690000D464B4600204FF0804114F0BBFC024633
:1026A0000B462046294614F093FF02460B4650463F
:1026B000594614F0AFFCDDE9002314F0ABFC0B46E7
:1026C00002464B49002014F0A5FC6FF47F739E4234
:1026D00051DA06F57A7601EB065100224FF0B87315
:1026E00014F04CFE03B0BDE8F08F434B9A423FF626
:1026F00059AF424BFC002344D3E9002314F08AFC79
:102700003F4BC7F101062344CDE90001D3E900ABFB
:10271000F61B72E7002678E702460B4614F07CFCB5
:1027200011E719A3D3E900231046194614F026FE39
:1027300009E702460B462046294614F01FFE0022F8
:1027400006460F464FF080434046494614F062FC6F
:1027500002460B463046394614F03AFF22462B46D5
:1027600014F058FC02460B460020214914F052FC9C
:1027700003B0BDE8F08F01EB065103B0BDE8F08F68
:10278000064642E7AFF300809C7500883CE4377E44
:10279000EF39FAFE422E864051302DD5104987C0C0
:1027A000FE822B654715F73F0000E0FE422EE63F14
:1027B000763C7935EF39EA3DD0A4BE726937663E82
:1027C000F16BD2C541BDBB3E2CDE25AF6A56113F31
:1027D00093BDBE166CC1663F3E5555555555C53F18
:1027E000412E8640FFFFEF7F422ED63FFFFF2F3E58
:1027F0000000F03FD0850100B1A2F03FE08501006C
:10280000F0850100000000002DE9F04FB1F5801FB8
:1028100085B006460F460B465ADA024621F00044C0
:10282000224300F0F8800029C0F27A810022D64BC2
:1028300014F0A4FDD54A0B46934206460F466FF0AE
:10284000350C4ADCC3F3130505F5152E0EF6647E30
:102850000EF4801E8EF07F5282F440121C1542EA64
:102860000507A4F2FF3464440022C94B30463946C0
:1028700004EB1E5414F0CEFBAB1CC3F31303022B6A
:1028800082468B464FF0000230DC002314F0DEFF5E
:10289000002800F0C980002C00F04B81204614F085
:1028A00007FDA5A3D3E9002306460F4614F066FDF5
:1028B000A3A3D3E9002304460D463046394614F05D
:1028C0005DFD02460B462046294614F0A5FB0AE0B2
:1028D000AE4A93424FF0000CB4DD32463B463046E0
:1028E000394614F099FB05B0BDE8F08F4FF08043F6
:1028F00014F092FB02460B465046594614F068FE0F
:10290000064620460F4614F0D3FC3246CDE90001BE
:102910003B4630463946CDE9026714F02FFD0246AA
:102920000B468046894614F029FD87A3D3E900238E
:1029300006460F4614F022FD85A3D3E9002314F0C8
:102940006BFB32463B4614F019FD83A3D3E9002309
:1029500014F062FB32463B4614F010FD80A3D3E92D
:10296000002314F059FB42464B4614F007FD7EA3AA
:10297000D3E90023804689463046394614F0FEFCF0
:102980007BA3D3E9002314F047FB32463B4614F007
:10299000F5FC79A3D3E9002314F03EFB32463B4615
:1029A00014F0ECFC0B4602464946404614F034FB5A
:1029B000A5F5C223C5F5D725A3F27A4351351D43AA
:1029C000002D8046894656DD0022724B50465946FE
:1029D00014F0D4FC52465B4614F0D0FC06460F4679
:1029E000002C68D132463B464046494614F014FB61
:1029F000DDE9022314F0C2FC02460B46304639469C
:102A000014F008FB02460B465046594614F002FBF0
:102A100005B0BDE8F08F0022002300205E4914F0CD
:102A2000D7FD05B0BDE8F08F55A3D3E9002350468C
:102A3000594614F0A3FC02460B460020554914F0F9
:102A4000E9FA524606460F465B465046594614F090
:102A500095FC02460B463046394614F08FFC06467C
:102A60000F46002C40F09A8002460B4650465946CD
:102A700014F0D0FA37E7002C00F0A4802EA3D3E99D
:102A80000023DDE9000114F079FC42464B46044680
:102A90000D465046594614F0BDFADDE9022314F004
:102AA0006DFC27A3D3E9002306460F46DDE90001AC
:102AB00014F064FC21E020A3D3E90023DDE9000148
:102AC00014F05CFC32463B4604460D4640464946FF
:102AD00014F0A2FADDE9022314F050FC18A3D3E9A4
:102AE000002380468946DDE9000114F047FC0246D8
:102AF0000B464046494614F08FFA02460B463046D4
:102B0000394614F087FA52465B4614F083FA0246BF
:102B10000B462046294614F07DFA05B0BDE8F08F3B
:102B200002460B4614F076FA0022002314F050FD02
:102B3000D9E600200021D6E60000E0FE422EE63F66
:102B4000763C7935EF39EA3D44523EDF12F1C23F1F
:102B5000DE03CB966446C73F599322942449D23F63
:102B6000935555555555E53F9FC678D0099AC33FB3
:102B7000AF788E1DC571CC3F04FA97999999D93FCA
:102B8000555555555555D53F00005043FFFFEF7F34
:102B90000000F03F0000E03F000050C3204614F06A
:102BA00087FB0FA3D3E900238046894614F0E6FB98
:102BB0000DA3D3E9002304460D464046494614F0D0
:102BC000DDFB9AE702460B465046594614F022FABE
:102BD000DDE9022314F0D2FB14E700BFAFF300805D
:102BE0000000E0FE422EE63F763C7935EF39EA3DC3
:102BF000B1F5801F2DE9F84304460D460B461ADA5D
:102C0000024621F00046324359D000295FDB002202
:102C10003B4B14F0B3FB3B4A0D462B469342044614
:102C20006FF035010CDD22462B462046294614F074
:102C3000F3F9BDE8F883334A93424FF00001F2DC28
:102C40001815A0F2FF3008444FEAD0794844C3F386
:102C5000130814F02DFBC9F57F73033348EA0355BD
:102C600006460F4620462946FFF7CEFD1EA3D3E9B0
:102C70000023804689463046394614F07FFB1CA36A
:102C8000D3E9002304460D464046494614F076FB3E
:102C900002460B462046294614F0BEF916A3D3E996
:102CA000002304460D463046394614F067FB0246C1
:102CB0000B462046294614F0AFF9BDE8F883002200
:102CC00000230020104914F083FCBDE8F88302467D
:102CD0000B4614F09FF90022002314F079FCBDE8A4
:102CE000F88300BFAFF30080362BF111F3FE593D9E
:102CF0000EE526157BCBDB3F00609F501344D33F8E
:102D000000005043FFFFEF7F000050C300000000B1
:102D10002DE9F04F23F0004757EA020493B037D073
:102D2000674C21F00046A64283460D4629DC9A46B0
:102D3000964625D0A74224DC614CA74279D0002DCD
:102D400080468946CDE9002377DB0024BEF1000FE1
:102D50002CD15B4B9F4200F08B805A4B9F4261D03D
:102D6000BAF1804F00F0C383574B9A451ED1002D16
:102D70001CDB4046494613B0BDE8F04F13F0BEB827
:102D800058B106F1404606F5801656EA0B0306D107
:102D90004C49002013B0BDE8F08FB742CCDD4B4862
:102DA00013B0BDE8F04F13F039BF00244046494648
:102DB00012F0E0F9BBF1000F19D126B1414B25F01B
:102DC00040429A4213D1BAF1000FC0F2CA83002DDB
:102DD000E0DA06F1404606F5801656EA040300F0F4
:102DE000A584012CD6D101F100431946D2E7ED0F9D
:102DF000013D54EA05034ED0354B9F426EDD03F191
:102E000004739F4240F3FE83324B9E424EDDBAF183
:102E1000000F4EDD28A3D3E900231046194614F015
:102E2000ADFAB7E7BAF1000FC0F252844046494606
:102E3000B0E7BEF1000F82D0A3E7274B9F4228DC0A
:102E4000A3F154739F4280DD3B15A3F2FF33142B93
:102E500040F35484C3F134032EFA03F202FA03F36D
:102E60009E457FF472AF02F00102C2F102046DE7E9
:102E700006F1404303F5801353EA0B0388D0154B4A
:102E80009E4240F33B83BAF1000F12DBDDE9000103
:102E900080E702245AE742464B461046194614F092
:102EA000B9F802460B4614F093FB73E7BAF1000F32
:102EB000B0DB002000216DE79C7500883CE4377E84
:102EC0000000F07F0000F03F0000E03F148E0100A2
:102ED0000000E041FFFFEF3FFFFF3F43B6F5801FDB
:102EE0004FF0000205DAD84B14F048FA6FF03402C4
:102EF0000E463315D54FC6F31306A3F2FF33134422
:102F000046F07F5ABE421A460D934AF4401A40F3E7
:102F10002F83CF4B9E4240F30D849FEDB57B8DED0B
:102F2000087B8DED0E7B9FEDB47B13468DED067B0C
:102F300001330D93AAF5801A0027DDE906235146D7
:102F4000CDE90A0114F066F8DDE9062380468946DA
:102F5000DDE90A0114F060F802460B460020BD4985
:102F600014F036FB0A460146CDE9101213464946D5
:102F70000246404614F002FA4FEA6A0343F0005357
:102F80008C46834603F50023CDE904BCDA468B4624
:102F9000D9190023CDE902AB0293DDE902AB002091
:102FA00006460F4602460B465046594614F0E6F9CF
:102FB00002460B464046494614F02CF8DDE906234C
:102FC000804689463046394614F024F802460B46BE
:102FD000DDE90A0114F01EF852465B4614F0CEF902
:102FE00002460B464046494614F014F8DDE910232A
:102FF00014F0C4F9DDE90467CDE9060132463B4629
:103000003046394614F0BAF97DA3D3E900230646C9
:103010000F4614F0B3F97CA3D3E9002313F0FCFFAF
:1030200032463B4614F0AAF979A3D3E9002313F002
:10303000F3FF32463B4614F0A1F977A3D3E900230E
:1030400013F0EAFF32463B4614F098F974A3D3E933
:10305000002313F0E1FF32463B4614F08FF972A3D0
:10306000D3E9002313F0D8FF3246804689463B4619
:103070003046394614F082F902460B46404649462E
:1030800014F07CF9524606460F465B46DDE9040122
:1030900013F0C2FFDDE9062314F070F932463B4617
:1030A00013F0BAFF5246804689465B465046594661
:1030B00014F064F90022684BCDE90A0113F0ACFF6B
:1030C00042464B4613F0A8FF02980F46064632468A
:1030D0003B465046594614F051F9002282468B4631
:1030E0005D4B3046394613F095FFDDE90A2313F0B6
:1030F00091FF02460B464046494613F08BFFDDE93F
:10310000042314F03BF93246804689463B46DDE90C
:10311000060114F033F902460B464046494613F0C7
:103120007BFF8046894602460B4650465946CDE90C
:1031300004AB13F071FFDDE902AB3DA3D3E900233B
:1031400050460F4614F01AF9DDE90423CDE90201D7
:103150003946504613F05EFF02460B46404649464C
:1031600013F058FF34A3D3E9002314F007F934A374
:10317000D3E90023804689465046394614F0FEF8CC
:1031800002460B464046494613F046FFDDE90E2352
:1031900013F042FF80460D98894614F089F84246A4
:1031A00006460F464B46DDE9020113F035FFDDE927
:1031B000082313F031FF32463B4613F02DFF324611
:1031C0003B4650468B4613F025FFDDE9082313F0FC
:1031D00021FFDDE9022313F01DFF02460B464046A6
:1031E000494613F017FF8046894637E0AFF3008069
:1031F0000000000000000000000000000000F03FA0
:10320000EF4E454A287ECA3F65DBC9934A86CD3FCB
:1032100001411DA96074D13F4D268F515555D53FB1
:10322000FFAB6FDBB66DDB3F033333333333E33F49
:10323000000000E009C7EE3FFD033ADC09C7EE3F9E
:10324000F5015B14E02F3EBE000040438E98030062
:1032500079B60B000000F03F00000840013C54EA42
:10326000050300F079819FEDC87B8DED047BDDE9DE
:1032700000120B461446CDE9023400230293DDE927
:10328000024508462B461146224613F0C3FE52461D
:103290005B4614F073F8DDE9002306460F4640460E
:1032A000494614F06BF802460B463046394613F097
:1032B000B3FE2246804689462B4650465946CDE904
:1032C000008914F05BF80B46024606460F4640465E
:1032D000494613F0A1FEC64B994204460D468A4664
:1032E00040F3168101F13F4303F5E003034340F04F
:1032F000F781A7A3D3E90023DDE9000113F08CFED9
:103300003246804689463B462046294613F082FED7
:1033100002460B464046494614F0C0FA002840F0E9
:10332000DF81A8464FEA28534FF48012A3F2FE3300
:1033300042FA03F35344C3F30A52AE4DA2F2FF32F2
:103340001541C3F3130423EA05010020C2F1140B55
:1033500044F48014BAF1000F02460B4644FA0BFB0A
:1033600030463946B8BFCBF1000B13F053FE02468E
:103370000B4606460F46DDE9000113F04DFE4FEA0D
:103380000B5A0D46002484A3D3E900232046294686
:1033900013F0F4FF3246804689463B4620462946D4
:1033A00013F038FE02460B46DDE9000113F032FE51
:1033B0007BA3D3E9002313F0E1FF7BA3D3E9002330
:1033C00006460F462046294613F0D8FF02460B4614
:1033D0003046394613F020FE06460F4602460B469D
:1033E0004046494613F018FE42464B4604460D46F9
:1033F00013F010FE02460B463046394613F00AFE23
:103400002246804689462B462046294613F0B6FFC1
:1034100067A3D3E9002306460F4613F0AFFF66A368
:10342000D3E9002313F0F6FD32463B4613F0A6FF26
:1034300063A3D3E9002313F0EFFD32463B4613F0BC
:103440009DFF61A3D3E9002313F0E4FD32463B4620
:1034500013F094FF5EA3D3E9002313F0DDFD3246A1
:103460003B4613F08BFF02460B462046294613F0DD
:10347000D1FD06460F4602460B462046294613F06C
:103480007DFF0022CDE900014FF0804330463946F0
:1034900013F0C0FD02460B46DDE9000114F098F878
:1034A000424606460F464B462046294613F066FF25
:1034B00042464B4613F0B0FD02460B4630463946B5
:1034C00013F0A8FD22462B4613F0A4FD02460B463E
:1034D0000020494913F09EFD8A44BAF5801FC0F2CE
:1034E00039815146DDE9042313F048FF52E4424696
:1034F0004B464046494613F041FF4BE4BAF1000FFA
:10350000BFF6D7ACDDE90034184604F1004141E4D0
:103510003A4B21F00048984540F3FF80384B0B446C
:1035200003430CD132463B4613F074FD02460B4672
:10353000DDE9000114F09EF900283FF4F3AEDDE967
:10354000040125A3D3E9002313F018FF22A3D3E934
:10355000002313F013FF1DE49FED217B8DED047B11
:1035600085E602460B460020234914F031F82EE48C
:103570009FED1D7B8DED087B8DED0E7B9FED027B1E
:1035800000278DED067BD8E4000000000000F03F2E
:10359000FE822B654715973C00000000432EE63F56
:1035A000EF39FAFE422EE63F396CA80C615C20BE72
:1035B000D0A4BE726937663EF16BD2C541BDBB3E39
:1035C0002CDE25AF6A56113F93BDBE166CC1663F17
:1035D0003E5555555555C53F59F3F8C21F6EA501C7
:1035E000000000000000F0BF00000000000000002C
:1035F000FFFF8F40FFFF0F000000F03FFFCB904028
:1036000000346F3F684B9E427FF750AC674B9E4241
:103610003FF7FDAB0022654B13F0FCFC52A3D3E94E
:10362000002306460F4613F0A9FE51A3D3E9002359
:10363000804689463046394613F0A0FE0022824675
:103640008B465B4B3046394613F098FE02460B46DC
:1036500049A1D1E9000113F0DDFC32463B4613F0ED
:103660008DFE02460B460020524913F0D3FC324631
:10367000CDE902013B463046394613F07FFE024653
:103680000B46DDE9020113F079FE3DA3D3E90023E7
:1036900013F074FE02460B465046594613F0BAFC2E
:1036A00002460B4606460F464046494613F0B4FC18
:1036B00042464B46002082468B4613F0ABFC024646
:1036C0000B463046394613F0A5FC80468946C5E5D1
:1036D00042464B460020354913F07AFFFFF75ABBAC
:1036E000DDE9040128A3D3E9002313F047FE26A354
:1036F000D3E9002313F042FEFFF74CBBBEF1000FED
:103700007FF453ABC3F1140347FA03F202FA03F355
:103710009F4223D07446FFF720BB264B98453FF7C6
:1037200001AEDDE90223924693462BE602460B46A4
:10373000FFF7B3BB9FED167B8DED087B9FED167BEE
:103740008DED0E7B9FED167B4FF480278DED067B74
:10375000FFF7F3BB5A4601F04FFDC3E602F001024A
:10376000C2F10204FFF7F9BA000000604715F73F05
:1037700044DF5DF80BAE543E555555555555D53F74
:10378000FE822B654715F73F9C7500883CE4377E29
:103790000000004003B8E23F06D0CF43EBFD4C3EB3
:1037A000000000000000F83FFEFFEF3F0000F03F88
:1037B0000000D03F0000E03F2DE9F0479C4B21F096
:1037C00000479F4290B08046894640F38E80994BD7
:1037D0009F420C46924626DC00298BA3D3E90023A6
:1037E00040F3B08113F016FC934B9F4204460D4604
:1037F00000F0908086A3D3E9002313F00BFC02466F
:103800000B46CAE900232046294613F003FC80A397
:10381000D3E9002313F0FEFB0125CAE90201284683
:1038200010B0BDE8F087854B9F4240F39080844BF9
:103830009F4265DC3D15A5F21645A7EB05531946D9
:103840001F46064614F04AF813F032FD80468946BA
:1038500042464B4630463946CDE90A8913F0DAFB39
:103860000022784B13F08AFD8946804614F036F822
:1038700013F01EFD06460F4632463B46404649467B
:10388000CDE90C6713F0C6FB00226E4B13F076FDFA
:1038900000220023CDE90E0113F0D8FF002800F02C
:1038A0006F81002330463946002213F0CFFF0028F5
:1038B00014BF01230223644A019202212A46009187
:1038C0000AA8514600F08CFB002C054614DADAF801
:1038D0000420DAF80C3002F1004203F100434542C3
:1038E000CAF80420CAF80C3006E000200021C2E922
:1038F0000089C2E902010025284610B0BDE8F08722
:1039000002460B4613F086FB0025CAE90201CAE90C
:103910000001F1E740A3D3E9002313F07BFB40A3B0
:10392000D3E900230D46044613F074FB02460B4610
:10393000CAE900232946204613F06CFB38A3D3E9DB
:10394000002313F067FB0125CAE90201D4E711F057
:1039500011FC35A3D3E900238046894613F00EFD00
:1039600000223A4B13F058FB13F0B8FF054613F052
:103970009FFC25A3D3E90023CDE9060113F0FEFC4B
:1039800002460B464046494613F044FB20A3D3E9C8
:103990000023CDE90201DDE9060113F0EFFC1F2D44
:1039A00080468946CDE9048954DC294B6A1E53F8C8
:1039B00022309F424ED002460B46DDE9020113F051
:1039C00029FB80468946CAE9008942464B46DDE923
:1039D000020113F01FFBDDE9042313F01BFB002C95
:1039E000CAE9020188DA09F1004401F100436D429D
:1039F000CAF80080CAF80440CAF80800CAF80C30B7
:103A00007AE700BFAFF3008000004054FB21F93F8C
:103A10003163621A61B4D03D0000601A61B4D03DD8
:103A20007370032E8A19A33B83C8C96D305FE43FCE
:103A3000FB21E93F7BD90240FB21F93FFB213941C2
:103A4000FFFFEF7F00007041E09701000000E03FC2
:103A500060970100DDE90423DDE9020113F0DAFAE1
:103A60003F15C1F30A53FB1A80468946102BCAE959
:103A70000089AADD58A3D3E90023DDE9060113F08C
:103A80007DFC8046894602460B46DDE9020113F0C3
:103A9000C1FA02460B46DDE90201CDE9082313F025
:103AA000B9FA42464B4613F0B5FA4DA3D3E90023C9
:103AB00080468946DDE9060113F060FC42464B462C
:103AC00013F0A8FA0B46CDE904010246DDE908012E
:103AD00013F0A0FAC1F30A53FF1A80468946312F2A
:103AE000CAE900896CDD41A3D3E90023DDE90601C1
:103AF00013F044FCDDE9088906460F4602460B46F2
:103B00004046494613F086FA02460B46404649466F
:103B1000CDE9022313F07EFA32463B4613F07AFADF
:103B200034A3D3E9002306460F46DDE9060113F06E
:103B300025FC32463B4613F06DFA02460B46CDE9B2
:103B400004233AE713F068FA274B9F4204460D46D8
:103B500018D01FA3D3E9002313F05EFA02460B46E8
:103B6000CAE900232946204613F054FA18A3D3E9E2
:103B7000002313F051FA4FF0FF35CAE90201BBE60A
:103B8000032398E614A3D3E9002313F045FA14A302
:103B9000D3E900230D46044613F03EFA02460B46D5
:103BA000CAE900232946204613F034FA0CA3D3E9CE
:103BB000002313F031FA4FF0FF35CAE902019BE60A
:103BC0009DED087B8DED027BFFE600BFAFF300802B
:103BD0003163621A61B4D03D0000601A61B4D03D17
:103BE0007370032E8A19A33BFB21F93F0000002EBE
:103BF0008A19A33BC14920259A837B390000000024
:103C0000594A2DE9F84F21F00048904506460F46E5
:103C10002BDC564B0029B4BF554D564D98454FF0FF
:103C2000000410DC544B984570DC4DA3D3E900230D
:103C300013F0F2F90022514B13F030FED8B13046A8
:103C40003946BDE8F88F4E4B98457CDD4D4B984585
:103C500044DD013398453ED03046394640A3D3E990
:103C6000002313F08BFBBDE8F88F02460B4613F0E0
:103C7000D3F9BDE8F88F3046394611F07BFA01F0F0
:103C80007FF806460F4632463B463046394613F02B
:103C9000C3F9324682468B463B463046394613F0DE
:103CA0006DFB002280468946344B3046394613F07E
:103CB000B3F902460B464046494613F089FC0246DA
:103CC0000B465046594613F0A5F922462B4613F0F1
:103CD00055FBBDE8F88F2C4B9842BDD8304639468D
:103CE00011F048FA0022234B13F048FBFEF714FCB6
:103CF00006460F4602460B462046294613F03EFB79
:103D000032463B4613F03AFBBDE8F88F11F032FA29
:103D100001F036F81D4B984506460F46B3DD0022EC
:103D2000164B13F079F902460B463046394613F02C
:103D30004FFC32463B4613F06FF922462B4613F0F8
:103D40001DFBBDE8F88F11F015FAFEF7E5FB024602
:103D50000B462046294613F011FBBDE8F88F00BF43
:103D60003374AC3C1F7BAC7FFFFFEF7FFFFF354020
:103D70000000E0BF0000E03FFFFF2F3E0000F03FEB
:103D8000412E8640CD3386407DF8B98FFFFFEF3F4F
:103D90002DE9F04F21F00048B8F1795F85B0064673
:103DA0000F4692469B466BDA13F098FD002800F010
:103DB000EA8032463B463046394613F0DFFA74A3B8
:103DC000D3E9002304460D4613F0D8FA72A3D3E9D1
:103DD000002313F021F922462B4613F0CFFA70A3EB
:103DE000D3E9002313F016F922462B4613F0C6FA46
:103DF0006DA3D3E9002313F00FF922462B4613F0ED
:103E0000BDFA6BA3D3E9002313F004F922462B4635
:103E100013F0B4FA68A3D3E9002313F0FDF82246A7
:103E20002B4613F0ABFACDE900010022664B204689
:103E3000294613F0A3FADDE900238046894620468F
:103E4000294613F09BFA524604460D465B4630461F
:103E5000394613F093FA02460B462046294613F0E2
:103E6000D9F802460B464046494613F0D3F80246BD
:103E70000B460020554913F0CDF805B0BDE8F08F92
:103E800002460B4613F07AFA41A3D3E90023044615
:103E90000D4613F073FA40A3D3E9002313F0BCF8E6
:103EA00022462B4613F06AFA3DA3D3E9002313F010
:103EB000B1F822462B4613F061FA3BA3D3E9002365
:103EC00013F0AAF822462B4613F058FA38A3D3E988
:103ED000002313F09FF822462B4613F04FFA36A327
:103EE000D3E9002313F098F82B46224613F046FA44
:103EF000374B9845CDE9000197DD364B984539DCC5
:103F0000A8F500130022002030499046994613F08E
:103F100081F8CDE9020100222B4B2046294613F0FF
:103F20002DFA42464B4613F075F8DDE90023804632
:103F300089462046294613F021FA524604460D468A
:103F40005B463046394613F019FA02460B462046C6
:103F5000294613F05FF802460B464046494613F0E7
:103F600059F802460B46DDE9020113F053F805B09B
:103F7000BDE8F08F9FED127B4FF000088DED027BC6
:103F8000DFF85490C7E71149002005B0BDE8F08F75
:103F9000D43888BEE9FAA8BDC4B1B4BD9EEE213EB6
:103FA000AD529C804F7E923E9015CB19A001FA3EF7
:103FB0007751C1166CC1563F4C5555555555A53FC7
:103FC000000000000000E73F0000E03F0000F03F7D
:103FD0003233D33F0000E93F0000D23F0000000031
:103FE0002DE9F04FADF51B7D9F4CA49E9F4D54F8DD
:103FF000264007942646D41E85FB0475E417C4EBBF
:10400000A50424EAE4741D460A93631CA3EB83030E
:10401000013D02EBC30306932B460B940395651BEE
:10402000F418049008911AD42C4400260027013477
:104030000DF18808DDF8949208E059F8250013F096
:1040400037F90135A542E8E8020108D0002DF4DA7D
:10405000013530463946A542E8E80201F6D1079B12
:10406000002BC0F2DF83079B03F1010B0A9B22A9FF
:10407000DB001A4601EB03090093049B0DF5E47A7B
:1040800019460AEBCB0B01EB0208039B002BC0F295
:10409000F582049C4D460026002775E90223F4E8CA
:1040A000020113F06BF902460B463046394612F016
:1040B000B3FF444506460F46EFD1EAE80267DA450A
:1040C00009F10809E1D107990098049C009101F1D8
:1040D0008043013B9B0020441A1F83460EA80244E4
:1040E00003440C920D93009A9AA901EBC203002A93
:1040F00053E9284529DD0DF5E47A0AEBC2080DF1F4
:10410000340900225A4B2046294613F037F913F0A0
:10411000E5FB13F0CDF80022564B06460F4613F090
:104120002DF902460B462046294612F073FF13F084
:10413000D5FB78E9022349F8040F3946304612F0DE
:104140006BFFD04504460D46DBD1DDF818902046C4
:1041500029464A4601F050F800224FF07F530446AA
:104160000D4613F00BF9FCF75FFD0022424B13F0F4
:1041700005F902460B462046294612F04BFF0D4634
:10418000044613F0ABFB804613F092F80B46024650
:104190002946204612F03EFF4B46002B06460F46AE
:1041A00040F3F980009A0EA9013AC9F1180351F8B9
:1041B000225045FA03F101FA03F30EA8EB1A40F876
:1041C0002230C9F11705884443FA05F5002D6DDD4D
:1041D000009B002B08F1010840F36F820E9C002C1D
:1041E00040F01683009B012B40F38F820EAA01231F
:1041F00052F8044F002C00F08382581C0EAAC4F120
:10420000807442F82340009A824219DD0EAA0EAC57
:1042100052F820106FF07F42511A44F82010009994
:10422000023399420CDD1046009A0EA901EB83037C
:1042300001EB82011A68821A43F8042B8B42F9D1F0
:10424000069B002B1ADD069B012B4FF0010440F06A
:104250003C82009B5A1E0EAB0EA953F82230C3F3CA
:10426000160341F822303CE2809C0100ABAAAA2A46
:104270000000703E0000704100002040022D15D16A
:1042800032463B460020924912F0C4FE06460F46D5
:10429000069A8F49002000F0AFFF02460B463046D9
:1042A000394612F0B7FE022506460F4600220023CB
:1042B0003046394613F0CAFA002800F03782009AD7
:1042C000079B501E83420FDC02F18043013B0EAA84
:1042D0000D9C02EB8303002253F80419A34242EA27
:1042E0000102F9D1002A67D1079B0EAA013B52F8BF
:1042F0002330002B40F018820C9A012352F8041945
:1043000001330029FAD0009AD31802F1010A9A4524
:1043100009933DDC009B0A990B9A0B4409990AEB1F
:104320000208994622AB08F1804803EBC9098B18B3
:10433000A59A08F1FF3802EB880872AA02EBCA0AB4
:10434000A59A02EB8303009358F8040F12F0B0FF14
:10435000039B002BE9E802014FF000064FF0000735
:1043600011DB049C4D4675E90223F4E8020113F0C9
:1043700005F802460B463046394612F04DFE5C45C4
:1043800006460F46EFD1009B9845EAE80267DBD16D
:10439000099B0093A7E606D1009B0EAA013B52F8A9
:1043A0002350ED1512E700224A4B13F06DFA002856
:1043B00040F06E81054679E70EA9039551F820304B
:1043C0000699CDF8248018390246009006916BB901
:1043D00000F18043013B0EA800EB830353F804096E
:1043E000013A18390028F9D000920691069A384906
:1043F000002000F001FF009B002B04460D46C0F298
:10440000F781DA0072A901EB020B06920EAA02EB09
:104410008306DFF8C4904FF000080BF1080704365C
:1044200056F8040D12F044FF22462B4612F0A6FF68
:104430004B4667E9020142462046294612F09EFF9C
:104440000EAB9E4204460D46EAD14AACDDF81C9004
:1044500004944FF0000AB9F1000FC0F22B81DFF88D
:104460007C805D4618A1D1E90001002600270024C8
:1044700003E0544510DCF8E80201F5E8022312F0ED
:104480007DFF02460B463046394612F0C5FD013429
:10449000A14506460F46ECDA049B03EBCA03ABF1D9
:1044A000080BC3E9006770AB9B450AF1010AD2D142
:1044B000A49B049C032B00F28980DFE803F0C58EE7
:1044C0008E1100BFAFF3008000000040FB21F93FD8
:1044D0000000F03F0000E03F0000703E1886010041
:1044E000009B002B40F38181069A04EB020ADAE973
:1044F000008902F1080525440DF5987B1AED027B31
:1045000042464B4651EC170B8DED047B12F084FDB7
:1045100006460F4602460B46DDE9040112F07AFD1D
:1045200042464B4612F078FD65E902015D45B04612
:10453000B9466AE90267E1D1009B012B40F355813E
:10454000069BE518D5E9008903F1080B04EB0B0A7B
:1045500015ED027B42464B4651EC170B8DED007B6F
:1045600012F05AFD06460F4602460B46DDE90001F1
:1045700012F050FD4B46424612F04EFD6AE9020130
:104580004EAB5345B046B94665E90267E0D100201D
:10459000002104EB0B0575E9022312F03DFDAA454D
:1045A000F9D1039B002B00F00A816268E368089F41
:1045B0002568A4683D6002F1004203F1004301F167
:1045C00000417A60FB60BC6038617961099B03F04F
:1045D00007000DF51B7DBDE8F08F069D08352544CD
:1045E0000020002175E9022312F016FDA542F9D141
:1045F000039B002B00F0D280089E024601F100438D
:1046000086E80C000B460246D4E9000112F002FDD8
:10461000009B002B0BDD4CAD0124F5E8022312F0CA
:10462000FBFC009B0134A342F7DA039B13B101F1B9
:1046300000431946089BC3E90201099B03F00700E8
:104640000DF51B7DBDE8F08F069D0835002000218B
:10465000254475E9022312F0DFFCAC42F9D1039B3B
:1046600013B101F100431946089BC3E90001099BFE
:1046700003F007000DF51B7DBDE8F08F0026002735
:10468000EAE80267DA4509F108097FF4FEAC1AE5A9
:10469000009B002B08F10108C8BF02253FF79EAD23
:1046A00032463B460020614912F0B4FC0225064622
:1046B0000F46FBE500260027EEE6069B002B27DDD4
:1046C0000024069B012B3FF4C4AD022B09D1009BB3
:1046D0005A1E0EAB0EA953F82230C3F3150341F84E
:1046E0002230022D7FF4E2AD32463B4600204F4996
:1046F00012F090FC06460F46002C3FF4D7ADC7E5FC
:104700000099013399427FF473AD069B002BD8DCEE
:10471000022D7FF4CBAD32463B460020434912F0D8
:1047200079FC06460F46C1E50123ECE53946069FB4
:1047300003957A423046CDF8248000F05DFD0022DA
:104740003B4B04460D4613F09FF8002843D000224F
:10475000384B2046294612F011FE13F0BFF80646EA
:1047600012F0A6FD0022324B12F008FE02460B4664
:104770002046294612F04EFC13F0B0F800990B4683
:1047800001331A4600933B46183306930B460EA995
:1047900041F82300134641F8236027E6089B0246B0
:1047A000C3E900010B46D4E9000112F033FC009B81
:1047B000002B3FF730AF089BC3E902013DE7D4E986
:1047C0000067D4E90223089DC5E90401C5E9006733
:1047D000C5E90223FAE62946204613F07FF8009A3D
:1047E0000EA941F8220001E64AAC00200021D8E6DB
:1047F000A49B032B3FF6EAAE01A252F823F000BFC0
:104800001F4800001748000017480000E947000053
:1048100001200023F2E4002000214AACE8E6002059
:1048200000211CE70A9BDB0000934CE40000F03FF2
:10483000000070410000703E2DE9F04F21F000466D
:10484000B6F1795F85B004460D469046994604DA84
:1048500013F044F8002800F0858022462B462046BD
:10486000294612F08BFD06460F4602460B462046AF
:10487000294612F083FD41A3D3E9002382468B46EB
:104880003046394612F07AFD3EA3D3E9002312F0F8
:10489000C1FB32463B4612F071FD3CA3D3E9002335
:1048A00012F0BAFB32463B4612F068FD39A3D3E959
:1048B000002312F0AFFB32463B4612F05FFD37A3F8
:1048C000D3E9002312F0A8FB0E9BCDE900019BB3B6
:1048D0000022294B4046494612F050FDDDE90023F5
:1048E000CDE902015046594612F048FD02460B46FA
:1048F000DDE9020112F08EFB32463B4612F03EFD2E
:1049000042464B4612F086FB19A3D3E90023064624
:104910000F465046594612F031FD02460B463046CE
:10492000394612F079FB02460B462046294612F022
:1049300071FB05B0BDE8F08F02460B4630463946A4
:1049400012F01CFD0AA3D3E9002312F063FB5246C8
:104950005B4612F013FD22462B4612F05DFB05B0BC
:10496000BDE8F08F2046294605B0BDE8F08F00BFB6
:10497000495555555555C53F0000E03F7CD5CF5AA8
:104980003AD9E53DEB9C2B8AE6E55A3E7DFEB157D0
:10499000E31DC73ED561C119A0012A3FA6F8101139
:1049A0001111813F000000002DE9F04FBE4C21F0B5
:1049B000004687B0A64282468B460F46CDE90023CB
:1049C0001BDC12F08BFF002837D153461E43109B8F
:1049D0000133334300F0B381109B012B00F0C881F9
:1049E00052465B460020B14912F0F2FD04460D46E6
:1049F0002046294607B0BDE8F08FAD4B9E421CDD36
:104A00000029C0F2A98152465B4687A1D1E9000185
:104A100012F000FBDDE9002304460D4684A1D1E934
:104A2000000112F0F7FA9FED847B22462B468DEDB4
:104A3000007B12F0F1FA82468B4652465B465046A6
:104A4000594612F09BFC02460B468046894612F0FE
:104A500095FC424604460D464B465046594612F0D8
:104A60008DFC77A3D3E90023CDE902012046294636
:104A700012F084FC74A3D3E9002312F0CDFA22468D
:104A80002B4612F07BFC72A3D3E9002312F0C4FA88
:104A900022462B4612F072FC6FA3D3E9002312F0DA
:104AA000BBFA22462B4612F069FC6DA3D3E9002322
:104AB00012F0B2FA22462B4612F060FC6AA3D3E948
:104AC000002312F0A9FA42464B4612F057FC68A3A5
:104AD000D3E90023CDE904012046294612F04EFC1B
:104AE00065A3D3E9002312F097FA22462B4612F071
:104AF00045FC63A3D3E9002312F08EFA22462B462D
:104B000012F03CFC60A3D3E9002312F085FA2246A0
:104B10002B4612F033FC5EA3D3E9002312F07CFA9B
:104B200022462B4612F02AFC5BA3D3E9002312F0A5
:104B300073FA02460B46DDE9040112F06DFADDE975
:104B4000022312F01BFCDDE9004522462B4612F041
:104B500063FA42464B4612F011FC02460B462046D1
:104B6000294612F059FA4EA3D3E9002304460D4614
:104B7000DDE9020112F002FC22462B4612F04CFA4B
:104B80000B460246804689465046594612F044FA82
:104B9000474B9E4204460D4600F38E80109B012B2E
:104BA0003BD002460B460020404912F011FD002484
:104BB00006460F462046294652465B46CDE9006729
:104BC000CDE90201009412F025FADDE900AB0246BE
:104BD0000B464046494612F01DFA52465B4612F01B
:104BE000CDFB524604460D465B46DDE9020112F05C
:104BF000C5FB00222F4B12F00FFA02460B4620464F
:104C0000294612F009FA32463B4612F0B7FB5246EB
:104C10005B4612F001FA04460D462046294607B0CD
:104C2000BDE8F08FAFF30080182D4454FB21E93F1D
:104C3000075C143326A6813C000000000000000041
:104C4000D47ABF74702AFB3EE9A7F0320FB8123F46
:104C500068108D1AF726303F1583E0FEC8DB573FFA
:104C600093846EE9E326823FFE41B31BBAA1AB3FBA
:104C7000735360DBCB75F3BEA69237A0887E143FDA
:104C80000165F2F2D844433F280356C9226D6D3FB7
:104C900037D60684F464963F7AFE10111111C13F95
:104CA000635555555555D53FFFFF2F3E0000F0BFCA
:104CB0002794E53F0000F03F109812F0F9FA2246E1
:104CC000CDE900012B462046294612F057FBDDE9CD
:104CD0000023CDE902012046294612F09DF9024643
:104CE0000B46DDE9020112F073FC42464B4612F01E
:104CF00091F902460B465046594612F08BF902468E
:104D00000B4612F089F902460B46DDE9000112F06C
:104D100081F90446B81700F00200C0F101000D4609
:104D200012F0C6FA02460B462046294612F026FB30
:104D300004460D462046294607B0BDE8F08F504690
:104D4000594610F017FA02460B4600200A4912F0A5
:104D50003FFC04460D4660E7DDE9004501F10041F6
:104D6000224605F1004382468B46CDE900234AE600
:104D700054465D4651E700BF0000F03F00000000D0
:104D80002DE9F04FD24A21F00043934285B082468C
:104D90008B460C462DD9CF4A93421AD8002C80F26C
:104DA0001681B5A3D3E900235046594612F034F9D1
:104DB0000022002312F054FDC0B9B1A3D3E90023AF
:104DC0005046594612F0DAFA02460B460020C24914
:104DD00008E1C24A934240F2D0800346C1F3130275
:104DE000134340F0F481002980F2C4800020BC49C4
:104DF000C0E0BC4A934200F22981BB4A934240F290
:104E0000DE80002301930022B84B5046594612F031
:104E1000B5FA06460F4602460B465046594612F072
:104E2000ADFA99A3D3E9002304460D4612F0A6FA81
:104E300097A3D3E9002312F0EFF822462B4612F095
:104E40009DFA95A3D3E9002312F0E4F822462B46FD
:104E500012F094FA92A3D3E9002312F0DDF822466F
:104E60002B4612F08BFA90A3D3E9002312F0D2F86C
:104E700022462B4612F082FA00229D4B12F0CCF80B
:104E80008046894602460B463046394612F076FA8D
:104E900002460B460020974912F0BCF8064602462F
:104EA0000B460F464046494612F0B4F8324680465B
:104EB00089463B465046594612F060FA02460B4678
:104EC00000208D4912F0A6F802460B46404649469E
:104ED00012F07EFB22462B4612F050FA019E02464B
:104EE0000B46002E38D0DDE9026732463B4612F011
:104EF00091F852465B4612F041FA32463B4612F0B8
:104F000089F82B46224612F085F8019B01330646AC
:104F10000F4600F00F81019B012B00F0F180019BF7
:104F20000133392B39D8019B132B40F31281019C9B
:104F3000C4F57F75033500222B0512F06DF802468B
:104F40000B465046594612F065F80022684B12F0A5
:104F500063F801EB04510DE05046594612F00EFA89
:104F600022462B4612F056F802460B46504659464A
:104F700012F050F805B0BDE8F08F4DA3D3E900233F
:104F800012F08CFC00283FF409AF4BA3D3E90023B7
:104F90001046194612F0F2F9ECE752465B4612F061
:104FA00039F802460B460020514912F033F8019AB5
:104FB0004F4B01EB0251002212F02CF8DAE73EA32E
:104FC000D3E9002312F028F802460B46CAE72CA3C7
:104FD000D3E900235046594612F0D0F90B46434915
:104FE0000246002012F018F812F078FC019012F03E
:104FF0005FF933A3D3E9002306460F4612F0BEF94A
:1050000002460B465046594612F004F82EA3D3E947
:105010000023804689463046394612F0AFF90646ED
:105020000F4632463B464046494611F0F3FF0246E2
:105030000B4682468B464046494611F0EBFF32460E
:105040003B4611F0E7FFCDE90201DCE62B4A934233
:1050500000F2958000291AA3D3E90023C0F2AC80A6
:1050600011F0D8FF012380468946019316A7D7E99E
:105070000067D6E7AFF3008059F3F8C21F6EA501B1
:10508000FE822B654715F73F2DC3096EB7FD8ABE1B
:105090003952E686CACFD03EB7DBAA9E19CE143F5E
:1050A0008555FE19A0015A3FF41011111111A13FAD
:1050B000EF39FAFE422E86409C7500883CE4377E2C
:1050C0000000E0FE422EE63F763C7935EF39EA3DBE
:1050D00079684340412E86400000E0BFFFFFEF7F2C
:1050E0000000F0BF422ED63FFFFF8F3C0000E03FA4
:1050F0000000F03F0000084000001840B1A2F03F5F
:105100000022394B5046594612F0AAFB002844D0E1
:10511000504659460022354B11F07EFF02460B46A1
:105120003046394611F076FF00224FF0404312F02E
:1051300025F91FE702460B465046594611F06AFF13
:1051400000222A4B12F01AF90022284B11F062FFBC
:1051500010E7019C4FF400132341C3F17F575246DF
:105160005B4611F057FF002607F5401702460B4635
:105170003046394611F04EFF01EB0451FAE616A312
:10518000D3E9002312F0FAF8002C02460B464FF048
:105190000000FFF61CAE154924E732463B46504658
:1051A000594611F037FF02460B4611F035FF002239
:1051B0000F4B11F031FFDDE611F02EFF4FF0FF3302
:1051C00080468946019306A7D7E9006729E702468A
:1051D0000B4611F021FFCDE6FE822B654715F73F08
:1051E000763C7935EF39EABD0000D0BF0000E03FE2
:1051F0000000F03F00000000F8B5C1F30A56044675
:105200000D460B4617460EBB21F00043034386466E
:1052100025D00022344B12F0B1F8344A97420446AC
:105220000D460B462ADBC1F30A56363E3E4440F299
:10523000FE72964228DC002E12DD23F0FF4323F499
:10524000E00343EA065520462946F8BD40F2FF72C6
:105250009642EBD102460B4611F0DEFEF8BDF8BDDA
:1052600016F1350F1DDA4CF250339F4222462B4681
:1052700025DC19A1D1E9000111F03EFE16A3D3E906
:10528000002312F07BF8F8BD22462B4614A1D1E989
:10529000000111F031FE12A3D3E9002312F06EF8E1
:1052A000F8BD23F0FF4323F4E003363643EA065506
:1052B0002046294600220E4B12F060F8F8BD08A1E6
:1052C000D1E9000111F018FE05A3D3E9002312F083
:1052D00055F8F8BDAFF3008059F3F8C21F6EA50171
:1052E0009C7500883CE4377E00005043B03CFFFFD3
:1052F0000000903C10B5054C237833B9044B13B132
:105300000448AFF300800123237010BD1005002076
:1053100000000000D89D01000C4B43B10C480D4922
:1053200010B5AFF300800C48036823B910BD0A48DC
:10533000036833B97047094B002BF7D0BDE8104024
:105340001847064B002BF5D0184700BF000000009F
:10535000D89D01001405002010020020000000006C
:10536000154B002B08BF134B9D46A3F5803A002137
:105370008B460F461348144A121A08F05FF90F4B78
:10538000002B00D098470E4B002B00D098470020F0
:10539000002104000D000D48002802D00C48AFF396
:1053A000008011F0DFFD2000290005F087F911F0E1
:1053B000C5FD00BF00000800000002200000000042
:1053C0000000000000040020800C0020000000000D
:1053D0000000000070B504460E4600F0D1F888B118
:1053E0000368DB6A05469847082C0CD0A4F1090332
:1053F000012B14D93246214610230D20BDE8704000
:1054000004F0A8B870BD2B6828465B6A984702284C
:10541000F0DC2B6828461B6A04219847EAE72B68D2
:1054200028465B6A98470528E4DC2B6828461B6AF7
:1054300008219847DEE700BF30B52DED028B83B021
:10544000054600F09DF8044640B10368DB6A9847C2
:10545000032D50D8DFE805F0373F47080190019849
:1054600003B0BDEC028B30BD20460BF03BFC07EED9
:10547000900A2046F8EEE78A0BF044FC07EE900A0B
:105480002046B8EEE78A0BF04DFC68EE087A07EE8E
:10549000100AE8EEA87AB8EEC77AE7EE077AF5EEDA
:1054A000407AF1EE10FAB1EEE78A03D517EE900AD2
:1054B00010F0ACFBFDEEC87ACDED017A019803B097
:1054C000BDEC028B30BD204603B0BDEC028BBDE8C5
:1054D00030400BF007BC204603B0BDEC028BBDE8AA
:1054E00030400BF00FBC204603B0BDEC028BBDE892
:1054F00030400BF017BC00230193B0E738B50546E8
:1055000000F03EF858B10368DB6A0446984745B19D
:10551000012D04D12046BDE83840FBF79DB800209E
:1055200038BD2046BDE83840FBF776B810B50446D4
:1055300000F026F828B1036821461B6ABDE8104038
:10554000184710BD0048704716FCFFFF704700BFAA
:1055500010B5034B036004460BF0A4F9204610BDC0
:105560004C93010010B5054B036004460BF09AF90B
:10557000204612F045FC204610BD00BF4C930100B0
:105580002DE9F043C04C236885B01BB1986805B085
:10559000BDE8F0834FF0FF31012001F0FFFCC0B205
:1055A00004F028FB002800F0ED800C2012F02AFC0B
:1055B00003210646512001F0F1FCDFF8FCE2B34B79
:1055C000054605F00F07C5F3031815F4807518BFDD
:1055D0007346AF48394642460AF062FB2A1C18BFA0
:1055E00001223946434630460DF0E2FA0023A9482D
:1055F000B3600AF055FB4FF0FF31032001F0CEFC01
:10560000C0B204F0F7FA4FF0FF310546022001F076
:10561000C5FCC0B204F0EEFA002D00F09A8000281C
:1056200000F097800146284604F076F807460028E7
:1056300000F0A4804FF0FF31462001F0AFFC32288B
:1056400080462BD028DD382869D068283FD14FF01C
:10565000FF31012001F0A2FCC0B204F0CBFA814678
:105660004C2012F0CFFB0523054601934A46CDF8A6
:105670000080394633460CF06BFA2846B060036868
:105680009B6A9847B0680368DB6A984782480AF0CB
:1056900007FB2660B0687AE7302818D14FF0FF3159
:1056A000012001F07BFCC0B204F0A4FA81464C203A
:1056B00012F0A8FB1FFA88F1054605234A4600911F
:1056C0000193394633460CF025F82846D6E73A6868
:1056D0000125002301950095D2F82080B3600F22A8
:1056E0000DF10F0332213846C047002856D14FF044
:1056F0003208414669480AF0D3FA4FF0FF310120E1
:1057000001F04CFCC0B204F075FA81464C2012F056
:1057100079FB052305464A46CDF80080D0E74FF0D7
:10572000FF31012001F03AFCC0B204F063FA814677
:10573000442012F067FB052305464A46CDF8008059
:105740003946019333460CF05BF9554B2B602846E4
:1057500094E754480AF0A4FA4FF0FF31192001F001
:105760001DFCC0B204F046FA4FF0FF310546182088
:1057700001F014FCC0B204F03DFA53E74A480AF0C5
:105780008FFA86E74FF0FF31032001F007FCC0B22B
:1057900004F030FA00287FF408AFF8E63B68019582
:1057A0000095D3F820800F220DF10F0330213846E9
:1057B000C04718B94FF0300841469BE73B68019558
:1057C0000095D3F820800D220DF10F0338213846C3
:1057D000C047C0B9382131480AF062FA4FF0FF31B2
:1057E000284601F0DBFBC0B204F004FA80464420F6
:1057F00012F008FB4FF0050E3823054642463946A5
:105800008DE808409EE73A6801950095D2F820801F
:105810000DF10F03752268213846C047E0B96821B1
:105820001E480AF03DFA4FF0FF31284601F0B6FB62
:10583000C0B204F0DFF980464C2012F0E3FA4FF0DA
:10584000050E682305468DE8084042463946334632
:105850000CF07EF9284611E714480AF021FAB068E6
:1058600000287FF40CAF4FF0FF31032001F096FBCE
:10587000C0B204F0BFF918B10D480AF011FA08E7F8
:105880000C480AF00DFA04E72C050020A48601005C
:10589000AC860100CC860100648701008887010086
:1058A00068860100DC860100F08601007487010033
:1058B00008870100448701009C86010008B501F0BB
:1058C00095FCFBF76DFCBDE8084001F0FDB900BF99
:1058D00008B501F08BFCFBF7D3FCBDE8084001F0F4
:1058E000F3B900BF08B501F081FC0FF0B9FCBDE8C9
:1058F000084001F0E9B900BF08B501F077FC10F0ED
:10590000C1F8BDE8084001F0DFB900BF08B501F0FB
:105910006DFCFBF755FCBDE8084001F0D5B900BFB0
:1059200008B501F063FC0FF0D9FEBDE8084001F0B6
:10593000CBB900BF08B501F059FCFAF7ADFEBDE8E0
:10594000084001F0C1B900BF08B501F04FFC0FF0ED
:1059500019FEBDE8084001F0B7B900BF70B5049E5C
:1059600096420C4628DB15466BB1002A00EB02017B
:1059700007DD2046A21811F8013D00F8013B9042D6
:10598000F9D1002070BD042A0FD0022A02D110F0F4
:10599000010306D001462A46204606F05FFC00209F
:1059A00070BD02880A80184670BD10F00303F1D163
:1059B00002680A60184670BD0846002107F03EFEE6
:1059C0004FF0FF3070BD00BF0830704740B1002974
:1059D00005DB4368994202DA0844007A70470020E8
:1059E000704700BF30B1002904DB43689942BCBF57
:1059F00040180272704700BF40B1002905DB4368C0
:105A0000994202DA0844007A70470020704700BFCC
:105A1000830705D120B1030F0CBF01200020704780
:105A20000120704730B1002904DB43689942BCBFB4
:105A300040180272704700BF002B23DB002921DBD6
:105A400070B54668B1421ADC5568761A1446EA1AEF
:105A5000B242A8BF3246002A11DB84420D4607D06D
:105A6000083408300844E11806F0F8FB002070BD47
:105A70000834E118601912F0F3F9002070BD4FF0FE
:105A8000FF3070BD4FF0FF30704700BF4068704777
:105A900010B4141E10DB426894420DDC33EA230379
:105AA00028BF1346121B08309A422044A8BF1A464A
:105AB0005DF8044B07F0C2BD5DF8044B704700BFB2
:105AC00043688B4210B400F108041846A8BF08468A
:105AD00032EA220128BF19461B1A99422044A8BF66
