:1040000000000320FD400100F94001006DDB0000CD
:10401000F9400100F9400100F940010000000000F2
:10402000000000000000000000000000F940010056
:10403000F940010000000000F9400100F9400100D2
:10404000F9400100F9400100F9400100F940010088
:10405000F9400100F9400100F9400100F940010078
:10406000F9400100F9400100F9400100F940010068
:10407000F1C70100F9C7010001C8010009C801002A
:1040800011C8010019C8010021C8010029C8010098
:1040900031C8010039C8010041C8010049C8010008
:1040A00051C8010059C8010061C8010069C8010078
:1040B000F9400100F9400100F94001009DC20100F2
:1040C000A1C20100A5C20100A9C20100ADC2010048
:1040D000F9400100F9400100F9400100F9400100F8
:1040E000F9400100F9400100F9400100F9400100E8
:1040F00000000000F9400100E1BD0100DDBD01004C
:10410000D9BD0100CDBD0100F9BD0100F5BD010023
:10411000F1BD0100E5BD010011BE01000DBE0100B1
:1041200009BE0100FDBD010029BE010025BE010040
:1041300021BE010015BE010041BE01003DBE0100CF
:1041400039BE01002DBE010059BE010055BE01005F
:1041500051BE010045BE010000000000000000004B
:10416000000000000000000000000000000000004F
:10417000000000000000000000000000000000003F
:104180004D940100519401004994010045940100AF
:1041900000000000F9400100F9400100F940010071
:1041A000F9400100F9400100F9400100F940010027
:1041B000F9400100F9400100F9400100F940010017
:1041C000F9400100F9400100F9400100F940010007
:1041D000F9400100F9400100F9400100F9400100F7
:1041E000F9400100F9400100F9400100A5B40100C7
:1041F000ADB40100B5B40100BDB40100C5B4010007
:10420000CDB401000000000000000000F9400100F2
:10421000F9400100F9400100F9400100F9400100B6
:10422000F9400100F9400100F9400100F9400100A6
:10423000F9400100F9400100F9400100F940010096
:10424000F9400100F9400100F9400100F940010086
:10425000F9400100F9400100F9400100F940010076
:10426000000000007CB0EE877CB0EE87FF00FF000E
:10427000FF00FF00FF00FF00FF00FF00FF00FF0046
:10428000FF00FF00FF00FF00FF00FF00FF00FF0036
:10429000FF00FF00FF00FF00FF00FF000000000024
:1042A0002DE9F04F85B003910778A7F10903042B9E
:1042B000044607F07F0200F10100F5D9202AF3D06F
:1042C0002B2F04BF677804462D2F72D09FED427BC1
:1042D0008DED007B4FF000084FF000098FB34FF0D9
:1042E000000E4FF0000ADFF800B1754619E018F033
:1042F00081FD80468946304618F016FD42464B4601
:1043000018F0C6FB5246804689465B46DDE900014F
:1043100035B318F099FECDE90001AE4614F8017FDF
:104320007FB1A7F13006092E52465B46404649460A
:10433000DDD9C5B92E2F16D114F8017F0125002F24
:10434000EFD142464B46DDE9000118F053FD8046AF
:104350008946039B404649461C6005B0BDE8F08F86
:104360004FF0010EDAE7BEF1000F29D042464B466E
:10437000DDE9000118F03EFD07F0DF07452F80461C
:104380008946E6D10399601C0A221BF0A3FB16495B
:104390000246002019F08EF802460B464046494678
:1043A00018F028FD804689464046494605B0BDE8DC
:1043B000F08F9FED0B7B67788DED007B013489E7F3
:1043C000DFF828904FF000084046494605B0BDE8A8
:1043D000F08F00BFAFF30080000000000000F03F4E
:1043E000000000000000F0BF000024400000F87F43
:1043F0002DE9F84F16460023002204460D4618F01A
:104400006BFF002840F09D800022002320462946B3
:1044100018F058FF28B13022002332707370BDE8C5
:10442000F88F2046294619F055FE18F093FF7BA31C
:10443000D3E9002381462946204618F04DFF002885
:1044400000F08680B9F1000FC0F2BE804A4600201D
:104450006F4919F02FF802460B462046294618F0FE
:10446000F3FD04460D4666A1D1E9000101274FF096
:10447000000822462B4618F0BDFC0022654B18F0C0
:1044800007FB19F053F8002FCC464FF0FF3AC14616
:104490004FF0000840F38580DFF888E15E4C012290
:1044A000AEF1700945F6F3254FF02E0BA94208BF77
:1044B000A0424FF0300309D3001B61EB0501A94274
:1044C00008BFA04203F10103F6D2DBB2337050EA19
:1044D000010306F1010409D1BA4210DACE4502F116
:1044E00001020CD026467EE80245DFE7BA4204BF4F
:1044F00086F801B0B41CCE4502F10102F2D1B8F148
:10450000000F0DD02246302102F8011BC2F1010339
:1045100053442344002BF7DC2AEAEA7301331C449A
:10452000BCF1010F4CD06523BCF1000F2370C5BF57
:104530002B236370611CA11C6046BDE8F84F0FF08F
:104540004BBE05F100431D462D23337001365BE75A
:104550002DA3D3E900232046294618F0DBFE0028CE
:104560007FF470AFB9F10E0F09F101073DDDA9F13C
:104570000E0842460020264918F09CFF02460B46D2
:104580002046294618F060FD0022224B18F080FAE0
:1045900018F0CCFF002FA9F10F0A4FF0010C3FF7E4
:1045A0007BAF334630222E2403F8022B74707FEA4F
:1045B000090618D01E4403F8012BB342FBD16BE768
:1045C00000232370BDE8F88FC9F1000200201049D4
:1045D00018F070FF02460B462046294618F00AFCE8
:1045E00004460D463FE71E4656E7C9F10E0200207D
:1045F0000749C84618F05EFF4FF0010939E700BFD0
:104600000000901EC4BCD64250EFE2D6E41A4B44E0
:10461000000024400000E03F00407A108DEDB5A07E
:10462000F7C6B03E100B020070B54FF0FF3006F039
:10463000CBF804466FF07F4006F0C6F806462046E9
:1046400018F062FB00220C4B18F0D4FB04463046F5
:104650000D4618F059FB06A3D3E9002318F0F4FC2B
:1046600002460B462046294618F012FA70BD00BFDC
:104670000000E0DFFFFF6F430000F03D000000009E
:1046800008B511F05DF8DFED0C7A07EE100A67EE61
:10469000277A17EE900A18F059FB05A3D3E90023F7
:1046A00018F0D2FC18F056FE08BD00BFAFF3008032
:1046B000EA2E4454FB2119400000B44300000000DE
:1046C00008B511F051F8DFED0C7A07EE100A67EE2D
:1046D000277A17EE900A18F039FB05A3D3E90023D7
:1046E00018F0B2FC18F036FE08BD00BFAFF3008032
:1046F000EA2E4454FB2119400000B443000000009E
:104700002DE9F04F046985B0E3699B07FCD123686C
:10471000C3F3400BBBF1000F40F0AF80B0F80CA02A
:1047200015468046BAF1000F23D0BAF1010F62D0CE
:10473000BAF1020F40F0A4805500E1685448C5F575
:104740003B438033B3FBF5F31A0421F47F0102F4F9
:104750007F020A43E260E2685B00A0FB03135B0890
:1047600022F07F4242EA03635846E36005B0BDE8A9
:10477000F08FE2684BF6803B05EB850022F0FF03EB
:10478000ABEB4000019318F0BFFA0646B8F80E00F4
:104790000F4618F0C9FA3CA3D3E9002318F02AFB0E
:1047A00080460BFB05F0894618F0AEFA02460B4630
:1047B0004046494618F01EFB02460B463046394635
:1047C00018F064F9064668000F4618F09DFA024694
:1047D0000B463046394618F037FC18F0E3FD019BD4
:1047E000C0B21843E060E368504623F47F43E360BF
:1047F00005B0BDE8F08FE2684BF6803A05EB850026
:1048000022F0FF03AAEB4000019318F07DFACDE9F6
:104810000201B8F80E0018F087FA1BA3D3E90023B1
:1048200018F0E8FA06460AFB05F00F4618F06CFA95
:1048300002460B463046394618F0DCFA02460B4673
:10484000DDE9020118F022F9064668000F4618F06B
:104850005BFA02460B463046394618F0F5FB18F075
:10486000A1FD019AC3B21343E360E368584623F401
:104870007F43E36005B0BDE8F08F6FF0100075E78F
:104880006FF00C0072E700BF95D626E80B2E113EA4
:10489000ABAAAAAA000000004F4A21F000439342AD
:1048A0002DE970430D4604464FDC4C4A93420E46B8
:1048B0000FDC45A3D3E9002318F0EAF80022484BA7
:1048C00018F028FD002856D02B4620461946BDE892
:1048D0007083444A934242DCB3F1804F4BDD19F0C0
:1048E00003F82246804689462B462046294618F082
:1048F00081FA00223A4B18F0CBF81AF013F802466E
:104900000B464046494618F0C3F802460B460020C5
:10491000334918F099FB424604460D464B46404643
:10492000494618F0B5F80B4602462946204618F0CD
:10493000AFF801F0FDFE04460B46002E0BDC03F140
:10494000004320461946BDE870830B46024618F026
:104950009FF804460B4620461946BDE8708318F0C0
:10496000C3FF01F0E5FE1AA3D3E9002318F090F885
:1049700004460B46E1E722462B462046294618F01E
:1049800039FA804689462046294618F0ADFF0022B4
:104990000446134B0D464046494618F079F819F085
:1049A000C1FF00220E4B18F073F802460B4640463A
:1049B000494618F049FB22462B4618F069F800F0EA
:1049C000D3FA04460B46B8E79C7500883CE4377E72
:1049D000EF39FAFE422EE63FFFFFEF7FFFFF2F3E4B
:1049E0000000F03F0000B0412DE9F84FC24B21F02C
:1049F00000469E420D468A46044610DDBF4B9E424D
:104A000000F3B58000F0B080BD4BBE49BE4CBAF19A
:104A1000000FD8BF0B4620461946BDE8F88FBB4BA8
:104A20009E4200F3C180A3F1DE739E4240F3AB804F
:104A30004FF0FF3B22462B462046294618F0DAF974
:104A400002460B468046894618F0D4F992A3D3E972
:104A5000002306460F4618F0CDF991A3D3E90023B1
:104A600018F016F832463B4618F0C4F98EA3D3E985
:104A7000002318F00DF832463B4618F0BBF98CA322
:104A8000D3E9002318F004F832463B4618F0B2F997
:104A900089A3D3E9002317F0FBFF32463B4618F009
:104AA000A9F987A3D3E9002317F0F2FF42464B464A
:104AB00018F0A0F984A3D3E9002380468946304644
:104AC000394618F097F982A3D3E9002317F0DEFFE7
:104AD00032463B4618F08EF97FA3D3E9002317F046
:104AE000D5FF32463B4618F085F97DA3D3E9002374
:104AF00017F0CCFF32463B4618F07CF97AA3D3E995
:104B0000002317F0C3FF32463B4618F073F9BBF1A0
:104B1000FF3F02460B466ED04046494617F0B8FFAD
:104B200022462B4618F066F9794E7A4B4FEACB0BAA
:104B30005E449B44DBE9002317F0A8FF22462B4686
:104B400017F0A4FF0B460246D6E9000117F09EFFBE
:104B5000BAF1000F04460B46BFF65DAF01F100430A
:104B600020461946BDE8F88F00283FF44DAF224695
:104B70002B462046294617F08BFF04460B4620465D
:104B80001946BDE8F88F5AA3D3E9002317F080FF38
:104B90000022614B18F0BEFB00283FF449AF2B46C2
:104BA00020461946BDE8F88F18F09EFE5B4B9E42EA
:104BB00004460D4630DCA3F550239E4255DC0246E8
:104BC0000B4617F065FF0022534B17F05FFF0022E2
:104BD00006460F464FF080432046294617F058FFFF
:104BE00002460B463046394618F02EFA4FF0000BBD
:104BF00004460D461EE74046494617F049FF224647
:104C00002B4618F0F7F80B4602462946204617F0C7
:104C10003DFF04460B46FEE6414B9E421ADC002255
:104C2000404B17F033FF002206460F463D4B20460F
:104C3000294618F0DFF80022374B17F029FF02460B
:104C40000B463046394618F0FFF94FF0020B044688
:104C50000D46EFE602460B460020334918F0F4F902
:104C60004FF0030B04460D46E4E600222A4B17F0F2
:104C70000DFF002206460F46274B2046294617F017
:104C800007FF02460B463046394618F0DDF94FF073
:104C9000010B04460D46CDE611DA22E33AAD903F12
:104CA000EB0D76244B7BA93F513DD0A0660DB13F63
:104CB0006E204CC5CD45B73FFF8300922449C23FCB
:104CC0000D5555555555D53F2F6C6A2C44B4A2BF90
:104CD0009AFDDE522DDEAD3F6D9A74AFF2B0B33F58
:104CE000711623FEC671BC3FC4EB98999999C93FD0
:104CF0009C7500883CE4377EFFFF0F440000F07F86
:104D0000FB21F93FFB21F9BF182D4454FFFFDB3F86
:104D1000200B0200400B02000000F03FFFFFF23FBB
:104D2000FF7F03400000F83F0000F0BF00000000DC
:104D30002DE9F047C1F30A59A9F2FF36132E0B46AD
:104D40000D46044607468846824622DC002E4FDB8D
:104D50003D4A42FA06F901EA090202431ED038A38D
:104D6000D3E9002317F094FE0022002318F0D2FAB2
:104D700050B1002D04DD4FF4801343FA06F6B04421
:104D800028EA09054FF0000A544629462046BDE8A6
:104D9000F087332E06DDB6F5806F3DD019462046EC
:104DA000BDE8F087A9F213494FF0FF3222FA09F962
:104DB00010EA090FF2D022A3D3E9002317F068FE0E
:104DC0000022002318F0A6FA0028DDD0002D09DD0E
:104DD000142E2FD00123C6F1340603FA06F6371934
:104DE00028BF9844454627EA090A54462946CDE794
:104DF00013A3D3E9002317F04BFE0022002318F081
:104E000089FA0028C0D0002D0FDB55EA040709D02D
:104E10004FF0000A0D4DB7E702460B4617F038FE7B
:104E20000446BCE7BA463D46AEE74FF0000A4FF0F5
:104E30000045A9E705F10108D4E700BFAFF3008002
:104E40009C7500883CE4377EFFFF0F000000F03FB8
:104E5000C1F30A522DE9F843A2F2FF36132E0B4696
:104E60000D460446884607461DDC002E40DB3C4AC2
:104E700042FA06F901EA09020243864618D036A32F
:104E8000D3E9002317F004FE0022002318F042FAB1
:104E900020B1002D42DB28EA090500273C462946BF
:104EA0002046BDE8F883332E06DDB6F5806F2FD09F
:104EB00019462046BDE8F883A2F213424FF0FF39AD
:104EC00029FA02F910EA090FF2D023A3D3E900234B
:104ED00017F0DEFD0022002318F01CFA0028DDD0B8
:104EE000002D21DB454627EA09073C462946D7E73E
:104EF00019A3D3E9002317F0CBFD0022002318F0FB
:104F000009FA0028CAD0002D19DB00273D46C5E765
:104F100002460B4617F0BCFD0446CAE74FF4801367
:104F200043FA06F6B044B6E7142E10D00123C6F1BA
:104F3000340603FA06F6371928BF9844D2E725F05D
:104F40000042084B224318BF1D460027A6E705F183
:104F50000108C7E7AFF300809C7500883CE4377E0A
:104F6000FFFF0F000000F0BF2DE9F04FD64B994234
:104F700089B00E460F46824613DCD44B21F0004424
:104F80009C4218DD0022D24B18F09CF9002879D001
:104F9000002200230020CF4918F056F809B0BDE8E0
:104FA000F08FCD4B99422FDD5246334617F070FDFE
:104FB00009B0BDE8F08FC94B9C4270DDC84B1F445F
:104FC0009F427ED8504631460022C64B17F060FD06
:104FD0004FEA215BABF2FF3BBBF1000F04460D46ED
:104FE0000F4640F3E0815246334617F04FFD02462C
:104FF0000B460020BB4917F049FD22462B4618F00E
:1050000023F8CDE900010BE0B74B9F42DADD002227
:105010000023CDE900234FEA275B5446ABF2FF3B68
:10502000B24BC7F313079F4247F07F5500F3E78069
:1050300045F44015204629460022AA4B17F026FDCC
:10504000002204460D46AA4B17F0D4FE22462B46FA
:1050500017F0D0FEA246CDE902012E4680468946D1
:10506000002F3AD1002200232046294618F02AF9C1
:10507000002800F0CE80BBF1000F40F076810020C8
:10508000014695E7524633465046314617F0FEFC3E
:1050900002460B4617F0D8FF09B0BDE8F08F00229A
:1050A000944B17F0F5FC0022002318F033F9002888
:1050B00000F0CC80904B9C4200F3C88050463146B3
:1050C00076E700228A4B17F095FE5246334617F0DA
:1050D00091FE4FF0000B8046894600224FF080433E
:1050E0005046314617F0D4FC02460B465046314636
:1050F00017F0AAFF02460B46CDE9022317F07AFE0D
:105100005DA3D3E9002304460D4617F073FE5CA3AC
:10511000D3E9002317F0BCFC22462B4617F06AFEA9
:1051200059A3D3E9002317F0B3FC22462B4617F00E
:1051300061FE57A3D3E9002317F0AAFC22462B46B1
:1051400017F058FE54A3D3E9002317F0A1FC224620
:105150002B4617F04FFE52A3D3E9002317F098FC1B
:1051600022462B4617F046FE4FA3D3E9002317F043
:105170008FFC22462B4617F03DFE04460D46BBF140
:10518000000F00F0BB80584617F0CEFD48A3D3E9CE
:105190000023CDE9040117F02DFE4246CDE90601BA
:1051A0004B462046294617F073FCDDE9022317F031
:1051B00021FE41A3D3E9002304460D46DDE90401A5
:1051C00017F018FEDDE9002317F062FC02460B46DB
:1051D0002046294617F05CFC02460B4640464946ED
:1051E00017F054FC5246334617F050FC02460B466B
:1051F000DDE9060117F04AFC09B0BDE8F08F45F47F
:105200000015C7F5801720462946BF100BF1010B8A
:1052100012E72BA3D3E900232046294617F0EAFD25
:1052200002460B4600202F4917F030FCDDE902232F
:1052300017F0E0FD06460F46BBF1000F6DD10246A8
:105240000B462046294617F021FCB1E6524633466C
:105250005046314617F0CEFD0022254B17F0CAFD0F
:1052600002460B465046314617F010FC09B0BDE827
:10527000F08F00BFAFF3008044523EDF12F1C23F17
:105280009FC678D0099AC33FDE03CB966446C73FDA
:10529000AF788E1DC571CC3F599322942449D23FDB
:1052A00004FA97999999D93F935555555555E53F26
:1052B0000000E0FE422EE63F763C7935EF39EA3DCC
:1052C000555555555555E53F7982DA3FFFFFEF3F7C
:1052D0000000F0BF000050C3FFFFEF7FFFFF1F3E45
:1052E0003C412D400000F03FFFFF3F439DA00600E2
:1052F0000000E03F00005043FFFF8F3C42464B461A
:1053000017F0C6FBDDE9022317F074FD02460B46D9
:105310004046494617F0BAFBA2E7584617F004FD8D
:1053200027A3D3E9002382468B4617F063FD26A30B
:10533000D3E90023804689465046594617F05AFD66
:10534000DDE9002317F0A4FB02460B463046394640
:1053500017F09CFB22462B4617F098FB02460B46A3
:105360004046494617F092FB22E6584617F0DCFC0F
:1053700015A3D3E9002306460F4617F03BFDDDE9F0
:10538000002317F085FB0EA3D3E9002304460D4646
:105390003046394617F02EFD02460B462046294678
:1053A00017F076FB04E60022094B17F06FFB02466C
:1053B0000B465046314617F069FB1EE6AFF30080FE
:1053C0000000E0FE422EE63F763C7935EF39EA3DBB
:1053D0000000F03F0000000008B518F0FFFD04A336
:1053E000D3E9002317F030FE08BD00BFAFF3008003
:1053F000EF39FAFE422EE63F2DE9F043DFF8B480A4
:105400008BB004460D4600F06BFF98F90030013375
:1054100006460F462BD022462B462046294617F03B
:1054200083FF814618BB2046294618F05DFA1CA36D
:10543000D3E9002317F06EFFC8B11B4A98F900307A
:10544000CDF820900321CDE90445CDE902458DE852
:1054500006008BB9154B4FF06042CDE90623684634
:105460001AF0A4F970B1089B9BB9DDE906673046D4
:1054700039460BB0BDE8F0830D490020022BCDE981
:105480000601ECD11AF0E2FA22230360089B002BFC
:10549000EBD01AF0DBFA089B0360E6E7AFF300807D
:1054A0007DF8B98FCE33864024220200FFFFEF47FC
:1054B0000000F07F1E0200202DE9F043DFF8E480B9
:1054C0008BB004460D4600F0BBFF98F90030013365
:1054D00006460F4633D0204629461AF061F970B3CC
:1054E00029A3D3E900232046294617F013FF81465C
:1054F00050BB27A3D3E900232046294617F0ECFE32
:10550000E8B198F90030244ACDF820900426002014
:105510000021022BCDE90445CDE902450096019218
:10552000CDE9060129D068461AF040F928B3089B56
:105530001BB11AF08BFA089B0360DDE90667304661
:1055400039460BB0BDE8F083134A98F90030019258
:1055500003210022CDE90445CDE9024500910892DE
:105560002BB90E4B4FF06042CDE90623DBE70C4927
:105570000020022BCDE90601D5D11AF067FA2223CB
:105580000360D4E7AFF30080EF39FAFE422E864085
:1055900051302DD5104987C02C220200FFFFEF4764
:1055A0000000F07F1E0200202DE9F84FC44E21F0CC
:1055B0000043B3420C4605460DDD03F1404303F5BD
:1055C0008013034340F0B980002940F3408100205C
:1055D0000021BDE8F88FBB4EB34240F3A6800029FE
:1055E000C0F2788102460B460020B74917F04EFA08
:1055F0000022B64B17F0FEFB04460D4619F092F957
:1056000095A3D3E90023894680462946204617F012
:10561000F1FB93A3D3E9002317F03AFA22462B4675
:1056200017F0E8FB90A3D3E9002317F02FFA2246E6
:105630002B4617F0DFFB8EA3D3E9002317F028FADF
:1056400022462B4617F0D6FB8BA3D3E9002317F095
:105650001DFA22462B4617F0CDFB89A3D3E9002380
:1056600017F016FA22462B4617F0C4FB86A3D3E99F
:10567000002382468B462046294617F0BBFB84A3B5
:10568000D3E9002317F002FA22462B4617F0B2FBAB
:1056900081A3D3E9002317F0FBF922462B4617F02C
:1056A000A9FB7FA3D3E9002317F0F0F922462B468C
:1056B00017F0A0FB0022844B17F0EAF902460B46D4
:1056C0005046594617F0C0FC42464B4617F092FB35
:1056D000002682468B4632464B463046494617F0F6
:1056E00089FB02460B462046294617F0CFF9324681
:1056F00004460D464B464046494617F0C9F9024656
:105700000B462046294617F09FFC02460B465046A2
:10571000594617F0BDF932464B4617F0B9F9024623
:105720000B4617F0B5F9BDE8F88F694A93420EDCD5
:105730005DA1D1E90001BDE8F88F02460B4617F0E4
:10574000A5F902460B4617F07FFCBDE8F88F02462C
:105750000B4617F04FFB40A3D3E9002306460F4644
:1057600017F048FB3EA3D3E9002317F091F9324626
:105770003B4617F03FFB3CA3D3E9002317F086F923
:1057800032463B4617F036FB39A3D3E9002317F026
:105790007FF932463B4617F02DFB37A3D3E90023B0
:1057A00017F074F932463B4617F024FB34A3D3E9D3
:1057B000002317F06DF932463B4617F01BFB32A36E
:1057C000D3E90023804689463046394617F012FB5C
:1057D0002FA3D3E9002317F059F932463B4617F0BF
:1057E00009FB2DA3D3E9002317F052F932463B46BB
:1057F00017F000FB2AA3D3E9002317F047F932463C
:105800003B4617F0F7FA00222F4B17F041F90246FA
:105810000B464046494617F017FC2A46234617F028
:10582000E9FA02460B4622A1D1E9000117F02EF950
:1058300002460B462846214617F028F902460B4639
:1058400019A1D1E9000117F021F9BDE8F88F1AA1DB
:10585000D1E90001BDE8F88F09F7FD0DE13D023FF8
:1058600088B20175E0EF493F3B8F68B52882A43FBD
:105870005544880E55C1C93F7D6FEB0312D6D43F06
:10588000555555555555C53F82922EB1C5B8B33FB4
:1058900059018D1B6C06E63FC88A599CE52A0040D9
:1058A0004B2D8A1C273A0340182D4454FB21F93F05
:1058B000075C143326A6913C182D4454FB21094063
:1058C000FFFFEF3FFFFFDF3F0000F03F0000E03F42
:1058D0000000603C00225C4B17F0DAF800225B4BC2
:1058E00017F088FA40A3D3E9002304460D4617F0C9
:1058F00081FA3FA3D3E9002317F0CAF822462B46CA
:1059000017F078FA3CA3D3E9002317F0BFF822463A
:105910002B4617F06FFA3AA3D3E9002317F0B8F833
:1059200022462B4617F066FA37A3D3E9002317F077
:10593000ADF822462B4617F05DFA35A3D3E90023D4
:1059400017F0A6F822462B4617F054FA80468946EF
:105950002046294618F0E6FF2FA3D3E90023064688
:105960000F462046294617F045FA2DA3D3E9002318
:1059700017F08CF822462B4617F03CFA2AA3D3E9FD
:10598000002317F085F822462B4617F033FA28A398
:10599000D3E9002317F07AF822462B4617F02AFAAB
:1059A0000022294B17F074F802460B464046494640
:1059B00017F04AFB32463B4617F01CFA1EA3D3E908
:1059C000002317F063F832463B4617F061F80246B1
:1059D0000B4617F05DF802460B4619A1D1E900010C
:1059E00017F054F8BDE8F88F09F7FD0DE13D023FCF
:1059F00088B20175E0EF493F3B8F68B52882A43F2C
:105A00005544880E55C1C93F7D6FEB0312D6D43F74
:105A1000555555555555C53F82922EB1C5B8B33F22
:105A200059018D1B6C06E63FC88A599CE52A004047
:105A30004B2D8A1C273A0340075C143326A6913C61
:105A4000182D4454FB2109400000F03F0000E03FC6
:105A5000434A91422DE9F8430C46054639DD414A57
:105A6000914209DD02F17952914240DD02460B4636
:105A700017F00EF8BDE8F88301F1404202F58012FC
:105A8000024330D0B1F1804F3ADC0022364B16F0A1
:105A9000FDFF02460B4604460D4616F0F9FF22466E
:105AA00006460F462B462046294617F0A3F9024624
:105AB0000B463046394616F0EBFF18F033FF0B4625
:105AC00002462946204616F0E3FFBDE8F843FFF7FB
:105AD0004BBA02460B4616F0D9FF02460B4617F0AA
:105AE000B3FABDE8F88300200021BDE8F88300F098
:105AF0001FFE19A3D3E9002316F0CAFFBDE8F883FF
:105B000002460B4617F076F90022174B16F0BEFF3F
:105B100018F008FF2A468046894623462846214633
:105B200016F0B6FF424606460F464B46284621462B
:105B300016F0AEFF02460B4600200B4917F084FA20
:105B40000B4602463946304616F0A0FFBDE8F84342
:105B500000F0EEBDAFF30080EF39FAFE422EE63FD3
:105B6000FFFFEF3FFFFFAF410000F03F00000000EC
:105B70002DE9F047C44B21F00048984584B00D460C
:105B8000044616DD08F1404808F58018034658EA37
:105B9000030326D002460B4616F078FF0B4602465A
:105BA00017F052FA04460B462046194604B0BDE8E9
:105BB000F087B64B98458A462EDCB8F1795F80F2C3
:105BC0006D8195A3D3E9002316F062FF0022B04B4C
:105BD00017F0A0FB00B32B462046194604B0BDE8E1
:105BE000F0878FA3D3E9002317F004F98EA3D3E93C
:105BF000002306460F462046294617F0FBF80246CA
:105C00000B463046394616F043FF04460B46204605
:105C1000194604B0BDE8F0872046294617F064FE17
:105C200002460B4600209A4916F030FF0022994B9D
:105C300017F0E0F87EA3D3E9002304460D4617F0E1
:105C4000D9F87DA3D3E9002316F022FF22462B4684
:105C500017F0D0F87AA3D3E9002316F017FF2246F5
:105C60002B4617F0C7F878A3D3E9002316F010FFEE
:105C700022462B4617F0BEF875A3D3E9002316F091
:105C800005FF22462B4617F0B5F873A3D3E900238E
:105C900016F0FEFE22462B4617F0ACF870A3D3E9AF
:105CA0000023CDE900012046294617F0A3F86EA392
:105CB000D3E9002316F0EAFE22462B4617F09AF8A5
:105CC0006BA3D3E9002316F0E3FE22462B4617F020
:105CD00091F869A3D3E9002316F0D8FE22462B469B
:105CE00017F088F86A4B002216F0D2FECDE90201C7
:105CF0002046294618F016FE674B984506460F4683
:105D000067DCDDE90223DDE9000117F09DF9324689
:105D1000CDE900013B463046394616F0B9FE024651
:105D20000B46DDE9000117F065F84FF00008CDE9FA
:105D3000000142463B464046394617F05BF80246B2
:105D40000B462046294616F0A1FE424604460D4663
:105D50003B463046394616F09BFE02460B4620462F
:105D6000294617F071F902460B4616F091FE0246DD
:105D70000B462DA1D1E9000116F088FE02460B4624
:105D8000DDE9000116F082FE424604460D463B4620
:105D90004046394616F07CFE02460B4638A1D1E952
:105DA000000116F073FE02460B462046294616F007
:105DB0006DFE0B46024632A1D1E9000116F066FEE7
:105DC00004460B46BAF1000F3FF7EEAE03F1004375
:105DD000EAE6DDE90223DDE9000117F035F9324694
:105DE0003B4617F007F832463B4616F051FE024696
:105DF0000B4616F04DFE0CA3D3E9002316F046FE29
:105E00000B46024606A1D1E9000116F03FFE04460A
:105E10000B46D7E7AFF300809C7500883CE4377EE3
:105E2000182D4454FB21F93F075C143326A6913CFE
:105E300009F7FD0DE13D023F88B20175E0EF493FF2
:105E40003B8F68B52882A43F5544880E55C1C93F91
:105E50007D6FEB0312D6D43F555555555555C53F6B
:105E600082922EB1C5B8B33F59018D1B6C06E63F37
:105E7000C88A599CE52A00404B2D8A1C273A0340CA
:105E8000182D4454FB21E93FFFFFEF3FFFFFDF3FA9
:105E90000000F03F0000E03F3233EF3F02460B4688
:105EA00016F0A8FF38A3D3E9002306460F4616F0E4
:105EB000A1FF37A3D3E9002316F0EAFD32463B46A3
:105EC00016F098FF34A3D3E9002316F0DFFD324625
:105ED0003B4616F08FFF32A3D3E9002316F0D8FD1E
:105EE00032463B4616F086FF2FA3D3E9002316F077
:105EF000CDFD32463B4616F07DFF2DA3D3E90023AE
:105F000016F0C6FD32463B4616F074FF2AA3D3E9CD
:105F10000023804689463046394616F06BFF28A399
:105F2000D3E9002316F0B2FD32463B4616F062FF7D
:105F300025A3D3E9002316F0ABFD32463B4616F00D
:105F400059FF23A3D3E9002316F0A0FD32463B46B8
:105F500016F050FF0022204B16F09AFD02460B4629
:105F60004046494617F070F822462B4616F042FF8D
:105F700022462B4616F08CFD04460B462046194659
:105F800004B0BDE8F08700BF09F7FD0DE13D023F19
:105F900088B20175E0EF493F3B8F68B52882A43F86
:105FA0005544880E55C1C93F7D6FEB0312D6D43FCF
:105FB000555555555555C53F82922EB1C5B8B33F7D
:105FC00059018D1B6C06E63FC88A599CE52A0040A2
:105FD0004B2D8A1C273A03400000F03F00000000D0
:105FE0002DE9F84F5442144323F00049704E49EA1A
:105FF000D474B44286460F4640D84442044321F04C
:10600000004B4BEAD474B4428A4637D803F140447B
:1060100004F5801414434AD09C1704F0020444EAA7
:10602000D17450EA0B0131D052EA090137D0B145A1
:1060300052D0B34533D0ABEB09094FEA2959B9F136
:106040003C0F3BDC002B66DB7046394616F0FCFF4C
:1060500017F04AFCFEF7C8FC012C58D0022C48D09F
:10606000002C5ED040A3D3E9002316F00FFD40A31F
:10607000D3E9002316F00AFDBDE8F88F1046194653
:1060800072463B4616F004FDBDE8F88F022C19D08D
:10609000032C10D138A1D1E90001BDE8F88FBAF185
:1060A000000F14DB36A1D1E90001BDE8F88FBDE88F
:1060B000F84FFEF799BC3946BDE8F88F30A1D1E919
:1060C0000001C9E72AA1D1E90001BDE8F88F2EA19E
:1060D000D1E90001BDE8F88FCB4524D0022CF1D0E6
:1060E000032CD7D0012C4FF0000027D00021BDE8B1
:1060F000F88F1DA3D3E9002316F0C8FC02460B4617
:106100001BA1D1E9000116F0C1FCBDE8F88F01F137
:106110000041BDE8F88F19F13C0F95DA002000210D
:106120009AE7BDE8F88F022C16D0032C0FD0012C73
:1061300008D017A1D1E90001BDE8F88F4FF0004168
:10614000BDE8F88F14A1D1E90001BDE8F88F14A1D2
:10615000D1E90001BDE8F88F13A1D1E90001BDE844
:10616000F88F00BFAFF30080075C143326A6A13C74
:10617000182D4454FB210940182D4454FB2109C01B
:10618000182D4454FB21F93F182D4454FB21F9BF2D
:10619000182D4454FB21E93F182D4454FB21E9BF3D
:1061A000D221337F7CD902C0D221337F7CD90240F7
:1061B0000000F07F0000000043422DE9F047034358
:1061C00021F00048424A48EAD373934206460F46FC
:1061D00016D890454BD03F4B98458A461EDC3AA3D3
:1061E000D3E90023044616F053FC0022002317F0E5
:1061F00091F8002845D03B4620461946BDE8F08777
:1062000002460B4616F042FC0B46024616F01CFFF7
:1062100004460B4620461946BDE8F0872E4B9845AC
:10622000044645462FDD02464346414616F030FC03
:10623000224606460F4643460020254916F026FC16
:1062400002460B463046394616F0FEFEFEF78CFE3F
:10625000224B002216F0CEFDBAF1000F04460B4689
:10626000D8DA01F1004320461946BDE8F087002244
:10627000002316F0E9FE04460B4620461946BDE809
:10628000F0873446454622462B462046294616F0DE
:10629000FFFB22462B4606460F4616F0ABFD224674
:1062A000804689462B460020094916F0EFFB02463E
:1062B0000B464046494616F0C7FE32463B4616F0AE
:1062C000E7FBC3E7AFF300809C7500883CE4377EB2
:1062D0000000F03FFFFF2F3EFFFFDF3F0000E03FE9
:1062E0004F4A2DE9F84321F0004494420B460546FD
:1062F0001BDC4C4A944222DD4B4A944263DD4B4AFC
:1063000094427BDD4A4A944246DD0132944240D0B9
:1063100041A3D3E900231046194616F06BFD06464B
:106320000F4630463946BDE8F88302460B4616F064
:1063300061FD06460F4630463946BDE8F88317F042
:10634000D3FA02F0A9FC00223A4B8046894616F0A7
:106350009FFBB4F1725F06460F46ECDB42464B46AC
:106360004046494616F046FD32463B4604460D4639
:106370003046394616F08CFB02460B46204629462D
:1063800016F062FE00222B4B16F082FB06460F46EB
:10639000D1E7294A9042BBD82846194617F0A4FAFB
:1063A0000022264B16F026FD00F04AF80022044693
:1063B0000D46224B16F01EFD22462B4616F01AFD06
:1063C00006460F46B7E717F08FFA00F039F80022BB
:1063D0001A4B06460F4616F00DFD32463B46044664
:1063E0000D460020154916F02FFE02460B462046AA
:1063F000294616F04DFB06460F469CE717F074FA47
:1064000000F01EF800220D4B16F0F4FC06460F4675
:1064100091E700BFAFF300809C7500883CE4377EB5
:10642000FFFFEF7F422ED63FFFFF3540412E8640D3
:10643000CD3386400000F03F7DF8B98F0000E03F8B
:106440002DE9F04FB04F21F00042BA4283B00C4624
:106450004FEAD17605460DD9AC4FBA4225D9C1F3E2
:106460001303034340F0EF800EB10020014603B058
:10647000BDE8F08FA64B9A4200F2CC80A54B9A4221
:1064800000F2DE808AA3D3E9002316F001FB00228C
:10649000A14B16F03FFF002800F005812846214659
:1064A00000229D4B16F0F4FAE1E783A3D3E9002321
:1064B00016F030FF002840F0CB802846214680A30C
:1064C000D3E9002316F008FF0028CED1934B2846CD
:1064D00003EBC60621467CA3D3E9002316F08AFC11
:1064E000D6E9002316F0D4FA16F034FF804616F0F1
:1064F0001BFC77A3D3E9002306460F4616F07AFC6F
:1065000002460B462846214616F0C0FA72A3D3E98C
:106510000023CDE900013046394616F06BFC824677
:106520008B4652465B46DDE9000116F0AFFA0546A0
:106530000C462A4623462846214616F05BFC68A3F3
:10654000D3E9002306460F4616F054FC66A3D3E9B0
:10655000002316F09BFA32463B4616F04BFC64A330
:10656000D3E9002316F094FA32463B4616F042FC7B
:1065700061A3D3E9002316F089FA32463B4616F0B0
:1065800039FC5FA3D3E9002316F082FA32463B467A
:1065900016F030FC02460B462846214616F076FAE5
:1065A00006460F462846214632463B46B8F1000FC4
:1065B00056D016F01FFC324604460D463B460020DE
:1065C0004FF0804116F062FA02460B4620462946FB
:1065D00016F03AFD02460B465046594616F056FA5A
:1065E000DDE9002316F052FA0B4602464A49002024
:1065F00016F04CFA6FF47F7398454FDA08F57A7805
:1066000001EB085100224FF0B87316F0F3FB03B012
:10661000BDE8F08F424B9A423FF658AF414BF40031
:106620002344D3E9002316F031FA3F4BC6F10108A9
:106630002344CDE90001D3E900ABA8EB060870E7DD
:106640004FF0000875E702460B4616F021FA0EE7F8
:1066500017A3D3E900231046194616F0CBFB06E733
:1066600016F0C8FB0022804689464FF08043304632
:10667000394616F00BFA02460B464046494616F0DC
:10668000E3FC2A46234616F001FA02460B46002098
:10669000214916F0FBF903B0BDE8F08F01EB08517A
:1066A00003B0BDE8F08F804643E700BFAFF3008042
:1066B0009C7500883CE4377EEF39FAFE422E864016
:1066C00051302DD5104987C0FE822B654715F73F05
:1066D0000000E0FE422EE63F763C7935EF39EA3D98
:1066E000D0A4BE726937663EF16BD2C541BDBB3ED8
:1066F0002CDE25AF6A56113F93BDBE166CC1663FB6
:106700003E5555555555C53F412E8640FFFFEF7FFD
:10671000422ED63FFFFF2F3E0000F03F600B0200ED
:10672000B1A2F03F700B0200800B020000000000DD
:106730002DE9F04FB1F5801F85B006460F460B4698
:106740005ADA024621F00044224300F0F880002982
:10675000C0F27A810022D64B16F04CFBD54A0B468C
:10676000934206460F466FF0350C4ADCC3F313051F
:1067700005F5152E0EF6647E0EF4801E8EF07F5207
:1067800082F440121C1542EA0507A4F2FF34644467
:106790000022C94B3046394604EB1E5416F076F9F8
:1067A000AB1CC3F31303022B82468B464FF000024F
:1067B00030DC002316F086FD002800F0C980002C94
:1067C00000F04B81204616F0AFFAA5A3D3E90023D1
:1067D00006460F4616F00EFBA3A3D3E9002304469A
:1067E0000D463046394616F005FB02460B4620465C
:1067F000294616F04DF90AE0AE4A93424FF0000CDC
:10680000B4DD32463B463046394616F041F905B014
:10681000BDE8F08F4FF0804316F03AF902460B4680
:106820005046594616F010FC064620460F4616F014
:106830007BFA3246CDE900013B4630463946CDE988
:10684000026716F0D7FA02460B468046894616F0D4
:10685000D1FA87A3D3E9002306460F4616F0CAFAF9
:1068600085A3D3E9002316F013F932463B4616F010
:10687000C1FA83A3D3E9002316F00AF932463B4656
:1068800016F0B8FA80A3D3E9002316F001F94246C6
:106890004B4616F0AFFA7EA3D3E900238046894623
:1068A0003046394616F0A6FA7BA3D3E9002316F04A
:1068B000EFF832463B4616F09DFA79A3D3E9002360
:1068C00016F0E6F832463B4616F094FA0B460246BE
:1068D0004946404616F0DCF8A5F5C223C5F5D72594
:1068E000A3F27A4351351D43002D8046894656DD7B
:1068F0000022724B5046594616F07CFA52465B46CF
:1069000016F078FA06460F46002C68D132463B4610
:106910004046494616F0BCF8DDE9022316F06AFA53
:1069200002460B463046394616F0B0F802460B4692
:106930005046594616F0AAF805B0BDE8F08F00227F
:10694000002300205E4916F07FFB05B0BDE8F08F04
:1069500055A3D3E900235046594616F04BFA024698
:106960000B460020554916F091F8524606460F4650
:106970005B465046594616F03DFA02460B463046F5
:10698000394616F037FA06460F46002C40F09A803A
:1069900002460B465046594616F078F837E7002C69
:1069A00000F0A4802EA3D3E90023DDE9000116F056
:1069B00021FA42464B4604460D465046594616F0CB
:1069C00065F8DDE9022316F015FA27A3D3E90023C1
:1069D00006460F46DDE9000116F00CFA21E020A37F
:1069E000D3E90023DDE9000116F004FA32463B4604
:1069F00004460D464046494616F04AF8DDE90223B2
:106A000016F0F8F918A3D3E9002380468946DDE99A
:106A1000000116F0EFF902460B464046494616F0D3
:106A200037F802460B463046394616F02FF85246E4
:106A30005B4616F02BF802460B462046294616F018
:106A400025F805B0BDE8F08F02460B4616F01EF89B
:106A50000022002316F0F8FAD9E600200021D6E63D
:106A60000000E0FE422EE63F763C7935EF39EA3D04
:106A700044523EDF12F1C23FDE03CB966446C73F6D
:106A8000599322942449D23F935555555555E53F86
:106A90009FC678D0099AC33FAF788E1DC571CC3F91
:106AA00004FA97999999D93F555555555555D53F5C
:106AB00000005043FFFFEF7F0000F03F0000E03F89
:106AC000000050C3204616F02FF90FA3D3E900238E
:106AD0008046894616F08EF90DA3D3E900230446BB
:106AE0000D464046494616F085F99AE702460B46A0
:106AF0005046594615F0CAFFDDE9022316F07AF92F
:106B000014E700BFAFF300800000E0FE422EE63F36
:106B1000763C7935EF39EA3DB1F5801F2DE9F84330
:106B200004460D460B461ADA024621F0004632436F
:106B300059D000295FDB00223B4B16F05BF93B4A42
:106B40000B4693420D4604466FF035010CDD22469C
:106B50002B462046294615F09BFFBDE8F883334AB3
:106B600093424FF00001F2DC1815A0F2FF30084408
:106B70004FEAD0794844C3F3130816F0D5F8C9F5A5
:106B80007F73033348EA035506460F4620462946DD
:106B9000FFF7CEFD1EA3D3E9002380468946304689
:106BA000394616F027F91CA3D3E9002304460D4605
:106BB0004046494616F01EF902460B462046294635
:106BC00015F066FF16A3D3E9002304460D463046B0
:106BD000394616F00FF902460B462046294615F0B5
:106BE00057FFBDE8F883002200230020104916F06B
:106BF0002BFABDE8F88302460B4615F047FF00224A
:106C0000002316F021FABDE8F88300BFAFF300803F
:106C1000362BF111F3FE593D0EE526157BCBDB3FFC
:106C200000609F501344D33F00005043FFFFEF7FAD
:106C3000000050C3000000002DE9F04F23F0004792
:106C400057EA020493B037D0674C21F00046A642C1
:106C500083460D4629DC9A46964625D0A74224DC79
:106C6000614CA74279D0002D89468046CDE90023AA
:106C700077DB0024BEF1000F2CD15B4B9F4200F06C
:106C80008B805A4B9F4261D0BAF1804F00F0BA839B
:106C9000574B9A451ED1002D1CDB4046494613B088
:106CA000BDE8F04F17F03EBE58B106F1404606F57C
:106CB000801656EA0B0306D14C49002013B0BDE8FC
:106CC000F08FB742CCDD4B4813B0BDE8F04F18F061
:106CD0006FBD00244046494616F006FEBBF1000F8A
:106CE00019D126B1414B25F040429A4213D1BAF155
:106CF000000FC0F2BC83002DE0DA06F1404606F535
:106D0000801656EA040300F08F84012CD6D101F1DD
:106D100000431946D2E7ED0F013D54EA05034ED07A
:106D2000354B9F426EDD03F104739F4240F3E883CD
:106D3000324B9E424EDDBAF1000F4EDD28A3D3E95F
:106D400000231046194616F055F8B7E7BAF1000FC0
:106D5000C0F23C8440464946B0E7BEF1000F82D005
:106D6000A3E7274B9F4228DCA3F154739F4280DDA9
:106D70003B15A3F2FF33142B40F33E84C3F13403DD
:106D80002EFA03F202FA03F39E457FF472AF02F08B
:106D90000102C2F102046DE706F1404303F58013DE
:106DA00053EA0B0388D0154B9E4240F33283BAF16D
:106DB000000F12DBDDE9000180E702245AE74246BA
:106DC0004B464046494615F061FE02460B4616F01A
:106DD0003BF973E7BAF1000FB0DB002000216DE74B
:106DE0009C7500883CE4377E0000F07F0000F03F97
:106DF0000000E03F701402000000E041FFFFEF3FA1
:106E0000FFFF3F43B6F5801F4FF0000205DAD44B79
:106E100015F0F0FF6FF034020E463315D14FC6F374
:106E20001306A3F2FF33134446F07F5ABE421A46BC
:106E30000D934AF4401A40F32183CB4B9E4240F31A
:106E4000FD83134601330D93C84B0022CDE9062381
:106E500000270026CDE90867CDE90E67AAF5801A5C
:106E60000027024653465146CDE90A23DDE90623B1
:106E700015F00CFEDDE9062380468946DDE90A01AE
:106E800015F006FE02460B460020B84916F0DCF865
:106E90000A460146CDE910121346494602464046CD
:106EA00015F0A8FF4FEA6A0343F000538C4683466F
:106EB00003F50023CDE904BCDA468B46D91900233B
:106EC000CDE902AB0293DDE902AB002006460F4696
:106ED00002460B465046594615F08CFF02460B46BB
:106EE0004046494615F0D2FDDDE906238046894635
:106EF0003046394615F0CAFD02460B46DDE90A0167
:106F000015F0C4FD52465B4615F074FF02460B4671
:106F10004046494615F0BAFDDDE9102315F06AFF39
:106F2000DDE90467CDE9060132463B463046394685
:106F300015F060FF78A3D3E9002306460F4615F04D
:106F400059FF77A3D3E9002315F0A2FD32463B4653
:106F500015F050FF74A3D3E9002315F099FD3246D4
:106F60003B4615F047FF72A3D3E9002315F090FDCF
:106F700032463B4615F03EFF6FA3D3E9002315F0E0
:106F800087FD32463B4615F035FF6DA3D3E900235C
:106F900015F07EFD3246804689463B4630463946EE
:106FA00015F028FF02460B464046494615F022FFE1
:106FB000524606460F465B46DDE9040115F068FDC2
:106FC000DDE9062315F016FF32463B4615F060FD5D
:106FD0005246804689465B465046594615F00AFFA0
:106FE0000022634BCDE90A0115F052FD42464B46A3
:106FF00015F04EFD02980F46064632463B46504677
:10700000594615F0F7FE002282468B46584B304613
:10701000394615F03BFDDDE90A2315F037FD024640
:107020000B464046494615F031FDDDE9042315F0D5
:10703000E1FE3246804689463B46DDE9060115F011
:10704000D9FE02460B464046494615F021FD8046D2
:10705000894602460B4650465946CDE904AB15F029
:1070600017FDDDE902AB38A3D3E9002350460F46F4
:1070700015F0C0FEDDE90423CDE902013946504692
:1070800015F004FD02460B464046494615F0FEFC4D
:107090002FA3D3E9002315F0ADFE2FA3D3E90023DE
:1070A000804689465046394615F0A4FE02460B46F6
:1070B0004046494615F0ECFCDDE90E2315F0E8FCEE
:1070C00080460D98894615F02FFE424606460F462B
:1070D0004B46DDE9020115F0DBFCDDE9082315F084
:1070E000D7FC32463B4615F0D3FC32463B46504671
:1070F0008B4615F0CBFCDDE9082315F0C7FCDDE974
:10710000022315F0C3FC02460B464046494615F0E3
:10711000BDFC80462EE000BFEF4E454A287ECA3FA8
:1071200065DBC9934A86CD3F01411DA96074D13FFB
:107130004D268F515555D53FFFAB6FDBB66DDB3F0D
:10714000033333333333E33F000000E009C7EE3F3E
:10715000FD033ADC09C7EE3FF5015B14E02F3EBEAC
:10716000000040438E98030079B60B000000F03F0A
:10717000000008408946013C54EA0503DDE90001AE
:1071800014BFD94CD94C0023CDE9043403460C4636
:10719000CDE9023400230293DDE9024522462B4665
:1071A00015F074FC52465B4615F024FEDDE9002321
:1071B00006460F464046494615F01CFE02460B4661
:1071C0003046394615F064FC2246804689462B46F7
:1071D00050465946CDE9008915F00CFE0B46024693
:1071E00006460F464046494615F052FCC04B9942B0
:1071F00004460D468A4640F3168101F13F4303F5EC
:10720000E003034340F0EA81A3A3D3E90023DDE9CF
:10721000000115F03DFC3246804689463B4620463B
:10722000294615F033FC02460B464046494616F007
:1072300071F8002840F0D281A8464FEA28534FF455
:107240008012A3F2FE3342FA03F35344C3F30A520B
:10725000A84DA2F2FF321541C3F3130423EA05013E
:107260000020C2F1140B44F48014BAF1000F02465E
:107270000B4644FA0BFB30463946B8BFCBF1000B46
:1072800015F004FC02460B4606460F46DDE90001F8
:1072900015F0FEFB4FEA0B5A0D46002480A3D3E9FC
:1072A00000232046294615F0A5FD32468046894632
:1072B0003B462046294615F0E9FB02460B46DDE930
:1072C000000115F0E3FB78A3D3E9002315F092FD4C
:1072D00077A3D3E9002306460F462046294615F03A
:1072E00089FD02460B463046394615F0D1FB06466D
:1072F0000F4602460B464046494615F0C9FB42463A
:107300004B4604460D4615F0C1FB02460B4630467F
:10731000394615F0BBFB2246804689462B4620465F
:10732000294615F067FD64A3D3E9002306460F46FE
:1073300015F060FD62A3D3E9002315F0A7FB3246E8
:107340003B4615F057FD60A3D3E9002315F0A0FBE1
:1073500032463B4615F04EFD5DA3D3E9002315F000
:1073600095FB32463B4615F045FD5BA3D3E9002370
:1073700015F08EFB32463B4615F03CFD02460B46AF
:107380002046294615F082FB06460F4602460B466C
:107390002046294615F02EFD0022CDE900014FF0D0
:1073A00080433046394615F071FB02460B46DDE955
:1073B000000115F049FE424606460F464B46204660
:1073C000294615F017FD42464B4615F061FB024673
:1073D0000B463046394615F059FB22462B4615F030
:1073E00055FB02460B4600203F4915F04FFB8A44EF
:1073F000BAF5801FC0F233815146DDE9042315F050
:10740000F9FC5BE4424640464B46494615F0F2FC27
:1074100054E4BAF1000FBFF6E0ACDDE900341846E1
:1074200004F100414AE4344B21F00048984540F310
:10743000F280324B0B4403430CD132463B4615F0ED
:1074400025FB02460B46DDE9000115F04FFF002841
:107450003FF4F3AEDDE9040121A3D3E9002315F0E5
:10746000C9FC1FA3D3E9002315F0C4FC26E402469F
:107470000B4600201C4915F0E7FD3CE400220023E8
:10748000CDE90823CDE90E23174B00220027CDE9D3
:107490000623E6E4AFF30080FE822B654715973C98
:1074A00000000000432EE63FEF39FAFE422EE63F91
:1074B000396CA80C615C20BED0A4BE726937663EF0
:1074C000F16BD2C541BDBB3E2CDE25AF6A56113FE4
:1074D00093BDBE166CC1663F3E5555555555C53FCB
:1074E00059F3F8C21F6EA5010000F03F0000F0BF85
:1074F000FFFF8F40FFFF0F00FFCB904000346F3F36
:107500006B4B9E427FF766AC6A4B9E423FF713ACD3
:107510000022684B15F0BAFA57A3D3E900230646B8
:107520000F4615F067FC56A3D3E900238046894631
:107530003046394615F05EFC002282468B465E4B93
:107540003046394615F056FC02460B464EA1D1E9AD
:10755000000115F09BFA32463B4615F04BFC024603
:107560000B460020554915F091FA3246CDE902014B
:107570003B463046394615F03DFC02460B46DDE9F8
:10758000020115F037FC42A3D3E9002315F032FCC9
:1075900002460B465046594615F078FA02460B460D
:1075A00006460F464046494615F072FA42464B469B
:1075B000002082468B4615F069FA02460B4630469B
:1075C000394615F063FA80468946D4E542464B4673
:1075D0000020384915F038FDFFF770BBDDE90401E4
:1075E0002DA3D3E9002315F005FC2BA3D3E9002339
:1075F00015F000FCFFF762BBBEF1000F7FF469AB32
:10760000C3F1140347FA03F202FA03F39F422AD0AC
:107610007446FFF736BB294B98453FF70EAEDDE9C0
:1076200002239246934638E602460B4615F02EFAA0
:1076300002460B4615F008FDFFF740BB18A3D3E93F
:107640000023CDE9082318A3D3E90023CDE90E23B5
:107650001B4B00224FF48027CDE9062301E45A4654
:1076600001F05AFDC9E602F00102C2F10204FFF77F
:1076700008BB00BFAFF30080000000604715F73F74
:1076800044DF5DF80BAE543E555555555555D53F25
:10769000FE822B654715F73F9C7500883CE4377EDA
:1076A0000000004003B8E23F06D0CF43EBFD4C3E64
:1076B000FEFFEF3F0000F03F0000D03F0000E03F42
:1076C0000000F83F000000002DE9F04F9A4E21F035
:1076D0000047B74291B040F38E809246974A974256
:1076E0000C4626DC00298AA3D3E9002340F3B481A9
:1076F00015F0CCF9924B9F4204460D4600F0908065
:1077000085A3D3E9002315F0C1F902460B46CAE967
:1077100000232046294615F0B9F97FA3D3E90023B9
:1077200015F0B4F90125CAE90201284611B0BDE8F7
:10773000F08F844A974240F39080834A974265DCF9
:107740003D15A5F21645A7EB055319461F460646FB
:1077500015F000FE15F0E8FA8046894602460B4611
:1077600030463946CDE90A8915F090F90022774B69
:1077700015F040FB8946804615F0ECFD15F0D4FA73
:1077800002460B4606460F4640464946CDE90C6781
:1077900015F07CF900226D4B15F02CFB0022002324
:1077A000CDE90E0115F08EFD002800F07381002355
:1077B00030463946002215F085FD002814BF01230C
:1077C0000223634A019202212A4600910AA85146E7
:1077D00000F086FB002C054614DADAF80420DAF80B
:1077E0000C3002F1004203F100434542CAF8042084
:1077F000CAF80C3006E0C2E9000100250024C2E905
:1078000002450025284611B0BDE8F08F02460B4620
:1078100015F03CF90025CAE90201CAE90001F1E7C7
:107820003FA3D3E9002315F031F93FA3D3E90023A7
:107830000D46044615F02AF902460B46CAE9002314
:107840002946204615F022F937A3D3E9002315F085
:107850001DF90125CAE90201D4E716F045F834A361
:10786000D3E900238046894615F0C4FA0022394B3B
:1078700015F00EF915F06EFD054615F055FA24A326
:10788000D3E90023CDE9040115F0B4FA02460B4612
:107890004046494615F0FAF81FA3D3E90023804675
:1078A0008946DDE9040115F0A5FA1F2DCDE9020195
:1078B00054DC294B6A1E53F822309F424ED00246B8
:1078C0000B464046494615F0E1F802460B46CAE928
:1078D000002383460E465A4633464046494615F035
:1078E000D5F8DDE9022315F0D1F8002C02460B464D
:1078F000CAE9022386DA5B4606F1004601F100413F
:107900008AE84800CAF80C10CAF808006D4279E706
:1079100000004054FB21F93F3163621A61B4D03D4D
:107920000000601A61B4D03D7370032E8A19A33B26
:1079300083C8C96D305FE43FFB21E93F7BD902403A
:10794000FB21F93FFB213941FFFFEF7F0000704130
:10795000E02202000000E03F60220200DDE9022395
:107960004046494615F092F83A15C1F30A53D31A26
:10797000102B83460E460992CAE90001ABDD58A3DD
:10798000D3E90023DDE9040115F034FA06460F4679
:1079900002460B464046494615F078F8CDE9060107
:1079A00002460B464046494615F070F832463B46C3
:1079B00015F06CF84CA3D3E9002306460F46DDE929
:1079C000040115F017FA32463B4615F05FF8DDE981
:1079D0000689CDE9020102460B464046494615F0AC
:1079E00055F80B46C1F30A570E460999CF1B0246BC
:1079F000312F8346CAE900236CDD3DA3D3E9002380
:107A0000DDE9040115F0F6F906460F4602460B467D
:107A100040464946CDE9068915F038F802460B463E
:107A200080468946DDE9060115F030F832463B46CE
:107A300015F02CF830A3D3E9002306460F46DDE904
:107A4000040115F0D7F932463B4615F01FF80246FF
:107A50000B46CDE9022334E715F01AF82A4B9F4272
:107A600004460D4618D026A3D3E9002315F010F8DC
:107A700002460B46CAE900232946204615F006F8BF
:107A80001FA3D3E9002315F003F84FF0FF35CAE92F
:107A90000201B7E6032394E611A3D3E9002314F00F
:107AA000F7FF11A3D3E900230D46044614F0F0FFBD
:107AB00002460B46CAE900232946204614F0E6FF99
:107AC00009A3D3E9002314F0E3FF4FF0FF35CAE91F
:107AD000020197E6DDE90689FDE600BFAFF300800D
:107AE0000000601A61B4D03D7370032E8A19A33B65
:107AF0000000002E8A19A33BC14920259A837B39B7
:107B00003163621A61B4D03DFB21F93F00000000EF
:107B1000574A2DE9F84F21F0004890450E46074698
:107B20002BDC544B0029B4BF534D544D98454FF0B6
:107B3000000410DC524B98456EDC4BA3D3E90023C4
:107B400014F0A6FF00224F4B15F0E4FBD8B13846E5
:107B50003146BDE8F88F4C4B984579DD4B4B984545
:107B600043DD013398453DD0384631463EA3D3E945
:107B7000002315F03FF9BDE8F88F02460B4614F0DC
:107B800087FFBDE8F88F3846314615F0ADFE01F0AD
:107B900083F806460F4632463B463046394614F0D7
:107BA00077FF324682468B463B463046394615F0D3
:107BB00021F9002280468946324B3046394614F07E
:107BC00067FF02460B464046494615F03DFA02461D
:107BD0000B465046594614F059FF22462B4615F0E5
:107BE00009F9CEE72A4B9842BED83846314615F0FF
:107BF0007BFE0022214B15F0FDF8FEF721FC064626
:107C00000F4602460B462046294615F0F3F8324649
:107C10003B4615F0EFF8B4E715F066FE01F03CF8CE
:107C20001C4B984506460F46B5DD0022154B14F057
:107C30002FFF02460B463046394615F005FA32460C
:107C40003B4614F025FF22462B4615F0D3F898E763
:107C500015F04AFEFEF7F4FB02460B462046294685
:107C600015F0C8F88DE700BF3374AC3C1F7BAC7FC8
:107C7000FFFFEF7FFFFF35400000E0BF0000E03F67
:107C8000FFFF2F3E0000F03F412E8640CD3386405F
:107C90007DF8B98FFFFFEF3F2DE9F04F21F000464F
:107CA000B6F1795F85B00C4692469B4605466BDA85
:107CB00015F050FB002800F0E8802A4623462846AD
:107CC000214615F097F874A3D3E90023804689462E
:107CD00015F090F872A3D3E9002314F0D9FE4246C0
:107CE0004B4615F087F870A3D3E9002314F0CEFEBD
:107CF00042464B4615F07EF86DA3D3E9002314F0FD
:107D0000C7FE42464B4615F075F86BA3D3E9002336
:107D100014F0BCFE42464B4615F06CF868A3D3E95C
:107D2000002314F0B5FE42464B4615F063F8CDE94A
:107D300000010022644B4046494615F05BF8DDE93E
:107D4000002306460F464046494615F053F8524672
:107D5000804689465B462846214615F04BF8024688
:107D60000B464046494614F091FE02460B4630460B
:107D7000394614F08BFE02460B460020534914F09E
:107D800085FE05B0BDE8F08F02460B4615F032F8CF
:107D900041A3D3E900238046894615F02BF840A380
:107DA000D3E9002314F074FE42464B4615F022F846
:107DB0003DA3D3E9002314F069FE42464B4615F07B
:107DC00019F83BA3D3E9002314F062FE42464B4668
:107DD00015F010F838A3D3E9002314F057FE4246FB
:107DE0004B4615F007F836A3D3E9002314F050FEF4
:107DF0004B46424614F0FEFF354B9E42CDE9000152
:107E000097DD344B9E424FF0000238DCA6F500139C
:107E100000202E4916461F4614F038FECDE9020117
:107E20000022294B4046494614F0E4FF32463B46C7
:107E300014F02CFEDDE9002306460F464046494675
:107E400014F0D8FF5246804689465B4628462146B4
:107E500014F0D0FF02460B464046494614F016FE89
:107E600002460B463046394614F010FE02460B46D9
:107E7000DDE9020114F00AFE05B0BDE8F08F164BF3
:107E8000164FCDE902230026CAE71049002005B0AD
:107E9000BDE8F08FAFF30080D43888BEE9FAA8BD02
:107EA000C4B1B4BD9EEE213EAD529C804F7E923E49
:107EB0009015CB19A001FA3E7751C1166CC1563FFF
:107EC0004C5555555555A53F0000E03F0000F03F8B
:107ED0003233D33F0000E93F0000E73F0000D23FCC
:107EE0002DE9F04FADF5197D9C4CA29E9C4D54F8A8
:107EF000264005942646D41E85FB0475E417C4EB82
:107F0000A50424EAE4741D460893631CA3EB8303D1
:107F1000013D02EBC30304932B4609940295651BB4
:107F2000F418039006911AD42C4401340DF178080A
:107F300000260027DDF88C9208E059F8250014F09F
:107F4000F3FE0135A542E8E9020108D0002DF4DA7C
:107F5000013530463946A542E8E90201F6D1059BD4
:107F6000002B2EDB089B4FEAC309039BA9F10808ED
:107F7000984420AB9944059B70AA02EBC30B0DF506
:107F8000DC7A029B002BC0F20F83039B4D46A3F1CA
:107F900008040026002775E90223F4E9020114F021
:107FA00029FF02460B463046394614F071FD444520
:107FB00006460F46EFD1EAE90267DA4509F10809FA
:107FC000DFD10598089A009000F18043013B9B00A7
:107FD0000CAC191F234402F100520B93039B013A8E
:107FE00021440A9103EBC20B009A98A901EBC2034A
:107FF000002A53E9284513462BDD01EBC308A8F1FD
:10800000A8080DF12C090DF5DC7A0022554B20460D
:10801000294614F0EFFE15F09DF914F085FE0022BC
:10802000514B06460F4614F0E5FE02460B4620462D
:10803000294614F02BFD15F08DF978E8022349F854
:10804000040F3946304614F023FDD04504460D4652
:10805000DBD1DDF81090204629464A4601F05CF855
:1080600000224FF07F5304460D4614F0C3FEFCF788
:10807000EFFE00223D4B14F0BDFE02460B462046AB
:10808000294614F003FD0D46044615F063F98046B9
:1080900014F04AFE0B4602462946204614F0F6FC30
:1080A0004B46002B06460F4640F3F780009A0CA97A
:1080B000013AC9F1180351F8225045FA03F101FAC7
:1080C00003F30CA8EB1A40F82230C9F117058844D5
:1080D00043FA05F5002D63DD009B002B08F1010834
:1080E00040F381820C9C002C00F0188301200023B7
:1080F0000CAAC4F1807442F82340009A824219DD30
:108100000CAA0CAC52F820106FF07F42511A44F8C0
:1081100020100099023399420CDD1046009A0CA9F8
:1081200001EB830301EB82011A68821A43F8042BE6
:108130008B42F9D1049B002B1ADD049B012B4FF0DD
:10814000010440F05882009B5A1E0CAB0CA953F856
:108150002230C3F3160341F8223058E28027020090
:10816000ABAAAA2A0000703E000070410000204027
:10817000022D15D132463B460020974914F086FC6B
:1081800006460F46049A9449002000F0C5FF0246B7
:108190000B463046394614F079FC022506460F4658
:1081A000002200233046394615F08CF8002800F0F4
:1081B0005282009A059B501E83420FDC02F18043DD
:1081C000013B0CAA0B9C02EB8303002253F8041919
:1081D000A34242EA0102F9D1002A6FD1059B0CAA01
:1081E000013B52F82330002B40F033820A9A0123DE
:1081F00052F8041901330029FAD0009AD31802F179
:10820000010A9A4507933DDC009B0899099A0B44A3
:1082100007990AEB0208994620AB08F1804803EB66
:10822000C9098B18A39A08F1FF3802EB880870AAD5
:1082300002EBCA0AA39A02EB8303009358F8040FD7
:1082400014F072FD029B002BE9E802011DDB039B89
:108250004D46A3F108040026002775E90223F4E93E
:10826000020114F0C7FD02460B463046394614F0B1
:108270000FFC5C4506460F46EFD1009B9845EAE8A7
:108280000267DBD1079B0093AEE6009B0026002728
:108290009845EAE80267D1D1F4E706D1009B0CAA21
:1082A000013B52F82350ED1514E700224B4B15F01B
:1082B00027F8002840F08281054671E70CA9029555
:1082C00051F820300499CDF81C80183902460090EE
:1082D00004916BB900F18043013B0CA800EB8303D0
:1082E00053F80409013A18390028F9D00092049192
:1082F000049A3949002000F00FFF009B002B044630
:108300000D46C0F20382DA0070A901EB020B049261
:108310000CAA02EB8306DFF8C8900BF108070436BD
:108320004FF0000856F8040D14F0FEFC22462B46D0
:1083300014F060FD4B4667E902014246204629469B
:1083400014F058FD0CAB9E4204460D46EAD10DF5E3
:10835000907ACDF80CA0DDF814A04FF00009BAF126
:10836000000FC0F23D81DFF87C805D4618A1D1E9A5
:10837000000100260027002403E04C4510DCF8E84B
:108380000201F5E8022314F035FD02460B463046A3
:10839000394614F07DFB0134A24506460F46ECDA5F
:1083A000039B03EBC903ABF1080BC3E900676EAB9A
:1083B0005B4509F10109D2D1A29BDDF80CA0032B8A
:1083C00000F28B80DFE813F0D100900090001000E5
:1083D00000000040FB21F93F0000F03F0000E03FBB
:1083E0000000703EA80B0200009B002B40F3A4810C
:1083F000049B0AEB0308D8E90067D34658E9029AC0
:1084000032463B464846514614F042FB04460D4670
:1084100002460B464846514614F038FB32463B466E
:1084200014F036FBC8E9000168E90245C345264659
:108430002F46E3D1009B012BDA4640F37D81049B5C
:108440005B44D3E90067984699460DF5947B59E95A
:1084500002343246184621463B46CDE9000114F06D
:1084600017FB04460D4602460B46DDE9000114F0F9
:108470000DFB32463B4614F00BFBC9E9000169E9EC
:108480000245CB4526462F46E1D1002308F10808D6
:108490001D464CAC1846294678E9022314F0F8FA38
:1084A000444503460D46F5D1029A002A00F020818A
:1084B000DAF80440DAF80C20069FDAF80010DAF84F
:1084C00008003B6105F1004504F1004402F100425F
:1084D0007D617C60FA603960B860079B03F007003B
:1084E0000DF5197DBDE8F08F049C00260834544436
:1084F00033463046194674E9022314F0C9FA54454C
:1085000006460B46F5D1029A30461946002A00F07D
:10851000DA80069803F10044324644600660DAE9E6
:10852000000114F0B3FA0B460099002902460EDD53
:10853000012410461946FAE9022314F0A9FA0B4661
:1085400000990134A1420246F3DA029909B103F11C
:1085500000431946069B1046C3E90201079B03F03E
:1085600007000DF5197DBDE8F08F049C002208344A
:10857000544413461046194674E9022314F088FA4D
:10858000A24502460B46F5D1029909B103F1004319
:108590001946069B1046C3E90001079B03F007003C
:1085A0000DF5197DBDE8F08F00260027EAE9026786
:1085B000DA4509F108097FF4E4AC02E5009B002BE1
:1085C00008F10108C8BF02253FF78CAD32463B4693
:1085D0000020634914F05AFA022506460F46DFE5EB
:1085E00000260027DCE6049B002B26DD0024049BEC
:1085F000012B3FF4A8AD022B09D1009B5A1E0CABF6
:108600000CA953F82230C3F3150341F82230022D90
:108610007FF4C6AD32463B460020514914F036FA8D
:1086200006460F46002C3FF4BBADABE50099013385
:10863000994278D1049B002BD9DC022D7FF4B0AD98
:1086400032463B460020464914F020FA06460F46C3
:10865000A6E50123D1E53946049F02957A423046CA
:10866000CDF81C8000F058FD00223E4B04460D461C
:1086700014F046FE002862D000223B4B20462946DB
:1086800014F0B8FB14F066FE064614F04DFB002211
:10869000344B14F0AFFB02460B462046294614F03B
:1086A000F5F914F057FE00990B4601331A46009372
:1086B0003B46183304930B460CA941F8230013469C
:1086C00041F8236014E6069B3246C3E900010B46DD
:1086D000DAE9000114F0DAF90B46009900290246A4
:1086E0003FF726AF1946069B1046C3E9020135E75E
:1086F00018462946DAE90023DAE90245069FC7E968
:108700000401C7E90023C7E90245E6E6A29B032B63
:108710003FF6E3AEDFE803F0211C1C0E009B012BAB
:1087200088DD0CAA012352F8044F002C3FF47EAFE1
:10873000581CDDE40DF5907A00231D46B4E6294669
:10874000204614F007FE009A0CA941F82200CFE55C
:10875000002633460DF5907AD5E60022134613E73E
:108760000000F03F000070410000703E000000007B
:108770002DE9F04F21F00046B6F1795F85B00C4647
:1087800090469946054604DA14F0E4FD002800F00E
:1087900085802A4623462846214614F02BFB0646B0
:1087A0000F4602460B462846214614F023FB3EA303
:1087B000D3E9002382468B463046394614F01AFB33
:1087C0003BA3D3E9002314F061F932463B4614F091
:1087D00011FB39A3D3E9002314F05AF932463B4682
:1087E00014F008FB36A3D3E9002314F04FF9324606
:1087F0003B4614F0FFFA34A3D3E9002314F048F900
:108800000E9BCDE900019BB30022334B4046494605
:1088100014F0F0FADDE90023CDE902015046594693
:1088200014F0E8FA02460B46DDE9020114F02EF9D5
:1088300032463B4614F0DEFA42464B4614F026F927
:1088400023A3D3E9002306460F465046594614F0A9
:10885000D1FA02460B463046394614F019F9024661
:108860000B462846214614F011F905B0BDE8F08FFB
:1088700002460B463046394614F0BCFA14A3D3E93D
:10888000002314F003F952465B4614F0B3FA2A466B
:10889000234614F0FDF805B0BDE8F08F28462146C8
:1088A00005B0BDE8F08F00BF7CD5CF5A3AD9E53D81
:1088B000EB9C2B8AE6E55A3E7DFEB157E31DC73E91
:1088C000D561C119A0012A3FA6F810111111813FED
:1088D000495555555555C53F0000E03F0000000083
:1088E0002DE9F04FDA4C21F00046A64287B08A46C7
:1088F00089461746984683461ADC14F02BFDA8BB20
:108900005B461E43109B0133334300F0A981109B4B
:10891000012B00F0B9815A4653460020CD4914F08E
:1089200093FB04460D462046294607B0BDE8F08F6C
:10893000C94B9E421ADD0029C0F29F815A46534618
:10894000A5A1D1E9000114F0A1F83A464346044636
:108950000D46A3A1D1E9000114F098F822462B4658
:1089600014F096F8002783468A46B8465A4653467E
:108970005846514614F03EFA03460C46CDE9003401
:1089800002460B4614F036FADDE9002304460D4694
:108990005846514614F02EFA93A3D3E90023CDE9AB
:1089A00002012046294614F025FA91A3D3E90023B9
:1089B00014F06EF822462B4614F01CFA8EA3D3E96D
:1089C000002314F065F822462B4614F013FA8CA30A
:1089D000D3E9002314F05CF822462B4614F00AFA7F
:1089E00089A3D3E9002314F053F822462B4614F050
:1089F00001FA87A3D3E9002314F04AF8DDE9002344
:108A000014F0F8F984A3D3E90023CDE9040120464A
:108A1000294614F0EFF982A3D3E9002314F038F8C3
:108A200022462B4614F0E6F97FA3D3E9002314F085
:108A30002FF822462B4614F0DDF97DA3D3E900235D
:108A400014F026F822462B4614F0D4F97AA3D3E981
:108A5000002314F01DF822462B4614F0CBF978A31E
:108A6000D3E9002314F014F802460B46DDE90401B3
:108A700014F00EF8DDE9022314F0BCF93A4643463F
:108A800014F006F8DDE9002314F0B4F902460B46B1
:108A90003846414613F0FCFF6BA3D3E9002304469C
:108AA0000D46DDE9020114F0A5F922462B4613F02C
:108AB000EFFF0B46024651465846CDE9002313F01E
:108AC000E7FF654B9E4204460D463EDC109B012BA2
:108AD00036D002460B4600205E4914F0B5FA002459
:108AE0000F4606465A4653462046294613F0CEFF07
:108AF000A04602460B46DDE9000113F0C7FF4246DF
:108B00003B4614F077F9A94604460D4642463B46DB
:108B10004046494614F06EF90022504B13F0B8FF5E
:108B200002460B462046294613F0B2FF32463B462A
:108B300014F060F942463B4613F0AAFF04460D4686
:108B40002046294607B0BDE8F08F109814F0ECF8E5
:108B5000224606460F462B462046294614F04AF97F
:108B60003246CDE902013B462046294613F090FFEC
:108B700002460B46DDE9020114F066FADDE9002346
:108B800013F084FF02460B465846514613F07EFF11
:108B900002460B4613F07CFF02460B463046394630
:108BA00013F074FF04464FEAA97000F00200C0F110
:108BB00001000D4614F0B8F802460B46204629463F
:108BC00014F018F904460D462046294607B0BDE8C2
:108BD000F08F00BFAFF30080182D4454FB21E93F14
:108BE000075C143326A6813CD47ABF74702AFB3EFE
:108BF000E9A7F0320FB8123F68108D1AF726303F00
:108C00001583E0FEC8DB573F93846EE9E326823F7D
:108C1000FE41B31BBAA1AB3F735360DBCB75F3BE10
:108C2000A69237A0887E143F0165F2F2D844433FF4
:108C3000280356C9226D6D3F37D60684F464963FEB
:108C40007AFE10111111C13F635555555555D53F49
:108C5000FFFF2F3E0000F0BF2794E53F0000F03FEC
:108C60005846514614F040FE02460B460020084983
:108C700014F0EAF904460D4662E701F1004308F1F9
:108C8000004883469A4659E65C46554658E700BF79
:108C90000000F03F000000002DE9F04FD24A21F023
:108CA0000043934285B00C460E4605462DD9CF4A67
:108CB00093421AD8002E80F21681B5A3D3E900237F
:108CC0002846214613F0E4FE0022002314F004FBA2
:108CD000C0B9B1A3D3E900232846214614F08AF88D
:108CE00002460B460020C24908E1C24A934240F2C4
:108CF000D0800346C1F31302134340F0F6810029EC
:108D000080F2C4800020BC49C0E0BC4A934200F21B
:108D10002981BB4A934240F2DE8000230193002266
:108D2000B84B2846214614F065F806460F46024621
:108D30000B462846214614F05DF899A3D3E9002399
:108D400082468B4614F056F897A3D3E9002313F01C
:108D50009FFE52465B4614F04DF895A3D3E90023DD
:108D600013F094FE52465B4614F044F892A3D3E904
:108D7000002313F08DFE52465B4614F03BF890A39F
:108D8000D3E9002313F082FE52465B4614F032F81A
:108D900000229D4B13F07CFE8046894602460B461E
:108DA0003046394614F026F802460B460020974913
:108DB00013F06CFE064602460B460F4640464946F7
:108DC00013F064FE3246804689463B4628462146DB
:108DD00014F010F802460B4600208D4913F056FEA1
:108DE00002460B464046494614F02EF952465B4671
:108DF00014F000F8019E02460B46002E38D0DDE943
:108E0000026732463B4613F041FE2A46234613F0E2
:108E1000F1FF32463B4613F039FE5B46524613F0F3
:108E200035FE019B013306460F4600F00F81019B82
:108E3000012B00F0F180019B0133392B39D8019BC4
:108E4000132B40F31281019FC7F57F760336002272
:108E5000330513F01DFE02460B462846214613F04B
:108E600015FE0022684B13F013FE01EB07510DE0D5
:108E70002846214613F0BEFF52465B4613F006FE1D
:108E800002460B462846214613F000FE05B0BDE819
:108E9000F08F4DA3D3E9002314F03CFA00283FF4EF
:108EA00009AF4BA3D3E900231046194613F0A2FFE4
:108EB000ECE72A46234613F0E9FD02460B46002064
:108EC000514913F0E3FD019A4F4B01EB025100228F
:108ED00013F0DCFDDAE73EA3D3E9002313F0D8FD5D
:108EE00002460B46CAE72CA3D3E9002328462146B5
:108EF00013F080FF0B4643490246002013F0C8FDE3
:108F000014F028FA019013F00FFF33A3D3E90023E4
:108F100006460F4613F06EFF02460B4628462146D2
:108F200013F0B4FD2EA3D3E90023804689463046D2
:108F3000394613F05FFF06460F4632463B46404631
:108F4000494613F0A3FD02460B4605460C46404633
:108F5000494613F09BFD32463B4613F097FDCDE9A1
:108F60000201DCE62B4A934200F2978000291AA303
:108F7000D3E90023C0F2AE8013F088FD01238046C0
:108F80008946019316A7D7E90067D6E7AFF30080BB
:108F900059F3F8C21F6EA501FE822B654715F73FF6
:108FA0002DC3096EB7FD8ABE3952E686CACFD03EC0
:108FB000B7DBAA9E19CE143F8555FE19A0015A3F72
:108FC000F41011111111A13FEF39FAFE422E864023
:108FD0009C7500883CE4377E0000E0FE422EE63FB0
:108FE000763C7935EF39EA3D79684340412E864039
:108FF0000000E0BFFFFFEF7F0000F0BF422ED63F32
:10900000FFFF8F3C0000E03F0000F03F0000084001
:1090100000001840B1A2F03F2846214600223A4BFA
:1090200014F05AF9002846D0284621460022374B32
:1090300013F02EFD02460B463046394613F026FD4E
:1090400000224FF0404313F0D5FE1FE732463B4667
:109050002846214613F01AFD00222C4B13F0CAFEBD
:1090600000222A4B13F012FD10E7019E4FF4001E60
:109070004EFA06FE2A462346CEF17F5713F006FD30
:10908000002607F5401702460B463046394613F0D6
:10909000FDFC019E01EB0651F8E617A3D3E900237E
:1090A00013F0A8FE002C02460B464FF00000FFF61E
:1090B0001AAE164922E732463B462846214613F0AF
:1090C000E5FC02460B4613F0E3FC0022104B13F0C4
:1090D000DFFCDBE613F0DCFC4FF0FF338046894613
:1090E000019307A7D7E9006727E702460B4613F06D
:1090F000CFFCCBE6AFF30080FE822B654715F73F30
:10910000763C7935EF39EABD0000D0BF0000E03F82
:109110000000F03F00000000F8B5C1F30A56044615
:109120000D460B4617460EBB21F00043034386460F
:1091300025D00022344B13F05DFE344A974204469A
:109140000D460B462ADBC1F30A56363E3E4440F23A
:10915000FE72964228DC002E12DD23F0FF4323F43A
:10916000E00343EA065520462946F8BD40F2FF7267
:109170009642EBD102460B4613F08AFCF8BDF8BDCF
:1091800016F1350F1DDA4CF250339F4222462B4622
:1091900025DC19A1D1E9000116F03CFC16A3D3E9A6
:1091A000002313F027FEF8BD22462B4614A1D1E977
:1091B000000116F02FFC12A3D3E9002313F01AFECE
:1091C000F8BD23F0FF4323F4E003363643EA0655A7
:1091D0002046294600220E4B13F00CFEF8BD08A1D4
:1091E000D1E9000116F016FC05A3D3E9002313F022
:1091F00001FEF8BDAFF3008059F3F8C21F6EA50160
:109200009C7500883CE4377E00005043B03CFFFF73
:109210000000903C10B5054C237833B9044B13B1D2
:109220000448AFF300800123237010BD30020020FA
:1092300000000000082902000C4B43B10C480D4906
:1092400010B5AFF300800C48036823B910BD0A487D
:10925000036833B97047094B002BF7D0BDE81040C5
:109260001847064B002BF5D0184700BF0000000040
:109270000829020034020020082902000000000032
:1092800070B504460E4600F0D1F888B10368DB6A79
:1092900005469847082C0CD0A4F10903012B14D9DA
:1092A0003246214610230D20BDE8704004F09EB8E0
:1092B00070BD2B6828465B6A98470228F0DC2B6853
:1092C00028461B6A04219847EAE72B6828465B6A10
:1092D00098470528E4DC2B6828461B6A0821984734
:1092E000DEE700BF30B52DED028B83B0054600F000
:1092F0009DF8044640B10368DB6A9847032D50D8B7
:10930000DFE805F0373F47080190019803B0BDEC56
:10931000028B30BD20460CF08BF907EE900A2046F8
:10932000F8EEE78A0CF094F907EE900A2046B8EEC2
:10933000E78A0CF09DF968EE087A07EE100AE8EE6D
:10934000A87AB8EEC77AE7EE077AF5EE407AF1EE42
:1093500010FAB1EEE78A03D517EE900A15F07AF904
:10936000FDEEC87ACDED017A019803B0BDEC028B19
:1093700030BD204603B0BDEC028BBDE830400CF0A0
:1093800057B9204603B0BDEC028BBDE830400CF06D
:109390005FB9204603B0BDEC028BBDE830400CF055
:1093A00067B900230193B0E738B5054600F03EF8F1
:1093B00058B10368DB6A0446984745B1012D04D1D2
:1093C0002046BDE83840FBF77BB9002038BD204679
:1093D000BDE83840FBF754B910B5044600F026F854
:1093E00028B1036821461B6ABDE81040184710BD2C
:1093F0000048704716FCFFFF704700BF10B5034BD5
:10940000036004460BF0F4FE204610BD881B0200EA
:1094100010B5054B036004460BF0EAFE204616F03B
:1094200095FF204610BD00BF881B02002DE9F043C8
:10943000BA4C236885B01BB1986805B0BDE8F083CD
:109440004FF0FF31012001F0F5FC04F0C9FD0028C8
:1094500000F0E5800C2016F07BFF0321064651202A
:1094600001F0E8FCDFF8E4E2AD4B054605F00F073C
:10947000C5F3031815F4807518BF7346A94839461B
:1094800042460BF0ABF82A1C18BF0122394643466E
:1094900030460EF031FE0023A348B3600BF09EF877
:1094A0004FF0FF31032001F0C5FC04F099FD4FF0AF
:1094B000FF310546022001F0BDFC04F091FD002DB6
:1094C00000F09680002800F093800146284604F0C2
:1094D00099FB0746002800F09E804FF0FF314620A0
:1094E00001F0A8FC322880462AD027DD382866D033
:1094F00068283DD14FF0FF31012001F09BFC04F0C2
:109500006FFD81464C2016F023FF0523054601938D
:109510004A46CDF80080394633460DF0BDFD284659
:10952000B06003689B6A9847B0680368DB6A984735
:109530007E480BF053F82660B0687EE7302817D1DC
:109540004FF0FF31012001F075FC04F049FD814628
:109550004C2016F0FDFE1FFA88F1054605234A4609
:1095600000910193394633460DF078FB2846D7E742
:109570003A680125002301950095D2F82080B36058
:109580000F220DF10F0332213846C047002851D178
:109590004FF03208414666480BF020F84FF0FF319B
:1095A000012001F047FC04F01BFD81464C2016F021
:1095B000CFFE052305464A46CDF80080D1E74FF09F
:1095C000FF31012001F036FC04F00AFD8146442001
:1095D00016F0BEFE052305464A46CDF80080394602
:1095E000019333460DF0B0FC524B2B60284697E7B1
:1095F00051480AF0F3FF4FF0FF31192001F01AFC37
:1096000004F0EEFC4FF0FF310546182001F012FC8B
:1096100004F0E6FC59E749480AF0E0FF8BE74FF019
:10962000FF31032001F006FC04F0DAFC00287FF48F
:1096300011AF02E73B6801950095D3F820800F2217
:109640000DF10F0330213846C04718B94FF03008EC
:109650004146A0E73B6801950095D3F820800D2294
:109660000DF10F0338213846C047B8B938213048CA
:109670000AF0B4FF4FF0FF31284601F0DBFB04F0A5
:10968000AFFC8046442016F063FE4FF0050E3823F1
:109690000546424639468DE80840A2E73A680195FA
:1096A0000095D2F820800DF10F037522682138460D
:1096B000C047D8B968211E480AF090FF4FF0FF312B
:1096C000284601F0B7FB04F08BFC80464C2016F0D6
:1096D0003FFE4FF0050E682305468DE808404246E0
:1096E000394633460DF0D8FC284619E714480AF0ED
:1096F00075FFB06800287FF414AF4FF0FF310320EE
:1097000001F098FB04F06CFC18B10E480AF066FFFB
:1097100011E70D480AF062FF0DE700BF4C02002080
:10972000340C02003C0C02005C0C0200F40C020041
:10973000180D0200F80B02006C0C0200800C0200F5
:10974000040D0200980C0200D40C02002C0C020044
:1097500008B501F097FCFBF73FFEBDE8084001F0BB
:10976000FDB900BF08B501F08DFCFBF7A5FEBDE813
:10977000084001F0F3B900BF08B501F083FC14F014
:1097800029F9BDE8084001F0E9B900BF08B501F0CA
:1097900079FC14F09BFEBDE8084001F0DFB900BF82
:1097A00008B501F06FFCFBF727FEBDE8084001F0AB
:1097B000D5B900BF08B501F065FC14F03DFBBDE86C
:1097C000084001F0CBB900BF08B501F05BFCFBF726
:1097D00063F8BDE8084001F0C1B900BF08B501F069
:1097E00051FC14F07DFABDE8084001F0B7B900BFA4
:1097F00070B5049E96420C4628DB15466BB1002AD4
:1098000000EB020107DD2046A21811F8013D00F827
:10981000013B9042F9D1002070BD042A0FD0022AEA
:1098200002D110F0010306D001462A46204607F077
:1098300093F8002070BD02880A80184670BD10F0B1
:109840000303F1D102680A60184670BD0846002182
:1098500008F072FA4FF0FF3070BD00BF083070475B
:1098600040B1002905DB4368994202DA0844007AD6
:1098700070470020704700BF30B1002904DB436807
:109880009942BCBF40180272704700BF40B1002926
:1098900005DB4368994202DA0844007A70470020E9
:1098A000704700BF830705D120B1030F0CBF012013
:1098B000002070470120704730B1002904DB436865
:1098C0009942BCBF40180272704700BF002B23DBD7
:1098D000002921DB70B54668B1421ADC5568761A5A
:1098E0001446EA1AB242A8BF3246002A11DB84426B
:1098F0000D4607D0083408300844E11807F02CF86A
:10990000002070BD0834E118601916F05BFD0020DE
:1099100070BD4FF0FF3070BD4FF0FF30704700BF9B
:109920004068704710B4141E10DB426894420DDC8E
:1099300033EA230328BF1346121B08309A422044FF
:10994000A8BF1A465DF8044B08F0F6B95DF8044B61
:10995000704700BF43688B4210B400F108041846FA
:10996000A8BF084632EA220128BF19461B1A9942AD
:109970002044A8BF19465DF8044B00F0F3BE00BFB9
:10998000002BBCBF43689B1A002A70B50E4620DB33
:1099900044689918A1421CDC8A421ADCCBB136F02B
:1099A000004116D059428E4214DDB34212DD083018
:1099B000002E00EB020515DB9C1B2246A919284648
:1099C00016F000FD324628190021BDE8704008F06D
:1099D000B3B970BD002211464FF0FF33BDE87040AF
:1099E000FFF7A0BF74429A192946281916F0EAFC1D
:1099F000224628460021BDE8704008F09DB900BF0E
:109A000003460830596800F02DBE00BF70B504460B
:109A100000206168490000F0A7FD6668002E11DD96
:109A2000094D04F1080100EB4606034611F8012B2D
:109A3000141102F00F022C5DAA5C9C71DA710233E2
:109A40009E42F3D170BD00BF2C0D0200002BBCBFA5
:109A500043689B1A002A2FDB70B445689C18AC42FF
:109A600029DCA24227DC33B331F0004423D00029A3
:109A7000B8BF01EB032191FBF3F603FB1616002E92
:109A800000F10800B8BFF61802441644B24213446D
:109A900011D0304604E0B24208460ED090420AD0BF
:109AA0000146147811F8015B02F8015B8B420470E7
:109AB000F1D13046F2E770BC70470E46EEE700BFCA
:109AC00000B583B04FF0FF3300930023FFF7FEFE95
:109AD00003B05DF804FB00BF10B50C1E0EDD41683D
