:020000040801F1
:1000000000800120C54E0208ED740208459A0108DF
:1000100051F9020851F9020851F9020800000000E4
:10002000000000000000000000000000F174020861
:10003000F574020800000000F9740208FD7402085B
:1000400051F9020851F9020851F9020851F9020860
:1000500051F9020851F90208316B0208356B0208A8
:10006000396B02083D6B0208416B020811720208ED
:1000700021720208317202084172020851720208AC
:10008000617202087172020851F9020851F90208FE
:1000900051F9020851F9020851F90208456B0208AA
:1000A00051F9020851F9020851F9020851F9020800
:1000B000FD550208055602080D56020851F90208BE
:1000C00051F9020851F9020851F902082D7002088D
:1000D0003970020851F9020851F9020851F9020871
:1000E000496B020851F9020851F9020851F9020856
:1000F00051F9020851F9020851F902088172020807
:1001000051F9020851F90208155602084570020813
:1001100051F9020851F9020851F9020851F902088F
:1001200091720208A1720208B1720208C17202083B
:10013000D172020851F9020851F9020851F9020876
:1001400051F9020851F9020851F902084158020810
:10015000E1720208F17202080173020851F9020803
:1001600051F9020851F9020851F9020851F902083F
:1001700051F9020851F9020851F902080000000083
:1001800051F9020851F9020851F9020851F902081F
:100190005170020851F9020851F9020851F9020898
:1001A00051F9020851F9020851F9020851F90208FF
:1001B00051F90208000000002DE9F04F85B00391CD
:1001C0000778A7F10903042B044607F07F0200F12A
:1001D0000100F5D9202AF3D02B2F04BF67780446FD
:1001E0002D2F72D09FED427B8DED007B4FF00008EC
:1001F0004FF000098FB34FF0000E4FF0000ADFF808
:1002000000B1754619E01CF063F980468946304616
:100210001CF0F8F842464B461BF0A8FF52468046B9
:1002200089465B46DDE9000135B31CF07BFACDE978
:100230000001AE4614F8017F7FB1A7F13006092E08
:1002400052465B4640464946DDD9C5B92E2F16D1E8
:1002500014F8017F0125002FEFD142464B46DDE91E
:1002600000011CF035F980468946039B404649460B
:100270001C6005B0BDE8F08F4FF0010EDAE7BEF16B
:10028000000F29D042464B46DDE900011CF020F961
:1002900007F0DF07452F80468946E6D10399601CA9
:1002A0000A221EF085FF1649024600201CF070FC51
:1002B00002460B46404649461CF00AF980468946EC
:1002C0004046494605B0BDE8F08F9FED0B7B67784F
:1002D0008DED007B013489E7DFF828904FF00008AE
:1002E0004046494605B0BDE8F08F00BFAFF300803F
:1002F000000000000000F03F000000000000F0BF20
:10030000000024400000F87F2DE9F84F1646002336
:10031000002204460D461CF04DFB002840F09D8055
:1003200000220023204629461CF03AFB28B1302247
:10033000002332707370BDE8F88F204629461DF007
:1003400037FA1CF075FB7BA3D3E9002381462946CD
:1003500020461CF02FFB002800F08680B9F1000F2A
:10036000C0F2BE804A4600206F491CF011FC0246D4
:100370000B46204629461CF0D5F904460D4666A1D9
:10038000D1E9000101274FF0000822462B461CF05E
:100390009FF80022654B1BF0E9FE1CF035FC002F96
:1003A000CC464FF0FF3AC1464FF0000840F385803D
:1003B000DFF888E15E4C0122AEF1700945F6F325C5
:1003C0004FF02E0BA94208BFA0424FF0300309D3D3
:1003D000001B61EB0501A94208BFA04203F1010324
:1003E000F6D2DBB2337050EA010306F1010409D101
:1003F000BA4210DACE4502F101020CD026467EE860
:100400000245DFE7BA4204BF86F801B0B41CCE450E
:1004100002F10102F2D1B8F1000F0DD022463021D5
:1004200002F8011BC2F1010353442344002BF7DC03
:100430002AEAEA7301331C44BCF1010F4CD0652356
:10044000BCF1000F2370C5BF2B236370611CA11C7E
:100450006046BDE8F84F10F03DB805F100431D4679
:100460002D23337001365BE72DA3D3E9002320460B
:1004700029461CF0BDFA00287FF470AFB9F10E0FC9
:1004800009F101073DDDA9F10E0842460020264989
:100490001CF07EFB02460B46204629461CF042F922
:1004A0000022224B1BF062FE1CF0AEFB002FA9F1D4
:1004B0000F0A4FF0010C3FF77BAF334630222E245A
:1004C00003F8022B74707FEA090618D01E4403F863
:1004D000012BB342FBD16BE700232370BDE8F88FFB
:1004E000C9F10002002010491CF052FB02460B46E5
:1004F000204629461BF0ECFF04460D463FE71E460A
:1005000056E7C9F10E0200200749C8461CF040FB1F
:100510004FF0010939E700BF0000901EC4BCD6426D
:1005200050EFE2D6E41A4B44000024400000E03FC4
:1005300000407A108DEDB5A0F7C6B03E5801030813
:1005400070B54FF0FF3006F085F804466FF07F403D
:1005500006F080F8064620461BF044FF00220C4BB4
:100560001BF0B6FF044630460D461BF03BFF06A3CA
:10057000D3E900231CF0D6F802460B462046294654
:100580001BF0F4FD70BD00BF0000E0DFFFFF6F4314
:100590000000F03D000000002DE9F04F2DED028B32
:1005A000044683B0C0681BF02DFF80462069894651
:1005B0001BF028FF824660698B461BF023FF024632
:1005C00001F1004306460F46404649461CF0A0FF95
:1005D0001CF076FAE06205461CF05EFE01902846AB
:1005E0001CF01EFE019B054618461BF01DFF4246EF
:1005F0004B461BF06DFF8046284689461BF014FFD2
:1006000032463B461BF064FF02460B4640464946D5
:100610001BF0AAFD02460B46504659461CF078FFD7
:100620001CF04EFA002208EE100A0023304639462C
:100630001CF0DEF928B3B5EEC08AF1EE10FA1CDD2D
:1006400011A7D7E9006718EE100A1BF0EDFE02466D
:100650000B46304639461BF087FD32463B461BF0C1
:1006600085FD1CF02DFAA062E38843F00203E380CD
:1006700003B0BDEC028BBDE8F08F05A7D7E900679A
:10068000E1E784ED0A8AEFE7EA2E4454FB21F93FC3
:10069000EA2E4454FB21F9BF08B511F079F9DFEDDA
:1006A0000C7A07EE100A67EE277A17EE900A1BF015
:1006B000BBFE05A3D3E900231CF034F81CF0B8F905
:1006C00008BD00BFAFF30080EA2E4454FB2119405F
:1006D0000000B4430000000008B511F06DF9DFED33
:1006E0000C7A07EE100A67EE277A17EE900A1BF0D5
:1006F0009BFE05A3D3E900231CF014F81CF098F925
:1007000008BD00BFAFF30080EA2E4454FB2119401E
:100710000000B443000000004F4A21F00043934220
:100720002DE970430D4604464FDC4C4A93420E4679
:100730000FDC45A3D3E900231BF018FD0022484B32
:100740001CF056F9002856D02B4620461946BDE825
:100750007083444A934242DCB3F1804F4BDD1CF07E
:1007600031FC2246804689462B46204629461BF00E
:10077000AFFE00223A4B1BF0F9FC1DF041FC024693
:100780000B46404649461BF0F1FC02460B46002052
:1007900033491BF0C7FF424604460D464B464046D0
:1007A00049461BF0E3FC0B460246294620461BF057
:1007B000DDFC01F0FDFE04460B46002E0BDC03F1D0
:1007C000004320461946BDE870830B4602461BF0E5
:1007D000CDFC04460B4620461946BDE870831CF04C
:1007E000F1FB01F0E5FE1AA3D3E900231BF0BEFCE8
:1007F00004460B46E1E722462B46204629461BF0DD
:1008000067FE80468946204629461CF0DBFB002215
:100810000446134B0D46404649461BF0A7FC1DF00D
:10082000EFFB00220E4B1BF0A1FC02460B4640469C
:1008300049461BF077FF22462B461BF097FC00F041
:10084000D3FA04460B46B8E79C7500883CE4377E33
:10085000EF39FAFE422EE63FFFFFEF7FFFFF2F3E0C
:100860000000F03F0000B0412DE9F84FC24B21F0ED
:1008700000469E420D468A46044610DDBF4B9E420E
:1008800000F3B58000F0B080BD4BBE49BE4CBAF15C
:10089000000FD8BF0B4620461946BDE8F88FBB4B6A
:1008A0009E4200F3C180A3F1DE739E4240F3AB8011
:1008B0004FF0FF3B22462B46204629461BF008FE00
:1008C00002460B46804689461BF002FE92A3D3E9FE
:1008D000002306460F461BF0FBFD91A3D3E900233E
:1008E0001BF044FC32463B461BF0F2FD8EA3D3E9DD
:1008F00000231BF03BFC32463B461BF0E9FD8CA37A
:10090000D3E900231BF032FC32463B461BF0E0FDEE
:1009100089A3D3E900231BF029FC32463B461BF098
:10092000D7FD87A3D3E900231BF020FC42464B46AA
:100930001BF0CEFD84A3D3E90023804689463046D0
:1009400039461BF0C5FD82A3D3E900231BF00CFC44
:1009500032463B461BF0BCFD7FA3D3E900231BF0CE
:1009600003FC32463B461BF0B3FD7DA3D3E90023D5
:100970001BF0FAFB32463B461BF0AAFD7AA3D3E9F3
:1009800000231BF0F1FB32463B461BF0A1FDBBF1FF
:10099000FF3F02460B466ED0404649461BF0E6FB41
:1009A00022462B461BF094FD794E7A4B4FEACB0B37
:1009B0005E449B44DBE900231BF0D6FB22462B461A
:1009C0001BF0D2FB0B460246D6E900011BF0CCFB24
:1009D000BAF1000F04460B46BFF65DAF01F10043CC
:1009E00020461946BDE8F88F00283FF44DAF224657
:1009F0002B46204629461BF0B9FB04460B462046F1
:100A00001946BDE8F88F5AA3D3E900231BF0AEFBCB
:100A10000022614B1BF0ECFF00283FF449AF2B464E
:100A200020461946BDE8F88F1CF0CCFA5B4B9E427D
:100A300004460D4630DCA3F550239E4255DC0246A9
:100A40000B461BF093FB0022534B1BF08DFB002247
:100A500006460F464FF08043204629461BF086FB92
:100A600002460B46304639461BF05CFE4FF0000B49
:100A700004460D461EE7404649461BF077FB2246DA
:100A80002B461BF025FD0B460246294620461BF04F
:100A90006BFB04460B46FEE6414B9E421ADC0022ED
:100AA000404B1BF061FB002206460F463D4B2046A3
:100AB00029461BF00DFD0022374B1BF057FB024669
:100AC0000B46304639461BF02DFE4FF0020B044614
:100AD0000D46EFE602460B46002033491BF022FE8E
:100AE0004FF0030B04460D46E4E600222A4B1BF0B0
:100AF0003BFB002206460F46274B204629461BF0AB
:100B000035FB02460B46304639461BF00BFE4FF0D4
:100B1000010B04460D46CDE611DA22E33AAD903FD3
:100B2000EB0D76244B7BA93F513DD0A0660DB13F24
:100B30006E204CC5CD45B73FFF8300922449C23F8C
:100B40000D5555555555D53F2F6C6A2C44B4A2BF51
:100B50009AFDDE522DDEAD3F6D9A74AFF2B0B33F19
:100B6000711623FEC671BC3FC4EB98999999C93F91
:100B70009C7500883CE4377EFFFF0F440000F07F47
:100B8000FB21F93FFB21F9BF182D4454FFFFDB3F48
:100B900068010308880103080000F03FFFFFF23FEF
:100BA000FF7F03400000F83F0000F0BF000000009E
:100BB0002DE9F047C1F30A59A9F2FF36132E0B466F
:100BC0000D46044607468846824622DC002E4FDB4F
:100BD0003D4A42FA06F901EA090202431ED038A34F
:100BE000D3E900231BF0C2FA002200231BF000FF10
:100BF00050B1002D04DD4FF4801343FA06F6B044E3
:100C000028EA09054FF0000A544629462046BDE867
:100C1000F087332E06DDB6F5806F3DD019462046AD
:100C2000BDE8F087A9F213494FF0FF3222FA09F923
:100C300010EA090FF2D022A3D3E900231BF096FAA1
:100C4000002200231BF0D4FE0028DDD0002D09DD9A
:100C5000142E2FD00123C6F1340603FA06F63719F5
:100C600028BF9844454627EA090A54462946CDE755
:100C700013A3D3E900231BF079FA002200231BF011
:100C8000B7FE0028C0D0002D0FDB55EA040709D0BD
:100C90004FF0000A0D4DB7E702460B461BF066FA0F
:100CA0000446BCE7BA463D46AEE74FF0000A4FF0B7
:100CB0000045A9E705F10108D4E700BFAFF30080C4
:100CC0009C7500883CE4377EFFFF0F000000F03F7A
:100CD000C1F30A522DE9F843A2F2FF36132E0B4658
:100CE0000D460446884607461DDC002E40DB3C4A84
:100CF00042FA06F901EA09020243864618D036A3F1
:100D0000D3E900231BF032FA002200231BF070FE0F
:100D100020B1002D42DB28EA090500273C46294680
:100D20002046BDE8F883332E06DDB6F5806F2FD060
:100D300019462046BDE8F883A2F213424FF0FF396E
:100D400029FA02F910EA090FF2D023A3D3E900230C
:100D50001BF00CFA002200231BF04AFE0028DDD015
:100D6000002D21DB454627EA09073C462946D7E7FF
:100D700019A3D3E900231BF0F9F9002200231BF08B
:100D800037FE0028CAD0002D19DB00273D46C5E7F5
:100D900002460B461BF0EAF90446CAE74FF48013FB
:100DA00043FA06F6B044B6E7142E10D00123C6F17C
:100DB000340603FA06F6371928BF9844D2E725F01F
:100DC0000042084B224318BF1D460027A6E705F145
:100DD0000108C7E7AFF300809C7500883CE4377ECC
:100DE000FFFF0F000000F0BF2DE9F04FD64B9942F6
:100DF00089B00E460F46824613DCD44B21F00044E6
:100E00009C4218DD0022D24B1BF0CAFD002879D08D
:100E1000002200230020CF491BF084FC09B0BDE86C
:100E2000F08FCD4B99422FDD524633461BF09EF991
:100E300009B0BDE8F08FC94B9C4270DDC84B1F4420
:100E40009F427ED8504631460022C64B1BF08EF999
:100E50004FEA215BABF2FF3BBBF1000F04460D46AE
:100E60000F4640F3E081524633461BF07DF90246BF
:100E70000B460020BB491BF077F922462B461BF09E
:100E800051FCCDE900010BE0B74B9F42DADD0022B7
:100E90000023CDE900234FEA275B5446ABF2FF3B2A
:100EA000B24BC7F313079F4247F07F5500F3E7802B
:100EB00045F44015204629460022AA4B1BF054F960
:100EC000002204460D46AA4B1BF002FB22462B468D
:100ED0001BF0FEFAA246CDE902012E468046894665
:100EE000002F3AD100220023204629461BF058FD4E
:100EF000002800F0CE80BBF1000F40F0768100208A
:100F0000014695E752463346504631461BF02CF9D0
:100F100002460B461BF006FC09B0BDE8F08F00222C
:100F2000944B1BF023F9002200231BF061FD0028E5
:100F300000F0CC80904B9C4200F3C8805046314674
:100F400076E700228A4B1BF0C3FA524633461BF069
:100F5000BFFA4FF0000B8046894600224FF08043D5
:100F6000504631461BF002F902460B4650463146C8
:100F70001BF0D8FB02460B46CDE902231BF0A8FA72
:100F80005DA3D3E9002304460D461BF0A1FA5CA340
:100F9000D3E900231BF0EAF822462B461BF098FA0F
:100FA00059A3D3E900231BF0E1F822462B461BF09E
:100FB0008FFA57A3D3E900231BF0D8F822462B461B
:100FC0001BF086FA54A3D3E900231BF0CFF8224686
:100FD0002B461BF07DFA52A3D3E900231BF0C6F881
:100FE00022462B461BF074FA4FA3D3E900231BF0D3
:100FF000BDF822462B461BF06BFA04460D46BBF1AA
:10100000000F00F0BB8058461BF0FCF948A3D3E961
:101010000023CDE904011BF05BFA4246CDE906014D
:101020004B46204629461BF0A1F8DDE902231BF0C0
:101030004FFA41A3D3E9002304460D46DDE904013C
:101040001BF046FADDE900231BF090F802460B4640
:10105000204629461BF08AF802460B464046494680
:101060001BF082F8524633461BF07EF802460B46D0
:10107000DDE906011BF078F809B0BDE8F08F45F412
:101080000015C7F5801720462946BF100BF1010B4C
:1010900012E72BA3D3E90023204629461BF018FAB8
:1010A00002460B4600202F491BF05EF8DDE90223C3
:1010B0001BF00EFA06460F46BBF1000F6DD102463B
:1010C0000B46204629461BF04FF8B1E65246334600
:1010D000504631461BF0FCF90022254B1BF0F8F975
:1010E00002460B46504631461BF03EF809B0BDE8BB
:1010F000F08F00BFAFF3008044523EDF12F1C23FD9
:101100009FC678D0099AC33FDE03CB966446C73F9B
:10111000AF788E1DC571CC3F599322942449D23F9C
:1011200004FA97999999D93F935555555555E53FE7
:101130000000E0FE422EE63F763C7935EF39EA3D8D
:10114000555555555555E53F7982DA3FFFFFEF3F3D
:101150000000F0BF000050C3FFFFEF7FFFFF1F3E06
:101160003C412D400000F03FFFFF3F439DA00600A3
:101170000000E03F00005043FFFF8F3C42464B46DB
:101180001AF0F4FFDDE902231BF0A2F902460B4638
:10119000404649461AF0E8FFA2E758461BF032F9EC
:1011A00027A3D3E9002382468B461BF091F926A39F
:1011B000D3E9002380468946504659461BF088F9FA
:1011C000DDE900231AF0D2FF02460B4630463946CD
:1011D0001AF0CAFF22462B461AF0C6FF02460B46FB
:1011E000404649461AF0C0FF22E658461BF00AF96D
:1011F00015A3D3E9002306460F461BF069F9DDE984
:1012000000231AF0B3FF0EA3D3E9002304460D46D2
:10121000304639461BF05CF902460B46204629460B
:101220001AF0A4FF04E60022094B1AF09DFF0246C3
:101230000B46504631461AF097FF1EE6AFF300808A
:101240000000E0FE422EE63F763C7935EF39EA3D7C
:101250000000F03F0000000008B51CF02DFA04A3C8
:10126000D3E900231BF05EFA08BD00BFAFF3008096
:10127000EF39FAFE422EE63F2DE9F043DFF8B48065
:101280008BB004460D4600F06BFF98F90030013337
:1012900006460F462BD022462B46204629461BF0F9
:1012A000B1FB814618BB204629461BF08BFE1CA3D0
:1012B000D3E900231BF09CFBC8B11B4A98F900300E
:1012C000CDF820900321CDE90445CDE902458DE814
:1012D00006008BB9154B4FF06042CDE906236846F6
:1012E0001DF0D2FD70B1089B9BB9DDE90667304661
:1012F00039460BB0BDE8F0830D490020022BCDE943
:101300000601ECD11DF010FF22230360089B002B87
:10131000EBD01DF009FF089B0360E6E7AFF3008008
:101320007DF8B98FCE338640381D0308FFFFEF47A5
:101330000000F07F9A0300202DE9F043DFF8E480FD
:101340008BB004460D4600F0BBFF98F90030013326
:1013500006460F4633D0204629461DF08FFD70B358
:1013600029A3D3E90023204629461BF041FB8146EF
:1013700050BB27A3D3E90023204629461BF01AFBC4
:10138000E8B198F90030244ACDF8209004260020D6
:101390000021022BCDE90445CDE9024500960192DA
:1013A000CDE9060129D068461DF06EFD28B3089BE3
:1013B0001BB11DF0B9FE089B0360DDE906673046EE
:1013C00039460BB0BDE8F083134A98F9003001921A
:1013D00003210022CDE90445CDE9024500910892A0
:1013E0002BB90E4B4FF06042CDE90623DBE70C49E9
:1013F0000020022BCDE90601D5D11DF095FE222358
:101400000360D4E7AFF30080EF39FAFE422E864046
:1014100051302DD5104987C0401D0308FFFFEF470D
:101420000000F07F9A0300202DE9F84FC44E21F010
:101430000043B3420C4605460DDD03F1404303F57E
:101440008013034340F0B980002940F3408100201D
:101450000021BDE8F88FBB4EB34240F3A6800029BF
:10146000C0F2788102460B460020B7491AF07CFE94
:101470000022B64B1BF02CF804460D461CF0C0FDB4
:1014800095A3D3E9002389468046294620461BF0D0
:101490001FF893A3D3E900231AF068FE22462B46D7
:1014A0001BF016F890A3D3E900231AF05DFE224644
:1014B0002B461BF00DF88EA3D3E900231AF056FE3D
:1014C00022462B461BF004F88BA3D3E900231AF025
:1014D0004BFE22462B461AF0FBFF89A3D3E90023DB
:1014E0001AF044FE22462B461AF0F2FF86A3D3E9F7
:1014F000002382468B46204629461AF0E9FF84A342
:10150000D3E900231AF030FE22462B461AF0E0FF02
:1015100081A3D3E900231AF029FE22462B461AF0B4
:10152000D7FF7FA3D3E900231AF01EFE22462B46E5
:101530001AF0CEFF0022844B1AF018FE02460B462A
:10154000504659461BF0EEF842464B461AF0C0FF93
:10155000002682468B4632464B46304649461AF0B4
:10156000B7FF02460B46204629461AF0FDFD3246DB
:1015700004460D464B46404649461AF0F7FD0246E2
:101580000B46204629461BF0CDF802460B46504636
:1015900059461AF0EBFD32464B461AF0E7FD02467B
:1015A0000B461AF0E3FDBDE8F88F694A93420EDC62
:1015B0005DA1D1E90001BDE8F88F02460B461AF0A3
:1015C000D3FD02460B461BF0ADF8BDE8F88F02468E
:1015D0000B461AF07DFF40A3D3E9002306460F46D1
:1015E0001AF076FF3EA3D3E900231AF0BFFD32467E
:1015F0003B461AF06DFF3CA3D3E900231AF0B4FD7B
:1016000032463B461AF064FF39A3D3E900231AF0AF
:10161000ADFD32463B461AF05BFF37A3D3E900230A
:101620001AF0A2FD32463B461AF052FF34A3D3E92A
:1016300000231AF09BFD32463B461AF049FF32A3C5
:10164000D3E9002380468946304639461AF040FFE8
:101650002FA3D3E900231AF087FD32463B461AF048
:1016600037FF2DA3D3E900231AF080FD32463B4615
:101670001AF02EFF2AA3D3E900231AF075FD324693
:101680003B461AF025FF00222F4B1AF06FFD024651
:101690000B46404649461BF045F82A4623461AF0B9
:1016A00017FF02460B4622A1D1E900011AF05CFDAA
:1016B00002460B46284621461AF056FD02460B46C6
:1016C00019A1D1E900011AF04FFDBDE8F88F1AA168
:1016D000D1E90001BDE8F88F09F7FD0DE13D023FBA
:1016E00088B20175E0EF493F3B8F68B52882A43F7F
:1016F0005544880E55C1C93F7D6FEB0312D6D43FC8
:10170000555555555555C53F82922EB1C5B8B33F75
:1017100059018D1B6C06E63FC88A599CE52A00409A
:101720004B2D8A1C273A0340182D4454FB21F93FC6
:10173000075C143326A6913C182D4454FB21094024
:10174000FFFFEF3FFFFFDF3F0000F03F0000E03F03
:101750000000603C00225C4B1AF008FD00225B4B4D
:101760001AF0B6FE40A3D3E9002304460D461AF052
:10177000AFFE3FA3D3E900231AF0F8FC22462B4624
:101780001AF0A6FE3CA3D3E900231AF0EDFC224692
:101790002B461AF09DFE3AA3D3E900231AF0E6FC8B
:1017A00022462B461AF094FE37A3D3E900231AF001
:1017B000DBFC22462B461AF08BFE35A3D3E900232F
:1017C0001AF0D4FC22462B461AF082FE8046894647
:1017D000204629461CF014FC2FA3D3E9002306461B
:1017E0000F46204629461AF073FE2DA3D3E90023A5
:1017F0001AF0BAFC22462B461AF06AFE2AA3D3E955
:1018000000231AF0B3FC22462B461AF061FE28A3EF
:10181000D3E900231AF0A8FC22462B461AF058FE02
:101820000022294B1AF0A2FC02460B4640464946CC
:101830001AF078FF32463B461AF04AFE1EA3D3E95F
:1018400000231AF091FC32463B461AF08FFC024608
:101850000B461AF08BFC02460B4619A1D1E9000198
:101860001AF082FCBDE8F88F09F7FD0DE13D023F5B
:1018700088B20175E0EF493F3B8F68B52882A43FED
:101880005544880E55C1C93F7D6FEB0312D6D43F36
:10189000555555555555C53F82922EB1C5B8B33FE4
:1018A00059018D1B6C06E63FC88A599CE52A004009
:1018B0004B2D8A1C273A0340075C143326A6913C23
:1018C000182D4454FB2109400000F03F0000E03F88
:1018D000434A91422DE9F8430C46054639DD414A19
:1018E000914209DD02F17952914240DD02460B46F8
:1018F0001AF03CFCBDE8F88301F1404202F5801289
:10190000024330D0B1F1804F3ADC0022364B1AF05E
:101910002BFC02460B4604460D461AF027FC2246D5
:1019200006460F462B46204629461AF0D1FD0246B0
:101930000B46304639461AF019FC1CF061FB0B4689
:101940000246294620461AF011FCBDE8F843FFF78D
:101950004BBA02460B461AF007FC02460B461AF039
:10196000E1FEBDE8F88300200021BDE8F88300F027
:101970001FFE19A3D3E900231AF0F8FBBDE8F88392
:1019800002460B461AF0A4FD0022174B1AF0ECFB9E
:101990001CF036FB2A4680468946234628462146C7
:1019A0001AF0E4FB424606460F464B4628462146BF
:1019B0001AF0DCFB02460B4600200B491AF0B2FE7F
:1019C0000B460246394630461AF0CEFBBDE8F843D6
:1019D00000F0EEBDAFF30080EF39FAFE422EE63F95
:1019E000FFFFEF3FFFFFAF410000F03F00000000AE
:1019F0002DE9F047C44B21F00048984584B00D46CE
:101A0000044616DD08F1404808F58018034658EAF8
:101A1000030326D002460B461AF0A6FB0B460246ED
:101A20001AF080FE04460B462046194604B0BDE875
:101A3000F087B64B98458A462EDCB8F1795F80F284
:101A40006D8195A3D3E900231AF090FB0022B04BDF
:101A50001AF0CEFF00B32B462046194604B0BDE86D
:101A6000F0878FA3D3E900231AF032FD8EA3D3E9C8
:101A7000002306460F46204629461AF029FD024655
:101A80000B46304639461AF071FB04460B46204699
:101A9000194604B0BDE8F087204629461BF092FAAB
:101AA00002460B4600209A491AF05EFB0022994B31
:101AB0001AF00EFD7EA3D3E9002304460D461AF06A
:101AC00007FD7DA3D3E900231AF050FB22462B46E5
:101AD0001AF0FEFC7AA3D3E900231AF045FB224654
:101AE0002B461AF0F5FC78A3D3E900231AF03EFB4D
:101AF00022462B461AF0ECFC75A3D3E900231AF01A
:101B000033FB22462B461AF0E3FC73A3D3E90023F0
:101B10001AF02CFB22462B461AF0DAFC70A3D3E90C
:101B20000023CDE90001204629461AF0D1FC6EA31E
:101B3000D3E900231AF018FB22462B461AF0C8FC02
:101B40006BA3D3E900231AF011FB22462B461AF0AF
:101B5000BFFC69A3D3E900231AF006FB22462B46FB
:101B60001AF0B6FC6A4B00221AF000FBCDE9020124
:101B7000204629461CF044FA674B984506460F4616
:101B800067DCDDE90223DDE900011AF0CBFD324616
:101B9000CDE900013B46304639461AF0E7FA0246E5
:101BA0000B46DDE900011AF093FC4FF00008CDE987
:101BB000000142463B46404639461AF089FC02463F
:101BC0000B46204629461AF0CFFA424604460D46F7
:101BD0003B46304639461AF0C9FA02460B462046C3
:101BE00029461AF09FFD02460B461AF0BFFA02463C
:101BF0000B462DA1D1E900011AF0B6FA02460B46B8
:101C0000DDE900011AF0B0FA424604460D463B46B3
:101C1000404639461AF0AAFA02460B4638A1D1E9E5
:101C200000011AF0A1FA02460B46204629461AF096
:101C30009BFA0B46024632A1D1E900011AF094FA50
:101C400004460B46BAF1000F3FF7EEAE03F1004336
:101C5000EAE6DDE90223DDE900011AF063FD324620
:101C60003B461AF035FC32463B461AF07FFA0246F4
:101C70000B461AF07BFA0CA3D3E900231AF074FA8E
:101C80000B46024606A1D1E900011AF06DFA04469E
:101C90000B46D7E7AFF300809C7500883CE4377EA5
:101CA000182D4454FB21F93F075C143326A6913CC0
:101CB00009F7FD0DE13D023F88B20175E0EF493FB4
:101CC0003B8F68B52882A43F5544880E55C1C93F53
:101CD0007D6FEB0312D6D43F555555555555C53F2D
:101CE00082922EB1C5B8B33F59018D1B6C06E63FF9
:101CF000C88A599CE52A00404B2D8A1C273A03408C
:101D0000182D4454FB21E93FFFFFEF3FFFFFDF3F6A
:101D10000000F03F0000E03F3233EF3F02460B4649
:101D20001AF0D6FB38A3D3E9002306460F461AF073
:101D3000CFFB37A3D3E900231AF018FA32463B460B
:101D40001AF0C6FB34A3D3E900231AF00DFA324689
:101D50003B461AF0BDFB32A3D3E900231AF006FA82
:101D600032463B461AF0B4FB2FA3D3E900231AF006
:101D7000FBF932463B461AF0ABFB2DA3D3E9002317
:101D80001AF0F4F932463B461AF0A2FB2AA3D3E933
:101D9000002380468946304639461AF099FB28A32D
:101DA000D3E900231AF0E0F932463B461AF090FBE3
:101DB00025A3D3E900231AF0D9F932463B461AF09D
:101DC00087FB23A3D3E900231AF0CEF932463B4622
:101DD0001AF07EFB0022204B1AF0C8F902460B468F
:101DE000404649461AF09EFC22462B461AF070FBEC
:101DF00022462B461AF0BAF904460B4620461946ED
:101E000004B0BDE8F08700BF09F7FD0DE13D023FDA
:101E100088B20175E0EF493F3B8F68B52882A43F47
:101E20005544880E55C1C93F7D6FEB0312D6D43F90
:101E3000555555555555C53F82922EB1C5B8B33F3E
:101E400059018D1B6C06E63FC88A599CE52A004063
:101E50004B2D8A1C273A03400000F03F0000000091
:101E60002DE9F84F5442144323F00049704E49EADB
:101E7000D474B44286460F4640D84442044321F00D
:101E8000004B4BEAD474B4428A4637D803F140443D
:101E900004F5801414434AD09C1704F0020444EA69
:101EA000D17450EA0B0131D052EA090137D0B14563
:101EB00052D0B34533D0ABEB09094FEA2959B9F1F8
:101EC0003C0F3BDC002B66DB704639461AF02AFCDF
:101ED0001BF078F8FEF7C8FC012C58D0022C48D033
:101EE000002C5ED040A3D3E900231AF03DF940A3B3
:101EF000D3E900231AF038F9BDE8F88F10461946E7
:101F000072463B461AF032F9BDE8F88F022C19D020
:101F1000032C10D138A1D1E90001BDE8F88FBAF146
:101F2000000F14DB36A1D1E90001BDE8F88FBDE850
:101F3000F84FFEF799BC3946BDE8F88F30A1D1E9DA
:101F40000001C9E72AA1D1E90001BDE8F88F2EA15F
:101F5000D1E90001BDE8F88FCB4524D0022CF1D0A7
:101F6000032CD7D0012C4FF0000027D00021BDE872
:101F7000F88F1DA3D3E900231AF0F6F802460B46AA
:101F80001BA1D1E900011AF0EFF8BDE8F88F01F1CB
:101F90000041BDE8F88F19F13C0F95DA00200021CF
:101FA0009AE7BDE8F88F022C16D0032C0FD0012C35
:101FB00008D017A1D1E90001BDE8F88F4FF000412A
:101FC000BDE8F88F14A1D1E90001BDE8F88F14A194
:101FD000D1E90001BDE8F88F13A1D1E90001BDE806
:101FE000F88F00BFAFF30080075C143326A6A13C36
:101FF000182D4454FB210940182D4454FB2109C0DD
:10200000182D4454FB21F93F182D4454FB21F9BFEE
:10201000182D4454FB21E93F182D4454FB21E9BFFE
:10202000D221337F7CD902C0D221337F7CD90240B8
:102030000000F07F0000000043422DE9F047034319
:1020400021F00048424A48EAD373934206460F46BD
:1020500016D890454BD03F4B98458A461EDC3AA394
:10206000D3E9002304461AF081F8002200231AF075
:10207000BFFC002845D03B4620461946BDE8F08706
:1020800002460B461AF070F80B4602461AF04AFB5D
:1020900004460B4620461946BDE8F0872E4B98456E
:1020A000044645462FDD0246434641461AF05EF897
:1020B000224606460F464346002025491AF054F8AA
:1020C00002460B46304639461AF02CFBFEF78CFED2
:1020D000224B00221AF0FCF9BAF1000F04460B461D
:1020E000D8DA01F1004320461946BDE8F087002206
:1020F00000231AF017FB04460B4620461946BDE89C
:10210000F0873446454622462B46204629461AF09B
:102110002DF822462B4606460F461AF0D9F92246DC
:10212000804689462B46002009491AF01DF80246D0
:102130000B46404649461AF0F5FA32463B461AF03D
:1021400015F8C3E7AFF300809C7500883CE4377E48
:102150000000F03FFFFF2F3EFFFFDF3F0000E03FAA
:102160004F4A2DE9F84321F0004494420B460546BE
:102170001BDC4C4A944222DD4B4A944263DD4B4ABD
:1021800094427BDD4A4A944246DD0132944240D07B
:1021900041A3D3E90023104619461AF099F90646DF
:1021A0000F4630463946BDE8F88302460B461AF022
:1021B0008FF906460F4630463946BDE8F8831AF0D7
:1021C00001FF02F0A9FC00223A4B8046894619F033
:1021D000CDFFB4F1725F06460F46ECDB42464B463C
:1021E000404649461AF074F932463B4604460D46CD
:1021F0003046394619F0BAFF02460B4620462946BA
:102200001AF090FA00222B4B19F0B0FF06460F4649
:10221000D1E7294A9042BBD8284619461AF0D2FE87
:102220000022264B1AF054F900F04AF80022044626
:102230000D46224B1AF04CF922462B461AF048F96B
:1022400006460F46B7E71AF0BDFE00F039F8002247
:102250001A4B06460F461AF03BF932463B460446F7
:102260000D46002015491AF05DFA02460B4620463D
:10227000294619F07BFF06460F469CE71AF0A2FE9E
:1022800000F01EF800220D4B1AF022F906460F4608
:1022900091E700BFAFF300809C7500883CE4377E77
:1022A000FFFFEF7F422ED63FFFFF3540412E864095
:1022B000CD3386400000F03F7DF8B98F0000E03F4D
:1022C0002DE9F04FB04F21F00042BA4283B00C46E6
:1022D0004FEAD17605460DD9AC4FBA4225D9C1F3A4
:1022E0001303034340F0EF800EB10020014603B01A
:1022F000BDE8F08FA64B9A4200F2CC80A54B9A42E3
:1023000000F2DE808AA3D3E9002319F02FFF002218
:10231000A14B1AF06DFB002800F0058128462146EC
:1023200000229D4B19F022FFE1E783A3D3E90023AC
:102330001AF05EFB002840F0CB802846214680A39F
:10234000D3E900231AF036FB0028CED1934B284660
:1023500003EBC60621467CA3D3E900231AF0B8F8A4
:10236000D6E9002319F002FF1AF062FB80461AF04A
:1023700049F877A3D3E9002306460F461AF0A8F8D8
:1023800002460B462846214619F0EEFE72A3D3E919
:102390000023CDE90001304639461AF099F882460B
:1023A0008B4652465B46DDE9000119F0DDFE05462D
:1023B0000C462A462346284621461AF089F868A387
:1023C000D3E9002306460F461AF082F866A3D3E944
:1023D000002319F0C9FE32463B461AF079F864A38F
:1023E000D3E9002319F0C2FE32463B461AF070F8DA
:1023F00061A3D3E9002319F0B7FE32463B461AF039
:1024000067F85FA3D3E9002319F0B0FE32463B46DC
:102410001AF05EF802460B462846214619F0A4FE43
:1024200006460F462846214632463B46B8F1000F85
:1024300056D01AF04DF8324604460D463B46002071
:102440004FF0804119F090FE02460B462046294687
:102450001AF068F902460B465046594619F084FEB8
:10246000DDE9002319F080FE0B4602464A490020B0
:1024700019F07AFE6FF47F7398454FDA08F57A7891
:1024800001EB085100224FF0B8731AF021F803B0A5
:10249000BDE8F08F424B9A423FF658AF414BF400F3
:1024A0002344D3E9002319F05FFE3F4BC6F1010836
:1024B0002344CDE90001D3E900ABA8EB060870E79F
:1024C0004FF0000875E702460B4619F04FFE0EE785
:1024D00017A3D3E900231046194619F0F9FF06E7C0
:1024E00019F0F6FF0022804689464FF080433046BF
:1024F000394619F039FE02460B46404649461AF065
:1025000011F92A46234619F02FFE02460B460020F9
:10251000214919F029FE03B0BDE8F08F01EB085105
:1025200003B0BDE8F08F804643E700BFAFF3008003
:102530009C7500883CE4377EEF39FAFE422E8640D7
:1025400051302DD5104987C0FE822B654715F73FC6
:102550000000E0FE422EE63F763C7935EF39EA3D59
:10256000D0A4BE726937663EF16BD2C541BDBB3E99
:102570002CDE25AF6A56113F93BDBE166CC1663F77
:102580003E5555555555C53F412E8640FFFFEF7FBF
:10259000422ED63FFFFF2F3E0000F03FA801030868
:1025A000B1A2F03FB8010308C80103080000000011
:1025B0002DE9F04FB1F5801F85B006460F460B465A
:1025C0005ADA024621F00044224300F0F880002944
:1025D000C0F27A810022D64B19F07AFFD54A0B4619
:1025E000934206460F466FF0350C4ADCC3F31305E1
:1025F00005F5152E0EF6647E0EF4801E8EF07F52C9
:1026000082F440121C1542EA0507A4F2FF34644428
:102610000022C94B3046394604EB1E5419F0A4FD84
:10262000AB1CC3F31303022B82468B464FF0000210
:1026300030DC00231AF0B4F9002800F0C980002C27
:1026400000F04B81204619F0DDFEA5A3D3E900235D
:1026500006460F4619F03CFFA3A3D3E90023044626
:102660000D463046394619F033FF02460B462046E8
:10267000294619F07BFD0AE0AE4A93424FF0000C68
:10268000B4DD32463B463046394619F06FFD05B0A1
:10269000BDE8F08F4FF0804319F068FD02460B460D
:1026A000504659461AF03EF8064620460F4619F0A5
:1026B000A9FE3246CDE900013B4630463946CDE918
:1026C000026719F005FF02460B468046894619F05D
:1026D000FFFE87A3D3E9002306460F4619F0F8FE54
:1026E00085A3D3E9002319F041FD32463B4619F09A
:1026F000EFFE83A3D3E9002319F038FD32463B46B1
:1027000019F0E6FE80A3D3E9002319F02FFD42461D
:102710004B4619F0DDFE7EA3D3E9002380468946AF
:102720003046394619F0D4FE7BA3D3E9002319F0D3
:102730001DFD32463B4619F0CBFE79A3D3E90023B9
:1027400019F014FD32463B4619F0C2FE0B46024614
:102750004946404619F00AFDA5F5C223C5F5D7251F
:10276000A3F27A4351351D43002D8046894656DD3C
:102770000022724B5046594619F0AAFE52465B465B
:1027800019F0A6FE06460F46002C68D132463B469D
:102790004046494619F0EAFCDDE9022319F098FEAB
:1027A00002460B463046394619F0DEFC02460B461F
:1027B0005046594619F0D8FC05B0BDE8F08F00220C
:1027C000002300205E4919F0ADFF05B0BDE8F08F91
:1027D00055A3D3E900235046594619F079FE024625
:1027E0000B460020554919F0BFFC524606460F46DD
:1027F0005B465046594619F06BFE02460B46304682
:10280000394619F065FE06460F46002C40F09A80C6
:1028100002460B465046594619F0A6FC37E7002CF5
:1028200000F0A4802EA3D3E90023DDE9000119F014
:102830004FFE42464B4604460D465046594619F057
:1028400093FCDDE9022319F043FE27A3D3E900231B
:1028500006460F46DDE9000119F03AFE21E020A30B
:10286000D3E90023DDE9000119F032FE32463B4690
:1028700004460D464046494619F078FCDDE902233E
:1028800019F026FE18A3D3E9002380468946DDE926
:10289000000119F01DFE02460B464046494619F05C
:1028A00065FC02460B463046394619F05DFC52463F
:1028B0005B4619F059FC02460B462046294619F0A2
:1028C00053FC05B0BDE8F08F02460B4619F04CFCF6
:1028D0000022002319F026FFD9E600200021D6E6C9
:1028E0000000E0FE422EE63F763C7935EF39EA3DC6
:1028F00044523EDF12F1C23FDE03CB966446C73F2F
:10290000599322942449D23F935555555555E53F47
:102910009FC678D0099AC33FAF788E1DC571CC3F52
:1029200004FA97999999D93F555555555555D53F1D
:1029300000005043FFFFEF7F0000F03F0000E03F4A
:10294000000050C3204619F05DFD0FA3D3E900231A
:102950008046894619F0BCFD0DA3D3E90023044647
:102960000D464046494619F0B3FD9AE702460B462C
:102970005046594619F0F8FBDDE9022319F0A8FD8D
:1029800014E700BFAFF300800000E0FE422EE63FF8
:10299000763C7935EF39EA3DB1F5801F2DE9F843F2
:1029A00004460D460B461ADA024621F00046324331
:1029B00059D000295FDB00223B4B19F089FD3B4ACF
:1029C0000B4693420D4604466FF035010CDD22465E
:1029D0002B462046294619F0C9FBBDE8F883334A47
:1029E00093424FF00001F2DC1815A0F2FF300844CA
:1029F0004FEAD0794844C3F3130819F003FDC9F531
:102A00007F73033348EA035506460F46204629469E
:102A1000FFF7CEFD1EA3D3E900238046894630464A
:102A2000394619F055FD1CA3D3E9002304460D4691
:102A30004046494619F04CFD02460B4620462946C1
:102A400019F094FB16A3D3E9002304460D46304643
:102A5000394619F03DFD02460B462046294619F03D
:102A600085FBBDE8F883002200230020104919F0FF
:102A700059FEBDE8F88302460B4619F075FB0022AB
:102A8000002319F04FFEBDE8F88300BFAFF30080CC
:102A9000362BF111F3FE593D0EE526157BCBDB3FBE
:102AA00000609F501344D33F00005043FFFFEF7F6F
:102AB000000050C3000000002DE9F04F23F0004754
:102AC00057EA020493B037D0674C21F00046A64283
:102AD00083460D4629DC9A46964625D0A74224DC3B
:102AE000614CA74279D0002D89468046CDE900236C
:102AF00077DB0024BEF1000F2CD15B4B9F4200F02E
:102B00008B805A4B9F4261D0BAF1804F00F0BA835C
:102B1000574B9A451ED1002D1CDB4046494613B049
:102B2000BDE8F04F1BF06CBA58B106F1404606F50F
:102B3000801656EA0B0306D14C49002013B0BDE8BD
:102B4000F08FB742CCDD4B4813B0BDE8F04F1CF01E
:102B50009DB90024404649461AF034FABBF1000FF3
:102B600019D126B1414B25F040429A4213D1BAF116
:102B7000000FC0F2BC83002DE0DA06F1404606F5F6
:102B8000801656EA040300F08F84012CD6D101F19F
:102B900000431946D2E7ED0F013D54EA05034ED03C
:102BA000354B9F426EDD03F104739F4240F3E8838F
:102BB000324B9E424EDDBAF1000F4EDD28A3D3E921
:102BC00000231046194619F083FCB7E7BAF1000F4D
:102BD000C0F23C8440464946B0E7BEF1000F82D0C7
:102BE000A3E7274B9F4228DCA3F154739F4280DD6B
:102BF0003B15A3F2FF33142B40F33E84C3F134039F
:102C00002EFA03F202FA03F39E457FF472AF02F04C
:102C10000102C2F102046DE706F1404303F580139F
:102C200053EA0B0388D0154B9E4240F33283BAF12E
:102C3000000F12DBDDE9000180E702245AE742467B
:102C40004B464046494619F08FFA02460B4619F0AA
:102C500069FD73E7BAF1000FB0DB002000216DE7DA
:102C60009C7500883CE4377E0000F07F0000F03F58
:102C70000000E03FCC0A03080000E041FFFFEF3F07
:102C8000FFFF3F43B6F5801F4FF0000205DAD44B3B
:102C900019F01EFC6FF034020E463315D14FC6F307
:102CA0001306A3F2FF33134446F07F5ABE421A467E
:102CB0000D934AF4401A40F32183CB4B9E4240F3DC
:102CC000FD83134601330D93C84B0022CDE9062343
:102CD00000270026CDE90867CDE90E67AAF5801A1E
:102CE0000027024653465146CDE90A23DDE9062373
:102CF00019F03AFADDE9062380468946DDE90A0142
:102D000019F034FA02460B460020B84919F00AFDC2
:102D10000A460146CDE9101213464946024640468E
:102D200019F0D6FB4FEA6A0343F000538C46834602
:102D300003F50023CDE904BCDA468B46D9190023FC
:102D4000CDE902AB0293DDE902AB002006460F4657
:102D500002460B465046594619F0BAFB02460B464E
:102D60004046494619F000FADDE9062380468946C7
:102D70003046394619F0F8F902460B46DDE90A01FA
:102D800019F0F2F952465B4619F0A2FB02460B46D7
:102D90004046494619F0E8F9DDE9102319F098FB9F
:102DA000DDE90467CDE9060132463B463046394647
:102DB00019F08EFB78A3D3E9002306460F4619F0DD
:102DC00087FB77A3D3E9002319F0D0F932463B46BD
:102DD00019F07EFB74A3D3E9002319F0C7F932463A
:102DE0003B4619F075FB72A3D3E9002319F0BEF935
:102DF00032463B4619F06CFB6FA3D3E9002319F070
:102E0000B5F932463B4619F063FB6DA3D3E90023C5
:102E100019F0ACF93246804689463B463046394681
:102E200019F056FB02460B464046494619F050FB46
:102E3000524606460F465B46DDE9040119F096F955
:102E4000DDE9062319F044FB32463B4619F08EF9C2
:102E50005246804689465B465046594619F038FB33
:102E60000022634BCDE90A0119F080F942464B4636
:102E700019F07CF902980F46064632463B4650460A
:102E8000594619F025FB002282468B46584B3046A6
:102E9000394619F069F9DDE90A2319F065F90246A6
:102EA0000B464046494619F05FF9DDE9042319F065
:102EB0000FFB3246804689463B46DDE9060119F0A4
:102EC00007FB02460B464046494619F04FF980463B
:102ED000894602460B4650465946CDE904AB19F0E7
:102EE00045F9DDE902AB38A3D3E9002350460F468C
:102EF00019F0EEFADDE90423CDE902013946504626
:102F000019F032F902460B464046494619F02CF9B1
:102F10002FA3D3E9002319F0DBFA2FA3D3E9002371
:102F2000804689465046394619F0D2FA02460B4689
:102F30004046494619F01AF9DDE90E2319F016F951
:102F400080460D98894619F05DFA424606460F46BE
:102F50004B46DDE9020119F009F9DDE9082319F012
:102F600005F932463B4619F001F932463B465046D8
:102F70008B4619F0F9F8DDE9082319F0F5F8DDE9D9
:102F8000022319F0F1F802460B464046494619F073
:102F9000EBF880462EE000BFEF4E454A287ECA3F40
:102FA00065DBC9934A86CD3F01411DA96074D13FBD
:102FB0004D268F515555D53FFFAB6FDBB66DDB3FCF
:102FC000033333333333E33F000000E009C7EE3F00
:102FD000FD033ADC09C7EE3FF5015B14E02F3EBE6E
:102FE000000040438E98030079B60B000000F03FCC
:102FF000000008408946013C54EA0503DDE9000170
:1030000014BFD94CD94C0023CDE9043403460C46F7
:10301000CDE9023400230293DDE9024522462B4626
:1030200019F0A2F852465B4619F052FADDE9002386
:1030300006460F464046494619F04AFA02460B46F4
:103040003046394619F092F82246804689462B468A
:1030500050465946CDE9008919F03AFA0B46024626
:1030600006460F464046494619F080F8C04B994243
:1030700004460D468A4640F3168101F13F4303F5AD
:10308000E003034340F0EA81A3A3D3E90023DDE991
:10309000000119F06BF83246804689463B462046CF
:1030A000294619F061F802460B464046494619F098
:1030B0009FFC002840F0D281A8464FEA28534FF4E5
:1030C0008012A3F2FE3342FA03F35344C3F30A52CD
:1030D000A84DA2F2FF321541C3F3130423EA050100
:1030E0000020C2F1140B44F48014BAF1000F024620
:1030F0000B4644FA0BFB30463946B8BFCBF1000B08
:1031000019F032F802460B4606460F46DDE900018B
:1031100019F02CF84FEA0B5A0D46002480A3D3E98E
:1031200000232046294619F0D3F9324680468946C5
:103130003B462046294619F017F802460B46DDE9C2
:10314000000119F011F878A3D3E9002319F0C0F9B0
:1031500077A3D3E9002306460F462046294619F0F7
:10316000B7F902460B463046394618F0FFFF0646CF
:103170000F4602460B464046494618F0F7FF4246C6
:103180004B4604460D4618F0EFFF02460B4630460C
:10319000394618F0E9FF2246804689462B462046EC
:1031A000294619F095F964A3D3E9002306460F4692
:1031B00019F08EF962A3D3E9002318F0D5FF324647
:1031C0003B4619F085F960A3D3E9002318F0CEFF40
:1031D00032463B4619F07CF95DA3D3E9002318F091
:1031E000C3FF32463B4619F073F95BA3D3E90023D2
:1031F00018F0BCFF32463B4619F06AF902460B460E
:103200002046294618F0B0FF06460F4602460B46F8
:103210002046294619F05CF90022CDE900014FF063
:1032200080433046394618F09FFF02460B46DDE9E1
:10323000000119F077FA424606460F464B462046F3
:10324000294619F045F942464B4618F08FFF0246D1
:103250000B463046394618F087FF22462B4618F0B9
:1032600083FF02460B4600203F4918F07DFF8A4449
:10327000BAF5801FC0F233815146DDE9042319F00D
:1032800027F95BE4424640464B46494619F020F98F
:1032900054E4BAF1000FBFF6E0ACDDE900341846A3
:1032A00004F100414AE4344B21F00048984540F3D2
:1032B000F280324B0B4403430CD132463B4618F0AC
:1032C00053FF02460B46DDE9000119F07DFB0028A3
:1032D0003FF4F3AEDDE9040121A3D3E9002319F0A3
:1032E000F7F81FA3D3E9002319F0F2F826E4024609
:1032F0000B4600201C4919F015FA3CE4002200237B
:10330000CDE90823CDE90E23174B00220027CDE994
:103310000623E6E4AFF30080FE822B654715973C59
:1033200000000000432EE63FEF39FAFE422EE63F52
:10333000396CA80C615C20BED0A4BE726937663EB1
:10334000F16BD2C541BDBB3E2CDE25AF6A56113FA5
:1033500093BDBE166CC1663F3E5555555555C53F8C
:1033600059F3F8C21F6EA5010000F03F0000F0BF46
:10337000FFFF8F40FFFF0F00FFCB904000346F3FF7
:103380006B4B9E427FF766AC6A4B9E423FF713AC95
:103390000022684B18F0E8FE57A3D3E90023064645
:1033A0000F4619F095F856A3D3E9002380468946C5
:1033B0003046394619F08CF8002282468B465E4B27
:1033C0003046394619F084F802460B464EA1D1E941
:1033D000000118F0C9FE32463B4619F079F8024662
:1033E0000B460020554918F0BFFE3246CDE90201D8
:1033F0003B463046394619F06BF802460B46DDE98C
:10340000020119F065F842A3D3E9002319F060F82E
:1034100002460B465046594618F0A6FE02460B4699
:1034200006460F464046494618F0A0FE42464B4627
:10343000002082468B4618F097FE02460B46304627
:10344000394618F091FE80468946D4E542464B46FF
:103450000020384919F066F9FFF770BBDDE9040177
:103460002DA3D3E9002319F033F82BA3D3E90023CC
:1034700019F02EF8FFF762BBBEF1000F7FF469ABC5
:10348000C3F1140347FA03F202FA03F39F422AD06E
:103490007446FFF736BB294B98453FF70EAEDDE982
:1034A00002239246934638E602460B4618F05CFE2D
:1034B00002460B4619F036F9FFF740BB18A3D3E9D3
:1034C0000023CDE9082318A3D3E90023CDE90E2377
:1034D0001B4B00224FF48027CDE9062301E45A4616
:1034E00001F05AFDC9E602F00102C2F10204FFF741
:1034F00008BB00BFAFF30080000000604715F73F36
:1035000044DF5DF80BAE543E555555555555D53FE6
:10351000FE822B654715F73F9C7500883CE4377E9B
:103520000000004003B8E23F06D0CF43EBFD4C3E25
:10353000FEFFEF3F0000F03F0000D03F0000E03F03
:103540000000F83F000000002DE9F04F9A4E21F0F6
:103550000047B74291B040F38E809246974A974217
:103560000C4626DC00298AA3D3E9002340F3B4816A
:1035700018F0FAFD924B9F4204460D4600F09080F1
:1035800085A3D3E9002318F0EFFD02460B46CAE9F4
:1035900000232046294618F0E7FD7FA3D3E9002346
:1035A00018F0E2FD0125CAE90201284611B0BDE884
:1035B000F08F844A974240F39080834A974265DCBB
:1035C0003D15A5F21645A7EB055319461F460646BD
:1035D00019F02EFA18F016FF8046894602460B466F
:1035E00030463946CDE90A8918F0BEFD0022774BF6
:1035F00018F06EFF8946804619F01AFA18F002FF9B
:1036000002460B4606460F4640464946CDE90C6742
:1036100018F0AAFD00226D4B18F05AFF002200237B
:10362000CDE90E0119F0BCF9002800F073810023E8
:1036300030463946002219F0B3F9002814BF01239F
:103640000223634A019202212A4600910AA85146A8
:1036500000F086FB002C054614DADAF80420DAF8CC
:103660000C3002F1004203F100434542CAF8042045
:10367000CAF80C3006E0C2E9000100250024C2E9C6
:1036800002450025284611B0BDE8F08F02460B46E2
:1036900018F06AFD0025CAE90201CAE90001F1E754
:1036A0003FA3D3E9002318F05FFD3FA3D3E9002334
:1036B0000D46044618F058FD02460B46CAE90023A1
:1036C0002946204618F050FD37A3D3E9002318F00F
:1036D0004BFD0125CAE90201D4E719F073FC34A3BC
:1036E000D3E900238046894618F0F2FE0022394BC8
:1036F00018F03CFD19F09CF9054618F083FE24A350
:10370000D3E90023CDE9040118F0E2FE02460B469E
:103710004046494618F028FD1FA3D3E90023804600
:103720008946DDE9040118F0D3FE1F2DCDE9020121
:1037300054DC294B6A1E53F822309F424ED0024679
:103740000B464046494618F00FFD02460B46CAE9B3
:10375000002383460E465A4633464046494618F0F3
:1037600003FDDDE9022318F0FFFC002C02460B46A6
:10377000CAE9022386DA5B4606F1004601F1004100
:103780008AE84800CAF80C10CAF808006D4279E7C8
:1037900000004054FB21F93F3163621A61B4D03D0F
:1037A0000000601A61B4D03D7370032E8A19A33BE8
:1037B00083C8C96D305FE43FFB21E93F7BD90240FC
:1037C000FB21F93FFB213941FFFFEF7F00007041F2
:1037D000F41D03080000E03F741D0308DDE9022327
:1037E0004046494618F0C0FC3A15C1F30A53D31AB3
:1037F000102B83460E460992CAE90001ABDD58A39F
:10380000D3E90023DDE9040118F062FE06460F4605
:1038100002460B464046494618F0A6FCCDE9060193
:1038200002460B464046494618F09EFC32463B464F
:1038300018F09AFC4CA3D3E9002306460F46DDE9B5
:10384000040118F045FE32463B4618F08DFCDDE9D8
:103850000689CDE9020102460B464046494618F06A
:1038600083FC0B46C1F30A570E460999CF1B02464B
:10387000312F8346CAE900236CDD3DA3D3E9002341
:10388000DDE9040118F024FE06460F4602460B4609
:1038900040464946CDE9068918F066FC02460B46CB
:1038A00080468946DDE9060118F05EFC32463B465B
:1038B00018F05AFC30A3D3E9002306460F46DDE991
:1038C000040118F005FE32463B4618F04DFC024656
:1038D0000B46CDE9022334E718F048FC2A4B9F42FF
:1038E00004460D4618D026A3D3E9002318F03EFC69
:1038F00002460B46CAE900232946204618F034FC4C
:103900001FA3D3E9002318F031FC4FF0FF35CAE9BB
:103910000201B7E6032394E611A3D3E9002318F0CC
:1039200025FC11A3D3E900230D46044618F01EFC24
:1039300002460B46CAE900232946204618F014FC2B
:1039400009A3D3E9002318F011FC4FF0FF35CAE9B1
:10395000020197E6DDE90689FDE600BFAFF30080CE
:103960000000601A61B4D03D7370032E8A19A33B26
:103970000000002E8A19A33BC14920259A837B3978
:103980003163621A61B4D03DFB21F93F00000000B1
:10399000574A2DE9F84F21F0004890450E4607465A
:1039A0002BDC544B0029B4BF534D544D98454FF078
:1039B000000410DC524B98456EDC4BA3D3E9002386
:1039C00018F0D4FB00224F4B19F012F8D8B138464A
:1039D0003146BDE8F88F4C4B984579DD4B4B984507
:1039E00043DD013398453DD0384631463EA3D3E907
:1039F000002318F06DFDBDE8F88F02460B4618F065
:103A0000B5FBBDE8F88F3846314619F0DBFA01F016
:103A100083F806460F4632463B463046394618F094
:103A2000A5FB324682468B463B463046394618F067
:103A30004FFD002280468946324B3046394618F009
:103A400095FB02460B464046494618F06BFE02467F
:103A50000B465046594618F087FB22462B4618F075
:103A600037FDCEE72A4B9842BED83846314619F08A
:103A7000A9FA0022214B18F02BFDFEF721FC064687
:103A80000F4602460B462046294618F021FD3246D5
:103A90003B4618F01DFDB4E719F094FA01F03CF82C
:103AA0001C4B984506460F46B5DD0022154B18F015
:103AB0005DFB02460B463046394618F033FE32466F
:103AC0003B4618F053FB22462B4618F001FD98E7C1
:103AD00019F078FAFEF7F4FB02460B462046294619
:103AE00018F0F6FC8DE700BF3374AC3C1F7BAC7F55
:103AF000FFFFEF7FFFFF35400000E0BF0000E03F29
:103B0000FFFF2F3E0000F03F412E8640CD33864020
:103B10007DF8B98FFFFFEF3F2DE9F04F21F0004610
:103B2000B6F1795F85B00C4692469B4605466BDA46
:103B300018F07EFF002800F0E8802A462346284639
:103B4000214618F0C5FC74A3D3E9002380468946BA
:103B500018F0BEFC72A3D3E9002318F007FB42461D
:103B60004B4618F0B5FC70A3D3E9002318F0FCFA1B
:103B700042464B4618F0ACFC6DA3D3E9002318F085
:103B8000F5FA42464B4618F0A3FC6BA3D3E9002399
:103B900018F0EAFA42464B4618F09AFC68A3D3E9BB
:103BA000002318F0E3FA42464B4618F091FCCDE9A9
:103BB00000010022644B4046494618F089FCDDE9CB
:103BC000002306460F464046494618F081FC5246FF
:103BD000804689465B462846214618F079FC024615
:103BE0000B464046494618F0BFFA02460B4630469F
:103BF000394618F0B9FA02460B460020534918F02E
:103C0000B3FA05B0BDE8F08F02460B4618F060FC31
:103C100041A3D3E900238046894618F059FC40A30C
:103C2000D3E9002318F0A2FA42464B4618F050FCA4
:103C30003DA3D3E9002318F097FA42464B4618F00B
:103C400047FC3BA3D3E9002318F090FA42464B46C9
:103C500018F03EFC38A3D3E9002318F085FA424659
:103C60004B4618F035FC36A3D3E9002318F07EFA52
:103C70004B46424618F02CFC354B9E42CDE90001E4
:103C800097DD344B9E424FF0000238DCA6F500135E
:103C900000202E4916461F4618F066FACDE90201AB
:103CA0000022294B4046494618F012FC32463B465A
:103CB00018F05AFADDE9002306460F464046494609
:103CC00018F006FC5246804689465B462846214647
:103CD00018F0FEFB02460B464046494618F044FAEF
:103CE00002460B463046394618F03EFA02460B466D
:103CF000DDE9020118F038FA05B0BDE8F08F164B87
:103D0000164FCDE902230026CAE71049002005B06E
:103D1000BDE8F08FAFF30080D43888BEE9FAA8BDC3
:103D2000C4B1B4BD9EEE213EAD529C804F7E923E0A
:103D30009015CB19A001FA3E7751C1166CC1563FC0
:103D40004C5555555555A53F0000E03F0000F03F4C
:103D50003233D33F0000E93F0000E73F0000D23F8D
:103D60002DE9F04FADF5197D9C4CA29E9C4D54F869
:103D7000264005942646D41E85FB0475E417C4EB43
:103D8000A50424EAE4741D460893631CA3EB830393
:103D9000013D02EBC30304932B4609940295651B76
:103DA000F418039006911AD42C4401340DF17808CC
:103DB00000260027DDF88C9208E059F8250018F05D
:103DC00021FB0135A542E8E9020108D0002DF4DA13
:103DD000013530463946A542E8E90201F6D1059B96
:103DE000002B2EDB089B4FEAC309039BA9F10808AF
:103DF000984420AB9944059B70AA02EBC30B0DF5C8
:103E0000DC7A029B002BC0F20F83039B4D46A3F18B
:103E100008040026002775E90223F4E9020118F0DE
:103E200057FB02460B463046394618F09FF9444589
:103E300006460F46EFD1EAE90267DA4509F10809BB
:103E4000DFD10598089A009000F18043013B9B0068
:103E50000CAC191F234402F100520B93039B013A4F
:103E600021440A9103EBC20B009A98A901EBC2030B
:103E7000002A53E9284513462BDD01EBC308A8F1BE
:103E8000A8080DF12C090DF5DC7A0022554B2046CF
:103E9000294618F01DFB18F0CBFD18F0B3FA0022EC
:103EA000514B06460F4618F013FB02460B462046C0
:103EB000294618F059F918F0BBFD78E8022349F8B3
:103EC000040F3946304618F051F9D04504460D46E6
:103ED000DBD1DDF81090204629464A4601F05CF817
:103EE00000224FF07F5304460D4618F0F1FAFCF71C
:103EF000EFFE00223D4B18F0EBFA02460B4620463F
:103F0000294618F031F90D46044618F091FD804617
:103F100018F078FA0B4602462946204618F024F994
:103F20004B46002B06460F4640F3F780009A0CA93B
:103F3000013AC9F1180351F8225045FA03F101FA88
:103F400003F30CA8EB1A40F82230C9F11705884496
:103F500043FA05F5002D63DD009B002B08F10108F5
:103F600040F381820C9C002C00F018830120002378
:103F70000CAAC4F1807442F82340009A824219DDF1
:103F80000CAA0CAC52F820106FF07F42511A44F882
:103F900020100099023399420CDD1046009A0CA9BA
:103FA00001EB830301EB82011A68821A43F8042BA8
:103FB0008B42F9D1049B002B1ADD049B012B4FF09F
:103FC000010440F05882009B5A1E0CAB0CA953F818
:103FD0002230C3F3160341F8223058E2942203083A
:103FE000ABAAAA2A0000703E0000704100002040E9
:103FF000022D15D132463B460020974918F0B4F8FF
:1040000006460F46049A9449002000F0C5FF024678
:104010000B463046394618F0A7F8022506460F46EB
:10402000002200233046394618F0BAFC002800F080
:104030005282009A059B501E83420FDC02F180439E
:10404000013B0CAA0B9C02EB8303002253F80419DA
:10405000A34242EA0102F9D1002A6FD1059B0CAAC2
:10406000013B52F82330002B40F033820A9A01239F
:1040700052F8041901330029FAD0009AD31802F13A
:10408000010A9A4507933DDC009B0899099A0B4465
:1040900007990AEB0208994620AB08F1804803EB28
:1040A000C9098B18A39A08F1FF3802EB880870AA97
:1040B00002EBCA0AA39A02EB8303009358F8040F99
:1040C00018F0A0F9029B002BE9E802011DDB039B1D
:1040D0004D46A3F108040026002775E90223F4E900
:1040E000020118F0F5F902460B463046394618F041
:1040F0003DF85C4506460F46EFD1009B9845EAE83F
:104100000267DBD1079B0093AEE6009B00260027E9
:104110009845EAE80267D1D1F4E706D1009B0CAAE2
:10412000013B52F82350ED1514E700224B4B18F0D9
:1041300055FC002840F08281054671E70CA90295E4
:1041400051F820300499CDF81C80183902460090AF
:1041500004916BB900F18043013B0CA800EB830391
:1041600053F80409013A18390028F9D00092049153
:10417000049A3949002000F00FFF009B002B0446F1
:104180000D46C0F20382DA0070A901EB020B049223
:104190000CAA02EB8306DFF8C8900BF1080704367F
:1041A0004FF0000856F8040D18F02CF922462B4663
:1041B00018F08EF94B4667E902014246204629462F
:1041C00018F086F90CAB9E4204460D46EAD10DF577
:1041D000907ACDF80CA0DDF814A04FF00009BAF1E8
:1041E000000FC0F23D81DFF87C805D4618A1D1E967
:1041F000000100260027002403E04C4510DCF8E80D
:104200000201F5E8022318F063F902460B46304636
:10421000394617F0ABFF0134A24506460F46ECDAEB
:10422000039B03EBC903ABF1080BC3E900676EAB5B
:104230005B4509F10109D2D1A29BDDF80CA0032B4B
:1042400000F28B80DFE813F0D100900090001000A6
:1042500000000040FB21F93F0000F03F0000E03F7C
:104260000000703EF0010308009B002B40F3A48186
:10427000049B0AEB0308D8E90067D34658E9029A81
:1042800032463B464846514617F070FF04460D46FD
:1042900002460B464846514617F066FF32463B46FB
:1042A00017F064FFC8E9000168E90245C3452646E6
:1042B0002F46E3D1009B012BDA4640F37D81049B1E
:1042C0005B44D3E90067984699460DF5947B59E91C
:1042D00002343246184621463B46CDE9000117F02C
:1042E00045FF04460D4602460B46DDE9000117F086
:1042F0003BFF32463B4617F039FFC9E9000169E947
:104300000245CB4526462F46E1D1002308F1080897
:104310001D464CAC1846294678E9022317F026FFC3
:10432000444503460D46F5D1029A002A00F020814B
:10433000DAF80440DAF80C20069FDAF80010DAF810
:1043400008003B6105F1004504F1004402F1004220
:104350007D617C60FA603960B860079B03F00700FC
:104360000DF5197DBDE8F08F049C002608345444F7
:1043700033463046194674E9022317F0F7FE5445D8
:1043800006460B46F5D1029A30461946002A00F03F
:10439000DA80069803F10044324644600660DAE9A8
:1043A000000117F0E1FE0B460099002902460EDDE0
:1043B000012410461946FAE9022317F0D7FE0B46EE
:1043C00000990134A1420246F3DA029909B103F1DE
:1043D00000431946069B1046C3E90201079B03F000
:1043E00007000DF5197DBDE8F08F049C002208340C
:1043F000544413461046194674E9022317F0B6FEDA
:10440000A24502460B46F5D1029909B103F10043DA
:104410001946069B1046C3E90001079B03F00700FD
:104420000DF5197DBDE8F08F00260027EAE9026747
:10443000DA4509F108097FF4E4AC02E5009B002BA2
:1044400008F10108C8BF02253FF78CAD32463B4654
:104450000020634917F088FE022506460F46DFE577
:1044600000260027DCE6049B002B26DD0024049BAD
:10447000012B3FF4A8AD022B09D1009B5A1E0CABB7
:104480000CA953F82230C3F3150341F82230022D52
:104490007FF4C6AD32463B460020514917F064FE1A
:1044A00006460F46002C3FF4BBADABE50099013347
:1044B000994278D1049B002BD9DC022D7FF4B0AD5A
:1044C00032463B460020464917F04EFE06460F4650
:1044D000A6E50123D1E53946049F02957A4230468C
:1044E000CDF81C8000F058FD00223E4B04460D46DE
:1044F00018F074FA002862D000223B4B204629466F
:1045000017F0E6FF18F094FA064617F07BFF00223A
:10451000344B17F0DDFF02460B462046294617F0C4
:1045200023FE18F085FA00990B4601331A460093D2
:104530003B46183304930B460CA941F8230013465D
:1045400041F8236014E6069B3246C3E900010B469E
:10455000DAE9000117F008FE0B460099002902462F
:104560003FF726AF1946069B1046C3E9020135E71F
:1045700018462946DAE90023DAE90245069FC7E929
:104580000401C7E90023C7E90245E6E6A29B032B25
:104590003FF6E3AEDFE803F0211C1C0E009B012B6D
:1045A00088DD0CAA012352F8044F002C3FF47EAFA3
:1045B000581CDDE40DF5907A00231D46B4E629462B
:1045C000204618F035FA009A0CA941F82200CFE5F0
:1045D000002633460DF5907AD5E60022134613E700
:1045E0000000F03F000070410000703E000000003D
:1045F0002DE9F04F21F00046B6F1795F85B00C4609
:1046000090469946054604DA18F012FA002800F0A0
:1046100085802A4623462846214617F059FF06463C
:104620000F4602460B462846214617F051FF3EA38F
:10463000D3E9002382468B463046394617F048FFBF
:104640003BA3D3E9002317F08FFD32463B4617F01A
:104650003FFF39A3D3E9002317F088FD32463B46DC
:1046600017F036FF36A3D3E9002317F07DFD32465D
:104670003B4617F02DFF34A3D3E9002317F076FD56
:104680000E9BCDE900019BB30022334B40464946C7
:1046900017F01EFFDDE90023CDE90201504659461F
:1046A00017F016FF02460B46DDE9020117F05CFD2C
:1046B00032463B4617F00CFF42464B4617F054FD7E
:1046C00023A3D3E9002306460F465046594617F068
:1046D000FFFE02460B463046394617F047FD0246BC
:1046E0000B462846214617F03FFD05B0BDE8F08F88
:1046F00002460B463046394617F0EAFE14A3D3E9CA
:10470000002317F031FD52465B4617F0E1FE2A46C2
:10471000234617F02BFD05B0BDE8F08F2846214653
:1047200005B0BDE8F08F00BF7CD5CF5A3AD9E53D42
:10473000EB9C2B8AE6E55A3E7DFEB157E31DC73E52
:10474000D561C119A0012A3FA6F810111111813FAE
:10475000495555555555C53F0000E03F0000000044
:104760002DE9F04FDA4C21F00046A64287B08A4688
:1047700089461746984683461ADC18F059F9A8BBB3
:104780005B461E43109B0133334300F0A981109B0D
:10479000012B00F0B9815A4653460020CD4917F04D
:1047A000C1FF04460D462046294607B0BDE8F08FFC
:1047B000C94B9E421ADD0029C0F29F815A465346DA
:1047C000A5A1D1E9000117F0CFFC3A4643460446C3
:1047D0000D46A3A1D1E9000117F0C6FC22462B46E5
:1047E00017F0C4FC002783468A46B8465A4653460B
:1047F0005846514617F06CFE03460C46CDE900348E
:1048000002460B4617F064FEDDE9002304460D4620
:104810005846514617F05CFE93A3D3E90023CDE937
:1048200002012046294617F053FE91A3D3E9002345
:1048300017F09CFC22462B4617F04AFE8EA3D3E9C4
:10484000002317F093FC22462B4617F041FE8CA361
:10485000D3E9002317F08AFC22462B4617F038FED6
:1048600089A3D3E9002317F081FC22462B4617F0D9
:104870002FFE87A3D3E9002317F078FCDDE900239E
:1048800017F026FE84A3D3E90023CDE904012046D6
:10489000294617F01DFE82A3D3E9002317F066FC1A
:1048A00022462B4617F014FE7FA3D3E9002317F00E
:1048B0005DFC22462B4617F00BFE7DA3D3E90023B7
:1048C00017F054FC22462B4617F002FE7AA3D3E9D8
:1048D000002317F04BFC22462B4617F0F9FD78A376
:1048E000D3E9002317F042FC02460B46DDE9040140
:1048F00017F03CFCDDE9022317F0EAFD3A46434697
:1049000017F034FCDDE9002317F0E2FD02460B4608
:104910003846414617F02AFC6BA3D3E9002304462E
:104920000D46DDE9020117F0D3FD22462B4617F0B4
:104930001DFC0B46024651465846CDE9002317F0B0
:1049400015FC654B9E4204460D463EDC109B012B38
:1049500036D002460B4600205E4917F0E3FE0024E5
:104960000F4606465A4653462046294617F0FCFB9A
:10497000A04602460B46DDE9000117F0F5FB424672
:104980003B4617F0A5FDA94604460D4642463B4668
:104990004046494617F09CFD0022504B17F0E6FBBD
:1049A00002460B462046294617F0E0FB32463B46BE
:1049B00017F08EFD42463B4617F0D8FB04460D46E5
:1049C0002046294607B0BDE8F08F109817F01AFD71
:1049D000224606460F462B462046294617F078FD0C
:1049E0003246CDE902013B462046294617F0BEFB80
:1049F00002460B46DDE9020117F094FEDDE90023D3
:104A000017F0B2FB02460B465846514617F0ACFB76
:104A100002460B4617F0AAFB02460B4630463946C3
:104A200017F0A2FB04464FEAA97000F00200C0F1A3
:104A300001000D4617F0E6FC02460B4620462946CB
:104A400017F046FD04460D462046294607B0BDE84E
:104A5000F08F00BFAFF30080182D4454FB21E93FD5
:104A6000075C143326A6813CD47ABF74702AFB3EBF
:104A7000E9A7F0320FB8123F68108D1AF726303FC1
:104A80001583E0FEC8DB573F93846EE9E326823F3F
:104A9000FE41B31BBAA1AB3F735360DBCB75F3BED2
:104AA000A69237A0887E143F0165F2F2D844433FB6
:104AB000280356C9226D6D3F37D60684F464963FAD
:104AC0007AFE10111111C13F635555555555D53F0B
:104AD000FFFF2F3E0000F0BF2794E53F0000F03FAE
:104AE0005846514618F06EFA02460B460020084917
:104AF00017F018FE04460D4662E701F1004308F185
:104B0000004883469A4659E65C46554658E700BF3A
:104B10000000F03F000000002DE9F04FD24A21F0E4
:104B20000043934285B00C460E4605462DD9CF4A28
:104B300093421AD8002E80F21681B5A3D3E9002340
:104B40002846214617F012FB0022002317F032FFFF
:104B5000C0B9B1A3D3E900232846214617F0B8FC19
:104B600002460B460020C24908E1C24A934240F285
:104B7000D0800346C1F31302134340F0F6810029AD
:104B800080F2C4800020BC49C0E0BC4A934200F2DD
:104B90002981BB4A934240F2DE8000230193002228
:104BA000B84B2846214617F093FC06460F460246AE
:104BB0000B462846214617F08BFC99A3D3E9002326
:104BC00082468B4617F084FC97A3D3E9002317F0A5
:104BD000CDFA52465B4617F07BFC95A3D3E9002340
:104BE00017F0C2FA52465B4617F072FC92A3D3E963
:104BF000002317F0BBFA52465B4617F069FC90A3FE
:104C0000D3E9002317F0B0FA52465B4617F060FC78
:104C100000229D4B17F0AAFA8046894602460B46B1
:104C20003046394617F054FC02460B46002097499F
:104C300017F09AFA064602460B460F46404649468A
:104C400017F092FA3246804689463B46284621466E
:104C500017F03EFC02460B4600208D4917F084FAFF
:104C600002460B464046494617F05CFD52465B46FD
:104C700017F02EFC019E02460B46002E38D0DDE9CF
:104C8000026732463B4617F06FFA2A46234617F072
:104C90001FFC32463B4617F067FA5B46524617F058
:104CA00063FA019B013306460F4600F00F81019B1A
:104CB000012B00F0F180019B0133392B39D8019B86
:104CC000132B40F31281019FC7F57F760336002234
:104CD000330517F04BFA02460B462846214617F0DB
:104CE00043FA0022684B17F041FA01EB07510DE03F
:104CF0002846214617F0ECFB52465B4617F034FA83
:104D000002460B462846214617F02EFA05B0BDE8AC
:104D1000F08F4DA3D3E9002317F06AFE00283FF47B
:104D200009AF4BA3D3E900231046194617F0D0FB77
:104D3000ECE72A46234617F017FA02460B460020F6
:104D4000514917F011FA019A4F4B01EB0251002221
:104D500017F00AFADAE73EA3D3E9002317F006FAC0
:104D600002460B46CAE72CA3D3E900232846214676
:104D700017F0AEFB0B4643490246002017F0F6F948
:104D800017F056FE019017F03DFB33A3D3E9002343
:104D900006460F4617F09CFB02460B462846214666
:104DA00017F0E2F92EA3D3E9002380468946304666
:104DB000394617F08DFB06460F4632463B464046C5
:104DC000494617F0D1F902460B4605460C464046C7
:104DD000494617F0C9F932463B4617F0C5F9CDE907
:104DE0000201DCE62B4A934200F2978000291AA3C5
:104DF000D3E90023C0F2AE8017F0B6F90123804654
:104E00008946019316A7D7E90067D6E7AFF300807C
:104E100059F3F8C21F6EA501FE822B654715F73FB7
:104E20002DC3096EB7FD8ABE3952E686CACFD03E81
:104E3000B7DBAA9E19CE143F8555FE19A0015A3F33
:104E4000F41011111111A13FEF39FAFE422E8640E4
:104E50009C7500883CE4377E0000E0FE422EE63F71
:104E6000763C7935EF39EA3D79684340412E8640FA
:104E70000000E0BFFFFFEF7F0000F0BF422ED63FF3
:104E8000FFFF8F3C0000E03F0000F03F00000840C3
:104E900000001840B1A2F03F2846214600223A4BBC
:104EA00017F088FD002846D0284621460022374BBF
:104EB00017F05CF902460B463046394617F054F9B4
:104EC00000224FF0404317F003FB1FE732463B46FA
:104ED0002846214617F048F900222C4B17F0F8FA23
:104EE00000222A4B17F040F910E7019E4FF4001EF4
:104EF0004EFA06FE2A462346CEF17F5717F034F9C4
:104F0000002607F5401702460B463046394617F093
:104F10002BF9019E01EB0651F8E617A3D3E9002314
:104F200017F0D6FA002C02460B464FF00000FFF6B1
:104F30001AAE164922E732463B462846214617F06C
:104F400013F902460B4617F011F90022104B17F027
:104F50000DF9DBE617F00AF94FF0FF33804689467A
:104F6000019307A7D7E9006727E702460B4617F02A
:104F7000FDF8CBE6AFF30080FE822B654715F73FC7
:104F8000763C7935EF39EABD0000D0BF0000E03F44
:104F90000000F03F00000000F8B5C1F30A560446D7
:104FA0000D460B4617460EBB21F0004303438646D1
:104FB00025D00022344B17F08BFA344A974204462E
:104FC0000D460B462ADBC1F30A56363E3E4440F2FC
:104FD000FE72964228DC002E12DD23F0FF4323F4FC
:104FE000E00343EA065520462946F8BD40F2FF7229
:104FF0009642EBD102460B4617F0B8F8F8BDF8BD63
:1050000016F1350F1DDA4CF250339F4222462B46E3
:1050100025DC19A1D1E900011AF06AF816A3D3E939
:10502000002317F055FAF8BD22462B4614A1D1E90A
:1050300000011AF05DF812A3D3E9002317F048FA33
:10504000F8BD23F0FF4323F4E003363643EA065568
:105050002046294600220E4B17F03AFAF8BD08A167
:10506000D1E900011AF044F805A3D3E9002317F0B1
:105070002FFAF8BDAFF3008059F3F8C21F6EA501F7
:105080009C7500883CE4377E00005043B03CFFFF35
:105090000000903C10B5054C237833B9044B13B194
:1050A0000448AFF300800123237010BDC803002023
:1050B00000000000142803080C4B43B10C480D49B4
:1050C00010B5AFF300800C48036823B910BD0A483F
:1050D000036833B97047094B002BF7D0BDE8104087
:1050E0001847064B002BF5D0184700BF0000000002
:1050F00014280308CC030020B003002000000000A7
:1051000070B504460E4600F0D1F888B10368DB6A3A
:1051100005469847082C0CD0A4F10903012B14D99B
:105120003246214610230D20BDE8704004F0C6B879
:1051300070BD2B6828465B6A98470228F0DC2B6814
:1051400028461B6A04219847EAE72B6828465B6AD1
:1051500098470528E4DC2B6828461B6A08219847F5
:10516000DEE700BF30B52DED028B83B0054600F0C1
:105170009DF8044640B10368DB6A9847032D50D878
:10518000DFE805F0373F47080190019803B0BDEC18
:10519000028B30BD20460CF0D1FB07EE900A204672
:1051A000F8EEE78A0CF0D8FB07EE900A2046B8EE3E
:1051B000E78A0CF0DFFB68EE087A07EE100AE8EEEB
:1051C000A87AB8EEC77AE7EE077AF5EE407AF1EE04
:1051D00010FAB1EEE78A03D517EE900A18F0A8FD91
:1051E000FDEEC87ACDED017A019803B0BDEC028BDB
:1051F00030BD204603B0BDEC028BBDE830400CF062
:105200009DBB204603B0BDEC028BBDE830400CF0E6
:10521000A3BB204603B0BDEC028BBDE830400CF0D0
:10522000A9BB00230193B0E738B5054600F03EF86E
:1052300058B10368DB6A0446984745B1012D04D193
:105240002046BDE83840FBF747BA002038BD20466D
:10525000BDE83840FBF720BA10B5044600F026F848
:1052600028B1036821461B6ABDE81040184710BDED
:105270000048704716FCFFFF704700BF10B5034B96
:10528000036004460CF056F9204610BDF0110308E7
:1052900010B5054B036004460CF04CF920461AF09B
:1052A00058FB204610BD00BFF01103082DE9F04364
:1052B000BD4C236885B01BB1986805B0BDE8F0838C
:1052C0004FF0FF31012001F0F9FC04F0EBFF002862
:1052D00000F0EC800C201AF03EFB4FF0FF31064648
:1052E000462001F0EBFC68280CBF3321032151203C
:1052F00001F0E4FCDFF8E0E2AC4B054605F00F07F7
:10530000C5F3031815F4807508BF7346A8483946DD
:1053100042460BF017FB2A1C18BF012239464346B0
:1053200030460FF02DF80023A248B3600BF00AFBC3
:105330004FF0FF31032001F0C1FC04F0B3FF4FF048
:10534000FF310546022001F0B9FC04F0ABFF002D4F
:1053500000F09580002800F092800146284604F075
:10536000BDFB0746002800F09D803821462001F053
:10537000A5FC322880462AD027DD382866D0682848
:105380003DD14FF0FF31012001F098FC04F08AFF7D
:1053900081465C201AF0DFFA0523054601934A4650
:1053A000CDF80080394633460EF03AF82846B06012
:1053B00003689B6A9847B0680368DB6A98477E4831
:1053C0000BF0C0FA2660B06877E7302817D14FF0AD
:1053D000FF31012001F072FC04F064FF814650208F
:1053E0001AF0B9FA1FFA88F1054605234A460091DA
:1053F0000193394633460DF0E5FD2846D7E73A6874
:105400000125002301950095D2F82480B3600F2276
:105410000DF10F0332213846C047002851D14FF01B
:105420003208414665480BF08DFA4FF0FF310120FC
:1054300001F044FC04F036FF814650201AF08BFA4C
:10544000052305464A46CDF80080D1E74FF0FF31ED
:10545000012001F033FC04F025FF814650201AF0B2
:105460007AFA052305464A46CDF80080394601936D
:1054700033460DF0B1FE524B2B60284697E751485A
:105480000BF060FA4FF0FF31192001F017FC04F027
:1054900009FF4FF0FF310546182001F00FFC04F022
:1054A00001FF5AE748480BF04DFA8BE74FF0FF3108
:1054B000032001F003FC04F0F5FE00287FF40AAF9E
:1054C000FBE63B6801950095D3F824800F220DF18F
:1054D0000F0330213846C04718B94FF03008414615
:1054E000A0E73B6801950095D3F824800D220DF1CB
:1054F0000F0338213846C047B8B938212F480BF080
:1055000021FA4FF0FF31284601F0D8FB04F0CAFE23
:10551000804650201AF01FFA4FF0050E382305463A
:10552000424639468DE80840A2E73A680195009561
:10553000D2F824800DF10F03752268213846C04748
:10554000D8B968211D480BF0FDF94FF0FF3128460E
:1055500001F0B4FB04F0A6FE80465C201AF0FBF9D3
:105560004FF0050E682305468DE80840424639464F
:1055700033460DF055FF284619E714480BF0E2F9C1
:10558000B06800287FF414AF4FF0FF31032001F022
:1055900095FB04F087FE18B10D480BF0D3F911E725
:1055A0000C480BF0CFF90DE7E40300207402030868
:1055B00084020308A40203083C03030860030308F1
:1055C00040020308B4020308C80203084C0303089E
:1055D000E00203081C0303087C02030808B501F07D
:1055E00095FCFBF739FEBDE8084001F0FDB900BFAE
:1055F00008B501F08BFCFBF79FFEBDE8084001F009
:10560000F3B900BF08B501F081FC17F051FDBDE80A
:10561000084001F0E9B900BF08B501F077FC18F0C7
:10562000C3FABDE8084001F0DFB900BF08B501F0DA
:105630006DFCFBF721FEBDE8084001F0D5B900BFC5
:1056400008B501F063FC17F065FFBDE8084001F004
:10565000CBB900BF08B501F059FCFBF75DF8BDE818
:10566000084001F0C1B900BF08B501F04FFC17F0C8
:10567000A5FEBDE8084001F0B7B900BF70B5049EB3
:1056800096420C4628DB15466BB1002A00EB02015E
:1056900007DD2046A21811F8013D00F8013B9042B9
:1056A000F9D1002070BD042A0FD0022A02D110F0D7
:1056B000010306D001462A46204607F0CBFB002016
:1056C00070BD02880A80184670BD10F00303F1D146
:1056D00002680A60184670BD0846002108F0AAFD5D
:1056E0004FF0FF3070BD00BF0830704740B1002957
:1056F00005DB4368994202DA0844007A70470020CB
:10570000704700BF30B1002904DB43689942BCBF39
:1057100040180272704700BF40B1002905DB4368A2
:10572000994202DA0844007A70470020704700BFAF
:10573000830705D120B1030F0CBF01200020704763
:105740000120704730B1002904DB43689942BCBF97
:1057500040180272704700BF002B23DB002921DBB9
:1057600070B54668B1421ADC5568761A1446EA1AD2
:10577000B242A8BF3246002A11DB84420D4607D050
:10578000083408300844E11807F064FB002070BDBD
:105790000834E11860191AF018F9002070BD4FF0B4
:1057A000FF3070BD4FF0FF30704700BF406870475A
:1057B00010B4141E10DB426894420DDC33EA23035C
:1057C00028BF1346121B08309A422044A8BF1A462D
:1057D0005DF8044B08F02EBD5DF8044B704700BF28
:1057E00043688B4210B400F108041846A8BF08466D
:1057F00032EA220128BF19461B1A99422044A8BF49
:1058000019465DF8044B00F0F3BE00BF002BBCBF8F
:1058100043689B1A002A70B50E4620DB446899182D
:10582000A1421CDC8A421ADCCBB136F0004116D012
:1058300059428E4214DDB34212DD0830002E00EBD7
:10584000020515DB9C1B2246A91928461AF0BDF853
:10585000324628190021BDE8704008F0EBBC70BD4D
:10586000002211464FF0FF33BDE87040FFF7A0BFA4
:1058700074429A19294628191AF0A7F82246284690
:105880000021BDE8704008F0D5BC00BF03460830D9
:10589000596800F02DBE00BF70B504460020616855
:1058A000490000F0A7FD6668002E11DD094D04F1E6
:1058B000080100EB4606034611F8012B141102F013
:1058C0000F022C5DAA5C9C71DA7102339E42F3D107
:1058D00070BD00BF74030308002BBCBF43689B1A54
:1058E000002A2FDB70B445689C18AC4229DCA24228
:1058F00027DC33B331F0004423D00029B8BF01EBDB
:10590000032191FBF3F603FB1616002E00F10800AD
:10591000B8BFF61802441644B242134411D03046C0
:1059200004E0B24208460ED090420AD001461478F4
:1059300011F8015B02F8015B8B420470F1D1304633
:10594000F2E770BC70470E46EEE700BF00B583B0CB
:105950004FF0FF3300930023FFF7FEFE03B05DF826
:1059600004FB00BF10B50C1E0EDD4168083002F0CC
:10597000F5F81F2C09DC0123A34020FA04F4013BB5
:10598000444004EA030010BD002010BD0146002081
:1059900000F02EBE38B50021054600F0D7FD0146C7
:1059A000002000F025FE044600F10801284600F022
:1059B000CDFD204638BD00BF30B5013A83B0044666
:1059C0000D460F2A16D8DFE802F01717838D9417BB
:1059D0002E08081F424D5C367462184601F02AFBFF
:1059E000012DADF8000005DD9DF800209DF8013087
:1059F0002370627003B030BD184601F01BFB002D10
:105A0000F8DD207003B030BD184601F013FB032D04
:105A10000090EFDD6A46231D12F8011B03F8011DFB
:105A20009C42F9D1E6E7184601F004FB002DC0B214
:105A3000E0DD2070E6E7184601F068FA072DCDE9B1
:105A40000001D7DD6B4603CB20606160D2E71846CA
:105A500001F084FA032DCDDDA3070CBF2060206088
:105A600003B030BD184601F079FA032D0090C1DD76
:105A70006A46231D12F8011B03F8011D9C42F9D14F
:105A8000B8E7184601F06EFB032DE5DCB2E71846D7
:105A900001F03CFA072DCDE90001ABDD0DF1FF323D
:105AA00004F1080312F8011F03F8011DA342F9D104
:105AB000A0E7184601F056FB032D00909ADD6A46D8
:105AC000231D12F8011B03F8011DA342F9D191E730
:105AD000184601F0AFFA012D8CDDE20754BF20809B
