:1000000000000220114F0100394F01003B4F010059
:100010003D4F01003F4F0100414F01000000000033
:10002000000000000000000000000000434F01003D
:10003000454F010000000000474F0100494F0100FB
:100040004B4F01004B4F0100B14D0100754D0100B8
:10005000894D01004B4F0100F54101004B4F01005C
:10006000554A01005D4A0100654A01004B4F0100FD
:100070004B4F01004B4F01004B4F01004B4F010014
:100080004B4F01004B4F01004B4F01004B4F010004
:100090004B4F01004B4F01004B4F01004B4F0100F4
:1000A0004B4F01004B4F01006D4A0100754A0100A2
:1000B0004B4F01004B4F010000000000000000000A
:1000C0004B4F01004B4F01004B4F01009D4D010074
:1000D0004B4F01004B4F01004B4F01004B4F0100B4
:1000E000D94D0100000000000000000000000000E9
:1000F000000000004B4F010000000000C54D010052
:1001000000000000000000000000000000000000EF
:1001100000000000000000000000000000000000DF
:1001200000000000000000000000000000000000CF
:1001300000000000000000000000000000000000BF
:1001400000000000000000000000000000000000AF
:10015000000000000000000000000000000000009F
:10016000000000000000000000000000000000008F
:10017000000000000000000000000000000000007F
:10018000000000000000000000000000000000006F
:10019000000000000000000000000000000000005F
:1001A000000000000000000000000000000000004F
:1001B000000000000000000000000000000000003F
:1001C000000000000000000000000000000000002F
:1001D000000000000000000000000000000000001F
:1001E000000000000000000000000000000000000F
:1001F00000000000000000000000000000000000FF
:100200007CB0EE877CB0EE87FF00FF00FF00FF00B0
:10021000FF00FF00FF00FF00FF00FF00FF00FF00E6
:10022000FF00FF00FF00FF00FF00FF00FF00FF00D6
:10023000FF00FF00FF00FF002DE9F04F85B00391A4
:100240000778A7F10903042B044607F07F0200F1A9
:100250000100F5D9202AF3D02B2F04BF677804467C
:100260002D2F72D09FED427B8DED007B4FF000086B
:100270004FF000098FB34FF0000E4FF0000ADFF887
:1002800000B1754619E017F0C9FC80468946304632
:1002900017F05EFC42464B4617F00EFB5246804676
:1002A00089465B46DDE9000135B317F0E1FDCDE994
:1002B0000001AE4614F8017F7FB1A7F13006092E88
:1002C00052465B4640464946DDD9C5B92E2F16D168
:1002D00014F8017F0125002FEFD142464B46DDE99E
:1002E000000117F09BFC80468946039B4046494627
:1002F0001C6005B0BDE8F08F4FF0010EDAE7BEF1EB
:10030000000F29D042464B46DDE9000117F086FC7C
:1003100007F0DF07452F80468946E6D10399601C28
:100320000A2217F0ADFA16490246002017F0D6FF50
:1003300002460B464046494617F070FC8046894607
:100340004046494605B0BDE8F08F9FED0B7B6778CE
:100350008DED007B013489E7DFF828904FF000082D
:100360004046494605B0BDE8F08F00BFAFF30080BE
:10037000000000000000F03F000000000000F0BF9F
:10038000000024400000F87F2DE9F84F16460023B6
:10039000002204460D4617F0B3FE002840F09D8071
:1003A000002200232046294617F0A0FE28B1302263
:1003B000002332707370BDE8F88F2046294615F08F
:1003C0009FFD17F0DBFE7BA3D3E90023814629467E
:1003D000204617F095FE002800F08680B9F1000F46
:1003E000C0F2BE804A4600206F4917F077FF0246F0
:1003F0000B462046294617F03BFD04460D4666A1F4
:10040000D1E9000101274FF0000822462B4617F0E2
:1004100005FC0022654B17F04FFA17F09BFF002FE9
:10042000CC464FF0FF3AC1464FF0000840F38580BC
:10043000DFF888E15E4C0122AEF1700945F6F32544
:100440004FF02E0BA94208BFA0424FF0300309D352
:10045000001B61EB0501A94208BFA04203F10103A3
:10046000F6D2DBB2337050EA010306F1010409D180
:10047000BA4210DACE4502F101020CD026467EE8DF
:100480000245DFE7BA4204BF86F801B0B41CCE458E
:1004900002F10102F2D1B8F1000F0DD02246302155
:1004A00002F8011BC2F1010353442344002BF7DC83
:1004B0002AEAEA7301331C44BCF1010F4CD06523D6
:1004C000BCF1000F2370C5BF2B236370611CA11CFE
:1004D0006046BDE8F84F0FF067BA05F100431D46CE
:1004E0002D23337001365BE72DA3D3E9002320468B
:1004F000294617F023FE00287FF470AFB9F10E0FE4
:1005000009F101073DDDA9F10E0842460020264908
:1005100017F0E4FE02460B462046294617F0A8FCD9
:100520000022224B17F0C8F917F014FF002FA9F191
:100530000F0A4FF0010C3FF77BAF334630222E24D9
:1005400003F8022B74707FEA090618D01E4403F8E2
:10055000012BB342FBD16BE700232370BDE8F88F7A
:10056000C9F100020020104917F0B8FE02460B4600
:100570002046294617F052FB04460D463FE71E462B
:1005800056E7C9F10E0200200749C84617F0A6FE3B
:100590004FF0010939E700BF0000901EC4BCD642ED
:1005A00050EFE2D6E41A4B44000024400000E03F44
:1005B00000407A108DEDB5A0F7C6B03E488E010020
:1005C00070B54FF0FF3006F0B5F904466FF07F408C
:1005D00006F0B0F90646204617F0AAFA00220C4BA6
:1005E00017F01CFB044630460D4617F0A1FA06A38F
:1005F000D3E9002317F03CFC02460B46204629466F
:1006000017F05AF970BD00BF0000E0DFFFFF6F4335
:100610000000F03D0000000008B510F071FCDFEDB7
:100620000C7A07EE100A67EE277A17EE900A17F099
:10063000A1FA05A3D3E9002317F01AFC17F09EFDD9
:1006400008BD00BFAFF30080EA2E4454FB211940DF
:100650000000B4430000000008B510F065FCDFEDB9
:100660000C7A07EE100A67EE277A17EE900A17F059
:1006700081FA05A3D3E9002317F0FAFB17F07EFDFA
:1006800008BD00BFAFF30080EA2E4454FB2119409F
:100690000000B44300000000494A21F000439342A7
:1006A0002DE9704304460D464BDC464A93420E4604
:1006B0000EDC3FA3D3E9002317F0FEF80022424BE3
:1006C00017F03CFD00284CD020462946BDE8708339
:1006D0003E4A93423BDCB3F1804F42DD15F00AF80D
:1006E0002246804689462B462046294617F096FA30
:1006F0000022354B17F0E0F815F03AFF02460B46A2
:100700004046494617F0D8F802460B4600202E49CD
:1007100017F0AEFB424604460D464B46404649465E
:1007200017F0CAF802460B462046294617F0C4F8CF
:1007300002F06AF8002EC9DC01F100431946BDE859
:10074000708302460B4617F0B7F8BDE8708314F0CB
:10075000D1FF02F059F818A3D3E9002317F0ACF841
:10076000E8E722462B462046294617F057FA8046EE
:1007700089462046294614F0BDFF002204460D4656
:10078000114B4046494617F097F815F0F1FE00224C
:100790000D4B17F091F802460B464046494617F0BC
:1007A00067FB22462B4617F087F800F0C5FAC1E731
:1007B0009C7500883CE4377EEF39FAFE422EE63F16
:1007C000FFFFEF7FFFFF2F3E0000F03F0000B04132
:1007D0002DE9F84FC44B21F000469E4204460D46D9
:1007E0008A460EDDC14B9E4200F3AC8000F0A7802C
:1007F000BAF1000F40F3EA809FA1D1E90001BDE802
:10080000F88FBB4B9E4200F3B580A3F1DE739E428E
:1008100040F3A0804FF0FF3B22462B46204629465E
:1008200017F0FCF902460B468046894617F0F6F9A8
:1008300093A3D3E9002306460F4617F0EFF992A3DE
:10084000D3E9002317F038F832463B4617F0E6F9B3
:100850008FA3D3E9002317F02FF832463B4617F059
:10086000DDF98DA3D3E9002317F026F832463B4685
:1008700017F0D4F98AA3D3E9002317F01DF8324604
:100880003B4617F0CBF988A3D3E9002317F014F8FF
:1008900042464B4617F0C2F985A3D3E900238046B0
:1008A00089463046394617F0B9F983A3D3E90023C6
:1008B00017F000F832463B4617F0B0F980A3D3E9B1
:1008C000002316F0F7FF32463B4617F0A7F97EA348
:1008D000D3E9002316F0EEFF32463B4617F09EF9AF
:1008E0007BA3D3E9002316F0E5FF32463B4617F021
:1008F00095F9BBF1FF3F02460B466CD04046494696
:1009000016F0DAFF22462B4617F088F9794E7A4B1B
:100910004FEACB0B5E449B44DBE9002316F0CAFF91
:1009200022462B4616F0C6FF02460B46D6E90001CA
:1009300016F0C0FFBAF1000F43DBBDE8F88F0028C6
:100940003FF456AF22462B462046294616F0B4FF08
:10095000BDE8F88F60A3D3E9002316F0ADFF0022B5
:10096000664B17F0EBFB00283FF454AF20462946B6
:10097000BDE8F88F14F0BEFE614B9E4204460D4662
:1009800039DCA3F550239E425EDC02460B4616F08E
:1009900093FF0022594B16F08DFF002206460F46AA
:1009A0004FF080432046294616F086FF02460B464C
:1009B0003046394617F05CFA4FF0000B04460D46FE
:1009C0002AE701F100431946BDE8F88F44A1D1E9B7
:1009D0000001BDE8F88F4046494616F06DFF2246FB
:1009E0002B4617F01BF902460B462046294616F007
:1009F00061FFBDE8F88F434B9E421ADC0022424B58
:100A000016F058FF002206460F463F4B2046294667
:100A100017F004F90022394B16F04EFF02460B4640
:100A20003046394617F024FA4FF0020B04460D46C3
:100A3000F2E602460B460020344917F019FA4FF04F
:100A4000030B04460D46E7E600222C4B16F032FF5E
:100A5000002206460F46294B2046294616F02CFF59
:100A600002460B463046394617F002FA4FF0010BAA
:100A700004460D46D0E600BF182D4454FB21F93F33
:100A800011DA22E33AAD903FEB0D76244B7BA93F80
:100A9000513DD0A0660DB13F6E204CC5CD45B73F4E
:100AA000FF8300922449C23F0D5555555555D53FFA
:100AB0002F6C6A2C44B4A2BF9AFDDE522DDEAD3FEE
:100AC0006D9A74AFF2B0B33F711623FEC671BC3F8E
:100AD000C4EB98999999C93F9C7500883CE4377E8E
:100AE000182D4454FB21F9BFFFFF0F440000F07F95
:100AF000FFFFDB3F588E0100788E01000000F03FC1
:100B0000FFFFF23FFF7F03400000F83F0000F0BF0F
:100B10002DE9F843C1F30A59A9F2FF35132D024616
:100B20000B460C4606468846074622DC002D50DB65
:100B3000DFF8F09049FA05F901EA090E5EEA0606C7
:100B40001CD036A3D3E9002316F0B6FE0022002302
:100B500017F0F4FA48B1002C04DD4FF4801343FA87
:100B600005F5A84428EA0904002721463846BDE8CF
:100B7000F883332D06DDB5F5806F3DD0104619465C
:100B8000BDE8F883A9F213494FF0FF3E2EFA09F9A8
:100B900010EA090FF2D021A3D3E9002316F08CFE4E
:100BA0000022002317F0CAFA0028DED0002C09DD4D
:100BB000142D2BD00127C5F1340507FA05F5AE1920
:100BC00028BFB844444626EA090721463846BDE80E
:100BD000F88312A3D3E9002316F06EFE002200234F
:100BE00017F0ACFA0028C0D0002C0BDB54EA060743
:100BF00006D00027084CB8E716F05EFEBDE8F88383
:100C00003C46B2E700274FF00044AEE704F101088C
:100C1000D8E700BFAFF300800000F03F9C7500886C
:100C20003CE4377EFFFF0F002DE9F041C1F30A5786
:100C3000A7F2FF35132D02460B460C4688460646A2
:100C40001CDC002D3FDB3A4F2F41864601EA070CA2
:100C50005CEA0E0E17D034A3D3E9002316F02CFE65
:100C60000022002317F06AFA20B1002C3FDB28EAAB
:100C70000704002621463046BDE8F081332D06DD0D
:100C8000B5F5806F2FD010461946BDE8F081A7F268
:100C900013474FF0FF3E2EFA07F73842F3D022A356
:100CA000D3E9002316F008FE0022002317F046FACD
:100CB0000028DFD0002C20DB444626EA0706214628
:100CC0003046BDE8F08118A3D3E9002316F0F4FD07
:100CD0000022002317F032FA0028CBD0002C17DBBB
:100CE00000263446C6E716F0E7FDBDE8F0814FF474
:100CF000801343FA05F5A844B9E7142D10D0012359
:100D0000C5F1340503FA05F5AE1928BF9844D3E7B9
:100D100024F00042074B324318BF1C460026A9E7C7
:100D200004F10108C8E700BF9C7500883CE4377EE9
:100D3000FFFF0F000000F0BF2DE9F04FD84B9942A4
:100D400087B0804689460E4613DCD64B21F000441E
:100D50009C4218DD0022D44B17F0C8F9002879D046
:100D6000002200230020D14917F082F807B0BDE827
:100D7000F08FCF4B99422FDD42464B4616F09CFD3B
:100D800007B0BDE8F08FCB4B9C4270DDCA4B1E44D0
:100D90009E427ED80022C94B4046494616F08CFD43
:100DA0004FEA215AAAF2FF3ABAF1000F04460D4663
:100DB0000E4640F3DE8142464B4616F07BFD02466E
:100DC0000B460020BD4916F075FD22462B4617F054
:100DD0004FF8CDE902010BE0B94B9E42DADD9FED01
:100DE0009A7B8DED027B4FEA265A4446AAF2FF3ADF
:100DF000B44BC6F313069E4246F07F5500F3E780DE
:100E000045F44015204629460022AC4B16F052FD11
:100E1000002204460D46AC4B16F000FF22462B463E
:100E200016F0FCFEA046CDE90401A946CDE900017B
:100E3000002E3AD1002200232046294617F056F909
:100E4000002800F0CE80BAF1000F40F0748100203D
:100E5000002195E742464B464046314616F02AFDB2
:100E600002460B4617F004F807B0BDE8F08F0022E9
:100E7000964B16F021FD0022002317F05FF90028A1
:100E800000F0CC80924B9C4200F3C880404649461B
:100E900076E700228C4B16F0C1FE42464B4616F018
:100EA000BDFECDE900014FF0000A00224FF0804363
:100EB0004046494616F000FD02460B46404649466C
:100EC00016F0D6FF02460B4606460F4616F0A6FE63
:100ED0005FA3D3E9002304460D4616F09FFE5EA3F0
:100EE000D3E9002316F0E8FC22462B4616F096FEC6
:100EF0005BA3D3E9002316F0DFFC22462B4616F055
:100F00008DFE59A3D3E9002316F0D6FC22462B46CA
:100F100016F084FE56A3D3E9002316F0CDFC22463A
:100F20002B4616F07BFE54A3D3E9002316F0C4FC35
:100F300022462B4616F072FE51A3D3E9002316F089
:100F4000BBFC22462B4616F069FE04460D46BAF15C
:100F5000000F00F0BF80504616F0FAFD4AA3D3E917
:100F6000002382468B4616F059FEDDE90023CDE9C9
:100F700004012046294616F09FFC32463B4616F0F7
:100F80004DFE43A3D3E9002304460D46504659467F
:100F900016F044FEDDE9022316F08EFC02460B46F5
:100FA0002046294616F088FC02460B46DDE9000182
:100FB00016F080FC42464B4616F07CFC02460B467F
:100FC000DDE9040116F076FC07B0BDE8F08F45F4CA
:100FD0000015C6F5801620462946B6100AF1010A0A
:100FE00012E72DA3D3E900232046294616F016FE6A
:100FF00002460B460020314916F05CFCDDE9042373
:1010000016F00CFE06460F46BAF1000F73D10246E9
:101010000B462046294616F04DFCB1E642464B46AB
:101020004046494616F0FAFD0022274B16F0F6FD21
:1010300002460B464046494616F03CFC07B0BDE868
:10104000F08F00BFAFF30080000000000000000040
:1010500044523EDF12F1C23F9FC678D0099AC33F87
:10106000DE03CB966446C73FAF788E1DC571CC3F7B
:10107000599322942449D23F04FA97999999D93FD8
:10108000935555555555E53F0000E0FE422EE63F8D
:10109000763C7935EF39EA3D555555555555E53F7F
:1010A0007982DA3FFFFFEF3F0000F0BF000050C33E
:1010B000FFFFEF7FFFFF1F3E3C412D400000F03F50
:1010C000FFFF3F439DA006000000E03F00005043AB
:1010D000FFFF8F3CDDE9004522462B4616F0ECFB76
:1010E00032463B4616F09AFD02460B4620462946FC
:1010F00016F0E0FB9CE7504616F02AFD23A3D3E947
:10110000002382468B4616F089FD22A3D3E90023F3
:10111000804689465046594616F080FDDDE9022397
:1011200016F0CAFB02460B463046394616F0C2FBA3
:1011300022462B46DCE7504616F00AFD15A3D3E9FC
:10114000002306460F4616F069FDDDE9022316F07E
:10115000B3FB0EA3D3E9002304460D4630463946BF
:1011600016F05CFD02460B462046294616F0A4FB0D
:1011700006E60022044B16F09DFB02460B46404655
:10118000494616F097FB20E60000F03F0000E0FE25
:10119000422EE63F763C7935EF39EA3D000000000B
:1011A00008B514F02DFE04A3D3E9002316F060FE69
:1011B00008BD00BFAFF30080EF39FAFE422EE63FD4
:1011C0002DE9F043DFF8B4808BB004460D4601F002
:1011D000F3F898F90030013306460F462BD022462B
:1011E0002B462046294616F0B3FF814618BB204601
:1011F000294614F07FFA1FA3D3E9002316F09EFFBF
:10120000C8B1194A98F90030CDF820900321CDE9F2
:101210000445CDE902458DE806008BB9134B4FF02C
:101220006042CDE90623684616F046F970B1089B86
:101230009BB9DDE90667304639460BB0BDE8F0835F
:101240000B490020022BCDE90601ECD116F0C0FAC3
:1012500022230360089B002BEBD016F0B9FA089B01
:101260000360E6E7AFF3008064A00100FFFFEF47F3
:101270000000F07F7DF8B98FCE338640FF0100205B
:101280002DE9F043DFF8E4808BB004460D4601F011
:1012900043F998F90030013306460F4633D0204613
:1012A000294616F003F970B32CA3D3E90023204696
:1012B000294616F043FF814650BB2AA3D3E90023F9
:1012C0002046294616F01CFFE8B198F90030204A64
:1012D000CDF82090002600270421022BCDE90445FB
:1012E000CDE90245CDE906678DE8060029D06846BC
:1012F00016F0E2F828B3089B1BB116F069FA089BB8
:101300000360DDE90667304639460BB0BDE8F0837F
:101310000F4A98F90030019203210022CDE90445DB
:10132000CDE90245009108922BB90A4B4FF060427B
:10133000CDE90623DBE708490020022BCDE90601B1
:10134000D5D116F045FA22230360D4E7AFF300802D
:101350006CA00100FFFFEF470000F07FEF39FAFEBD
:10136000422E864051302DD5104987C0FF01002004
:101370002DE9F04FDFF80C938DB006460F4614466A
:101380001D4601F0C5FC99F90080B8F1FF3FCDE999
:10139000000136D022462B462046294616F0D8FEBC
:1013A000834670BB32463B463046394616F0D0FE87
:1013B0008246002840F0A2803046394600220023B1
:1013C00016F094FE10B3002200232046294616F0A2
:1013D0008DFE834600286AD09FEDA17B0122A44B9D
:1013E000CDF828A00292CDE90467CDE906458DED40
:1013F000087B0393B8F1000F45D09FED9B7B8DEDEB
:10140000007BDDE900010DB0BDE8F08FDDE90001F2
:1014100016F04CF88046002800F08D804FF0000A4E
:101420004FF0000BDDE9000152465B4616F05EFE10
:101430000028E6D03046394616F038F80028E0D0CB
:101440002046294616F032F80028DAD099F9003003
:10145000874A039204210022022BCDE90467CDE9DB
:101460000645CDE908AB02910A9203D002A816F016
:1014700023F868B916F0ACF92223036008E09FED69
:10148000787B8DED087B02A816F016F8002830D086
:101490000A9B1BB116F09CF90A9B03609DED087B2B
:1014A0008DED007BDDE900010DB0BDE8F08F204639
:1014B000294615F0FBFF0028A3D000220023204678
:1014C000294616F01DFE00289BD099F90030684A85
:1014D000CDF828B00121CDE90467CDE90645029198
:1014E0000392002BCBD063490020022BCDE90801E9
:1014F000C9D116F06DF921230360C9E7002200234A
:101500002046294616F0F2FD00283FF47AAF5A4BE8
:101510005749CDF828B000220120B8F1020FCDE9DB
:1015200004670290CDE90645CDE908230391AAD1CD
:10153000CDE9002365E73046394615F0B7FF0028AE
:101540003FF46CAF2046294615F0B0FF00283FF469
:1015500065AFDDE900231046194616F0F9FD0028B5
:101560005FD1032399F900800293414B0A90CDE9A2
:101570000467CDE906450393B8F1000F2BD1DFF8DE
:1015800008B14FF0604A0022002330463946CDE9C9
:1015900008AB16F0B5FD00283FF468AF0022374BCA
:1015A0002046294616F03AFB04460D4615F08CFFFE
:1015B00002460B462046294616F098FD70BB304B7C
:1015C00099F900804FF06042CDE90823B8F1020F8D
:1015D0007FF44CAF4EE7DFF8B4B04FF0000A0022C2
:1015E000002330463946CDE908AB16F089FD0028C6
:1015F000ECD00022214B2046294616F00FFB044672
:101600000D4615F061FF02460B462046294616F0AE
:101610006DFD18B9174B0022CDE9082399F9008018
:10162000D4E799F90090124BCDF828800122CDE93A
:101630000467CDE9064502920393B9F1000F3FF428
:101640001EAF002200231046194616F011FCB9F116
:10165000020FCDE908013FF44CAF14E7AFF300806F
:101660000000000000000000000000000000F03F4B
:1016700084A001000000F0FF0000F03F0000E03F08
:10168000FFFFEFC7FF010020FFFFEF470000F07FE3
:101690002DE9F84FC44E21F00043B34204460D46F5
:1016A0000DDD03F1404303F58013034340F0B9809F
:1016B000002940F3408100200021BDE8F88FBB4E97
:1016C000B34240F3A6800029C0F2788102460B465F
:1016D0000020B74916F0EEF80022B64B16F09EFA3D
:1016E00004460D4614F044FF95A3D3E90023894630
:1016F00080462946204616F091FA93A3D3E90023A9
:1017000016F0DAF822462B4616F088FA90A3D3E9B1
:10171000002316F0CFF822462B4616F07FFA8EA350
:10172000D3E9002316F0C8F822462B4616F076FAC5
:101730008BA3D3E9002316F0BDF822462B4616F002
:101740006DFA89A3D3E9002316F0B6F822462B469A
:1017500016F064FA86A3D3E9002382468B4620461E
:10176000294616F05BFA84A3D3E9002316F0A2F809
:1017700022462B4616F052FA81A3D3E9002316F035
:101780009BF822462B4616F049FA7FA3D3E90023A3
:1017900016F090F822462B4616F040FA0022844BB1
:1017A00016F08AF802460B465046594616F060FB82
:1017B00042464B4616F032FA002682468B463246A7
:1017C0004B463046494616F029FA02460B4620465B
:1017D000294616F06FF8324604460D464B46404601
:1017E000494616F069F802460B462046294616F08F
:1017F0003FFB02460B465046594616F05DF832460E
:101800004B4616F059F802460B4616F055F8BDE85F
:10181000F88F694A93420EDC5DA1D1E90001BDE871
:10182000F88F02460B4616F045F802460B4616F0B6
:101830001FFBBDE8F88F02460B4616F0EFF940A3F8
:10184000D3E9002306460F4616F0E8F93EA3D3E994
:10185000002316F031F832463B4616F0DFF93CA380
:10186000D3E9002316F026F832463B4616F0D6F9A7
:1018700039A3D3E9002316F01FF832463B4616F091
:10188000CDF937A3D3E9002316F014F832463B46CE
:1018900016F0C4F934A3D3E9002316F00DF832464C
:1018A0003B4616F0BBF932A3D3E9002380468946B4
:1018B0003046394616F0B2F92FA3D3E9002315F0CC
:1018C000F9FF32463B4616F0A9F92DA3D3E90023D0
:1018D00015F0F2FF32463B4616F0A0F92AA3D3E9F1
:1018E000002315F0E7FF32463B4616F097F9002239
:1018F0002F4B15F0E1FF02460B464046494616F0D5
:10190000B7FA22462B4616F089F902460B4622A169
:10191000D1E9000115F0CEFF02460B4620462946CC
:1019200015F0C8FF02460B4619A1D1E9000115F0D8
:10193000C1FFBDE8F88F1AA1D1E90001BDE8F88F19
:1019400009F7FD0DE13D023F88B20175E0EF493F27
:101950003B8F68B52882A43F5544880E55C1C93FC6
:101960007D6FEB0312D6D43F555555555555C53FA0
:1019700082922EB1C5B8B33F59018D1B6C06E63F6C
:10198000C88A599CE52A00404B2D8A1C273A0340FF
:10199000182D4454FB21F93F075C143326A6913CD3
:1019A000182D4454FB210940FFFFEF3FFFFFDF3FAD
:1019B0000000F03F0000E03F0000603C00225C4B74
:1019C00015F07AFF00225B4B16F028F940A3D3E90B
:1019D000002304460D4616F021F93FA3D3E9002366
:1019E00015F06AFF22462B4616F018F93CA3D3E9FE
:1019F000002315F05FFF22462B4616F00FF93AA39D
:101A0000D3E9002315F058FF22462B4616F006F9BD
:101A100037A3D3E9002315F04DFF22462B4616F0DD
:101A2000FDF835A3D3E9002315F046FF22462B46E7
:101A300016F0F4F8804689462046294614F098FDB1
:101A40002FA3D3E9002306460F462046294616F069
:101A5000E5F82DA3D3E9002315F02CFF22462B46F1
:101A600016F0DCF82AA3D3E9002315F025FF22465F
:101A70002B4616F0D3F828A3D3E9002315F01AFF5C
:101A800022462B4616F0CAF80022294B15F014FF07
:101A900002460B464046494616F0EAF932463B46B6
:101AA00016F0BCF81EA3D3E9002315F003FF32465D
:101AB0003B4615F001FF02460B4615F0FDFE0246BF
:101AC0000B4619A1D1E9000115F0F4FEBDE8F88F2D
:101AD00009F7FD0DE13D023F88B20175E0EF493F96
:101AE0003B8F68B52882A43F5544880E55C1C93F35
:101AF0007D6FEB0312D6D43F555555555555C53F0F
:101B000082922EB1C5B8B33F59018D1B6C06E63FDA
:101B1000C88A599CE52A00404B2D8A1C273A03406D
:101B2000075C143326A6913C182D4454FB21094030
:101B30000000F03F0000E03F434A91422DE9F843A6
:101B400004460D4639DD414A914209DD02F17952E0
:101B5000914240DD02460B4615F0AEFEBDE8F8832B
:101B600001F1404202F58012024330D0B1F1804FC2
:101B70003ADC0022364B15F09DFE02460B46044629
:101B80000D4615F099FE224606460F462B46204686
:101B9000294616F043F802460B463046394615F002
:101BA0008BFE14F0E5FC0B4602462946204615F054
:101BB00083FEBDE8F843FFF7BFB802460B4615F0B9
:101BC00079FE02460B4616F053F9BDE8F883002073
:101BD0000021BDE8F88300F017FE19A3D3E9002324
:101BE00015F06AFEBDE8F88302460B4616F016F8BB
:101BF0000022174B15F05EFE14F0BAFC2246804618
:101C000089462B462046294615F056FE4246064692
:101C10000F464B462046294615F04EFE02460B461F
:101C200000200B4916F024F90B460246394630468F
:101C300015F040FEBDE8F84300F0E6BDAFF30080CC
:101C4000EF39FAFE422EE63FFFFFEF3FFFFFAF41C5
:101C50000000F03F000000002DE9F047BE4B21F0EE
:101C60000048984584B004460D4612DD08F140480E
:101C700008F58018034658EA030321D002460B46B4
:101C800015F018FE02460B4616F0F2F804B0BDE857
:101C9000F087B24B98458A4629DCB8F1795F80F22B
:101CA000658191A3D3E9002315F006FE0022AC4B19
:101CB00016F044FAD8B12046294604B0BDE8F087B2
:101CC0008BA3D3E9002315F0A9FF8BA3D3E900234D
:101CD00006460F462046294615F0A0FF02460B4651
:101CE0003046394615F0E8FD04B0BDE8F0872046DF
:101CF000294613F0FFFC02460B460020984915F0D8
:101D0000D9FD0022974B15F089FF7DA3D3E900236D
:101D100004460D4615F082FF7BA3D3E9002315F09E
:101D2000CBFD22462B4615F079FF79A3D3E900239A
:101D300015F0C0FD22462B4615F070FF76A3D3E9BF
:101D4000002315F0B9FD22462B4615F067FF74A35A
:101D5000D3E9002315F0AEFD22462B4615F05EFFB9
:101D600071A3D3E9002315F0A7FD22462B4615F0F9
:101D700055FF6FA3D3E90023CDE900012046294692
:101D800015F04CFF6CA3D3E9002315F093FD224618
:101D90002B4615F043FF6AA3D3E9002315F08CFD11
:101DA00022462B4615F03AFF67A3D3E9002315F02E
:101DB00081FD22462B4615F031FF694B002215F0BC
:101DC0007BFDCDE902012046294614F0D1FB664B8C
:101DD000984506460F4666DCDDE90223DDE9000191
:101DE00016F046F83246CDE900013B46304639460A
:101DF00015F062FD02460B46DDE9000115F00EFF0D
:101E00004FF00008CDE9000142463B4640463946C6
:101E100015F004FF02460B462046294615F04AFD00
:101E2000424604460D463B463046394615F044FDD1
:101E300002460B462046294616F01AF802460B4683
:101E400015F03AFD02460B462BA1D1E9000115F031
:101E500031FD02460B46DDE9000115F02BFD42463F
:101E600004460D463B464046394615F025FD0246E0
:101E70000B4637A1D1E9000115F01CFD02460B46C7
:101E80002046294615F016FD02460B4630A1D1E941
:101E9000000115F00FFDBAF1000F3FF7F7AE01F1A9
:101EA00000431946F2E6DDE90223DDE9000115F001
:101EB000DFFF32463B4615F0B1FE32463B4615F099
:101EC000FBFC02460B4615F0F7FC0BA3D3E90023FD
:101ED00015F0F0FC02460B4605A1D1E9000115F012
:101EE000E9FCD8E7AFF300809C7500883CE4377EBE
:101EF000182D4454FB21F93F075C143326A6913C6E
:101F000009F7FD0DE13D023F88B20175E0EF493F61
:101F10003B8F68B52882A43F5544880E55C1C93F00
:101F20007D6FEB0312D6D43F555555555555C53FDA
:101F300082922EB1C5B8B33F59018D1B6C06E63FA6
:101F4000C88A599CE52A00404B2D8A1C273A034039
:101F5000182D4454FB21E93FFFFFEF3FFFFFDF3F18
:101F60000000F03F0000E03F3233EF3F02460B46F7
:101F700015F054FE37A3D3E9002306460F4615F0AB
:101F80004DFE36A3D3E9002315F096FC32463B46BE
:101F900015F044FE33A3D3E9002315F08BFC324641
:101FA0003B4615F03BFE31A3D3E9002315F084FC3A
:101FB00032463B4615F032FE2EA3D3E9002315F03E
:101FC00079FC32463B4615F029FE2CA3D3E90023C9
:101FD00015F072FC32463B4615F020FE29A3D3E9EA
:101FE0000023804689463046394615F017FE27A360
:101FF000D3E9002315F05EFC32463B4615F00EFE99
:1020000024A3D3E9002315F057FC32463B4615F0D4
:1020100005FE22A3D3E9002315F04CFC32463B46D3
:1020200015F0FCFD00220A4B15F046FC02460B465B
:102030004046494615F01CFF22462B4615F0EEFDA2
:1020400022462B4615F038FC04B0BDE8F08700BFEF
:102050000000F03F09F7FD0DE13D023F88B2017538
:10206000E0EF493F3B8F68B52882A43F5544880E76
:1020700055C1C93F7D6FEB0312D6D43F5555555519
:102080005555C53F82922EB1C5B8B33F59018D1B3E
:102090006C06E63FC88A599CE52A00404B2D8A1CF5
:1020A000273A0340000000002DE9F84F1D46534237
:1020B000134325F0004ADFF8E0E14AEAD3737345A1
:1020C000144606460F4647D8C0F1000848EA000803
:1020D00021F0004343EAD878F0458B463CD805F11F
:1020E000404808F5801858EA020850D04FEAA57811
:1020F00008F0020848EAD17850EA030134D052EAE5
:102100000A023CD0F24557D0734538D0A3EB0A03FE
:102110001B153C2B42DC002D70DB22462B46304643
:10212000394615F0A5FE13F0E5FAFEF751FBB8F1BC
:10213000010F5FD0B8F1020F4ED0B8F1000F62D09E
:1021400043A3D3E9002315F0B5FB43A3D3E9002350
:1021500015F0B0FBBDE8F88F32463B4620462946D5
:1021600015F0AAFBBDE8F88FB8F1020F1AD0B8F14C
:10217000030F10D13AA1D1E90001BDE8F88FBBF1FE
:10218000000F14DB38A1D1E90001BDE8F88FBDE8EC
:10219000F84FFEF71DBB3946BDE8F88F32A1D1E9F3
:1021A0000001C4E72CA1D1E90001BDE8F88F30A1FE
:1021B000D1E90001BDE8F88F534526D0B8F1020FF0
:1021C000F0D0B8F1030FD5D0B8F1010F4FF00000F7
:1021D00029D00021BDE8F88F1DA3D3E9002315F015
:1021E00069FB02460B461CA1D1E9000115F062FB18
:1021F000BDE8F88F01F10041BDE8F88F3C338CDA7F
:102200000020002193E7BDE8F88FB8F1020F18D045
:10221000B8F1030F10D0B8F1010F08D016A1D1E921
:102220000001BDE8F88F4FF00041BDE8F88F14A120
:10223000D1E90001BDE8F88F13A1D1E90001BDE8A3
:10224000F88F13A1D1E90001BDE8F88FAFF300804A
:10225000075C143326A6A13C182D4454FB210940E9
:10226000182D4454FB2109C0182D4454FB21F93F7B
:10227000182D4454FB21F9BF182D4454FB21E93F8C
:10228000182D4454FB21E9BFD221337F7CD902C0F1
:10229000D221337F7CD902400000F07F0000000093
:1022A00043422DE9F047034321F000463E4A46EA07
:1022B000D373934204460D4613D896423DD03B4B10
:1022C0009E428A4617DC36A3D3E9002315F0F4FAC0
:1022D0000022002315F032FFA8B320462946BDE8AE
:1022E000F08702460B4615F0E5FA02460B4615F05C
:1022F000BFFDBDE8F0872E4B9E42354624DD3346B8
:102300000246314615F0D8FA224606460F462B46BD
:102310000020254915F0CEFA02460B4630463946D4
:1023200015F0A6FDFEF708FD0022224B15F076FC05
:10233000BAF1000F2FDBBDE8F0870022002315F073
:1023400097FDBDE8F087354622462B4620462946B4
:1023500015F0B2FA22462B4606460F4615F05EFCF3
:102360002246804689462B4600200F4915F0A2FAE6
:1023700002460B464046494615F07AFD32463B463A
:1023800015F09AFAFEF7D8FC00220A4B15F046FC2D
:10239000BAF1000FCFDA01F100431946BDE8F0872A
:1023A0009C7500883CE4377E0000F03FFFFF2F3E25
:1023B000FFFFDF3F0000E03F2DE9F8434E4B21F0E7
:1023C00000449C4206460F461BDC4C4B9C4222DDDF
:1023D0004B4B9C4263DD4B4B9C427BDD4A4B9C420A
:1023E00046DD01339C4240D041A3D3E9002310468F
:1023F000194615F013FC06460F4630463946BDE82F
:10240000F88302460B4615F009FC06460F46304697
:102410003946BDE8F88313F06DF902F0B1FC0022F3
:102420003A4B8046894615F047FAB4F1725F06468A
:102430000F46ECDB42464B464046494615F0EEFB64
:1024400032463B4604460D463046394615F034FACE
:1024500002460B462046294615F00AFD00222B4B6A
:1024600015F02AFA06460F46D1E7294B9842BBD809
:102470003046394613F03EF90022264B15F0CEFBCC
:1024800000F04AF8002204460D46224B15F0C6FB28
:1024900022462B4615F0C2FB06460F46B7E713F05F
:1024A00029F900F039F800221A4B06460F4615F0BC
:1024B000B5FB32463B4604460D460020154915F053
:1024C000D7FC02460B462046294615F0F5F906468C
:1024D0000F469CE713F00EF900F01EF800220D4B9A
:1024E00015F09CFB06460F4691E700BFAFF3008056
:1024F0009C7500883CE4377EFFFFEF7F422ED63F7D
:10250000FFFF3540412E8640CD3386400000F03F2E
:102510007DF8B98F0000E03F2DE9F04FB04E21F07B
:102520000042B24283B004460D464FEAD1770DD93E
:10253000AC4EB24225D9C1F31303034340F0EC8003
:102540000FB10020002103B0BDE8F08FA64B9A42E6
:1025500000F2CB80A54B9A4200F2DC808AA3D3E93B
:10256000002315F0A9F90022A14B15F0E7FD002882
:1025700000F006812046294600229D4B15F09CF96B
:10258000E1E783A3D3E9002315F0D8FD002840F04C
:10259000C88081A3D3E900232046294615F0B0FD69
:1025A0000028CED1934E7EA3D3E9002306EBC706C5
:1025B0002046294615F032FBD6E9002315F07CF9B8
:1025C00015F0DCFD064615F0C3FA77A3D3E9002326
:1025D0008046894615F022FB02460B4620462946D6
:1025E00015F068F972A3D3E90023CDE90001404654
:1025F000494615F013FB82468B4652465B46DDE9A1
:10260000000115F057F904460D4622462B46204698
:10261000294615F003FB68A3D3E9002380468946C9
:1026200015F0FCFA66A3D3E9002315F043F94246FE
:102630004B4615F0F3FA64A3D3E9002315F03CF9F7
:1026400042464B4615F0EAFA61A3D3E9002315F0A0
:1026500031F942464B4615F0E1FA5FA3D3E9002376
:1026600015F02AF942464B4615F0D8FA02460B46B9
:102670002046294615F01EF980468946002E58D07E
:102680002046294642464B4615F0C8FA42460446C3
:102690000D464B4600204FF0804115F00BF90246E5
:1026A0000B462046294615F0E3FB02460B465046F2
:1026B000594615F0FFF8DDE9002315F0FBF80B464D
:1026C00002464B49002015F0F5F86FF47F739E42E7
:1026D00051DA06F57A7601EB065100224FF0B87315
:1026E00015F09CFA03B0BDE8F08F434B9A423FF6D9
:1026F00059AF424BFC002344D3E9002315F0DAF82C
:102700003F4BC7F101062344CDE90001D3E900ABFB
:10271000F61B72E7002678E702460B4615F0CCF868
:1027200011E719A3D3E900231046194615F076FAEC
:1027300009E702460B462046294615F06FFA0022AB
:1027400006460F464FF080434046494615F0B2F822
:1027500002460B463046394615F08AFB22462B4688
:1027600015F0A8F802460B460020214915F0A2F802
:1027700003B0BDE8F08F01EB065103B0BDE8F08F68
:10278000064642E7AFF300809C7500883CE4377E44
:10279000EF39FAFE422E864051302DD5104987C0C0
:1027A000FE822B654715F73F0000E0FE422EE63F14
:1027B000763C7935EF39EA3DD0A4BE726937663E82
:1027C000F16BD2C541BDBB3E2CDE25AF6A56113F31
:1027D00093BDBE166CC1663F3E5555555555C53F18
:1027E000412E8640FFFFEF7F422ED63FFFFF2F3E58
:1027F0000000F03F988E0100B1A2F03FA88E0100CA
:10280000B88E0100000000002DE9F04FB1F5801FE7
:1028100085B006460F460B465ADA024621F00044C0
:10282000224300F0F8800029C0F27A810022D64BC2
:1028300015F0F4F9D54A0B46934206460F466FF061
:10284000350C4ADCC3F3130505F5152E0EF6647E30
:102850000EF4801E8EF07F5282F440121C1542EA64
:102860000507A4F2FF3464440022C94B30463946C0
:1028700004EB1E5415F01EF8AB1CC3F31303022B1C
:1028800082468B464FF0000230DC002315F02EFC10
:10289000002800F0C980002C00F04B81204615F084
:1028A00057F9A5A3D3E9002306460F4615F0B6F95C
:1028B000A3A3D3E9002304460D463046394615F05C
:1028C000ADF902460B462046294614F0F5FF0AE012
:1028D000AE4A93424FF0000CB4DD32463B463046E0
:1028E000394614F0E9FF05B0BDE8F08F4FF08043A2
:1028F00014F0E2FF02460B465046594615F0B8FA6E
:10290000064620460F4615F023F93246CDE9000170
:102910003B4630463946CDE9026715F07FF902465D
:102920000B468046894615F079F987A3D3E9002341
:1029300006460F4615F072F985A3D3E9002314F07B
:10294000BBFF32463B4615F069F983A3D3E9002368
:1029500014F0B2FF32463B4615F060F980A3D3E98C
:10296000002314F0A9FF42464B4615F057F97EA309
:10297000D3E90023804689463046394615F04EF9A2
:102980007BA3D3E9002314F097FF32463B4615F0B2
:1029900045F979A3D3E9002314F08EFF32463B4674
:1029A00015F03CF90B4602464946404614F084FFB8
:1029B000A5F5C223C5F5D725A3F27A4351351D43AA
:1029C000002D8046894656DD0022724B50465946FE
:1029D00015F024F952465B4615F020F906460F46DD
:1029E000002C68D132463B464046494614F064FF0D
:1029F000DDE9022315F012F902460B46304639464E
:102A000014F058FF02460B465046594614F052FF48
:102A100005B0BDE8F08F0022002300205E4915F0CC
:102A200027FA05B0BDE8F08F55A3D3E9002350463F
:102A3000594615F0F3F802460B460020554914F0AC
:102A400039FF524606460F465B465046594615F03A
:102A5000E5F802460B463046394615F0DFF80646E3
:102A60000F46002C40F09A8002460B4650465946CD
:102A700014F020FF37E7002C00F0A4802EA3D3E948
:102A80000023DDE9000115F0C9F842464B46044633
:102A90000D465046594614F00DFFDDE9022315F0AE
:102AA000BDF827A3D3E9002306460F46DDE9000160
:102AB00015F0B4F821E020A3D3E90023DDE90001FB
:102AC00015F0ACF832463B4604460D4640464946B2
:102AD00014F0F2FEDDE9022315F0A0F818A3D3E903
:102AE000002380468946DDE9000115F097F802468B
:102AF0000B464046494614F0DFFE02460B46304680
:102B0000394614F0D7FE52465B4614F0D3FE024617
:102B10000B462046294614F0CDFE05B0BDE8F08FE7
:102B200002460B4614F0C6FE0022002315F0A0F961
:102B3000D9E600200021D6E60000E0FE422EE63F66
:102B4000763C7935EF39EA3D44523EDF12F1C23F1F
:102B5000DE03CB966446C73F599322942449D23F63
:102B6000935555555555E53F9FC678D0099AC33FB3
:102B7000AF788E1DC571CC3F04FA97999999D93FCA
:102B8000555555555555D53F00005043FFFFEF7F34
:102B90000000F03F0000E03F000050C3204614F06A
:102BA000D7FF0FA3D3E900238046894615F036F8F6
:102BB0000DA3D3E9002304460D464046494615F0CF
:102BC0002DF89AE702460B465046594614F072FE1D
:102BD000DDE9022315F022F814E700BFAFF300800F
:102BE0000000E0FE422EE63F763C7935EF39EA3DC3
:102BF000B1F5801F2DE9F84304460D460B461ADA5D
:102C0000024621F00046324359D000295FDB002202
:102C10003B4B15F003F83B4A0D462B4693420446C6
:102C20006FF035010CDD22462B462046294614F074
:102C300043FEBDE8F883334A93424FF00001F2DCD3
:102C40001815A0F2FF3008444FEAD0794844C3F386
:102C5000130814F07DFFC9F57F73033348EA035569
:102C600006460F4620462946FFF7CEFD1EA3D3E9B0
:102C70000023804689463046394614F0CFFF1CA316
:102C8000D3E9002304460D464046494614F0C6FFEA
:102C900002460B462046294614F00EFE16A3D3E941
:102CA000002304460D463046394614F0B7FF02466D
:102CB0000B462046294614F0FFFDBDE8F8830022AC
:102CC00000230020104915F0D3F8BDE8F883024630
:102CD0000B4614F0EFFD0022002315F0C9F8BDE803
:102CE000F88300BFAFF30080362BF111F3FE593D9E
:102CF0000EE526157BCBDB3F00609F501344D33F8E
:102D000000005043FFFFEF7F000050C300000000B1
:102D10002DE9F04F23F0004757EA020493B037D073
:102D2000674C21F00046A64283460D4629DC9A46B0
:102D3000964625D0A74224DC614CA74279D0002DCD
:102D400080468946CDE9002377DB0024BEF1000FE1
:102D50002CD15B4B9F4200F08B805A4B9F4261D03D
:102D6000BAF1804F00F0C383574B9A451ED1002D16
:102D70001CDB4046494613B0BDE8F04F13F0F8BBEA
:102D800058B106F1404606F5801656EA0B0306D107
:102D90004C49002013B0BDE8F08FB742CCDD4B4862
:102DA00013B0BDE8F04F14F089BB002440464946FB
:102DB00012F0A0FCBBF1000F19D126B1414B25F058
:102DC00040429A4213D1BAF1000FC0F2CA83002DDB
:102DD000E0DA06F1404606F5801656EA040300F0F4
:102DE000A584012CD6D101F100431946D2E7ED0F9D
:102DF000013D54EA05034ED0354B9F426EDD03F191
:102E000004739F4240F3FE83324B9E424EDDBAF183
:102E1000000F4EDD28A3D3E900231046194614F015
:102E2000FDFEB7E7BAF1000FC0F2528440464946B2
:102E3000B0E7BEF1000F82D0A3E7274B9F4228DC0A
:102E4000A3F154739F4280DD3B15A3F2FF33142B93
:102E500040F35484C3F134032EFA03F202FA03F36D
:102E60009E457FF472AF02F00102C2F102046DE7E9
:102E700006F1404303F5801353EA0B0388D0154B4A
:102E80009E4240F33B83BAF1000F12DBDDE9000103
:102E900080E702245AE742464B461046194614F092
:102EA00009FD02460B4614F0E3FF73E7BAF1000F89
:102EB000B0DB002000216DE79C7500883CE4377E84
:102EC0000000F07F0000F03F0000E03FDC960100D2
:102ED0000000E041FFFFEF3FFFFF3F43B6F5801FDB
:102EE0004FF0000205DAD84B14F098FE6FF0340270
:102EF0000E463315D54FC6F31306A3F2FF33134422
:102F000046F07F5ABE421A460D934AF4401A40F3E7
:102F10002F83CF4B9E4240F30D849FEDB57B8DED0B
:102F2000087B8DED0E7B9FEDB47B13468DED067B0C
:102F300001330D93AAF5801A0027DDE906235146D7
:102F4000CDE90A0114F0B6FCDDE906238046894686
:102F5000DDE90A0114F0B0FC02460B460020BD4931
:102F600014F086FF0A460146CDE910121346494681
:102F70000246404614F052FE4FEA6A0343F0005303
:102F80008C46834603F50023CDE904BCDA468B4624
:102F9000D9190023CDE902AB0293DDE902AB002091
:102FA00006460F4602460B465046594614F036FE7A
:102FB00002460B464046494614F07CFCDDE90623F8
:102FC000804689463046394614F074FC02460B466A
:102FD000DDE90A0114F06EFC52465B4614F01EFE59
:102FE00002460B464046494614F064FCDDE91023D6
:102FF00014F014FEDDE90467CDE9060132463B46D4
:103000003046394614F00AFE7DA3D3E90023064674
:103010000F4614F003FE7CA3D3E9002314F04CFC0C
:1030200032463B4614F0FAFD79A3D3E9002314F0AD
:1030300043FC32463B4614F0F1FD77A3D3E900236D
:1030400014F03AFC32463B4614F0E8FD74A3D3E991
:10305000002314F031FC32463B4614F0DFFD72A32E
:10306000D3E9002314F028FC3246804689463B46CB
:103070003046394614F0D2FD02460B4640464946DA
:1030800014F0CCFD524606460F465B46DDE90401CE
:1030900014F012FCDDE9062314F0C0FD32463B4675
:1030A00014F00AFC5246804689465B465046594613
:1030B00014F0B4FD0022684BCDE90A0114F0FCFBCA
:1030C00042464B4614F0F8FB02980F46064632463D
:1030D0003B465046594614F0A1FD002282468B46DD
:1030E0005D4B3046394614F0E5FBDDE90A2314F068
:1030F000E1FB02460B464046494614F0DBFBDDE9A6
:10310000042314F08BFD3246804689463B46DDE9B8
:10311000060114F083FD02460B464046494614F072
:10312000CBFB8046894602460B4650465946CDE9C0
:1031300004AB14F0C1FBDDE902AB3DA3D3E90023EE
:1031400050460F4614F06AFDDDE90423CDE9020183
:103150003946504614F0AEFB02460B4640464946FF
:1031600014F0A8FB34A3D3E9002314F057FD34A3D3
:10317000D3E90023804689465046394614F04EFD77
:1031800002460B464046494614F096FBDDE90E2305
:1031900014F092FB80460D98894614F0D9FC424603
:1031A00006460F464B46DDE9020114F085FBDDE9DA
:1031B000082314F081FB32463B4614F07DFB324677
:1031C0003B4650468B4614F075FBDDE9082314F0AE
:1031D00071FBDDE9022314F06DFB02460B4640460D
:1031E000494614F067FB8046894637E0AFF300801C
:1031F0000000000000000000000000000000F03FA0
:10320000EF4E454A287ECA3F65DBC9934A86CD3FCB
:1032100001411DA96074D13F4D268F515555D53FB1
:10322000FFAB6FDBB66DDB3F033333333333E33F49
:10323000000000E009C7EE3FFD033ADC09C7EE3F9E
:10324000F5015B14E02F3EBE000040438E98030062
:1032500079B60B000000F03F00000840013C54EA42
:10326000050300F079819FEDC87B8DED047BDDE9DE
:1032700000120B461446CDE9023400230293DDE927
:10328000024508462B461146224614F013FB5246CF
:103290005B4614F0C3FCDDE9002306460F464046BA
:1032A000494614F0BBFC02460B463046394614F042
:1032B00003FB2246804689462B4650465946CDE9B7
:1032C000008914F0ABFC0B46024606460F4640460A
:1032D000494614F0F1FAC64B994204460D468A4617
:1032E00040F3168101F13F4303F5E003034340F04F
:1032F000F781A7A3D3E90023DDE9000114F0DCFA8C
:103300003246804689463B462046294614F0D2FA8A
:1033100002460B464046494614F010FF002840F094
:10332000DF81A8464FEA28534FF48012A3F2FE3300
:1033300042FA03F35344C3F30A52AE4DA2F2FF32F2
:103340001541C3F3130423EA05010020C2F1140B55
:1033500044F48014BAF1000F02460B4644FA0BFB0A
:1033600030463946B8BFCBF1000B14F0A3FA024641
:103370000B4606460F46DDE9000114F09DFA4FEAC0
:103380000B5A0D46002484A3D3E900232046294686
:1033900014F044FC3246804689463B462046294686
:1033A00014F088FA02460B46DDE9000114F082FAB7
:1033B0007BA3D3E9002314F031FC7BA3D3E90023E2
:1033C00006460F462046294614F028FC02460B46C6
:1033D0003046394614F070FA06460F4602460B4650
:1033E0004046494614F068FA42464B4604460D46AC
:1033F00014F060FA02460B463046394614F05AFA89
:103400002246804689462B462046294614F006FC73
:1034100067A3D3E9002306460F4614F0FFFB66A31B
:10342000D3E9002314F046FA32463B4614F0F6FB8B
:1034300063A3D3E9002314F03FFA32463B4614F06D
:10344000EDFB61A3D3E9002314F034FA32463B4686
:1034500014F0E4FB5EA3D3E9002314F02DFA324606
:103460003B4614F0DBFB02460B462046294614F08F
:1034700021FA06460F4602460B462046294614F01E
:10348000CDFB0022CDE900014FF0804330463946A4
:1034900014F010FA02460B46DDE9000114F0E8FCD6
:1034A000424606460F464B462046294614F0B6FBD8
:1034B00042464B4614F000FA02460B463046394667
:1034C00014F0F8F922462B4614F0F4F902460B46A4
:1034D0000020494914F0EEF98A44BAF5801FC0F281
:1034E00039815146DDE9042314F098FB52E4424649
:1034F0004B464046494614F091FB4BE4BAF1000FAD
:10350000BFF6D7ACDDE90034184604F1004141E4D0
:103510003A4B21F00048984540F3FF80384B0B446C
:1035200003430CD132463B4614F0C4F902460B4625
:10353000DDE9000114F0EEFD00283FF4F3AEDDE913
:10354000040125A3D3E9002314F068FB22A3D3E9E7
:10355000002314F063FB1DE49FED217B8DED047BC4
:1035600085E602460B460020234914F081FC2EE438
:103570009FED1D7B8DED087B8DED0E7B9FED027B1E
:1035800000278DED067BD8E4000000000000F03F2E
:10359000FE822B654715973C00000000432EE63F56
:1035A000EF39FAFE422EE63F396CA80C615C20BE72
:1035B000D0A4BE726937663EF16BD2C541BDBB3E39
:1035C0002CDE25AF6A56113F93BDBE166CC1663F17
:1035D0003E5555555555C53F59F3F8C21F6EA501C7
:1035E000000000000000F0BF00000000000000002C
:1035F000FFFF8F40FFFF0F000000F03FFFCB904028
:1036000000346F3F684B9E427FF750AC674B9E4241
:103610003FF7FDAB0022654B14F04CF952A3D3E900
:10362000002306460F4614F0F9FA51A3D3E900230C
:10363000804689463046394614F0F0FA0022824628
:103640008B465B4B3046394614F0E8FA02460B468F
:1036500049A1D1E9000114F02DF932463B4614F09E
:10366000DDFA02460B460020524914F023F9324697
:10367000CDE902013B463046394614F0CFFA024606
:103680000B46DDE9020114F0C9FA3DA3D3E900239A
:1036900014F0C4FA02460B465046594614F00AF993
:1036A00002460B4606460F464046494614F004F9CA
:1036B00042464B46002082468B4614F0FBF80246F9
:1036C0000B463046394614F0F5F880468946C5E584
:1036D00042464B460020354914F0CAFBFFF75ABB5F
:1036E000DDE9040128A3D3E9002314F097FA26A307
:1036F000D3E9002314F092FAFFF74CBBBEF1000FA0
:103700007FF453ABC3F1140347FA03F202FA03F355
:103710009F4223D07446FFF720BB264B98453FF7C6
:1037200001AEDDE90223924693462BE602460B46A4
:10373000FFF7B3BB9FED167B8DED087B9FED167BEE
:103740008DED0E7B9FED167B4FF480278DED067B74
:10375000FFF7F3BB5A4601F04FFDC3E602F001024A
:10376000C2F10204FFF7F9BA000000604715F73F05
:1037700044DF5DF80BAE543E555555555555D53F74
:10378000FE822B654715F73F9C7500883CE4377E29
:103790000000004003B8E23F06D0CF43EBFD4C3EB3
:1037A000000000000000F83FFEFFEF3F0000F03F88
:1037B0000000D03F0000E03F2DE9F0479C4B21F096
:1037C00000479F4290B08046894640F38E80994BD7
:1037D0009F420C46924626DC00298BA3D3E90023A6
:1037E00040F3B08114F066F8934B9F4204460D46B7
:1037F00000F0908086A3D3E9002314F05BF8024622
:103800000B46CAE900232046294614F053F880A34A
:10381000D3E9002314F04EF80125CAE90201284635
:1038200010B0BDE8F087854B9F4240F39080844BF9
:103830009F4265DC3D15A5F21645A7EB05531946D9
:103840001F46064614F09AFC14F082F98046894619
:1038500042464B4630463946CDE90A8914F02AF8EB
:103860000022784B14F0DAF98946804614F086FC81
:1038700014F06EF906460F4632463B46404649462E
:10388000CDE90C6714F016F800226E4B14F0C6F95F
:1038900000220023CDE90E0114F028FC002800F0DE
:1038A0006F81002330463946002214F01FFC0028A7
:1038B00014BF01230223644A019202212A46009187
:1038C0000AA8514600F08CFB002C054614DADAF801
:1038D0000420DAF80C3002F1004203F100434542C3
:1038E000CAF80420CAF80C3006E000200021C2E922
:1038F0000089C2E902010025284610B0BDE8F08722
:1039000002460B4613F0D6FF0025CAE90201CAE9B8
:103910000001F1E740A3D3E9002313F0CBFF40A35C
:10392000D3E900230D46044613F0C4FF02460B46BC
:10393000CAE900232946204613F0BCFF38A3D3E987
:10394000002313F0B7FF0125CAE90201D4E711F003
:10395000D1FE35A3D3E900238046894614F05EF9F1
:1039600000223A4B13F0A8FF14F008FC054614F0AF
:10397000EFF825A3D3E90023CDE9060114F04EF9B1
:1039800002460B464046494613F094FF20A3D3E974
:103990000023CDE90201DDE9060114F03FF91F2DF6
:1039A00080468946CDE9048954DC294B6A1E53F8C8
:1039B00022309F424ED002460B46DDE9020113F051
:1039C00079FF80468946CAE9008942464B46DDE9CF
:1039D000020113F06FFFDDE9042313F06BFF002CED
:1039E000CAE9020188DA09F1004401F100436D429D
:1039F000CAF80080CAF80440CAF80800CAF80C30B7
:103A00007AE700BFAFF3008000004054FB21F93F8C
:103A10003163621A61B4D03D0000601A61B4D03DD8
:103A20007370032E8A19A33B83C8C96D305FE43FCE
:103A3000FB21E93F7BD90240FB21F93FFB213941C2
:103A4000FFFFEF7F0000704128A101000000E03F70
:103A5000A8A00100DDE90423DDE9020113F02AFF3B
:103A60003F15C1F30A53FB1A80468946102BCAE959
:103A70000089AADD58A3D3E90023DDE9060114F08B
:103A8000CDF88046894602460B46DDE9020113F077
:103A900011FF02460B46DDE90201CDE9082313F0D0
:103AA00009FF42464B4613F005FF4DA3D3E900231F
:103AB00080468946DDE9060114F0B0F842464B46DF
:103AC00013F0F8FE0B46CDE904010246DDE90801DA
:103AD00013F0F0FEC1F30A53FF1A80468946312FD6
:103AE000CAE900896CDD41A3D3E90023DDE90601C1
:103AF00014F094F8DDE9088906460F4602460B46A5
:103B00004046494613F0D6FE02460B46404649461B
:103B1000CDE9022313F0CEFE32463B4613F0CAFE37
:103B200034A3D3E9002306460F46DDE9060114F06D
:103B300075F832463B4613F0BDFE02460B46CDE912
:103B400004233AE713F0B8FE274B9F4204460D4684
:103B500018D01FA3D3E9002313F0AEFE02460B4694
:103B6000CAE900232946204613F0A4FE18A3D3E98E
:103B7000002313F0A1FE4FF0FF35CAE90201BBE6B6
:103B8000032398E614A3D3E9002313F095FE14A3AE
:103B9000D3E900230D46044613F08EFE02460B4681
:103BA000CAE900232946204613F084FE0CA3D3E97A
:103BB000002313F081FE4FF0FF35CAE902019BE6B6
:103BC0009DED087B8DED027BFFE600BFAFF300802B
:103BD0003163621A61B4D03D0000601A61B4D03D17
:103BE0007370032E8A19A33BFB21F93F0000002EBE
:103BF0008A19A33BC14920259A837B390000000024
:103C0000594A2DE9F84F21F00048904506460F46E5
:103C10002BDC564B0029B4BF554D564D98454FF0FF
:103C2000000410DC544B984570DC4DA3D3E900230D
:103C300013F042FE0022514B14F080FAD8B1304606
:103C40003946BDE8F88F4E4B98457CDD4D4B984585
:103C500044DD013398453ED03046394640A3D3E990
:103C6000002313F0DBFFBDE8F88F02460B4613F08C
:103C700023FEBDE8F88F3046394611F03BFD01F0D8
:103C80007FF806460F4632463B463046394613F02B
:103C900013FE324682468B463B463046394613F089
:103CA000BDFF002280468946344B3046394613F02A
:103CB00003FE02460B464046494614F0D9F8024638
:103CC0000B465046594613F0F5FD22462B4613F09D
:103CD000A5FFBDE8F88F2C4B9842BDD83046394639
:103CE00011F008FD0022234B13F098FFFEF714FC9F
:103CF00006460F4602460B462046294613F08EFF25
:103D000032463B4613F08AFFBDE8F88F11F0F2FC13
:103D100001F036F81D4B984506460F46B3DD0022EC
:103D2000164B13F0C9FD02460B463046394614F0D7
:103D30009FF832463B4613F0BFFD22462B4613F058
:103D40006DFFBDE8F88F11F0D5FCFEF7E5FB0246EC
:103D50000B462046294613F061FFBDE8F88F00BFEF
:103D60003374AC3C1F7BAC7FFFFFEF7FFFFF354020
:103D70000000E0BF0000E03FFFFF2F3E0000F03FEB
:103D8000412E8640CD3386407DF8B98FFFFFEF3F4F
:103D90002DE9F04F21F00048B8F1795F85B0064673
:103DA0000F4692469B466BDA14F0E8F9002800F0C3
:103DB000EA8032463B463046394613F02FFF74A363
:103DC000D3E9002304460D4613F028FF72A3D3E97C
:103DD000002313F071FD22462B4613F01FFF70A342
:103DE000D3E9002313F066FD22462B4613F016FF9D
:103DF0006DA3D3E9002313F05FFD22462B4613F099
:103E00000DFF6BA3D3E9002313F054FD22462B468C
:103E100013F004FF68A3D3E9002313F04DFD2246FD
:103E20002B4613F0FBFECDE900010022664B204635
:103E3000294613F0F3FEDDE900238046894620463B
:103E4000294613F0EBFE524604460D465B463046CB
:103E5000394613F0E3FE02460B462046294613F08E
:103E600029FD02460B464046494613F023FD024613
:103E70000B460020554913F01DFD05B0BDE8F08F3D
:103E800002460B4613F0CAFE41A3D3E900230446C1
:103E90000D4613F0C3FE40A3D3E9002313F00CFD3D
:103EA00022462B4613F0BAFE3DA3D3E9002313F0BC
:103EB00001FD22462B4613F0B1FE3BA3D3E90023BC
:103EC00013F0FAFC22462B4613F0A8FE38A3D3E9E0
:103ED000002313F0EFFC22462B4613F09FFE36A37F
:103EE000D3E9002313F0E8FC2B46224613F096FE9C
:103EF000374B9845CDE9000197DD364B984539DCC5
:103F0000A8F500130022002030499046994613F08E
:103F1000D1FCCDE9020100222B4B2046294613F0AB
:103F20007DFE42464B4613F0C5FCDDE9002380468A
:103F300089462046294613F071FE524604460D4636
:103F40005B463046394613F069FE02460B46204672
:103F5000294613F0AFFC02460B464046494613F093
:103F6000A9FC02460B46DDE9020113F0A3FC05B0F3
:103F7000BDE8F08F9FED127B4FF000088DED027BC6
:103F8000DFF85490C7E71149002005B0BDE8F08F75
:103F9000D43888BEE9FAA8BDC4B1B4BD9EEE213EB6
:103FA000AD529C804F7E923E9015CB19A001FA3EF7
:103FB0007751C1166CC1563F4C5555555555A53FC7
:103FC000000000000000E73F0000E03F0000F03F7D
:103FD0003233D33F0000E93F0000D23F0000000031
:103FE0002DE9F04FADF51B7D9F4CA49E9F4D54F8DD
:103FF000264007942646D41E85FB0475E417C4EBBF
:10400000A50424EAE4741D460A93631CA3EB83030E
:10401000013D02EBC30306932B460B940395651BEE
:10402000F418049008911AD42C4400260027013477
:104030000DF18808DDF8949208E059F8250013F096
:1040400087FD0135A542E8E8020108D0002DF4DA29
:10405000013530463946A542E8E80201F6D1079B12
:10406000002BC0F2DF83079B03F1010B0A9B22A9FF
:10407000DB001A4601EB03090093049B0DF5E47A7B
:1040800019460AEBCB0B01EB0208039B002BC0F295
:10409000F582049C4D460026002775E90223F4E8CA
:1040A000020113F0BBFD02460B463046394613F0C1
:1040B00003FC444506460F46EFD1EAE80267DA45BD
:1040C00009F10809E1D107990098049C009101F1D8
:1040D0008043013B9B0020441A1F83460EA80244E4
:1040E00003440C920D93009A9AA901EBC203002A93
:1040F00053E9284529DD0DF5E47A0AEBC2080DF1F4
:10410000340900225A4B2046294613F087FD14F04B
:1041100035F813F01DFD0022564B06460F4613F0EE
:104120007DFD02460B462046294613F0C3FB14F0E2
:1041300025F878E9022349F8040F3946304613F090
:10414000BBFBD04504460D46DBD1DDF81890204678
:1041500029464A4601F050F800224FF07F530446AA
:104160000D4613F05BFDFCF75FFD0022424B13F0A0
:1041700055FD02460B462046294613F09BFB0D4693
:10418000044613F0FBFF804613F0E2FC0B460246A8
:104190002946204613F08EFB4B46002B06460F4661
:1041A00040F3F980009A0EA9013AC9F1180351F8B9
:1041B000225045FA03F101FA03F30EA8EB1A40F876
:1041C0002230C9F11705884443FA05F5002D6DDD4D
:1041D000009B002B08F1010840F36F820E9C002C1D
:1041E00040F01683009B012B40F38F820EAA01231F
:1041F00052F8044F002C00F08382581C0EAAC4F120
:10420000807442F82340009A824219DD0EAA0EAC57
:1042100052F820106FF07F42511A44F82010009994
:10422000023399420CDD1046009A0EA901EB83037C
:1042300001EB82011A68821A43F8042B8B42F9D1F0
:10424000069B002B1ADD069B012B4FF0010440F06A
:104250003C82009B5A1E0EAB0EA953F82230C3F3CA
:10426000160341F822303CE2C8A50100ABAAAA2AF5
:104270000000703E0000704100002040022D15D16A
:1042800032463B460020924913F014FB06460F4687
:10429000069A8F49002000F0AFFF02460B463046D9
:1042A000394613F007FB022506460F46002200237D
:1042B0003046394613F01AFF002800F03782009A82
:1042C000079B501E83420FDC02F18043013B0EAA84
:1042D0000D9C02EB8303002253F80419A34242EA27
:1042E0000102F9D1002A67D1079B0EAA013B52F8BF
:1042F0002330002B40F018820C9A012352F8041945
:1043000001330029FAD0009AD31802F1010A9A4524
:1043100009933DDC009B0A990B9A0B4409990AEB1F
:104320000208994622AB08F1804803EBC9098B18B3
:10433000A59A08F1FF3802EB880872AA02EBCA0AB4
:10434000A59A02EB8303009358F8040F13F000FCC6
:10435000039B002BE9E802014FF000064FF0000735
:1043600011DB049C4D4675E90223F4E8020113F0C9
:1043700055FC02460B463046394613F09DFA5C4523
:1043800006460F46EFD1009B9845EAE80267DBD16D
:10439000099B0093A7E606D1009B0EAA013B52F8A9
:1043A0002350ED1512E700224A4B13F0BDFE002802
:1043B00040F06E81054679E70EA9039551F820304B
:1043C0000699CDF8248018390246009006916BB901
:1043D00000F18043013B0EA800EB830353F804096E
:1043E000013A18390028F9D000920691069A384906
:1043F000002000F001FF009B002B04460D46C0F298
:10440000F781DA0072A901EB020B06920EAA02EB09
:104410008306DFF8C4904FF000080BF1080704365C
:1044200056F8040D13F094FB22462B4613F0F6FBCE
:104430004B4667E9020142462046294613F0EEFB4F
:104440000EAB9E4204460D46EAD14AACDDF81C9004
:1044500004944FF0000AB9F1000FC0F22B81DFF88D
:104460007C805D4618A1D1E90001002600270024C8
:1044700003E0544510DCF8E80201F5E8022313F0EC
:10448000CDFB02460B463046394613F015FA01348F
:10449000A14506460F46ECDA049B03EBCA03ABF1D9
:1044A000080BC3E9006770AB9B450AF1010AD2D142
:1044B000A49B049C032B00F28980DFE803F0C58EE7
:1044C0008E1100BFAFF3008000000040FB21F93FD8
:1044D0000000F03F0000E03F0000703EE08E010071
:1044E000009B002B40F38181069A04EB020ADAE973
:1044F000008902F1080525440DF5987B1AED027B31
:1045000042464B4651EC170B8DED047B13F0D4F96A
:1045100006460F4602460B46DDE9040113F0CAF9D0
:1045200042464B4613F0C8F965E902015D45B046C5
:10453000B9466AE90267E1D1009B012B40F355813E
:10454000069BE518D5E9008903F1080B04EB0B0A7B
:1045500015ED027B42464B4651EC170B8DED007B6F
:1045600013F0AAF906460F4602460B46DDE90001A4
:1045700013F0A0F94B46424613F09EF96AE9020196
:104580004EAB5345B046B94665E90267E0D100201D
:10459000002104EB0B0575E9022313F08DF9AA4500
:1045A000F9D1039B002B00F00A816268E368089F41
:1045B0002568A4683D6002F1004203F1004301F167
:1045C00000417A60FB60BC6038617961099B03F04F
:1045D00007000DF51B7DBDE8F08F069D08352544CD
:1045E0000020002175E9022313F066F9A542F9D1F4
:1045F000039B002B00F0D280089E024601F100438D
:1046000086E80C000B460246D4E9000113F052F98B
:10461000009B002B0BDD4CAD0124F5E8022313F0C9
:104620004BF9009B0134A342F7DA039B13B101F16C
:1046300000431946089BC3E90201099B03F00700E8
:104640000DF51B7DBDE8F08F069D0835002000218B
:10465000254475E9022313F02FF9AC42F9D1039BED
:1046600013B101F100431946089BC3E90001099BFE
:1046700003F007000DF51B7DBDE8F08F0026002735
:10468000EAE80267DA4509F108097FF4FEAC1AE5A9
:10469000009B002B08F10108C8BF02253FF79EAD23
:1046A00032463B460020614913F004F902250646D4
:1046B0000F46FBE500260027EEE6069B002B27DDD4
:1046C0000024069B012B3FF4C4AD022B09D1009BB3
:1046D0005A1E0EAB0EA953F82230C3F3150341F84E
:1046E0002230022D7FF4E2AD32463B4600204F4996
:1046F00013F0E0F806460F46002C3FF4D7ADC7E5AF
:104700000099013399427FF473AD069B002BD8DCEE
:10471000022D7FF4CBAD32463B460020434913F0D7
:10472000C9F806460F46C1E50123ECE53946069F68
:1047300003957A423046CDF8248000F05DFD0022DA
:104740003B4B04460D4613F0EFFC002843D00022FB
:10475000384B2046294613F061FA13F00FFD064648
:1047600013F0F6F90022324B13F058FA02460B46CA
:104770002046294613F09EF813F000FD00990B46E1
:1047800001331A4600933B46183306930B460EA995
:1047900041F82300134641F8236027E6089B0246B0
:1047A000C3E900010B46D4E9000113F083F8009B34
:1047B000002B3FF730AF089BC3E902013DE7D4E986
:1047C0000067D4E90223089DC5E90401C5E9006733
:1047D000C5E90223FAE62946204613F0CFFC009AE9
:1047E0000EA941F8220001E64AAC00200021D8E6DB
:1047F000A49B032B3FF6EAAE01A252F823F000BFC0
:104800001F4800001748000017480000E947000053
:1048100001200023F2E4002000214AACE8E6002059
:1048200000211CE70A9BDB0000934CE40000F03FF2
:10483000000070410000703E2DE9F04F21F000466D
:10484000B6F1795F85B004460D469046994604DA84
:1048500013F094FC002800F0858022462B46204669
:10486000294613F0DBF906460F4602460B46204662
:10487000294613F0D3F941A3D3E9002382468B469E
:104880003046394613F0CAF93EA3D3E9002313F0AA
:1048900011F832463B4613F0C1F93CA3D3E900239B
:1048A00013F00AF832463B4613F0B8F939A3D3E9BE
:1048B000002312F0FFFF32463B4613F0AFF937A357
:1048C000D3E9002312F0F8FF0E9BCDE900019BB362
:1048D0000022294B4046494613F0A0F9DDE90023A8
:1048E000CDE902015046594613F098F902460B46AD
:1048F000DDE9020112F0DEFF32463B4613F08EF98D
:1049000042464B4612F0D6FF19A3D3E900230646D0
:104910000F465046594613F081F902460B46304681
:10492000394612F0C9FF02460B462046294612F0CE
:10493000C1FF05B0BDE8F08F02460B463046394650
:1049400013F06CF90AA3D3E9002312F0B3FF524627
:104950005B4613F063F922462B4612F0ADFF05B01B
:10496000BDE8F08F2046294605B0BDE8F08F00BFB6
:10497000495555555555C53F0000E03F7CD5CF5AA8
:104980003AD9E53DEB9C2B8AE6E55A3E7DFEB157D0
:10499000E31DC73ED561C119A0012A3FA6F8101139
:1049A0001111813F000000002DE9F04FBE4C21F0B5
:1049B000004687B0A64282468B460F46CDE90023CB
:1049C0001BDC13F0DBFB002837D153461E43109B42
:1049D0000133334300F0B381109B012B00F0C881F9
:1049E00052465B460020B14913F042FA04460D4698
:1049F0002046294607B0BDE8F08FAD4B9E421CDD36
:104A00000029C0F2A98152465B4687A1D1E9000185
:104A100012F050FFDDE9002304460D4684A1D1E9E0
:104A2000000112F047FF9FED847B22462B468DED5F
:104A3000007B12F041FF82468B4652465B46504651
:104A4000594613F0EBF802460B468046894613F0B0
:104A5000E5F8424604460D464B465046594613F08B
:104A6000DDF877A3D3E90023CDE9020120462946EA
:104A700013F0D4F874A3D3E9002312F01DFF2246EB
:104A80002B4613F0CBF872A3D3E9002312F014FFE6
:104A900022462B4613F0C2F86FA3D3E9002312F08D
:104AA0000BFF22462B4613F0B9F86DA3D3E9002380
:104AB00012F002FF22462B4613F0B0F86AA3D3E9A6
:104AC000002312F0F9FE42464B4613F0A7F868A304
:104AD000D3E90023CDE904012046294613F09EF8CE
:104AE00065A3D3E9002312F0E7FE22462B4613F01C
:104AF00095F863A3D3E9002312F0DEFE22462B468D
:104B000013F08CF860A3D3E9002312F0D5FE2246FF
:104B10002B4613F083F85EA3D3E9002312F0CCFEFA
:104B200022462B4613F07AF85BA3D3E9002312F058
:104B3000C3FE02460B46DDE9040112F0BDFEDDE9CD
:104B4000022313F06BF8DDE9004522462B4612F0F4
:104B5000B3FE42464B4613F061F802460B46204630
:104B6000294612F0A9FE4EA3D3E9002304460D46C0
:104B7000DDE9020113F052F822462B4612F09CFEAA
:104B80000B460246804689465046594612F094FE2E
:104B9000474B9E4204460D4600F38E80109B012B2E
:104BA0003BD002460B460020404913F061F9002437
:104BB00006460F462046294652465B46CDE9006729
:104BC000CDE90201009412F075FEDDE900AB02466A
:104BD0000B464046494612F06DFE52465B4613F0C6
:104BE0001DF8524604460D465B46DDE9020113F00E
:104BF00015F800222F4B12F05FFE02460B462046AE
:104C0000294612F059FE32463B4613F007F8524649
:104C10005B4612F051FE04460D462046294607B079
:104C2000BDE8F08FAFF30080182D4454FB21E93F1D
:104C3000075C143326A6813C000000000000000041
:104C4000D47ABF74702AFB3EE9A7F0320FB8123F46
:104C500068108D1AF726303F1583E0FEC8DB573FFA
:104C600093846EE9E326823FFE41B31BBAA1AB3FBA
:104C7000735360DBCB75F3BEA69237A0887E143FDA
:104C80000165F2F2D844433F280356C9226D6D3FB7
:104C900037D60684F464963F7AFE10111111C13F95
:104CA000635555555555D53FFFFF2F3E0000F0BFCA
:104CB0002794E53F0000F03F109812F049FF22468C
:104CC000CDE900012B462046294612F0A7FFDDE979
:104CD0000023CDE902012046294612F0EDFD0246EF
:104CE0000B46DDE9020113F0C3F842464B4612F0D1
:104CF000E1FD02460B465046594612F0DBFD0246E6
:104D00000B4612F0D9FD02460B46DDE9000112F018
:104D1000D1FD0446B81700F00200C0F101000D46B5
:104D200012F016FF02460B462046294612F076FF87
:104D300004460D462046294607B0BDE8F08F504690
:104D4000594610F0D7FC02460B4600200A4913F0E2
:104D50008FF804460D4660E7DDE9004501F10041AA
:104D6000224605F1004382468B46CDE900234AE600
:104D700054465D4651E700BF0000F03F00000000D0
:104D80002DE9F04FD24A21F00043934285B082468C
:104D90008B460C462DD9CF4A93421AD8002C80F26C
:104DA0001681B5A3D3E900235046594612F084FD7D
:104DB0000022002313F0A4F9C0B9B1A3D3E9002362
:104DC0005046594612F02AFF02460B460020C249BF
:104DD00008E1C24A934240F2D0800346C1F3130275
:104DE000134340F0F481002980F2C4800020BC49C4
:104DF000C0E0BC4A934200F22981BB4A934240F290
:104E0000DE80002301930022B84B5046594612F031
:104E100005FF06460F4602460B465046594612F01D
:104E2000FDFE99A3D3E9002304460D4612F0F6FED9
:104E300097A3D3E9002312F03FFD22462B4612F040
:104E4000EDFE95A3D3E9002312F034FD22462B4654
:104E500012F0E4FE92A3D3E9002312F02DFD2246C6
:104E60002B4612F0DBFE90A3D3E9002312F022FDC3
:104E700022462B4612F0D2FE00229D4B12F01CFD62
:104E80008046894602460B463046394612F0C6FE39
:104E900002460B460020974912F00CFD06460246DA
:104EA0000B460F464046494612F004FD3246804606
:104EB00089463B465046594612F0B0FE02460B4624
:104EC00000208D4912F0F6FC02460B46404649464A
:104ED00012F0CEFF22462B4612F0A0FE019E0246A3
:104EE0000B46002E38D0DDE9026732463B4612F011
:104EF000E1FC52465B4612F091FE32463B4612F010
:104F0000D9FC2B46224612F0D5FC019B0133064604
:104F10000F4600F00F81019B012B00F0F180019BF7
:104F20000133392B39D8019B132B40F31281019C9B
:104F3000C4F57F75033500222B0512F0BDFC024637
:104F40000B465046594612F0B5FC0022684B12F051
:104F5000B3FC01EB04510DE05046594612F05EFEE1
:104F600022462B4612F0A6FC02460B4650465946F6
:104F700012F0A0FC05B0BDE8F08F4DA3D3E90023EB
:104F800013F0DCF800283FF409AF4BA3D3E900236A
:104F90001046194612F042FEECE752465B4612F00C
:104FA00089FC02460B460020514912F083FC019A0D
:104FB0004F4B01EB0251002212F07CFCDAE73EA3DA
:104FC000D3E9002312F078FC02460B46CAE72CA373
:104FD000D3E900235046594612F020FE0B464349C0
:104FE0000246002012F068FC13F0C8F8019012F09D
:104FF000AFFD33A3D3E9002306460F4612F00EFEA1
:1050000002460B465046594612F054FC2EA3D3E9F3
:105010000023804689463046394612F0FFFD064699
:105020000F4632463B464046494612F043FC024694
:105030000B4682468B464046494612F03BFC3246C0
:105040003B4612F037FCCDE90201DCE62B4A9342E5
:1050500000F2958000291AA3D3E90023C0F2AC80A6
:1050600012F028FC012380468946019316A7D7E950
:105070000067D6E7AFF3008059F3F8C21F6EA501B1
:10508000FE822B654715F73F2DC3096EB7FD8ABE1B
:105090003952E686CACFD03EB7DBAA9E19CE143F5E
:1050A0008555FE19A0015A3FF41011111111A13FAD
:1050B000EF39FAFE422E86409C7500883CE4377E2C
:1050C0000000E0FE422EE63F763C7935EF39EA3DBE
:1050D00079684340412E86400000E0BFFFFFEF7F2C
:1050E0000000F0BF422ED63FFFFF8F3C0000E03FA4
:1050F0000000F03F0000084000001840B1A2F03F5F
:105100000022394B5046594612F0FAFF002844D08D
:10511000504659460022354B12F0CEFB02460B4654
:105120003046394612F0C6FB00224FF0404312F0E1
:1051300075FD1FE702460B465046594612F0BAFB72
:1051400000222A4B12F06AFD0022284B12F0B2FB1B
:1051500010E7019C4FF400132341C3F17F575246DF
:105160005B4612F0A7FB002607F5401702460B46E8
:105170003046394612F09EFB01EB0451FAE616A3C5
:10518000D3E9002312F04AFD002C02460B464FF0F3
:105190000000FFF61CAE154924E732463B46504658
:1051A000594612F087FB02460B4612F085FB00229F
:1051B0000F4B12F081FBDDE612F07EFB4FF0FF3368
:1051C00080468946019306A7D7E9006729E702468A
:1051D0000B4612F071FBCDE6FE822B654715F73FBB
:1051E000763C7935EF39EABD0000D0BF0000E03FE2
:1051F0000000F03F00000000F8B5C1F30A56044675
:105200000D460B4617460EBB21F00043034386466E
:1052100025D00022344B12F001FD344A9742044657
:105220000D460B462ADBC1F30A56363E3E4440F299
:10523000FE72964228DC002E12DD23F0FF4323F499
:10524000E00343EA065520462946F8BD40F2FF72C6
:105250009642EBD102460B4612F02EFBF8BDF8BD8C
:1052600016F1350F1DDA4CF250339F4222462B4681
:1052700025DC19A1D1E9000112F08EFA16A3D3E9B9
:10528000002312F0CBFCF8BD22462B4614A1D1E935
:10529000000112F081FA12A3D3E9002312F0BEFC40
:1052A000F8BD23F0FF4323F4E003363643EA065506
:1052B0002046294600220E4B12F0B0FCF8BD08A192
:1052C000D1E9000112F068FA05A3D3E9002312F036
:1052D000A5FCF8BDAFF3008059F3F8C21F6EA5011D
:1052E0009C7500883CE4377E00005043B03CFFFFD3
:1052F0000000903C10B5054C237833B9044B13B132
:105300000448AFF300800123237010BD1005002076
:105310000000000020A701000C4B43B10C480D49D0
:1053200010B5AFF300800C48036823B910BD0A48DC
:10533000036833B97047094B002BF7D0BDE8104024
:105340001847064B002BF5D0184700BF000000009F
:1053500020A7010014050020140200200000000016
:10536000154B002B08BF134B9D46A3F5803A002137
:105370008B460F461348144A121A08F05FF90F4B78
:10538000002B00D098470E4B002B00D098470020F0
:10539000002104000D000D48002802D00C48AFF396
:1053A000008012F02FFA2000290005F087F912F092
:1053B00015FA00BF000008000000022000000000F5
:1053C0000000000000040020840C00200000000009
:1053D0000000000070B504460E4600F0D1F888B118
:1053E0000368DB6A05469847082C0CD0A4F1090332
:1053F000012B14D93246214610230D20BDE8704000
:1054000004F0A8B870BD2B6828465B6A984702284C
:10541000F0DC2B6828461B6A04219847EAE72B68D2
:1054200028465B6A98470528E4DC2B6828461B6AF7
:1054300008219847DEE700BF30B52DED028B83B021
:10544000054600F09DF8044640B10368DB6A9847C2
:10545000032D50D8DFE805F0373F47080190019849
:1054600003B0BDEC028B30BD20460BF0C1FC07EE53
:10547000900A2046F8EEE78A0BF0CAFC07EE900A85
:105480002046B8EEE78A0BF0D3FC68EE087A07EE08
:10549000100AE8EEA87AB8EEC77AE7EE077AF5EEDA
:1054A000407AF1EE10FAB1EEE78A03D517EE900AD2
:1054B00010F0E6FEFDEEC87ACDED017A019803B05A
:1054C000BDEC028B30BD204603B0BDEC028BBDE8C5
:1054D00030400BF08DBC204603B0BDEC028BBDE824
:1054E00030400BF095BC204603B0BDEC028BBDE80C
:1054F00030400BF09DBC00230193B0E738B5054662
:1055000000F03EF858B10368DB6A0446984745B19D
:10551000012D04D12046BDE83840FBF79DB800209E
:1055200038BD2046BDE83840FBF776B810B50446D4
:1055300000F026F828B1036821461B6ABDE8104038
:10554000184710BD0048704716FCFFFF704700BFAA
:1055500010B5034B036004460BF02AFA204610BD39
:105560003C9C010010B5054B036004460BF020FA8B
:10557000204613F095F8204610BD00BF3C9C01006A
:105580002DE9F043C04C236885B01BB1986805B085
:10559000BDE8F0834FF0FF31012001F0FFFCC0B205
:1055A00004F028FB002800F0ED800C2013F07AF8BE
:1055B00003210646512001F0F1FCDFF8FCE2B34B79
:1055C000054605F00F07C5F3031815F4807518BFDD
:1055D0007346AF48394642460AF0E8FB2A1C18BF1A
:1055E00001223946434630460DF05EFD0023A948AE
:1055F000B3600AF0DBFB4FF0FF31032001F0CEFC7B
:10560000C0B204F0F7FA4FF0FF310546022001F076
:10561000C5FCC0B204F0EEFA002D00F09A8000281C
:1056200000F097800146284604F076F807460028E7
:1056300000F0A4804FF0FF31462001F0AFFC32288B
:1056400080462BD028DD382869D068283FD14FF01C
:10565000FF31012001F0A2FCC0B204F0CBFA814678
:105660004C2013F01FF80523054601934A46CDF858
:105670000080394633460CF059FC2846B060036878
:105680009B6A9847B0680368DB6A984782480AF0CB
:105690008DFB2660B0687AE7302818D14FF0FF31D3
:1056A000012001F07BFCC0B204F0A4FA81464C203A
:1056B00012F0F8FF1FFA88F1054605234A460091CB
:1056C0000193394633460CF013FA2846D6E73A6878
:1056D0000125002301950095D2F82080B3600F22A8
:1056E0000DF10F0332213846C047002856D14FF044
:1056F0003208414669480AF059FB4FF0FF3101205A
:1057000001F04CFCC0B204F075FA81464C2012F056
:10571000C9FF052305464A46CDF80080D0E74FF083
:10572000FF31012001F03AFCC0B204F063FA814677
:10573000442012F0B7FF052305464A46CDF8008005
:105740003946019333460CF049FB554B2B602846F4
:1057500094E754480AF02AFB4FF0FF31192001F07A
:105760001DFCC0B204F046FA4FF0FF310546182088
:1057700001F014FCC0B204F03DFA53E74A480AF0C5
:1057800015FB86E74FF0FF31032001F007FCC0B2A4
:1057900004F030FA00287FF408AFF8E63B68019582
:1057A0000095D3F820800F220DF10F0330213846E9
:1057B000C04718B94FF0300841469BE73B68019558
:1057C0000095D3F820800D220DF10F0338213846C3
:1057D000C047C0B9382131480AF0E8FA4FF0FF312C
:1057E000284601F0DBFBC0B204F004FA80464420F6
:1057F00012F058FF4FF0050E382305464246394651
:105800008DE808409EE73A6801950095D2F820801F
:105810000DF10F03752268213846C047E0B96821B1
:105820001E480AF0C3FA4FF0FF31284601F0B6FBDC
:10583000C0B204F0DFF980464C2012F033FF4FF085
:10584000050E682305468DE8084042463946334632
:105850000CF06CFB284611E714480AF0A7FAB06870
:1058600000287FF40CAF4FF0FF31032001F096FBCE
:10587000C0B204F0BFF918B10D480AF097FA08E772
:105880000C480AF093FA04E72C0500206C8F010005
:10589000748F0100948F01002C9001005090010042
:1058A000308F0100A48F0100B88F01003C900100EF
:1058B000D08F01000C900100648F010008B501F049
:1058C00095FCFBF76DFCBDE8084001F0FDB900BF99
:1058D00008B501F08BFCFBF7D3FCBDE8084001F0F4
:1058E000F3B900BF08B501F081FC0FF079FFBDE806
:1058F000084001F0E9B900BF08B501F077FC10F0ED
:1059000081FBBDE8084001F0DFB900BF08B501F038
:105910006DFCFBF755FCBDE8084001F0D5B900BFB0
:1059200008B501F063FC10F099F9BDE8084001F0FA
:10593000CBB900BF08B501F059FCFAF7ADFEBDE8E0
:10594000084001F0C1B900BF08B501F04FFC10F0EC
:10595000D9F8BDE8084001F0B7B900BF70B5049EA2
:1059600096420C4628DB15466BB1002A00EB02017B
:1059700007DD2046A21811F8013D00F8013B9042D6
:10598000F9D1002070BD042A0FD0022A02D110F0F4
:10599000010306D001462A46204606F05FFC00209F
:1059A00070BD02880A80184670BD10F00303F1D163
:1059B00002680A60184670BD0846002107F03EFEE6
:1059C0004FF0FF3070BD00BF0830704740B1002974
:1059D00005DB4368994202DA0844007A70470020E8
:1059E000704700BF30B1002904DB43689942BCBF57
:1059F00040180272704700BF40B1002905DB4368C0
:105A0000994202DA0844007A70470020704700BFCC
:105A1000830705D120B1030F0CBF01200020704780
:105A20000120704730B1002904DB43689942BCBFB4
:105A300040180272704700BF002B23DB002921DBD6
:105A400070B54668B1421ADC5568761A1446EA1AEF
:105A5000B242A8BF3246002A11DB84420D4607D06D
:105A6000083408300844E11806F0F8FB002070BD47
:105A70000834E118601912F04FFE002070BD4FF09D
:105A8000FF3070BD4FF0FF30704700BF4068704777
:105A900010B4141E10DB426894420DDC33EA230379
:105AA00028BF1346121B08309A422044A8BF1A464A
:105AB0005DF8044B07F0C2BD5DF8044B704700BFB2
:105AC00043688B4210B400F108041846A8BF08468A
:105AD00032EA220128BF19461B1A99422044A8BF66
