:1000000000000220C54E0100ED4E0100EF4E010040
:10001000F14E0100F34E0100F54E0100000000001A
:10002000000000000000000000000000F74E01008A
:10003000F94E010000000000FB4E0100FD4E0100E2
:10004000FF4E0100FF4E0100654D0100294D0100EA
:100050003D4D0100FF4E0100A9410100FF4E01008E
:10006000094A0100114A0100194A0100FF4E01002E
:10007000FF4E0100FF4E0100FF4E0100FF4E010048
:10008000FF4E0100FF4E0100FF4E0100FF4E010038
:10009000FF4E0100FF4E0100FF4E0100FF4E010028
:1000A000FF4E0100FF4E0100214A0100294A0100D4
:1000B000FF4E0100FF4E01000000000000000000A4
:1000C000FF4E0100FF4E0100FF4E0100514D0100A7
:1000D000FF4E0100FF4E0100FF4E0100FF4E0100E8
:1000E0008D4D010000000000000000000000000035
:1000F00000000000FF4E010000000000794D0100EB
:1001000000000000000000000000000000000000EF
:1001100000000000000000000000000000000000DF
:1001200000000000000000000000000000000000CF
:1001300000000000000000000000000000000000BF
:1001400000000000000000000000000000000000AF
:10015000000000000000000000000000000000009F
:10016000000000000000000000000000000000008F
:10017000000000000000000000000000000000007F
:10018000000000000000000000000000000000006F
:10019000000000000000000000000000000000005F
:1001A000000000000000000000000000000000004F
:1001B000000000000000000000000000000000003F
:1001C000000000000000000000000000000000002F
:1001D000000000000000000000000000000000001F
:1001E000000000000000000000000000000000000F
:1001F00000000000000000000000000000000000FF
:100200007CB0EE877CB0EE87FF00FF00FF00FF00B0
:10021000FF00FF00FF00FF00FF00FF00FF00FF00E6
:10022000FF00FF00FF00FF00FF00FF00FF00FF00D6
:10023000FF00FF00FF00FF002DE9F04F85B00391A4
:100240000778A7F10903042B044607F07F0200F1A9
:100250000100F5D9202AF3D02B2F04BF677804467C
:100260002D2F72D09FED427B8DED007B4FF000086B
:100270004FF000098FB34FF0000E4FF0000ADFF887
:1002800000B1754619E017F013FB804689463046E9
:1002900017F0A8FA42464B4617F058F952468046E6
:1002A00089465B46DDE9000135B317F02BFCCDE94B
:1002B0000001AE4614F8017F7FB1A7F13006092E88
:1002C00052465B4640464946DDD9C5B92E2F16D168
:1002D00014F8017F0125002FEFD142464B46DDE99E
:1002E000000117F0E5FA80468946039B40464946DF
:1002F0001C6005B0BDE8F08F4FF0010EDAE7BEF1EB
:10030000000F29D042464B46DDE9000117F0D0FA34
:1003100007F0DF07452F80468946E6D10399601C28
:100320000A2217F0F7F816490246002017F020FEBF
:1003300002460B464046494617F0BAFA80468946BF
:100340004046494605B0BDE8F08F9FED0B7B6778CE
:100350008DED007B013489E7DFF828904FF000082D
:100360004046494605B0BDE8F08F00BFAFF30080BE
:10037000000000000000F03F000000000000F0BF9F
:10038000000024400000F87F2DE9F84F16460023B6
:10039000002204460D4617F0FDFC002840F09D8029
:1003A000002200232046294617F0EAFC28B130221B
:1003B000002332707370BDE8F88F2046294615F08F
:1003C00079FD17F025FD7BA3D3E90023814629465B
:1003D000204617F0DFFC002800F08680B9F1000FFE
:1003E000C0F2BE804A4600206F4917F0C1FD0246A8
:1003F0000B462046294617F085FB04460D4666A1AC
:10040000D1E9000101274FF0000822462B4617F0E2
:100410004FFA0022654B17F099F817F0E5FD002F11
:10042000CC464FF0FF3AC1464FF0000840F38580BC
:10043000DFF888E15E4C0122AEF1700945F6F32544
:100440004FF02E0BA94208BFA0424FF0300309D352
:10045000001B61EB0501A94208BFA04203F10103A3
:10046000F6D2DBB2337050EA010306F1010409D180
:10047000BA4210DACE4502F101020CD026467EE8DF
:100480000245DFE7BA4204BF86F801B0B41CCE458E
:1004900002F10102F2D1B8F1000F0DD02246302155
:1004A00002F8011BC2F1010353442344002BF7DC83
:1004B0002AEAEA7301331C44BCF1010F4CD06523D6
:1004C000BCF1000F2370C5BF2B236370611CA11CFE
:1004D0006046BDE8F84F0FF0B1BA05F100431D4684
:1004E0002D23337001365BE72DA3D3E9002320468B
:1004F000294617F06DFC00287FF470AFB9F10E0F9C
:1005000009F101073DDDA9F10E0842460020264908
:1005100017F02EFD02460B462046294617F0F2FA48
:100520000022224B17F012F817F05EFD002FA9F100
:100530000F0A4FF0010C3FF77BAF334630222E24D9
:1005400003F8022B74707FEA090618D01E4403F8E2
:10055000012BB342FBD16BE700232370BDE8F88F7A
:10056000C9F100020020104917F002FD02460B46B7
:100570002046294617F09CF904460D463FE71E46E3
:1005800056E7C9F10E0200200749C84617F0F0FCF3
:100590004FF0010939E700BF0000901EC4BCD642ED
:1005A00050EFE2D6E41A4B44000024400000E03F44
:1005B00000407A108DEDB5A0F7C6B03ED08A01009C
:1005C00070B54FF0FF3006F0B5F904466FF07F408C
:1005D00006F0B0F90646204617F0F4F800220C4B5E
:1005E00017F066F9044630460D4617F0EBF806A3FF
:1005F000D3E9002317F086FA02460B462046294627
:1006000016F0A4FF70BD00BF0000E0DFFFFF6F43E6
:100610000000F03D0000000008B510F0BBFCDFED6D
:100620000C7A07EE100A67EE277A17EE900A17F099
:10063000EBF805A3D3E9002317F064FA17F0E8FB01
:1006400008BD00BFAFF30080EA2E4454FB211940DF
:100650000000B4430000000008B510F0AFFCDFED6F
:100660000C7A07EE100A67EE277A17EE900A17F059
:10067000CBF805A3D3E9002317F044FA17F0C8FB21
:1006800008BD00BFAFF30080EA2E4454FB2119409F
:100690000000B44300000000494A21F000439342A7
:1006A0002DE9704304460D464BDC464A93420E4604
:1006B0000EDC3FA3D3E9002316F048FF0022424B93
:1006C00017F086FB00284CD020462946BDE87083F1
:1006D0003E4A93423BDCB3F1804F42DD14F0E4FF2D
:1006E0002246804689462B462046294617F0E0F8E8
:1006F0000022354B16F02AFF15F09AFE02460B46F3
:100700004046494616F022FF02460B4600202E497D
:1007100017F0F8F9424604460D464B464046494616
:1007200016F014FF02460B462046294616F00EFF2F
:1007300002F06AF8002EC9DC01F100431946BDE859
:10074000708302460B4616F001FFBDE8708314F07B
:10075000ABFF02F059F818A3D3E9002316F0F6FE18
:10076000E8E722462B462046294617F0A1F88046A6
:1007700089462046294614F097FF002204460D467C
:10078000114B4046494616F0E1FE15F051FE00229D
:100790000D4B16F0DBFE02460B464046494617F06D
:1007A000B1F922462B4616F0D1FE00F0C5FAC1E79A
:1007B0009C7500883CE4377EEF39FAFE422EE63F16
:1007C000FFFFEF7FFFFF2F3E0000F03F0000B04132
:1007D0002DE9F84FC44B21F000469E4204460D46D9
:1007E0008A460EDDC14B9E4200F3AC8000F0A7802C
:1007F000BAF1000F40F3EA809FA1D1E90001BDE802
:10080000F88FBB4B9E4200F3B580A3F1DE739E428E
:1008100040F3A0804FF0FF3B22462B46204629465E
:1008200017F046F802460B468046894617F040F816
:1008300093A3D3E9002306460F4617F039F892A395
:10084000D3E9002316F082FE32463B4617F030F81B
:100850008FA3D3E9002316F079FE32463B4617F00A
:1008600027F88DA3D3E9002316F070FE32463B46ED
:1008700017F01EF88AA3D3E9002316F067FE32466C
:100880003B4617F015F888A3D3E9002316F05EFE67
:1008900042464B4617F00CF885A3D3E90023804667
:1008A00089463046394617F003F883A3D3E900237D
:1008B00016F04AFE32463B4616F0FAFF80A3D3E913
:1008C000002316F041FE32463B4616F0F1FF7EA3B0
:1008D000D3E9002316F038FE32463B4616F0E8FF17
:1008E0007BA3D3E9002316F02FFE32463B4616F0D9
:1008F000DFFFBBF1FF3F02460B466CD04046494646
:1009000016F024FE22462B4616F0D2FF794E7A4B83
:100910004FEACB0B5E449B44DBE9002316F014FE48
:1009200022462B4616F010FE02460B46D6E9000181
:1009300016F00AFEBAF1000F43DBBDE8F88F00287D
:100940003FF456AF22462B462046294616F0FEFDC0
:10095000BDE8F88F60A3D3E9002316F0F7FD00226D
:10096000664B17F035FA00283FF454AF204629466D
:10097000BDE8F88F14F098FE614B9E4204460D4688
:1009800039DCA3F550239E425EDC02460B4616F08E
:10099000DDFD0022594B16F0D7FD002206460F461A
:1009A0004FF080432046294616F0D0FD02460B4604
:1009B0003046394617F0A6F84FF0000B04460D46B6
:1009C0002AE701F100431946BDE8F88F44A1D1E9B7
:1009D0000001BDE8F88F4046494616F0B7FD2246B3
:1009E0002B4616F065FF02460B462046294616F0B8
:1009F000ABFDBDE8F88F434B9E421ADC0022424B10
:100A000016F0A2FD002206460F463F4B204629461F
:100A100016F04EFF0022394B16F098FD02460B46A9
:100A20003046394617F06EF84FF0020B04460D467B
:100A3000F2E602460B460020344917F063F84FF007
:100A4000030B04460D46E7E600222C4B16F07CFD16
:100A5000002206460F46294B2046294616F076FD11
:100A600002460B463046394617F04CF84FF0010B62
:100A700004460D46D0E600BF182D4454FB21F93F33
:100A800011DA22E33AAD903FEB0D76244B7BA93F80
:100A9000513DD0A0660DB13F6E204CC5CD45B73F4E
:100AA000FF8300922449C23F0D5555555555D53FFA
:100AB0002F6C6A2C44B4A2BF9AFDDE522DDEAD3FEE
:100AC0006D9A74AFF2B0B33F711623FEC671BC3F8E
:100AD000C4EB98999999C93F9C7500883CE4377E8E
:100AE000182D4454FB21F9BFFFFF0F440000F07F95
:100AF000FFFFDB3FE08A0100008B01000000F03FB8
:100B0000FFFFF23FFF7F03400000F83F0000F0BF0F
:100B10002DE9F843C1F30A59A9F2FF35132D024616
:100B20000B460C4606468846074622DC002D50DB65
:100B3000DFF8F09049FA05F901EA090E5EEA0606C7
:100B40001CD036A3D3E9002316F000FD00220023B9
:100B500017F03EF948B1002C04DD4FF4801343FA3E
:100B600005F5A84428EA0904002721463846BDE8CF
:100B7000F883332D06DDB5F5806F3DD0104619465C
:100B8000BDE8F883A9F213494FF0FF3E2EFA09F9A8
:100B900010EA090FF2D021A3D3E9002316F0D6FC06
:100BA0000022002317F014F90028DED0002C09DD04
:100BB000142D2BD00127C5F1340507FA05F5AE1920
:100BC00028BFB844444626EA090721463846BDE80E
:100BD000F88312A3D3E9002316F0B8FC0022002307
:100BE00017F0F6F80028C0D0002C0BDB54EA0607FB
:100BF00006D00027084CB8E716F0A8FCBDE8F8833B
:100C00003C46B2E700274FF00044AEE704F101088C
:100C1000D8E700BFAFF300800000F03F9C7500886C
:100C20003CE4377EFFFF0F002DE9F041C1F30A5786
:100C3000A7F2FF35132D02460B460C4688460646A2
:100C40001CDC002D3FDB3A4F2F41864601EA070CA2
:100C50005CEA0E0E17D034A3D3E9002316F076FC1D
:100C60000022002317F0B4F820B1002C3FDB28EA63
:100C70000704002621463046BDE8F081332D06DD0D
:100C8000B5F5806F2FD010461946BDE8F081A7F268
:100C900013474FF0FF3E2EFA07F73842F3D022A356
:100CA000D3E9002316F052FC0022002317F090F83D
:100CB0000028DFD0002C20DB444626EA0706214628
:100CC0003046BDE8F08118A3D3E9002316F03EFCBE
:100CD0000022002317F07CF80028CBD0002C17DB73
:100CE00000263446C6E716F031FCBDE8F0814FF42B
:100CF000801343FA05F5A844B9E7142D10D0012359
:100D0000C5F1340503FA05F5AE1928BF9844D3E7B9
:100D100024F00042074B324318BF1C460026A9E7C7
:100D200004F10108C8E700BF9C7500883CE4377EE9
:100D3000FFFF0F000000F0BF2DE9F04FD84B9942A4
:100D400087B0804689460E4613DCD64B21F000441E
:100D50009C4218DD0022D44B17F012F8002879D0FD
:100D6000002200230020D14916F0CCFE07B0BDE8D8
:100D7000F08FCF4B99422FDD42464B4616F0E6FBF3
:100D800007B0BDE8F08FCB4B9C4270DDCA4B1E44D0
:100D90009E427ED80022C94B4046494616F0D6FBFB
:100DA0004FEA215AAAF2FF3ABAF1000F04460D4663
:100DB0000E4640F3DE8142464B4616F0C5FB024626
:100DC0000B460020BD4916F0BFFB22462B4616F00D
:100DD00099FECDE902010BE0B94B9E42DADD9FEDB1
:100DE0009A7B8DED027B4FEA265A4446AAF2FF3ADF
:100DF000B44BC6F313069E4246F07F5500F3E780DE
:100E000045F44015204629460022AC4B16F09CFBC9
:100E1000002204460D46AC4B16F04AFD22462B46F6
:100E200016F046FDA046CDE90401A946CDE9000132
:100E3000002E3AD1002200232046294616F0A0FFBA
:100E4000002800F0CE80BAF1000F40F0748100203D
:100E5000002195E742464B464046314616F074FB6A
:100E600002460B4616F04EFE07B0BDE8F08F00229A
:100E7000964B16F06BFB0022002316F0A9FF00280A
:100E800000F0CC80924B9C4200F3C880404649461B
:100E900076E700228C4B16F00BFD42464B4616F0CF
:100EA00007FDCDE900014FF0000A00224FF080431A
:100EB0004046494616F04AFB02460B464046494624
:100EC00016F020FE02460B4606460F4616F0F0FCD2
:100ED0005FA3D3E9002304460D4616F0E9FC5EA3A8
:100EE000D3E9002316F032FB22462B4616F0E0FC35
:100EF0005BA3D3E9002316F029FB22462B4616F00C
:100F0000D7FC59A3D3E9002316F020FB22462B4639
:100F100016F0CEFC56A3D3E9002316F017FB2246A9
:100F20002B4616F0C5FC54A3D3E9002316F00EFBA4
:100F300022462B4616F0BCFC51A3D3E9002316F041
:100F400005FB22462B4616F0B3FC04460D46BAF1CB
:100F5000000F00F0BF80504616F044FC4AA3D3E9CE
:100F6000002382468B4616F0A3FCDDE90023CDE981
:100F700004012046294616F0E9FA32463B4616F0AF
:100F800097FC43A3D3E9002304460D465046594637
:100F900016F08EFCDDE9022316F0D8FA02460B4665
:100FA0002046294616F0D2FA02460B46DDE900013A
:100FB00016F0CAFA42464B4616F0C6FA02460B46EF
:100FC000DDE9040116F0C0FA07B0BDE8F08F45F482
:100FD0000015C6F5801620462946B6100AF1010A0A
:100FE00012E72DA3D3E900232046294616F060FC22
:100FF00002460B460020314916F0A6FADDE904232B
:1010000016F056FC06460F46BAF1000F73D10246A1
:101010000B462046294616F097FAB1E642464B4663
:101020004046494616F044FC0022274B16F040FC8F
:1010300002460B464046494616F086FA07B0BDE820
:10104000F08F00BFAFF30080000000000000000040
:1010500044523EDF12F1C23F9FC678D0099AC33F87
:10106000DE03CB966446C73FAF788E1DC571CC3F7B
:10107000599322942449D23F04FA97999999D93FD8
:10108000935555555555E53F0000E0FE422EE63F8D
:10109000763C7935EF39EA3D555555555555E53F7F
:1010A0007982DA3FFFFFEF3F0000F0BF000050C33E
:1010B000FFFFEF7FFFFF1F3E3C412D400000F03F50
:1010C000FFFF3F439DA006000000E03F00005043AB
:1010D000FFFF8F3CDDE9004522462B4616F036FA2D
:1010E00032463B4616F0E4FB02460B4620462946B4
:1010F00016F02AFA9CE7504616F074FB23A3D3E9B6
:10110000002382468B4616F0D3FB22A3D3E90023AB
:10111000804689465046594616F0CAFBDDE902234F
:1011200016F014FA02460B463046394616F00CFA11
:1011300022462B46DCE7504616F054FB15A3D3E9B4
:10114000002306460F4616F0B3FBDDE9022316F036
:10115000FDF90EA3D3E9002304460D463046394677
:1011600016F0A6FB02460B462046294616F0EEF97D
:1011700006E60022044B16F0E7F902460B4640460D
:10118000494616F0E1F920E60000F03F0000E0FEDD
:10119000422EE63F763C7935EF39EA3D000000000B
:1011A00008B514F007FE04A3D3E9002316F0AAFC47
:1011B00008BD00BFAFF30080EF39FAFE422EE63FD4
:1011C0002DE9F043DFF8B4808BB004460D4601F002
:1011D000F3F898F90030013306460F462BD022462B
:1011E0002B462046294616F0FDFD814618BB2046B9
:1011F000294614F059FA1FA3D3E9002316F0E8FD9D
:10120000C8B1194A98F90030CDF820900321CDE9F2
:101210000445CDE902458DE806008BB9134B4FF02C
:101220006042CDE90623684615F090FF70B1089B37
:101230009BB9DDE90667304639460BB0BDE8F0835F
:101240000B490020022BCDE90601ECD116F00AF97A
:1012500022230360089B002BEBD016F003F9089BB8
:101260000360E6E7AFF30080C49C0100FFFFEF4797
:101270000000F07F7DF8B98FCE338640FF0100205B
:101280002DE9F043DFF8E4808BB004460D4601F011
:1012900043F998F90030013306460F4633D0204613
:1012A000294615F04DFF70B32CA3D3E90023204647
:1012B000294616F08DFD814650BB2AA3D3E90023B1
:1012C0002046294616F066FDE8B198F90030204A1C
:1012D000CDF82090002600270421022BCDE90445FB
:1012E000CDE90245CDE906678DE8060029D06846BC
:1012F00015F02CFF28B3089B1BB116F0B3F8089B20
:101300000360DDE90667304639460BB0BDE8F0837F
:101310000F4A98F90030019203210022CDE90445DB
:10132000CDE90245009108922BB90A4B4FF060427B
:10133000CDE90623DBE708490020022BCDE90601B1
:10134000D5D116F08FF822230360D4E7AFF30080E5
:10135000CC9C0100FFFFEF470000F07FEF39FAFE61
:10136000422E864051302DD5104987C0FF01002004
:101370002DE9F04FDFF80C938DB006460F4614466A
:101380001D4601F0C5FC99F90080B8F1FF3FCDE999
:10139000000136D022462B462046294616F022FD73
:1013A000834670BB32463B463046394616F01AFD3E
:1013B0008246002840F0A2803046394600220023B1
:1013C00016F0DEFC10B3002200232046294616F05A
:1013D000D7FC834600286AD09FEDA17B0122A44B55
:1013E000CDF828A00292CDE90467CDE906458DED40
:1013F000087B0393B8F1000F45D09FED9B7B8DEDEB
:10140000007BDDE900010DB0BDE8F08FDDE90001F2
:1014100015F096FE8046002800F08D804FF0000AFF
:101420004FF0000BDDE9000152465B4616F0A8FCC8
:101430000028E6D03046394615F082FE0028E0D07C
:101440002046294615F07CFE0028DAD099F90030B4
:10145000874A039204210022022BCDE90467CDE9DB
:101460000645CDE908AB02910A9203D002A815F017
:101470006DFE68B915F0F6FF2223036008E09FEDCA
:10148000787B8DED087B02A815F060FE002830D037
:101490000A9B1BB115F0E6FF0A9B03609DED087BDC
:1014A0008DED007BDDE900010DB0BDE8F08F204639
:1014B000294615F045FE0028A3D00022002320462F
:1014C000294616F067FC00289BD099F90030684A3D
:1014D000CDF828B00121CDE90467CDE90645029198
:1014E0000392002BCBD063490020022BCDE90801E9
:1014F000C9D115F0B7FF21230360C9E700220023FB
:101500002046294616F03CFC00283FF47AAF5A4B9F
:101510005749CDF828B000220120B8F1020FCDE9DB
:1015200004670290CDE90645CDE908230391AAD1CD
:10153000CDE9002365E73046394615F001FE002865
:101540003FF46CAF2046294615F0FAFD00283FF421
:1015500065AFDDE900231046194616F043FC00286C
:101560005FD1032399F900800293414B0A90CDE9A2
:101570000467CDE906450393B8F1000F2BD1DFF8DE
:1015800008B14FF0604A0022002330463946CDE9C9
:1015900008AB16F0FFFB00283FF468AF0022374B82
:1015A0002046294616F084F904460D4615F0D6FD6E
:1015B00002460B462046294616F0E2FB70BB304B34
:1015C00099F900804FF06042CDE90823B8F1020F8D
:1015D0007FF44CAF4EE7DFF8B4B04FF0000A0022C2
:1015E000002330463946CDE908AB16F0D3FB00287E
:1015F000ECD00022214B2046294616F059F904462A
:101600000D4615F0ABFD02460B462046294616F066
:10161000B7FB18B9174B0022CDE9082399F90080D0
:10162000D4E799F90090124BCDF828800122CDE93A
:101630000467CDE9064502920393B9F1000F3FF428
:101640001EAF002200231046194616F05BFAB9F1CE
:10165000020FCDE908013FF44CAF14E7AFF300806F
:101660000000000000000000000000000000F03F4B
:10167000E49C01000000F0FF0000F03F0000E03FAC
:10168000FFFFEFC7FF010020FFFFEF470000F07FE3
:101690002DE9F84FC44E21F00043B34204460D46F5
:1016A0000DDD03F1404303F58013034340F0B9809F
:1016B000002940F3408100200021BDE8F88FBB4E97
:1016C000B34240F3A6800029C0F2788102460B465F
:1016D0000020B74915F038FF0022B64B16F0E8F8A5
:1016E00004460D4614F0A4FE95A3D3E900238946D1
:1016F00080462946204616F0DBF893A3D3E9002361
:1017000015F024FF22462B4616F0D2F890A3D3E919
:10171000002315F019FF22462B4616F0C9F88EA3B8
:10172000D3E9002315F012FF22462B4616F0C0F82D
:101730008BA3D3E9002315F007FF22462B4616F0B2
:10174000B7F889A3D3E9002315F000FF22462B4602
:1017500016F0AEF886A3D3E9002382468B462046D6
:10176000294616F0A5F884A3D3E9002315F0ECFE72
:1017700022462B4616F09CF881A3D3E9002315F0EE
:10178000E5FE22462B4616F093F87FA3D3E900230B
:1017900015F0DAFE22462B4616F08AF80022844B1A
:1017A00015F0D4FE02460B465046594616F0AAF9EB
:1017B00042464B4616F07CF8002682468B4632465F
:1017C0004B463046494616F073F802460B46204613
:1017D000294615F0B9FE324604460D464B464046B2
:1017E000494615F0B3FE02460B462046294616F040
:1017F00089F902460B465046594615F0A7FE324677
:101800004B4615F0A3FE02460B4615F09FFEBDE8C1
:10181000F88F694A93420EDC5DA1D1E90001BDE871
:10182000F88F02460B4615F08FFE02460B4616F067
:1018300069F9BDE8F88F02460B4616F039F840A367
:10184000D3E9002306460F4616F032F83EA3D3E94B
:10185000002315F07BFE32463B4616F029F83CA3E8
:10186000D3E9002315F070FE32463B4616F020F80F
:1018700039A3D3E9002315F069FE32463B4616F042
:1018800017F837A3D3E9002315F05EFE32463B4636
:1018900016F00EF834A3D3E9002315F057FE3246B4
:1018A0003B4616F005F832A3D3E90023804689466B
:1018B0003046394615F0FCFF2FA3D3E9002315F07D
:1018C00043FE32463B4615F0F3FF2DA3D3E9002338
:1018D00015F03CFE32463B4615F0EAFF2AA3D3E959
:1018E000002315F031FE32463B4615F0E1FF0022A1
:1018F0002F4B15F02BFE02460B464046494616F08C
:1019000001F922462B4615F0D3FF02460B4622A1D1
:10191000D1E9000115F018FE02460B462046294683
:1019200015F012FE02460B4619A1D1E9000115F08F
:101930000BFEBDE8F88F1AA1D1E90001BDE8F88FD0
:1019400009F7FD0DE13D023F88B20175E0EF493F27
:101950003B8F68B52882A43F5544880E55C1C93FC6
:101960007D6FEB0312D6D43F555555555555C53FA0
:1019700082922EB1C5B8B33F59018D1B6C06E63F6C
:10198000C88A599CE52A00404B2D8A1C273A0340FF
:10199000182D4454FB21F93F075C143326A6913CD3
:1019A000182D4454FB210940FFFFEF3FFFFFDF3FAD
:1019B0000000F03F0000E03F0000603C00225C4B74
:1019C00015F0C4FD00225B4B15F072FF40A3D3E974
:1019D000002304460D4615F06BFF3FA3D3E9002317
:1019E00015F0B4FD22462B4615F062FF3CA3D3E967
:1019F000002315F0A9FD22462B4615F059FF3AA306
:101A0000D3E9002315F0A2FD22462B4615F050FF26
:101A100037A3D3E9002315F097FD22462B4615F096
:101A200047FF35A3D3E9002315F090FD22462B464E
:101A300015F03EFF804689462046294614F0F8FC02
:101A40002FA3D3E9002306460F462046294615F06A
:101A50002FFF2DA3D3E9002315F076FD22462B4658
:101A600015F026FF2AA3D3E9002315F06FFD2246C7
:101A70002B4615F01DFF28A3D3E9002315F064FDC4
:101A800022462B4615F014FF0022294B15F05EFD6F
:101A900002460B464046494616F034F832463B466D
:101AA00015F006FF1EA3D3E9002315F04DFD3246C5
:101AB0003B4615F04BFD02460B4615F047FD02462E
:101AC0000B4619A1D1E9000115F03EFDBDE8F88FE4
:101AD00009F7FD0DE13D023F88B20175E0EF493F96
:101AE0003B8F68B52882A43F5544880E55C1C93F35
:101AF0007D6FEB0312D6D43F555555555555C53F0F
:101B000082922EB1C5B8B33F59018D1B6C06E63FDA
:101B1000C88A599CE52A00404B2D8A1C273A03406D
:101B2000075C143326A6913C182D4454FB21094030
:101B30000000F03F0000E03F434A91422DE9F843A6
:101B400004460D4639DD414A914209DD02F17952E0
:101B5000914240DD02460B4615F0F8FCBDE8F883E3
:101B600001F1404202F58012024330D0B1F1804FC2
:101B70003ADC0022364B15F0E7FC02460B460446E1
:101B80000D4615F0E3FC224606460F462B4620463E
:101B9000294615F08DFE02460B463046394615F0B3
:101BA000D5FC14F045FC0B4602462946204615F0AC
:101BB000CDFCBDE8F843FFF7BFB802460B4615F071
:101BC000C3FC02460B4615F09DFFBDE8F8830020DC
:101BD0000021BDE8F88300F017FE19A3D3E9002324
:101BE00015F0B4FCBDE8F88302460B4615F060FE24
:101BF0000022174B15F0A8FC14F01AFC2246804670
:101C000089462B462046294615F0A0FC424606464A
:101C10000F464B462046294615F098FC02460B46D7
:101C200000200B4915F06EFF0B4602463946304640
:101C300015F08AFCBDE8F84300F0E6BDAFF3008084
:101C4000EF39FAFE422EE63FFFFFEF3FFFFFAF41C5
:101C50000000F03F000000002DE9F047BE4B21F0EE
:101C60000048984584B004460D4612DD08F140480E
:101C700008F58018034658EA030321D002460B46B4
:101C800015F062FC02460B4615F03CFF04B0BDE8BF
:101C9000F087B24B98458A4629DCB8F1795F80F22B
:101CA000658191A3D3E9002315F050FC0022AC4BD1
:101CB00016F08EF8D8B12046294604B0BDE8F0876A
:101CC0008BA3D3E9002315F0F3FD8BA3D3E9002305
:101CD00006460F462046294615F0EAFD02460B4609
:101CE0003046394615F032FC04B0BDE8F087204696
:101CF000294613F0D9FC02460B460020984915F0FE
:101D000023FC0022974B15F0D3FD7DA3D3E90023DC
:101D100004460D4615F0CCFD7BA3D3E9002315F056
:101D200015FC22462B4615F0C3FD79A3D3E9002309
:101D300015F00AFC22462B4615F0BAFD76A3D3E92E
:101D4000002315F003FC22462B4615F0B1FD74A3C9
:101D5000D3E9002315F0F8FB22462B4615F0A8FD29
:101D600071A3D3E9002315F0F1FB22462B4615F0B1
:101D70009FFD6FA3D3E90023CDE90001204629464A
:101D800015F096FD6CA3D3E9002315F0DDFB224688
:101D90002B4615F08DFD6AA3D3E9002315F0D6FB81
:101DA00022462B4615F084FD67A3D3E9002315F0E6
:101DB000CBFB22462B4615F07BFD694B002215F02C
:101DC000C5FBCDE902012046294614F031FB664BE4
:101DD000984506460F4666DCDDE90223DDE9000191
:101DE00015F090FE3246CDE900013B4630463946BB
:101DF00015F0ACFB02460B46DDE9000115F058FD7D
:101E00004FF00008CDE9000142463B4640463946C6
:101E100015F04EFD02460B462046294615F094FB70
:101E2000424604460D463B463046394615F08EFB89
:101E300002460B462046294615F064FE02460B4634
:101E400015F084FB02460B462BA1D1E9000115F0E9
:101E50007BFB02460B46DDE9000115F075FB4246AF
:101E600004460D463B464046394615F06FFB024698
:101E70000B4637A1D1E9000115F066FB02460B467F
:101E80002046294615F060FB02460B4630A1D1E9F9
:101E9000000115F059FBBAF1000F3FF7F7AE01F161
:101EA00000431946F2E6DDE90223DDE9000115F001
:101EB00029FE32463B4615F0FBFC32463B4615F008
:101EC00045FB02460B4615F041FB0BA3D3E900236B
:101ED00015F03AFB02460B4605A1D1E9000115F0C9
:101EE00033FBD8E7AFF300809C7500883CE4377E75
:101EF000182D4454FB21F93F075C143326A6913C6E
:101F000009F7FD0DE13D023F88B20175E0EF493F61
:101F10003B8F68B52882A43F5544880E55C1C93F00
:101F20007D6FEB0312D6D43F555555555555C53FDA
:101F300082922EB1C5B8B33F59018D1B6C06E63FA6
:101F4000C88A599CE52A00404B2D8A1C273A034039
:101F5000182D4454FB21E93FFFFFEF3FFFFFDF3F18
:101F60000000F03F0000E03F3233EF3F02460B46F7
:101F700015F09EFC37A3D3E9002306460F4615F063
:101F800097FC36A3D3E9002315F0E0FA32463B462E
:101F900015F08EFC33A3D3E9002315F0D5FA3246B1
:101FA0003B4615F085FC31A3D3E9002315F0CEFAAA
:101FB00032463B4615F07CFC2EA3D3E9002315F0F6
:101FC000C3FA32463B4615F073FC2CA3D3E9002339
:101FD00015F0BCFA32463B4615F06AFC29A3D3E95A
:101FE0000023804689463046394615F061FC27A318
:101FF000D3E9002315F0A8FA32463B4615F058FC09
:1020000024A3D3E9002315F0A1FA32463B4615F08C
:102010004FFC22A3D3E9002315F096FA32463B4643
:1020200015F046FC00220A4B15F090FA02460B46CA
:102030004046494615F066FD22462B4615F038FC11
:1020400022462B4615F082FA04B0BDE8F08700BFA7
:102050000000F03F09F7FD0DE13D023F88B2017538
:10206000E0EF493F3B8F68B52882A43F5544880E76
:1020700055C1C93F7D6FEB0312D6D43F5555555519
:102080005555C53F82922EB1C5B8B33F59018D1B3E
:102090006C06E63FC88A599CE52A00404B2D8A1CF5
:1020A000273A0340000000002DE9F84F1D46534237
:1020B000134325F0004ADFF8E0E14AEAD3737345A1
:1020C000144606460F4647D8C0F1000848EA000803
:1020D00021F0004343EAD878F0458B463CD805F11F
:1020E000404808F5801858EA020850D04FEAA57811
:1020F00008F0020848EAD17850EA030134D052EAE5
:102100000A023CD0F24557D0734538D0A3EB0A03FE
:102110001B153C2B42DC002D70DB22462B46304643
:10212000394615F0EFFC13F0BFFAFEF751FBB8F19A
:10213000010F5FD0B8F1020F4ED0B8F1000F62D09E
:1021400043A3D3E9002315F0FFF943A3D3E9002308
:1021500015F0FAF9BDE8F88F32463B46204629468D
:1021600015F0F4F9BDE8F88FB8F1020F1AD0B8F104
:10217000030F10D13AA1D1E90001BDE8F88FBBF1FE
:10218000000F14DB38A1D1E90001BDE8F88FBDE8EC
:10219000F84FFEF71DBB3946BDE8F88F32A1D1E9F3
:1021A0000001C4E72CA1D1E90001BDE8F88F30A1FE
:1021B000D1E90001BDE8F88F534526D0B8F1020FF0
:1021C000F0D0B8F1030FD5D0B8F1010F4FF00000F7
:1021D00029D00021BDE8F88F1DA3D3E9002315F015
:1021E000B3F902460B461CA1D1E9000115F0ACF988
:1021F000BDE8F88F01F10041BDE8F88F3C338CDA7F
:102200000020002193E7BDE8F88FB8F1020F18D045
:10221000B8F1030F10D0B8F1010F08D016A1D1E921
:102220000001BDE8F88F4FF00041BDE8F88F14A120
:10223000D1E90001BDE8F88F13A1D1E90001BDE8A3
:10224000F88F13A1D1E90001BDE8F88FAFF300804A
:10225000075C143326A6A13C182D4454FB210940E9
:10226000182D4454FB2109C0182D4454FB21F93F7B
:10227000182D4454FB21F9BF182D4454FB21E93F8C
:10228000182D4454FB21E9BFD221337F7CD902C0F1
:10229000D221337F7CD902400000F07F0000000093
:1022A00043422DE9F047034321F000463E4A46EA07
:1022B000D373934204460D4613D896423DD03B4B10
:1022C0009E428A4617DC36A3D3E9002315F03EF977
:1022D0000022002315F07CFDA8B320462946BDE866
:1022E000F08702460B4615F02FF902460B4615F013
:1022F00009FCBDE8F0872E4B9E42354624DD33466F
:102300000246314615F022F9224606460F462B4674
:102310000020254915F018F902460B46304639468B
:1023200015F0F0FBFEF708FD0022224B15F0C0FA75
:10233000BAF1000F2FDBBDE8F0870022002315F073
:10234000E1FBBDE8F087354622462B46204629466C
:1023500015F0FCF822462B4606460F4615F0A8FA63
:102360002246804689462B4600200F4915F0ECF89E
:1023700002460B464046494615F0C4FB32463B46F2
:1023800015F0E4F8FEF7D8FC00220A4B15F090FA9D
:10239000BAF1000FCFDA01F100431946BDE8F0872A
:1023A0009C7500883CE4377E0000F03FFFFF2F3E25
:1023B000FFFFDF3F0000E03F2DE9F8434E4B21F0E7
:1023C00000449C4206460F461BDC4C4B9C4222DDDF
:1023D0004B4B9C4263DD4B4B9C427BDD4A4B9C420A
:1023E00046DD01339C4240D041A3D3E9002310468F
:1023F000194615F05DFA06460F4630463946BDE8E7
:10240000F88302460B4615F053FA06460F4630464F
:102410003946BDE8F88313F047F902F0B1FC002219
:102420003A4B8046894615F091F8B4F1725F064642
:102430000F46ECDB42464B464046494615F038FA1B
:1024400032463B4604460D463046394615F07EF886
:1024500002460B462046294615F054FB00222B4B22
:1024600015F074F806460F46D1E7294B9842BBD8C1
:102470003046394613F018F90022264B15F018FAA9
:1024800000F04AF8002204460D46224B15F010FADF
:1024900022462B4615F00CFA06460F46B7E713F016
:1024A00003F900F039F800221A4B06460F4615F0E2
:1024B000FFF932463B4604460D460020154915F00B
:1024C00021FB02460B462046294615F03FF80646FA
:1024D0000F469CE713F0E8F800F01EF800220D4BC1
:1024E00015F0E6F906460F4691E700BFAFF300800E
:1024F0009C7500883CE4377EFFFFEF7F422ED63F7D
:10250000FFFF3540412E8640CD3386400000F03F2E
:102510007DF8B98F0000E03F2DE9F04FB04E21F07B
:102520000042B24283B004460D464FEAD1770DD93E
:10253000AC4EB24225D9C1F31303034340F0EC8003
:102540000FB10020002103B0BDE8F08FA64B9A42E6
:1025500000F2CB80A54B9A4200F2DC808AA3D3E93B
:10256000002314F0F3FF0022A14B15F031FC0028EA
:1025700000F006812046294600229D4B14F0E6FF1C
:10258000E1E783A3D3E9002315F022FC002840F003
:10259000C88081A3D3E900232046294615F0FAFB21
:1025A0000028CED1934E7EA3D3E9002306EBC706C5
:1025B0002046294615F07CF9D6E9002314F0C6FF21
:1025C00015F026FC064615F00DF977A3D3E9002394
:1025D0008046894615F06CF902460B46204629468E
:1025E00014F0B2FF72A3D3E90023CDE90001404605
:1025F000494615F05DF982468B4652465B46DDE959
:10260000000114F0A1FF04460D4622462B46204649
:10261000294615F04DF968A3D3E900238046894681
:1026200015F046F966A3D3E9002314F08DFF424666
:102630004B4615F03DF964A3D3E9002314F086FF5F
:1026400042464B4615F034F961A3D3E9002314F058
:102650007BFF42464B4615F02BF95FA3D3E90023DD
:1026600014F074FF42464B4615F022F902460B4621
:102670002046294614F068FF80468946002E58D02F
:102680002046294642464B4615F012F9424604467A
:102690000D464B4600204FF0804114F055FF024696
:1026A0000B462046294615F02DFA02460B465046A9
:1026B000594614F049FFDDE9002314F045FF0B46AD
:1026C00002464B49002014F03FFF6FF47F739E4297
:1026D00051DA06F57A7601EB065100224FF0B87315
:1026E00015F0E6F803B0BDE8F08F434B9A423FF691
:1026F00059AF424BFC002344D3E9002314F024FFDC
:102700003F4BC7F101062344CDE90001D3E900ABFB
:10271000F61B72E7002678E702460B4614F016FF18
:1027200011E719A3D3E900231046194615F0C0F8A4
:1027300009E702460B462046294615F0B9F8002263
:1027400006460F464FF080434046494614F0FCFED3
:1027500002460B463046394615F0D4F922462B4640
:1027600014F0F2FE02460B460020214914F0ECFE64
:1027700003B0BDE8F08F01EB065103B0BDE8F08F68
:10278000064642E7AFF300809C7500883CE4377E44
:10279000EF39FAFE422E864051302DD5104987C0C0
:1027A000FE822B654715F73F0000E0FE422EE63F14
:1027B000763C7935EF39EA3DD0A4BE726937663E82
:1027C000F16BD2C541BDBB3E2CDE25AF6A56113F31
:1027D00093BDBE166CC1663F3E5555555555C53F18
:1027E000412E8640FFFFEF7F422ED63FFFFF2F3E58
:1027F0000000F03F208B0100B1A2F03F308B0100C0
:10280000408B0100000000002DE9F04FB1F5801F62
:1028100085B006460F460B465ADA024621F00044C0
:10282000224300F0F8800029C0F27A810022D64BC2
:1028300015F03EF8D54A0B46934206460F466FF018
:10284000350C4ADCC3F3130505F5152E0EF6647E30
:102850000EF4801E8EF07F5282F440121C1542EA64
:102860000507A4F2FF3464440022C94B30463946C0
:1028700004EB1E5414F068FEAB1CC3F31303022BCD
:1028800082468B464FF0000230DC002315F078FAC8
:10289000002800F0C980002C00F04B81204614F085
:1028A000A1FFA5A3D3E9002306460F4615F000F8C3
:1028B000A3A3D3E9002304460D463046394614F05D
:1028C000F7FF02460B462046294614F03FFE0AE079
:1028D000AE4A93424FF0000CB4DD32463B463046E0
:1028E000394614F033FE05B0BDE8F08F4FF0804359
:1028F00014F02CFE02460B465046594615F002F9DC
:10290000064620460F4614F06DFF3246CDE9000121
:102910003B4630463946CDE9026714F0C9FF02460E
:102920000B468046894614F0C3FF87A3D3E90023F2
:1029300006460F4614F0BCFF85A3D3E9002314F02C
:1029400005FE32463B4614F0B3FF83A3D3E90023D0
:1029500014F0FCFD32463B4614F0AAFF80A3D3E9F5
:10296000002314F0F3FD42464B4614F0A1FF7EA372
:10297000D3E90023804689463046394614F098FF53
:102980007BA3D3E9002314F0E1FD32463B4614F06B
:102990008FFF79A3D3E9002314F0D8FD32463B46DC
:1029A00014F086FF0B4602464946404614F0CEFD21
:1029B000A5F5C223C5F5D725A3F27A4351351D43AA
:1029C000002D8046894656DD0022724B50465946FE
:1029D00014F06EFF52465B4614F06AFF06460F463F
:1029E000002C68D132463B464046494614F0AEFDC5
:1029F000DDE9022314F05CFF02460B4630463946FF
:102A000014F0A2FD02460B465046594614F09CFDB8
:102A100005B0BDE8F08F0022002300205E4915F0CC
:102A200071F805B0BDE8F08F55A3D3E900235046F7
:102A3000594614F03DFF02460B460020554914F05C
:102A400083FD524606460F465B465046594614F0F3
:102A50002FFF02460B463046394614F029FF064642
:102A60000F46002C40F09A8002460B4650465946CD
:102A700014F06AFD37E7002C00F0A4802EA3D3E900
:102A80000023DDE9000114F013FF42464B460446E3
:102A90000D465046594614F057FDDDE9022314F067
:102AA00007FF27A3D3E9002306460F46DDE900010F
:102AB00014F0FEFE21E020A3D3E90023DDE90001AC
:102AC00014F0F6FE32463B4604460D464046494663
:102AD00014F03CFDDDE9022314F0EAFE18A3D3E96B
:102AE000002380468946DDE9000114F0E1FE02463C
:102AF0000B464046494614F029FD02460B46304637
:102B0000394614F021FD52465B4614F01DFD024685
:102B10000B462046294614F017FD05B0BDE8F08F9E
:102B200002460B4614F010FD0022002314F0EAFFC9
:102B3000D9E600200021D6E60000E0FE422EE63F66
:102B4000763C7935EF39EA3D44523EDF12F1C23F1F
:102B5000DE03CB966446C73F599322942449D23F63
:102B6000935555555555E53F9FC678D0099AC33FB3
:102B7000AF788E1DC571CC3F04FA97999999D93FCA
:102B8000555555555555D53F00005043FFFFEF7F34
:102B90000000F03F0000E03F000050C3204614F06A
:102BA00021FE0FA3D3E900238046894614F080FE5E
:102BB0000DA3D3E9002304460D464046494614F0D0
:102BC00077FE9AE702460B465046594614F0BCFC85
:102BD000DDE9022314F06CFE14E700BFAFF30080C0
:102BE0000000E0FE422EE63F763C7935EF39EA3DC3
:102BF000B1F5801F2DE9F84304460D460B461ADA5D
:102C0000024621F00046324359D000295FDB002202
:102C10003B4B14F04DFE3B4A0D462B469342044677
:102C20006FF035010CDD22462B462046294614F074
:102C30008DFCBDE8F883334A93424FF00001F2DC8B
:102C40001815A0F2FF3008444FEAD0794844C3F386
:102C5000130814F0C7FDC9F57F73033348EA035521
:102C600006460F4620462946FFF7CEFD1EA3D3E9B0
:102C70000023804689463046394614F019FE1CA3CD
:102C8000D3E9002304460D464046494614F010FEA1
:102C900002460B462046294614F058FC16A3D3E9F9
:102CA000002304460D463046394614F001FE024624
:102CB0000B462046294614F049FCBDE8F883002263
:102CC00000230020104914F01DFFBDE8F8830246E0
:102CD0000B4614F039FC0022002314F013FFBDE86A
:102CE000F88300BFAFF30080362BF111F3FE593D9E
:102CF0000EE526157BCBDB3F00609F501344D33F8E
:102D000000005043FFFFEF7F000050C300000000B1
:102D10002DE9F04F23F0004757EA020493B037D073
:102D2000674C21F00046A64283460D4629DC9A46B0
:102D3000964625D0A74224DC614CA74279D0002DCD
:102D400080468946CDE9002377DB0024BEF1000FE1
:102D50002CD15B4B9F4200F08B805A4B9F4261D03D
:102D6000BAF1804F00F0C383574B9A451ED1002D16
:102D70001CDB4046494613B0BDE8F04F13F058BB8A
:102D800058B106F1404606F5801656EA0B0306D107
:102D90004C49002013B0BDE8F08FB742CCDD4B4862
:102DA00013B0BDE8F04F14F0D3B9002440464946B3
:102DB00012F07AFCBBF1000F19D126B1414B25F07E
:102DC00040429A4213D1BAF1000FC0F2CA83002DDB
:102DD000E0DA06F1404606F5801656EA040300F0F4
:102DE000A584012CD6D101F100431946D2E7ED0F9D
:102DF000013D54EA05034ED0354B9F426EDD03F191
:102E000004739F4240F3FE83324B9E424EDDBAF183
:102E1000000F4EDD28A3D3E900231046194614F015
:102E200047FDB7E7BAF1000FC0F252844046494669
:102E3000B0E7BEF1000F82D0A3E7274B9F4228DC0A
:102E4000A3F154739F4280DD3B15A3F2FF33142B93
:102E500040F35484C3F134032EFA03F202FA03F36D
:102E60009E457FF472AF02F00102C2F102046DE7E9
:102E700006F1404303F5801353EA0B0388D0154B4A
:102E80009E4240F33B83BAF1000F12DBDDE9000103
:102E900080E702245AE742464B461046194614F092
:102EA00053FB02460B4614F02DFE73E7BAF1000FF8
:102EB000B0DB002000216DE79C7500883CE4377E84
:102EC0000000F07F0000F03F0000E03F649301004D
:102ED0000000E041FFFFEF3FFFFF3F43B6F5801FDB
:102EE0004FF0000205DAD84B14F0E2FC6FF0340228
:102EF0000E463315D54FC6F31306A3F2FF33134422
:102F000046F07F5ABE421A460D934AF4401A40F3E7
:102F10002F83CF4B9E4240F30D849FEDB57B8DED0B
:102F2000087B8DED0E7B9FEDB47B13468DED067B0C
:102F300001330D93AAF5801A0027DDE906235146D7
:102F4000CDE90A0114F000FBDDE90623804689463D
:102F5000DDE90A0114F0FAFA02460B460020BD49E9
:102F600014F0D0FD0A460146CDE910121346494639
:102F70000246404614F09CFC4FEA6A0343F00053BB
:102F80008C46834603F50023CDE904BCDA468B4624
:102F9000D9190023CDE902AB0293DDE902AB002091
:102FA00006460F4602460B465046594614F080FC32
:102FB00002460B464046494614F0C6FADDE90623B0
:102FC000804689463046394614F0BEFA02460B4622
:102FD000DDE90A0114F0B8FA52465B4614F068FCC9
:102FE00002460B464046494614F0AEFADDE910238E
:102FF00014F05EFCDDE90467CDE9060132463B468C
:103000003046394614F054FC7DA3D3E9002306462C
:103010000F4614F04DFC7CA3D3E9002314F096FA7C
:1030200032463B4614F044FC79A3D3E9002314F064
:103030008DFA32463B4614F03BFC77A3D3E90023DC
:1030400014F084FA32463B4614F032FC74A3D3E900
:10305000002314F07BFA32463B4614F029FC72A39D
:10306000D3E9002314F072FA3246804689463B4683
:103070003046394614F01CFC02460B464046494691
:1030800014F016FC524606460F465B46DDE9040185
:1030900014F05CFADDE9062314F00AFC32463B46E4
:1030A00014F054FA5246804689465B4650465946CB
:1030B00014F0FEFB0022684BCDE90A0114F046FA39
:1030C00042464B4614F042FA02980F4606463246F4
:1030D0003B465046594614F0EBFB002282468B4695
:1030E0005D4B3046394614F02FFADDE90A2314F01F
:1030F0002BFA02460B464046494614F025FADDE914
:10310000042314F0D5FB3246804689463B46DDE970
:10311000060114F0CDFB02460B464046494614F02A
:1031200015FA8046894602460B4650465946CDE977
:1031300004AB14F00BFADDE902AB3DA3D3E90023A5
:1031400050460F4614F0B4FBDDE90423CDE902013B
:103150003946504614F0F8F902460B4640464946B7
:1031600014F0F2F934A3D3E9002314F0A1FB34A343
:10317000D3E90023804689465046394614F098FB2F
:1031800002460B464046494614F0E0F9DDE90E23BD
:1031900014F0DCF980460D98894614F023FB424672
:1031A00006460F464B46DDE9020114F0CFF9DDE992
:1031B000082314F0CBF932463B4614F0C7F93246E7
:1031C0003B4650468B4614F0BFF9DDE9082314F066
:1031D000BBF9DDE9022314F0B7F902460B4640467D
:1031E000494614F0B1F98046894637E0AFF30080D4
:1031F0000000000000000000000000000000F03FA0
:10320000EF4E454A287ECA3F65DBC9934A86CD3FCB
:1032100001411DA96074D13F4D268F515555D53FB1
:10322000FFAB6FDBB66DDB3F033333333333E33F49
:10323000000000E009C7EE3FFD033ADC09C7EE3F9E
:10324000F5015B14E02F3EBE000040438E98030062
:1032500079B60B000000F03F00000840013C54EA42
:10326000050300F079819FEDC87B8DED047BDDE9DE
:1032700000120B461446CDE9023400230293DDE927
:10328000024508462B461146224614F05DF9524687
:103290005B4614F00DFBDDE9002306460F46404671
:1032A000494614F005FB02460B463046394614F0F9
:1032B0004DF92246804689462B4650465946CDE96F
:1032C000008914F0F5FA0B46024606460F464046C2
:1032D000494614F03BF9C64B994204460D468A46CE
:1032E00040F3168101F13F4303F5E003034340F04F
:1032F000F781A7A3D3E90023DDE9000114F026F943
:103300003246804689463B462046294614F01CF941
:1033100002460B464046494614F05AFD002840F04C
:10332000DF81A8464FEA28534FF48012A3F2FE3300
:1033300042FA03F35344C3F30A52AE4DA2F2FF32F2
:103340001541C3F3130423EA05010020C2F1140B55
:1033500044F48014BAF1000F02460B4644FA0BFB0A
:1033600030463946B8BFCBF1000B14F0EDF80246F9
:103370000B4606460F46DDE9000114F0E7F84FEA78
:103380000B5A0D46002484A3D3E900232046294686
:1033900014F08EFA3246804689463B46204629463E
:1033A00014F0D2F802460B46DDE9000114F0CCF827
:1033B0007BA3D3E9002314F07BFA7BA3D3E900239A
:1033C00006460F462046294614F072FA02460B467E
:1033D0003046394614F0BAF806460F4602460B4608
:1033E0004046494614F0B2F842464B4604460D4664
:1033F00014F0AAF802460B463046394614F0A4F8F9
:103400002246804689462B462046294614F050FA2B
:1034100067A3D3E9002306460F4614F049FA66A3D2
:10342000D3E9002314F090F832463B4614F040FAFA
:1034300063A3D3E9002314F089F832463B4614F025
:1034400037FA61A3D3E9002314F07EF832463B46F5
:1034500014F02EFA5EA3D3E9002314F077F8324675
:103460003B4614F025FA02460B462046294614F046
:103470006BF806460F4602460B462046294614F0D6
:1034800017FA0022CDE900014FF08043304639465B
:1034900014F05AF802460B46DDE9000114F032FB45
:1034A000424606460F464B462046294614F000FA8F
:1034B00042464B4614F04AF802460B46304639461F
:1034C00014F042F822462B4614F03EF802460B4612
:1034D0000020494914F038F88A44BAF5801FC0F238
:1034E00039815146DDE9042314F0E2F952E4424601
:1034F0004B464046494614F0DBF94BE4BAF1000F65
:10350000BFF6D7ACDDE90034184604F1004141E4D0
:103510003A4B21F00048984540F3FF80384B0B446C
:1035200003430CD132463B4614F00EF802460B46DC
:10353000DDE9000114F038FC00283FF4F3AEDDE9CA
:10354000040125A3D3E9002314F0B2F922A3D3E99F
:10355000002314F0ADF91DE49FED217B8DED047B7C
:1035600085E602460B460020234914F0CBFA2EE4F0
:103570009FED1D7B8DED087B8DED0E7B9FED027B1E
:1035800000278DED067BD8E4000000000000F03F2E
:10359000FE822B654715973C00000000432EE63F56
:1035A000EF39FAFE422EE63F396CA80C615C20BE72
:1035B000D0A4BE726937663EF16BD2C541BDBB3E39
:1035C0002CDE25AF6A56113F93BDBE166CC1663F17
:1035D0003E5555555555C53F59F3F8C21F6EA501C7
:1035E000000000000000F0BF00000000000000002C
:1035F000FFFF8F40FFFF0F000000F03FFFCB904028
:1036000000346F3F684B9E427FF750AC674B9E4241
:103610003FF7FDAB0022654B13F096FF52A3D3E9B1
:10362000002306460F4614F043F951A3D3E90023C3
:10363000804689463046394614F03AF900228246DF
:103640008B465B4B3046394614F032F902460B4646
:1036500049A1D1E9000113F077FF32463B4614F04F
:1036600027F902460B460020524913F06DFF3246FF
:10367000CDE902013B463046394614F019F90246BD
:103680000B46DDE9020114F013F93DA3D3E9002351
:1036900014F00EF902460B465046594613F054FFFB
:1036A00002460B4606460F464046494613F04EFF7B
:1036B00042464B46002082468B4613F045FF0246A9
:1036C0000B463046394613F03FFF80468946C5E534
:1036D00042464B460020354914F014FAFFF75ABB16
:1036E000DDE9040128A3D3E9002314F0E1F826A3BF
:1036F000D3E9002314F0DCF8FFF74CBBBEF1000F58
:103700007FF453ABC3F1140347FA03F202FA03F355
:103710009F4223D07446FFF720BB264B98453FF7C6
:1037200001AEDDE90223924693462BE602460B46A4
:10373000FFF7B3BB9FED167B8DED087B9FED167BEE
:103740008DED0E7B9FED167B4FF480278DED067B74
:10375000FFF7F3BB5A4601F04FFDC3E602F001024A
:10376000C2F10204FFF7F9BA000000604715F73F05
:1037700044DF5DF80BAE543E555555555555D53F74
:10378000FE822B654715F73F9C7500883CE4377E29
:103790000000004003B8E23F06D0CF43EBFD4C3EB3
:1037A000000000000000F83FFEFFEF3F0000F03F88
:1037B0000000D03F0000E03F2DE9F0479C4B21F096
:1037C00000479F4290B08046894640F38E80994BD7
:1037D0009F420C46924626DC00298BA3D3E90023A6
:1037E00040F3B08113F0B0FE934B9F4204460D4668
:1037F00000F0908086A3D3E9002313F0A5FE0246D3
:103800000B46CAE900232046294613F09DFE80A3FB
:10381000D3E9002313F098FE0125CAE902012846E6
:1038200010B0BDE8F087854B9F4240F39080844BF9
:103830009F4265DC3D15A5F21645A7EB05531946D9
:103840001F46064614F0E4FA13F0CCFF8046894682
:1038500042464B4630463946CDE90A8913F074FE9C
:103860000022784B14F024F88946804614F0D0FAF0
:1038700013F0B8FF06460F4632463B4640464946DF
:10388000CDE90C6713F060FE00226E4B14F010F8C7
:1038900000220023CDE90E0114F072FA002800F096
:1038A0006F81002330463946002214F069FA00285F
:1038B00014BF01230223644A019202212A46009187
:1038C0000AA8514600F08CFB002C054614DADAF801
:1038D0000420DAF80C3002F1004203F100434542C3
:1038E000CAF80420CAF80C3006E000200021C2E922
:1038F0000089C2E902010025284610B0BDE8F08722
:1039000002460B4613F020FE0025CAE90201CAE96F
:103910000001F1E740A3D3E9002313F015FE40A313
:10392000D3E900230D46044613F00EFE02460B4673
:10393000CAE900232946204613F006FE38A3D3E93E
:10394000002313F001FE0125CAE90201D4E711F0BA
:10395000ABFE35A3D3E900238046894613F0A8FFC8
:1039600000223A4B13F0F2FD14F052FA054613F020
:1039700039FF25A3D3E90023CDE9060113F098FF11
:1039800002460B464046494613F0DEFD20A3D3E92C
:103990000023CDE90201DDE9060113F089FF1F2DA7
:1039A00080468946CDE9048954DC294B6A1E53F8C8
:1039B00022309F424ED002460B46DDE9020113F051
:1039C000C3FD80468946CAE9008942464B46DDE987
:1039D000020113F0B9FDDDE9042313F0B5FD002C5D
:1039E000CAE9020188DA09F1004401F100436D429D
:1039F000CAF80080CAF80440CAF80800CAF80C30B7
:103A00007AE700BFAFF3008000004054FB21F93F8C
:103A10003163621A61B4D03D0000601A61B4D03DD8
:103A20007370032E8A19A33B83C8C96D305FE43FCE
:103A3000FB21E93F7BD90240FB21F93FFB213941C2
:103A4000FFFFEF7F00007041809D01000000E03F1C
:103A5000009D0100DDE90423DDE9020113F074FD9E
:103A60003F15C1F30A53FB1A80468946102BCAE959
:103A70000089AADD58A3D3E90023DDE9060113F08C
:103A800017FF8046894602460B46DDE9020113F026
:103A90005BFD02460B46DDE90201CDE9082313F088
:103AA00053FD42464B4613F04FFD4DA3D3E900238F
:103AB00080468946DDE9060113F0FAFE42464B4690
:103AC00013F042FD0B46CDE904010246DDE9080191
:103AD00013F03AFDC1F30A53FF1A80468946312F8D
:103AE000CAE900896CDD41A3D3E90023DDE90601C1
:103AF00013F0DEFEDDE9088906460F4602460B4656
:103B00004046494613F020FD02460B4640464946D2
:103B1000CDE9022313F018FD32463B4613F014FDA5
:103B200034A3D3E9002306460F46DDE9060113F06E
:103B3000BFFE32463B4613F007FD02460B46CDE979
:103B400004233AE713F002FD274B9F4204460D463B
:103B500018D01FA3D3E9002313F0F8FC02460B464C
:103B6000CAE900232946204613F0EEFC18A3D3E946
:103B7000002313F0EBFC4FF0FF35CAE90201BBE66E
:103B8000032398E614A3D3E9002313F0DFFC14A366
:103B9000D3E900230D46044613F0D8FC02460B4639
:103BA000CAE900232946204613F0CEFC0CA3D3E932
:103BB000002313F0CBFC4FF0FF35CAE902019BE66E
:103BC0009DED087B8DED027BFFE600BFAFF300802B
:103BD0003163621A61B4D03D0000601A61B4D03D17
:103BE0007370032E8A19A33BFB21F93F0000002EBE
:103BF0008A19A33BC14920259A837B390000000024
:103C0000594A2DE9F84F21F00048904506460F46E5
:103C10002BDC564B0029B4BF554D564D98454FF0FF
:103C2000000410DC544B984570DC4DA3D3E900230D
:103C300013F08CFC0022514B14F0CAF8D8B1304676
:103C40003946BDE8F88F4E4B98457CDD4D4B984585
:103C500044DD013398453ED03046394640A3D3E990
:103C6000002313F025FEBDE8F88F02460B4613F043
:103C70006DFCBDE8F88F3046394611F015FD01F0B6
:103C80007FF806460F4632463B463046394613F02B
:103C90005DFC324682468B463B463046394613F041
:103CA00007FE002280468946344B3046394613F0E1
:103CB0004DFC02460B464046494613F023FF0246A0
:103CC0000B465046594613F03FFC22462B4613F054
:103CD000EFFDBDE8F88F2C4B9842BDD830463946F1
:103CE00011F0E2FC0022234B13F0E2FDFEF714FC7E
:103CF00006460F4602460B462046294613F0D8FDDD
:103D000032463B4613F0D4FDBDE8F88F11F0CCFCF1
:103D100001F036F81D4B984506460F46B3DD0022EC
:103D2000164B13F013FC02460B463046394613F08F
:103D3000E9FE32463B4613F009FC22462B4613F0BF
:103D4000B7FDBDE8F88F11F0AFFCFEF7E5FB0246CA
:103D50000B462046294613F0ABFDBDE8F88F00BFA7
:103D60003374AC3C1F7BAC7FFFFFEF7FFFFF354020
:103D70000000E0BF0000E03FFFFF2F3E0000F03FEB
:103D8000412E8640CD3386407DF8B98FFFFFEF3F4F
:103D90002DE9F04F21F00048B8F1795F85B0064673
:103DA0000F4692469B466BDA14F032F8002800F07A
:103DB000EA8032463B463046394613F079FD74A31B
:103DC000D3E9002304460D4613F072FD72A3D3E934
:103DD000002313F0BBFB22462B4613F069FD70A3B2
:103DE000D3E9002313F0B0FB22462B4613F060FD0D
:103DF0006DA3D3E9002313F0A9FB22462B4613F051
:103E000057FD6BA3D3E9002313F09EFB22462B46FC
:103E100013F04EFD68A3D3E9002313F097FB22466D
:103E20002B4613F045FDCDE900010022664B2046EC
:103E3000294613F03DFDDDE90023804689462046F2
:103E4000294613F035FD524604460D465B46304682
:103E5000394613F02DFD02460B462046294613F045
:103E600073FB02460B464046494613F06DFB024683
:103E70000B460020554913F067FB05B0BDE8F08FF5
:103E800002460B4613F014FD41A3D3E90023044678
:103E90000D4613F00DFD40A3D3E9002313F056FBAC
:103EA00022462B4613F004FD3DA3D3E9002313F073
:103EB0004BFB22462B4613F0FBFC3BA3D3E900232C
:103EC00013F044FB22462B4613F0F2FC38A3D3E94F
:103ED000002313F039FB22462B4613F0E9FC36A3EE
:103EE000D3E9002313F032FB2B46224613F0E0FC0B
:103EF000374B9845CDE9000197DD364B984539DCC5
:103F0000A8F500130022002030499046994613F08E
:103F10001BFBCDE9020100222B4B2046294613F062
:103F2000C7FC42464B4613F00FFBDDE900238046F9
:103F300089462046294613F0BBFC524604460D46EE
:103F40005B463046394613F0B3FC02460B4620462A
:103F5000294613F0F9FA02460B464046494613F04B
:103F6000F3FA02460B46DDE9020113F0EDFA05B063
:103F7000BDE8F08F9FED127B4FF000088DED027BC6
:103F8000DFF85490C7E71149002005B0BDE8F08F75
:103F9000D43888BEE9FAA8BDC4B1B4BD9EEE213EB6
:103FA000AD529C804F7E923E9015CB19A001FA3EF7
:103FB0007751C1166CC1563F4C5555555555A53FC7
:103FC000000000000000E73F0000E03F0000F03F7D
:103FD0003233D33F0000E93F0000D23F0000000031
:103FE0002DE9F04FADF51B7D9F4CA49E9F4D54F8DD
:103FF000264007942646D41E85FB0475E417C4EBBF
:10400000A50424EAE4741D460A93631CA3EB83030E
:10401000013D02EBC30306932B460B940395651BEE
:10402000F418049008911AD42C4400260027013477
:104030000DF18808DDF8949208E059F8250013F096
:10404000D1FB0135A542E8E8020108D0002DF4DAE1
:10405000013530463946A542E8E80201F6D1079B12
:10406000002BC0F2DF83079B03F1010B0A9B22A9FF
:10407000DB001A4601EB03090093049B0DF5E47A7B
:1040800019460AEBCB0B01EB0208039B002BC0F295
:10409000F582049C4D460026002775E90223F4E8CA
:1040A000020113F005FC02460B463046394613F078
:1040B0004DFA444506460F46EFD1EAE80267DA4575
:1040C00009F10809E1D107990098049C009101F1D8
:1040D0008043013B9B0020441A1F83460EA80244E4
:1040E00003440C920D93009A9AA901EBC203002A93
:1040F00053E9284529DD0DF5E47A0AEBC2080DF1F4
:10410000340900225A4B2046294613F0D1FB13F004
:104110007FFE13F067FB0022564B06460F4613F056
:10412000C7FB02460B462046294613F00DFA13F052
:104130006FFE78E9022349F8040F3946304613F040
:1041400005FAD04504460D46DBD1DDF8189020462F
:1041500029464A4601F050F800224FF07F530446AA
:104160000D4613F0A5FBFCF75FFD0022424B13F058
:104170009FFB02460B462046294613F0E5F90D4603
:10418000044613F045FE804613F02CFB0B46024616
:104190002946204613F0D8F94B46002B06460F4619
:1041A00040F3F980009A0EA9013AC9F1180351F8B9
:1041B000225045FA03F101FA03F30EA8EB1A40F876
:1041C0002230C9F11705884443FA05F5002D6DDD4D
:1041D000009B002B08F1010840F36F820E9C002C1D
:1041E00040F01683009B012B40F38F820EAA01231F
:1041F00052F8044F002C00F08382581C0EAAC4F120
:10420000807442F82340009A824219DD0EAA0EAC57
:1042100052F820106FF07F42511A44F82010009994
:10422000023399420CDD1046009A0EA901EB83037C
:1042300001EB82011A68821A43F8042B8B42F9D1F0
:10424000069B002B1ADD069B012B4FF0010440F06A
:104250003C82009B5A1E0EAB0EA953F82230C3F3CA
:10426000160341F822303CE220A20100ABAAAA2AA0
:104270000000703E0000704100002040022D15D16A
:1042800032463B460020924913F05EF906460F463F
:10429000069A8F49002000F0AFFF02460B463046D9
:1042A000394613F051F9022506460F460022002335
:1042B0003046394613F064FD002800F03782009A3A
:1042C000079B501E83420FDC02F18043013B0EAA84
:1042D0000D9C02EB8303002253F80419A34242EA27
:1042E0000102F9D1002A67D1079B0EAA013B52F8BF
:1042F0002330002B40F018820C9A012352F8041945
:1043000001330029FAD0009AD31802F1010A9A4524
:1043100009933DDC009B0A990B9A0B4409990AEB1F
:104320000208994622AB08F1804803EBC9098B18B3
:10433000A59A08F1FF3802EB880872AA02EBCA0AB4
:10434000A59A02EB8303009358F8040F13F04AFA7E
:10435000039B002BE9E802014FF000064FF0000735
:1043600011DB049C4D4675E90223F4E8020113F0C9
:104370009FFA02460B463046394613F0E7F85C4593
:1043800006460F46EFD1009B9845EAE80267DBD16D
:10439000099B0093A7E606D1009B0EAA013B52F8A9
:1043A0002350ED1512E700224A4B13F007FD0028B9
:1043B00040F06E81054679E70EA9039551F820304B
:1043C0000699CDF8248018390246009006916BB901
:1043D00000F18043013B0EA800EB830353F804096E
:1043E000013A18390028F9D000920691069A384906
:1043F000002000F001FF009B002B04460D46C0F298
:10440000F781DA0072A901EB020B06920EAA02EB09
:104410008306DFF8C4904FF000080BF1080704365C
:1044200056F8040D13F0DEF922462B4613F040FA3D
:104430004B4667E9020142462046294613F038FA06
:104440000EAB9E4204460D46EAD14AACDDF81C9004
:1044500004944FF0000AB9F1000FC0F22B81DFF88D
:104460007C805D4618A1D1E90001002600270024C8
:1044700003E0544510DCF8E80201F5E8022313F0EC
:1044800017FA02460B463046394613F05FF80134FE
:10449000A14506460F46ECDA049B03EBCA03ABF1D9
:1044A000080BC3E9006770AB9B450AF1010AD2D142
:1044B000A49B049C032B00F28980DFE803F0C58EE7
:1044C0008E1100BFAFF3008000000040FB21F93FD8
:1044D0000000F03F0000E03F0000703E688B0100EC
:1044E000009B002B40F38181069A04EB020ADAE973
:1044F000008902F1080525440DF5987B1AED027B31
:1045000042464B4651EC170B8DED047B13F01EF821
:1045100006460F4602460B46DDE9040113F014F887
:1045200042464B4613F012F865E902015D45B0467C
:10453000B9466AE90267E1D1009B012B40F355813E
:10454000069BE518D5E9008903F1080B04EB0B0A7B
:1045500015ED027B42464B4651EC170B8DED007B6F
:1045600012F0F4FF06460F4602460B46DDE9000155
:1045700012F0EAFF4B46424612F0E8FF6AE90201F8
:104580004EAB5345B046B94665E90267E0D100201D
:10459000002104EB0B0575E9022312F0D7FFAA45B1
:1045A000F9D1039B002B00F00A816268E368089F41
:1045B0002568A4683D6002F1004203F1004301F167
:1045C00000417A60FB60BC6038617961099B03F04F
:1045D00007000DF51B7DBDE8F08F069D08352544CD
:1045E0000020002175E9022312F0B0FFA542F9D1A5
:1045F000039B002B00F0D280089E024601F100438D
:1046000086E80C000B460246D4E9000112F09CFF3C
:10461000009B002B0BDD4CAD0124F5E8022312F0CA
:1046200095FF009B0134A342F7DA039B13B101F11C
:1046300000431946089BC3E90201099B03F00700E8
:104640000DF51B7DBDE8F08F069D0835002000218B
:10465000254475E9022312F079FFAC42F9D1039B9E
:1046600013B101F100431946089BC3E90001099BFE
:1046700003F007000DF51B7DBDE8F08F0026002735
:10468000EAE80267DA4509F108097FF4FEAC1AE5A9
:10469000009B002B08F10108C8BF02253FF79EAD23
:1046A00032463B460020614912F04EFF0225064685
:1046B0000F46FBE500260027EEE6069B002B27DDD4
:1046C0000024069B012B3FF4C4AD022B09D1009BB3
:1046D0005A1E0EAB0EA953F82230C3F3150341F84E
:1046E0002230022D7FF4E2AD32463B4600204F4996
:1046F00012F02AFF06460F46002C3FF4D7ADC7E55F
:104700000099013399427FF473AD069B002BD8DCEE
:10471000022D7FF4CBAD32463B460020434912F0D8
:1047200013FF06460F46C1E50123ECE53946069F17
:1047300003957A423046CDF8248000F05DFD0022DA
:104740003B4B04460D4613F039FB002843D00022B2
:10475000384B2046294613F0ABF813F059FB0646B8
:1047600013F040F80022324B13F0A2F802460B4639
:104770002046294612F0E8FE13F04AFB00990B464A
:1047800001331A4600933B46183306930B460EA995
:1047900041F82300134641F8236027E6089B0246B0
:1047A000C3E900010B46D4E9000112F0CDFE009BE5
:1047B000002B3FF730AF089BC3E902013DE7D4E986
:1047C0000067D4E90223089DC5E90401C5E9006733
:1047D000C5E90223FAE62946204613F019FB009AA0
:1047E0000EA941F8220001E64AAC00200021D8E6DB
:1047F000A49B032B3FF6EAAE01A252F823F000BFC0
:104800001F4800001748000017480000E947000053
:1048100001200023F2E4002000214AACE8E6002059
:1048200000211CE70A9BDB0000934CE40000F03FF2
:10483000000070410000703E2DE9F04F21F000466D
:10484000B6F1795F85B004460D469046994604DA84
:1048500013F0DEFA002800F0858022462B46204621
:10486000294613F025F806460F4602460B46204619
:10487000294613F01DF841A3D3E9002382468B4655
:104880003046394613F014F83EA3D3E9002312F062
:104890005BFE32463B4613F00BF83CA3D3E9002302
:1048A00012F054FE32463B4613F002F839A3D3E926
:1048B000002312F049FE32463B4612F0F9FF37A3BF
:1048C000D3E9002312F042FE0E9BCDE900019BB319
:1048D0000022294B4046494612F0EAFFDDE9002359
:1048E000CDE902015046594612F0E2FF02460B465E
:1048F000DDE9020112F028FE32463B4612F0D8FFF5
:1049000042464B4612F020FE19A3D3E90023064687
:104910000F465046594612F0CBFF02460B46304632
:10492000394612F013FE02460B462046294612F085
:104930000BFE05B0BDE8F08F02460B463046394607
:1049400012F0B6FF0AA3D3E9002312F0FDFD524690
:104950005B4612F0ADFF22462B4612F0F7FD05B084
:10496000BDE8F08F2046294605B0BDE8F08F00BFB6
:10497000495555555555C53F0000E03F7CD5CF5AA8
:104980003AD9E53DEB9C2B8AE6E55A3E7DFEB157D0
:10499000E31DC73ED561C119A0012A3FA6F8101139
:1049A0001111813F000000002DE9F04FBE4C21F0B5
:1049B000004687B0A64282468B460F46CDE90023CB
:1049C0001BDC13F025FA002837D153461E43109BF9
:1049D0000133334300F0B381109B012B00F0C881F9
:1049E00052465B460020B14913F08CF804460D4650
:1049F0002046294607B0BDE8F08FAD4B9E421CDD36
:104A00000029C0F2A98152465B4687A1D1E9000185
:104A100012F09AFDDDE9002304460D4684A1D1E998
:104A2000000112F091FD9FED847B22462B468DED17
:104A3000007B12F08BFD82468B4652465B46504609
:104A4000594612F035FF02460B468046894612F061
:104A50002FFF424604460D464B465046594612F03B
:104A600027FF77A3D3E90023CDE902012046294699
:104A700012F01EFF74A3D3E9002312F067FD224653
:104A80002B4612F015FF72A3D3E9002312F05EFD4E
:104A900022462B4612F00CFF6FA3D3E9002312F03D
:104AA00055FD22462B4612F003FF6DA3D3E90023E8
:104AB00012F04CFD22462B4612F0FAFE6AA3D3E90F
:104AC000002312F043FD42464B4612F0F1FE68A36C
:104AD000D3E90023CDE904012046294612F0E8FE7F
:104AE00065A3D3E9002312F031FD22462B4612F0D4
:104AF000DFFE63A3D3E9002312F028FD22462B46F4
:104B000012F0D6FE60A3D3E9002312F01FFD224667
:104B10002B4612F0CDFE5EA3D3E9002312F016FD62
:104B200022462B4612F0C4FE5BA3D3E9002312F009
:104B30000DFD02460B46DDE9040112F007FDDDE93B
:104B4000022312F0B5FEDDE9004522462B4612F0A5
:104B5000FDFC42464B4612F0ABFE02460B46204699
:104B6000294612F0F3FC4EA3D3E9002304460D4678
:104B7000DDE9020112F09CFE22462B4612F0E6FC13
:104B80000B460246804689465046594612F0DEFCE6
:104B9000474B9E4204460D4600F38E80109B012B2E
:104BA0003BD002460B460020404912F0ABFF0024E8
:104BB00006460F462046294652465B46CDE9006729
:104BC000CDE90201009412F0BFFCDDE900AB024622
:104BD0000B464046494612F0B7FC52465B4612F07F
:104BE00067FE524604460D465B46DDE9020112F0BF
:104BF0005FFE00222F4B12F0A9FC02460B46204616
:104C0000294612F0A3FC32463B4612F051FE5246B2
:104C10005B4612F09BFC04460D462046294607B031
:104C2000BDE8F08FAFF30080182D4454FB21E93F1D
:104C3000075C143326A6813C000000000000000041
:104C4000D47ABF74702AFB3EE9A7F0320FB8123F46
:104C500068108D1AF726303F1583E0FEC8DB573FFA
:104C600093846EE9E326823FFE41B31BBAA1AB3FBA
:104C7000735360DBCB75F3BEA69237A0887E143FDA
:104C80000165F2F2D844433F280356C9226D6D3FB7
:104C900037D60684F464963F7AFE10111111C13F95
:104CA000635555555555D53FFFFF2F3E0000F0BFCA
:104CB0002794E53F0000F03F109812F093FD224644
:104CC000CDE900012B462046294612F0F1FDDDE931
:104CD0000023CDE902012046294612F037FC0246A6
:104CE0000B46DDE9020112F00DFF42464B4612F081
:104CF0002BFC02460B465046594612F025FC024654
:104D00000B4612F023FC02460B46DDE9000112F0CF
:104D10001BFC0446B81700F00200C0F101000D466C
:104D200012F060FD02460B462046294612F0C0FDF7
:104D300004460D462046294607B0BDE8F08F504690
:104D4000594610F0B1FC02460B4600200A4912F009
:104D5000D9FE04460D4660E7DDE9004501F100415A
:104D6000224605F1004382468B46CDE900234AE600
:104D700054465D4651E700BF0000F03F00000000D0
:104D80002DE9F04FD24A21F00043934285B082468C
:104D90008B460C462DD9CF4A93421AD8002C80F26C
:104DA0001681B5A3D3E900235046594612F0CEFB35
:104DB0000022002312F0EEFFC0B9B1A3D3E9002313
:104DC0005046594612F074FD02460B460020C24977
:104DD00008E1C24A934240F2D0800346C1F3130275
:104DE000134340F0F481002980F2C4800020BC49C4
:104DF000C0E0BC4A934200F22981BB4A934240F290
:104E0000DE80002301930022B84B5046594612F031
:104E10004FFD06460F4602460B465046594612F0D5
:104E200047FD99A3D3E9002304460D4612F040FD47
:104E300097A3D3E9002312F089FB22462B4612F0F8
:104E400037FD95A3D3E9002312F07EFB22462B46C3
:104E500012F02EFD92A3D3E9002312F077FB224635
:104E60002B4612F025FD90A3D3E9002312F06CFB32
:104E700022462B4612F01CFD00229D4B12F066FBD1
:104E80008046894602460B463046394612F010FDF0
:104E900002460B460020974912F056FB0646024692
:104EA0000B460F464046494612F04EFB32468046BE
:104EB00089463B465046594612F0FAFC02460B46DC
:104EC00000208D4912F040FB02460B464046494601
:104ED00012F018FE22462B4612F0EAFC019E024612
:104EE0000B46002E38D0DDE9026732463B4612F011
:104EF0002BFB52465B4612F0DBFC32463B4612F07F
:104F000023FB2B46224612F01FFB019B0133064672
:104F10000F4600F00F81019B012B00F0F180019BF7
:104F20000133392B39D8019B132B40F31281019C9B
:104F3000C4F57F75033500222B0512F007FB0246EE
:104F40000B465046594612F0FFFA0022684B12F009
:104F5000FDFA01EB04510DE05046594612F0A8FC51
:104F600022462B4612F0F0FA02460B4650465946AE
:104F700012F0EAFA05B0BDE8F08F4DA3D3E90023A3
:104F800012F026FF00283FF409AF4BA3D3E900231A
:104F90001046194612F08CFCECE752465B4612F0C4
:104FA000D3FA02460B460020514912F0CDFA019A7D
:104FB0004F4B01EB0251002212F0C6FADAE73EA392
:104FC000D3E9002312F0C2FA02460B46CAE72CA32B
:104FD000D3E900235046594612F06AFC0B46434978
:104FE0000246002012F0B2FA12F012FF019012F005
:104FF000F9FB33A3D3E9002306460F4612F058FC11
:1050000002460B465046594612F09EFA2EA3D3E9AB
:105010000023804689463046394612F049FC064650
:105020000F4632463B464046494612F08DFA02464C
:105030000B4682468B464046494612F085FA324678
:105040003B4612F081FACDE90201DCE62B4A93429D
:1050500000F2958000291AA3D3E90023C0F2AC80A6
:1050600012F072FA012380468946019316A7D7E908
:105070000067D6E7AFF3008059F3F8C21F6EA501B1
:10508000FE822B654715F73F2DC3096EB7FD8ABE1B
:105090003952E686CACFD03EB7DBAA9E19CE143F5E
:1050A0008555FE19A0015A3FF41011111111A13FAD
:1050B000EF39FAFE422E86409C7500883CE4377E2C
:1050C0000000E0FE422EE63F763C7935EF39EA3DBE
:1050D00079684340412E86400000E0BFFFFFEF7F2C
:1050E0000000F0BF422ED63FFFFF8F3C0000E03FA4
:1050F0000000F03F0000084000001840B1A2F03F5F
:105100000022394B5046594612F044FE002844D044
:10511000504659460022354B12F018FA02460B460B
:105120003046394612F010FA00224FF0404312F098
:10513000BFFB1FE702460B465046594612F004FAE1
:1051400000222A4B12F0B4FB0022284B12F0FCF98B
:1051500010E7019C4FF400132341C3F17F575246DF
:105160005B4612F0F1F9002607F5401702460B46A0
:105170003046394612F0E8F901EB0451FAE616A37D
:10518000D3E9002312F094FB002C02460B464FF0AB
:105190000000FFF61CAE154924E732463B46504658
:1051A000594612F0D1F902460B4612F0CFF900220F
:1051B0000F4B12F0CBF9DDE612F0C8F94FF0FF33D8
:1051C00080468946019306A7D7E9006729E702468A
:1051D0000B4612F0BBF9CDE6FE822B654715F73F73
:1051E000763C7935EF39EABD0000D0BF0000E03FE2
:1051F0000000F03F00000000F8B5C1F30A56044675
:105200000D460B4617460EBB21F00043034386466E
:1052100025D00022344B12F04BFB344A974204460F
:105220000D460B462ADBC1F30A56363E3E4440F299
:10523000FE72964228DC002E12DD23F0FF4323F499
:10524000E00343EA065520462946F8BD40F2FF72C6
:105250009642EBD102460B4612F078F9F8BDF8BD44
:1052600016F1350F1DDA4CF250339F4222462B4681
:1052700025DC19A1D1E9000112F0D8F816A3D3E971
:10528000002312F015FBF8BD22462B4614A1D1E9EC
:10529000000112F0CBF812A3D3E9002312F008FBAF
:1052A000F8BD23F0FF4323F4E003363643EA065506
:1052B0002046294600220E4B12F0FAFAF8BD08A14A
:1052C000D1E9000112F0B2F805A3D3E9002312F0EE
:1052D000EFFAF8BDAFF3008059F3F8C21F6EA501D5
:1052E0009C7500883CE4377E00005043B03CFFFFD3
:1052F0000000903C10B5054C237833B9044B13B132
:105300000448AFF300800123237010BD1005002076
:105310000000000078A301000C4B43B10C480D497C
:1053200010B5AFF300800C48036823B910BD0A48DC
:10533000036833B97047094B002BF7D0BDE8104024
:105340001847064B002BF5D0184700BF000000009F
:1053500078A30100140500201402002000000000C2
:10536000154B002B08BF134B9D46A3F5803A002137
:105370008B460F461348144A121A08F02FFA0F4BA7
:10538000002B00D098470E4B002B00D098470020F0
:10539000002104000D000D48002802D00C48AFF396
:1053A000008012F079F82000290005F057FA12F079
:1053B0005FF800BF000008000000022000000000AD
:1053C0000000000000040020840C00200000000009
:1053D0000000000070B504460E4600F0D1F888B118
:1053E0000368DB6A05469847082C0CD0A4F1090332
:1053F000012B14D93246214610230D20BDE8704000
:1054000004F0A8B870BD2B6828465B6A984702284C
:10541000F0DC2B6828461B6A04219847EAE72B68D2
:1054200028465B6A98470528E4DC2B6828461B6AF7
:1054300008219847DEE700BF30B52DED028B83B021
:10544000054600F09DF8044640B10368DB6A9847C2
:10545000032D50D8DFE805F0373F47080190019849
:1054600003B0BDEC028B30BD20460BF00BFD07EE08
:10547000900A2046F8EEE78A0BF014FD07EE900A3A
:105480002046B8EEE78A0BF01DFD68EE087A07EEBD
:10549000100AE8EEA87AB8EEC77AE7EE077AF5EEDA
:1054A000407AF1EE10FAB1EEE78A03D517EE900AD2
:1054B00010F046FEFDEEC87ACDED017A019803B0FA
:1054C000BDEC028B30BD204603B0BDEC028BBDE8C5
:1054D00030400BF0D7BC204603B0BDEC028BBDE8DA
:1054E00030400BF0DFBC204603B0BDEC028BBDE8C2
:1054F00030400BF0E7BC00230193B0E738B5054618
:1055000000F03EF858B10368DB6A0446984745B19D
:10551000012D04D12046BDE83840FBF79DB800209E
:1055200038BD2046BDE83840FBF776B810B50446D4
:1055300000F026F828B1036821461B6ABDE8104038
:10554000184710BD0048704716FCFFFF704700BFAA
:1055500010B5034B036004460BF074FA204610BDEF
:10556000EC98010010B5054B036004460BF06AFA95
:10557000204612F0DFFE204610BD00BFEC9801006F
:105580002DE9F043C04C236885B01BB1986805B085
:10559000BDE8F0834FF0FF31012001F0FFFCC0B205
:1055A00004F028FB002800F0ED800C2012F0C4FE6F
:1055B00003210646512001F0F1FCDFF8FCE2B34B79
:1055C000054605F00F07C5F3031815F4807518BFDD
:1055D0007346AF48394642460AF032FC2A1C18BFCF
:1055E00001223946434630460DF074FD0023A94898
:1055F000B3600AF025FC4FF0FF31032001F0CEFC30
:10560000C0B204F0F7FA4FF0FF310546022001F076
:10561000C5FCC0B204F0EEFA002D00F09A8000281C
:1056200000F097800146284604F076F807460028E7
:1056300000F0A4804FF0FF31462001F0AFFC32288B
:1056400080462BD028DD382869D068283FD14FF01C
:10565000FF31012001F0A2FCC0B204F0CBFA814678
:105660004C2012F069FE0523054601934A46CDF809
:105670000080394633460CF0FDFC2846B0600368D4
:105680009B6A9847B0680368DB6A984782480AF0CB
:10569000D7FB2660B0687AE7302818D14FF0FF3189
:1056A000012001F07BFCC0B204F0A4FA81464C203A
:1056B00012F042FE1FFA88F1054605234A46009182
:1056C0000193394633460CF0B7FA2846D6E73A68D4
:1056D0000125002301950095D2F82080B3600F22A8
:1056E0000DF10F0332213846C047002856D14FF044
:1056F0003208414669480AF0A3FB4FF0FF31012010
:1057000001F04CFCC0B204F075FA81464C2012F056
:1057100013FE052305464A46CDF80080D0E74FF03A
:10572000FF31012001F03AFCC0B204F063FA814677
:10573000442012F001FE052305464A46CDF80080BC
:105740003946019333460CF0EDFB554B2B60284650
:1057500094E754480AF074FB4FF0FF31192001F030
:105760001DFCC0B204F046FA4FF0FF310546182088
:1057700001F014FCC0B204F03DFA53E74A480AF0C5
:105780005FFB86E74FF0FF31032001F007FCC0B25A
:1057900004F030FA00287FF408AFF8E63B68019582
:1057A0000095D3F820800F220DF10F0330213846E9
:1057B000C04718B94FF0300841469BE73B68019558
:1057C0000095D3F820800D220DF10F0338213846C3
:1057D000C047C0B9382131480AF032FB4FF0FF31E1
:1057E000284601F0DBFBC0B204F004FA80464420F6
:1057F00012F0A2FD4FF0050E382305464246394609
:105800008DE808409EE73A6801950095D2F820801F
:105810000DF10F03752268213846C047E0B96821B1
:105820001E480AF00DFB4FF0FF31284601F0B6FB91
:10583000C0B204F0DFF980464C2012F07DFD4FF03D
:10584000050E682305468DE8084042463946334632
:105850000CF010FC284611E714480AF0F1FAB06881
:1058600000287FF40CAF4FF0FF31032001F096FBCE
:10587000C0B204F0BFF918B10D480AF0E1FA08E728
:105880000C480AF0DDFA04E72C050020F48B010037
:10589000FC8B01001C8C0100B48C0100D88C010031
:1058A000B88B01002C8C0100408C0100C48C0100DD
:1058B000588C0100948C0100EC8B010008B501F0BC
:1058C00095FCFBF76DFCBDE8084001F0FDB900BF99
:1058D00008B501F08BFCFBF7D3FCBDE8084001F0F4
:1058E000F3B900BF08B501F081FC0FF053FFBDE82C
:1058F000084001F0E9B900BF08B501F077FC10F0ED
:105900005BFBBDE8084001F0DFB900BF08B501F05E
:105910006DFCFBF755FCBDE8084001F0D5B900BFB0
:1059200008B501F063FC10F073F9BDE8084001F020
:10593000CBB900BF08B501F059FCFAF7ADFEBDE8E0
:10594000084001F0C1B900BF08B501F04FFC10F0EC
:10595000B3F8BDE8084001F0B7B900BF70B5049EC8
:1059600096420C4628DB15466BB1002A00EB02017B
:1059700007DD2046A21811F8013D00F8013B9042D6
:10598000F9D1002070BD042A0FD0022A02D110F0F4
:10599000010306D001462A46204606F02FFD0020CE
:1059A00070BD02880A80184670BD10F00303F1D163
:1059B00002680A60184670BD0846002107F00EFF15
:1059C0004FF0FF3070BD00BF0830704740B1002974
:1059D00005DB4368994202DA0844007A70470020E8
:1059E000704700BF30B1002904DB43689942BCBF57
:1059F00040180272704700BF40B1002905DB4368C0
:105A0000994202DA0844007A70470020704700BFCC
:105A1000830705D120B1030F0CBF01200020704780
:105A20000120704730B1002904DB43689942BCBFB4
:105A300040180272704700BF002B23DB002921DBD6
:105A400070B54668B1421ADC5568761A1446EA1AEF
:105A5000B242A8BF3246002A11DB84420D4607D06D
:105A6000083408300844E11806F0C8FC002070BD76
:105A70000834E118601912F099FC002070BD4FF055
:105A8000FF3070BD4FF0FF30704700BF4068704777
:105A900010B4141E10DB426894420DDC33EA230379
:105AA00028BF1346121B08309A422044A8BF1A464A
:105AB0005DF8044B07F092BE5DF8044B704700BFE1
:105AC00043688B4210B400F108041846A8BF08468A
:105AD00032EA220128BF19461B1A99422044A8BF66
