:1040000000000320C1420100BD4201006DDB000041
:10401000BD420100BD420100BD42010000000000A0
:10402000000000000000000000000000BD42010090
:10403000BD42010000000000BD420100BD42010080
:10404000BD420100BD420100BD420100BD42010070
:10405000BD420100BD420100BD420100BD42010060
:10406000BD420100BD420100BD420100BD42010050
:10407000FDD9010005DA01000DDA010015DA0100B1
:104080001DDA010025DA01002DDA010035DA010020
:104090003DDA010045DA01004DDA010055DA010090
:1040A0005DDA010065DA01006DDA010075DA010000
:1040B000BD420100BD420100BD420100A9D4010082
:1040C000ADD40100B1D40100B5D40100B9D40100D0
:1040D000BD420100BD420100BD420100BD420100E0
:1040E000BD420100BD420100BD420100BD420100D0
:1040F00000000000BD420100EDCF0100E9CF01004A
:10410000E5CF0100D9CF010005D0010001D00100A9
:10411000FDCF0100F1CF01001DD0010019D0010039
:1041200015D0010009D0010035D0010031D00100C7
:104130002DD0010021D001004DD0010049D0010057
:1041400045D0010039D0010065D0010061D00100E7
:104150005DD0010051D0010000000000000000000F
:10416000000000000000000000000000000000004F
:10417000000000000000000000000000000000003F
:10418000A9A30100ADA30100A5A30100A1A3010003
:1041900000000000BD420100BD420100BD4201001F
:1041A000BD420100BD420100BD420100BD4201000F
:1041B000BD420100BD420100BD420100BD420100FF
:1041C000BD420100BD420100BD420100BD420100EF
:1041D000BD420100BD420100BD420100BD420100DF
:1041E000BD420100BD420100BD42010001C4010009
:1041F00009C4010011C4010019C4010021C4010057
:1042000029C401000000000000000000BD420100C0
:10421000BD420100BD420100BD420100BD4201009E
:10422000BD420100BD420100BD420100BD4201008E
:10423000BD420100BD420100BD420100BD4201007E
:10424000BD420100BD420100BD420100BD4201006E
:10425000BD420100BD420100BD420100BD4201005E
:10426000000000007CB0EE877CB0EE87FF00FF000E
:10427000FF00FF00FF00FF00FF00FF00FF00FF0046
:10428000FF00FF00FF00FF00FF00FF00FF00FF0036
:10429000FF00FF00FF00FF00FF00FF000000000024
:1042A0002DE9F04F85B003910778A7F10903042B9E
:1042B000044607F07F0200F10100F5D9202AF3D06F
:1042C0002B2F04BF677804462D2F72D09FED427BC1
:1042D0008DED007B4FF000084FF000098FB34FF0D9
:1042E000000E4FF0000ADFF800B1754619E019F032
:1042F00087FE80468946304619F01CFE42464B46F2
:1043000019F0CCFC5246804689465B46DDE9000147
:1043100035B319F09FFFCDE90001AE4614F8017FD7
:104320007FB1A7F13006092E52465B46404649460A
:10433000DDD9C5B92E2F16D114F8017F0125002F24
:10434000EFD142464B46DDE9000119F059FE8046A7
:104350008946039B404649461C6005B0BDE8F08F86
:104360004FF0010EDAE7BEF1000F29D042464B466E
:10437000DDE9000119F044FE07F0DF07452F804614
:104380008946E6D10399601C0A221CF0A9FC164953
:10439000024600201AF094F902460B464046494670
:1043A00019F02EFE804689464046494605B0BDE8D4
:1043B000F08F9FED0B7B67788DED007B013489E7F3
:1043C000DFF828904FF000084046494605B0BDE8A8
:1043D000F08F00BFAFF30080000000000000F03F4E
:1043E000000000000000F0BF000024400000F87F43
:1043F0002DE9F84F16460023002204460D461AF018
:1044000071F8002840F09D800022002320462946B4
:104410001AF05EF828B13022002332707370BDE8C4
:10442000F88F204629461AF05BFF1AF099F87BA313
:10443000D3E900238146294620461AF053F8002884
:1044400000F08680B9F1000FC0F2BE804A4600201D
:104450006F491AF035F902460B462046294619F0F5
:10446000F9FE04460D4666A1D1E9000101274FF08F
:10447000000822462B4619F0C3FD0022654B19F0B7
:104480000DFC1AF059F9002FCC464FF0FF3AC14607
:104490004FF0000840F38580DFF888E15E4C012290
:1044A000AEF1700945F6F3254FF02E0BA94208BF77
:1044B000A0424FF0300309D3001B61EB0501A94274
:1044C00008BFA04203F10103F6D2DBB2337050EA19
:1044D000010306F1010409D1BA4210DACE4502F116
:1044E00001020CD026467EE80245DFE7BA4204BF4F
:1044F00086F801B0B41CCE4502F10102F2D1B8F148
:10450000000F0DD02246302102F8011BC2F1010339
:1045100053442344002BF7DC2AEAEA7301331C449A
:10452000BCF1010F4CD06523BCF1000F2370C5BF57
:104530002B236370611CA11C6046BDE8F84F0FF08F
:104540002DBF05F100431D462D23337001365BE777
:104550002DA3D3E900232046294619F0E1FF0028C6
:104560007FF470AFB9F10E0F09F101073DDDA9F13C
:104570000E084246002026491AF0A2F802460B46D1
:104580002046294619F066FE0022224B19F086FBD0
:104590001AF0D2F8002FA9F10F0A4FF0010C3FF7E3
:1045A0007BAF334630222E2403F8022B74707FEA4F
:1045B000090618D01E4403F8012BB342FBD16BE768
:1045C00000232370BDE8F88FC9F1000200201049D4
:1045D0001AF076F802460B462046294619F010FDDF
:1045E00004460D463FE71E4656E7C9F10E0200207D
:1045F0000749C8461AF064F84FF0010939E700BFCF
:104600000000901EC4BCD64250EFE2D6E41A4B44E0
:10461000000024400000E03F00407A108DEDB5A07E
:10462000F7C6B03E581D020070B54FF0FF3006F0DF
:10463000CBF804466FF07F4006F0C6F806462046E9
:1046400019F068FC00220C4B19F0DAFC04463046E5
:104650000D4619F05FFC06A3D3E9002319F0FAFD1B
:1046600002460B462046294619F018FB70BD00BFD4
:104670000000E0DFFFFF6F430000F03D000000009E
:1046800008B511F03FF9DFED0C7A07EE100A67EE7E
:10469000277A17EE900A19F05FFC05A3D3E90023EF
:1046A00019F0D8FD19F05CFF08BD00BFAFF3008022
:1046B000EA2E4454FB2119400000B44300000000DE
:1046C00008B511F033F9DFED0C7A07EE100A67EE4A
:1046D000277A17EE900A19F03FFC05A3D3E90023CF
:1046E00019F0B8FD19F03CFF08BD00BFAFF3008022
:1046F000EA2E4454FB2119400000B443000000009E
:104700002DE9F04F046985B0E3699B07FCD123686C
:10471000C3F3400BBBF1000F40F0AF80B0F80CA02A
:1047200015468046BAF1000F23D0BAF1010F62D0CE
:10473000BAF1020F40F0A4805500E1685448C5F575
:104740003B438033B3FBF5F31A0421F47F0102F4F9
:104750007F020A43E260E2685B00A0FB03135B0890
:1047600022F07F4242EA03635846E36005B0BDE8A9
:10477000F08FE2684BF6803B05EB850022F0FF03EB
:10478000ABEB4000019319F0C5FB0646B8F80E00EC
:104790000F4619F0CFFB3CA3D3E9002319F030FCFE
:1047A00080460BFB05F0894619F0B4FB02460B4628
:1047B0004046494619F024FC02460B46304639462D
:1047C00019F06AFA064668000F4619F0A3FB024684
:1047D0000B463046394619F03DFD19F0E9FE019BC4
:1047E000C0B21843E060E368504623F47F43E360BF
:1047F00005B0BDE8F08FE2684BF6803A05EB850026
:1048000022F0FF03AAEB4000019319F083FBCDE9EE
:104810000201B8F80E0019F08DFB1BA3D3E90023A9
:1048200019F0EEFB06460AFB05F00F4619F072FB85
:1048300002460B463046394619F0E2FB02460B466B
:10484000DDE9020119F028FA064668000F4619F062
:1048500061FB02460B463046394619F0FBFC19F065
:10486000A7FE019AC3B21343E360E368584623F4FA
:104870007F43E36005B0BDE8F08F6FF0100075E78F
:104880006FF00C0072E700BF95D626E80B2E113EA4
:10489000ABAAAAAA000000004F4A21F000439342AD
:1048A0002DE970430D4604464FDC4C4A93420E46B8
:1048B0000FDC45A3D3E9002319F0F0F90022484B9F
:1048C00019F02EFE002856D02B4620461946BDE88A
:1048D0007083444A934242DCB3F1804F4BDD1AF0BF
:1048E00009F92246804689462B462046294619F07A
:1048F00087FB00223A4B19F0D1F91BF019F9024657
:104900000B464046494619F0C9F902460B460020BD
:10491000334919F09FFC424604460D464B4640463B
:10492000494619F0BBF90B4602462946204619F0C4
:10493000B5F901F0FDFE04460B46002E0BDC03F139
:10494000004320461946BDE870830B46024619F025
:10495000A5F904460B4620461946BDE870831AF0B7
:10496000C9F801F0E5FE1AA3D3E9002319F096F97E
:1049700004460B46E1E722462B462046294619F01D
:104980003FFB80468946204629461AF0B3F80022AC
:104990000446134B0D464046494619F07FF91BF07B
:1049A000C7F800220E4B19F079F902460B46404633
:1049B000494619F04FFC22462B4619F06FF900F0DA
:1049C000D3FA04460B46B8E79C7500883CE4377E72
:1049D000EF39FAFE422EE63FFFFFEF7FFFFF2F3E4B
:1049E0000000F03F0000B0412DE9F84FC24B21F02C
:1049F00000469E420D468A46044610DDBF4B9E424D
:104A000000F3B58000F0B080BD4BBE49BE4CBAF19A
:104A1000000FD8BF0B4620461946BDE8F88FBB4BA8
:104A20009E4200F3C180A3F1DE739E4240F3AB804F
:104A30004FF0FF3B22462B462046294619F0E0FA6C
:104A400002460B468046894619F0DAFA92A3D3E96A
:104A5000002306460F4619F0D3FA91A3D3E90023A9
:104A600019F01CF932463B4619F0CAFA8EA3D3E975
:104A7000002319F013F932463B4619F0C1FA8CA312
:104A8000D3E9002319F00AF932463B4619F0B8FA87
:104A900089A3D3E9002319F001F932463B4619F006
:104AA000AFFA87A3D3E9002319F0F8F842464B4642
:104AB00019F0A6FA84A3D3E900238046894630463C
:104AC000394619F09DFA82A3D3E9002319F0E4F8DE
:104AD00032463B4619F094FA7FA3D3E9002319F03C
:104AE000DBF832463B4619F08BFA7DA3D3E900236D
:104AF00019F0D2F832463B4619F082FA7AA3D3E98C
:104B0000002319F0C9F832463B4619F079FABBF197
:104B1000FF3F02460B466ED04046494619F0BEF8AC
:104B200022462B4619F06CFA794E7A4B4FEACB0BA2
:104B30005E449B44DBE9002319F0AEF822462B4685
:104B400019F0AAF80B460246D6E9000119F0A4F8BC
:104B5000BAF1000F04460B46BFF65DAF01F100430A
:104B600020461946BDE8F88F00283FF44DAF224695
:104B70002B462046294619F091F804460B4620465C
:104B80001946BDE8F88F5AA3D3E9002319F086F837
:104B90000022614B19F0C4FC00283FF449AF2B46BA
:104BA00020461946BDE8F88F19F0A4FF5B4B9E42E2
:104BB00004460D4630DCA3F550239E4255DC0246E8
:104BC0000B4619F06BF80022534B19F065F80022E0
:104BD00006460F464FF080432046294619F05EF8FE
:104BE00002460B463046394619F034FB4FF0000BB5
:104BF00004460D461EE74046494619F04FF8224646
:104C00002B4619F0FDF90B4602462946204619F0BD
:104C100043F804460B46FEE6414B9E421ADC002256
:104C2000404B19F039F8002206460F463D4B20460E
:104C3000294619F0E5F90022374B19F02FF8024602
:104C40000B463046394619F005FB4FF0020B04467F
:104C50000D46EFE602460B460020334919F0FAFAFA
:104C60004FF0030B04460D46E4E600222A4B19F0F0
:104C700013F8002206460F46274B2046294619F016
:104C80000DF802460B463046394619F0E3FA4FF06C
:104C9000010B04460D46CDE611DA22E33AAD903F12
:104CA000EB0D76244B7BA93F513DD0A0660DB13F63
:104CB0006E204CC5CD45B73FFF8300922449C23FCB
:104CC0000D5555555555D53F2F6C6A2C44B4A2BF90
:104CD0009AFDDE522DDEAD3F6D9A74AFF2B0B33F58
:104CE000711623FEC671BC3FC4EB98999999C93FD0
:104CF0009C7500883CE4377EFFFF0F440000F07F86
:104D0000FB21F93FFB21F9BF182D4454FFFFDB3F86
:104D1000681D0200881D02000000F03FFFFFF23F07
:104D2000FF7F03400000F83F0000F0BF00000000DC
:104D30002DE9F047C1F30A59A9F2FF36132E0B46AD
:104D40000D46044607468846824622DC002E4FDB8D
:104D50003D4A42FA06F901EA090202431ED038A38D
:104D6000D3E9002318F09AFF0022002319F0D8FBA2
:104D700050B1002D04DD4FF4801343FA06F6B04421
:104D800028EA09054FF0000A544629462046BDE8A6
:104D9000F087332E06DDB6F5806F3DD019462046EC
:104DA000BDE8F087A9F213494FF0FF3222FA09F962
:104DB00010EA090FF2D022A3D3E9002318F06EFF06
:104DC0000022002319F0ACFB0028DDD0002D09DD06
:104DD000142E2FD00123C6F1340603FA06F6371934
:104DE00028BF9844454627EA090A54462946CDE794
:104DF00013A3D3E9002318F051FF0022002319F078
:104E00008FFB0028C0D0002D0FDB55EA040709D026
:104E10004FF0000A0D4DB7E702460B4618F03EFF73
:104E20000446BCE7BA463D46AEE74FF0000A4FF0F5
:104E30000045A9E705F10108D4E700BFAFF3008002
:104E40009C7500883CE4377EFFFF0F000000F03FB8
:104E5000C1F30A522DE9F843A2F2FF36132E0B4696
:104E60000D460446884607461DDC002E40DB3C4AC2
:104E700042FA06F901EA09020243864618D036A32F
:104E8000D3E9002318F00AFF0022002319F048FBA1
:104E900020B1002D42DB28EA090500273C462946BF
:104EA0002046BDE8F883332E06DDB6F5806F2FD09F
:104EB00019462046BDE8F883A2F213424FF0FF39AD
:104EC00029FA02F910EA090FF2D023A3D3E900234B
:104ED00018F0E4FE0022002319F022FB0028DDD0A8
:104EE000002D21DB454627EA09073C462946D7E73E
:104EF00019A3D3E9002318F0D1FE0022002319F0F2
:104F00000FFB0028CAD0002D19DB00273D46C5E75E
:104F100002460B4618F0C2FE0446CAE74FF480135F
:104F200043FA06F6B044B6E7142E10D00123C6F1BA
:104F3000340603FA06F6371928BF9844D2E725F05D
:104F40000042084B224318BF1D460027A6E705F183
:104F50000108C7E7AFF300809C7500883CE4377E0A
:104F6000FFFF0F000000F0BF2DE9F04FD64B994234
:104F700089B00E460F46824613DCD44B21F0004424
:104F80009C4218DD0022D24B19F0A2FA002879D0F9
:104F9000002200230020CF4919F05CF909B0BDE8D8
:104FA000F08FCD4B99422FDD5246334618F076FEF6
:104FB00009B0BDE8F08FC94B9C4270DDC84B1F445F
:104FC0009F427ED8504631460022C64B18F066FEFE
:104FD0004FEA215BABF2FF3BBBF1000F04460D46ED
:104FE0000F4640F3E0815246334618F055FE024624
:104FF0000B460020BB4918F04FFE22462B4619F005
:1050000029F9CDE900010BE0B74B9F42DADD002220
:105010000023CDE900234FEA275B5446ABF2FF3B68
:10502000B24BC7F313079F4247F07F5500F3E78069
:1050300045F44015204629460022AA4B18F02CFEC4
:10504000002204460D46AA4B18F0DAFF22462B46F2
:1050500018F0D6FFA246CDE902012E4680468946C9
:10506000002F3AD1002200232046294619F030FAB9
:10507000002800F0CE80BBF1000F40F076810020C8
:10508000014695E7524633465046314618F004FE35
:1050900002460B4619F0DEF809B0BDE8F08F002299
:1050A000944B18F0FBFD0022002319F039FA002878
:1050B00000F0CC80904B9C4200F3C88050463146B3
:1050C00076E700228A4B18F09BFF5246334618F0D1
:1050D00097FF4FF0000B8046894600224FF0804337
:1050E0005046314618F0DAFD02460B46504631462E
:1050F00019F0B0F802460B46CDE9022318F080FF04
:105100005DA3D3E9002304460D4618F079FF5CA3A4
:10511000D3E9002318F0C2FD22462B4618F070FF99
:1051200059A3D3E9002318F0B9FD22462B4618F005
:1051300067FF57A3D3E9002318F0B0FD22462B46A2
:1051400018F05EFF54A3D3E9002318F0A7FD224610
:105150002B4618F055FF52A3D3E9002318F09EFD0B
:1051600022462B4618F04CFF4FA3D3E9002318F03A
:1051700095FD22462B4618F043FF04460D46BBF131
:10518000000F00F0BB80584618F0D4FE48A3D3E9C6
:105190000023CDE9040118F033FF4246CDE90601B2
:1051A0004B462046294618F079FDDDE9022318F028
:1051B00027FF41A3D3E9002304460D46DDE904019E
:1051C00018F01EFFDDE9002318F068FD02460B46CB
:1051D0002046294618F062FD02460B4640464946E5
:1051E00018F05AFD5246334618F056FD02460B465B
:1051F000DDE9060118F050FD09B0BDE8F08F45F477
:105200000015C7F5801720462946BF100BF1010B8A
:1052100012E72BA3D3E900232046294618F0F0FE1D
:1052200002460B4600202F4918F036FDDDE9022327
:1052300018F0E6FE06460F46BBF1000F6DD10246A0
:105240000B462046294618F027FDB1E65246334664
:105250005046314618F0D4FE0022254B18F0D0FEFF
:1052600002460B465046314618F016FD09B0BDE81F
:10527000F08F00BFAFF3008044523EDF12F1C23F17
:105280009FC678D0099AC33FDE03CB966446C73FDA
:10529000AF788E1DC571CC3F599322942449D23FDB
:1052A00004FA97999999D93F935555555555E53F26
:1052B0000000E0FE422EE63F763C7935EF39EA3DCC
:1052C000555555555555E53F7982DA3FFFFFEF3F7C
:1052D0000000F0BF000050C3FFFFEF7FFFFF1F3E45
:1052E0003C412D400000F03FFFFF3F439DA00600E2
:1052F0000000E03F00005043FFFF8F3C42464B461A
:1053000018F0CCFCDDE9022318F07AFE02460B46C9
:105310004046494618F0C0FCA2E7584618F00AFE7D
:1053200027A3D3E9002382468B4618F069FE26A303
:10533000D3E90023804689465046594618F060FE5E
:10534000DDE9002318F0AAFC02460B463046394638
:1053500018F0A2FC22462B4618F09EFC02460B4693
:105360004046494618F098FC22E6584618F0E2FDFF
:1053700015A3D3E9002306460F4618F041FEDDE9E8
:10538000002318F08BFC0EA3D3E9002304460D463E
:105390003046394618F034FE02460B462046294670
:1053A00018F07CFC04E60022094B18F075FC02465C
:1053B0000B465046314618F06FFC1EE6AFF30080F6
:1053C0000000E0FE422EE63F763C7935EF39EA3DBB
:1053D0000000F03F0000000008B519F005FF04A32D
:1053E000D3E9002318F036FF08BD00BFAFF30080FB
:1053F000EF39FAFE422EE63F2DE9F043DFF8B480A4
:105400008BB004460D4600F06BFF98F90030013375
:1054100006460F462BD022462B462046294619F039
:1054200089F8814618BB2046294619F063FB1CA366
:10543000D3E9002319F074F8C8B11B4A98F9003079
:10544000CDF820900321CDE90445CDE902458DE852
:1054500006008BB9154B4FF06042CDE90623684634
:105460001BF0AAFA70B1089B9BB9DDE906673046CC
:1054700039460BB0BDE8F0830D490020022BCDE981
:105480000601ECD11BF0E8FB22230360089B002BF4
:10549000EBD01BF0E1FB089B0360E6E7AFF3008075
:1054A0007DF8B98FCE33864058350200FFFFEF47B5
:1054B0000000F07F1E0200202DE9F043DFF8E480B9
:1054C0008BB004460D4600F0BBFF98F90030013365
:1054D00006460F4633D0204629461BF067FA70B3C4
:1054E00029A3D3E900232046294619F019F881465B
:1054F00050BB27A3D3E900232046294618F0F2FF2A
:10550000E8B198F90030244ACDF820900426002014
:105510000021022BCDE90445CDE902450096019218
:10552000CDE9060129D068461BF046FA28B3089B4E
:105530001BB11BF091FB089B0360DDE90667304659
:1055400039460BB0BDE8F083134A98F90030019258
:1055500003210022CDE90445CDE9024500910892DE
:105560002BB90E4B4FF06042CDE90623DBE70C4927
:105570000020022BCDE90601D5D11BF06DFB2223C3
:105580000360D4E7AFF30080EF39FAFE422E864085
:1055900051302DD5104987C060350200FFFFEF471D
:1055A0000000F07F1E0200202DE9F84FC44E21F0CC
:1055B0000043B3420C4605460DDD03F1404303F5BD
:1055C0008013034340F0B980002940F3408100205C
:1055D0000021BDE8F88FBB4EB34240F3A6800029FE
:1055E000C0F2788102460B460020B74918F054FB00
:1055F0000022B64B18F004FD04460D461AF098FA46
:1056000095A3D3E90023894680462946204618F011
:10561000F7FC93A3D3E9002318F040FB22462B4666
:1056200018F0EEFC90A3D3E9002318F035FB2246D6
:105630002B4618F0E5FC8EA3D3E9002318F02EFBCF
:1056400022462B4618F0DCFC8BA3D3E9002318F08C
:1056500023FB22462B4618F0D3FC89A3D3E9002371
:1056600018F01CFB22462B4618F0CAFC86A3D3E98F
:10567000002382468B462046294618F0C1FC84A3AD
:10568000D3E9002318F008FB22462B4618F0B8FC9B
:1056900081A3D3E9002318F001FB22462B4618F022
:1056A000AFFC7FA3D3E9002318F0F6FA22462B467D
:1056B00018F0A6FC0022844B18F0F0FA02460B46C4
:1056C0005046594618F0C6FD42464B4618F098FC25
:1056D000002682468B4632464B463046494618F0F5
:1056E0008FFC02460B462046294618F0D5FA324672
:1056F00004460D464B464046494618F0CFFA02464E
:105700000B462046294618F0A5FD02460B4650469A
:10571000594618F0C3FA32464B4618F0BFFA024613
:105720000B4618F0BBFABDE8F88F694A93420EDCCD
:105730005DA1D1E90001BDE8F88F02460B4618F0E3
:10574000ABFA02460B4618F085FDBDE8F88F02461D
:105750000B4618F055FC40A3D3E9002306460F463C
:1057600018F04EFC3EA3D3E9002318F097FA324616
:105770003B4618F045FC3CA3D3E9002318F08CFA13
:1057800032463B4618F03CFC39A3D3E9002318F01D
:1057900085FA32463B4618F033FC37A3D3E90023A1
:1057A00018F07AFA32463B4618F02AFC34A3D3E9C3
:1057B000002318F073FA32463B4618F021FC32A35E
:1057C000D3E90023804689463046394618F018FC54
:1057D0002FA3D3E9002318F05FFA32463B4618F0B6
:1057E0000FFC2DA3D3E9002318F058FA32463B46AC
:1057F00018F006FC2AA3D3E9002318F04DFA32462C
:105800003B4618F0FDFB00222F4B18F047FA0246EA
:105810000B464046494618F01DFD2A46234618F01F
:10582000EFFB02460B4622A1D1E9000118F034FA41
:1058300002460B462846214618F02EFA02460B4631
:1058400019A1D1E9000118F027FABDE8F88F1AA1D3
:10585000D1E90001BDE8F88F09F7FD0DE13D023FF8
:1058600088B20175E0EF493F3B8F68B52882A43FBD
:105870005544880E55C1C93F7D6FEB0312D6D43F06
:10588000555555555555C53F82922EB1C5B8B33FB4
:1058900059018D1B6C06E63FC88A599CE52A0040D9
:1058A0004B2D8A1C273A0340182D4454FB21F93F05
:1058B000075C143326A6913C182D4454FB21094063
:1058C000FFFFEF3FFFFFDF3F0000F03F0000E03F42
:1058D0000000603C00225C4B18F0E0F900225B4BBA
:1058E00018F08EFB40A3D3E9002304460D4618F0C0
:1058F00087FB3FA3D3E9002318F0D0F922462B46BB
:1059000018F07EFB3CA3D3E9002318F0C5F922462A
:105910002B4618F075FB3AA3D3E9002318F0BEF923
:1059200022462B4618F06CFB37A3D3E9002318F06E
:10593000B3F922462B4618F063FB35A3D3E90023C5
:1059400018F0ACF922462B4618F05AFB80468946DF
:10595000204629461AF0ECF82FA3D3E90023064687
:105960000F462046294618F04BFB2DA3D3E9002310
:1059700018F092F922462B4618F042FB2AA3D3E9ED
:10598000002318F08BF922462B4618F039FB28A388
:10599000D3E9002318F080F922462B4618F030FB9B
:1059A0000022294B18F07AF902460B464046494638
:1059B00018F050FC32463B4618F022FB1EA3D3E9F8
:1059C000002318F069F932463B4618F067F90246A1
:1059D0000B4618F063F902460B4619A1D1E9000104
:1059E00018F05AF9BDE8F88F09F7FD0DE13D023FC7
:1059F00088B20175E0EF493F3B8F68B52882A43F2C
:105A00005544880E55C1C93F7D6FEB0312D6D43F74
:105A1000555555555555C53F82922EB1C5B8B33F22
:105A200059018D1B6C06E63FC88A599CE52A004047
:105A30004B2D8A1C273A0340075C143326A6913C61
:105A4000182D4454FB2109400000F03F0000E03FC6
:105A5000434A91422DE9F8430C46054639DD414A57
:105A6000914209DD02F17952914240DD02460B4636
:105A700018F014F9BDE8F88301F1404202F58012F4
:105A8000024330D0B1F1804F3ADC0022364B18F09F
:105A900003F902460B4604460D4618F0FFF822466D
:105AA00006460F462B462046294618F0A9FA02461C
:105AB0000B463046394618F0F1F81AF039F80B4623
:105AC00002462946204618F0E9F8BDE8F843FFF7FA
:105AD0004BBA02460B4618F0DFF802460B4618F0A8
:105AE000B9FBBDE8F88300200021BDE8F88300F091
:105AF0001FFE19A3D3E9002318F0D0F8BDE8F883FE
:105B000002460B4618F07CFA0022174B18F0C4F836
:105B10001AF00EF82A468046894623462846214632
:105B200018F0BCF8424606460F464B46284621462A
:105B300018F0B4F802460B4600200B4918F08AFB17
:105B40000B4602463946304618F0A6F8BDE8F84341
:105B500000F0EEBDAFF30080EF39FAFE422EE63FD3
:105B6000FFFFEF3FFFFFAF410000F03F00000000EC
:105B70002DE9F047C44B21F00048984584B00D460C
:105B8000044616DD08F1404808F58018034658EA37
:105B9000030326D002460B4618F07EF80B46024659
:105BA00018F058FB04460B462046194604B0BDE8E1
:105BB000F087B64B98458A462EDCB8F1795F80F2C3
:105BC0006D8195A3D3E9002318F068F80022B04B4B
:105BD00018F0A6FC00B32B462046194604B0BDE8D9
:105BE000F0878FA3D3E9002318F00AFA8EA3D3E934
:105BF000002306460F462046294618F001FA0246C1
:105C00000B463046394618F049F804460B46204604
:105C1000194604B0BDE8F0872046294618F06AFF0F
:105C200002460B4600209A4918F036F80022994B9C
:105C300018F0E6F97EA3D3E9002304460D4618F0D8
:105C4000DFF97DA3D3E9002318F028F822462B467C
:105C500018F0D6F97AA3D3E9002318F01DF82246EC
:105C60002B4618F0CDF978A3D3E9002318F016F8E5
:105C700022462B4618F0C4F975A3D3E9002318F087
:105C80000BF822462B4618F0BBF973A3D3E9002387
:105C900018F004F822462B4618F0B2F970A3D3E9A5
:105CA0000023CDE900012046294618F0A9F96EA38A
:105CB000D3E9002317F0F0FF22462B4618F0A0F995
:105CC0006BA3D3E9002317F0E9FF22462B4618F017
:105CD00097F969A3D3E9002317F0DEFF22462B468C
:105CE00018F08EF96A4B002217F0D8FFCDE90201B7
:105CF0002046294619F01CFF674B984506460F467B
:105D000067DCDDE90223DDE9000118F0A3FA324681
:105D1000CDE900013B463046394617F0BFFF024649
:105D20000B46DDE9000118F06BF94FF00008CDE9F2
:105D3000000142463B464046394618F061F90246AA
:105D40000B462046294617F0A7FF424604460D465B
:105D50003B463046394617F0A1FF02460B46204627
:105D6000294618F077FA02460B4617F097FF0246CD
:105D70000B462DA1D1E9000117F08EFF02460B461C
:105D8000DDE9000117F088FF424604460D463B4618
:105D90004046394617F082FF02460B4638A1D1E94A
:105DA000000117F079FF02460B462046294617F0FE
:105DB00073FF0B46024632A1D1E9000117F06CFFD8
:105DC00004460B46BAF1000F3FF7EEAE03F1004375
:105DD000EAE6DDE90223DDE9000118F03BFA32468C
:105DE0003B4618F00DF932463B4617F057FF024686
:105DF0000B4617F053FF0CA3D3E9002317F04CFF19
:105E00000B46024606A1D1E9000117F045FF044602
:105E10000B46D7E7AFF300809C7500883CE4377EE3
:105E2000182D4454FB21F93F075C143326A6913CFE
:105E300009F7FD0DE13D023F88B20175E0EF493FF2
:105E40003B8F68B52882A43F5544880E55C1C93F91
:105E50007D6FEB0312D6D43F555555555555C53F6B
:105E600082922EB1C5B8B33F59018D1B6C06E63F37
:105E7000C88A599CE52A00404B2D8A1C273A0340CA
:105E8000182D4454FB21E93FFFFFEF3FFFFFDF3FA9
:105E90000000F03F0000E03F3233EF3F02460B4688
:105EA00018F0AEF838A3D3E9002306460F4618F0E1
:105EB000A7F837A3D3E9002317F0F0FE32463B469C
:105EC00018F09EF834A3D3E9002317F0E5FE32461C
:105ED0003B4618F095F832A3D3E9002317F0DEFE15
:105EE00032463B4618F08CF82FA3D3E9002317F075
:105EF000D3FE32463B4618F083F82DA3D3E90023A6
:105F000017F0CCFE32463B4618F07AF82AA3D3E9C4
:105F10000023804689463046394618F071F828A398
:105F2000D3E9002317F0B8FE32463B4618F068F874
:105F300025A3D3E9002317F0B1FE32463B4618F003
:105F40005FF823A3D3E9002317F0A6FE32463B46B1
:105F500018F056F80022204B17F0A0FE02460B4620
:105F60004046494618F076F922462B4618F048F884
:105F700022462B4617F092FE04460B462046194651
:105F800004B0BDE8F08700BF09F7FD0DE13D023F19
:105F900088B20175E0EF493F3B8F68B52882A43F86
:105FA0005544880E55C1C93F7D6FEB0312D6D43FCF
:105FB000555555555555C53F82922EB1C5B8B33F7D
:105FC00059018D1B6C06E63FC88A599CE52A0040A2
:105FD0004B2D8A1C273A03400000F03F00000000D0
:105FE0002DE9F84F5442144323F00049704E49EA1A
:105FF000D474B44286460F4640D84442044321F04C
:10600000004B4BEAD474B4428A4637D803F140447B
:1060100004F5801414434AD09C1704F0020444EAA7
:10602000D17450EA0B0131D052EA090137D0B145A1
:1060300052D0B34533D0ABEB09094FEA2959B9F136
:106040003C0F3BDC002B66DB7046394618F002F94A
:1060500018F050FDFEF7C8FC012C58D0022C48D097
:10606000002C5ED040A3D3E9002317F015FE40A317
:10607000D3E9002317F010FEBDE8F88F104619464B
:1060800072463B4617F00AFEBDE8F88F022C19D085
:10609000032C10D138A1D1E90001BDE8F88FBAF185
:1060A000000F14DB36A1D1E90001BDE8F88FBDE88F
:1060B000F84FFEF799BC3946BDE8F88F30A1D1E919
:1060C0000001C9E72AA1D1E90001BDE8F88F2EA19E
:1060D000D1E90001BDE8F88FCB4524D0022CF1D0E6
:1060E000032CD7D0012C4FF0000027D00021BDE8B1
:1060F000F88F1DA3D3E9002317F0CEFD02460B460F
:106100001BA1D1E9000117F0C7FDBDE8F88F01F12F
:106110000041BDE8F88F19F13C0F95DA002000210D
:106120009AE7BDE8F88F022C16D0032C0FD0012C73
:1061300008D017A1D1E90001BDE8F88F4FF0004168
:10614000BDE8F88F14A1D1E90001BDE8F88F14A1D2
:10615000D1E90001BDE8F88F13A1D1E90001BDE844
:10616000F88F00BFAFF30080075C143326A6A13C74
:10617000182D4454FB210940182D4454FB2109C01B
:10618000182D4454FB21F93F182D4454FB21F9BF2D
:10619000182D4454FB21E93F182D4454FB21E9BF3D
:1061A000D221337F7CD902C0D221337F7CD90240F7
:1061B0000000F07F0000000043422DE9F047034358
:1061C00021F00048424A48EAD373934206460F46FC
:1061D00016D890454BD03F4B98458A461EDC3AA3D3
:1061E000D3E90023044617F059FD0022002318F0DC
:1061F00097F9002845D03B4620461946BDE8F08770
:1062000002460B4617F048FD0B46024618F022F8EE
:1062100004460B4620461946BDE8F0872E4B9845AC
:10622000044645462FDD02464346414617F036FDFB
:10623000224606460F4643460020254917F02CFD0E
:1062400002460B463046394618F004F8FEF78CFE3D
:10625000224B002217F0D4FEBAF1000F04460B4681
:10626000D8DA01F1004320461946BDE8F087002244
:10627000002317F0EFFF04460B4620461946BDE801
:10628000F0873446454622462B462046294617F0DD
:1062900005FD22462B4606460F4617F0B1FE224664
:1062A000804689462B460020094917F0F5FC024636
:1062B0000B464046494617F0CDFF32463B4617F0A5
:1062C000EDFCC3E7AFF300809C7500883CE4377EAB
:1062D0000000F03FFFFF2F3EFFFFDF3F0000E03FE9
:1062E0004F4A2DE9F84321F0004494420B460546FD
:1062F0001BDC4C4A944222DD4B4A944263DD4B4AFC
:1063000094427BDD4A4A944246DD0132944240D0B9
:1063100041A3D3E900231046194617F071FE064643
:106320000F4630463946BDE8F88302460B4617F063
:1063300067FE06460F4630463946BDE8F88318F03A
:10634000D9FB02F0A9FC00223A4B8046894617F09F
:10635000A5FCB4F1725F06460F46ECDB42464B46A5
:106360004046494617F04CFE32463B4604460D4631
:106370003046394617F092FC02460B462046294625
:1063800017F068FF00222B4B17F088FC06460F46DB
:10639000D1E7294A9042BBD82846194618F0AAFBF3
:1063A0000022264B17F02CFE00F04AF8002204468B
:1063B0000D46224B17F024FE22462B4617F020FEF6
:1063C00006460F46B7E718F095FB00F039F80022B3
:1063D0001A4B06460F4617F013FE32463B4604465C
:1063E0000D460020154917F035FF02460B462046A2
:1063F000294617F053FC06460F469CE718F07AFB37
:1064000000F01EF800220D4B17F0FAFD06460F466D
:1064100091E700BFAFF300809C7500883CE4377EB5
:10642000FFFFEF7F422ED63FFFFF3540412E8640D3
:10643000CD3386400000F03F7DF8B98F0000E03F8B
:106440002DE9F04FB04F21F00042BA4283B00C4624
:106450004FEAD17605460DD9AC4FBA4225D9C1F3E2
:106460001303034340F0EF800EB10020014603B058
:10647000BDE8F08FA64B9A4200F2CC80A54B9A4221
:1064800000F2DE808AA3D3E9002317F007FC002284
:10649000A14B18F045F8002800F005812846214658
:1064A00000229D4B17F0FAFBE1E783A3D3E9002319
:1064B00018F036F8002840F0CB802846214680A30B
:1064C000D3E9002318F00EF80028CED1934B2846CC
:1064D00003EBC60621467CA3D3E9002317F090FD09
:1064E000D6E9002317F0DAFB18F03AF8804617F0E7
:1064F00021FD77A3D3E9002306460F4617F080FD60
:1065000002460B462846214617F0C6FB72A3D3E984
:106510000023CDE900013046394617F071FD82466F
:106520008B4652465B46DDE9000117F0B5FB054698
:106530000C462A4623462846214617F061FD68A3EB
:10654000D3E9002306460F4617F05AFD66A3D3E9A8
:10655000002317F0A1FB32463B4617F051FD64A320
:10656000D3E9002317F09AFB32463B4617F048FD6B
:1065700061A3D3E9002317F08FFB32463B4617F0A7
:106580003FFD5FA3D3E9002317F088FB32463B466B
:1065900017F036FD02460B462846214617F07CFBD5
:1065A00006460F462846214632463B46B8F1000FC4
:1065B00056D017F025FD324604460D463B460020D6
:1065C0004FF0804117F068FB02460B4620462946F3
:1065D00017F040FE02460B465046594617F05CFB4A
:1065E000DDE9002317F058FB0B4602464A4900201C
:1065F00017F052FB6FF47F7398454FDA08F57A78FD
:1066000001EB085100224FF0B87317F0F9FC03B00A
:10661000BDE8F08F424B9A423FF658AF414BF40031
:106620002344D3E9002317F037FB3F4BC6F10108A1
:106630002344CDE90001D3E900ABA8EB060870E7DD
:106640004FF0000875E702460B4617F027FB0EE7F0
:1066500017A3D3E900231046194617F0D1FC06E72B
:1066600017F0CEFC0022804689464FF0804330462A
:10667000394617F011FB02460B464046494617F0D3
:10668000E9FD2A46234617F007FB02460B46002089
:10669000214917F001FB03B0BDE8F08F01EB085171
:1066A00003B0BDE8F08F804643E700BFAFF3008042
:1066B0009C7500883CE4377EEF39FAFE422E864016
:1066C00051302DD5104987C0FE822B654715F73F05
:1066D0000000E0FE422EE63F763C7935EF39EA3D98
:1066E000D0A4BE726937663EF16BD2C541BDBB3ED8
:1066F0002CDE25AF6A56113F93BDBE166CC1663FB6
:106700003E5555555555C53F412E8640FFFFEF7FFD
:10671000422ED63FFFFF2F3E0000F03FA81D020093
:10672000B1A2F03FB81D0200C81D02000000000029
:106730002DE9F04FB1F5801F85B006460F460B4698
:106740005ADA024621F00044224300F0F880002982
:10675000C0F27A810022D64B17F052FCD54A0B4684
:10676000934206460F466FF0350C4ADCC3F313051F
:1067700005F5152E0EF6647E0EF4801E8EF07F5207
:1067800082F440121C1542EA0507A4F2FF34644467
:106790000022C94B3046394604EB1E5417F07CFAF0
:1067A000AB1CC3F31303022B82468B464FF000024F
:1067B00030DC002317F08CFE002800F0C980002C8C
:1067C00000F04B81204617F0B5FBA5A3D3E90023C9
:1067D00006460F4617F014FCA3A3D3E90023044692
:1067E0000D463046394617F00BFC02460B46204654
:1067F000294617F053FA0AE0AE4A93424FF0000CD4
:10680000B4DD32463B463046394617F047FA05B00C
:10681000BDE8F08F4FF0804317F040FA02460B4678
:106820005046594617F016FD064620460F4617F00B
:1068300081FB3246CDE900013B4630463946CDE981
:10684000026717F0DDFB02460B468046894617F0CB
:10685000D7FB87A3D3E9002306460F4617F0D0FBEA
:1068600085A3D3E9002317F019FA32463B4617F007
:10687000C7FB83A3D3E9002317F010FA32463B4647
:1068800017F0BEFB80A3D3E9002317F007FA4246B6
:106890004B4617F0B5FB7EA3D3E90023804689461B
:1068A0003046394617F0ACFB7BA3D3E9002317F041
:1068B000F5F932463B4617F0A3FB79A3D3E9002351
:1068C00017F0ECF932463B4617F09AFB0B460246AE
:1068D0004946404617F0E2F9A5F5C223C5F5D7258C
:1068E000A3F27A4351351D43002D8046894656DD7B
:1068F0000022724B5046594617F082FB52465B46C7
:1069000017F07EFB06460F46002C68D132463B4608
:106910004046494617F0C2F9DDE9022317F070FB43
:1069200002460B463046394617F0B6F902460B468A
:106930005046594617F0B0F905B0BDE8F08F002277
:10694000002300205E4917F085FC05B0BDE8F08FFC
:1069500055A3D3E900235046594617F051FB024690
:106960000B460020554917F097F9524606460F4648
:106970005B465046594617F043FB02460B463046ED
:10698000394617F03DFB06460F46002C40F09A8032
:1069900002460B465046594617F07EF937E7002C61
:1069A00000F0A4802EA3D3E90023DDE9000117F055
:1069B00027FB42464B4604460D465046594617F0C3
:1069C0006BF9DDE9022317F01BFB27A3D3E90023B2
:1069D00006460F46DDE9000117F012FB21E020A377
:1069E000D3E90023DDE9000117F00AFB32463B46FC
:1069F00004460D464046494617F050F9DDE90223AA
:106A000017F0FEFA18A3D3E9002380468946DDE992
:106A1000000117F0F5FA02460B464046494617F0CA
:106A20003DF902460B463046394617F035F95246D5
:106A30005B4617F031F902460B462046294617F00F
:106A40002BF905B0BDE8F08F02460B4617F024F98C
:106A50000022002317F0FEFBD9E600200021D6E635
:106A60000000E0FE422EE63F763C7935EF39EA3D04
:106A700044523EDF12F1C23FDE03CB966446C73F6D
:106A8000599322942449D23F935555555555E53F86
:106A90009FC678D0099AC33FAF788E1DC571CC3F91
:106AA00004FA97999999D93F555555555555D53F5C
:106AB00000005043FFFFEF7F0000F03F0000E03F89
:106AC000000050C3204617F035FA0FA3D3E9002386
:106AD0008046894617F094FA0DA3D3E900230446B3
:106AE0000D464046494617F08BFA9AE702460B4698
:106AF0005046594617F0D0F8DDE9022317F080FA26
:106B000014E700BFAFF300800000E0FE422EE63F36
:106B1000763C7935EF39EA3DB1F5801F2DE9F84330
:106B200004460D460B461ADA024621F0004632436F
:106B300059D000295FDB00223B4B17F061FA3B4A3A
:106B40000B4693420D4604466FF035010CDD22469C
:106B50002B462046294617F0A1F8BDE8F883334AB2
:106B600093424FF00001F2DC1815A0F2FF30084408
:106B70004FEAD0794844C3F3130817F0DBF9C9F59D
:106B80007F73033348EA035506460F4620462946DD
:106B9000FFF7CEFD1EA3D3E9002380468946304689
:106BA000394617F02DFA1CA3D3E9002304460D46FD
:106BB0004046494617F024FA02460B46204629462D
:106BC00017F06CF816A3D3E9002304460D463046AF
:106BD000394617F015FA02460B462046294617F0AB
:106BE0005DF8BDE8F883002200230020104917F06B
:106BF00031FBBDE8F88302460B4617F04DF8002242
:106C0000002317F027FBBDE8F88300BFAFF3008037
:106C1000362BF111F3FE593D0EE526157BCBDB3FFC
:106C200000609F501344D33F00005043FFFFEF7FAD
:106C3000000050C3000000002DE9F04F23F0004792
:106C400057EA020493B037D0674C21F00046A642C1
:106C500083460D4629DC9A46964625D0A74224DC79
:106C6000614CA74279D0002D89468046CDE90023AA
:106C700077DB0024BEF1000F2CD15B4B9F4200F06C
:106C80008B805A4B9F4261D0BAF1804F00F0BA839B
:106C9000574B9A451ED1002D1CDB4046494613B088
:106CA000BDE8F04F18F044BF58B106F1404606F574
:106CB000801656EA0B0306D14C49002013B0BDE8FC
:106CC000F08FB742CCDD4B4813B0BDE8F04F19F060
:106CD00075BE00244046494617F00CFFBBF1000F7B
:106CE00019D126B1414B25F040429A4213D1BAF155
:106CF000000FC0F2BC83002DE0DA06F1404606F535
:106D0000801656EA040300F08F84012CD6D101F1DD
:106D100000431946D2E7ED0F013D54EA05034ED07A
:106D2000354B9F426EDD03F104739F4240F3E883CD
:106D3000324B9E424EDDBAF1000F4EDD28A3D3E95F
:106D400000231046194617F05BF9B7E7BAF1000FB8
:106D5000C0F23C8440464946B0E7BEF1000F82D005
:106D6000A3E7274B9F4228DCA3F154739F4280DDA9
:106D70003B15A3F2FF33142B40F33E84C3F13403DD
:106D80002EFA03F202FA03F39E457FF472AF02F08B
:106D90000102C2F102046DE706F1404303F58013DE
:106DA00053EA0B0388D0154B9E4240F33283BAF16D
:106DB000000F12DBDDE9000180E702245AE74246BA
:106DC0004B464046494616F067FF02460B4617F011
:106DD00041FA73E7BAF1000FB0DB002000216DE744
:106DE0009C7500883CE4377E0000F07F0000F03F97
:106DF0000000E03FB82602000000E041FFFFEF3F47
:106E0000FFFF3F43B6F5801F4FF0000205DAD44B79
:106E100017F0F6F86FF034020E463315D14FC6F373
:106E20001306A3F2FF33134446F07F5ABE421A46BC
:106E30000D934AF4401A40F32183CB4B9E4240F31A
:106E4000FD83134601330D93C84B0022CDE9062381
:106E500000270026CDE90867CDE90E67AAF5801A5C
:106E60000027024653465146CDE90A23DDE90623B1
:106E700016F012FFDDE9062380468946DDE90A01A6
:106E800016F00CFF02460B460020B84917F0E2F955
:106E90000A460146CDE910121346494602464046CD
:106EA00017F0AEF84FEA6A0343F000538C4683466E
:106EB00003F50023CDE904BCDA468B46D91900233B
:106EC000CDE902AB0293DDE902AB002006460F4696
:106ED00002460B465046594617F092F802460B46BA
:106EE0004046494616F0D8FEDDE90623804689462D
:106EF0003046394616F0D0FE02460B46DDE90A015F
:106F000016F0CAFE52465B4617F07AF802460B4668
:106F10004046494616F0C0FEDDE9102317F070F830
:106F2000DDE90467CDE9060132463B463046394685
:106F300017F066F878A3D3E9002306460F4617F04A
:106F40005FF877A3D3E9002316F0A8FE32463B464C
:106F500017F056F874A3D3E9002316F09FFE3246CB
:106F60003B4617F04DF872A3D3E9002316F096FEC6
:106F700032463B4617F044F86FA3D3E9002316F0DE
:106F80008DFE32463B4617F03BF86DA3D3E9002354
:106F900016F084FE3246804689463B4630463946E6
:106FA00017F02EF802460B464046494617F028F8DF
:106FB000524606460F465B46DDE9040116F06EFEBA
:106FC000DDE9062317F01CF832463B4616F066FE54
:106FD0005246804689465B465046594617F010F89F
:106FE0000022634BCDE90A0116F058FE42464B469B
:106FF00016F054FE02980F46064632463B4650466F
:10700000594616F0FDFF002282468B46584B30460B
:10701000394616F041FEDDE90A2316F03DFE024630
:107020000B464046494616F037FEDDE9042316F0CC
:10703000E7FF3246804689463B46DDE9060116F009
:10704000DFFF02460B464046494616F027FE8046C3
:10705000894602460B4650465946CDE904AB16F028
:107060001DFEDDE902AB38A3D3E9002350460F46ED
:1070700016F0C6FFDDE90423CDE90201394650468A
:1070800016F00AFE02460B464046494616F004FE3C
:107090002FA3D3E9002316F0B3FF2FA3D3E90023D6
:1070A000804689465046394616F0AAFF02460B46EE
:1070B0004046494616F0F2FDDDE90E2316F0EEFDDE
:1070C00080460D98894616F035FF424606460F4623
:1070D0004B46DDE9020116F0E1FDDDE9082316F07B
:1070E000DDFD32463B4616F0D9FD32463B46504662
:1070F0008B4616F0D1FDDDE9082316F0CDFDDDE964
:10710000022316F0C9FD02460B464046494616F0DA
:10711000C3FD80462EE000BFEF4E454A287ECA3FA1
:1071200065DBC9934A86CD3F01411DA96074D13FFB
:107130004D268F515555D53FFFAB6FDBB66DDB3F0D
:10714000033333333333E33F000000E009C7EE3F3E
:10715000FD033ADC09C7EE3FF5015B14E02F3EBEAC
:10716000000040438E98030079B60B000000F03F0A
:10717000000008408946013C54EA0503DDE90001AE
:1071800014BFD94CD94C0023CDE9043403460C4636
:10719000CDE9023400230293DDE9024522462B4665
:1071A00016F07AFD52465B4616F02AFFDDE9002311
:1071B00006460F464046494616F022FF02460B4659
:1071C0003046394616F06AFD2246804689462B46EF
:1071D00050465946CDE9008916F012FF0B4602468B
:1071E00006460F464046494616F058FDC04B9942A8
:1071F00004460D468A4640F3168101F13F4303F5EC
:10720000E003034340F0EA81A3A3D3E90023DDE9CF
:10721000000116F043FD3246804689463B46204633
:10722000294616F039FD02460B464046494617F0FE
:1072300077F9002840F0D281A8464FEA28534FF44E
:107240008012A3F2FE3342FA03F35344C3F30A520B
:10725000A84DA2F2FF321541C3F3130423EA05013E
:107260000020C2F1140B44F48014BAF1000F02465E
:107270000B4644FA0BFB30463946B8BFCBF1000B46
:1072800016F00AFD02460B4606460F46DDE90001F0
:1072900016F004FD4FEA0B5A0D46002480A3D3E9F3
:1072A00000232046294616F0ABFE3246804689462A
:1072B0003B462046294616F0EFFC02460B46DDE928
:1072C000000116F0E9FC78A3D3E9002316F098FE3C
:1072D00077A3D3E9002306460F462046294616F039
:1072E0008FFE02460B463046394616F0D7FC06465E
:1072F0000F4602460B464046494616F0CFFC424632
:107300004B4604460D4616F0C7FC02460B46304677
:10731000394616F0C1FC2246804689462B46204657
:10732000294616F06DFE64A3D3E9002306460F46F6
:1073300016F066FE62A3D3E9002316F0ADFC3246D8
:107340003B4616F05DFE60A3D3E9002316F0A6FCD1
:1073500032463B4616F054FE5DA3D3E9002316F0F7
:107360009BFC32463B4616F04BFE5BA3D3E9002361
:1073700016F094FC32463B4616F042FE02460B469F
:107380002046294616F088FC06460F4602460B4664
:107390002046294616F034FE0022CDE900014FF0C8
:1073A00080433046394616F077FC02460B46DDE94D
:1073B000000116F04FFF424606460F464B46204658
:1073C000294616F01DFE42464B4616F067FC024663
:1073D0000B463046394616F05FFC22462B4616F027
:1073E0005BFC02460B4600203F4916F055FC8A44E0
:1073F000BAF5801FC0F233815146DDE9042316F04F
:10740000FFFD5BE4424640464B46494616F0F8FD18
:1074100054E4BAF1000FBFF6E0ACDDE900341846E1
:1074200004F100414AE4344B21F00048984540F310
:10743000F280324B0B4403430CD132463B4616F0EC
:107440002BFC02460B46DDE9000117F055F8002839
:107450003FF4F3AEDDE9040121A3D3E9002316F0E4
:10746000CFFD1FA3D3E9002316F0CAFD26E4024690
:107470000B4600201C4916F0EDFE3CE400220023E0
:10748000CDE90823CDE90E23174B00220027CDE9D3
:107490000623E6E4AFF30080FE822B654715973C98
:1074A00000000000432EE63FEF39FAFE422EE63F91
:1074B000396CA80C615C20BED0A4BE726937663EF0
:1074C000F16BD2C541BDBB3E2CDE25AF6A56113FE4
:1074D00093BDBE166CC1663F3E5555555555C53FCB
:1074E00059F3F8C21F6EA5010000F03F0000F0BF85
:1074F000FFFF8F40FFFF0F00FFCB904000346F3F36
:107500006B4B9E427FF766AC6A4B9E423FF713ACD3
:107510000022684B16F0C0FB57A3D3E900230646B0
:107520000F4616F06DFD56A3D3E900238046894629
:107530003046394616F064FD002282468B465E4B8B
:107540003046394616F05CFD02460B464EA1D1E9A5
:10755000000116F0A1FB32463B4616F051FD0246F3
:107560000B460020554916F097FB3246CDE9020143
:107570003B463046394616F043FD02460B46DDE9F0
:10758000020116F03DFD42A3D3E9002316F038FDB9
:1075900002460B465046594616F07EFB02460B4605
:1075A00006460F464046494616F078FB42464B4693
:1075B000002082468B4616F06FFB02460B46304693
:1075C000394616F069FB80468946D4E542464B466B
:1075D0000020384916F03EFEFFF770BBDDE90401DC
:1075E0002DA3D3E9002316F00BFD2BA3D3E9002331
:1075F00016F006FDFFF762BBBEF1000F7FF469AB2A
:10760000C3F1140347FA03F202FA03F39F422AD0AC
:107610007446FFF736BB294B98453FF70EAEDDE9C0
:1076200002239246934638E602460B4616F034FB98
:1076300002460B4616F00EFEFFF740BB18A3D3E937
:107640000023CDE9082318A3D3E90023CDE90E23B5
:107650001B4B00224FF48027CDE9062301E45A4654
:1076600001F05AFDC9E602F00102C2F10204FFF77F
:1076700008BB00BFAFF30080000000604715F73F74
:1076800044DF5DF80BAE543E555555555555D53F25
:10769000FE822B654715F73F9C7500883CE4377EDA
:1076A0000000004003B8E23F06D0CF43EBFD4C3E64
:1076B000FEFFEF3F0000F03F0000D03F0000E03F42
:1076C0000000F83F000000002DE9F04F9A4E21F035
:1076D0000047B74291B040F38E809246974A974256
:1076E0000C4626DC00298AA3D3E9002340F3B481A9
:1076F00016F0D2FA924B9F4204460D4600F090805D
:1077000085A3D3E9002316F0C7FA02460B46CAE95F
:1077100000232046294616F0BFFA7FA3D3E90023B1
:1077200016F0BAFA0125CAE90201284611B0BDE8EF
:10773000F08F844A974240F39080834A974265DCF9
:107740003D15A5F21645A7EB055319461F460646FB
:1077500016F006FF16F0EEFB8046894602460B4601
:1077600030463946CDE90A8916F096FA0022774B61
:1077700016F046FC8946804616F0F2FE16F0DAFB5B
:1077800002460B4606460F4640464946CDE90C6781
:1077900016F082FA00226D4B16F032FC0022002314
:1077A000CDE90E0116F094FE002800F0738100234D
:1077B00030463946002216F08BFE002814BF012304
:1077C0000223634A019202212A4600910AA85146E7
:1077D00000F086FB002C054614DADAF80420DAF80B
:1077E0000C3002F1004203F100434542CAF8042084
:1077F000CAF80C3006E0C2E9000100250024C2E905
:1078000002450025284611B0BDE8F08F02460B4620
:1078100016F042FA0025CAE90201CAE90001F1E7BF
:107820003FA3D3E9002316F037FA3FA3D3E900239F
:107830000D46044616F030FA02460B46CAE900230C
:107840002946204616F028FA37A3D3E9002316F07C
:1078500023FA0125CAE90201D4E717F04BF934A352
:10786000D3E900238046894616F0CAFB0022394B33
:1078700016F014FA16F074FE054616F05BFB24A30E
:10788000D3E90023CDE9040116F0BAFB02460B460A
:107890004046494616F000FA1FA3D3E9002380466C
:1078A0008946DDE9040116F0ABFB1F2DCDE902018D
:1078B00054DC294B6A1E53F822309F424ED00246B8
:1078C0000B464046494616F0E7F902460B46CAE920
:1078D000002383460E465A4633464046494616F034
:1078E000DBF9DDE9022316F0D7F9002C02460B463E
:1078F000CAE9022386DA5B4606F1004601F100413F
:107900008AE84800CAF80C10CAF808006D4279E706
:1079100000004054FB21F93F3163621A61B4D03D4D
:107920000000601A61B4D03D7370032E8A19A33B26
:1079300083C8C96D305FE43FFB21E93F7BD902403A
:10794000FB21F93FFB213941FFFFEF7F0000704130
:10795000143602000000E03F94350200DDE9022306
:107960004046494616F098F93A15C1F30A53D31A1E
:10797000102B83460E460992CAE90001ABDD58A3DD
:10798000D3E90023DDE9040116F03AFB06460F4671
:1079900002460B464046494616F07EF9CDE90601FF
:1079A00002460B464046494616F076F932463B46BB
:1079B00016F072F94CA3D3E9002306460F46DDE921
:1079C000040116F01DFB32463B4616F065F9DDE971
:1079D0000689CDE9020102460B464046494616F0AB
:1079E0005BF90B46C1F30A570E460999CF1B0246B5
:1079F000312F8346CAE900236CDD3DA3D3E9002380
:107A0000DDE9040116F0FCFA06460F4602460B4675
:107A100040464946CDE9068916F03EF902460B4636
:107A200080468946DDE9060116F036F932463B46C6
:107A300016F032F930A3D3E9002306460F46DDE9FC
:107A4000040116F0DDFA32463B4616F025F90246EF
:107A50000B46CDE9022334E716F020F92A4B9F426A
:107A600004460D4618D026A3D3E9002316F016F9D4
:107A700002460B46CAE900232946204616F00CF9B7
:107A80001FA3D3E9002316F009F94FF0FF35CAE927
:107A90000201B7E6032394E611A3D3E9002316F00D
:107AA000FDF811A3D3E900230D46044616F0F6F8BD
:107AB00002460B46CAE900232946204616F0ECF898
:107AC00009A3D3E9002316F0E9F84FF0FF35CAE91E
:107AD000020197E6DDE90689FDE600BFAFF300800D
:107AE0000000601A61B4D03D7370032E8A19A33B65
:107AF0000000002E8A19A33BC14920259A837B39B7
:107B00003163621A61B4D03DFB21F93F00000000EF
:107B1000574A2DE9F84F21F0004890450E46074698
:107B20002BDC544B0029B4BF534D544D98454FF0B6
:107B3000000410DC524B98456EDC4BA3D3E90023C4
:107B400016F0ACF800224F4B16F0EAFCD8B13846DC
:107B50003146BDE8F88F4C4B984579DD4B4B984545
:107B600043DD013398453DD0384631463EA3D3E945
:107B7000002316F045FABDE8F88F02460B4616F0D2
:107B80008DF8BDE8F88F3846314616F0B3FF01F0A6
:107B900083F806460F4632463B463046394616F0D5
:107BA0007DF8324682468B463B463046394616F0D3
:107BB00027FA002280468946324B3046394616F075
:107BC0006DF802460B464046494616F043FB024616
:107BD0000B465046594616F05FF822462B4616F0E3
:107BE0000FFACEE72A4B9842BED83846314616F0F7
:107BF00081FF0022214B16F003FAFEF721FC064616
:107C00000F4602460B462046294616F0F9F9324641
:107C10003B4616F0F5F9B4E716F06CFF01F03CF8BE
:107C20001C4B984506460F46B5DD0022154B16F055
:107C300035F802460B463046394616F00BFB324605
:107C40003B4616F02BF822462B4616F0D9F998E75A
:107C500016F050FFFEF7F4FB02460B46204629467D
:107C600016F0CEF98DE700BF3374AC3C1F7BAC7FC0
:107C7000FFFFEF7FFFFF35400000E0BF0000E03F67
:107C8000FFFF2F3E0000F03F412E8640CD3386405F
:107C90007DF8B98FFFFFEF3F2DE9F04F21F000464F
:107CA000B6F1795F85B00C4692469B4605466BDA85
:107CB00016F056FC002800F0E8802A4623462846A5
:107CC000214616F09DF974A3D3E900238046894626
:107CD00016F096F972A3D3E9002315F0DFFF4246B0
:107CE0004B4616F08DF970A3D3E9002315F0D4FFAD
:107CF00042464B4616F084F96DA3D3E9002315F0F4
:107D0000CDFF42464B4616F07BF96BA3D3E9002327
:107D100015F0C2FF42464B4616F072F968A3D3E94C
:107D2000002315F0BBFF42464B4616F069F9CDE93A
:107D300000010022644B4046494616F061F9DDE936
:107D4000002306460F464046494616F059F952466A
:107D5000804689465B462846214616F051F9024680
:107D60000B464046494615F097FF02460B46304603
:107D7000394615F091FF02460B460020534915F095
:107D80008BFF05B0BDE8F08F02460B4616F038F9C0
:107D900041A3D3E900238046894616F031F940A378
:107DA000D3E9002315F07AFF42464B4616F028F936
:107DB0003DA3D3E9002315F06FFF42464B4616F072
:107DC0001FF93BA3D3E9002315F068FF42464B4659
:107DD00016F016F938A3D3E9002315F05DFF4246EB
:107DE0004B4616F00DF936A3D3E9002315F056FFE4
:107DF0004B46424616F004F9354B9E42CDE9000150
:107E000097DD344B9E424FF0000238DCA6F500139C
:107E100000202E4916461F4615F03EFFCDE902010F
:107E20000022294B4046494616F0EAF832463B46C6
:107E300015F032FFDDE9002306460F46404649466D
:107E400016F0DEF85246804689465B4628462146B3
:107E500016F0D6F802460B464046494615F01CFF80
:107E600002460B463046394615F016FF02460B46D1
:107E7000DDE9020115F010FF05B0BDE8F08F164BEB
:107E8000164FCDE902230026CAE71049002005B0AD
:107E9000BDE8F08FAFF30080D43888BEE9FAA8BD02
:107EA000C4B1B4BD9EEE213EAD529C804F7E923E49
:107EB0009015CB19A001FA3E7751C1166CC1563FFF
:107EC0004C5555555555A53F0000E03F0000F03F8B
:107ED0003233D33F0000E93F0000E73F0000D23FCC
:107EE0002DE9F04FADF5197D9C4CA29E9C4D54F8A8
:107EF000264005942646D41E85FB0475E417C4EB82
:107F0000A50424EAE4741D460893631CA3EB8303D1
:107F1000013D02EBC30304932B4609940295651BB4
:107F2000F418039006911AD42C4401340DF178080A
:107F300000260027DDF88C9208E059F8250015F09E
:107F4000F9FF0135A542E8E9020108D0002DF4DA75
:107F5000013530463946A542E8E90201F6D1059BD4
:107F6000002B2EDB089B4FEAC309039BA9F10808ED
:107F7000984420AB9944059B70AA02EBC30B0DF506
:107F8000DC7A029B002BC0F20F83039B4D46A3F1CA
:107F900008040026002775E90223F4E9020116F01F
:107FA0002FF802460B463046394615F077FE444519
:107FB00006460F46EFD1EAE90267DA4509F10809FA
:107FC000DFD10598089A009000F18043013B9B00A7
:107FD0000CAC191F234402F100520B93039B013A8E
:107FE00021440A9103EBC20B009A98A901EBC2034A
:107FF000002A53E9284513462BDD01EBC308A8F1FD
:10800000A8080DF12C090DF5DC7A0022554B20460D
:10801000294615F0F5FF16F0A3FA15F08BFF0022A4
:10802000514B06460F4615F0EBFF02460B46204625
:10803000294615F031FE16F093FA78E8022349F844
:10804000040F3946304615F029FED04504460D464A
:10805000DBD1DDF81090204629464A4601F05CF855
:1080600000224FF07F5304460D4615F0C9FFFCF780
:10807000EFFE00223D4B15F0C3FF02460B462046A3
:10808000294615F009FE0D46044616F069FA8046A9
:1080900015F050FF0B4602462946204615F0FCFD20
:1080A0004B46002B06460F4640F3F780009A0CA97A
:1080B000013AC9F1180351F8225045FA03F101FAC7
:1080C00003F30CA8EB1A40F82230C9F117058844D5
:1080D00043FA05F5002D63DD009B002B08F1010834
:1080E00040F381820C9C002C00F0188301200023B7
:1080F0000CAAC4F1807442F82340009A824219DD30
:108100000CAA0CAC52F820106FF07F42511A44F8C0
:1081100020100099023399420CDD1046009A0CA9F8
:1081200001EB830301EB82011A68821A43F8042BE6
:108130008B42F9D1049B002B1ADD049B012B4FF0DD
:10814000010440F05882009B5A1E0CAB0CA953F856
:108150002230C3F3160341F8223058E2B43A020049
:10816000ABAAAA2A0000703E000070410000204027
:10817000022D15D132463B460020974915F08CFD63
:1081800006460F46049A9449002000F0C5FF0246B7
:108190000B463046394615F07FFD022506460F4650
:1081A000002200233046394616F092F9002800F0EC
:1081B0005282009A059B501E83420FDC02F18043DD
:1081C000013B0CAA0B9C02EB8303002253F8041919
:1081D000A34242EA0102F9D1002A6FD1059B0CAA01
:1081E000013B52F82330002B40F033820A9A0123DE
:1081F00052F8041901330029FAD0009AD31802F179
:10820000010A9A4507933DDC009B0899099A0B44A3
:1082100007990AEB0208994620AB08F1804803EB66
:10822000C9098B18A39A08F1FF3802EB880870AAD5
:1082300002EBCA0AA39A02EB8303009358F8040FD7
:1082400015F078FE029B002BE9E802011DDB039B81
:108250004D46A3F108040026002775E90223F4E93E
:10826000020115F0CDFE02460B463046394615F0A8
:1082700015FD5C4506460F46EFD1009B9845EAE8A0
:108280000267DBD1079B0093AEE6009B0026002728
:108290009845EAE80267D1D1F4E706D1009B0CAA21
:1082A000013B52F82350ED1514E700224B4B16F01A
:1082B0002DF9002840F08281054671E70CA902954E
:1082C00051F820300499CDF81C80183902460090EE
:1082D00004916BB900F18043013B0CA800EB8303D0
:1082E00053F80409013A18390028F9D00092049192
:1082F000049A3949002000F00FFF009B002B044630
:108300000D46C0F20382DA0070A901EB020B049261
:108310000CAA02EB8306DFF8C8900BF108070436BD
:108320004FF0000856F8040D15F004FE22462B46C7
:1083300015F066FE4B4667E9020142462046294693
:1083400015F05EFE0CAB9E4204460D46EAD10DF5DB
:10835000907ACDF80CA0DDF814A04FF00009BAF126
:10836000000FC0F23D81DFF87C805D4618A1D1E9A5
:10837000000100260027002403E04C4510DCF8E84B
:108380000201F5E8022315F03BFE02460B4630469B
:10839000394615F083FC0134A24506460F46ECDA57
:1083A000039B03EBC903ABF1080BC3E900676EAB9A
:1083B0005B4509F10109D2D1A29BDDF80CA0032B8A
:1083C00000F28B80DFE813F0D100900090001000E5
:1083D00000000040FB21F93F0000F03F0000E03FBB
:1083E0000000703EF01D0200009B002B40F3A481B2
:1083F000049B0AEB0308D8E90067D34658E9029AC0
:1084000032463B464846514615F048FC04460D4668
:1084100002460B464846514615F03EFC32463B4666
:1084200015F03CFCC8E9000168E90245C345264651
:108430002F46E3D1009B012BDA4640F37D81049B5C
:108440005B44D3E90067984699460DF5947B59E95A
:1084500002343246184621463B46CDE9000115F06C
:108460001DFC04460D4602460B46DDE9000115F0F1
:1084700013FC32463B4615F011FCC9E9000169E9DD
:108480000245CB4526462F46E1D1002308F10808D6
:108490001D464CAC1846294678E9022315F0FEFB30
:1084A000444503460D46F5D1029A002A00F020818A
:1084B000DAF80440DAF80C20069FDAF80010DAF84F
:1084C00008003B6105F1004504F1004402F100425F
:1084D0007D617C60FA603960B860079B03F007003B
:1084E0000DF5197DBDE8F08F049C00260834544436
:1084F00033463046194674E9022315F0CFFB544544
:1085000006460B46F5D1029A30461946002A00F07D
:10851000DA80069803F10044324644600660DAE9E6
:10852000000115F0B9FB0B460099002902460EDD4B
:10853000012410461946FAE9022315F0AFFB0B4659
:1085400000990134A1420246F3DA029909B103F11C
:1085500000431946069B1046C3E90201079B03F03E
:1085600007000DF5197DBDE8F08F049C002208344A
:10857000544413461046194674E9022315F08EFB45
:10858000A24502460B46F5D1029909B103F1004319
:108590001946069B1046C3E90001079B03F007003C
:1085A0000DF5197DBDE8F08F00260027EAE9026786
:1085B000DA4509F108097FF4E4AC02E5009B002BE1
:1085C00008F10108C8BF02253FF78CAD32463B4693
:1085D0000020634915F060FB022506460F46DFE5E3
:1085E00000260027DCE6049B002B26DD0024049BEC
:1085F000012B3FF4A8AD022B09D1009B5A1E0CABF6
:108600000CA953F82230C3F3150341F82230022D90
:108610007FF4C6AD32463B460020514915F03CFB85
:1086200006460F46002C3FF4BBADABE50099013385
:10863000994278D1049B002BD9DC022D7FF4B0AD98
:1086400032463B460020464915F026FB06460F46BB
:10865000A6E50123D1E53946049F02957A423046CA
:10866000CDF81C8000F058FD00223E4B04460D461C
:1086700015F04CFF002862D000223B4B20462946D3
:1086800015F0BEFC15F06CFF064615F053FC0022F9
:10869000344B15F0B5FC02460B462046294615F032
:1086A000FBFA15F05DFF00990B4601331A46009363
:1086B0003B46183304930B460CA941F8230013469C
:1086C00041F8236014E6069B3246C3E900010B46DD
:1086D000DAE9000115F0E0FA0B460099002902469C
:1086E0003FF726AF1946069B1046C3E9020135E75E
:1086F00018462946DAE90023DAE90245069FC7E968
:108700000401C7E90023C7E90245E6E6A29B032B63
:108710003FF6E3AEDFE803F0211C1C0E009B012BAB
:1087200088DD0CAA012352F8044F002C3FF47EAFE1
:10873000581CDDE40DF5907A00231D46B4E6294669
:10874000204615F00DFF009A0CA941F82200CFE554
:10875000002633460DF5907AD5E60022134613E73E
:108760000000F03F000070410000703E000000007B
:108770002DE9F04F21F00046B6F1795F85B00C4647
:1087800090469946054604DA15F0EAFE002800F006
:1087900085802A4623462846214615F031FC0646A8
:1087A0000F4602460B462846214615F029FC3EA3FB
:1087B000D3E9002382468B463046394615F020FC2B
:1087C0003BA3D3E9002315F067FA32463B4615F088
:1087D00017FC39A3D3E9002315F060FA32463B4673
:1087E00015F00EFC36A3D3E9002315F055FA3246F6
:1087F0003B4615F005FC34A3D3E9002315F04EFAEF
:108800000E9BCDE900019BB30022334B4046494605
:1088100015F0F6FBDDE90023CDE90201504659468B
:1088200015F0EEFB02460B46DDE9020115F034FAC5
:1088300032463B4615F0E4FB42464B4615F02CFA17
:1088400023A3D3E9002306460F465046594615F0A8
:10885000D7FB02460B463046394615F01FFA024652
:108860000B462846214615F017FA05B0BDE8F08FF3
:1088700002460B463046394615F0C2FB14A3D3E935
:10888000002315F009FA52465B4615F0B9FB2A465B
:10889000234615F003FA05B0BDE8F08F28462146BF
:1088A00005B0BDE8F08F00BF7CD5CF5A3AD9E53D81
:1088B000EB9C2B8AE6E55A3E7DFEB157E31DC73E91
:1088C000D561C119A0012A3FA6F810111111813FED
:1088D000495555555555C53F0000E03F0000000083
:1088E0002DE9F04FDA4C21F00046A64287B08A46C7
:1088F00089461746984683461ADC15F031FEA8BB18
:108900005B461E43109B0133334300F0A981109B4B
:10891000012B00F0B9815A4653460020CD4915F08D
:1089200099FC04460D462046294607B0BDE8F08F65
:10893000C94B9E421ADD0029C0F29F815A46534618
:10894000A5A1D1E9000115F0A7F93A46434604462E
:108950000D46A3A1D1E9000115F09EF922462B4650
:1089600015F09CF9002783468A46B8465A46534676
:108970005846514615F044FB03460C46CDE90034F9
:1089800002460B4615F03CFBDDE9002304460D468C
:108990005846514615F034FB93A3D3E90023CDE9A3
:1089A00002012046294615F02BFB91A3D3E90023B1
:1089B00015F074F922462B4615F022FB8EA3D3E95D
:1089C000002315F06BF922462B4615F019FB8CA3FA
:1089D000D3E9002315F062F922462B4615F010FB6F
:1089E00089A3D3E9002315F059F922462B4615F047
:1089F00007FB87A3D3E9002315F050F9DDE9002335
:108A000015F0FEFA84A3D3E90023CDE90401204642
:108A1000294615F0F5FA82A3D3E9002315F03EF9B3
:108A200022462B4615F0ECFA7FA3D3E9002315F07C
:108A300035F922462B4615F0E3FA7DA3D3E900234E
:108A400015F02CF922462B4615F0DAFA7AA3D3E971
:108A5000002315F023F922462B4615F0D1FA78A30E
:108A6000D3E9002315F01AF902460B46DDE90401AB
:108A700015F014F9DDE9022315F0C2FA3A4643462F
:108A800015F00CF9DDE9002315F0BAFA02460B46A1
:108A90003846414615F002F96BA3D3E9002304469A
:108AA0000D46DDE9020115F0ABFA22462B4615F022
:108AB000F5F80B46024651465846CDE9002315F01D
:108AC000EDF8654B9E4204460D463EDC109B012BA3
:108AD00036D002460B4600205E4915F0BBFB002451
:108AE0000F4606465A4653462046294615F0D4F806
:108AF000A04602460B46DDE9000115F0CDF84246DE
:108B00003B4615F07DFAA94604460D4642463B46D3
:108B10004046494615F074FA0022504B15F0BEF855
:108B200002460B462046294615F0B8F832463B4629
:108B300015F066FA42463B4615F0B0F804460D467D
:108B40002046294607B0BDE8F08F109815F0F2F9DD
:108B5000224606460F462B462046294615F050FA77
:108B60003246CDE902013B462046294615F096F8EB
:108B700002460B46DDE9020115F06CFBDDE900233E
:108B800015F08AF802460B465846514615F084F80F
:108B900002460B4615F082F802460B46304639462F
:108BA00015F07AF804464FEAA97000F00200C0F10F
:108BB00001000D4615F0BEF902460B462046294637
:108BC00015F01EFA04460D462046294607B0BDE8BA
:108BD000F08F00BFAFF30080182D4454FB21E93F14
:108BE000075C143326A6813CD47ABF74702AFB3EFE
:108BF000E9A7F0320FB8123F68108D1AF726303F00
:108C00001583E0FEC8DB573F93846EE9E326823F7D
:108C1000FE41B31BBAA1AB3F735360DBCB75F3BE10
:108C2000A69237A0887E143F0165F2F2D844433FF4
:108C3000280356C9226D6D3F37D60684F464963FEB
:108C40007AFE10111111C13F635555555555D53F49
:108C5000FFFF2F3E0000F0BF2794E53F0000F03FEC
:108C60005846514615F046FF02460B46002008497B
:108C700015F0F0FA04460D4662E701F1004308F1F1
:108C8000004883469A4659E65C46554658E700BF79
:108C90000000F03F000000002DE9F04FD24A21F023
:108CA0000043934285B00C460E4605462DD9CF4A67
:108CB00093421AD8002E80F21681B5A3D3E900237F
:108CC0002846214614F0EAFF0022002315F00AFC92
:108CD000C0B9B1A3D3E900232846214615F090F985
:108CE00002460B460020C24908E1C24A934240F2C4
:108CF000D0800346C1F31302134340F0F6810029EC
:108D000080F2C4800020BC49C0E0BC4A934200F21B
:108D10002981BB4A934240F2DE8000230193002266
:108D2000B84B2846214615F06BF906460F46024619
:108D30000B462846214615F063F999A3D3E9002391
:108D400082468B4615F05CF997A3D3E9002314F013
:108D5000A5FF52465B4615F053F995A3D3E90023CE
:108D600014F09AFF52465B4615F04AF992A3D3E9F4
:108D7000002314F093FF52465B4615F041F990A38F
:108D8000D3E9002314F088FF52465B4615F038F90A
:108D900000229D4B14F082FF8046894602460B4616
:108DA0003046394615F02CF902460B46002097490B
:108DB00014F072FF064602460B460F4640464946EF
:108DC00014F06AFF3246804689463B4628462146D3
:108DD00015F016F902460B4600208D4914F05CFF91
:108DE00002460B464046494615F034FA52465B4669
:108DF00015F006F9019E02460B46002E38D0DDE93B
:108E0000026732463B4614F047FF2A46234615F0D8
:108E1000F7F832463B4614F03FFF5B46524614F0EB
:108E20003BFF019B013306460F4600F00F81019B7B
:108E3000012B00F0F180019B0133392B39D8019BC4
:108E4000132B40F31281019FC7F57F760336002272
:108E5000330514F023FF02460B462846214614F042
:108E60001BFF0022684B14F019FF01EB07510DE0C6
:108E70002846214615F0C4F852465B4614F00CFF14
:108E800002460B462846214614F006FF05B0BDE811
:108E9000F08F4DA3D3E9002315F042FB00283FF4E7
:108EA00009AF4BA3D3E900231046194615F0A8F8E3
:108EB000ECE72A46234614F0EFFE02460B4600205C
:108EC000514914F0E9FE019A4F4B01EB0251002287
:108ED00014F0E2FEDAE73EA3D3E9002314F0DEFE4D
:108EE00002460B46CAE72CA3D3E9002328462146B5
:108EF00015F086F80B4643490246002014F0CEFEDA
:108F000015F02EFB019015F015F833A3D3E90023DB
:108F100006460F4615F074F802460B4628462146D1
:108F200014F0BAFE2EA3D3E90023804689463046CA
:108F3000394615F065F806460F4632463B46404630
:108F4000494614F0A9FE02460B4605460C4640462B
:108F5000494614F0A1FE32463B4614F09DFECDE991
:108F60000201DCE62B4A934200F2978000291AA303
:108F7000D3E90023C0F2AE8014F08EFE01238046B8
:108F80008946019316A7D7E90067D6E7AFF30080BB
:108F900059F3F8C21F6EA501FE822B654715F73FF6
:108FA0002DC3096EB7FD8ABE3952E686CACFD03EC0
:108FB000B7DBAA9E19CE143F8555FE19A0015A3F72
:108FC000F41011111111A13FEF39FAFE422E864023
:108FD0009C7500883CE4377E0000E0FE422EE63FB0
:108FE000763C7935EF39EA3D79684340412E864039
:108FF0000000E0BFFFFFEF7F0000F0BF422ED63F32
:10900000FFFF8F3C0000E03F0000F03F0000084001
:1090100000001840B1A2F03F2846214600223A4BFA
:1090200015F060FA002846D0284621460022374B2A
:1090300014F034FE02460B463046394614F02CFE3E
:1090400000224FF0404314F0DBFF1FE732463B465F
:109050002846214614F020FE00222C4B14F0D0FFAD
:1090600000222A4B14F018FE10E7019E4FF4001E58
:109070004EFA06FE2A462346CEF17F5714F00CFE28
:10908000002607F5401702460B463046394614F0D5
:1090900003FE019E01EB0651F8E617A3D3E9002376
:1090A00014F0AEFF002C02460B464FF00000FFF616
:1090B0001AAE164922E732463B462846214614F0AE
:1090C000EBFD02460B4614F0E9FD0022104B14F0B4
:1090D000E5FDDBE614F0E2FD4FF0FF338046894604
:1090E000019307A7D7E9006727E702460B4614F06C
:1090F000D5FDCBE6AFF30080FE822B654715F73F29
:10910000763C7935EF39EABD0000D0BF0000E03F82
:109110000000F03F00000000F8B5C1F30A56044615
:109120000D460B4617460EBB21F00043034386460F
:1091300025D00022344B14F063FF344A9742044692
:109140000D460B462ADBC1F30A56363E3E4440F23A
:10915000FE72964228DC002E12DD23F0FF4323F43A
:10916000E00343EA065520462946F8BD40F2FF7267
:109170009642EBD102460B4614F090FDF8BDF8BDC7
:1091800016F1350F1DDA4CF250339F4222462B4622
:1091900025DC19A1D1E9000117F042FD16A3D3E99E
:1091A000002314F02DFFF8BD22462B4614A1D1E96F
:1091B000000117F035FD12A3D3E9002314F020FFBE
:1091C000F8BD23F0FF4323F4E003363643EA0655A7
:1091D0002046294600220E4B14F012FFF8BD08A1CC
:1091E000D1E9000117F01CFD05A3D3E9002314F019
:1091F00007FFF8BDAFF3008059F3F8C21F6EA50159
:109200009C7500883CE4377E00005043B03CFFFF73
:109210000000903C10B5054C237833B9044B13B1D2
:109220000448AFF300800123237010BD30020020FA
:1092300000000000403C02000C4B43B10C480D49BB
:1092400010B5AFF300800C48036823B910BD0A487D
:10925000036833B97047094B002BF7D0BDE81040C5
:109260001847064B002BF5D0184700BF0000000040
:10927000403C020034020020403C0200000000009C
:1092800070B504460E4600F0D1F888B10368DB6A79
:1092900005469847082C0CD0A4F10903012B14D9DA
:1092A0003246214610230D20BDE8704004F09EB8E0
:1092B00070BD2B6828465B6A98470228F0DC2B6853
:1092C00028461B6A04219847EAE72B6828465B6A10
:1092D00098470528E4DC2B6828461B6A0821984734
:1092E000DEE700BF30B52DED028B83B0054600F000
:1092F0009DF8044640B10368DB6A9847032D50D8B7
:10930000DFE805F0373F47080190019803B0BDEC56
:10931000028B30BD20460CF06DFA07EE900A204615
:10932000F8EEE78A0CF076FA07EE900A2046B8EEDF
:10933000E78A0CF07FFA68EE087A07EE100AE8EE8A
:10934000A87AB8EEC77AE7EE077AF5EE407AF1EE42
:1093500010FAB1EEE78A03D517EE900A16F080FAFC
:10936000FDEEC87ACDED017A019803B0BDEC028B19
:1093700030BD204603B0BDEC028BBDE830400CF0A0
:1093800039BA204603B0BDEC028BBDE830400CF08A
:1093900041BA204603B0BDEC028BBDE830400CF072
:1093A00049BA00230193B0E738B5054600F03EF80E
:1093B00058B10368DB6A0446984745B1012D04D1D2
:1093C0002046BDE83840FBF77BB9002038BD204679
:1093D000BDE83840FBF754B910B5044600F026F854
:1093E00028B1036821461B6ABDE81040184710BD2C
:1093F0000048704716FCFFFF704700BF10B5034BD5
:10940000036004460BF0D6FF204610BD0C2E020070
:1094100010B5054B036004460BF0CCFF204618F056
:109420009BF8204610BD00BF0C2E02002DE9F04332
:10943000BA4C236885B01BB1986805B0BDE8F083CD
:109440004FF0FF31012001F0F5FC04F0C9FD0028C8
:1094500000F0E5800C2018F081F803210646512029
:1094600001F0E8FCDFF8E4E2AD4B054605F00F073C
:10947000C5F3031815F4807518BF7346A94839461B
:1094800042460BF08DF92A1C18BF0122394643468B
:1094900030460FF065FB0023A348B3600BF080F962
:1094A0004FF0FF31032001F0C5FC04F099FD4FF0AF
:1094B000FF310546022001F0BDFC04F091FD002DB6
:1094C00000F09680002800F093800146284604F0C2
:1094D00099FB0746002800F09E804FF0FF314620A0
:1094E00001F0A8FC322880462AD027DD382866D033
:1094F00068283DD14FF0FF31012001F09BFC04F0C2
:109500006FFD81464C2018F029F80523054601938C
:109510004A46CDF80080394633460EF0F1FA284627
:10952000B06003689B6A9847B0680368DB6A984735
:109530007E480BF035F92660B0687EE7302817D1F9
:109540004FF0FF31012001F075FC04F049FD814628
:109550004C2018F003F81FFA88F1054605234A4607
:1095600000910193394633460EF0ACF82846D7E710
:109570003A680125002301950095D2F82080B36058
:109580000F220DF10F0332213846C047002851D178
:109590004FF03208414666480BF002F94FF0FF31B8
:1095A000012001F047FC04F01BFD81464C2017F020
:1095B000D5FF052305464A46CDF80080D1E74FF098
:1095C000FF31012001F036FC04F00AFD8146442001
:1095D00017F0C4FF052305464A46CDF800803946FA
:1095E000019333460EF0E4F9524B2B60284697E77F
:1095F00051480BF0D5F84FF0FF31192001F01AFC5B
:1096000004F0EEFC4FF0FF310546182001F012FC8B
:1096100004F0E6FC59E749480BF0C2F88BE74FF03D
:10962000FF31032001F006FC04F0DAFC00287FF48F
:1096300011AF02E73B6801950095D3F820800F2217
:109640000DF10F0330213846C04718B94FF03008EC
:109650004146A0E73B6801950095D3F820800D2294
:109660000DF10F0338213846C047B8B938213048CA
:109670000BF096F84FF0FF31284601F0DBFB04F0C9
:10968000AFFC8046442017F069FF4FF0050E3823E9
:109690000546424639468DE80840A2E73A680195FA
:1096A0000095D2F820800DF10F037522682138460D
:1096B000C047D8B968211E480BF072F84FF0FF314F
:1096C000284601F0B7FB04F08BFC80464C2017F0D5
:1096D00045FF4FF0050E682305468DE808404246D9
:1096E000394633460EF00CFA284619E714480BF0B9
:1096F00057F8B06800287FF414AF4FF0FF31032013
:1097000001F098FB04F06CFC18B10E480BF048F81F
:1097100011E70D480BF044F80DE700BF4C020020A4
:109720007C1E0200841E0200A41E02003C1F0200D8
:10973000601F0200401E0200B41E0200C81E02008C
:109740004C1F0200E01E02001C1F0200741E0200DB
:1097500008B501F097FCFBF73FFEBDE8084001F0BB
:10976000FDB900BF08B501F08DFCFBF7A5FEBDE813
:10977000084001F0F3B900BF08B501F083FC15F013
:109780002FFABDE8084001F0E9B900BF08B501F0C3
:1097900079FC15F0A1FFBDE8084001F0DFB900BF7A
:1097A00008B501F06FFCFBF727FEBDE8084001F0AB
:1097B000D5B900BF08B501F065FC15F043FCBDE864
:1097C000084001F0CBB900BF08B501F05BFCFBF726
:1097D00063F8BDE8084001F0C1B900BF08B501F069
:1097E00051FC15F083FBBDE8084001F0B7B900BF9C
:1097F00070B5049E96420C4628DB15466BB1002AD4
:1098000000EB020107DD2046A21811F8013D00F827
:10981000013B9042F9D1002070BD042A0FD0022AEA
:1098200002D110F0010306D001462A46204607F077
:1098300093F8002070BD02880A80184670BD10F0B1
:109840000303F1D102680A60184670BD0846002182
:1098500008F072FA4FF0FF3070BD00BF083070475B
:1098600040B1002905DB4368994202DA0844007AD6
:1098700070470020704700BF30B1002904DB436807
:109880009942BCBF40180272704700BF40B1002926
:1098900005DB4368994202DA0844007A70470020E9
:1098A000704700BF830705D120B1030F0CBF012013
:1098B000002070470120704730B1002904DB436865
:1098C0009942BCBF40180272704700BF002B23DBD7
:1098D000002921DB70B54668B1421ADC5568761A5A
:1098E0001446EA1AB242A8BF3246002A11DB84426B
:1098F0000D4607D0083408300844E11807F02CF86A
:10990000002070BD0834E118601917F061FE0020D6
:1099100070BD4FF0FF3070BD4FF0FF30704700BF9B
:109920004068704710B4141E10DB426894420DDC8E
:1099300033EA230328BF1346121B08309A422044FF
:10994000A8BF1A465DF8044B08F0F6B95DF8044B61
:10995000704700BF43688B4210B400F108041846FA
:10996000A8BF084632EA220128BF19461B1A9942AD
:109970002044A8BF19465DF8044B00F0F3BE00BFB9
:10998000002BBCBF43689B1A002A70B50E4620DB33
:1099900044689918A1421CDC8A421ADCCBB136F02B
:1099A000004116D059428E4214DDB34212DD083018
:1099B000002E00EB020515DB9C1B2246A919284648
:1099C00017F006FE324628190021BDE8704008F065
:1099D000B3B970BD002211464FF0FF33BDE87040AF
:1099E000FFF7A0BF74429A192946281917F0F0FD15
:1099F000224628460021BDE8704008F09DB900BF0E
:109A000003460830596800F02DBE00BF70B504460B
:109A100000206168490000F0A7FD6668002E11DD96
:109A2000094D04F1080100EB4606034611F8012B2D
:109A3000141102F00F022C5DAA5C9C71DA710233E2
:109A40009E42F3D170BD00BF741F0200002BBCBF4B
:109A500043689B1A002A2FDB70B445689C18AC42FF
:109A600029DCA24227DC33B331F0004423D00029A3
:109A7000B8BF01EB032191FBF3F603FB1616002E92
:109A800000F10800B8BFF61802441644B24213446D
:109A900011D0304604E0B24208460ED090420AD0BF
:109AA0000146147811F8015B02F8015B8B420470E7
:109AB000F1D13046F2E770BC70470E46EEE700BFCA
:109AC00000B583B04FF0FF3300930023FFF7FEFE95
:109AD00003B05DF804FB00BF10B50C1E0EDD41683D
