:020000040002F8
:1060000000000420D5A90300FDA90300FFA9030097
:1060100001AA030003AA030005AA03000000000070
:1060200000000000000000000000000007AA0300BC
:1060300009AA0300000000000BAA03000DAA030038
:106040000FAA03000FAA030075A8030039A80300D4
:106050004DA803000FAA0300B99C03000FAA030078
:1060600019A5030021A5030029A503000FAA030019
:106070000FAA03000FAA03000FAA03000FAA030030
:106080000FAA03000FAA03000FAA03000FAA030020
:106090000FAA03000FAA03000FAA03000FAA030010
:1060A0000FAA03000FAA030031A5030039A50300BE
:1060B0000FAA03000FAA0300000000000000000068
:1060C0000FAA03000FAA03000FAA030061A8030090
:1060D0000FAA03000FAA03000FAA03000FAA0300D0
:1060E0009DA803000FAA03000FAA030000000000F0
:1060F000000000000FAA03000000000089A80300B0
:10610000000000000000000000000000000000008F
:10611000000000000000000000000000000000007F
:10612000000000000000000000000000000000006F
:10613000000000000000000000000000000000005F
:10614000000000000000000000000000000000004F
:10615000000000000000000000000000000000003F
:10616000000000000000000000000000000000002F
:10617000000000000000000000000000000000001F
:10618000000000000000000000000000000000000F
:1061900000000000000000000000000000000000FF
:1061A00000000000000000000000000000000000EF
:1061B00000000000000000000000000000000000DF
:1061C00000000000000000000000000000000000CF
:1061D00000000000000000000000000000000000BF
:1061E00000000000000000000000000000000000AF
:1061F000000000000000000000000000000000009F
:106200007CB0EE877CB0EE87FF00FF00FF00FF0050
:10621000FF00FF00FF00FF00FF00FF00FF00FF0086
:10622000FF00FF00FF00FF00FF00FF00FF00FF0076
:10623000FF00FF00FF00FF002DE9F04F85B0039144
:106240000778A7F10903042B044607F07F0200F149
:106250000100F5D9202AF3D02B2F04BF677804461C
:106260002D2F72D09FED427B8DED007B4FF000080B
:106270004FF000098FB34FF0000E4FF0000ADFF827
:1062800000B1754619E017F0F3F8804689463046AC
:1062900017F088F842464B4616F038FF52468046C3
:1062A00089465B46DDE9000135B317F00BFACDE90D
:1062B0000001AE4614F8017F7FB1A7F13006092E28
:1062C00052465B4640464946DDD9C5B92E2F16D108
:1062D00014F8017F0125002FEFD142464B46DDE93E
:1062E000000117F0C5F880468946039B40464946A1
:1062F0001C6005B0BDE8F08F4FF0010EDAE7BEF18B
:10630000000F29D042464B46DDE9000117F0B0F8F6
:1063100007F0DF07452F80468946E6D10399601CC8
:106320000A2216F0D7FE16490246002017F000FC9C
:1063300002460B464046494617F09AF88046894681
:106340004046494605B0BDE8F08F9FED0B7B67786E
:106350008DED007B013489E7DFF828904FF00008CD
:106360004046494605B0BDE8F08F00BFAFF300805E
:10637000000000000000F03F000000000000F0BF3F
:10638000000024400000F87F2DE9F84F1646002356
:10639000002204460D4617F0DDFA002840F09D80EB
:1063A000002200232046294617F0CAFA28B13022DD
:1063B000002332707370BDE8F88F2046294615F02F
:1063C00059FB17F005FB7BA3D3E90023814629463F
:1063D000204617F0BFFA002800F08680B9F1000FC0
:1063E000C0F2BE804A4600206F4917F0A1FB02466A
:1063F0000B462046294617F065F904460D4666A16E
:10640000D1E9000101274FF0000822462B4617F082
:106410002FF80022654B16F079FE17F0C5FB002F10
:10642000CC464FF0FF3AC1464FF0000840F385805C
:10643000DFF888E15E4C0122AEF1700945F6F325E4
:106440004FF02E0BA94208BFA0424FF0300309D3F2
:10645000001B61EB0501A94208BFA04203F1010343
:10646000F6D2DBB2337050EA010306F1010409D120
:10647000BA4210DACE4502F101020CD026467EE87F
:106480000245DFE7BA4204BF86F801B0B41CCE452E
:1064900002F10102F2D1B8F1000F0DD022463021F5
:1064A00002F8011BC2F1010353442344002BF7DC23
:1064B0002AEAEA7301331C44BCF1010F4CD0652376
:1064C000BCF1000F2370C5BF2B236370611CA11C9E
:1064D0006046BDE8F84F0FF0FBB905F100431D46DB
:1064E0002D23337001365BE72DA3D3E9002320462B
:1064F000294617F04DFA00287FF470AFB9F10E0F5E
:1065000009F101073DDDA9F10E08424600202649A8
:1065100017F00EFB02460B462046294617F0D2F82C
:106520000022224B16F0F2FD17F03EFB002FA9F1DE
:106530000F0A4FF0010C3FF77BAF334630222E2479
:1065400003F8022B74707FEA090618D01E4403F882
:10655000012BB342FBD16BE700232370BDE8F88F1A
:10656000C9F100020020104917F0E2FA02460B467A
:106570002046294616F07CFF04460D463FE71E469E
:1065800056E7C9F10E0200200749C84617F0D0FAB5
:106590004FF0010939E700BF0000901EC4BCD6428D
:1065A00050EFE2D6E41A4B44000024400000E03FE4
:1065B00000407A108DEDB5A0F7C6B03E80E603002E
:1065C00070B54FF0FF3006F0B5F904466FF07F402C
:1065D00006F0B0F90646204616F0D4FE00220C4B19
:1065E00016F046FF044630460D4616F0CBFE06A3D5
:1065F000D3E9002317F066F802460B4620462946E9
:1066000016F084FD70BD00BF0000E0DFFFFF6F43A8
:106610000000F03D0000000008B510F005FCDFEDC3
:106620000C7A07EE100A67EE277A17EE900A16F03A
:10663000CBFE05A3D3E9002317F044F817F0C8F9FF
:1066400008BD00BFAFF30080EA2E4454FB2119407F
:106650000000B4430000000008B510F0F9FBDFEDC6
:106660000C7A07EE100A67EE277A17EE900A16F0FA
:10667000ABFE05A3D3E9002317F024F817F0A8F91F
:1066800008BD00BFAFF30080EA2E4454FB2119403F
:106690000000B44300000000494A21F00043934247
:1066A0002DE9704304460D464BDC464A93420E46A4
:1066B0000EDC3FA3D3E9002316F028FD0022424B55
:1066C00017F066F900284CD020462946BDE87083B3
:1066D0003E4A93423BDCB3F1804F42DD14F0C4FDEF
:1066E0002246804689462B462046294616F0C0FEA3
:1066F0000022354B16F00AFD15F07AFC02460B46D7
:106700004046494616F002FD02460B4600202E493F
:1067100016F0D8FF424604460D464B4640464946D1
:1067200016F0F4FC02460B462046294616F0EEFC15
:1067300002F06AF8002EC9DC01F100431946BDE8F9
:10674000708302460B4616F0E1FCBDE8708314F03E
:106750008BFD02F059F818A3D3E9002316F0D6FCFC
:10676000E8E722462B462046294616F081FE804661
:1067700089462046294614F077FD002204460D463E
:10678000114B4046494616F0C1FC15F031FC002281
:106790000D4B16F0BBFC02460B464046494616F030
:1067A00091FF22462B4616F0B1FC00F0C5FAC1E776
:1067B0009C7500883CE4377EEF39FAFE422EE63FB6
:1067C000FFFFEF7FFFFF2F3E0000F03F0000B041D2
:1067D0002DE9F84FC44B21F000469E4204460D4679
:1067E0008A460EDDC14B9E4200F3AC8000F0A780CC
:1067F000BAF1000F40F3EA809FA1D1E90001BDE8A2
:10680000F88FBB4B9E4200F3B580A3F1DE739E422E
:1068100040F3A0804FF0FF3B22462B4620462946FE
:1068200016F026FE02460B468046894616F020FEEC
:1068300093A3D3E9002306460F4616F019FE92A350
:10684000D3E9002316F062FC32463B4616F010FEF8
:106850008FA3D3E9002316F059FC32463B4616F0CD
:1068600007FE8DA3D3E9002316F050FC32463B46C9
:1068700016F0FEFD8AA3D3E9002316F047FC32464A
:106880003B4616F0F5FD88A3D3E9002316F03EFC45
:1068900042464B4616F0ECFD85A3D3E90023804623
:1068A00089463046394616F0E3FD83A3D3E9002339
:1068B00016F02AFC32463B4616F0DAFD80A3D3E9F7
:1068C000002316F021FC32463B4616F0D1FD7EA394
:1068D000D3E9002316F018FC32463B4616F0C8FDFB
:1068E0007BA3D3E9002316F00FFC32463B4616F09B
:1068F000BFFDBBF1FF3F02460B466CD04046494608
:1069000016F004FC22462B4616F0B2FD794E7A4B67
:106910004FEACB0B5E449B44DBE9002316F0F4FB0B
:1069200022462B4616F0F0FB02460B46D6E9000144
:1069300016F0EAFBBAF1000F43DBBDE8F88F002840
:106940003FF456AF22462B462046294616F0DEFB82
:10695000BDE8F88F60A3D3E9002316F0D7FB00222F
:10696000664B17F015F800283FF454AF204629462F
:10697000BDE8F88F14F078FC614B9E4204460D464A
:1069800039DCA3F550239E425EDC02460B4616F02E
:10699000BDFB0022594B16F0B7FB002206460F46FE
:1069A0004FF080432046294616F0B0FB02460B46C6
:1069B0003046394616F086FE4FF0000B04460D4671
:1069C0002AE701F100431946BDE8F88F44A1D1E957
:1069D0000001BDE8F88F4046494616F097FB224675
:1069E0002B4616F045FD02460B462046294616F07A
:1069F0008BFBBDE8F88F434B9E421ADC0022424BD2
:106A000016F082FB002206460F463F4B20462946E1
:106A100016F02EFD0022394B16F078FB02460B468D
:106A20003046394616F04EFE4FF0020B04460D4636
:106A3000F2E602460B460020344916F043FE4FF0C2
:106A4000030B04460D46E7E600222C4B16F05CFBD8
:106A5000002206460F46294B2046294616F056FBD3
:106A600002460B463046394616F02CFE4FF0010B1D
:106A700004460D46D0E600BF182D4454FB21F93FD3
:106A800011DA22E33AAD903FEB0D76244B7BA93F20
:106A9000513DD0A0660DB13F6E204CC5CD45B73FEE
:106AA000FF8300922449C23F0D5555555555D53F9A
:106AB0002F6C6A2C44B4A2BF9AFDDE522DDEAD3F8E
:106AC0006D9A74AFF2B0B33F711623FEC671BC3F2E
:106AD000C4EB98999999C93F9C7500883CE4377E2E
:106AE000182D4454FB21F9BFFFFF0F440000F07F35
:106AF000FFFFDB3F90E60300B0E603000000F03F3D
:106B0000FFFFF23FFF7F03400000F83F0000F0BFAF
:106B10002DE9F843C1F30A59A9F2FF35132D0246B6
:106B20000B460C4606468846074622DC002D50DB05
:106B3000DFF8F09049FA05F901EA090E5EEA060667
:106B40001CD036A3D3E9002316F0E0FA002200237C
:106B500016F01EFF48B1002C04DD4FF4801343FAF9
:106B600005F5A84428EA0904002721463846BDE86F
:106B7000F883332D06DDB5F5806F3DD010461946FC
:106B8000BDE8F883A9F213494FF0FF3E2EFA09F948
:106B900010EA090FF2D021A3D3E9002316F0B6FAC8
:106BA0000022002316F0F4FE0028DED0002C09DDC0
:106BB000142D2BD00127C5F1340507FA05F5AE19C0
:106BC00028BFB844444626EA090721463846BDE8AE
:106BD000F88312A3D3E9002316F098FA00220023C9
:106BE00016F0D6FE0028C0D0002C0BDB54EA0607B6
:106BF00006D00027084CB8E716F088FABDE8F883FD
:106C00003C46B2E700274FF00044AEE704F101082C
:106C1000D8E700BFAFF300800000F03F9C7500880C
:106C20003CE4377EFFFF0F002DE9F041C1F30A5726
:106C3000A7F2FF35132D02460B460C468846064642
:106C40001CDC002D3FDB3A4F2F41864601EA070C42
:106C50005CEA0E0E17D034A3D3E9002316F056FADF
:106C60000022002316F094FE20B1002C3FDB28EA1E
:106C70000704002621463046BDE8F081332D06DDAD
:106C8000B5F5806F2FD010461946BDE8F081A7F208
:106C900013474FF0FF3E2EFA07F73842F3D022A3F6
:106CA000D3E9002316F032FA0022002316F070FE1A
:106CB0000028DFD0002C20DB444626EA07062146C8
:106CC0003046BDE8F08118A3D3E9002316F01EFA80
:106CD0000022002316F05CFE0028CBD0002C17DB2E
:106CE00000263446C6E716F011FABDE8F0814FF4ED
:106CF000801343FA05F5A844B9E7142D10D00123F9
:106D0000C5F1340503FA05F5AE1928BF9844D3E759
:106D100024F00042074B324318BF1C460026A9E767
:106D200004F10108C8E700BF9C7500883CE4377E89
:106D3000FFFF0F000000F0BF2DE9F04FD84B994244
:106D400087B0804689460E4613DCD64B21F00044BE
:106D50009C4218DD0022D44B16F0F2FD002879D0B9
:106D6000002200230020D14916F0ACFC07B0BDE89A
:106D7000F08FCF4B99422FDD42464B4616F0C6F9B5
:106D800007B0BDE8F08FCB4B9C4270DDCA4B1E4470
:106D90009E427ED80022C94B4046494616F0B6F9BD
:106DA0004FEA215AAAF2FF3ABAF1000F04460D4603
:106DB0000E4640F3DE8142464B4616F0A5F90246E8
:106DC0000B460020BD4916F09FF922462B4616F0CF
:106DD00079FCCDE902010BE0B94B9E42DADD9FED73
:106DE0009A7B8DED027B4FEA265A4446AAF2FF3A7F
:106DF000B44BC6F313069E4246F07F5500F3E7807E
:106E000045F44015204629460022AC4B16F07CF98B
:106E1000002204460D46AC4B16F02AFB22462B46B8
:106E200016F026FBA046CDE90401A946CDE90001F4
:106E3000002E3AD1002200232046294616F080FD7C
:106E4000002800F0CE80BAF1000F40F074810020DD
:106E5000002195E742464B464046314616F054F92C
:106E600002460B4616F02EFC07B0BDE8F08F00225C
:106E7000964B16F04BF90022002316F089FD0028EE
:106E800000F0CC80924B9C4200F3C88040464946BB
:106E900076E700228C4B16F0EBFA42464B4616F092
:106EA000E7FACDE900014FF0000A00224FF08043DD
:106EB0004046494616F02AF902460B4640464946E6
:106EC00016F000FC02460B4606460F4616F0D0FAB6
:106ED0005FA3D3E9002304460D4616F0C9FA5EA36A
:106EE000D3E9002316F012F922462B4616F0C0FA19
:106EF0005BA3D3E9002316F009F922462B4616F0CE
:106F0000B7FA59A3D3E9002316F000F922462B461D
:106F100016F0AEFA56A3D3E9002316F0F7F822468E
:106F20002B4616F0A5FA54A3D3E9002316F0EEF889
:106F300022462B4616F09CFA51A3D3E9002316F003
:106F4000E5F822462B4616F093FA04460D46BAF1B0
:106F5000000F00F0BF80504616F024FA4AA3D3E990
:106F6000002382468B4616F083FADDE90023CDE943
:106F700004012046294616F0C9F832463B4616F071
:106F800077FA43A3D3E9002304460D4650465946F9
:106F900016F06EFADDE9022316F0B8F802460B4649
:106FA0002046294616F0B2F802460B46DDE90001FC
:106FB00016F0AAF842464B4616F0A6F802460B46D3
:106FC000DDE9040116F0A0F807B0BDE8F08F45F444
:106FD0000015C6F5801620462946B6100AF1010AAA
:106FE00012E72DA3D3E900232046294616F040FAE4
:106FF00002460B460020314916F086F8DDE90423ED
:1070000016F036FA06460F46BAF1000F73D1024663
:107010000B462046294616F077F8B1E642464B4625
:107020004046494616F024FA0022274B16F020FA73
:1070300002460B464046494616F066F807B0BDE8E2
:10704000F08F00BFAFF300800000000000000000E0
:1070500044523EDF12F1C23F9FC678D0099AC33F27
:10706000DE03CB966446C73FAF788E1DC571CC3F1B
:10707000599322942449D23F04FA97999999D93F78
:10708000935555555555E53F0000E0FE422EE63F2D
:10709000763C7935EF39EA3D555555555555E53F1F
:1070A0007982DA3FFFFFEF3F0000F0BF000050C3DE
:1070B000FFFFEF7FFFFF1F3E3C412D400000F03FF0
:1070C000FFFF3F439DA006000000E03F000050434B
:1070D000FFFF8F3CDDE9004522462B4616F016F8EF
:1070E00032463B4616F0C4F902460B462046294676
:1070F00016F00AF89CE7504616F054F923A3D3E99A
:10710000002382468B4616F0B3F922A3D3E900236D
:10711000804689465046594616F0AAF9DDE9022311
:1071200015F0F4FF02460B463046394615F0ECFFE9
:1071300022462B46DCE7504616F034F915A3D3E976
:10714000002306460F4616F093F9DDE9022315F0F9
:10715000DDFF0EA3D3E9002304460D463046394631
:1071600016F086F902460B462046294615F0CEFF5A
:1071700006E60022044B15F0C7FF02460B464046C8
:10718000494615F0C1FF20E60000F03F0000E0FE98
:10719000422EE63F763C7935EF39EA3D00000000AB
:1071A00008B514F0E7FB04A3D3E9002316F08AFA2C
:1071B00008BD00BFAFF30080EF39FAFE422EE63F74
:1071C0002DE9F043DFF8B4808BB004460D4601F0A2
:1071D000F3F898F90030013306460F462BD02246CB
:1071E0002B462046294616F0DDFB814618BB20467B
:1071F000294614F039F81FA3D3E9002316F0C8FB81
:10720000C8B1194A98F90030CDF820900321CDE992
:107210000445CDE902458DE806008BB9134B4FF0CC
:107220006042CDE90623684615F070FD70B1089BF9
:107230009BB9DDE90667304639460BB0BDE8F083FF
:107240000B490020022BCDE90601ECD115F0EAFE36
:1072500022230360089B002BEBD015F0E3FE089B74
:107260000360E6E7AFF3008028F80300FFFFEF4775
:107270000000F07F7DF8B98FCE338640FB8100207F
:107280002DE9F043DFF8E4808BB004460D4601F0B1
:1072900043F998F90030013306460F4633D02046B3
:1072A000294615F02DFD70B32CA3D3E90023204609
:1072B000294616F06DFB814650BB2AA3D3E9002373
:1072C0002046294616F046FBE8B198F90030204ADE
:1072D000CDF82090002600270421022BCDE904459B
:1072E000CDE90245CDE906678DE8060029D068465C
:1072F00015F00CFD28B3089B1BB115F093FE089BFD
:107300000360DDE90667304639460BB0BDE8F0831F
:107310000F4A98F90030019203210022CDE904457B
:10732000CDE90245009108922BB90A4B4FF060421B
:10733000CDE90623DBE708490020022BCDE9060151
:10734000D5D115F06FFE22230360D4E7AFF30080A0
:1073500030F80300FFFFEF470000F07FEF39FAFE3F
:10736000422E864051302DD5104987C0FB81002028
:107370002DE9F04FDFF80C938DB006460F4614460A
:107380001D4601F0C5FC99F90080B8F1FF3FCDE939
:10739000000136D022462B462046294616F002FB35
:1073A000834670BB32463B463046394616F0FAFA01
:1073B0008246002840F0A280304639460022002351
:1073C00016F0BEFA10B3002200232046294616F01C
:1073D000B7FA834600286AD09FEDA17B0122A44B17
:1073E000CDF828A00292CDE90467CDE906458DEDE0
:1073F000087B0393B8F1000F45D09FED9B7B8DED8B
:10740000007BDDE900010DB0BDE8F08FDDE9000192
:1074100015F076FC8046002800F08D804FF0000AC1
:107420004FF0000BDDE9000152465B4616F088FA8A
:107430000028E6D03046394615F062FC0028E0D03E
:107440002046294615F05CFC0028DAD099F9003076
:10745000874A039204210022022BCDE90467CDE97B
:107460000645CDE908AB02910A9203D002A815F0B7
:107470004DFC68B915F0D6FD2223036008E09FEDAE
:10748000787B8DED087B02A815F040FC002830D0F9
:107490000A9B1BB115F0C6FD0A9B03609DED087B9E
:1074A0008DED007BDDE900010DB0BDE8F08F2046D9
:1074B000294615F025FC0028A3D0002200232046F1
:1074C000294616F047FA00289BD099F90030684AFF
:1074D000CDF828B00121CDE90467CDE90645029138
:1074E0000392002BCBD063490020022BCDE9080189
:1074F000C9D115F097FD21230360C9E700220023BD
:107500002046294616F01CFA00283FF47AAF5A4B61
:107510005749CDF828B000220120B8F1020FCDE97B
:1075200004670290CDE90645CDE908230391AAD16D
:10753000CDE9002365E73046394615F0E1FB002828
:107540003FF46CAF2046294615F0DAFB00283FF4E3
:1075500065AFDDE900231046194616F023FA00282E
:107560005FD1032399F900800293414B0A90CDE942
:107570000467CDE906450393B8F1000F2BD1DFF87E
:1075800008B14FF0604A0022002330463946CDE969
:1075900008AB16F0DFF900283FF468AF0022374B44
:1075A0002046294615F064FF04460D4615F0B6FB4B
:1075B00002460B462046294616F0C2F970BB304BF6
:1075C00099F900804FF06042CDE90823B8F1020F2D
:1075D0007FF44CAF4EE7DFF8B4B04FF0000A002262
:1075E000002330463946CDE908AB16F0B3F9002840
:1075F000ECD00022214B2046294615F039FF0446E5
:107600000D4615F08BFB02460B462046294616F028
:1076100097F918B9174B0022CDE9082399F9008092
:10762000D4E799F90090124BCDF828800122CDE9DA
:107630000467CDE9064502920393B9F1000F3FF4C8
:107640001EAF002200231046194616F03BF8B9F190
:10765000020FCDE908013FF44CAF14E7AFF300800F
:107660000000000000000000000000000000F03FEB
:1076700048F803000000F0FF0000F03F0000E03F8A
:10768000FFFFEFC7FB810020FFFFEF470000F07F07
:107690002DE9F84FC44E21F00043B34204460D4695
:1076A0000DDD03F1404303F58013034340F0B9803F
:1076B000002940F3408100200021BDE8F88FBB4E37
:1076C000B34240F3A6800029C0F2788102460B46FF
:1076D0000020B74915F018FD0022B64B15F0C8FE82
:1076E00004460D4614F084FC95A3D3E90023894693
:1076F00080462946204615F0BBFE93A3D3E900231C
:1077000015F004FD22462B4615F0B2FE90A3D3E9F6
:10771000002315F0F9FC22462B4615F0A9FE8EA396
:10772000D3E9002315F0F2FC22462B4615F0A0FE0B
:107730008BA3D3E9002315F0E7FC22462B4615F076
:1077400097FE89A3D3E9002315F0E0FC22462B46DF
:1077500015F08EFE86A3D3E9002382468B46204691
:10776000294615F085FE84A3D3E9002315F0CCFC4F
:1077700022462B4615F07CFE81A3D3E9002315F0A9
:10778000C5FC22462B4615F073FE7FA3D3E90023E8
:1077900015F0BAFC22462B4615F06AFE0022844BF7
:1077A00015F0B4FC02460B465046594615F08AFFC8
:1077B00042464B4615F05CFE002682468B4632461A
:1077C0004B463046494615F053FE02460B462046CE
:1077D000294615F099FC324604460D464B46404674
:1077E000494615F093FC02460B462046294615F003
:1077F00069FF02460B465046594615F087FC324653
:107800004B4615F083FC02460B4615F07FFCBDE8A5
:10781000F88F694A93420EDC5DA1D1E90001BDE811
:10782000F88F02460B4615F06FFC02460B4615F02A
:1078300049FFBDE8F88F02460B4615F019FE40A33C
:10784000D3E9002306460F4615F012FE3EA3D3E906
:10785000002315F05BFC32463B4615F009FE3CA3C5
:10786000D3E9002315F050FC32463B4615F000FEEC
:1078700039A3D3E9002315F049FC32463B4615F005
:10788000F7FD37A3D3E9002315F03EFC32463B4613
:1078900015F0EEFD34A3D3E9002315F037FC324692
:1078A0003B4615F0E5FD32A3D3E900238046894627
:1078B0003046394615F0DCFD2FA3D3E9002315F03F
:1078C00023FC32463B4615F0D3FD2DA3D3E900231C
:1078D00015F01CFC32463B4615F0CAFD2AA3D3E93D
:1078E000002315F011FC32463B4615F0C1FD002285
:1078F0002F4B15F00BFC02460B464046494615F04F
:10790000E1FE22462B4615F0B3FD02460B4622A1AE
:10791000D1E9000115F0F8FB02460B462046294646
:1079200015F0F2FB02460B4619A1D1E9000115F052
:10793000EBFBBDE8F88F1AA1D1E90001BDE8F88F93
:1079400009F7FD0DE13D023F88B20175E0EF493FC7
:107950003B8F68B52882A43F5544880E55C1C93F66
:107960007D6FEB0312D6D43F555555555555C53F40
:1079700082922EB1C5B8B33F59018D1B6C06E63F0C
:10798000C88A599CE52A00404B2D8A1C273A03409F
:10799000182D4454FB21F93F075C143326A6913C73
:1079A000182D4454FB210940FFFFEF3FFFFFDF3F4D
:1079B0000000F03F0000E03F0000603C00225C4B14
:1079C00015F0A4FB00225B4B15F052FD40A3D3E958
:1079D000002304460D4615F04BFD3FA3D3E90023D9
:1079E00015F094FB22462B4615F042FD3CA3D3E94B
:1079F000002315F089FB22462B4615F039FD3AA3EA
:107A0000D3E9002315F082FB22462B4615F030FD0A
:107A100037A3D3E9002315F077FB22462B4615F058
:107A200027FD35A3D3E9002315F070FB22462B4632
:107A300015F01EFD804689462046294614F0D8FAE6
:107A40002FA3D3E9002306460F462046294615F00A
:107A50000FFD2DA3D3E9002315F056FB22462B463C
:107A600015F006FD2AA3D3E9002315F04FFB2246AB
:107A70002B4615F0FDFC28A3D3E9002315F044FBA9
:107A800022462B4615F0F4FC0022294B15F03EFB54
:107A900002460B464046494615F014FE32463B4628
:107AA00015F0E6FC1EA3D3E9002315F02DFB3246AA
:107AB0003B4615F02BFB02460B4615F027FB024612
:107AC0000B4619A1D1E9000115F01EFBBDE8F88FA6
:107AD00009F7FD0DE13D023F88B20175E0EF493F36
:107AE0003B8F68B52882A43F5544880E55C1C93FD5
:107AF0007D6FEB0312D6D43F555555555555C53FAF
:107B000082922EB1C5B8B33F59018D1B6C06E63F7A
:107B1000C88A599CE52A00404B2D8A1C273A03400D
:107B2000075C143326A6913C182D4454FB210940D0
:107B30000000F03F0000E03F434A91422DE9F84346
:107B400004460D4639DD414A914209DD02F1795280
:107B5000914240DD02460B4615F0D8FABDE8F883A5
:107B600001F1404202F58012024330D0B1F1804F62
:107B70003ADC0022364B15F0C7FA02460B460446A3
:107B80000D4615F0C3FA224606460F462B46204600
:107B9000294615F06DFC02460B463046394615F075
:107BA000B5FA14F025FA0B4602462946204615F090
:107BB000ADFABDE8F843FFF7BFB802460B4615F033
:107BC000A3FA02460B4615F07DFDBDE8F8830020C0
:107BD0000021BDE8F88300F017FE19A3D3E90023C4
:107BE00015F094FABDE8F88302460B4615F040FC08
:107BF0000022174B15F088FA14F0FAF92246804655
:107C000089462B462046294615F080FA424606460C
:107C10000F464B462046294615F078FA02460B4699
:107C200000200B4915F04EFD0B4602463946304602
:107C300015F06AFABDE8F84300F0E6BDAFF3008046
:107C4000EF39FAFE422EE63FFFFFEF3FFFFFAF4165
:107C50000000F03F000000002DE9F047BE4B21F08E
:107C60000048984584B004460D4612DD08F14048AE
:107C700008F58018034658EA030321D002460B4654
:107C800015F042FA02460B4615F01CFD04B0BDE8A3
:107C9000F087B24B98458A4629DCB8F1795F80F2CB
:107CA000658191A3D3E9002315F030FA0022AC4B93
:107CB00015F06EFED8B12046294604B0BDE8F08725
:107CC0008BA3D3E9002315F0D3FB8BA3D3E90023C7
:107CD00006460F462046294615F0CAFB02460B46CB
:107CE0003046394615F012FA04B0BDE8F087204658
:107CF000294613F0B9FA02460B460020984915F0C0
:107D000003FA0022974B15F0B3FB7DA3D3E90023C0
:107D100004460D4615F0ACFB7BA3D3E9002315F018
:107D2000F5F922462B4615F0A3FB79A3D3E90023EE
:107D300015F0EAF922462B4615F09AFB76A3D3E913
:107D4000002315F0E3F922462B4615F091FB74A3AE
:107D5000D3E9002315F0D8F922462B4615F088FB0D
:107D600071A3D3E9002315F0D1F922462B4615F073
:107D70007FFB6FA3D3E90023CDE90001204629460C
:107D800015F076FB6CA3D3E9002315F0BDF922466C
:107D90002B4615F06DFB6AA3D3E9002315F0B6F965
:107DA00022462B4615F064FB67A3D3E9002315F0A8
:107DB000ABF922462B4615F05BFB694B002215F010
:107DC000A5F9CDE902012046294614F011F9664BC8
:107DD000984506460F4666DCDDE90223DDE9000131
:107DE00015F070FC3246CDE900013B46304639467D
:107DF00015F08CF902460B46DDE9000115F038FB61
:107E00004FF00008CDE9000142463B464046394666
:107E100015F02EFB02460B462046294615F074F954
:107E2000424604460D463B463046394615F06EF94B
:107E300002460B462046294615F044FC02460B46F6
:107E400015F064F902460B462BA1D1E9000115F0AB
:107E50005BF902460B46DDE9000115F055F9424693
:107E600004460D463B464046394615F04FF902465A
:107E70000B4637A1D1E9000115F046F902460B4641
:107E80002046294615F040F902460B4630A1D1E9BB
:107E9000000115F039F9BAF1000F3FF7F7AE01F123
:107EA00000431946F2E6DDE90223DDE9000115F0A1
:107EB00009FC32463B4615F0DBFA32463B4615F0EC
:107EC00025F902460B4615F021F90BA3D3E900234F
:107ED00015F01AF902460B4605A1D1E9000115F08B
:107EE00013F9D8E7AFF300809C7500883CE4377E37
:107EF000182D4454FB21F93F075C143326A6913C0E
:107F000009F7FD0DE13D023F88B20175E0EF493F01
:107F10003B8F68B52882A43F5544880E55C1C93FA0
:107F20007D6FEB0312D6D43F555555555555C53F7A
:107F300082922EB1C5B8B33F59018D1B6C06E63F46
:107F4000C88A599CE52A00404B2D8A1C273A0340D9
:107F5000182D4454FB21E93FFFFFEF3FFFFFDF3FB8
:107F60000000F03F0000E03F3233EF3F02460B4697
:107F700015F07EFA37A3D3E9002306460F4615F025
:107F800077FA36A3D3E9002315F0C0F832463B4612
:107F900015F06EFA33A3D3E9002315F0B5F8324695
:107FA0003B4615F065FA31A3D3E9002315F0AEF88E
:107FB00032463B4615F05CFA2EA3D3E9002315F0B8
:107FC000A3F832463B4615F053FA2CA3D3E900231D
:107FD00015F09CF832463B4615F04AFA29A3D3E93E
:107FE0000023804689463046394615F041FA27A3DA
:107FF000D3E9002315F088F832463B4615F038FAED
:1080000024A3D3E9002315F081F832463B4615F04E
:108010002FFA22A3D3E9002315F076F832463B4627
:1080200015F026FA00220A4B15F070F802460B46AE
:108030004046494615F046FB22462B4615F018FAF5
:1080400022462B4615F062F804B0BDE8F08700BF69
:108050000000F03F09F7FD0DE13D023F88B20175D8
:10806000E0EF493F3B8F68B52882A43F5544880E16
:1080700055C1C93F7D6FEB0312D6D43F55555555B9
:108080005555C53F82922EB1C5B8B33F59018D1BDE
:108090006C06E63FC88A599CE52A00404B2D8A1C95
:1080A000273A0340000000002DE9F84F1D465342D7
:1080B000134325F0004ADFF8E0E14AEAD373734541
:1080C000144606460F4647D8C0F1000848EA0008A3
:1080D00021F0004343EAD878F0458B463CD805F1BF
:1080E000404808F5801858EA020850D04FEAA578B1
:1080F00008F0020848EAD17850EA030134D052EA85
:108100000A023CD0F24557D0734538D0A3EB0A039E
:108110001B153C2B42DC002D70DB22462B463046E3
:10812000394615F0CFFA13F09FF8FEF751FBB8F17E
:10813000010F5FD0B8F1020F4ED0B8F1000F62D03E
:1081400043A3D3E9002314F0DFFF43A3D3E90023C3
:1081500014F0DAFFBDE8F88F32463B462046294648
:1081600014F0D4FFBDE8F88FB8F1020F1AD0B8F1BF
:10817000030F10D13AA1D1E90001BDE8F88FBBF19E
:10818000000F14DB38A1D1E90001BDE8F88FBDE88C
:10819000F84FFEF71DBB3946BDE8F88F32A1D1E993
:1081A0000001C4E72CA1D1E90001BDE8F88F30A19E
:1081B000D1E90001BDE8F88F534526D0B8F1020F90
:1081C000F0D0B8F1030FD5D0B8F1010F4FF0000097
:1081D00029D00021BDE8F88F1DA3D3E9002314F0B6
:1081E00093FF02460B461CA1D1E9000114F08CFF5D
:1081F000BDE8F88F01F10041BDE8F88F3C338CDA1F
:108200000020002193E7BDE8F88FB8F1020F18D0E5
:10821000B8F1030F10D0B8F1010F08D016A1D1E9C1
:108220000001BDE8F88F4FF00041BDE8F88F14A1C0
:10823000D1E90001BDE8F88F13A1D1E90001BDE843
:10824000F88F13A1D1E90001BDE8F88FAFF30080EA
:10825000075C143326A6A13C182D4454FB21094089
:10826000182D4454FB2109C0182D4454FB21F93F1B
:10827000182D4454FB21F9BF182D4454FB21E93F2C
:10828000182D4454FB21E9BFD221337F7CD902C091
:10829000D221337F7CD902400000F07F0000000033
:1082A00043422DE9F047034321F000463E4A46EAA7
:1082B000D373934204460D4613D896423DD03B4BB0
:1082C0009E428A4617DC36A3D3E9002314F01EFF32
:1082D0000022002315F05CFBA8B320462946BDE828
:1082E000F08702460B4614F00FFF02460B4615F0CE
:1082F000E9F9BDE8F0872E4B9E42354624DD334632
:108300000246314614F002FF224606460F462B462F
:108310000020254914F0F8FE02460B463046394647
:1083200015F0D0F9FEF708FD0022224B15F0A0F859
:10833000BAF1000F2FDBBDE8F0870022002315F013
:10834000C1F9BDE8F087354622462B46204629462E
:1083500014F0DCFE22462B4606460F4615F088F840
:108360002246804689462B4600200F4914F0CCFE59
:1083700002460B464046494615F0A4F932463B46B4
:1083800014F0C4FEFEF7D8FC00220A4B15F070F87A
:10839000BAF1000FCFDA01F100431946BDE8F087CA
:1083A0009C7500883CE4377E0000F03FFFFF2F3EC5
:1083B000FFFFDF3F0000E03F2DE9F8434E4B21F087
:1083C00000449C4206460F461BDC4C4B9C4222DD7F
:1083D0004B4B9C4263DD4B4B9C427BDD4A4B9C42AA
:1083E00046DD01339C4240D041A3D3E9002310462F
:1083F000194615F03DF806460F4630463946BDE8A9
:10840000F88302460B4615F033F806460F46304611
:108410003946BDE8F88312F027FF02F0B1FC0022D4
:108420003A4B8046894614F071FEB4F1725F0646FD
:108430000F46ECDB42464B464046494615F018F8DD
:1084400032463B4604460D463046394614F05EFE41
:1084500002460B462046294615F034F900222B4BE4
:1084600014F054FE06460F46D1E7294B9842BBD87C
:108470003046394612F0F8FE0022264B14F0F8FF81
:1084800000F04AF8002204460D46224B14F0F0FF9B
:1084900022462B4614F0ECFF06460F46B7E712F0D3
:1084A000E3FE00F039F800221A4B06460F4614F09E
:1084B000DFFF32463B4604460D460020154915F0C5
:1084C00001F902460B462046294614F01FFE0646D7
:1084D0000F469CE712F0C8FE00F01EF800220D4B7C
:1084E00014F0C6FF06460F4691E700BFAFF30080C9
:1084F0009C7500883CE4377EFFFFEF7F422ED63F1D
:10850000FFFF3540412E8640CD3386400000F03FCE
:108510007DF8B98F0000E03F2DE9F04FB04E21F01B
:108520000042B24283B004460D464FEAD1770DD9DE
:10853000AC4EB24225D9C1F31303034340F0EC80A3
:108540000FB10020002103B0BDE8F08FA64B9A4286
:1085500000F2CB80A54B9A4200F2DC808AA3D3E9DB
:10856000002314F0D3FD0022A14B15F011FA0028CE
:1085700000F006812046294600229D4B14F0C6FDDE
:10858000E1E783A3D3E9002315F002FA002840F0C5
:10859000C88081A3D3E900232046294615F0DAF9E3
:1085A0000028CED1934E7EA3D3E9002306EBC70665
:1085B0002046294614F05CFFD6E9002314F0A6FDFE
:1085C00015F006FA064614F0EDFE77A3D3E9002372
:1085D0008046894614F04CFF02460B462046294649
:1085E00014F092FD72A3D3E90023CDE900014046C7
:1085F000494614F03DFF82468B4652465B46DDE914
:10860000000114F081FD04460D4622462B4620460B
:10861000294614F02DFF68A3D3E90023804689463C
:1086200014F026FF66A3D3E9002314F06DFD424643
:108630004B4614F01DFF64A3D3E9002314F066FD3C
:1086400042464B4614F014FF61A3D3E9002314F013
:108650005BFD42464B4614F00BFF5FA3D3E90023BA
:1086600014F054FD42464B4614F002FF02460B46FE
:108670002046294614F048FD80468946002E58D0F1
:108680002046294642464B4614F0F2FE4246044636
:108690000D464B4600204FF0804114F035FD024658
:1086A0000B462046294615F00DF802460B4650466B
:1086B000594614F029FDDDE9002314F025FD0B4691
:1086C00002464B49002014F01FFD6FF47F739E4259
:1086D00051DA06F57A7601EB065100224FF0B873B5
:1086E00014F0C6FE03B0BDE8F08F434B9A423FF64C
:1086F00059AF424BFC002344D3E9002314F004FD9E
:108700003F4BC7F101062344CDE90001D3E900AB9B
:10871000F61B72E7002678E702460B4614F0F6FCDB
:1087200011E719A3D3E900231046194614F0A0FE5F
:1087300009E702460B462046294614F099FE00221E
:1087400006460F464FF080434046494614F0DCFC95
:1087500002460B463046394614F0B4FF22462B46FB
:1087600014F0D2FC02460B460020214914F0CCFC48
:1087700003B0BDE8F08F01EB065103B0BDE8F08F08
:10878000064642E7AFF300809C7500883CE4377EE4
:10879000EF39FAFE422E864051302DD5104987C060
:1087A000FE822B654715F73F0000E0FE422EE63FB4
:1087B000763C7935EF39EA3DD0A4BE726937663E22
:1087C000F16BD2C541BDBB3E2CDE25AF6A56113FD1
:1087D00093BDBE166CC1663F3E5555555555C53FB8
:1087E000412E8640FFFFEF7F422ED63FFFFF2F3EF8
:1087F0000000F03FD0E60300B1A2F03FE0E6030046
:10880000F0E60300000000002DE9F04FB1F5801FF5
:1088100085B006460F460B465ADA024621F0004460
:10882000224300F0F8800029C0F27A810022D64B62
:1088300014F01EFED54A0B46934206460F466FF0D3
:10884000350C4ADCC3F3130505F5152E0EF6647ED0
:108850000EF4801E8EF07F5282F440121C1542EA04
:108860000507A4F2FF3464440022C94B3046394660
:1088700004EB1E5414F048FCAB1CC3F31303022B8F
:1088800082468B464FF0000230DC002315F058F88A
:10889000002800F0C980002C00F04B81204614F025
:1088A00081FDA5A3D3E9002306460F4614F0E0FDA1
:1088B000A3A3D3E9002304460D463046394614F0FD
:1088C000D7FD02460B462046294614F01FFC0AE05D
:1088D000AE4A93424FF0000CB4DD32463B46304680
:1088E000394614F013FC05B0BDE8F08F4FF080431B
:1088F00014F00CFC02460B465046594614F0E2FEBA
:10890000064620460F4614F04DFD3246CDE90001E3
:108910003B4630463946CDE9026714F0A9FD0246D0
:108920000B468046894614F0A3FD87A3D3E90023B4
:1089300006460F4614F09CFD85A3D3E9002314F0EE
:10894000E5FB32463B4614F093FD83A3D3E90023B5
:1089500014F0DCFB32463B4614F08AFD80A3D3E9D9
:10896000002314F0D3FB42464B4614F081FD7EA356
:10897000D3E90023804689463046394614F078FD15
:108980007BA3D3E9002314F0C1FB32463B4614F02D
:108990006FFD79A3D3E9002314F0B8FB32463B46C0
:1089A00014F066FD0B4602464946404614F0AEFB05
:1089B000A5F5C223C5F5D725A3F27A4351351D434A
:1089C000002D8046894656DD0022724B504659469E
:1089D00014F04EFD52465B4614F04AFD06460F4623
:1089E000002C68D132463B464046494614F08EFB87
:1089F000DDE9022314F03CFD02460B4630463946C1
:108A000014F082FB02460B465046594614F07CFB9C
:108A100005B0BDE8F08F0022002300205E4914F06D
:108A200051FE05B0BDE8F08F55A3D3E900235046B1
:108A3000594614F01DFD02460B460020554914F01E
:108A400063FB524606460F465B465046594614F0B5
:108A50000FFD02460B463046394614F009FD064626
:108A60000F46002C40F09A8002460B46504659466D
:108A700014F04AFB37E7002C00F0A4802EA3D3E9C2
:108A80000023DDE9000114F0F3FC42464B460446A6
:108A90000D465046594614F037FBDDE9022314F029
:108AA000E7FC27A3D3E9002306460F46DDE90001D2
:108AB00014F0DEFC21E020A3D3E90023DDE900016E
:108AC00014F0D6FC32463B4604460D464046494625
:108AD00014F01CFBDDE9022314F0CAFC18A3D3E94F
:108AE000002380468946DDE9000114F0C1FC0246FE
:108AF0000B464046494614F009FB02460B463046F9
:108B0000394614F001FB52465B4614F0FDFA02466A
:108B10000B462046294614F0F7FA05B0BDE8F08F61
:108B200002460B4614F0F0FA0022002314F0CAFDAE
:108B3000D9E600200021D6E60000E0FE422EE63F06
:108B4000763C7935EF39EA3D44523EDF12F1C23FBF
:108B5000DE03CB966446C73F599322942449D23F03
:108B6000935555555555E53F9FC678D0099AC33F53
:108B7000AF788E1DC571CC3F04FA97999999D93F6A
:108B8000555555555555D53F00005043FFFFEF7FD4
:108B90000000F03F0000E03F000050C3204614F00A
:108BA00001FC0FA3D3E900238046894614F060FC42
:108BB0000DA3D3E9002304460D464046494614F070
:108BC00057FC9AE702460B465046594614F09CFA69
:108BD000DDE9022314F04CFC14E700BFAFF3008082
:108BE0000000E0FE422EE63F763C7935EF39EA3D63
:108BF000B1F5801F2DE9F84304460D460B461ADAFD
:108C0000024621F00046324359D000295FDB0022A2
:108C10003B4B14F02DFC3B4A0D462B469342044639
:108C20006FF035010CDD22462B462046294614F014
:108C30006DFABDE8F883334A93424FF00001F2DC4D
:108C40001815A0F2FF3008444FEAD0794844C3F326
:108C5000130814F0A7FBC9F57F73033348EA0355E3
:108C600006460F4620462946FFF7CEFD1EA3D3E950
:108C70000023804689463046394614F0F9FB1CA390
:108C8000D3E9002304460D464046494614F0F0FB64
:108C900002460B462046294614F038FA16A3D3E9BB
:108CA000002304460D463046394614F0E1FB0246E7
:108CB0000B462046294614F029FABDE8F883002225
:108CC00000230020104914F0FDFCBDE8F8830246A3
:108CD0000B4614F019FA0022002314F0F3FCBDE84F
:108CE000F88300BFAFF30080362BF111F3FE593D3E
:108CF0000EE526157BCBDB3F00609F501344D33F2E
:108D000000005043FFFFEF7F000050C30000000051
:108D10002DE9F04F23F0004757EA020493B037D013
:108D2000674C21F00046A64283460D4629DC9A4650
:108D3000964625D0A74224DC614CA74279D0002D6D
:108D400080468946CDE9002377DB0024BEF1000F81
:108D50002CD15B4B9F4200F08B805A4B9F4261D0DD
:108D6000BAF1804F00F0C383574B9A451ED1002DB6
:108D70001CDB4046494613B0BDE8F04F13F038B94C
:108D800058B106F1404606F5801656EA0B0306D1A7
:108D90004C49002013B0BDE8F08FB742CCDD4B4802
:108DA00013B0BDE8F04F13F0B3BF0024404649466E
:108DB00012F05AFABBF1000F19D126B1414B25F040
:108DC00040429A4213D1BAF1000FC0F2CA83002D7B
:108DD000E0DA06F1404606F5801656EA040300F094
:108DE000A584012CD6D101F100431946D2E7ED0F3D
:108DF000013D54EA05034ED0354B9F426EDD03F131
:108E000004739F4240F3FE83324B9E424EDDBAF123
:108E1000000F4EDD28A3D3E900231046194614F0B5
:108E200027FBB7E7BAF1000FC0F25284404649462B
:108E3000B0E7BEF1000F82D0A3E7274B9F4228DCAA
:108E4000A3F154739F4280DD3B15A3F2FF33142B33
:108E500040F35484C3F134032EFA03F202FA03F30D
:108E60009E457FF472AF02F00102C2F102046DE789
:108E700006F1404303F5801353EA0B0388D0154BEA
:108E80009E4240F33B83BAF1000F12DBDDE90001A3
:108E900080E702245AE742464B461046194614F032
:108EA00033F902460B4614F00DFC73E7BAF1000FDC
:108EB000B0DB002000216DE79C7500883CE4377E24
:108EC0000000F07F0000F03F0000E03F14EF0300DF
:108ED0000000E041FFFFEF3FFFFF3F43B6F5801F7B
:108EE0004FF0000205DAD84B14F0C2FA6FF03402EA
:108EF0000E463315D54FC6F31306A3F2FF331344C2
:108F000046F07F5ABE421A460D934AF4401A40F387
:108F10002F83CF4B9E4240F30D849FEDB57B8DEDAB
:108F2000087B8DED0E7B9FEDB47B13468DED067BAC
:108F300001330D93AAF5801A0027DDE90623514677
:108F4000CDE90A0114F0E0F8DDE906238046894600
:108F5000DDE90A0114F0DAF802460B460020BD49AB
:108F600014F0B0FB0A460146CDE9101213464946FB
:108F70000246404614F07CFA4FEA6A0343F000537D
:108F80008C46834603F50023CDE904BCDA468B46C4
:108F9000D9190023CDE902AB0293DDE902AB002031
:108FA00006460F4602460B465046594614F060FAF4
:108FB00002460B464046494614F0A6F8DDE9062372
:108FC000804689463046394614F09EF802460B46E4
:108FD000DDE90A0114F098F852465B4614F048FAAD
:108FE00002460B464046494614F08EF8DDE9102350
:108FF00014F03EFADDE90467CDE9060132463B464E
:109000003046394614F034FA7DA3D3E900230646EE
:109010000F4614F02DFA7CA3D3E9002314F076F860
:1090200032463B4614F024FA79A3D3E9002314F026
:109030006DF832463B4614F01BFA77A3D3E90023C0
:1090400014F064F832463B4614F012FA74A3D3E9E4
:10905000002314F05BF832463B4614F009FA72A381
:10906000D3E9002314F052F83246804689463B4645
:109070003046394614F0FCF902460B464046494654
:1090800014F0F6F9524606460F465B46DDE9040148
:1090900014F03CF8DDE9062314F0EAF932463B46C9
:1090A00014F034F85246804689465B46504659468D
:1090B00014F0DEF90022684BCDE90A0114F026F81D
:1090C00042464B4614F022F802980F4606463246B6
:1090D0003B465046594614F0CBF9002282468B4657
:1090E0005D4B3046394614F00FF8DDE90A2314F0E1
:1090F0000BF802460B464046494614F005F8DDE9F8
:10910000042314F0B5F93246804689463B46DDE932
:10911000060114F0ADF902460B464046494613F0ED
:10912000F5FF8046894602460B4650465946CDE932
:1091300004AB13F0EBFFDDE902AB3DA3D3E9002361
:1091400050460F4614F094F9DDE90423CDE90201FD
:109150003946504613F0D8FF02460B464046494672
:1091600013F0D2FF34A3D3E9002314F081F934A320
:10917000D3E90023804689465046394614F078F9F1
:1091800002460B464046494613F0C0FFDDE90E2378
:1091900013F0BCFF80460D98894614F003F942464F
:1091A00006460F464B46DDE9020113F0AFFFDDE94D
:1091B000082313F0ABFF32463B4613F0A7FF3246BD
:1091C0003B4650468B4613F09FFFDDE9082313F022
:1091D0009BFFDDE9022313F097FF02460B46404652
:1091E000494613F091FF8046894637E0AFF300808F
:1091F0000000000000000000000000000000F03F40
:10920000EF4E454A287ECA3F65DBC9934A86CD3F6B
:1092100001411DA96074D13F4D268F515555D53F51
:10922000FFAB6FDBB66DDB3F033333333333E33FE9
:10923000000000E009C7EE3FFD033ADC09C7EE3F3E
:10924000F5015B14E02F3EBE000040438E98030002
:1092500079B60B000000F03F00000840013C54EAE2
:10926000050300F079819FEDC87B8DED047BDDE97E
:1092700000120B461446CDE9023400230293DDE9C7
:10928000024508462B461146224613F03DFF524642
:109290005B4614F0EDF8DDE9002306460F46404634
:1092A000494614F0E5F802460B463046394613F0BD
:1092B0002DFF2246804689462B4650465946CDE929
:1092C000008914F0D5F80B46024606460F46404684
:1092D000494613F01BFFC64B994204460D468A4689
:1092E00040F3168101F13F4303F5E003034340F0EF
:1092F000F781A7A3D3E90023DDE9000113F006FFFE
:109300003246804689463B462046294613F0FCFEFD
:1093100002460B464046494614F03AFB002840F00E
:10932000DF81A8464FEA28534FF48012A3F2FE33A0
:1093300042FA03F35344C3F30A52AE4DA2F2FF3292
:109340001541C3F3130423EA05010020C2F1140BF5
:1093500044F48014BAF1000F02460B4644FA0BFBAA
:1093600030463946B8BFCBF1000B13F0CDFE0246B4
:109370000B4606460F46DDE9000113F0C7FE4FEA33
:109380000B5A0D46002484A3D3E900232046294626
:1093900014F06EF83246804689463B462046294600
:1093A00013F0B2FE02460B46DDE9000113F0ACFEFD
:1093B0007BA3D3E9002314F05BF87BA3D3E900235C
:1093C00006460F462046294614F052F802460B4640
:1093D0003046394613F09AFE06460F4602460B46C3
:1093E0004046494613F092FE42464B4604460D461F
:1093F00013F08AFE02460B463046394613F084FECF
:109400002246804689462B462046294614F030F8ED
:1094100067A3D3E9002306460F4614F029F866A394
:10942000D3E9002313F070FE32463B4614F020F8D7
:1094300063A3D3E9002313F069FE32463B4614F0E0
:1094400017F861A3D3E9002313F05EFE32463B46D2
:1094500014F00EF85EA3D3E9002313F057FE324652
:109460003B4614F005F802460B462046294613F009
:109470004BFE06460F4602460B462046294613F091
:10948000F7FF0022CDE900014FF080433046394616
:1094900013F03AFE02460B46DDE9000114F012F922
:1094A000424606460F464B462046294613F0E0FF4B
:1094B00042464B4613F02AFE02460B4630463946DA
:1094C00013F022FE22462B4613F01EFE02460B46E8
:1094D0000020494913F018FE8A44BAF5801FC0F2F3
:1094E00039815146DDE9042313F0C2FF52E44246BC
:1094F0004B464046494613F0BBFF4BE4BAF1000F20
:10950000BFF6D7ACDDE90034184604F1004141E470
:109510003A4B21F00048984540F3FF80384B0B440C
:1095200003430CD132463B4613F0EEFD02460B4698
:10953000DDE9000114F018FA00283FF4F3AEDDE98C
:10954000040125A3D3E9002313F092FF22A3D3E95A
:10955000002313F08DFF1DE49FED217B8DED047B37
:1095600085E602460B460020234914F0ABF82EE4B2
:109570009FED1D7B8DED087B8DED0E7B9FED027BBE
:1095800000278DED067BD8E4000000000000F03FCE
:10959000FE822B654715973C00000000432EE63FF6
:1095A000EF39FAFE422EE63F396CA80C615C20BE12
:1095B000D0A4BE726937663EF16BD2C541BDBB3ED9
:1095C0002CDE25AF6A56113F93BDBE166CC1663FB7
:1095D0003E5555555555C53F59F3F8C21F6EA50167
:1095E000000000000000F0BF0000000000000000CC
:1095F000FFFF8F40FFFF0F000000F03FFFCB9040C8
:1096000000346F3F684B9E427FF750AC674B9E42E1
:109610003FF7FDAB0022654B13F076FD52A3D3E973
:10962000002306460F4613F023FF51A3D3E900237E
:10963000804689463046394613F01AFF002282469A
:109640008B465B4B3046394613F012FF02460B4601
:1096500049A1D1E9000113F057FD32463B4613F012
:1096600007FF02460B460020524913F04DFD3246DB
:10967000CDE902013B463046394613F0F9FE024679
:109680000B46DDE9020113F0F3FE3DA3D3E900230D
:1096900013F0EEFE02460B465046594613F034FDD9
:1096A00002460B4606460F464046494613F02EFD3D
:1096B00042464B46002082468B4613F025FD02466B
:1096C0000B463046394613F01FFD80468946C5E5F6
:1096D00042464B460020354913F0F4FFFFF75ABBD2
:1096E000DDE9040128A3D3E9002313F0C1FE26A37A
:1096F000D3E9002313F0BCFEFFF74CBBBEF1000F13
:109700007FF453ABC3F1140347FA03F202FA03F3F5
:109710009F4223D07446FFF720BB264B98453FF766
:1097200001AEDDE90223924693462BE602460B4644
:10973000FFF7B3BB9FED167B8DED087B9FED167B8E
:109740008DED0E7B9FED167B4FF480278DED067B14
:10975000FFF7F3BB5A4601F04FFDC3E602F00102EA
:10976000C2F10204FFF7F9BA000000604715F73FA5
:1097700044DF5DF80BAE543E555555555555D53F14
:10978000FE822B654715F73F9C7500883CE4377EC9
:109790000000004003B8E23F06D0CF43EBFD4C3E53
:1097A000000000000000F83FFEFFEF3F0000F03F28
:1097B0000000D03F0000E03F2DE9F0479C4B21F036
:1097C00000479F4290B08046894640F38E80994B77
:1097D0009F420C46924626DC00298BA3D3E9002346
:1097E00040F3B08113F090FC934B9F4204460D462A
:1097F00000F0908086A3D3E9002313F085FC024695
:109800000B46CAE900232046294613F07DFC80A3BD
:10981000D3E9002313F078FC0125CAE902012846A8
:1098200010B0BDE8F087854B9F4240F39080844B99
:109830009F4265DC3D15A5F21645A7EB0553194679
:109840001F46064614F0C4F813F0ACFD8046894666
:1098500042464B4630463946CDE90A8913F054FC5E
:109860000022784B13F004FE8946804614F0B0F8CD
:1098700013F098FD06460F4632463B4640464946A1
:10988000CDE90C6713F040FC00226E4B13F0F0FDA5
:1098900000220023CDE90E0114F052F8002800F058
:1098A0006F81002330463946002214F049F8002821
:1098B00014BF01230223644A019202212A46009127
:1098C0000AA8514600F08CFB002C054614DADAF8A1
:1098D0000420DAF80C3002F1004203F10043454263
:1098E000CAF80420CAF80C3006E000200021C2E9C2
:1098F0000089C2E902010025284610B0BDE8F087C2
:1099000002460B4613F000FC0025CAE90201CAE931
:109910000001F1E740A3D3E9002313F0F5FB40A3D6
:10992000D3E900230D46044613F0EEFB02460B4636
:10993000CAE900232946204613F0E6FB38A3D3E901
:10994000002313F0E1FB0125CAE90201D4E711F07D
:109950008BFC35A3D3E900238046894613F088FDAC
:1099600000223A4B13F0D2FB14F032F8054613F004
:1099700019FD25A3D3E90023CDE9060113F078FDF5
:1099800002460B464046494613F0BEFB20A3D3E9EE
:109990000023CDE90201DDE9060113F069FD1F2D69
:1099A00080468946CDE9048954DC294B6A1E53F868
:1099B00022309F424ED002460B46DDE9020113F0F1
:1099C000A3FB80468946CAE9008942464B46DDE949
:1099D000020113F099FBDDE9042313F095FB002C41
:1099E000CAE9020188DA09F1004401F100436D423D
:1099F000CAF80080CAF80440CAF80800CAF80C3057
:109A00007AE700BFAFF3008000004054FB21F93F2C
:109A10003163621A61B4D03D0000601A61B4D03D78
:109A20007370032E8A19A33B83C8C96D305FE43F6E
:109A3000FB21E93F7BD90240FB21F93FFB21394162
:109A4000FFFFEF7F00007041E4F803000000E03FFB
:109A500064F80300DDE90423DDE9020113F054FB9F
:109A60003F15C1F30A53FB1A80468946102BCAE9F9
:109A70000089AADD58A3D3E90023DDE9060113F02C
:109A8000F7FC8046894602460B46DDE9020113F0E9
:109A90003BFB02460B46DDE90201CDE9082313F04A
:109AA00033FB42464B4613F02FFB4DA3D3E9002373
:109AB00080468946DDE9060113F0DAFC42464B4652
:109AC00013F022FB0B46CDE904010246DDE9080153
:109AD00013F01AFBC1F30A53FF1A80468946312F4F
:109AE000CAE900896CDD41A3D3E90023DDE9060161
:109AF00013F0BEFCDDE9088906460F4602460B4618
:109B00004046494613F000FB02460B464046494694
:109B1000CDE9022313F0F8FA32463B4613F0F4FA8B
:109B200034A3D3E9002306460F46DDE9060113F00E
:109B30009FFC32463B4613F0E7FA02460B46CDE95E
:109B400004233AE713F0E2FA274B9F4204460D46FE
:109B500018D01FA3D3E9002313F0D8FA02460B460E
:109B6000CAE900232946204613F0CEFA18A3D3E908
:109B7000002313F0CBFA4FF0FF35CAE90201BBE630
:109B8000032398E614A3D3E9002313F0BFFA14A328
:109B9000D3E900230D46044613F0B8FA02460B46FB
:109BA000CAE900232946204613F0AEFA0CA3D3E9F4
:109BB000002313F0ABFA4FF0FF35CAE902019BE630
:109BC0009DED087B8DED027BFFE600BFAFF30080CB
:109BD0003163621A61B4D03D0000601A61B4D03DB7
:109BE0007370032E8A19A33BFB21F93F0000002E5E
:109BF0008A19A33BC14920259A837B3900000000C4
:109C0000594A2DE9F84F21F00048904506460F4685
:109C10002BDC564B0029B4BF554D564D98454FF09F
:109C2000000410DC544B984570DC4DA3D3E90023AD
:109C300013F06CFA0022514B13F0AAFED8B1304653
:109C40003946BDE8F88F4E4B98457CDD4D4B984525
:109C500044DD013398453ED03046394640A3D3E930
:109C6000002313F005FCBDE8F88F02460B4613F005
:109C70004DFABDE8F88F3046394611F0F5FA01F09B
:109C80007FF806460F4632463B463046394613F0CB
:109C90003DFA324682468B463B463046394613F003
:109CA000E7FB002280468946344B3046394613F0A4
:109CB0002DFA02460B464046494613F003FD024684
:109CC0000B465046594613F01FFA22462B4613F016
:109CD000CFFBBDE8F88F2C4B9842BDD830463946B3
:109CE00011F0C2FA0022234B13F0C2FBFEF714FC62
:109CF00006460F4602460B462046294613F0B8FB9F
:109D000032463B4613F0B4FBBDE8F88F11F0ACFAD5
:109D100001F036F81D4B984506460F46B3DD00228C
:109D2000164B13F0F3F902460B463046394613F052
:109D3000C9FC32463B4613F0E9F922462B4613F0A4
:109D400097FBBDE8F88F11F08FFAFEF7E5FB0246AE
:109D50000B462046294613F08BFBBDE8F88F00BF69
:109D60003374AC3C1F7BAC7FFFFFEF7FFFFF3540C0
:109D70000000E0BF0000E03FFFFF2F3E0000F03F8B
:109D8000412E8640CD3386407DF8B98FFFFFEF3FEF
:109D90002DE9F04F21F00048B8F1795F85B0064613
:109DA0000F4692469B466BDA13F012FE002800F035
:109DB000EA8032463B463046394613F059FB74A3DD
:109DC000D3E9002304460D4613F052FB72A3D3E9F6
:109DD000002313F09BF922462B4613F049FB70A396
:109DE000D3E9002313F090F922462B4613F040FBF1
:109DF0006DA3D3E9002313F089F922462B4613F013
:109E000037FB6BA3D3E9002313F07EF922462B46E0
:109E100013F02EFB68A3D3E9002313F077F9224651
:109E20002B4613F025FBCDE900010022664B2046AE
:109E3000294613F01DFBDDE90023804689462046B4
:109E4000294613F015FB524604460D465B46304644
:109E5000394613F00DFB02460B462046294613F007
:109E600053F902460B464046494613F04DF9024667
:109E70000B460020554913F047F905B0BDE8F08FB7
:109E800002460B4613F0F4FA41A3D3E9002304463B
:109E90000D4613F0EDFA40A3D3E9002313F036F991
:109EA00022462B4613F0E4FA3DA3D3E9002313F036
:109EB0002BF922462B4613F0DBFA3BA3D3E9002310
:109EC00013F024F922462B4613F0D2FA38A3D3E933
:109ED000002313F019F922462B4613F0C9FA36A3D2
:109EE000D3E9002313F012F92B46224613F0C0FAEF
:109EF000374B9845CDE9000197DD364B984539DC65
:109F0000A8F500130022002030499046994613F02E
:109F1000FBF8CDE9020100222B4B2046294613F025
:109F2000A7FA42464B4613F0EFF8DDE900238046DE
:109F300089462046294613F09BFA524604460D46B0
:109F40005B463046394613F093FA02460B462046EC
:109F5000294613F0D9F802460B464046494613F00D
:109F6000D3F802460B46DDE9020113F0CDF805B047
:109F7000BDE8F08F9FED127B4FF000088DED027B66
:109F8000DFF85490C7E71149002005B0BDE8F08F15
:109F9000D43888BEE9FAA8BDC4B1B4BD9EEE213E56
:109FA000AD529C804F7E923E9015CB19A001FA3E97
:109FB0007751C1166CC1563F4C5555555555A53F67
:109FC000000000000000E73F0000E03F0000F03F1D
:109FD0003233D33F0000E93F0000D23F00000000D1
:109FE0002DE9F04FADF51B7D9F4CA49E9F4D54F87D
:109FF000264007942646D41E85FB0475E417C4EB5F
:10A00000A50424EAE4741D460A93631CA3EB8303AE
:10A01000013D02EBC30306932B460B940395651B8E
:10A02000F418049008911AD42C4400260027013417
:10A030000DF18808DDF8949208E059F8250013F036
:10A04000B1F90135A542E8E8020108D0002DF4DAA3
:10A05000013530463946A542E8E80201F6D1079BB2
:10A06000002BC0F2DF83079B03F1010B0A9B22A99F
:10A07000DB001A4601EB03090093049B0DF5E47A1B
:10A0800019460AEBCB0B01EB0208039B002BC0F235
:10A09000F582049C4D460026002775E90223F4E86A
:10A0A000020113F0E5F902460B463046394613F03B
:10A0B0002DF8444506460F46EFD1EAE80267DA4537
:10A0C00009F10809E1D107990098049C009101F178
:10A0D0008043013B9B0020441A1F83460EA8024484
:10A0E00003440C920D93009A9AA901EBC203002A33
:10A0F00053E9284529DD0DF5E47A0AEBC2080DF194
:10A10000340900225A4B2046294613F0B1F913F0C6
:10A110005FFC13F047F90022564B06460F4613F03A
:10A12000A7F902460B462046294612F0EDFF13F030
:10A130004FFC78E9022349F8040F3946304612F003
:10A14000E5FFD04504460D46DBD1DDF818902046EA
:10A1500029464A4601F050F800224FF07F5304464A
:10A160000D4613F085F9FCF75FFD0022424B13F01A
:10A170007FF902460B462046294612F0C5FF0D46E0
:10A18000044613F025FC804613F00CF90B460246FA
:10A190002946204612F0B8FF4B46002B06460F46D4
:10A1A00040F3F980009A0EA9013AC9F1180351F859
:10A1B000225045FA03F101FA03F30EA8EB1A40F816
:10A1C0002230C9F11705884443FA05F5002D6DDDED
:10A1D000009B002B08F1010840F36F820E9C002CBD
:10A1E00040F01683009B012B40F38F820EAA0123BF
:10A1F00052F8044F002C00F08382581C0EAAC4F1C0
:10A20000807442F82340009A824219DD0EAA0EACF7
:10A2100052F820106FF07F42511A44F82010009934
:10A22000023399420CDD1046009A0EA901EB83031C
:10A2300001EB82011A68821A43F8042B8B42F9D190
:10A24000069B002B1ADD069B012B4FF0010440F00A
:10A250003C82009B5A1E0EAB0EA953F82230C3F36A
:10A26000160341F822303CE284FD0300ABAAAA2A7F
:10A270000000703E0000704100002040022D15D10A
:10A2800032463B460020924912F03EFF06460F46FA
:10A29000069A8F49002000F0AFFF02460B46304679
:10A2A000394612F031FF022506460F4600220023F0
:10A2B0003046394613F044FB002800F03782009AFC
:10A2C000079B501E83420FDC02F18043013B0EAA24
:10A2D0000D9C02EB8303002253F80419A34242EAC7
:10A2E0000102F9D1002A67D1079B0EAA013B52F85F
:10A2F0002330002B40F018820C9A012352F80419E5
:10A3000001330029FAD0009AD31802F1010A9A45C4
:10A3100009933DDC009B0A990B9A0B4409990AEBBF
:10A320000208994622AB08F1804803EBC9098B1853
:10A33000A59A08F1FF3802EB880872AA02EBCA0A54
:10A34000A59A02EB8303009358F8040F13F02AF840
:10A35000039B002BE9E802014FF000064FF00007D5
:10A3600011DB049C4D4675E90223F4E8020113F069
:10A370007FF802460B463046394612F0C7FE5C4570
:10A3800006460F46EFD1009B9845EAE80267DBD10D
:10A39000099B0093A7E606D1009B0EAA013B52F849
:10A3A0002350ED1512E700224A4B13F0E7FA00287C
:10A3B00040F06E81054679E70EA9039551F82030EB
:10A3C0000699CDF8248018390246009006916BB9A1
:10A3D00000F18043013B0EA800EB830353F804090E
:10A3E000013A18390028F9D000920691069A3849A6
:10A3F000002000F001FF009B002B04460D46C0F238
:10A40000F781DA0072A901EB020B06920EAA02EBA9
:10A410008306DFF8C4904FF000080BF108070436FC
:10A4200056F8040D12F0BEFF22462B4613F020F81A
:10A430004B4667E9020142462046294613F018F8C8
:10A440000EAB9E4204460D46EAD14AACDDF81C90A4
:10A4500004944FF0000AB9F1000FC0F22B81DFF82D
:10A460007C805D4618A1D1E9000100260027002468
:10A4700003E0544510DCF8E80201F5E8022312F08D
:10A48000F7FF02460B463046394612F03FFE0134D4
:10A49000A14506460F46ECDA049B03EBCA03ABF179
:10A4A000080BC3E9006770AB9B450AF1010AD2D1E2
:10A4B000A49B049C032B00F28980DFE803F0C58E87
:10A4C0008E1100BFAFF3008000000040FB21F93F78
:10A4D0000000F03F0000E03F0000703E18E703007E
:10A4E000009B002B40F38181069A04EB020ADAE913
:10A4F000008902F1080525440DF5987B1AED027BD1
:10A5000042464B4651EC170B8DED047B12F0FEFDDD
:10A5100006460F4602460B46DDE9040112F0F4FD43
:10A5200042464B4612F0F2FD65E902015D45B04638
:10A53000B9466AE90267E1D1009B012B40F35581DE
:10A54000069BE518D5E9008903F1080B04EB0B0A1B
:10A5500015ED027B42464B4651EC170B8DED007B0F
:10A5600012F0D4FD06460F4602460B46DDE9000117
:10A5700012F0CAFD4B46424612F0C8FD6AE90201DC
:10A580004EAB5345B046B94665E90267E0D10020BD
:10A59000002104EB0B0575E9022312F0B7FDAA4573
:10A5A000F9D1039B002B00F00A816268E368089FE1
:10A5B0002568A4683D6002F1004203F1004301F107
:10A5C00000417A60FB60BC6038617961099B03F0EF
:10A5D00007000DF51B7DBDE8F08F069D083525446D
:10A5E0000020002175E9022312F090FDA542F9D167
:10A5F000039B002B00F0D280089E024601F100432D
:10A6000086E80C000B460246D4E9000112F07CFDFE
:10A61000009B002B0BDD4CAD0124F5E8022312F06A
:10A6200075FD009B0134A342F7DA039B13B101F1DE
:10A6300000431946089BC3E90201099B03F0070088
:10A640000DF51B7DBDE8F08F069D0835002000212B
:10A65000254475E9022312F059FDAC42F9D1039B60
:10A6600013B101F100431946089BC3E90001099B9E
:10A6700003F007000DF51B7DBDE8F08F00260027D5
:10A68000EAE80267DA4509F108097FF4FEAC1AE549
:10A69000009B002B08F10108C8BF02253FF79EADC3
:10A6A00032463B460020614912F02EFD0225064647
:10A6B0000F46FBE500260027EEE6069B002B27DD74
:10A6C0000024069B012B3FF4C4AD022B09D1009B53
:10A6D0005A1E0EAB0EA953F82230C3F3150341F8EE
:10A6E0002230022D7FF4E2AD32463B4600204F4936
:10A6F00012F00AFD06460F46002C3FF4D7ADC7E521
:10A700000099013399427FF473AD069B002BD8DC8E
:10A71000022D7FF4CBAD32463B460020434912F078
:10A72000F3FC06460F46C1E50123ECE53946069FDA
:10A7300003957A423046CDF8248000F05DFD00227A
:10A740003B4B04460D4613F019F9002843D0002274
:10A75000384B2046294612F08BFE13F039F9064695
:10A7600012F020FE0022324B12F082FE02460B460F
:10A770002046294612F0C8FC13F02AF900990B462E
:10A7800001331A4600933B46183306930B460EA935
:10A7900041F82300134641F8236027E6089B024650
:10A7A000C3E900010B46D4E9000112F0ADFC009BA7
:10A7B000002B3FF730AF089BC3E902013DE7D4E926
:10A7C0000067D4E90223089DC5E90401C5E90067D3
:10A7D000C5E90223FAE62946204613F0F9F8009A63
:10A7E0000EA941F8220001E64AAC00200021D8E67B
:10A7F000A49B032B3FF6EAAE01A252F823F000BF60
:10A800001FA8020017A8020017A80200E9A702006B
:10A8100001200023F2E4002000214AACE8E60020F9
:10A8200000211CE70A9BDB0000934CE40000F03F92
:10A83000000070410000703E2DE9F04F21F000460D
:10A84000B6F1795F85B004460D469046994604DA24
:10A8500013F0BEF8002800F0858022462B462046E3
:10A86000294612F005FE06460F4602460B462046D4
:10A87000294612F0FDFD41A3D3E9002382468B4611
:10A880003046394612F0F4FD3EA3D3E9002312F01E
:10A890003BFC32463B4612F0EBFD3CA3D3E90023E0
:10A8A00012F034FC32463B4612F0E2FD39A3D3E904
:10A8B000002312F029FC32463B4612F0D9FD37A3A3
:10A8C000D3E9002312F022FC0E9BCDE900019BB3DB
:10A8D0000022294B4046494612F0CAFDDDE900231B
:10A8E000CDE902015046594612F0C2FD02460B4620
:10A8F000DDE9020112F008FC32463B4612F0B8FDD9
:10A9000042464B4612F000FC19A3D3E90023064649
:10A910000F465046594612F0ABFD02460B463046F4
:10A92000394612F0F3FB02460B462046294612F048
:10A93000EBFB05B0BDE8F08F02460B4630463946CA
:10A9400012F096FD0AA3D3E9002312F0DDFB524674
:10A950005B4612F08DFD22462B4612F0D7FB05B068
:10A96000BDE8F08F2046294605B0BDE8F08F00BF56
:10A97000495555555555C53F0000E03F7CD5CF5A48
:10A980003AD9E53DEB9C2B8AE6E55A3E7DFEB15770
:10A99000E31DC73ED561C119A0012A3FA6F81011D9
:10A9A0001111813F000000002DE9F04FBE4C21F055
:10A9B000004687B0A64282468B460F46CDE900236B
:10A9C0001BDC13F005F8002837D153461E43109BBB
:10A9D0000133334300F0B381109B012B00F0C88199
:10A9E00052465B460020B14912F06CFE04460D460B
:10A9F0002046294607B0BDE8F08FAD4B9E421CDDD6
:10AA00000029C0F2A98152465B4687A1D1E9000125
:10AA100012F07AFBDDE9002304460D4684A1D1E95A
:10AA2000000112F071FB9FED847B22462B468DEDD9
:10AA3000007B12F06BFB82468B4652465B465046CB
:10AA4000594612F015FD02460B468046894612F023
:10AA50000FFD424604460D464B465046594612F0FD
:10AA600007FD77A3D3E90023CDE90201204629465B
:10AA700012F0FEFC74A3D3E9002312F047FB224638
:10AA80002B4612F0F5FC72A3D3E9002312F03EFB33
:10AA900022462B4612F0ECFC6FA3D3E9002312F000
:10AAA00035FB22462B4612F0E3FC6DA3D3E90023CD
:10AAB00012F02CFB22462B4612F0DAFC6AA3D3E9F3
:10AAC000002312F023FB42464B4612F0D1FC68A350
:10AAD000D3E90023CDE904012046294612F0C8FC41
:10AAE00065A3D3E9002312F011FB22462B4612F096
:10AAF000BFFC63A3D3E9002312F008FB22462B46D8
:10AB000012F0B6FC60A3D3E9002312F0FFFA22464C
:10AB10002B4612F0ADFC5EA3D3E9002312F0F6FA47
:10AB200022462B4612F0A4FC5BA3D3E9002312F0CB
:10AB3000EDFA02460B46DDE9040112F0E7FADDE921
:10AB4000022312F095FCDDE9004522462B4612F067
:10AB5000DDFA42464B4612F08BFC02460B4620467D
:10AB6000294612F0D3FA4EA3D3E9002304460D463A
:10AB7000DDE9020112F07CFC22462B4612F0C6FAF7
:10AB80000B460246804689465046594612F0BEFAA8
:10AB9000474B9E4204460D4600F38E80109B012BCE
:10ABA0003BD002460B460020404912F08BFD0024AA
:10ABB00006460F462046294652465B46CDE90067C9
:10ABC000CDE90201009412F09FFADDE900AB0246E4
:10ABD0000B464046494612F097FA52465B4612F041
:10ABE00047FC524604460D465B46DDE9020112F081
:10ABF0003FFC00222F4B12F089FA02460B462046FA
:10AC0000294612F083FA32463B4612F031FC524696
:10AC10005B4612F07BFA04460D462046294607B0F3
:10AC2000BDE8F08FAFF30080182D4454FB21E93FBD
:10AC3000075C143326A6813C0000000000000000E1
:10AC4000D47ABF74702AFB3EE9A7F0320FB8123FE6
:10AC500068108D1AF726303F1583E0FEC8DB573F9A
:10AC600093846EE9E326823FFE41B31BBAA1AB3F5A
:10AC7000735360DBCB75F3BEA69237A0887E143F7A
:10AC80000165F2F2D844433F280356C9226D6D3F57
:10AC900037D60684F464963F7AFE10111111C13F35
:10ACA000635555555555D53FFFFF2F3E0000F0BF6A
:10ACB0002794E53F0000F03F109812F073FB224606
:10ACC000CDE900012B462046294612F0D1FBDDE9F3
:10ACD0000023CDE902012046294612F017FA024668
:10ACE0000B46DDE9020112F0EDFC42464B4612F044
:10ACF0000BFA02460B465046594612F005FA024638
:10AD00000B4612F003FA02460B46DDE9000112F091
:10AD1000FBF90446B81700F00200C0F101000D462F
:10AD200012F040FB02460B462046294612F0A0FBDB
:10AD300004460D462046294607B0BDE8F08F504630
:10AD4000594610F091FA02460B4600200A4912F0CB
:10AD5000B9FC04460D4660E7DDE9004501F100411C
:10AD6000224605F1004382468B46CDE900234AE6A0
:10AD700054465D4651E700BF0000F03F0000000070
:10AD80002DE9F04FD24A21F00043934285B082462C
:10AD90008B460C462DD9CF4A93421AD8002C80F20C
:10ADA0001681B5A3D3E900235046594612F0AEF9F7
:10ADB0000022002312F0CEFDC0B9B1A3D3E90023D5
:10ADC0005046594612F054FB02460B460020C24939
:10ADD00008E1C24A934240F2D0800346C1F3130215
:10ADE000134340F0F481002980F2C4800020BC4964
:10ADF000C0E0BC4A934200F22981BB4A934240F230
:10AE0000DE80002301930022B84B5046594612F0D1
:10AE10002FFB06460F4602460B465046594612F097
:10AE200027FB99A3D3E9002304460D4612F020FB2B
:10AE300097A3D3E9002312F069F922462B4612F0BA
:10AE400017FB95A3D3E9002312F05EF922462B46A7
:10AE500012F00EFB92A3D3E9002312F057F9224619
:10AE60002B4612F005FB90A3D3E9002312F04CF916
:10AE700022462B4612F0FCFA00229D4B12F046F9B6
:10AE80008046894602460B463046394612F0F0FAB3
:10AE900002460B460020974912F036F90646024654
:10AEA0000B460F464046494612F02EF93246804680
:10AEB00089463B465046594612F0DAFA02460B469E
:10AEC00000208D4912F020F902460B4640464946C3
:10AED00012F0F8FB22462B4612F0CAFA019E0246F7
:10AEE0000B46002E38D0DDE9026732463B4612F0B1
:10AEF0000BF952465B4612F0BBFA32463B4612F063
:10AF000003F92B46224612F0FFF8019B0133064657
:10AF10000F4600F00F81019B012B00F0F180019B97
:10AF20000133392B39D8019B132B40F31281019C3B
:10AF3000C4F57F75033500222B0512F0E7F80246B1
:10AF40000B465046594612F0DFF80022684B12F0CB
:10AF5000DDF801EB04510DE05046594612F088FA35
:10AF600022462B4612F0D0F802460B465046594670
:10AF700012F0CAF805B0BDE8F08F4DA3D3E9002365
:10AF800012F006FD00283FF409AF4BA3D3E90023DC
:10AF90001046194612F06CFAECE752465B4612F086
:10AFA000B3F802460B460020514912F0ADF8019A61
:10AFB0004F4B01EB0251002212F0A6F8DAE73EA354
:10AFC000D3E9002312F0A2F802460B46CAE72CA3ED
:10AFD000D3E900235046594612F04AFA0B4643493A
:10AFE0000246002012F092F812F0F2FC019012F0EA
:10AFF000D9F933A3D3E9002306460F4612F038FAF5
:10B0000002460B465046594612F07EF82EA3D3E96D
:10B010000023804689463046394612F029FA064612
:10B020000F4632463B464046494612F06DF802460E
:10B030000B4682468B464046494612F065F832463A
:10B040003B4612F061F8CDE90201DCE62B4A93425F
:10B0500000F2958000291AA3D3E90023C0F2AC8046
:10B0600012F052F8012380468946019316A7D7E9CA
:10B070000067D6E7AFF3008059F3F8C21F6EA50151
:10B08000FE822B654715F73F2DC3096EB7FD8ABEBB
:10B090003952E686CACFD03EB7DBAA9E19CE143FFE
:10B0A0008555FE19A0015A3FF41011111111A13F4D
:10B0B000EF39FAFE422E86409C7500883CE4377ECC
:10B0C0000000E0FE422EE63F763C7935EF39EA3D5E
:10B0D00079684340412E86400000E0BFFFFFEF7FCC
:10B0E0000000F0BF422ED63FFFFF8F3C0000E03F44
:10B0F0000000F03F0000084000001840B1A2F03FFF
:10B100000022394B5046594612F024FC002844D006
:10B11000504659460022354B11F0F8FF02460B46C7
:10B120003046394611F0F0FF00224FF0404312F054
:10B130009FF91FE702460B465046594611F0E4FFBF
:10B1400000222A4B12F094F90022284B11F0DCFF68
:10B1500010E7019C4FF400132341C3F17F5752467F
:10B160005B4611F0D1FF002607F5401702460B465B
:10B170003046394611F0C8FF01EB0451FAE616A338
:10B18000D3E9002312F074F9002C02460B464FF06D
:10B190000000FFF61CAE154924E732463B465046F8
:10B1A000594611F0B1FF02460B4611F0AFFF0022E5
:10B1B0000F4B11F0ABFFDDE611F0A8FF4FF0FF33AE
:10B1C00080468946019306A7D7E9006729E702462A
:10B1D0000B4611F09BFFCDE6FE822B654715F73F2E
:10B1E000763C7935EF39EABD0000D0BF0000E03F82
:10B1F0000000F03F00000000F8B5C1F30A56044615
:10B200000D460B4617460EBB21F00043034386460E
:10B2100025D00022344B12F02BF9344A97420446D1
:10B220000D460B462ADBC1F30A56363E3E4440F239
:10B23000FE72964228DC002E12DD23F0FF4323F439
:10B24000E00343EA065520462946F8BD40F2FF7266
:10B250009642EBD102460B4611F058FFF8BDF8BDFF
:10B2600016F1350F1DDA4CF250339F4222462B4621
:10B2700025DC19A1D1E9000111F0B8FE16A3D3E92C
:10B28000002312F0F5F8F8BD22462B4614A1D1E9AF
:10B29000000111F0ABFE12A3D3E9002312F0E8F88D
:10B2A000F8BD23F0FF4323F4E003363643EA0655A6
:10B2B0002046294600220E4B12F0DAF8F8BD08A10C
:10B2C000D1E9000111F092FE05A3D3E9002312F0A9
:10B2D000CFF8F8BDAFF3008059F3F8C21F6EA50197
:10B2E0009C7500883CE4377E00005043B03CFFFF73
:10B2F0000000903C10B5054C237833B9044B13B1D2
:10B300000448AFF300800123237010BD1085002096
:10B3100000000000DCFE03000C4B43B10C480D495B
:10B3200010B5AFF300800C48036823B910BD0A487C
:10B33000036833B97047094B002BF7D0BDE81040C4
:10B340001847064B002BF5D0184700BF000000003F
:10B35000DCFE0300148500201082002000000000A5
:10B36000154B002B08BF134B9D46A3F5803A0021D7
:10B370008B460F461348144A121A08F079F90F4BFE
:10B38000002B00D098470E4B002B00D09847002090
:10B39000002104000D000D48002802D00C48AFF336
:10B3A000008011F059FE2000290005F0A1F911F0EC
:10B3B0003FFE00BF00000800000004200000000065
:10B3C0000000000000840020808C002000000000AD
:10B3D0000000000070B504460E4600F0D1F888B1B8
:10B3E0000368DB6A05469847082C0CD0A4F10903D2
:10B3F000012B14D93246214610230D20BDE87040A0
:10B4000004F0A8B870BD2B6828465B6A98470228EC
:10B41000F0DC2B6828461B6A04219847EAE72B6872
:10B4200028465B6A98470528E4DC2B6828461B6A97
:10B4300008219847DEE700BF30B52DED028B83B0C1
:10B44000054600F09DF8044640B10368DB6A984762
:10B45000032D50D8DFE805F0373F470801900198E9
:10B4600003B0BDEC028B30BD20460BF055FC07EE5F
:10B47000900A2046F8EEE78A0BF05EFC07EE900A91
:10B480002046B8EEE78A0BF067FC68EE087A07EE14
:10B49000100AE8EEA87AB8EEC77AE7EE077AF5EE7A
:10B4A000407AF1EE10FAB1EEE78A03D517EE900A72
:10B4B00010F026FCFDEEC87ACDED017A019803B0BC
:10B4C000BDEC028B30BD204603B0BDEC028BBDE865
:10B4D00030400BF021BC204603B0BDEC028BBDE830
:10B4E00030400BF029BC204603B0BDEC028BBDE818
:10B4F00030400BF031BC00230193B0E738B505466E
:10B5000000F03EF858B10368DB6A0446984745B13D
:10B51000012D04D12046BDE83840FBF79DB800203E
:10B5200038BD2046BDE83840FBF776B810B5044674
:10B5300000F026F828B1036821461B6ABDE81040D8
:10B54000184710BD0048704716FCFFFF704700BF4A
:10B5500010B5034B036004460BF0BEF9204610BD46
:10B560004CF4030010B5054B036004460BF0B4F92E
:10B57000204612F0BFFC204610BD00BF4CF4030073
:10B580002DE9F043C04C236885B01BB1986805B025
:10B59000BDE8F0834FF0FF31012001F0FFFCC0B2A5
:10B5A00004F028FB002800F0ED800C2012F0A4FC31
:10B5B00003210646512001F0F1FCDFF8FCE2B34B19
:10B5C000054605F00F07C5F3031815F4807518BF7D
:10B5D0007346AF48394642460AF07CFB2A1C18BF26
:10B5E00001223946434630460DF0FCFA0023A948B3
:10B5F000B3600AF06FFB4FF0FF31032001F0CEFC87
:10B60000C0B204F0F7FA4FF0FF310546022001F016
:10B61000C5FCC0B204F0EEFA002D00F09A800028BC
:10B6200000F097800146284604F076F80746002887
:10B6300000F0A4804FF0FF31462001F0AFFC32282B
:10B6400080462BD028DD382869D068283FD14FF0BC
:10B65000FF31012001F0A2FCC0B204F0CBFA814618
:10B660004C2012F049FC0523054601934A46CDF8CB
:10B670000080394633460CF085FA2846B0600368EE
:10B680009B6A9847B0680368DB6A984782480AF06B
:10B6900021FB2660B0687AE7302818D14FF0FF31DF
:10B6A000012001F07BFCC0B204F0A4FA81464C20DA
:10B6B00012F022FC1FFA88F1054605234A46009144
:10B6C0000193394633460CF03FF82846D6E73A68EE
:10B6D0000125002301950095D2F82080B3600F2248
:10B6E0000DF10F0332213846C047002856D14FF0E4
:10B6F0003208414669480AF0EDFA4FF0FF31012067
:10B7000001F04CFCC0B204F075FA81464C2012F0F6
:10B71000F3FB052305464A46CDF80080D0E74FF0FD
:10B72000FF31012001F03AFCC0B204F063FA814617
:10B73000442012F0E1FB052305464A46CDF800807F
:10B740003946019333460CF075F9554B2B6028466A
:10B7500094E754480AF0BEFA4FF0FF31192001F087
:10B760001DFCC0B204F046FA4FF0FF310546182028
:10B7700001F014FCC0B204F03DFA53E74A480AF065
:10B78000A9FA86E74FF0FF31032001F007FCC0B2B1
:10B7900004F030FA00287FF408AFF8E63B68019522
:10B7A0000095D3F820800F220DF10F033021384689
:10B7B000C04718B94FF0300841469BE73B680195F8
:10B7C0000095D3F820800D220DF10F033821384663
:10B7D000C047C0B9382131480AF07CFA4FF0FF3138
:10B7E000284601F0DBFBC0B204F004FA8046442096
:10B7F00012F082FB4FF0050E3823054642463946CB
:10B800008DE808409EE73A6801950095D2F82080BF
:10B810000DF10F03752268213846C047E0B9682151
:10B820001E480AF057FA4FF0FF31284601F0B6FBE8
:10B83000C0B204F0DFF980464C2012F05DFB4FF0FF
:10B84000050E682305468DE80840424639463346D2
:10B850000CF098F9284611E714480AF03BFAB06852
:10B8600000287FF40CAF4FF0FF31032001F096FB6E
:10B87000C0B204F0BFF918B10D480AF02BFA08E77E
:10B880000C480AF027FA04E72C850020A4E70300FF
:10B89000ACE70300CCE7030064E8030088E803009A
:10B8A00068E70300DCE70300F0E7030074E8030047
:10B8B00008E8030044E803009CE7030008B501F032
:10B8C00095FCFBF76DFCBDE8084001F0FDB900BF39
:10B8D00008B501F08BFCFBF7D3FCBDE8084001F094
:10B8E000F3B900BF08B501F081FC0FF033FDBDE8EE
:10B8F000084001F0E9B900BF08B501F077FC10F08D
:10B900003BF9BDE8084001F0DFB900BF08B501F020
:10B910006DFCFBF755FCBDE8084001F0D5B900BF50
:10B9200008B501F063FC0FF053FFBDE8084001F0DB
:10B93000CBB900BF08B501F059FCFAF7ADFEBDE880
:10B94000084001F0C1B900BF08B501F04FFC0FF08D
:10B9500093FEBDE8084001F0B7B900BF70B5049E82
:10B9600096420C4628DB15466BB1002A00EB02011B
:10B9700007DD2046A21811F8013D00F8013B904276
:10B98000F9D1002070BD042A0FD0022A02D110F094
:10B99000010306D001462A46204606F079FC002025
:10B9A00070BD02880A80184670BD10F00303F1D103
:10B9B00002680A60184670BD0846002107F058FE6C
:10B9C0004FF0FF3070BD00BF0830704740B1002914
:10B9D00005DB4368994202DA0844007A7047002088
:10B9E000704700BF30B1002904DB43689942BCBFF7
:10B9F00040180272704700BF40B1002905DB436860
:10BA0000994202DA0844007A70470020704700BF6C
:10BA1000830705D120B1030F0CBF01200020704720
:10BA20000120704730B1002904DB43689942BCBF54
:10BA300040180272704700BF002B23DB002921DB76
:10BA400070B54668B1421ADC5568761A1446EA1A8F
:10BA5000B242A8BF3246002A11DB84420D4607D00D
:10BA6000083408300844E11806F012FC002070BDCC
:10BA70000834E118601912F06DFA002070BD4FF023
:10BA8000FF3070BD4FF0FF30704700BF4068704717
:10BA900010B4141E10DB426894420DDC33EA230319
:10BAA00028BF1346121B08309A422044A8BF1A46EA
:10BAB0005DF8044B07F0DCBD5DF8044B704700BF38
:10BAC00043688B4210B400F108041846A8BF08462A
:10BAD00032EA220128BF19461B1A99422044A8BF06
